{
  "_format": "hh-sol-artifact-1",
  "contractName": "MonoTrade",
  "sourceName": "contracts/v2/MonoTrade.sol",
  "abi": [
    {
      "inputs": [
        {
          "internalType": "address",
          "name": "_token0",
          "type": "address"
        },
        {
          "internalType": "address",
          "name": "_token1",
          "type": "address"
        },
        {
          "internalType": "uint8",
          "name": "_fee",
          "type": "uint8"
        }
      ],
      "stateMutability": "nonpayable",
      "type": "constructor"
    },
    {
      "anonymous": false,
      "inputs": [
        {
          "indexed": true,
          "internalType": "uint48",
          "name": "orderId",
          "type": "uint48"
        }
      ],
      "name": "CancelOrder",
      "type": "event"
    },
    {
      "anonymous": false,
      "inputs": [
        {
          "indexed": true,
          "internalType": "uint48",
          "name": "orderId",
          "type": "uint48"
        },
        {
          "indexed": false,
          "internalType": "uint112",
          "name": "token1In",
          "type": "uint112"
        },
        {
          "indexed": false,
          "internalType": "uint112",
          "name": "token0Out",
          "type": "uint112"
        }
      ],
      "name": "MakeOrder",
      "type": "event"
    },
    {
      "anonymous": false,
      "inputs": [
        {
          "indexed": false,
          "internalType": "uint112",
          "name": "token0Paid",
          "type": "uint112"
        },
        {
          "indexed": false,
          "internalType": "uint112",
          "name": "token1Gain",
          "type": "uint112"
        }
      ],
      "name": "TakeOrder",
      "type": "event"
    },
    {
      "inputs": [
        {
          "internalType": "uint48",
          "name": "orderId",
          "type": "uint48"
        }
      ],
      "name": "cancelOrder",
      "outputs": [
        {
          "internalType": "uint112",
          "name": "token1Left",
          "type": "uint112"
        }
      ],
      "stateMutability": "nonpayable",
      "type": "function"
    },
    {
      "inputs": [
        {
          "internalType": "uint48",
          "name": "orderId",
          "type": "uint48"
        },
        {
          "internalType": "address",
          "name": "newOwner",
          "type": "address"
        }
      ],
      "name": "changeOrderOwner",
      "outputs": [],
      "stateMutability": "nonpayable",
      "type": "function"
    },
    {
      "inputs": [],
      "name": "count",
      "outputs": [
        {
          "internalType": "uint48",
          "name": "",
          "type": "uint48"
        }
      ],
      "stateMutability": "view",
      "type": "function"
    },
    {
      "inputs": [],
      "name": "factory",
      "outputs": [
        {
          "internalType": "address",
          "name": "",
          "type": "address"
        }
      ],
      "stateMutability": "view",
      "type": "function"
    },
    {
      "inputs": [],
      "name": "fee",
      "outputs": [
        {
          "internalType": "uint8",
          "name": "",
          "type": "uint8"
        }
      ],
      "stateMutability": "view",
      "type": "function"
    },
    {
      "inputs": [
        {
          "internalType": "uint48",
          "name": "orderId",
          "type": "uint48"
        }
      ],
      "name": "getOrder",
      "outputs": [
        {
          "components": [
            {
              "internalType": "uint48",
              "name": "beforeOrderId",
              "type": "uint48"
            },
            {
              "internalType": "uint48",
              "name": "afterOrderId",
              "type": "uint48"
            },
            {
              "internalType": "address",
              "name": "owner",
              "type": "address"
            },
            {
              "internalType": "uint112",
              "name": "amountIn",
              "type": "uint112"
            },
            {
              "internalType": "uint112",
              "name": "amountOut",
              "type": "uint112"
            },
            {
              "internalType": "uint32",
              "name": "progress",
              "type": "uint32"
            }
          ],
          "internalType": "struct MonoTrade.Order",
          "name": "",
          "type": "tuple"
        }
      ],
      "stateMutability": "view",
      "type": "function"
    },
    {
      "inputs": [
        {
          "internalType": "uint112",
          "name": "token1In",
          "type": "uint112"
        },
        {
          "internalType": "uint112",
          "name": "token0Out",
          "type": "uint112"
        },
        {
          "internalType": "uint48",
          "name": "beforeOrderId",
          "type": "uint48"
        }
      ],
      "name": "makeOrder",
      "outputs": [
        {
          "internalType": "uint48",
          "name": "",
          "type": "uint48"
        }
      ],
      "stateMutability": "nonpayable",
      "type": "function"
    },
    {
      "inputs": [
        {
          "internalType": "uint48",
          "name": "",
          "type": "uint48"
        }
      ],
      "name": "orders",
      "outputs": [
        {
          "internalType": "uint48",
          "name": "beforeOrderId",
          "type": "uint48"
        },
        {
          "internalType": "uint48",
          "name": "afterOrderId",
          "type": "uint48"
        },
        {
          "internalType": "address",
          "name": "owner",
          "type": "address"
        },
        {
          "internalType": "uint112",
          "name": "amountIn",
          "type": "uint112"
        },
        {
          "internalType": "uint112",
          "name": "amountOut",
          "type": "uint112"
        },
        {
          "internalType": "uint32",
          "name": "progress",
          "type": "uint32"
        }
      ],
      "stateMutability": "view",
      "type": "function"
    },
    {
      "inputs": [
        {
          "internalType": "uint112",
          "name": "token0In",
          "type": "uint112"
        },
        {
          "internalType": "uint112",
          "name": "token1ForPrice",
          "type": "uint112"
        }
      ],
      "name": "takeOrder",
      "outputs": [
        {
          "internalType": "uint112",
          "name": "token0Paid",
          "type": "uint112"
        },
        {
          "internalType": "uint112",
          "name": "token1Gain",
          "type": "uint112"
        },
        {
          "internalType": "uint112",
          "name": "token0Fee",
          "type": "uint112"
        }
      ],
      "stateMutability": "nonpayable",
      "type": "function"
    },
    {
      "inputs": [],
      "name": "token0",
      "outputs": [
        {
          "internalType": "address",
          "name": "",
          "type": "address"
        }
      ],
      "stateMutability": "view",
      "type": "function"
    },
    {
      "inputs": [],
      "name": "token1",
      "outputs": [
        {
          "internalType": "address",
          "name": "",
          "type": "address"
        }
      ],
      "stateMutability": "view",
      "type": "function"
    },
    {
      "inputs": [],
      "name": "topOrderId",
      "outputs": [
        {
          "internalType": "uint48",
          "name": "",
          "type": "uint48"
        }
      ],
      "stateMutability": "view",
      "type": "function"
    }
  ],
  "bytecode": "0x6101006040526000805465ffffffffffff191690553480156200002157600080fd5b5060405162001fe338038062001fe3833981016040819052620000449162000084565b6001600160a01b03928316608052911660a05260ff1660c0523360e052620000d7565b80516001600160a01b03811681146200007f57600080fd5b919050565b6000806000606084860312156200009a57600080fd5b620000a58462000067565b9250620000b56020850162000067565b9150604084015160ff81168114620000cc57600080fd5b809150509250925092565b60805160a05160c05160e051611e7f6200016460003960008181610384015281816107c0015281816107f0015261081601526000818161042501526108b40152600081816103ab0152818161099b01528181610cdc015261183f01526000818160ec0152818161048c015281816106390152818161075e01528181610902015261094f0152611e7f6000f3fe608060405234801561001057600080fd5b50600436106100b45760003560e01c8063c45a015511610071578063c45a01551461037f578063d21220a7146103a6578063d51356f2146103cd578063d9d8f541146103e2578063dbc4ba87146103f5578063ddca3f431461042057600080fd5b806306661abd146100b95780630dfe1681146100e75780632784e81514610126578063692f3a44146101ef5780637ce219aa1461022c57806399a3bd231461036d575b600080fd5b6000546100cb9065ffffffffffff1681565b60405165ffffffffffff90911681526020015b60405180910390f35b61010e7f000000000000000000000000000000000000000000000000000000000000000081565b6040516001600160a01b0390911681526020016100de565b610199610134366004611bb0565b6001602081905260009182526040909120805491015465ffffffffffff80831692600160301b810490911691600160601b9091046001600160a01b0316906001600160701b0380821691600160701b810490911690600160e01b900463ffffffff1686565b6040805165ffffffffffff97881681529690951660208701526001600160a01b03909316938501939093526001600160701b039081166060850152909116608083015263ffffffff1660a082015260c0016100de565b6102026101fd366004611be2565b610459565b604080516001600160701b03948516815292841660208401529216918101919091526060016100de565b6102f861023a366004611bb0565b6040805160c081018252600080825260208201819052918101829052606081018290526080810182905260a08101919091525065ffffffffffff908116600090815260016020818152604092839020835160c08101855281548087168252600160301b810490961692810192909252600160601b9094046001600160a01b03169281019290925291909101546001600160701b038082166060840152600160701b8204166080830152600160e01b900463ffffffff1660a082015290565b6040516100de9190600060c08201905065ffffffffffff8084511683528060208501511660208401525060018060a01b03604084015116604083015260608301516001600160701b038082166060850152806080860151166080850152505063ffffffff60a08401511660a083015292915050565b6002546100cb9065ffffffffffff1681565b61010e7f000000000000000000000000000000000000000000000000000000000000000081565b61010e7f000000000000000000000000000000000000000000000000000000000000000081565b6103e06103db366004611c2a565b610a19565b005b6100cb6103f0366004611c61565b610be5565b610408610403366004611bb0565b611651565b6040516001600160701b0390911681526020016100de565b6104477f000000000000000000000000000000000000000000000000000000000000000081565b60405160ff90911681526020016100de565b6002546000908190819065ffffffffffff16810361047f57506000915081905080610a12565b6104bd6001600160a01b037f00000000000000000000000000000000000000000000000000000000000000001633306001600160701b0389166118b3565b845b60025465ffffffffffff16156107af5760025465ffffffffffff1660009081526001602081905260409091209081015461050d906001600160701b03600160701b9091048116908816611cba565b6001820154610529906001600160701b03908116908a16611cba565b101561053557506107af565b600181015460009063ffffffff90610560906001600160701b03811690600160e01b90048316611cba565b61056a9190611ced565b60018301549091506000906001600160701b038082169161059791600160701b9091048116908516611cba565b6105a19190611ced565b60018401546105c09190600160701b90046001600160701b0316611d01565b9050806001600160701b0316846001600160701b0316106106af576105e58185611d01565b60018401549094506106019083906001600160701b0316611d01565b61060b9087611d28565b9550610616836119e3565b6001830180546001600160e01b03166001600160e01b0319179055825461067b907f00000000000000000000000000000000000000000000000000000000000000006001600160a01b0390811691600160601b9004166001600160701b038416611a7a565b825465ffffffffffff1990811665ffffffffffff90811780865560028054909316600160301b9091049091161790556107a7565b60018301546000906001600160701b03600160701b82048116916106d891908116908816611cba565b6106e29190611ced565b90506106ee8188611d28565b96506106fa8184611d28565b60018501549093506001600160701b031661071963ffffffff85611d48565b6107239190611d73565b61072e906001611d99565b6001850180546001600160e01b0316600160e01b63ffffffff93841602179055845461079a916001600160a01b037f0000000000000000000000000000000000000000000000000000000000000000811692600160601b900416906001600160701b03891690611a7a16565b60009450505050506107af565b5050506104bf565b6107b98187611d01565b93506000807f00000000000000000000000000000000000000000000000000000000000000006001600160a01b03163b11610814577f0000000000000000000000000000000000000000000000000000000000000000610898565b7f00000000000000000000000000000000000000000000000000000000000000006001600160a01b031663017e7e586040518163ffffffff1660e01b81526004016020604051808303816000875af1158015610874573d6000803e3d6000fd5b505050506040513d601f19601f820116820180604052508101906108989190611db6565b9050336001600160a01b03821614610933576127106108da60ff7f00000000000000000000000000000000000000000000000000000000000000001687611d48565b6108e49190611d73565b92506001600160701b03831615610933576109336001600160a01b037f00000000000000000000000000000000000000000000000000000000000000001633836001600160701b0387166118b3565b6001600160701b0382161561097f5761097f6001600160a01b037f000000000000000000000000000000000000000000000000000000000000000016336001600160701b038516611a7a565b6001600160701b03841615610a0f576109cb6001600160a01b037f000000000000000000000000000000000000000000000000000000000000000016336001600160701b038716611a7a565b604080516001600160701b038088168252861660208201527fb7450b19733c0654e83e08ccdc9716e46e17ca73c620c0379de9b8b580836e3e910160405180910390a15b50505b9250925092565b65ffffffffffff821660009081526001602052604090208054600160601b90046001600160a01b03163314610abb5760405162461bcd60e51b815260206004820152603c60248201527f4d6f6e6f54726164653a206368616e67654f726465724f776e65723a3a20796f60448201527f7520617265206e6f74206f776e6572206f6620746865206f726465720000000060648201526084015b60405180910390fd5b805465ffffffffffff1665fffffffffffe1901610b42576040805162461bcd60e51b81526020600482015260248101919091527f4d6f6e6f54726164653a206368616e67654f726465724f776e65723a3a20746860448201527f65206f7264657220697320616c72656164792072656d6f76656428646f6e65296064820152608401610ab2565b6001600160a01b038216610bbe5760405162461bcd60e51b815260206004820152603a60248201527f4d6f6e6f54726164653a206368616e67654f726465724f776e65723a3a206e6560448201527f774f776e65722063616e277420626520616464726573732830290000000000006064820152608401610ab2565b80546001600160a01b03909216600160601b026001600160601b0390921691909117905550565b600080846001600160701b031611610c5a5760405162461bcd60e51b815260206004820152603260248201527f4d6f6e6f54726164653a206d616b654f726465723a3a20746f6b656e31496e206044820152710616d6f756e742063616e6e6f7420626520360741b6064820152608401610ab2565b6000836001600160701b031611610ccf5760405162461bcd60e51b815260206004820152603360248201527f4d6f6e6f54726164653a206d616b654f726465723a3a20746f6b656e304f7574604482015272020616d6f756e742063616e6e6f74206265203606c1b6064820152608401610ab2565b610d0d6001600160a01b037f00000000000000000000000000000000000000000000000000000000000000001633306001600160701b0388166118b3565b600080548190610d249065ffffffffffff16611dd3565b82546101009290920a65ffffffffffff81810219909316918316021790915560025416600003610e5257506040805160c08101825260008082526020808301828152338486019081526001600160701b03808a16606087019081528982166080880190815260a08801878152875465ffffffffffff908116895260019788905299882098518954965195516001600160a01b0316600160601b026001600160601b03968c16600160301b026001600160601b0319909816918c16919091179690961794909416949094178755519590930180549251915163ffffffff16600160e01b026001600160e01b03928516600160701b026001600160e01b03199094169690941695909517919091171617909155546002805465ffffffffffff19169190921690811790915561164a565b8165ffffffffffff1660000361103a5760025465ffffffffffff16600090815260016020819052604090912090810154610e98906001600160701b038087169116611cba565b6001820154610eba906001600160701b0380891691600160701b900416611cba565b11610f215760405162461bcd60e51b815260206004820152603160248201527f4d6f6e6f54726164653a206d616b654f726465723a3a20796f75722070726963604482015270329036bab9ba101f103a37b827b93232b960791b6064820152608401610ab2565b60008054825465ffffffffffff1990811665ffffffffffff928316179093556040805160c0810182528381526002805484166020808401918252338486019081526001600160701b03808e16606087019081528d82166080880190815260a088018b81528b548b168c52600195869052988b2097518854965194516001600160a01b0316600160601b026001600160601b03958c16600160301b026001600160601b0319909816918c1691909117969096179390931694909417865592519490910180549151955163ffffffff16600160e01b026001600160e01b03968416600160701b026001600160e01b0319909316959093169490941717939093169290921790559154825490931692169182179055905061164a565b65ffffffffffff8216600090815260016020819052604082209081015490916001600160701b0390911690036110ca5760405162461bcd60e51b815260206004820152602f60248201527f4d6f6e6f54726164653a206d616b654f726465723a3a206265666f72654f726460448201526e195c881a5cc81b9bdd08195e1a5cdd608a1b6064820152608401610ab2565b805465ffffffffffff1665fffffffffffe19016111455760405162461bcd60e51b815260206004820152603360248201527f4d6f6e6f54726164653a206d616b654f726465723a3a206265666f72654f726460448201527265722069732072656d6f76656428646f6e652960681b6064820152608401610ab2565b6001810154611160906001600160701b038087169116611cba565b6001820154611182906001600160701b0380891691600160701b900416611cba565b11156111ee5760405162461bcd60e51b815260206004820152603560248201527f4d6f6e6f54726164653a206d616b654f726465723a3a20796f75722070726963604482015274329036bab9ba101e1e903132b337b932a7b93232b960591b6064820152608401610ab2565b8054600160301b900465ffffffffffff1660000361131657600080548254600160301b65ffffffffffff928316810265ffffffffffff60301b19909216919091179093556040805160c08101825286831681526020808201858152338385019081526001600160701b03808d16606086019081528c82166080870190815260a087018a81528a548a168b52600196879052978a2096518754955194516001600160a01b0316600160601b026001600160601b03958b16909c026001600160601b0319909616908a16179490941792909216989098178455519290910180549151935163ffffffff16600160e01b026001600160e01b03948816600160701b026001600160e01b031990931693909716929092171791909116939093179092555416905061164a565b8054600160301b900465ffffffffffff16600090815260016020819052604082209081015490916001600160701b0390911690036113ad5760405162461bcd60e51b815260206004820152602e60248201527f4d6f6e6f54726164653a206d616b654f726465723a3a2061667465724f72646560448201526d1c881a5cc81b9bdd08195e1a5cdd60921b6064820152608401610ab2565b805465ffffffffffff1665fffffffffffe19016114215760405162461bcd60e51b815260206004820152602c60248201527f4d6f6e6f54726164653a206d616b654f726465723a3a2061667465724f72646560448201526b1c881a5cc81c995b5bdd995960a21b6064820152608401610ab2565b600181015461143c906001600160701b038088169116611cba565b600182015461145e906001600160701b03808a1691600160701b900416611cba565b116114c75760405162461bcd60e51b815260206004820152603360248201527f4d6f6e6f54726164653a206d616b654f726465723a3a20796f75722070726963604482015272329036bab9ba101f1030b33a32b927b93232b960691b6064820152608401610ab2565b6040805160c08101825265ffffffffffff80871682528454600160301b9081900482166020808501918252338587019081526001600160701b03808e16606088019081528d821660808901908152600060a08a0181815281548a1682526001968790528b82209a518b54985196516001600160a01b0316600160601b026001600160601b03978c168b026001600160601b0319909a16918c1691909117989098179590951696909617895590519790930180549351925163ffffffff16600160e01b026001600160e01b03938316600160701b026001600160e01b031990951698909216979097179290921716179093558254865490831690910265ffffffffffff60301b19919091161785558154845465ffffffffffff1916908216178455905491519116907f2336f98edea03fae5932cf9f26ce4784b74d1b3dec618bb0b78f68ba0c53fbb39061163290899089906001600160701b0392831681529116602082015260400190565b60405180910390a2505060005465ffffffffffff1690505b9392505050565b65ffffffffffff811660009081526001602052604081208054600160601b90046001600160a01b031633146116ee5760405162461bcd60e51b815260206004820152603760248201527f4d6f6e6f54726164653a2063616e63656c4f726465723a3a20796f752061726560448201527f206e6f74206f776e6572206f6620746865206f726465720000000000000000006064820152608401610ab2565b805465ffffffffffff1665fffffffffffe19016117735760405162461bcd60e51b815260206004820152603b60248201527f4d6f6e6f54726164653a2063616e63656c4f726465723a3a20746865206f726460448201527f657220697320616c72656164792072656d6f76656428646f6e652900000000006064820152608401610ab2565b61177c816119e3565b60025465ffffffffffff8085169116036117b857805460028054600160301b90920465ffffffffffff1665ffffffffffff199092169190911790555b805465ffffffffffff191665ffffffffffff178155600181015460009063ffffffff906117f8906001600160701b03811690600160e01b90048316611cba565b6118029190611ced565b600183015490915061181e9082906001600160701b0316611d01565b92506001600160701b038316156118ac578154611878906001600160a01b037f0000000000000000000000000000000000000000000000000000000000000000811691600160601b9004166001600160701b038616611a7a565b60405165ffffffffffff8516907fc56e02aba5fc42d044055fc90697eeddfd7802afd1cc3ffaabb94e7890d4d58b90600090a25b5050919050565b604080516001600160a01b0385811660248301528481166044830152606480830185905283518084039091018152608490920183526020820180516001600160e01b03166323b872dd60e01b17905291516000928392908816916119179190611df8565b6000604051808303816000865af19150503d8060008114611954576040519150601f19603f3d011682016040523d82523d6000602084013e611959565b606091505b50915091508180156119835750805115806119835750808060200190518101906119839190611e27565b6119db5760405162461bcd60e51b8152602060048201526024808201527f5472616e7366657248656c7065723a205452414e534645525f46524f4d5f46416044820152631253115160e21b6064820152608401610ab2565b505050505050565b805465ffffffffffff1615611a2d57805465ffffffffffff8082166000908152600160205260409020805465ffffffffffff60301b1916600160301b938490049092169092021790555b8054600160301b900465ffffffffffff1615611a77578054600160301b810465ffffffffffff9081166000908152600160205260409020805465ffffffffffff1916919092161790555b50565b604080516001600160a01b038481166024830152604480830185905283518084039091018152606490920183526020820180516001600160e01b031663a9059cbb60e01b1790529151600092839290871691611ad69190611df8565b6000604051808303816000865af19150503d8060008114611b13576040519150601f19603f3d011682016040523d82523d6000602084013e611b18565b606091505b5091509150818015611b42575080511580611b42575080806020019051810190611b429190611e27565b611b8e5760405162461bcd60e51b815260206004820152601f60248201527f5472616e7366657248656c7065723a205452414e534645525f4641494c4544006044820152606401610ab2565b5050505050565b803565ffffffffffff81168114611bab57600080fd5b919050565b600060208284031215611bc257600080fd5b61164a82611b95565b80356001600160701b0381168114611bab57600080fd5b60008060408385031215611bf557600080fd5b611bfe83611bcb565b9150611c0c60208401611bcb565b90509250929050565b6001600160a01b0381168114611a7757600080fd5b60008060408385031215611c3d57600080fd5b611c4683611b95565b91506020830135611c5681611c15565b809150509250929050565b600080600060608486031215611c7657600080fd5b611c7f84611bcb565b9250611c8d60208501611bcb565b9150611c9b60408501611b95565b90509250925092565b634e487b7160e01b600052601160045260246000fd5b8082028115828204841417611cd157611cd1611ca4565b92915050565b634e487b7160e01b600052601260045260246000fd5b600082611cfc57611cfc611cd7565b500490565b6001600160701b03828116828216039080821115611d2157611d21611ca4565b5092915050565b6001600160701b03818116838216019080821115611d2157611d21611ca4565b6001600160701b03818116838216028082169190828114611d6b57611d6b611ca4565b505092915050565b60006001600160701b0380841680611d8d57611d8d611cd7565b92169190910492915050565b63ffffffff818116838216019080821115611d2157611d21611ca4565b600060208284031215611dc857600080fd5b815161164a81611c15565b600065ffffffffffff808316818103611dee57611dee611ca4565b6001019392505050565b6000825160005b81811015611e195760208186018101518583015201611dff565b506000920191825250919050565b600060208284031215611e3957600080fd5b8151801515811461164a57600080fdfea26469706673582212202b9054569649613373550b24285885bdd704f6d83fb1567761ac4647842777aa64736f6c63430008180033",
  "linkReferences": {},
  "deployedLinkReferences": {}
}