{
  "_format": "hh-sol-artifact-1",
  "contractName": "MonoTrade",
  "sourceName": "contracts/v2/MonoTrade.sol",
  "abi": [
    {
      "inputs": [
        {
          "internalType": "address",
          "name": "token0Addr",
          "type": "address"
        },
        {
          "internalType": "address",
          "name": "token1Addr",
          "type": "address"
        },
        {
          "internalType": "uint8",
          "name": "_fee",
          "type": "uint8"
        },
        {
          "internalType": "address",
          "name": "_feeTo",
          "type": "address"
        }
      ],
      "stateMutability": "nonpayable",
      "type": "constructor"
    },
    {
      "inputs": [
        {
          "internalType": "uint48",
          "name": "orderId",
          "type": "uint48"
        }
      ],
      "name": "cancelOrder",
      "outputs": [
        {
          "internalType": "uint112",
          "name": "token1Left",
          "type": "uint112"
        }
      ],
      "stateMutability": "nonpayable",
      "type": "function"
    },
    {
      "inputs": [
        {
          "internalType": "uint48",
          "name": "orderId",
          "type": "uint48"
        },
        {
          "internalType": "address",
          "name": "newOwner",
          "type": "address"
        }
      ],
      "name": "changeOrderOwner",
      "outputs": [],
      "stateMutability": "nonpayable",
      "type": "function"
    },
    {
      "inputs": [],
      "name": "count",
      "outputs": [
        {
          "internalType": "uint48",
          "name": "",
          "type": "uint48"
        }
      ],
      "stateMutability": "view",
      "type": "function"
    },
    {
      "inputs": [],
      "name": "fee",
      "outputs": [
        {
          "internalType": "uint8",
          "name": "",
          "type": "uint8"
        }
      ],
      "stateMutability": "view",
      "type": "function"
    },
    {
      "inputs": [],
      "name": "feeTo",
      "outputs": [
        {
          "internalType": "address",
          "name": "",
          "type": "address"
        }
      ],
      "stateMutability": "view",
      "type": "function"
    },
    {
      "inputs": [
        {
          "internalType": "uint48",
          "name": "orderId",
          "type": "uint48"
        }
      ],
      "name": "getOrder",
      "outputs": [
        {
          "components": [
            {
              "internalType": "uint48",
              "name": "beforeOrderId",
              "type": "uint48"
            },
            {
              "internalType": "uint48",
              "name": "afterOrderId",
              "type": "uint48"
            },
            {
              "internalType": "address",
              "name": "owner",
              "type": "address"
            },
            {
              "internalType": "uint112",
              "name": "amountIn",
              "type": "uint112"
            },
            {
              "internalType": "uint112",
              "name": "amountOut",
              "type": "uint112"
            },
            {
              "internalType": "uint32",
              "name": "progress",
              "type": "uint32"
            }
          ],
          "internalType": "struct MonoTrade.Order",
          "name": "",
          "type": "tuple"
        }
      ],
      "stateMutability": "view",
      "type": "function"
    },
    {
      "inputs": [
        {
          "internalType": "uint112",
          "name": "token1In",
          "type": "uint112"
        },
        {
          "internalType": "uint112",
          "name": "token0Out",
          "type": "uint112"
        },
        {
          "internalType": "uint48",
          "name": "beforeOrderId",
          "type": "uint48"
        }
      ],
      "name": "makeOrder",
      "outputs": [
        {
          "internalType": "uint48",
          "name": "",
          "type": "uint48"
        }
      ],
      "stateMutability": "nonpayable",
      "type": "function"
    },
    {
      "inputs": [
        {
          "internalType": "uint48",
          "name": "",
          "type": "uint48"
        }
      ],
      "name": "orders",
      "outputs": [
        {
          "internalType": "uint48",
          "name": "beforeOrderId",
          "type": "uint48"
        },
        {
          "internalType": "uint48",
          "name": "afterOrderId",
          "type": "uint48"
        },
        {
          "internalType": "address",
          "name": "owner",
          "type": "address"
        },
        {
          "internalType": "uint112",
          "name": "amountIn",
          "type": "uint112"
        },
        {
          "internalType": "uint112",
          "name": "amountOut",
          "type": "uint112"
        },
        {
          "internalType": "uint32",
          "name": "progress",
          "type": "uint32"
        }
      ],
      "stateMutability": "view",
      "type": "function"
    },
    {
      "inputs": [
        {
          "internalType": "uint112",
          "name": "token0In",
          "type": "uint112"
        },
        {
          "internalType": "uint112",
          "name": "token1Want",
          "type": "uint112"
        }
      ],
      "name": "takeOrder",
      "outputs": [
        {
          "internalType": "uint112",
          "name": "token0Pay",
          "type": "uint112"
        },
        {
          "internalType": "uint112",
          "name": "token1Gain",
          "type": "uint112"
        },
        {
          "internalType": "uint112",
          "name": "token0Fee",
          "type": "uint112"
        }
      ],
      "stateMutability": "nonpayable",
      "type": "function"
    },
    {
      "inputs": [],
      "name": "token0",
      "outputs": [
        {
          "internalType": "contract IERC20",
          "name": "",
          "type": "address"
        }
      ],
      "stateMutability": "view",
      "type": "function"
    },
    {
      "inputs": [],
      "name": "token1",
      "outputs": [
        {
          "internalType": "contract IERC20",
          "name": "",
          "type": "address"
        }
      ],
      "stateMutability": "view",
      "type": "function"
    },
    {
      "inputs": [],
      "name": "topOrderId",
      "outputs": [
        {
          "internalType": "uint48",
          "name": "",
          "type": "uint48"
        }
      ],
      "stateMutability": "view",
      "type": "function"
    }
  ],
  "bytecode": "0x6101006040526000805465ffffffffffff191690553480156200002157600080fd5b5060405162001f8438038062001f84833981016040819052620000449162000085565b6001600160a01b0393841660805291831660a05260ff1660c0521660e052620000e9565b80516001600160a01b03811681146200008057600080fd5b919050565b600080600080608085870312156200009c57600080fd5b620000a78562000068565b9350620000b76020860162000068565b9250604085015160ff81168114620000ce57600080fd5b9150620000de6060860162000068565b905092959194509250565b60805160a05160c05160e051611e156200016f6000396000818160be0152818161098d0152610a1a01526000818161042501526109bc0152600081816103ab01528181610b9d01528181610ef70152611a7301526000818161012b015281816104f7015281816107180152818161089a01528181610a510152610af30152611e156000f3fe608060405234801561001057600080fd5b50600436106100b45760003560e01c806399a3bd231161007157806399a3bd2314610394578063d21220a7146103a6578063d51356f2146103cd578063d9d8f541146103e2578063dbc4ba87146103f5578063ddca3f431461042057600080fd5b8063017e7e58146100b957806306661abd146100fd5780630dfe1681146101265780632784e8151461014d578063692f3a44146102165780637ce219aa14610253575b600080fd5b6100e07f000000000000000000000000000000000000000000000000000000000000000081565b6040516001600160a01b0390911681526020015b60405180910390f35b60005461010f9065ffffffffffff1681565b60405165ffffffffffff90911681526020016100f4565b6100e07f000000000000000000000000000000000000000000000000000000000000000081565b6101c061015b366004611b9b565b6001602081905260009182526040909120805491015465ffffffffffff80831692600160301b810490911691600160601b9091046001600160a01b0316906001600160701b0380821691600160701b810490911690600160e01b900463ffffffff1686565b6040805165ffffffffffff97881681529690951660208701526001600160a01b03909316938501939093526001600160701b039081166060850152909116608083015263ffffffff1660a082015260c0016100f4565b610229610224366004611bcd565b610459565b604080516001600160701b03948516815292841660208401529216918101919091526060016100f4565b61031f610261366004611b9b565b6040805160c081018252600080825260208201819052918101829052606081018290526080810182905260a08101919091525065ffffffffffff908116600090815260016020818152604092839020835160c08101855281548087168252600160301b810490961692810192909252600160601b9094046001600160a01b03169281019290925291909101546001600160701b038082166060840152600160701b8204166080830152600160e01b900463ffffffff1660a082015290565b6040516100f49190600060c08201905065ffffffffffff8084511683528060208501511660208401525060018060a01b03604084015116604083015260608301516001600160701b038082166060850152806080860151166080850152505063ffffffff60a08401511660a083015292915050565b60025461010f9065ffffffffffff1681565b6100e07f000000000000000000000000000000000000000000000000000000000000000081565b6103e06103db366004611c00565b610c1c565b005b61010f6103f0366004611c43565b610de3565b610408610403366004611b9b565b61185d565b6040516001600160701b0390911681526020016100f4565b6104477f000000000000000000000000000000000000000000000000000000000000000081565b60405160ff90911681526020016100f4565b6002546000908190819065ffffffffffff1681036104cd5760405162461bcd60e51b815260206004820152602660248201527f4d6f6e6f54726164653a2074616b654f726465723a3a206f726465727320697360448201526520656d70747960d01b60648201526084015b60405180910390fd5b6040516323b872dd60e01b81523360048201523060248201526001600160701b03861660448201527f00000000000000000000000000000000000000000000000000000000000000006001600160a01b0316906323b872dd906064016020604051808303816000875af1158015610548573d6000803e3d6000fd5b505050506040513d601f19601f8201168201806040525081019061056c9190611c86565b50845b60025465ffffffffffff161561091d5760025465ffffffffffff166000908152600160208190526040909120908101546105bd906001600160701b03600160701b9091048116908816611cbe565b60018201546105d9906001600160701b03908116908a16611cbe565b10156105e5575061091d565b600181015460009063ffffffff90610610906001600160701b03811690600160e01b90048316611cbe565b61061a9190611cf1565b60018301549091506000906001600160701b038082169161064791600160701b9091048116908516611cbe565b6106519190611cf1565b60018401546106709190600160701b90046001600160701b0316611d05565b9050806001600160701b0316846001600160701b0316106107bc576106958185611d05565b60018401549094506106b19083906001600160701b0316611d05565b6106bb9087611d2c565b95506106c683611ae9565b6001830180546001600160e01b03166001600160e01b0319179055825460405163a9059cbb60e01b81526001600160a01b03600160601b909204821660048201526001600160701b03831660248201527f00000000000000000000000000000000000000000000000000000000000000009091169063a9059cbb906044016020604051808303816000875af1158015610763573d6000803e3d6000fd5b505050506040513d601f19601f820116820180604052508101906107879190611c86565b50825465ffffffffffff1990811665ffffffffffff90811780865560028054909316600160301b909104909116179055610915565b60018301546000906001600160701b03600160701b82048116916107e591908116908816611cbe565b6107ef9190611cf1565b90506107fb8188611d2c565b96506108078184611d2c565b60018501549093506001600160701b031661082663ffffffff85611d4c565b6108309190611d77565b61083b906001611d9d565b6001850180546001600160e01b0316600160e01b63ffffffff9390931692909202919091179055835460405163a9059cbb60e01b8152600160601b9091046001600160a01b0390811660048301526001600160701b03871660248301527f0000000000000000000000000000000000000000000000000000000000000000169063a9059cbb906044016020604051808303816000875af11580156108e3573d6000803e3d6000fd5b505050506040513d601f19601f820116820180604052508101906109079190611c86565b50600094505050505061091d565b50505061056f565b6109278187611d05565b93506000846001600160701b0316116109825760405162461bcd60e51b815260206004820152601e60248201527f4d6f6e6f54726164653a2074616b654f726465723a3a206e6f206465616c000060448201526064016104c4565b336001600160a01b037f00000000000000000000000000000000000000000000000000000000000000001614610ac0576127106109e260ff7f00000000000000000000000000000000000000000000000000000000000000001686611d4c565b6109ec9190611d77565b91506001600160701b03821615610ac0576040516323b872dd60e01b81523360048201526001600160a01b037f0000000000000000000000000000000000000000000000000000000000000000811660248301526001600160701b03841660448301527f000000000000000000000000000000000000000000000000000000000000000016906323b872dd906064016020604051808303816000875af1158015610a9a573d6000803e3d6000fd5b505050506040513d601f19601f82011682018060405250810190610abe9190611c86565b505b6001600160701b03811615610b6a5760405163a9059cbb60e01b81523360048201526001600160701b03821660248201527f00000000000000000000000000000000000000000000000000000000000000006001600160a01b03169063a9059cbb906044016020604051808303816000875af1158015610b44573d6000803e3d6000fd5b505050506040513d601f19601f82011682018060405250810190610b689190611c86565b505b6001600160701b03831615610c145760405163a9059cbb60e01b81523360048201526001600160701b03841660248201527f00000000000000000000000000000000000000000000000000000000000000006001600160a01b03169063a9059cbb906044016020604051808303816000875af1158015610bee573d6000803e3d6000fd5b505050506040513d601f19601f82011682018060405250810190610c129190611c86565b505b509250925092565b65ffffffffffff821660009081526001602052604090208054600160601b90046001600160a01b03163314610cb95760405162461bcd60e51b815260206004820152603c60248201527f4d6f6e6f54726164653a206368616e67654f726465724f776e65723a3a20796f60448201527f7520617265206e6f74206f776e6572206f6620746865206f726465720000000060648201526084016104c4565b805465ffffffffffff1665fffffffffffe1901610d40576040805162461bcd60e51b81526020600482015260248101919091527f4d6f6e6f54726164653a206368616e67654f726465724f776e65723a3a20746860448201527f65206f7264657220697320616c72656164792072656d6f76656428646f6e652960648201526084016104c4565b6001600160a01b038216610dbc5760405162461bcd60e51b815260206004820152603a60248201527f4d6f6e6f54726164653a206368616e67654f726465724f776e65723a3a206e6560448201527f774f776e65722063616e2774206265206164647265737328302900000000000060648201526084016104c4565b80546001600160a01b03909216600160601b026001600160601b0390921691909117905550565b600080846001600160701b031611610e585760405162461bcd60e51b815260206004820152603260248201527f4d6f6e6f54726164653a206d616b654f726465723a3a20746f6b656e31496e206044820152710616d6f756e742063616e6e6f7420626520360741b60648201526084016104c4565b6000836001600160701b031611610ecd5760405162461bcd60e51b815260206004820152603360248201527f4d6f6e6f54726164653a206d616b654f726465723a3a20746f6b656e304f7574604482015272020616d6f756e742063616e6e6f74206265203606c1b60648201526084016104c4565b6040516323b872dd60e01b81523360048201523060248201526001600160701b03851660448201527f00000000000000000000000000000000000000000000000000000000000000006001600160a01b0316906323b872dd906064016020604051808303816000875af1158015610f48573d6000803e3d6000fd5b505050506040513d601f19601f82011682018060405250810190610f6c9190611c86565b50600080548190610f849065ffffffffffff16611dba565b82546101009290920a65ffffffffffff818102199093169183160217909155600254166000036110b257506040805160c08101825260008082526020808301828152338486019081526001600160701b03808a16606087019081528982166080880190815260a08801878152875465ffffffffffff908116895260019788905299882098518954965195516001600160a01b0316600160601b026001600160601b03968c16600160301b026001600160601b0319909816918c16919091179690961794909416949094178755519590930180549251915163ffffffff16600160e01b026001600160e01b03928516600160701b026001600160e01b03199094169690941695909517919091171617909155546002805465ffffffffffff191691909216908117909155611856565b8165ffffffffffff1660000361129a5760025465ffffffffffff166000908152600160208190526040909120908101546110f8906001600160701b038087169116611cbe565b600182015461111a906001600160701b0380891691600160701b900416611cbe565b116111815760405162461bcd60e51b815260206004820152603160248201527f4d6f6e6f54726164653a206d616b654f726465723a3a20796f75722070726963604482015270329036bab9ba101f103a37b827b93232b960791b60648201526084016104c4565b60008054825465ffffffffffff1990811665ffffffffffff928316179093556040805160c0810182528381526002805484166020808401918252338486019081526001600160701b03808e16606087019081528d82166080880190815260a088018b81528b548b168c52600195869052988b2097518854965194516001600160a01b0316600160601b026001600160601b03958c16600160301b026001600160601b0319909816918c1691909117969096179390931694909417865592519490910180549151955163ffffffff16600160e01b026001600160e01b03968416600160701b026001600160e01b03199093169590931694909417179390931692909217905591548254909316921691821790559050611856565b65ffffffffffff8216600090815260016020819052604082209081015490916001600160701b03909116900361132a5760405162461bcd60e51b815260206004820152602f60248201527f4d6f6e6f54726164653a206d616b654f726465723a3a206265666f72654f726460448201526e195c881a5cc81b9bdd08195e1a5cdd608a1b60648201526084016104c4565b805465ffffffffffff1665fffffffffffe19016113a55760405162461bcd60e51b815260206004820152603360248201527f4d6f6e6f54726164653a206d616b654f726465723a3a206265666f72654f726460448201527265722069732072656d6f76656428646f6e652960681b60648201526084016104c4565b60018101546113c0906001600160701b038087169116611cbe565b60018201546113e2906001600160701b0380891691600160701b900416611cbe565b111561144e5760405162461bcd60e51b815260206004820152603560248201527f4d6f6e6f54726164653a206d616b654f726465723a3a20796f75722070726963604482015274329036bab9ba101e1e903132b337b932a7b93232b960591b60648201526084016104c4565b8054600160301b900465ffffffffffff1660000361157657600080548254600160301b65ffffffffffff928316810265ffffffffffff60301b19909216919091179093556040805160c08101825286831681526020808201858152338385019081526001600160701b03808d16606086019081528c82166080870190815260a087018a81528a548a168b52600196879052978a2096518754955194516001600160a01b0316600160601b026001600160601b03958b16909c026001600160601b0319909616908a16179490941792909216989098178455519290910180549151935163ffffffff16600160e01b026001600160e01b03948816600160701b026001600160e01b0319909316939097169290921717919091169390931790925554169050611856565b8054600160301b900465ffffffffffff16600090815260016020819052604082209081015490916001600160701b03909116900361160d5760405162461bcd60e51b815260206004820152602e60248201527f4d6f6e6f54726164653a206d616b654f726465723a3a2061667465724f72646560448201526d1c881a5cc81b9bdd08195e1a5cdd60921b60648201526084016104c4565b805465ffffffffffff1665fffffffffffe19016116815760405162461bcd60e51b815260206004820152602c60248201527f4d6f6e6f54726164653a206d616b654f726465723a3a2061667465724f72646560448201526b1c881a5cc81c995b5bdd995960a21b60648201526084016104c4565b600181015461169c906001600160701b038088169116611cbe565b60018201546116be906001600160701b03808a1691600160701b900416611cbe565b116117275760405162461bcd60e51b815260206004820152603360248201527f4d6f6e6f54726164653a206d616b654f726465723a3a20796f75722070726963604482015272329036bab9ba101f1030b33a32b927b93232b960691b60648201526084016104c4565b6040805160c08101825265ffffffffffff80871682528454600160301b9081900482166020808501918252338587019081526001600160701b03808e16606088019081528d821660808901908152600060a08a0181815281548a1682526001968790529a812099518a54975195516001600160a01b0316600160601b026001600160601b03968b168a026001600160601b0319909916918b16919091179790971794909416959095178855519690920180549351975163ffffffff16600160e01b026001600160e01b03988416600160701b026001600160e01b031990951697909316969096179290921795909516949094179092558254855490821690920265ffffffffffff60301b1992909216919091179093558054825465ffffffffffff191690841617909155541690505b9392505050565b65ffffffffffff811660009081526001602052604081208054600160601b90046001600160a01b031633146118fa5760405162461bcd60e51b815260206004820152603760248201527f4d6f6e6f54726164653a2063616e63656c4f726465723a3a20796f752061726560448201527f206e6f74206f776e6572206f6620746865206f7264657200000000000000000060648201526084016104c4565b805465ffffffffffff1665fffffffffffe190161197f5760405162461bcd60e51b815260206004820152603b60248201527f4d6f6e6f54726164653a2063616e63656c4f726465723a3a20746865206f726460448201527f657220697320616c72656164792072656d6f76656428646f6e6529000000000060648201526084016104c4565b61198881611ae9565b60025465ffffffffffff8085169116036119c457805460028054600160301b90920465ffffffffffff1665ffffffffffff199092169190911790555b805465ffffffffffff191665ffffffffffff178155600181015460009063ffffffff90611a04906001600160701b03811690600160e01b90048316611cbe565b611a0e9190611cf1565b6001830154909150611a2a9082906001600160701b0316611d05565b92506001600160701b03831615611ae257815460405163a9059cbb60e01b8152600160601b9091046001600160a01b0390811660048301526001600160701b03851660248301527f0000000000000000000000000000000000000000000000000000000000000000169063a9059cbb906044016020604051808303816000875af1158015611abc573d6000803e3d6000fd5b505050506040513d601f19601f82011682018060405250810190611ae09190611c86565b505b5050919050565b805465ffffffffffff1615611b3357805465ffffffffffff8082166000908152600160205260409020805465ffffffffffff60301b1916600160301b938490049092169092021790555b8054600160301b900465ffffffffffff1615611b7d578054600160301b810465ffffffffffff9081166000908152600160205260409020805465ffffffffffff1916919092161790555b50565b803565ffffffffffff81168114611b9657600080fd5b919050565b600060208284031215611bad57600080fd5b61185682611b80565b80356001600160701b0381168114611b9657600080fd5b60008060408385031215611be057600080fd5b611be983611bb6565b9150611bf760208401611bb6565b90509250929050565b60008060408385031215611c1357600080fd5b611c1c83611b80565b915060208301356001600160a01b0381168114611c3857600080fd5b809150509250929050565b600080600060608486031215611c5857600080fd5b611c6184611bb6565b9250611c6f60208501611bb6565b9150611c7d60408501611b80565b90509250925092565b600060208284031215611c9857600080fd5b8151801515811461185657600080fd5b634e487b7160e01b600052601160045260246000fd5b8082028115828204841417611cd557611cd5611ca8565b92915050565b634e487b7160e01b600052601260045260246000fd5b600082611d0057611d00611cdb565b500490565b6001600160701b03828116828216039080821115611d2557611d25611ca8565b5092915050565b6001600160701b03818116838216019080821115611d2557611d25611ca8565b6001600160701b03818116838216028082169190828114611d6f57611d6f611ca8565b505092915050565b60006001600160701b0380841680611d9157611d91611cdb565b92169190910492915050565b63ffffffff818116838216019080821115611d2557611d25611ca8565b600065ffffffffffff808316818103611dd557611dd5611ca8565b600101939250505056fea2646970667358221220f9cd91da68eb5e63b030ac872fc94af6545fa74c579bc9665e4e0d593df87fd464736f6c63430008180033",
  "linkReferences": {},
  "deployedLinkReferences": {}
}