{
  "_format": "hh-sol-artifact-1",
  "contractName": "MonoTrade",
  "sourceName": "contracts/v2/MonoTrade.sol",
  "abi": [
    {
      "inputs": [
        {
          "internalType": "address",
          "name": "_token0",
          "type": "address"
        },
        {
          "internalType": "address",
          "name": "_token1",
          "type": "address"
        },
        {
          "internalType": "uint8",
          "name": "_fee",
          "type": "uint8"
        }
      ],
      "stateMutability": "nonpayable",
      "type": "constructor"
    },
    {
      "anonymous": false,
      "inputs": [
        {
          "indexed": true,
          "internalType": "uint48",
          "name": "orderId",
          "type": "uint48"
        }
      ],
      "name": "CancelOrder",
      "type": "event"
    },
    {
      "anonymous": false,
      "inputs": [
        {
          "indexed": true,
          "internalType": "uint48",
          "name": "orderId",
          "type": "uint48"
        },
        {
          "indexed": false,
          "internalType": "uint112",
          "name": "token1In",
          "type": "uint112"
        },
        {
          "indexed": false,
          "internalType": "uint112",
          "name": "token0Out",
          "type": "uint112"
        }
      ],
      "name": "MakeOrder",
      "type": "event"
    },
    {
      "anonymous": false,
      "inputs": [
        {
          "indexed": false,
          "internalType": "uint112",
          "name": "token0Paid",
          "type": "uint112"
        },
        {
          "indexed": false,
          "internalType": "uint112",
          "name": "token1Gain",
          "type": "uint112"
        }
      ],
      "name": "TakeOrder",
      "type": "event"
    },
    {
      "inputs": [
        {
          "internalType": "uint48",
          "name": "orderId",
          "type": "uint48"
        }
      ],
      "name": "cancelOrder",
      "outputs": [
        {
          "internalType": "uint112",
          "name": "token1Left",
          "type": "uint112"
        }
      ],
      "stateMutability": "nonpayable",
      "type": "function"
    },
    {
      "inputs": [
        {
          "internalType": "uint48",
          "name": "orderId",
          "type": "uint48"
        },
        {
          "internalType": "address",
          "name": "newOwner",
          "type": "address"
        }
      ],
      "name": "changeOrderOwner",
      "outputs": [],
      "stateMutability": "nonpayable",
      "type": "function"
    },
    {
      "inputs": [],
      "name": "count",
      "outputs": [
        {
          "internalType": "uint48",
          "name": "",
          "type": "uint48"
        }
      ],
      "stateMutability": "view",
      "type": "function"
    },
    {
      "inputs": [],
      "name": "factory",
      "outputs": [
        {
          "internalType": "address",
          "name": "",
          "type": "address"
        }
      ],
      "stateMutability": "view",
      "type": "function"
    },
    {
      "inputs": [],
      "name": "fee",
      "outputs": [
        {
          "internalType": "uint8",
          "name": "",
          "type": "uint8"
        }
      ],
      "stateMutability": "view",
      "type": "function"
    },
    {
      "inputs": [
        {
          "internalType": "uint112",
          "name": "token1In",
          "type": "uint112"
        },
        {
          "internalType": "uint112",
          "name": "token0Out",
          "type": "uint112"
        },
        {
          "internalType": "uint48",
          "name": "findFromId",
          "type": "uint48"
        }
      ],
      "name": "findBeforeOrderId",
      "outputs": [
        {
          "internalType": "uint48",
          "name": "",
          "type": "uint48"
        }
      ],
      "stateMutability": "view",
      "type": "function"
    },
    {
      "inputs": [
        {
          "internalType": "uint48",
          "name": "orderId",
          "type": "uint48"
        }
      ],
      "name": "getOrder",
      "outputs": [
        {
          "components": [
            {
              "internalType": "uint48",
              "name": "beforeOrderId",
              "type": "uint48"
            },
            {
              "internalType": "uint48",
              "name": "afterOrderId",
              "type": "uint48"
            },
            {
              "internalType": "address",
              "name": "owner",
              "type": "address"
            },
            {
              "internalType": "uint112",
              "name": "token1In",
              "type": "uint112"
            },
            {
              "internalType": "uint112",
              "name": "token0Out",
              "type": "uint112"
            },
            {
              "internalType": "uint32",
              "name": "progress",
              "type": "uint32"
            }
          ],
          "internalType": "struct MonoTrade.Order",
          "name": "",
          "type": "tuple"
        }
      ],
      "stateMutability": "view",
      "type": "function"
    },
    {
      "inputs": [
        {
          "internalType": "uint112",
          "name": "token1In",
          "type": "uint112"
        },
        {
          "internalType": "uint112",
          "name": "token0Out",
          "type": "uint112"
        },
        {
          "internalType": "uint48",
          "name": "beforeOrderId",
          "type": "uint48"
        }
      ],
      "name": "makeOrder",
      "outputs": [
        {
          "internalType": "uint48",
          "name": "",
          "type": "uint48"
        }
      ],
      "stateMutability": "nonpayable",
      "type": "function"
    },
    {
      "inputs": [
        {
          "internalType": "uint48",
          "name": "",
          "type": "uint48"
        }
      ],
      "name": "orders",
      "outputs": [
        {
          "internalType": "uint48",
          "name": "beforeOrderId",
          "type": "uint48"
        },
        {
          "internalType": "uint48",
          "name": "afterOrderId",
          "type": "uint48"
        },
        {
          "internalType": "address",
          "name": "owner",
          "type": "address"
        },
        {
          "internalType": "uint112",
          "name": "token1In",
          "type": "uint112"
        },
        {
          "internalType": "uint112",
          "name": "token0Out",
          "type": "uint112"
        },
        {
          "internalType": "uint32",
          "name": "progress",
          "type": "uint32"
        }
      ],
      "stateMutability": "view",
      "type": "function"
    },
    {
      "inputs": [
        {
          "internalType": "uint112",
          "name": "token0In",
          "type": "uint112"
        },
        {
          "internalType": "uint112",
          "name": "token1ForPrice",
          "type": "uint112"
        }
      ],
      "name": "takeOrder",
      "outputs": [
        {
          "internalType": "uint112",
          "name": "token0Paid",
          "type": "uint112"
        },
        {
          "internalType": "uint112",
          "name": "token1Gain",
          "type": "uint112"
        },
        {
          "internalType": "uint112",
          "name": "token0Fee",
          "type": "uint112"
        }
      ],
      "stateMutability": "nonpayable",
      "type": "function"
    },
    {
      "inputs": [],
      "name": "token0",
      "outputs": [
        {
          "internalType": "address",
          "name": "",
          "type": "address"
        }
      ],
      "stateMutability": "view",
      "type": "function"
    },
    {
      "inputs": [],
      "name": "token1",
      "outputs": [
        {
          "internalType": "address",
          "name": "",
          "type": "address"
        }
      ],
      "stateMutability": "view",
      "type": "function"
    },
    {
      "inputs": [],
      "name": "topOrderId",
      "outputs": [
        {
          "internalType": "uint48",
          "name": "",
          "type": "uint48"
        }
      ],
      "stateMutability": "view",
      "type": "function"
    }
  ],
  "bytecode": "0x6101006040526000805465ffffffffffff191690553480156200002157600080fd5b50604051620021b3380380620021b3833981016040819052620000449162000084565b6001600160a01b03928316608052911660a05260ff1660c0523360e052620000d7565b80516001600160a01b03811681146200007f57600080fd5b919050565b6000806000606084860312156200009a57600080fd5b620000a58462000067565b9250620000b56020850162000067565b9150604084015160ff81168114620000cc57600080fd5b809150509250925092565b60805160a05160c05160e05161204e620001656000396000818161039f015281816107d601528181610806015261082c01526000818161045301526108ca0152600081816103d9015281816109b101528181610ec80152611a47015260008181610107015281816104ba0152818161065301528181610774015281816109180152610965015261204e6000f3fe608060405234801561001057600080fd5b50600436106100cf5760003560e01c8063c45a01551161008c578063d51356f211610066578063d51356f2146103fb578063d9d8f54114610410578063dbc4ba8714610423578063ddca3f431461044e57600080fd5b8063c45a01551461039a578063cf2f1e1f146103c1578063d21220a7146103d457600080fd5b806306661abd146100d45780630dfe1681146101025780632784e81514610141578063692f3a441461020a5780637ce219aa1461024757806399a3bd2314610388575b600080fd5b6000546100e69065ffffffffffff1681565b60405165ffffffffffff90911681526020015b60405180910390f35b6101297f000000000000000000000000000000000000000000000000000000000000000081565b6040516001600160a01b0390911681526020016100f9565b6101b461014f366004611db8565b6001602081905260009182526040909120805491015465ffffffffffff80831692600160301b810490911691600160601b9091046001600160a01b0316906001600160701b0380821691600160701b810490911690600160e01b900463ffffffff1686565b6040805165ffffffffffff97881681529690951660208701526001600160a01b03909316938501939093526001600160701b039081166060850152909116608083015263ffffffff1660a082015260c0016100f9565b61021d610218366004611dea565b610487565b604080516001600160701b03948516815292841660208401529216918101919091526060016100f9565b610313610255366004611db8565b6040805160c081018252600080825260208201819052918101829052606081018290526080810182905260a08101919091525065ffffffffffff908116600090815260016020818152604092839020835160c08101855281548087168252600160301b810490961692810192909252600160601b9094046001600160a01b03169281019290925291909101546001600160701b038082166060840152600160701b8204166080830152600160e01b900463ffffffff1660a082015290565b6040516100f99190600060c08201905065ffffffffffff8084511683528060208501511660208401525060018060a01b03604084015116604083015260608301516001600160701b038082166060850152806080860151166080850152505063ffffffff60a08401511660a083015292915050565b6002546100e69065ffffffffffff1681565b6101297f000000000000000000000000000000000000000000000000000000000000000081565b6100e66103cf366004611e1d565b610a2f565b6101297f000000000000000000000000000000000000000000000000000000000000000081565b61040e610409366004611e75565b610c05565b005b6100e661041e366004611e1d565b610dd1565b610436610431366004611db8565b611859565b6040516001600160701b0390911681526020016100f9565b6104757f000000000000000000000000000000000000000000000000000000000000000081565b60405160ff90911681526020016100f9565b6002546000908190819065ffffffffffff1681036104ad57506000915081905080610a28565b6104eb6001600160a01b037f00000000000000000000000000000000000000000000000000000000000000001633306001600160701b038916611abb565b845b60025465ffffffffffff16156107c55760025465ffffffffffff1660009081526001602081905260409091209081015461053790600160701b90046001600160701b031687611ec2565b60018201546001600160701b0391821691610553911689611ec2565b6001600160701b0316101561056857506107c5565b600181015460009063ffffffff90610593906001600160701b03811690600160e01b90048316611ec2565b61059d9190611eed565b60018301549091506000906001600160701b0380821691600160701b9004166105c68483611f21565b6105d09190611ec2565b6105da9190611eed565b9050806001600160701b0316846001600160701b0316106106c9576105ff8185611f21565b600184015490945061061b9083906001600160701b0316611f21565b6106259087611f48565b955061063083611beb565b6001830180546001600160e01b03166001600160e01b03191790558254610695907f00000000000000000000000000000000000000000000000000000000000000006001600160a01b0390811691600160601b9004166001600160701b038416611c82565b825465ffffffffffff1990811665ffffffffffff90811780865560028054909316600160301b9091049091161790556107bd565b60018301546000906001600160701b03600160701b82048116916106ee911687611ec2565b6106f89190611eed565b90506107048188611f48565b96506107108184611f48565b60018501549093506001600160701b031661072f63ffffffff85611ec2565b6107399190611eed565b610744906001611f68565b6001850180546001600160e01b0316600160e01b63ffffffff9384160217905584546107b0916001600160a01b037f0000000000000000000000000000000000000000000000000000000000000000811692600160601b900416906001600160701b03891690611c8216565b60009450505050506107c5565b5050506104ed565b6107cf8187611f21565b93506000807f00000000000000000000000000000000000000000000000000000000000000006001600160a01b03163b1161082a577f00000000000000000000000000000000000000000000000000000000000000006108ae565b7f00000000000000000000000000000000000000000000000000000000000000006001600160a01b031663017e7e586040518163ffffffff1660e01b81526004016020604051808303816000875af115801561088a573d6000803e3d6000fd5b505050506040513d601f19601f820116820180604052508101906108ae9190611f85565b9050336001600160a01b03821614610949576127106108f060ff7f00000000000000000000000000000000000000000000000000000000000000001687611ec2565b6108fa9190611eed565b92506001600160701b03831615610949576109496001600160a01b037f00000000000000000000000000000000000000000000000000000000000000001633836001600160701b038716611abb565b6001600160701b03821615610995576109956001600160a01b037f000000000000000000000000000000000000000000000000000000000000000016336001600160701b038516611c82565b6001600160701b03841615610a25576109e16001600160a01b037f000000000000000000000000000000000000000000000000000000000000000016336001600160701b038716611c82565b604080516001600160701b038088168252861660208201527fb7450b19733c0654e83e08ccdc9716e46e17ca73c620c0379de9b8b580836e3e910160405180910390a15b50505b9250925092565b60025460009065ffffffffffff16808203610a4e576000915050610bfe565b8265ffffffffffff16600003610a62578092505b65ffffffffffff838116600090815260016020818152604092839020835160c08101855281548087168252600160301b810490961692810192909252600160601b9094046001600160a01b03169281019290925291909101546001600160701b0380821660608401819052600160701b83049091166080840152600160e01b90910463ffffffff1660a083015215801590610b075750805165ffffffffffff90811614155b15610b10578391505b848160600151610b209190611ec2565b6001600160701b0316868260800151610b399190611ec2565b6001600160701b03161115610b5257519150610bfe9050565b806020015165ffffffffffff16600003610b6e57509050610bfe565b60209081015165ffffffffffff80821660009081526001808552604091829020825160c08101845281548086168252600160301b810490951696810196909652600160601b9093046001600160a01b03169185019190915201546001600160701b038082166060850152600160701b8204166080840152600160e01b900463ffffffff1660a08301529150610b10565b9392505050565b65ffffffffffff821660009081526001602052604090208054600160601b90046001600160a01b03163314610ca75760405162461bcd60e51b815260206004820152603c60248201527f4d6f6e6f54726164653a206368616e67654f726465724f776e65723a3a20796f60448201527f7520617265206e6f74206f776e6572206f6620746865206f726465720000000060648201526084015b60405180910390fd5b805465ffffffffffff1665fffffffffffe1901610d2e576040805162461bcd60e51b81526020600482015260248101919091527f4d6f6e6f54726164653a206368616e67654f726465724f776e65723a3a20746860448201527f65206f7264657220697320616c72656164792072656d6f76656428646f6e65296064820152608401610c9e565b6001600160a01b038216610daa5760405162461bcd60e51b815260206004820152603a60248201527f4d6f6e6f54726164653a206368616e67654f726465724f776e65723a3a206e6560448201527f774f776e65722063616e277420626520616464726573732830290000000000006064820152608401610c9e565b80546001600160a01b03909216600160601b026001600160601b0390921691909117905550565b600080846001600160701b031611610e465760405162461bcd60e51b815260206004820152603260248201527f4d6f6e6f54726164653a206d616b654f726465723a3a20746f6b656e31496e206044820152710616d6f756e742063616e6e6f7420626520360741b6064820152608401610c9e565b6000836001600160701b031611610ebb5760405162461bcd60e51b815260206004820152603360248201527f4d6f6e6f54726164653a206d616b654f726465723a3a20746f6b656e304f7574604482015272020616d6f756e742063616e6e6f74206265203606c1b6064820152608401610c9e565b610ef96001600160a01b037f00000000000000000000000000000000000000000000000000000000000000001633306001600160701b038816611abb565b600080548190610f109065ffffffffffff16611fa2565b82546101009290920a65ffffffffffff8181021990931691831602179091556002541660000361103e57506040805160c08101825260008082526020808301828152338486019081526001600160701b03808a16606087019081528982166080880190815260a08801878152875465ffffffffffff908116895260019788905299882098518954965195516001600160a01b0316600160601b026001600160601b03968c16600160301b026001600160601b0319909816918c16919091179690961794909416949094178755519590930180549251915163ffffffff16600160e01b026001600160e01b03928516600160701b026001600160e01b03199094169690941695909517919091171617909155546002805465ffffffffffff191691909216908117909155610bfe565b8165ffffffffffff166000036112305760025465ffffffffffff166000908152600160208190526040909120908101546110829085906001600160701b0316611ec2565b60018201546001600160701b03918216916110a7918891600160701b90910416611ec2565b6001600160701b0316116111175760405162461bcd60e51b815260206004820152603160248201527f4d6f6e6f54726164653a206d616b654f726465723a3a20796f75722070726963604482015270329036bab9ba101f103a37b827b93232b960791b6064820152608401610c9e565b60008054825465ffffffffffff1990811665ffffffffffff928316179093556040805160c0810182528381526002805484166020808401918252338486019081526001600160701b03808e16606087019081528d82166080880190815260a088018b81528b548b168c52600195869052988b2097518854965194516001600160a01b0316600160601b026001600160601b03958c16600160301b026001600160601b0319909816918c1691909117969096179390931694909417865592519490910180549151955163ffffffff16600160e01b026001600160e01b03968416600160701b026001600160e01b03199093169590931694909417179390931692909217905591548254909316921691821790559050610bfe565b65ffffffffffff8216600090815260016020819052604082209081015490916001600160701b0390911690036112c05760405162461bcd60e51b815260206004820152602f60248201527f4d6f6e6f54726164653a206d616b654f726465723a3a206265666f72654f726460448201526e195c881a5cc81b9bdd08195e1a5cdd608a1b6064820152608401610c9e565b805465ffffffffffff1665fffffffffffe190161133b5760405162461bcd60e51b815260206004820152603360248201527f4d6f6e6f54726164653a206d616b654f726465723a3a206265666f72654f726460448201527265722069732072656d6f76656428646f6e652960681b6064820152608401610c9e565b60018101546113549085906001600160701b0316611ec2565b60018201546001600160701b0391821691611379918891600160701b90910416611ec2565b6001600160701b031611156113ee5760405162461bcd60e51b815260206004820152603560248201527f4d6f6e6f54726164653a206d616b654f726465723a3a20796f75722070726963604482015274329036bab9ba101e1e903132b337b932a7b93232b960591b6064820152608401610c9e565b8054600160301b900465ffffffffffff1660000361151657600080548254600160301b65ffffffffffff928316810265ffffffffffff60301b19909216919091179093556040805160c08101825286831681526020808201858152338385019081526001600160701b03808d16606086019081528c82166080870190815260a087018a81528a548a168b52600196879052978a2096518754955194516001600160a01b0316600160601b026001600160601b03958b16909c026001600160601b0319909616908a16179490941792909216989098178455519290910180549151935163ffffffff16600160e01b026001600160e01b03948816600160701b026001600160e01b0319909316939097169290921717919091169390931790925554169050610bfe565b8054600160301b900465ffffffffffff16600090815260016020819052604082209081015490916001600160701b0390911690036115ad5760405162461bcd60e51b815260206004820152602e60248201527f4d6f6e6f54726164653a206d616b654f726465723a3a2061667465724f72646560448201526d1c881a5cc81b9bdd08195e1a5cdd60921b6064820152608401610c9e565b805465ffffffffffff1665fffffffffffe19016116215760405162461bcd60e51b815260206004820152602c60248201527f4d6f6e6f54726164653a206d616b654f726465723a3a2061667465724f72646560448201526b1c881a5cc81c995b5bdd995960a21b6064820152608401610c9e565b600181015461163a9086906001600160701b0316611ec2565b60018201546001600160701b039182169161165f918991600160701b90910416611ec2565b6001600160701b0316116116d15760405162461bcd60e51b815260206004820152603360248201527f4d6f6e6f54726164653a206d616b654f726465723a3a20796f75722070726963604482015272329036bab9ba101f1030b33a32b927b93232b960691b6064820152608401610c9e565b6040805160c08101825265ffffffffffff80871682528454600160301b9081900482166020808501918252338587019081526001600160701b03808e16606088019081528d821660808901908152600060a08a0181815281548a1682526001968790528b82209a518b54985196516001600160a01b0316600160601b026001600160601b03978c168b026001600160601b0319909a16918c1691909117989098179590951696909617895590519790930180549351925163ffffffff16600160e01b026001600160e01b03938316600160701b026001600160e01b031990951698909216979097179290921716179093558254865490831690910265ffffffffffff60301b19919091161785558154845465ffffffffffff1916908216178455905491519116907f2336f98edea03fae5932cf9f26ce4784b74d1b3dec618bb0b78f68ba0c53fbb39061183c90899089906001600160701b0392831681529116602082015260400190565b60405180910390a2505060005465ffffffffffff16949350505050565b65ffffffffffff811660009081526001602052604081208054600160601b90046001600160a01b031633146118f65760405162461bcd60e51b815260206004820152603760248201527f4d6f6e6f54726164653a2063616e63656c4f726465723a3a20796f752061726560448201527f206e6f74206f776e6572206f6620746865206f726465720000000000000000006064820152608401610c9e565b805465ffffffffffff1665fffffffffffe190161197b5760405162461bcd60e51b815260206004820152603b60248201527f4d6f6e6f54726164653a2063616e63656c4f726465723a3a20746865206f726460448201527f657220697320616c72656164792072656d6f76656428646f6e652900000000006064820152608401610c9e565b61198481611beb565b60025465ffffffffffff8085169116036119c057805460028054600160301b90920465ffffffffffff1665ffffffffffff199092169190911790555b805465ffffffffffff191665ffffffffffff178155600181015460009063ffffffff90611a00906001600160701b03811690600160e01b90048316611ec2565b611a0a9190611eed565b6001830154909150611a269082906001600160701b0316611f21565b92506001600160701b03831615611ab4578154611a80906001600160a01b037f0000000000000000000000000000000000000000000000000000000000000000811691600160601b9004166001600160701b038616611c82565b60405165ffffffffffff8516907fc56e02aba5fc42d044055fc90697eeddfd7802afd1cc3ffaabb94e7890d4d58b90600090a25b5050919050565b604080516001600160a01b0385811660248301528481166044830152606480830185905283518084039091018152608490920183526020820180516001600160e01b03166323b872dd60e01b1790529151600092839290881691611b1f9190611fc7565b6000604051808303816000865af19150503d8060008114611b5c576040519150601f19603f3d011682016040523d82523d6000602084013e611b61565b606091505b5091509150818015611b8b575080511580611b8b575080806020019051810190611b8b9190611ff6565b611be35760405162461bcd60e51b8152602060048201526024808201527f5472616e7366657248656c7065723a205452414e534645525f46524f4d5f46416044820152631253115160e21b6064820152608401610c9e565b505050505050565b805465ffffffffffff1615611c3557805465ffffffffffff8082166000908152600160205260409020805465ffffffffffff60301b1916600160301b938490049092169092021790555b8054600160301b900465ffffffffffff1615611c7f578054600160301b810465ffffffffffff9081166000908152600160205260409020805465ffffffffffff1916919092161790555b50565b604080516001600160a01b038481166024830152604480830185905283518084039091018152606490920183526020820180516001600160e01b031663a9059cbb60e01b1790529151600092839290871691611cde9190611fc7565b6000604051808303816000865af19150503d8060008114611d1b576040519150601f19603f3d011682016040523d82523d6000602084013e611d20565b606091505b5091509150818015611d4a575080511580611d4a575080806020019051810190611d4a9190611ff6565b611d965760405162461bcd60e51b815260206004820152601f60248201527f5472616e7366657248656c7065723a205452414e534645525f4641494c4544006044820152606401610c9e565b5050505050565b803565ffffffffffff81168114611db357600080fd5b919050565b600060208284031215611dca57600080fd5b610bfe82611d9d565b80356001600160701b0381168114611db357600080fd5b60008060408385031215611dfd57600080fd5b611e0683611dd3565b9150611e1460208401611dd3565b90509250929050565b600080600060608486031215611e3257600080fd5b611e3b84611dd3565b9250611e4960208501611dd3565b9150611e5760408501611d9d565b90509250925092565b6001600160a01b0381168114611c7f57600080fd5b60008060408385031215611e8857600080fd5b611e9183611d9d565b91506020830135611ea181611e60565b809150509250929050565b634e487b7160e01b600052601160045260246000fd5b6001600160701b03818116838216028082169190828114611ee557611ee5611eac565b505092915050565b60006001600160701b0380841680611f1557634e487b7160e01b600052601260045260246000fd5b92169190910492915050565b6001600160701b03828116828216039080821115611f4157611f41611eac565b5092915050565b6001600160701b03818116838216019080821115611f4157611f41611eac565b63ffffffff818116838216019080821115611f4157611f41611eac565b600060208284031215611f9757600080fd5b8151610bfe81611e60565b600065ffffffffffff808316818103611fbd57611fbd611eac565b6001019392505050565b6000825160005b81811015611fe85760208186018101518583015201611fce565b506000920191825250919050565b60006020828403121561200857600080fd5b81518015158114610bfe57600080fdfea26469706673582212206d0f332775ac5b725ee30c77f4502ee53bb81e647b53e0e608653e56486e80e964736f6c63430008180033",
  "linkReferences": {},
  "deployedLinkReferences": {}
}