{
  "_format": "hh-sol-artifact-1",
  "contractName": "MarsPairFactory",
  "sourceName": "contracts/MarsPairFactory.sol",
  "abi": [
    {
      "inputs": [
        {
          "internalType": "address",
          "name": "_feeToSetter",
          "type": "address"
        }
      ],
      "stateMutability": "nonpayable",
      "type": "constructor"
    },
    {
      "anonymous": false,
      "inputs": [
        {
          "indexed": true,
          "internalType": "address",
          "name": "token0",
          "type": "address"
        },
        {
          "indexed": true,
          "internalType": "address",
          "name": "token1",
          "type": "address"
        },
        {
          "indexed": false,
          "internalType": "address",
          "name": "pair",
          "type": "address"
        },
        {
          "indexed": false,
          "internalType": "uint256",
          "name": "",
          "type": "uint256"
        }
      ],
      "name": "PairCreated",
      "type": "event"
    },
    {
      "inputs": [],
      "name": "INIT_CODE_PAIR_HASH",
      "outputs": [
        {
          "internalType": "bytes32",
          "name": "",
          "type": "bytes32"
        }
      ],
      "stateMutability": "view",
      "type": "function"
    },
    {
      "inputs": [
        {
          "internalType": "uint256",
          "name": "",
          "type": "uint256"
        }
      ],
      "name": "allPairs",
      "outputs": [
        {
          "internalType": "address",
          "name": "",
          "type": "address"
        }
      ],
      "stateMutability": "view",
      "type": "function"
    },
    {
      "inputs": [],
      "name": "feeTo",
      "outputs": [
        {
          "internalType": "address",
          "name": "",
          "type": "address"
        }
      ],
      "stateMutability": "view",
      "type": "function"
    },
    {
      "inputs": [],
      "name": "feeToSetter",
      "outputs": [
        {
          "internalType": "address",
          "name": "",
          "type": "address"
        }
      ],
      "stateMutability": "view",
      "type": "function"
    },
    {
      "inputs": [
        {
          "internalType": "address",
          "name": "",
          "type": "address"
        },
        {
          "internalType": "address",
          "name": "",
          "type": "address"
        }
      ],
      "name": "getPair",
      "outputs": [
        {
          "internalType": "address",
          "name": "",
          "type": "address"
        }
      ],
      "stateMutability": "view",
      "type": "function"
    }
  ],
  "bytecode": "0x608060405234801561001057600080fd5b50604051612c86380380612c8683398101604081905261002f91610054565b600180546001600160a01b0319166001600160a01b0392909216919091179055610084565b60006020828403121561006657600080fd5b81516001600160a01b038116811461007d57600080fd5b9392505050565b612bf3806100936000396000f3fe608060405234801561001057600080fd5b50600436106100575760003560e01c8063017e7e581461005c578063094b74151461008c5780631e3dd18b1461009f5780635855a25a146100b2578063e6a43905146100c8575b600080fd5b60005461006f906001600160a01b031681565b6040516001600160a01b0390911681526020015b60405180910390f35b60015461006f906001600160a01b031681565b61006f6100ad36600461017d565b6100fc565b6100ba610126565b604051908152602001610083565b61006f6100d63660046101b2565b60026020908152600092835260408084209091529082529020546001600160a01b031681565b6003818154811061010c57600080fd5b6000918252602090912001546001600160a01b0316905081565b60405161013560208201610170565b601f1982820381018352601f90910116604081905261015791906020016101e5565b6040516020818303038152906040528051906020012081565b6129a98061021583390190565b60006020828403121561018f57600080fd5b5035919050565b80356001600160a01b03811681146101ad57600080fd5b919050565b600080604083850312156101c557600080fd5b6101ce83610196565b91506101dc60208401610196565b90509250929050565b6000825160005b8181101561020657602081860181015185830152016101ec565b50600092019182525091905056fe6101006040526000805465ffffffffffff191690553480156200002157600080fd5b50604051620029a9380380620029a9833981016040819052620000449162000084565b6001600160a01b03928316608052911660a05260ff1660c0523360e052620000d7565b80516001600160a01b03811681146200007f57600080fd5b919050565b6000806000606084860312156200009a57600080fd5b620000a58462000067565b9250620000b56020850162000067565b9150604084015160ff81168114620000cc57600080fd5b809150509250925092565b60805160a05160c05160e0516127fe620001ab6000396000818161012b01528181610b030152611b3d0152600081816104390152818161048f01528181610a8501528181610cbb0152611abf0152600081816103010152818161061f01528181610c2801528181611752015281816118bb015281816119d601528181611b0e01528181611bc90152611d5101526000818161016f01528181610718015281816108810152818161099c01528181610ad401528181610b8f01528181610e3701528181610faf0152611c6201526127fe6000f3fe608060405234801561001057600080fd5b50600436106101215760003560e01c8063ae445bac116100ad578063d44ca7af11610071578063d44ca7af14610323578063d7d99b0b146103c4578063dda37b2414610421578063ddca3f4314610434578063e5c274bc1461046d57600080fd5b8063ae445bac14610254578063b5b2d29b146102c4578063c0253d58146102d7578063c4ccb40a146102ea578063d21220a7146102fc57600080fd5b806367d301f9116100f457806367d301f9146101e85780637c33e99a146102095780638a44b0561461021b578063956d67981461022e578063a1cca87e1461024157600080fd5b8063017e7e58146101265780630dfe16811461016a5780635662ecc71461019157806366c7cf0a146101ba575b600080fd5b61014d7f000000000000000000000000000000000000000000000000000000000000000081565b6040516001600160a01b0390911681526020015b60405180910390f35b61014d7f000000000000000000000000000000000000000000000000000000000000000081565b6000546101a39065ffffffffffff1681565b60405165ffffffffffff9091168152602001610161565b6101cd6101c83660046125fa565b610480565b60408051938452602084019290925290820152606001610161565b6101fb6101f6366004612637565b6104e3565b604051908152602001610161565b6004546101a39065ffffffffffff1681565b6101cd6102293660046125fa565b6106ac565b6101cd61023c3660046125fa565b610cac565b6101fb61024f366004612637565b610d00565b610267610262366004612637565b610e79565b6040516101619190815165ffffffffffff9081168252602080840151909116908201526040808301516001600160a01b031690820152606080830151908201526080808301519082015260a0918201519181019190915260c00190565b6101a36102d2366004612652565b610ef7565b6101cd6102e53660046125fa565b6116e5565b6002546101a39065ffffffffffff1681565b61014d7f000000000000000000000000000000000000000000000000000000000000000081565b61037f610331366004612637565b6001602081905260009182526040909120805491810154600282015460039092015465ffffffffffff80851694600160301b810490911693600160601b9091046001600160a01b0316929186565b6040805165ffffffffffff97881681529690951660208701526001600160a01b03909316938501939093526060840152608083019190915260a082015260c001610161565b61037f6103d2366004612637565b6003602081905260009182526040909120805460018201546002830154929093015465ffffffffffff80831694600160301b840490911693600160601b9093046001600160a01b031692909186565b6101a361042f366004612652565b611c99565b61045b7f000000000000000000000000000000000000000000000000000000000000000081565b60405160ff9091168152602001610161565b61026761047b366004612637565b612496565b60008080806127106104b560ff7f0000000000000000000000000000000000000000000000000000000000000000168861269d565b6104bf91906126ba565b90506104d46104ce82886126dc565b866116e5565b91989097509095509350505050565b65ffffffffffff811660009081526001602052604081208054600160601b90046001600160a01b0316331461055f5760405162461bcd60e51b815260206004820152601e60248201527f796f7520617265206e6f74206f776e6572206f6620746865206f72646572000060448201526064015b60405180910390fd5b805465ffffffffffff1665fffffffffffe190161058e5760405162461bcd60e51b8152600401610556906126ef565b610599816001612513565b60025465ffffffffffff8085169116036105d557805460028054600160301b90920465ffffffffffff1665ffffffffffff199092169190911790555b805465ffffffffffff191665ffffffffffff178155600381015460018201546105fe91906126dc565b915081156106a657805460405163a9059cbb60e01b81526001600160a01b037f000000000000000000000000000000000000000000000000000000000000000081169263a9059cbb9261066192600160601b909204909116908690600401612731565b6020604051808303816000875af1158015610680573d6000803e3d6000fd5b505050506040513d601f19601f820116820180604052508101906106a4919061274a565b505b50919050565b6002546000908190819065ffffffffffff1681036107015760405162461bcd60e51b81526020600482015260126024820152716275794f726465727320697320656d70747960701b6044820152606401610556565b6040516323b872dd60e01b81526001600160a01b037f000000000000000000000000000000000000000000000000000000000000000016906323b872dd9061075190339030908a9060040161276c565b6020604051808303816000875af1158015610770573d6000803e3d6000fd5b505050506040513d601f19601f82011682018060405250810190610794919061274a565b50845b60025465ffffffffffff1615610a35576002805465ffffffffffff166000908152600160205260409020908101546107cf908761269d565b60018201546107de908961269d565b10156107ea5750610a35565b6000816001015482600201548360030154610805919061269d565b61080f91906126ba565b826002015461081e91906126dc565b905080831061093b5761083181846126dc565b92508160030154826001015461084791906126dc565b6108519086612790565b945061085e826001612513565b60018201546003830155815460405163a9059cbb60e01b81526001600160a01b037f000000000000000000000000000000000000000000000000000000000000000081169263a9059cbb926108c392600160601b909204909116908590600401612731565b6020604051808303816000875af11580156108e2573d6000803e3d6000fd5b505050506040513d601f19601f82011682018060405250810190610906919061274a565b50815465ffffffffffff1990811665ffffffffffff90811780855560028054909316600160301b909104909116179055610a2e565b60008260020154836001015485610952919061269d565b61095c91906126ba565b90506109688187612790565b95508083600301600082825461097e9190612790565b9091555050825460405163a9059cbb60e01b81526001600160a01b037f000000000000000000000000000000000000000000000000000000000000000081169263a9059cbb926109de92600160601b909204909116908890600401612731565b6020604051808303816000875af11580156109fd573d6000803e3d6000fd5b505050506040513d601f19601f82011682018060405250810190610a21919061274a565b5060009350505050610a35565b5050610797565b610a3f81876126dc565b935060008411610a7b5760405162461bcd60e51b81526020600482015260076024820152661b9bc81919585b60ca1b6044820152606401610556565b612710610aab60ff7f0000000000000000000000000000000000000000000000000000000000000000168661269d565b610ab591906126ba565b91508115610b72576040516323b872dd60e01b81526001600160a01b037f000000000000000000000000000000000000000000000000000000000000000016906323b872dd90610b2d9033907f000000000000000000000000000000000000000000000000000000000000000090879060040161276c565b6020604051808303816000875af1158015610b4c573d6000803e3d6000fd5b505050506040513d601f19601f82011682018060405250810190610b70919061274a565b505b8015610c0b5760405163a9059cbb60e01b81526001600160a01b037f0000000000000000000000000000000000000000000000000000000000000000169063a9059cbb90610bc69033908590600401612731565b6020604051808303816000875af1158015610be5573d6000803e3d6000fd5b505050506040513d601f19601f82011682018060405250810190610c09919061274a565b505b8215610ca45760405163a9059cbb60e01b81526001600160a01b037f0000000000000000000000000000000000000000000000000000000000000000169063a9059cbb90610c5f9033908790600401612731565b6020604051808303816000875af1158015610c7e573d6000803e3d6000fd5b505050506040513d601f19601f82011682018060405250810190610ca2919061274a565b505b509250925092565b6000808080612710610ce160ff7f0000000000000000000000000000000000000000000000000000000000000000168861269d565b610ceb91906126ba565b90506104d4610cfa82886126dc565b866106ac565b65ffffffffffff811660009081526003602052604081208054600160601b90046001600160a01b03163314610d775760405162461bcd60e51b815260206004820152601e60248201527f796f7520617265206e6f74206f776e6572206f6620746865206f7264657200006044820152606401610556565b805465ffffffffffff1665fffffffffffe1901610da65760405162461bcd60e51b8152600401610556906126ef565b610db1816003612513565b60045465ffffffffffff808516911603610ded57805460048054600160301b90920465ffffffffffff1665ffffffffffff199092169190911790555b805465ffffffffffff191665ffffffffffff17815560038101546001820154610e1691906126dc565b915081156106a657805460405163a9059cbb60e01b81526001600160a01b037f000000000000000000000000000000000000000000000000000000000000000081169263a9059cbb9261066192600160601b909204909116908690600401612731565b610e816125ab565b5065ffffffffffff908116600090815260036020818152604092839020835160c08101855281548087168252600160301b810490961692810192909252600160601b9094046001600160a01b0316928101929092526001830154606083015260028301546080830152919091015460a082015290565b6000808411610f485760405162461bcd60e51b815260206004820152601b60248201527f746f6b656e30496e20616d6f756e742063616e6e6f74206265203000000000006044820152606401610556565b60008311610f985760405162461bcd60e51b815260206004820152601c60248201527f746f6b656e314f757420616d6f756e742063616e6e6f742062652030000000006044820152606401610556565b6040516323b872dd60e01b81526001600160a01b037f000000000000000000000000000000000000000000000000000000000000000016906323b872dd90610fe89033903090899060040161276c565b6020604051808303816000875af1158015611007573d6000803e3d6000fd5b505050506040513d601f19601f8201168201806040525081019061102b919061274a565b506000805481906110439065ffffffffffff166127a3565b91906101000a81548165ffffffffffff021916908365ffffffffffff16021790559050600460009054906101000a900465ffffffffffff1665ffffffffffff16600003611145576040805160c0810182526000808252602080830182815233848601908152606085018a8152608086018a815260a0870186815265ffffffffffff8a81168089526003978890529990972097518854955194516001600160a01b0316600160601b026001600160601b03958916600160301b026001600160601b031990971691909816179490941792909216949094178555925160018501559151600284015590519101556004805465ffffffffffff191690911790556116de565b8165ffffffffffff166000036112a55760045465ffffffffffff166000908152600360205260409020600181015461117e90859061269d565b85826002015461118e919061269d565b116111db5760405162461bcd60e51b815260206004820152601a60248201527f796f7572207072696365206d757374203c20746f704f726465720000000000006044820152606401610556565b805465ffffffffffff80841665ffffffffffff1992831681179093556040805160c0810182526000808252600480548516602080850191825233858701908152606086018e8152608087018e815260a088018781528c88526003948590529890962096518754945192516001600160a01b0316600160601b026001600160601b03938b16600160301b026001600160601b031990961691909a16179390931716969096178455516001840155905160028301559151920191909155805490911690911790556116de565b65ffffffffffff821660009081526003602052604090208054600160601b90046001600160a01b03166113155760405162461bcd60e51b81526020600482015260186024820152771899599bdc9953dc99195c881a5cc81b9bdd08195e1a5cdd60421b6044820152606401610556565b805465ffffffffffff1665fffffffffffe19016113745760405162461bcd60e51b815260206004820152601c60248201527f6265666f72654f726465722069732072656d6f76656428646f6e6529000000006044820152606401610556565b838160010154611384919061269d565b858260020154611394919061269d565b11156113e25760405162461bcd60e51b815260206004820152601e60248201527f796f7572207072696365206d757374203e3d206265666f72654f7264657200006044820152606401610556565b8054600160301b900465ffffffffffff166000036114be57805465ffffffffffff808416600160301b81810265ffffffffffff60301b19909416939093179093556040805160c08101825286831681526000602080830182815233848601908152606085018d8152608086018d815260a087018681529a86526003948590529690942094518554925191516001600160a01b0316600160601b026001600160601b039289169099026001600160601b031990931697169690961717949094169490941781559251600184015551600283015591519101556116de565b805465ffffffffffff600160301b9091041660009081526003602052604090208054600160601b90046001600160a01b03166115365760405162461bcd60e51b815260206004820152601760248201527618599d195c93dc99195c881a5cc81b9bdd08195e1a5cdd604a1b6044820152606401610556565b805465ffffffffffff1665fffffffffffe19016115955760405162461bcd60e51b815260206004820152601b60248201527f61667465724f726465722069732072656d6f76656428646f6e652900000000006044820152606401610556565b8481600101546115a5919061269d565b8682600201546115b5919061269d565b116116025760405162461bcd60e51b815260206004820152601c60248201527f796f7572207072696365206d757374203c2061667465724f72646572000000006044820152606401610556565b6040805160c08101825265ffffffffffff80871682528454600160301b908190048216602080850191825233858701908152606086018d8152608087018d8152600060a089018181528d89168083526003968790529a90912098518954965194516001600160a01b0316600160601b026001600160601b03958a1689026001600160601b0319909816919099161795909517929092169590951786559351600186015592516002850155519290910191909155835490820265ffffffffffff60301b199190911617909255805465ffffffffffff191690911790555b9392505050565b6004546000908190819065ffffffffffff16810361173b5760405162461bcd60e51b815260206004820152601360248201527273656c6c4f726465727320697320656d70747960681b6044820152606401610556565b6040516323b872dd60e01b81526001600160a01b037f000000000000000000000000000000000000000000000000000000000000000016906323b872dd9061178b90339030908a9060040161276c565b6020604051808303816000875af11580156117aa573d6000803e3d6000fd5b505050506040513d601f19601f820116820180604052508101906117ce919061274a565b50845b60045465ffffffffffff1615611a6f5760045465ffffffffffff1660009081526003602052604090206002810154611809908761269d565b6001820154611818908961269d565b10156118245750611a6f565b600081600101548260020154836003015461183f919061269d565b61184991906126ba565b826002015461185891906126dc565b90508083106119755761186b81846126dc565b92508160030154826001015461188191906126dc565b61188b9086612790565b9450611898826003612513565b60018201546003830155815460405163a9059cbb60e01b81526001600160a01b037f000000000000000000000000000000000000000000000000000000000000000081169263a9059cbb926118fd92600160601b909204909116908590600401612731565b6020604051808303816000875af115801561191c573d6000803e3d6000fd5b505050506040513d601f19601f82011682018060405250810190611940919061274a565b50815465ffffffffffff1990811665ffffffffffff90811780855560048054909316600160301b909104909116179055611a68565b6000826002015483600101548561198c919061269d565b61199691906126ba565b90506119a28187612790565b9550808360030160008282546119b89190612790565b9091555050825460405163a9059cbb60e01b81526001600160a01b037f000000000000000000000000000000000000000000000000000000000000000081169263a9059cbb92611a1892600160601b909204909116908890600401612731565b6020604051808303816000875af1158015611a37573d6000803e3d6000fd5b505050506040513d601f19601f82011682018060405250810190611a5b919061274a565b5060009350505050611a6f565b50506117d1565b611a7981876126dc565b935060008411611ab55760405162461bcd60e51b81526020600482015260076024820152661b9bc81919585b60ca1b6044820152606401610556565b612710611ae560ff7f0000000000000000000000000000000000000000000000000000000000000000168661269d565b611aef91906126ba565b91508115611bac576040516323b872dd60e01b81526001600160a01b037f000000000000000000000000000000000000000000000000000000000000000016906323b872dd90611b679033907f000000000000000000000000000000000000000000000000000000000000000090879060040161276c565b6020604051808303816000875af1158015611b86573d6000803e3d6000fd5b505050506040513d601f19601f82011682018060405250810190611baa919061274a565b505b8015611c455760405163a9059cbb60e01b81526001600160a01b037f0000000000000000000000000000000000000000000000000000000000000000169063a9059cbb90611c009033908590600401612731565b6020604051808303816000875af1158015611c1f573d6000803e3d6000fd5b505050506040513d601f19601f82011682018060405250810190611c43919061274a565b505b8215610ca45760405163a9059cbb60e01b81526001600160a01b037f0000000000000000000000000000000000000000000000000000000000000000169063a9059cbb90610c5f9033908790600401612731565b6000808411611cea5760405162461bcd60e51b815260206004820152601b60248201527f746f6b656e31496e20616d6f756e742063616e6e6f74206265203000000000006044820152606401610556565b60008311611d3a5760405162461bcd60e51b815260206004820152601c60248201527f746f6b656e304f757420616d6f756e742063616e6e6f742062652030000000006044820152606401610556565b6040516323b872dd60e01b81526001600160a01b037f000000000000000000000000000000000000000000000000000000000000000016906323b872dd90611d8a9033903090899060040161276c565b6020604051808303816000875af1158015611da9573d6000803e3d6000fd5b505050506040513d601f19601f82011682018060405250810190611dcd919061274a565b50600080548190611de59065ffffffffffff166127a3565b91906101000a81548165ffffffffffff021916908365ffffffffffff16021790559050600260009054906101000a900465ffffffffffff1665ffffffffffff16600003611ef1576040805160c0810182526000808252602080830182815233848601908152606085018a8152608086018a815260a0870186815265ffffffffffff8a81168089526001978890529990972097518854955194516001600160a01b0316600160601b026001600160601b03958916600160301b026001600160601b03199097169190981617949094179290921694909417855592519184019190915590516002808401919091559051600390920191909155805465ffffffffffff191690911790556116de565b8165ffffffffffff166000036120535760025465ffffffffffff16600090815260016020819052604090912090810154611f2c90859061269d565b858260020154611f3c919061269d565b11611f895760405162461bcd60e51b815260206004820152601a60248201527f796f7572207072696365206d757374203e20746f704f726465720000000000006044820152606401610556565b805465ffffffffffff80841665ffffffffffff1992831681179093556040805160c0810182526000808252600280548516602080850191825233858701908152606086018e8152608087018e815260a088018781528c88526001948590529890962096518754945192516001600160a01b0316600160601b026001600160601b03938b16600160301b026001600160601b031990961691909a16179390931716969096178455519483019490945551818401559051600390910155805490911690911790556116de565b65ffffffffffff821660009081526001602052604090208054600160601b90046001600160a01b03166120c35760405162461bcd60e51b81526020600482015260186024820152771899599bdc9953dc99195c881a5cc81b9bdd08195e1a5cdd60421b6044820152606401610556565b805465ffffffffffff1665fffffffffffe19016121225760405162461bcd60e51b815260206004820152601c60248201527f6265666f72654f726465722069732072656d6f76656428646f6e6529000000006044820152606401610556565b838160010154612132919061269d565b858260020154612142919061269d565b11156121905760405162461bcd60e51b815260206004820152601e60248201527f796f7572207072696365206d757374203c3d206265666f72654f7264657200006044820152606401610556565b8054600160301b900465ffffffffffff1660000361227157805465ffffffffffff808416600160301b81810265ffffffffffff60301b19909416939093179093556040805160c08101825286831681526000602080830182815233848601908152606085018d8152608086018d815260a087018681529a86526001948590529690942094518554925191516001600160a01b0316600160601b026001600160601b039289169099026001600160601b0319909316971696909617179490941694909417815592519183019190915551600282015590516003909101556116de565b805465ffffffffffff600160301b9091041660009081526001602052604090208054600160601b90046001600160a01b03166122e95760405162461bcd60e51b815260206004820152601760248201527618599d195c93dc99195c881a5cc81b9bdd08195e1a5cdd604a1b6044820152606401610556565b805465ffffffffffff1665fffffffffffe19016123485760405162461bcd60e51b815260206004820152601b60248201527f61667465724f726465722069732072656d6f76656428646f6e652900000000006044820152606401610556565b848160010154612358919061269d565b868260020154612368919061269d565b116123b55760405162461bcd60e51b815260206004820152601c60248201527f796f7572207072696365206d757374203e2061667465724f72646572000000006044820152606401610556565b6040805160c08101825265ffffffffffff95861681528354600160301b908190048716602080840191825233848601908152606085019b8c52608085019a8b52600060a086018181528a8c168083526001948590529790912095518654945192516001600160a01b0316600160601b026001600160601b03938d1687026001600160601b031990961691909c16179390931716989098178355985196820196909655955160028701559551600390950194909455805492850265ffffffffffff60301b1990931692909217909155815465ffffffffffff1916909217905590565b61249e6125ab565b5065ffffffffffff908116600090815260016020818152604092839020835160c08101855281548087168252600160301b810490961692810192909252600160601b9094046001600160a01b03169281019290925282015460608201526002820154608082015260039091015460a082015290565b815465ffffffffffff161561255d57815465ffffffffffff8082166000908152602084905260409020805465ffffffffffff60301b1916600160301b938490049092169092021790555b8154600160301b900465ffffffffffff16156125a7578154600160301b810465ffffffffffff9081166000908152602084905260409020805465ffffffffffff1916919092161790555b5050565b6040518060c00160405280600065ffffffffffff168152602001600065ffffffffffff16815260200160006001600160a01b031681526020016000815260200160008152602001600081525090565b6000806040838503121561260d57600080fd5b50508035926020909101359150565b803565ffffffffffff8116811461263257600080fd5b919050565b60006020828403121561264957600080fd5b6116de8261261c565b60008060006060848603121561266757600080fd5b833592506020840135915061267e6040850161261c565b90509250925092565b634e487b7160e01b600052601160045260246000fd5b80820281158282048414176126b4576126b4612687565b92915050565b6000826126d757634e487b7160e01b600052601260045260246000fd5b500490565b818103818111156126b4576126b4612687565b60208082526022908201527f746865206f7264657220697320616c72656164792072656d6f76656428646f6e604082015261652960f01b606082015260800190565b6001600160a01b03929092168252602082015260400190565b60006020828403121561275c57600080fd5b815180151581146116de57600080fd5b6001600160a01b039384168152919092166020820152604081019190915260600190565b808201808211156126b4576126b4612687565b600065ffffffffffff8083168181036127be576127be612687565b600101939250505056fea2646970667358221220361a4edb28385624bea37b09deeeed8f89835b20a252a211ef063cc7912f52f264736f6c63430008180033a2646970667358221220a78169c9ab421a5e42d751f55026778e791a83de4fc13bf6eb29b7de0c3f0d6264736f6c63430008180033",
  "linkReferences": {},
  "deployedLinkReferences": {}
}