{"contracts/MarsPair.sol":{"MarsPair":{"abi":[{"inputs":[{"internalType":"address","name":"token0Addr","type":"address"},{"internalType":"address","name":"token1Addr","type":"address"},{"internalType":"uint8","name":"_fee","type":"uint8"}],"stateMutability":"nonpayable","type":"constructor"},{"inputs":[{"internalType":"uint48","name":"","type":"uint48"}],"name":"buyOrders","outputs":[{"internalType":"uint48","name":"beforeOrderId","type":"uint48"},{"internalType":"uint48","name":"afterOrderId","type":"uint48"},{"internalType":"address","name":"owner","type":"address"},{"internalType":"uint256","name":"amountIn","type":"uint256"},{"internalType":"uint256","name":"amountOut","type":"uint256"},{"internalType":"uint256","name":"amountInUsed","type":"uint256"}],"stateMutability":"view","type":"function"},{"inputs":[{"internalType":"uint48","name":"orderId","type":"uint48"}],"name":"cancelBuyOrder","outputs":[{"internalType":"uint256","name":"token1Left","type":"uint256"}],"stateMutability":"nonpayable","type":"function"},{"inputs":[{"internalType":"uint48","name":"orderId","type":"uint48"}],"name":"cancelSellOrder","outputs":[{"internalType":"uint256","name":"token0Left","type":"uint256"}],"stateMutability":"nonpayable","type":"function"},{"inputs":[{"internalType":"uint48","name":"orderId","type":"uint48"},{"internalType":"address","name":"newOwner","type":"address"}],"name":"changeBuyOrderOwner","outputs":[],"stateMutability":"nonpayable","type":"function"},{"inputs":[{"internalType":"uint48","name":"orderId","type":"uint48"},{"internalType":"address","name":"newOwner","type":"address"}],"name":"changeSellOrderOwner","outputs":[],"stateMutability":"nonpayable","type":"function"},{"inputs":[],"name":"count","outputs":[{"internalType":"uint48","name":"","type":"uint48"}],"stateMutability":"view","type":"function"},{"inputs":[],"name":"fee","outputs":[{"internalType":"uint8","name":"","type":"uint8"}],"stateMutability":"view","type":"function"},{"inputs":[],"name":"feeTo","outputs":[{"internalType":"address","name":"","type":"address"}],"stateMutability":"view","type":"function"},{"inputs":[{"internalType":"uint48","name":"orderId","type":"uint48"}],"name":"getBuyOrder","outputs":[{"components":[{"internalType":"uint48","name":"beforeOrderId","type":"uint48"},{"internalType":"uint48","name":"afterOrderId","type":"uint48"},{"internalType":"address","name":"owner","type":"address"},{"internalType":"uint256","name":"amountIn","type":"uint256"},{"internalType":"uint256","name":"amountOut","type":"uint256"},{"internalType":"uint256","name":"amountInUsed","type":"uint256"}],"internalType":"struct MarsPair.Order","name":"","type":"tuple"}],"stateMutability":"view","type":"function"},{"inputs":[{"internalType":"uint48","name":"orderId","type":"uint48"}],"name":"getSellOrder","outputs":[{"components":[{"internalType":"uint48","name":"beforeOrderId","type":"uint48"},{"internalType":"uint48","name":"afterOrderId","type":"uint48"},{"internalType":"address","name":"owner","type":"address"},{"internalType":"uint256","name":"amountIn","type":"uint256"},{"internalType":"uint256","name":"amountOut","type":"uint256"},{"internalType":"uint256","name":"amountInUsed","type":"uint256"}],"internalType":"struct MarsPair.Order","name":"","type":"tuple"}],"stateMutability":"view","type":"function"},{"inputs":[{"internalType":"uint256","name":"token1In","type":"uint256"},{"internalType":"uint256","name":"token0Out","type":"uint256"},{"internalType":"uint48","name":"beforeOrderId","type":"uint48"}],"name":"makeBuyOrder","outputs":[{"internalType":"uint48","name":"","type":"uint48"}],"stateMutability":"nonpayable","type":"function"},{"inputs":[{"internalType":"uint256","name":"token0In","type":"uint256"},{"internalType":"uint256","name":"token1Out","type":"uint256"},{"internalType":"uint48","name":"beforeOrderId","type":"uint48"}],"name":"makeSellOrder","outputs":[{"internalType":"uint48","name":"","type":"uint48"}],"stateMutability":"nonpayable","type":"function"},{"inputs":[{"internalType":"uint48","name":"","type":"uint48"}],"name":"sellOrders","outputs":[{"internalType":"uint48","name":"beforeOrderId","type":"uint48"},{"internalType":"uint48","name":"afterOrderId","type":"uint48"},{"internalType":"address","name":"owner","type":"address"},{"internalType":"uint256","name":"amountIn","type":"uint256"},{"internalType":"uint256","name":"amountOut","type":"uint256"},{"internalType":"uint256","name":"amountInUsed","type":"uint256"}],"stateMutability":"view","type":"function"},{"inputs":[{"internalType":"uint256","name":"token0In","type":"uint256"},{"internalType":"uint256","name":"token1Want","type":"uint256"}],"name":"takeBuyOrder","outputs":[{"internalType":"uint256","name":"token0Pay","type":"uint256"},{"internalType":"uint256","name":"token1Gain","type":"uint256"},{"internalType":"uint256","name":"token0Fee","type":"uint256"}],"stateMutability":"nonpayable","type":"function"},{"inputs":[{"internalType":"uint256","name":"token1In","type":"uint256"},{"internalType":"uint256","name":"token0Want","type":"uint256"}],"name":"takeSellOrder","outputs":[{"internalType":"uint256","name":"token1Pay","type":"uint256"},{"internalType":"uint256","name":"token0Gain","type":"uint256"},{"internalType":"uint256","name":"token1Fee","type":"uint256"}],"stateMutability":"nonpayable","type":"function"},{"inputs":[],"name":"token0","outputs":[{"internalType":"contract IERC20","name":"","type":"address"}],"stateMutability":"view","type":"function"},{"inputs":[],"name":"token1","outputs":[{"internalType":"contract IERC20","name":"","type":"address"}],"stateMutability":"view","type":"function"},{"inputs":[],"name":"topBuyOrderId","outputs":[{"internalType":"uint48","name":"","type":"uint48"}],"stateMutability":"view","type":"function"},{"inputs":[],"name":"topSellOrderId","outputs":[{"internalType":"uint48","name":"","type":"uint48"}],"stateMutability":"view","type":"function"}],"evm":{"bytecode":{"linkReferences":{},"object":"6101006040526000805465ffffffffffff191690553480156200002157600080fd5b5060405162002a6538038062002a65833981016040819052620000449162000084565b6001600160a01b03928316608052911660a05260ff1660c0523360e052620000d7565b80516001600160a01b03811681146200007f57600080fd5b919050565b6000806000606084860312156200009a57600080fd5b620000a58462000067565b9250620000b56020850162000067565b9150604084015160ff81168114620000cc57600080fd5b809150509250925092565b60805160a05160c05160e0516128c86200019d6000396000818161012b01528181610b690152611b9801526000818161043b01528181610aeb0152611b1a0152600081816103030152818161068501528181610c8e015281816117ad0152818161191601528181611a3101528181611b6901528181611c240152611dac0152600081816101980152818161077e015281816108e701528181610a0201528181610b3a01528181610bf501528181610e1901528181610f910152611cbd01526128c86000f3fe608060405234801561001057600080fd5b50600436106101215760003560e01c8063b5b2d29b116100ad578063d44ca7af11610071578063d44ca7af14610325578063d7d99b0b146103c6578063dda37b2414610423578063ddca3f4314610436578063e5c274bc1461046f57600080fd5b8063b5b2d29b146102b3578063bfe1363e146102c6578063c0253d58146102d9578063c4ccb40a146102ec578063d21220a7146102fe57600080fd5b806367d301f9116100f457806367d301f9146101cf5780637c33e99a146101f05780638a44b05614610202578063a1cca87e14610230578063ae445bac1461024357600080fd5b8063017e7e581461012657806306661abd1461016a5780630dfe16811461019357806358c0c530146101ba575b600080fd5b61014d7f000000000000000000000000000000000000000000000000000000000000000081565b6040516001600160a01b0390911681526020015b60405180910390f35b60005461017c9065ffffffffffff1681565b60405165ffffffffffff9091168152602001610161565b61014d7f000000000000000000000000000000000000000000000000000000000000000081565b6101cd6101c8366004612665565b610482565b005b6101e26101dd3660046126a8565b61057e565b604051908152602001610161565b60045461017c9065ffffffffffff1681565b6102156102103660046126c3565b610712565b60408051938452602084019290925290820152606001610161565b6101e261023e3660046126a8565b610d12565b6102566102513660046126a8565b610e5b565b6040516101619190815165ffffffffffff9081168252602080840151909116908201526040808301516001600160a01b031690820152606080830151908201526080808301519082015260a0918201519181019190915260c00190565b61017c6102c13660046126e5565b610ed9565b6101cd6102d4366004612665565b6116ca565b6102156102e73660046126c3565b611740565b60025461017c9065ffffffffffff1681565b61014d7f000000000000000000000000000000000000000000000000000000000000000081565b6103816103333660046126a8565b6001602081905260009182526040909120805491810154600282015460039092015465ffffffffffff80851694600160301b810490911693600160601b9091046001600160a01b0316929186565b6040805165ffffffffffff97881681529690951660208701526001600160a01b03909316938501939093526060840152608083019190915260a082015260c001610161565b6103816103d43660046126a8565b6003602081905260009182526040909120805460018201546002830154929093015465ffffffffffff80831694600160301b840490911693600160601b9093046001600160a01b031692909186565b61017c6104313660046126e5565b611cf4565b61045d7f000000000000000000000000000000000000000000000000000000000000000081565b60405160ff9091168152602001610161565b61025661047d3660046126a8565b6124e6565b65ffffffffffff821660009081526001602052604090208054600160601b90046001600160a01b031633146104d25760405162461bcd60e51b81526004016104c99061271a565b60405180910390fd5b805465ffffffffffff1665fffffffffffe19016105015760405162461bcd60e51b81526004016104c990612751565b6001600160a01b0382166105575760405162461bcd60e51b815260206004820152601c60248201527f6e65774f776e65722063616e277420626520616464726573732830290000000060448201526064016104c9565b80546001600160a01b03909216600160601b026001600160601b0390921691909117905550565b65ffffffffffff811660009081526001602052604081208054600160601b90046001600160a01b031633146105c55760405162461bcd60e51b81526004016104c99061271a565b805465ffffffffffff1665fffffffffffe19016105f45760405162461bcd60e51b81526004016104c990612751565b6105ff816001612563565b60025465ffffffffffff80851691160361063b57805460028054600160301b90920465ffffffffffff1665ffffffffffff199092169190911790555b805465ffffffffffff191665ffffffffffff1781556003810154600182015461066491906127a9565b9150811561070c57805460405163a9059cbb60e01b81526001600160a01b037f000000000000000000000000000000000000000000000000000000000000000081169263a9059cbb926106c792600160601b9092049091169086906004016127c2565b6020604051808303816000875af11580156106e6573d6000803e3d6000fd5b505050506040513d601f19601f8201168201806040525081019061070a91906127db565b505b50919050565b6002546000908190819065ffffffffffff1681036107675760405162461bcd60e51b81526020600482015260126024820152716275794f726465727320697320656d70747960701b60448201526064016104c9565b6040516323b872dd60e01b81526001600160a01b037f000000000000000000000000000000000000000000000000000000000000000016906323b872dd906107b790339030908a906004016127fd565b6020604051808303816000875af11580156107d6573d6000803e3d6000fd5b505050506040513d601f19601f820116820180604052508101906107fa91906127db565b50845b60025465ffffffffffff1615610a9b576002805465ffffffffffff166000908152600160205260409020908101546108359087612821565b60018201546108449089612821565b10156108505750610a9b565b600081600101548260020154836003015461086b9190612821565b6108759190612838565b826002015461088491906127a9565b90508083106109a15761089781846127a9565b9250816003015482600101546108ad91906127a9565b6108b7908661285a565b94506108c4826001612563565b60018201546003830155815460405163a9059cbb60e01b81526001600160a01b037f000000000000000000000000000000000000000000000000000000000000000081169263a9059cbb9261092992600160601b9092049091169085906004016127c2565b6020604051808303816000875af1158015610948573d6000803e3d6000fd5b505050506040513d601f19601f8201168201806040525081019061096c91906127db565b50815465ffffffffffff1990811665ffffffffffff90811780855560028054909316600160301b909104909116179055610a94565b600082600201548360010154856109b89190612821565b6109c29190612838565b90506109ce818761285a565b9550808360030160008282546109e4919061285a565b9091555050825460405163a9059cbb60e01b81526001600160a01b037f000000000000000000000000000000000000000000000000000000000000000081169263a9059cbb92610a4492600160601b9092049091169088906004016127c2565b6020604051808303816000875af1158015610a63573d6000803e3d6000fd5b505050506040513d601f19601f82011682018060405250810190610a8791906127db565b5060009350505050610a9b565b50506107fd565b610aa581876127a9565b935060008411610ae15760405162461bcd60e51b81526020600482015260076024820152661b9bc81919585b60ca1b60448201526064016104c9565b612710610b1160ff7f00000000000000000000000000000000000000000000000000000000000000001686612821565b610b1b9190612838565b91508115610bd8576040516323b872dd60e01b81526001600160a01b037f000000000000000000000000000000000000000000000000000000000000000016906323b872dd90610b939033907f00000000000000000000000000000000000000000000000000000000000000009087906004016127fd565b6020604051808303816000875af1158015610bb2573d6000803e3d6000fd5b505050506040513d601f19601f82011682018060405250810190610bd691906127db565b505b8015610c715760405163a9059cbb60e01b81526001600160a01b037f0000000000000000000000000000000000000000000000000000000000000000169063a9059cbb90610c2c90339085906004016127c2565b6020604051808303816000875af1158015610c4b573d6000803e3d6000fd5b505050506040513d601f19601f82011682018060405250810190610c6f91906127db565b505b8215610d0a5760405163a9059cbb60e01b81526001600160a01b037f0000000000000000000000000000000000000000000000000000000000000000169063a9059cbb90610cc590339087906004016127c2565b6020604051808303816000875af1158015610ce4573d6000803e3d6000fd5b505050506040513d601f19601f82011682018060405250810190610d0891906127db565b505b509250925092565b65ffffffffffff811660009081526003602052604081208054600160601b90046001600160a01b03163314610d595760405162461bcd60e51b81526004016104c99061271a565b805465ffffffffffff1665fffffffffffe1901610d885760405162461bcd60e51b81526004016104c990612751565b610d93816003612563565b60045465ffffffffffff808516911603610dcf57805460048054600160301b90920465ffffffffffff1665ffffffffffff199092169190911790555b805465ffffffffffff191665ffffffffffff17815560038101546001820154610df891906127a9565b9150811561070c57805460405163a9059cbb60e01b81526001600160a01b037f000000000000000000000000000000000000000000000000000000000000000081169263a9059cbb926106c792600160601b9092049091169086906004016127c2565b610e636125fb565b5065ffffffffffff908116600090815260036020818152604092839020835160c08101855281548087168252600160301b810490961692810192909252600160601b9094046001600160a01b0316928101929092526001830154606083015260028301546080830152919091015460a082015290565b6000808411610f2a5760405162461bcd60e51b815260206004820152601b60248201527f746f6b656e30496e20616d6f756e742063616e6e6f742062652030000000000060448201526064016104c9565b60008311610f7a5760405162461bcd60e51b815260206004820152601c60248201527f746f6b656e314f757420616d6f756e742063616e6e6f7420626520300000000060448201526064016104c9565b6040516323b872dd60e01b81526001600160a01b037f000000000000000000000000000000000000000000000000000000000000000016906323b872dd90610fca903390309089906004016127fd565b6020604051808303816000875af1158015610fe9573d6000803e3d6000fd5b505050506040513d601f19601f8201168201806040525081019061100d91906127db565b506000805481906110259065ffffffffffff1661286d565b82546101009290920a65ffffffffffff8181021990931691831602179091556004541660000361111457506040805160c0810182526000808252602080830182815233848601908152606085018981526080860189815260a08701868152865465ffffffffffff908116885260039687905298872097518854955194516001600160a01b0316600160601b026001600160601b03958b16600160301b026001600160601b0319909716918b169190911795909517939093169390931786555160018601559051600285015551920191909155546004805465ffffffffffff1916919092169081179091556116c3565b8165ffffffffffff166000036112825760045465ffffffffffff166000908152600360205260409020600181015461114d908590612821565b85826002015461115d9190612821565b116111aa5760405162461bcd60e51b815260206004820152601a60248201527f796f7572207072696365206d757374203c20746f704f7264657200000000000060448201526064016104c9565b60008054825465ffffffffffff1990811665ffffffffffff928316179093556040805160c081018252838152600480548416602080840191825233848601908152606085018d8152608086018d815260a087018a81528a548a168b52600394859052978a2096518754955193516001600160a01b0316600160601b026001600160601b03948b16600160301b026001600160601b0319909716918b16919091179590951792909216939093178555915160018501559051600284015592519190920155915482549093169216918217905590506116c3565b65ffffffffffff8216600090815260036020526040812060018101549091036112e85760405162461bcd60e51b81526020600482015260186024820152771899599bdc9953dc99195c881a5cc81b9bdd08195e1a5cdd60421b60448201526064016104c9565b805465ffffffffffff1665fffffffffffe19016113475760405162461bcd60e51b815260206004820152601c60248201527f6265666f72654f726465722069732072656d6f76656428646f6e65290000000060448201526064016104c9565b8381600101546113579190612821565b8582600201546113679190612821565b11156113b55760405162461bcd60e51b815260206004820152601e60248201527f796f7572207072696365206d757374203e3d206265666f72654f72646572000060448201526064016104c9565b8054600160301b900465ffffffffffff1660000361149d57600080548254600160301b65ffffffffffff928316810265ffffffffffff60301b19909216919091179093556040805160c0810182528683168152602080820185815233838501908152606084018c8152608085018c815260a08601898152895489168a5260039586905296892095518654945193516001600160a01b0316600160601b026001600160601b03948a16909b026001600160601b031990951690891617939093179190911697909717835595516001830155945160028201559051930192909255541690506116c3565b8054600160301b900465ffffffffffff166000908152600360205260408120600181015490910361150a5760405162461bcd60e51b815260206004820152601760248201527618599d195c93dc99195c881a5cc81b9bdd08195e1a5cdd604a1b60448201526064016104c9565b805465ffffffffffff1665fffffffffffe19016115695760405162461bcd60e51b815260206004820152601b60248201527f61667465724f726465722069732072656d6f76656428646f6e6529000000000060448201526064016104c9565b8481600101546115799190612821565b8682600201546115899190612821565b116115d65760405162461bcd60e51b815260206004820152601c60248201527f796f7572207072696365206d757374203c2061667465724f726465720000000060448201526064016104c9565b6040805160c08101825265ffffffffffff80871682528454600160301b908190048216602080850191825233858701908152606086018d8152608087018d8152600060a0890181815281548916825260039586905299812098518954965194516001600160a01b0316600160601b026001600160601b03958a1689026001600160601b0319909816918a1691909117969096179390931694909417875551600187015591516002860155945193909401929092558254855490821690920265ffffffffffff60301b1992909216919091179093558054825465ffffffffffff191690841617909155541690505b9392505050565b65ffffffffffff821660009081526003602052604090208054600160601b90046001600160a01b031633146117115760405162461bcd60e51b81526004016104c99061271a565b805465ffffffffffff1665fffffffffffe19016105575760405162461bcd60e51b81526004016104c990612751565b6004546000908190819065ffffffffffff1681036117965760405162461bcd60e51b815260206004820152601360248201527273656c6c4f726465727320697320656d70747960681b60448201526064016104c9565b6040516323b872dd60e01b81526001600160a01b037f000000000000000000000000000000000000000000000000000000000000000016906323b872dd906117e690339030908a906004016127fd565b6020604051808303816000875af1158015611805573d6000803e3d6000fd5b505050506040513d601f19601f8201168201806040525081019061182991906127db565b50845b60045465ffffffffffff1615611aca5760045465ffffffffffff16600090815260036020526040902060028101546118649087612821565b60018201546118739089612821565b101561187f5750611aca565b600081600101548260020154836003015461189a9190612821565b6118a49190612838565b82600201546118b391906127a9565b90508083106119d0576118c681846127a9565b9250816003015482600101546118dc91906127a9565b6118e6908661285a565b94506118f3826003612563565b60018201546003830155815460405163a9059cbb60e01b81526001600160a01b037f000000000000000000000000000000000000000000000000000000000000000081169263a9059cbb9261195892600160601b9092049091169085906004016127c2565b6020604051808303816000875af1158015611977573d6000803e3d6000fd5b505050506040513d601f19601f8201168201806040525081019061199b91906127db565b50815465ffffffffffff1990811665ffffffffffff90811780855560048054909316600160301b909104909116179055611ac3565b600082600201548360010154856119e79190612821565b6119f19190612838565b90506119fd818761285a565b955080836003016000828254611a13919061285a565b9091555050825460405163a9059cbb60e01b81526001600160a01b037f000000000000000000000000000000000000000000000000000000000000000081169263a9059cbb92611a7392600160601b9092049091169088906004016127c2565b6020604051808303816000875af1158015611a92573d6000803e3d6000fd5b505050506040513d601f19601f82011682018060405250810190611ab691906127db565b5060009350505050611aca565b505061182c565b611ad481876127a9565b935060008411611b105760405162461bcd60e51b81526020600482015260076024820152661b9bc81919585b60ca1b60448201526064016104c9565b612710611b4060ff7f00000000000000000000000000000000000000000000000000000000000000001686612821565b611b4a9190612838565b91508115611c07576040516323b872dd60e01b81526001600160a01b037f000000000000000000000000000000000000000000000000000000000000000016906323b872dd90611bc29033907f00000000000000000000000000000000000000000000000000000000000000009087906004016127fd565b6020604051808303816000875af1158015611be1573d6000803e3d6000fd5b505050506040513d601f19601f82011682018060405250810190611c0591906127db565b505b8015611ca05760405163a9059cbb60e01b81526001600160a01b037f0000000000000000000000000000000000000000000000000000000000000000169063a9059cbb90611c5b90339085906004016127c2565b6020604051808303816000875af1158015611c7a573d6000803e3d6000fd5b505050506040513d601f19601f82011682018060405250810190611c9e91906127db565b505b8215610d0a5760405163a9059cbb60e01b81526001600160a01b037f0000000000000000000000000000000000000000000000000000000000000000169063a9059cbb90610cc590339087906004016127c2565b6000808411611d455760405162461bcd60e51b815260206004820152601b60248201527f746f6b656e31496e20616d6f756e742063616e6e6f742062652030000000000060448201526064016104c9565b60008311611d955760405162461bcd60e51b815260206004820152601c60248201527f746f6b656e304f757420616d6f756e742063616e6e6f7420626520300000000060448201526064016104c9565b6040516323b872dd60e01b81526001600160a01b037f000000000000000000000000000000000000000000000000000000000000000016906323b872dd90611de5903390309089906004016127fd565b6020604051808303816000875af1158015611e04573d6000803e3d6000fd5b505050506040513d601f19601f82011682018060405250810190611e2891906127db565b50600080548190611e409065ffffffffffff1661286d565b82546101009290920a65ffffffffffff81810219909316918316021790915560025416600003611f3357506040805160c0810182526000808252602080830182815233848601908152606085018981526080860189815260a08701868152865465ffffffffffff908116885260019687905298872097518854955194516001600160a01b0316600160601b026001600160601b03958b16600160301b026001600160601b0319909716918b16919091179590951793909316939093178655519285019290925551600280850191909155905160039093019290925554815465ffffffffffff1916921691821790556116c3565b8165ffffffffffff166000036120a15760025465ffffffffffff16600090815260016020819052604090912090810154611f6e908590612821565b858260020154611f7e9190612821565b11611fcb5760405162461bcd60e51b815260206004820152601a60248201527f796f7572207072696365206d757374203e20746f704f7264657200000000000060448201526064016104c9565b60008054825465ffffffffffff1990811665ffffffffffff928316179093556040805160c081018252838152600280548416602080840191825233848601908152606085018d8152608086018d815260a087018a81528a548a168b52600194859052978a2096518754955193516001600160a01b0316600160601b026001600160601b03948b16600160301b026001600160601b0319909716918b1691909117959095179290921693909317855591519084015551828201559151600390910155915482549093169216918217905590506116c3565b65ffffffffffff821660009081526001602081905260408220908101549091036121085760405162461bcd60e51b81526020600482015260186024820152771899599bdc9953dc99195c881a5cc81b9bdd08195e1a5cdd60421b60448201526064016104c9565b805465ffffffffffff1665fffffffffffe19016121675760405162461bcd60e51b815260206004820152601c60248201527f6265666f72654f726465722069732072656d6f76656428646f6e65290000000060448201526064016104c9565b8381600101546121779190612821565b8582600201546121879190612821565b11156121d55760405162461bcd60e51b815260206004820152601e60248201527f796f7572207072696365206d757374203c3d206265666f72654f72646572000060448201526064016104c9565b8054600160301b900465ffffffffffff166000036122be57600080548254600160301b65ffffffffffff928316810265ffffffffffff60301b19909216919091179093556040805160c0810182528683168152602080820185815233838501908152606084018c8152608085018c815260a08601898152895489168a5260019586905296892095518654945193516001600160a01b0316600160601b026001600160601b03948a16909b026001600160601b03199095169089161793909317919091169790971783559551908201559351600285015551600390930192909255541690506116c3565b8054600160301b900465ffffffffffff16600090815260016020819052604082209081015490910361232c5760405162461bcd60e51b815260206004820152601760248201527618599d195c93dc99195c881a5cc81b9bdd08195e1a5cdd604a1b60448201526064016104c9565b805465ffffffffffff1665fffffffffffe190161238b5760405162461bcd60e51b815260206004820152601b60248201527f61667465724f726465722069732072656d6f76656428646f6e6529000000000060448201526064016104c9565b84816001015461239b9190612821565b8682600201546123ab9190612821565b116123f85760405162461bcd60e51b815260206004820152601c60248201527f796f7572207072696365206d757374203e2061667465724f726465720000000060448201526064016104c9565b6040805160c08101825265ffffffffffff95861681528354600160301b908190048716602080840191825233848601908152606085019b8c52608085019a8b52600060a0860181815281548c16825260019384905296812095518654945192516001600160a01b0316600160601b026001600160601b03938d1687026001600160601b0319909616918d169190911794909417919091169290921784559951998301999099559651600282015590516003909101558554825490851690950265ffffffffffff60301b19909516949094179055508254825465ffffffffffff19169082161790915590541690565b6124ee6125fb565b5065ffffffffffff908116600090815260016020818152604092839020835160c08101855281548087168252600160301b810490961692810192909252600160601b9094046001600160a01b03169281019290925282015460608201526002820154608082015260039091015460a082015290565b815465ffffffffffff16156125ad57815465ffffffffffff8082166000908152602084905260409020805465ffffffffffff60301b1916600160301b938490049092169092021790555b8154600160301b900465ffffffffffff16156125f7578154600160301b810465ffffffffffff9081166000908152602084905260409020805465ffffffffffff1916919092161790555b5050565b6040518060c00160405280600065ffffffffffff168152602001600065ffffffffffff16815260200160006001600160a01b031681526020016000815260200160008152602001600081525090565b803565ffffffffffff8116811461266057600080fd5b919050565b6000806040838503121561267857600080fd5b6126818361264a565b915060208301356001600160a01b038116811461269d57600080fd5b809150509250929050565b6000602082840312156126ba57600080fd5b6116c38261264a565b600080604083850312156126d657600080fd5b50508035926020909101359150565b6000806000606084860312156126fa57600080fd5b83359250602084013591506127116040850161264a565b90509250925092565b6020808252601e908201527f796f7520617265206e6f74206f776e6572206f6620746865206f726465720000604082015260600190565b60208082526022908201527f746865206f7264657220697320616c72656164792072656d6f76656428646f6e604082015261652960f01b606082015260800190565b634e487b7160e01b600052601160045260246000fd5b818103818111156127bc576127bc612793565b92915050565b6001600160a01b03929092168252602082015260400190565b6000602082840312156127ed57600080fd5b815180151581146116c357600080fd5b6001600160a01b039384168152919092166020820152604081019190915260600190565b80820281158282048414176127bc576127bc612793565b60008261285557634e487b7160e01b600052601260045260246000fd5b500490565b808201808211156127bc576127bc612793565b600065ffffffffffff80831681810361288857612888612793565b600101939250505056fea26469706673582212207fee1306a2556da2843c87b58985bb8cec5111762501dfdeb866fa1d5618764664736f6c63430008180033","opcodes":"PUSH2 0x100 PUSH1 0x40 MSTORE PUSH1 0x0 DUP1 SLOAD PUSH6 0xFFFFFFFFFFFF NOT AND SWAP1 SSTORE CALLVALUE DUP1 ISZERO PUSH3 0x21 JUMPI PUSH1 0x0 DUP1 REVERT JUMPDEST POP PUSH1 0x40 MLOAD PUSH3 0x2A65 CODESIZE SUB DUP1 PUSH3 0x2A65 DUP4 CODECOPY DUP2 ADD PUSH1 0x40 DUP2 SWAP1 MSTORE PUSH3 0x44 SWAP2 PUSH3 0x84 JUMP JUMPDEST PUSH1 0x1 PUSH1 0x1 PUSH1 0xA0 SHL SUB SWAP3 DUP4 AND PUSH1 0x80 MSTORE SWAP2 AND PUSH1 0xA0 MSTORE PUSH1 0xFF AND PUSH1 0xC0 MSTORE CALLER PUSH1 0xE0 MSTORE PUSH3 0xD7 JUMP JUMPDEST DUP1 MLOAD PUSH1 0x1 PUSH1 0x1 PUSH1 0xA0 SHL SUB DUP2 AND DUP2 EQ PUSH3 0x7F JUMPI PUSH1 0x0 DUP1 REVERT JUMPDEST SWAP2 SWAP1 POP JUMP JUMPDEST PUSH1 0x0 DUP1 PUSH1 0x0 PUSH1 0x60 DUP5 DUP7 SUB SLT ISZERO PUSH3 0x9A JUMPI PUSH1 0x0 DUP1 REVERT JUMPDEST PUSH3 0xA5 DUP5 PUSH3 0x67 JUMP JUMPDEST SWAP3 POP PUSH3 0xB5 PUSH1 0x20 DUP6 ADD PUSH3 0x67 JUMP JUMPDEST SWAP2 POP PUSH1 0x40 DUP5 ADD MLOAD PUSH1 0xFF DUP2 AND DUP2 EQ PUSH3 0xCC JUMPI PUSH1 0x0 DUP1 REVERT JUMPDEST DUP1 SWAP2 POP POP SWAP3 POP SWAP3 POP SWAP3 JUMP JUMPDEST PUSH1 0x80 MLOAD PUSH1 0xA0 MLOAD PUSH1 0xC0 MLOAD PUSH1 0xE0 MLOAD PUSH2 0x28C8 PUSH3 0x19D PUSH1 0x0 CODECOPY PUSH1 0x0 DUP2 DUP2 PUSH2 0x12B ADD MSTORE DUP2 DUP2 PUSH2 0xB69 ADD MSTORE PUSH2 0x1B98 ADD MSTORE PUSH1 0x0 DUP2 DUP2 PUSH2 0x43B ADD MSTORE DUP2 DUP2 PUSH2 0xAEB ADD MSTORE PUSH2 0x1B1A ADD MSTORE PUSH1 0x0 DUP2 DUP2 PUSH2 0x303 ADD MSTORE DUP2 DUP2 PUSH2 0x685 ADD MSTORE DUP2 DUP2 PUSH2 0xC8E ADD MSTORE DUP2 DUP2 PUSH2 0x17AD ADD MSTORE DUP2 DUP2 PUSH2 0x1916 ADD MSTORE DUP2 DUP2 PUSH2 0x1A31 ADD MSTORE DUP2 DUP2 PUSH2 0x1B69 ADD MSTORE DUP2 DUP2 PUSH2 0x1C24 ADD MSTORE PUSH2 0x1DAC ADD MSTORE PUSH1 0x0 DUP2 DUP2 PUSH2 0x198 ADD MSTORE DUP2 DUP2 PUSH2 0x77E ADD MSTORE DUP2 DUP2 PUSH2 0x8E7 ADD MSTORE DUP2 DUP2 PUSH2 0xA02 ADD MSTORE DUP2 DUP2 PUSH2 0xB3A ADD MSTORE DUP2 DUP2 PUSH2 0xBF5 ADD MSTORE DUP2 DUP2 PUSH2 0xE19 ADD MSTORE DUP2 DUP2 PUSH2 0xF91 ADD MSTORE PUSH2 0x1CBD ADD MSTORE PUSH2 0x28C8 PUSH1 0x0 RETURN INVALID PUSH1 0x80 PUSH1 0x40 MSTORE CALLVALUE DUP1 ISZERO PUSH2 0x10 JUMPI PUSH1 0x0 DUP1 REVERT JUMPDEST POP PUSH1 0x4 CALLDATASIZE LT PUSH2 0x121 JUMPI PUSH1 0x0 CALLDATALOAD PUSH1 0xE0 SHR DUP1 PUSH4 0xB5B2D29B GT PUSH2 0xAD JUMPI DUP1 PUSH4 0xD44CA7AF GT PUSH2 0x71 JUMPI DUP1 PUSH4 0xD44CA7AF EQ PUSH2 0x325 JUMPI DUP1 PUSH4 0xD7D99B0B EQ PUSH2 0x3C6 JUMPI DUP1 PUSH4 0xDDA37B24 EQ PUSH2 0x423 JUMPI DUP1 PUSH4 0xDDCA3F43 EQ PUSH2 0x436 JUMPI DUP1 PUSH4 0xE5C274BC EQ PUSH2 0x46F JUMPI PUSH1 0x0 DUP1 REVERT JUMPDEST DUP1 PUSH4 0xB5B2D29B EQ PUSH2 0x2B3 JUMPI DUP1 PUSH4 0xBFE1363E EQ PUSH2 0x2C6 JUMPI DUP1 PUSH4 0xC0253D58 EQ PUSH2 0x2D9 JUMPI DUP1 PUSH4 0xC4CCB40A EQ PUSH2 0x2EC JUMPI DUP1 PUSH4 0xD21220A7 EQ PUSH2 0x2FE JUMPI PUSH1 0x0 DUP1 REVERT JUMPDEST DUP1 PUSH4 0x67D301F9 GT PUSH2 0xF4 JUMPI DUP1 PUSH4 0x67D301F9 EQ PUSH2 0x1CF JUMPI DUP1 PUSH4 0x7C33E99A EQ PUSH2 0x1F0 JUMPI DUP1 PUSH4 0x8A44B056 EQ PUSH2 0x202 JUMPI DUP1 PUSH4 0xA1CCA87E EQ PUSH2 0x230 JUMPI DUP1 PUSH4 0xAE445BAC EQ PUSH2 0x243 JUMPI PUSH1 0x0 DUP1 REVERT JUMPDEST DUP1 PUSH4 0x17E7E58 EQ PUSH2 0x126 JUMPI DUP1 PUSH4 0x6661ABD EQ PUSH2 0x16A JUMPI DUP1 PUSH4 0xDFE1681 EQ PUSH2 0x193 JUMPI DUP1 PUSH4 0x58C0C530 EQ PUSH2 0x1BA JUMPI JUMPDEST PUSH1 0x0 DUP1 REVERT JUMPDEST PUSH2 0x14D PUSH32 0x0 DUP2 JUMP JUMPDEST PUSH1 0x40 MLOAD PUSH1 0x1 PUSH1 0x1 PUSH1 0xA0 SHL SUB SWAP1 SWAP2 AND DUP2 MSTORE PUSH1 0x20 ADD JUMPDEST PUSH1 0x40 MLOAD DUP1 SWAP2 SUB SWAP1 RETURN JUMPDEST PUSH1 0x0 SLOAD PUSH2 0x17C SWAP1 PUSH6 0xFFFFFFFFFFFF AND DUP2 JUMP JUMPDEST PUSH1 0x40 MLOAD PUSH6 0xFFFFFFFFFFFF SWAP1 SWAP2 AND DUP2 MSTORE PUSH1 0x20 ADD PUSH2 0x161 JUMP JUMPDEST PUSH2 0x14D PUSH32 0x0 DUP2 JUMP JUMPDEST PUSH2 0x1CD PUSH2 0x1C8 CALLDATASIZE PUSH1 0x4 PUSH2 0x2665 JUMP JUMPDEST PUSH2 0x482 JUMP JUMPDEST STOP JUMPDEST PUSH2 0x1E2 PUSH2 0x1DD CALLDATASIZE PUSH1 0x4 PUSH2 0x26A8 JUMP JUMPDEST PUSH2 0x57E JUMP JUMPDEST PUSH1 0x40 MLOAD SWAP1 DUP2 MSTORE PUSH1 0x20 ADD PUSH2 0x161 JUMP JUMPDEST PUSH1 0x4 SLOAD PUSH2 0x17C SWAP1 PUSH6 0xFFFFFFFFFFFF AND DUP2 JUMP JUMPDEST PUSH2 0x215 PUSH2 0x210 CALLDATASIZE PUSH1 0x4 PUSH2 0x26C3 JUMP JUMPDEST PUSH2 0x712 JUMP JUMPDEST PUSH1 0x40 DUP1 MLOAD SWAP4 DUP5 MSTORE PUSH1 0x20 DUP5 ADD SWAP3 SWAP1 SWAP3 MSTORE SWAP1 DUP3 ADD MSTORE PUSH1 0x60 ADD PUSH2 0x161 JUMP JUMPDEST PUSH2 0x1E2 PUSH2 0x23E CALLDATASIZE PUSH1 0x4 PUSH2 0x26A8 JUMP JUMPDEST PUSH2 0xD12 JUMP JUMPDEST PUSH2 0x256 PUSH2 0x251 CALLDATASIZE PUSH1 0x4 PUSH2 0x26A8 JUMP JUMPDEST PUSH2 0xE5B JUMP JUMPDEST PUSH1 0x40 MLOAD PUSH2 0x161 SWAP2 SWAP1 DUP2 MLOAD PUSH6 0xFFFFFFFFFFFF SWAP1 DUP2 AND DUP3 MSTORE PUSH1 0x20 DUP1 DUP5 ADD MLOAD SWAP1 SWAP2 AND SWAP1 DUP3 ADD MSTORE PUSH1 0x40 DUP1 DUP4 ADD MLOAD PUSH1 0x1 PUSH1 0x1 PUSH1 0xA0 SHL SUB AND SWAP1 DUP3 ADD MSTORE PUSH1 0x60 DUP1 DUP4 ADD MLOAD SWAP1 DUP3 ADD MSTORE PUSH1 0x80 DUP1 DUP4 ADD MLOAD SWAP1 DUP3 ADD MSTORE PUSH1 0xA0 SWAP2 DUP3 ADD MLOAD SWAP2 DUP2 ADD SWAP2 SWAP1 SWAP2 MSTORE PUSH1 0xC0 ADD SWAP1 JUMP JUMPDEST PUSH2 0x17C PUSH2 0x2C1 CALLDATASIZE PUSH1 0x4 PUSH2 0x26E5 JUMP JUMPDEST PUSH2 0xED9 JUMP JUMPDEST PUSH2 0x1CD PUSH2 0x2D4 CALLDATASIZE PUSH1 0x4 PUSH2 0x2665 JUMP JUMPDEST PUSH2 0x16CA JUMP JUMPDEST PUSH2 0x215 PUSH2 0x2E7 CALLDATASIZE PUSH1 0x4 PUSH2 0x26C3 JUMP JUMPDEST PUSH2 0x1740 JUMP JUMPDEST PUSH1 0x2 SLOAD PUSH2 0x17C SWAP1 PUSH6 0xFFFFFFFFFFFF AND DUP2 JUMP JUMPDEST PUSH2 0x14D PUSH32 0x0 DUP2 JUMP JUMPDEST PUSH2 0x381 PUSH2 0x333 CALLDATASIZE PUSH1 0x4 PUSH2 0x26A8 JUMP JUMPDEST PUSH1 0x1 PUSH1 0x20 DUP2 SWAP1 MSTORE PUSH1 0x0 SWAP2 DUP3 MSTORE PUSH1 0x40 SWAP1 SWAP2 KECCAK256 DUP1 SLOAD SWAP2 DUP2 ADD SLOAD PUSH1 0x2 DUP3 ADD SLOAD PUSH1 0x3 SWAP1 SWAP3 ADD SLOAD PUSH6 0xFFFFFFFFFFFF DUP1 DUP6 AND SWAP5 PUSH1 0x1 PUSH1 0x30 SHL DUP2 DIV SWAP1 SWAP2 AND SWAP4 PUSH1 0x1 PUSH1 0x60 SHL SWAP1 SWAP2 DIV PUSH1 0x1 PUSH1 0x1 PUSH1 0xA0 SHL SUB AND SWAP3 SWAP2 DUP7 JUMP JUMPDEST PUSH1 0x40 DUP1 MLOAD PUSH6 0xFFFFFFFFFFFF SWAP8 DUP9 AND DUP2 MSTORE SWAP7 SWAP1 SWAP6 AND PUSH1 0x20 DUP8 ADD MSTORE PUSH1 0x1 PUSH1 0x1 PUSH1 0xA0 SHL SUB SWAP1 SWAP4 AND SWAP4 DUP6 ADD SWAP4 SWAP1 SWAP4 MSTORE PUSH1 0x60 DUP5 ADD MSTORE PUSH1 0x80 DUP4 ADD SWAP2 SWAP1 SWAP2 MSTORE PUSH1 0xA0 DUP3 ADD MSTORE PUSH1 0xC0 ADD PUSH2 0x161 JUMP JUMPDEST PUSH2 0x381 PUSH2 0x3D4 CALLDATASIZE PUSH1 0x4 PUSH2 0x26A8 JUMP JUMPDEST PUSH1 0x3 PUSH1 0x20 DUP2 SWAP1 MSTORE PUSH1 0x0 SWAP2 DUP3 MSTORE PUSH1 0x40 SWAP1 SWAP2 KECCAK256 DUP1 SLOAD PUSH1 0x1 DUP3 ADD SLOAD PUSH1 0x2 DUP4 ADD SLOAD SWAP3 SWAP1 SWAP4 ADD SLOAD PUSH6 0xFFFFFFFFFFFF DUP1 DUP4 AND SWAP5 PUSH1 0x1 PUSH1 0x30 SHL DUP5 DIV SWAP1 SWAP2 AND SWAP4 PUSH1 0x1 PUSH1 0x60 SHL SWAP1 SWAP4 DIV PUSH1 0x1 PUSH1 0x1 PUSH1 0xA0 SHL SUB AND SWAP3 SWAP1 SWAP2 DUP7 JUMP JUMPDEST PUSH2 0x17C PUSH2 0x431 CALLDATASIZE PUSH1 0x4 PUSH2 0x26E5 JUMP JUMPDEST PUSH2 0x1CF4 JUMP JUMPDEST PUSH2 0x45D PUSH32 0x0 DUP2 JUMP JUMPDEST PUSH1 0x40 MLOAD PUSH1 0xFF SWAP1 SWAP2 AND DUP2 MSTORE PUSH1 0x20 ADD PUSH2 0x161 JUMP JUMPDEST PUSH2 0x256 PUSH2 0x47D CALLDATASIZE PUSH1 0x4 PUSH2 0x26A8 JUMP JUMPDEST PUSH2 0x24E6 JUMP JUMPDEST PUSH6 0xFFFFFFFFFFFF DUP3 AND PUSH1 0x0 SWAP1 DUP2 MSTORE PUSH1 0x1 PUSH1 0x20 MSTORE PUSH1 0x40 SWAP1 KECCAK256 DUP1 SLOAD PUSH1 0x1 PUSH1 0x60 SHL SWAP1 DIV PUSH1 0x1 PUSH1 0x1 PUSH1 0xA0 SHL SUB AND CALLER EQ PUSH2 0x4D2 JUMPI PUSH1 0x40 MLOAD PUSH3 0x461BCD PUSH1 0xE5 SHL DUP2 MSTORE PUSH1 0x4 ADD PUSH2 0x4C9 SWAP1 PUSH2 0x271A JUMP JUMPDEST PUSH1 0x40 MLOAD DUP1 SWAP2 SUB SWAP1 REVERT JUMPDEST DUP1 SLOAD PUSH6 0xFFFFFFFFFFFF AND PUSH6 0xFFFFFFFFFFFE NOT ADD PUSH2 0x501 JUMPI PUSH1 0x40 MLOAD PUSH3 0x461BCD PUSH1 0xE5 SHL DUP2 MSTORE PUSH1 0x4 ADD PUSH2 0x4C9 SWAP1 PUSH2 0x2751 JUMP JUMPDEST PUSH1 0x1 PUSH1 0x1 PUSH1 0xA0 SHL SUB DUP3 AND PUSH2 0x557 JUMPI PUSH1 0x40 MLOAD PUSH3 0x461BCD PUSH1 0xE5 SHL DUP2 MSTORE PUSH1 0x20 PUSH1 0x4 DUP3 ADD MSTORE PUSH1 0x1C PUSH1 0x24 DUP3 ADD MSTORE PUSH32 0x6E65774F776E65722063616E2774206265206164647265737328302900000000 PUSH1 0x44 DUP3 ADD MSTORE PUSH1 0x64 ADD PUSH2 0x4C9 JUMP JUMPDEST DUP1 SLOAD PUSH1 0x1 PUSH1 0x1 PUSH1 0xA0 SHL SUB SWAP1 SWAP3 AND PUSH1 0x1 PUSH1 0x60 SHL MUL PUSH1 0x1 PUSH1 0x1 PUSH1 0x60 SHL SUB SWAP1 SWAP3 AND SWAP2 SWAP1 SWAP2 OR SWAP1 SSTORE POP JUMP JUMPDEST PUSH6 0xFFFFFFFFFFFF DUP2 AND PUSH1 0x0 SWAP1 DUP2 MSTORE PUSH1 0x1 PUSH1 0x20 MSTORE PUSH1 0x40 DUP2 KECCAK256 DUP1 SLOAD PUSH1 0x1 PUSH1 0x60 SHL SWAP1 DIV PUSH1 0x1 PUSH1 0x1 PUSH1 0xA0 SHL SUB AND CALLER EQ PUSH2 0x5C5 JUMPI PUSH1 0x40 MLOAD PUSH3 0x461BCD PUSH1 0xE5 SHL DUP2 MSTORE PUSH1 0x4 ADD PUSH2 0x4C9 SWAP1 PUSH2 0x271A JUMP JUMPDEST DUP1 SLOAD PUSH6 0xFFFFFFFFFFFF AND PUSH6 0xFFFFFFFFFFFE NOT ADD PUSH2 0x5F4 JUMPI PUSH1 0x40 MLOAD PUSH3 0x461BCD PUSH1 0xE5 SHL DUP2 MSTORE PUSH1 0x4 ADD PUSH2 0x4C9 SWAP1 PUSH2 0x2751 JUMP JUMPDEST PUSH2 0x5FF DUP2 PUSH1 0x1 PUSH2 0x2563 JUMP JUMPDEST PUSH1 0x2 SLOAD PUSH6 0xFFFFFFFFFFFF DUP1 DUP6 AND SWAP2 AND SUB PUSH2 0x63B JUMPI DUP1 SLOAD PUSH1 0x2 DUP1 SLOAD PUSH1 0x1 PUSH1 0x30 SHL SWAP1 SWAP3 DIV PUSH6 0xFFFFFFFFFFFF AND PUSH6 0xFFFFFFFFFFFF NOT SWAP1 SWAP3 AND SWAP2 SWAP1 SWAP2 OR SWAP1 SSTORE JUMPDEST DUP1 SLOAD PUSH6 0xFFFFFFFFFFFF NOT AND PUSH6 0xFFFFFFFFFFFF OR DUP2 SSTORE PUSH1 0x3 DUP2 ADD SLOAD PUSH1 0x1 DUP3 ADD SLOAD PUSH2 0x664 SWAP2 SWAP1 PUSH2 0x27A9 JUMP JUMPDEST SWAP2 POP DUP2 ISZERO PUSH2 0x70C JUMPI DUP1 SLOAD PUSH1 0x40 MLOAD PUSH4 0xA9059CBB PUSH1 0xE0 SHL DUP2 MSTORE PUSH1 0x1 PUSH1 0x1 PUSH1 0xA0 SHL SUB PUSH32 0x0 DUP2 AND SWAP3 PUSH4 0xA9059CBB SWAP3 PUSH2 0x6C7 SWAP3 PUSH1 0x1 PUSH1 0x60 SHL SWAP1 SWAP3 DIV SWAP1 SWAP2 AND SWAP1 DUP7 SWAP1 PUSH1 0x4 ADD PUSH2 0x27C2 JUMP JUMPDEST PUSH1 0x20 PUSH1 0x40 MLOAD DUP1 DUP4 SUB DUP2 PUSH1 0x0 DUP8 GAS CALL ISZERO DUP1 ISZERO PUSH2 0x6E6 JUMPI RETURNDATASIZE PUSH1 0x0 DUP1 RETURNDATACOPY RETURNDATASIZE PUSH1 0x0 REVERT JUMPDEST POP POP POP POP PUSH1 0x40 MLOAD RETURNDATASIZE PUSH1 0x1F NOT PUSH1 0x1F DUP3 ADD AND DUP3 ADD DUP1 PUSH1 0x40 MSTORE POP DUP2 ADD SWAP1 PUSH2 0x70A SWAP2 SWAP1 PUSH2 0x27DB JUMP JUMPDEST POP JUMPDEST POP SWAP2 SWAP1 POP JUMP JUMPDEST PUSH1 0x2 SLOAD PUSH1 0x0 SWAP1 DUP2 SWAP1 DUP2 SWAP1 PUSH6 0xFFFFFFFFFFFF AND DUP2 SUB PUSH2 0x767 JUMPI PUSH1 0x40 MLOAD PUSH3 0x461BCD PUSH1 0xE5 SHL DUP2 MSTORE PUSH1 0x20 PUSH1 0x4 DUP3 ADD MSTORE PUSH1 0x12 PUSH1 0x24 DUP3 ADD MSTORE PUSH18 0x6275794F726465727320697320656D707479 PUSH1 0x70 SHL PUSH1 0x44 DUP3 ADD MSTORE PUSH1 0x64 ADD PUSH2 0x4C9 JUMP JUMPDEST PUSH1 0x40 MLOAD PUSH4 0x23B872DD PUSH1 0xE0 SHL DUP2 MSTORE PUSH1 0x1 PUSH1 0x1 PUSH1 0xA0 SHL SUB PUSH32 0x0 AND SWAP1 PUSH4 0x23B872DD SWAP1 PUSH2 0x7B7 SWAP1 CALLER SWAP1 ADDRESS SWAP1 DUP11 SWAP1 PUSH1 0x4 ADD PUSH2 0x27FD JUMP JUMPDEST PUSH1 0x20 PUSH1 0x40 MLOAD DUP1 DUP4 SUB DUP2 PUSH1 0x0 DUP8 GAS CALL ISZERO DUP1 ISZERO PUSH2 0x7D6 JUMPI RETURNDATASIZE PUSH1 0x0 DUP1 RETURNDATACOPY RETURNDATASIZE PUSH1 0x0 REVERT JUMPDEST POP POP POP POP PUSH1 0x40 MLOAD RETURNDATASIZE PUSH1 0x1F NOT PUSH1 0x1F DUP3 ADD AND DUP3 ADD DUP1 PUSH1 0x40 MSTORE POP DUP2 ADD SWAP1 PUSH2 0x7FA SWAP2 SWAP1 PUSH2 0x27DB JUMP JUMPDEST POP DUP5 JUMPDEST PUSH1 0x2 SLOAD PUSH6 0xFFFFFFFFFFFF AND ISZERO PUSH2 0xA9B JUMPI PUSH1 0x2 DUP1 SLOAD PUSH6 0xFFFFFFFFFFFF AND PUSH1 0x0 SWAP1 DUP2 MSTORE PUSH1 0x1 PUSH1 0x20 MSTORE PUSH1 0x40 SWAP1 KECCAK256 SWAP1 DUP2 ADD SLOAD PUSH2 0x835 SWAP1 DUP8 PUSH2 0x2821 JUMP JUMPDEST PUSH1 0x1 DUP3 ADD SLOAD PUSH2 0x844 SWAP1 DUP10 PUSH2 0x2821 JUMP JUMPDEST LT ISZERO PUSH2 0x850 JUMPI POP PUSH2 0xA9B JUMP JUMPDEST PUSH1 0x0 DUP2 PUSH1 0x1 ADD SLOAD DUP3 PUSH1 0x2 ADD SLOAD DUP4 PUSH1 0x3 ADD SLOAD PUSH2 0x86B SWAP2 SWAP1 PUSH2 0x2821 JUMP JUMPDEST PUSH2 0x875 SWAP2 SWAP1 PUSH2 0x2838 JUMP JUMPDEST DUP3 PUSH1 0x2 ADD SLOAD PUSH2 0x884 SWAP2 SWAP1 PUSH2 0x27A9 JUMP JUMPDEST SWAP1 POP DUP1 DUP4 LT PUSH2 0x9A1 JUMPI PUSH2 0x897 DUP2 DUP5 PUSH2 0x27A9 JUMP JUMPDEST SWAP3 POP DUP2 PUSH1 0x3 ADD SLOAD DUP3 PUSH1 0x1 ADD SLOAD PUSH2 0x8AD SWAP2 SWAP1 PUSH2 0x27A9 JUMP JUMPDEST PUSH2 0x8B7 SWAP1 DUP7 PUSH2 0x285A JUMP JUMPDEST SWAP5 POP PUSH2 0x8C4 DUP3 PUSH1 0x1 PUSH2 0x2563 JUMP JUMPDEST PUSH1 0x1 DUP3 ADD SLOAD PUSH1 0x3 DUP4 ADD SSTORE DUP2 SLOAD PUSH1 0x40 MLOAD PUSH4 0xA9059CBB PUSH1 0xE0 SHL DUP2 MSTORE PUSH1 0x1 PUSH1 0x1 PUSH1 0xA0 SHL SUB PUSH32 0x0 DUP2 AND SWAP3 PUSH4 0xA9059CBB SWAP3 PUSH2 0x929 SWAP3 PUSH1 0x1 PUSH1 0x60 SHL SWAP1 SWAP3 DIV SWAP1 SWAP2 AND SWAP1 DUP6 SWAP1 PUSH1 0x4 ADD PUSH2 0x27C2 JUMP JUMPDEST PUSH1 0x20 PUSH1 0x40 MLOAD DUP1 DUP4 SUB DUP2 PUSH1 0x0 DUP8 GAS CALL ISZERO DUP1 ISZERO PUSH2 0x948 JUMPI RETURNDATASIZE PUSH1 0x0 DUP1 RETURNDATACOPY RETURNDATASIZE PUSH1 0x0 REVERT JUMPDEST POP POP POP POP PUSH1 0x40 MLOAD RETURNDATASIZE PUSH1 0x1F NOT PUSH1 0x1F DUP3 ADD AND DUP3 ADD DUP1 PUSH1 0x40 MSTORE POP DUP2 ADD SWAP1 PUSH2 0x96C SWAP2 SWAP1 PUSH2 0x27DB JUMP JUMPDEST POP DUP2 SLOAD PUSH6 0xFFFFFFFFFFFF NOT SWAP1 DUP2 AND PUSH6 0xFFFFFFFFFFFF SWAP1 DUP2 OR DUP1 DUP6 SSTORE PUSH1 0x2 DUP1 SLOAD SWAP1 SWAP4 AND PUSH1 0x1 PUSH1 0x30 SHL SWAP1 SWAP2 DIV SWAP1 SWAP2 AND OR SWAP1 SSTORE PUSH2 0xA94 JUMP JUMPDEST PUSH1 0x0 DUP3 PUSH1 0x2 ADD SLOAD DUP4 PUSH1 0x1 ADD SLOAD DUP6 PUSH2 0x9B8 SWAP2 SWAP1 PUSH2 0x2821 JUMP JUMPDEST PUSH2 0x9C2 SWAP2 SWAP1 PUSH2 0x2838 JUMP JUMPDEST SWAP1 POP PUSH2 0x9CE DUP2 DUP8 PUSH2 0x285A JUMP JUMPDEST SWAP6 POP DUP1 DUP4 PUSH1 0x3 ADD PUSH1 0x0 DUP3 DUP3 SLOAD PUSH2 0x9E4 SWAP2 SWAP1 PUSH2 0x285A JUMP JUMPDEST SWAP1 SWAP2 SSTORE POP POP DUP3 SLOAD PUSH1 0x40 MLOAD PUSH4 0xA9059CBB PUSH1 0xE0 SHL DUP2 MSTORE PUSH1 0x1 PUSH1 0x1 PUSH1 0xA0 SHL SUB PUSH32 0x0 DUP2 AND SWAP3 PUSH4 0xA9059CBB SWAP3 PUSH2 0xA44 SWAP3 PUSH1 0x1 PUSH1 0x60 SHL SWAP1 SWAP3 DIV SWAP1 SWAP2 AND SWAP1 DUP9 SWAP1 PUSH1 0x4 ADD PUSH2 0x27C2 JUMP JUMPDEST PUSH1 0x20 PUSH1 0x40 MLOAD DUP1 DUP4 SUB DUP2 PUSH1 0x0 DUP8 GAS CALL ISZERO DUP1 ISZERO PUSH2 0xA63 JUMPI RETURNDATASIZE PUSH1 0x0 DUP1 RETURNDATACOPY RETURNDATASIZE PUSH1 0x0 REVERT JUMPDEST POP POP POP POP PUSH1 0x40 MLOAD RETURNDATASIZE PUSH1 0x1F NOT PUSH1 0x1F DUP3 ADD AND DUP3 ADD DUP1 PUSH1 0x40 MSTORE POP DUP2 ADD SWAP1 PUSH2 0xA87 SWAP2 SWAP1 PUSH2 0x27DB JUMP JUMPDEST POP PUSH1 0x0 SWAP4 POP POP POP POP PUSH2 0xA9B JUMP JUMPDEST POP POP PUSH2 0x7FD JUMP JUMPDEST PUSH2 0xAA5 DUP2 DUP8 PUSH2 0x27A9 JUMP JUMPDEST SWAP4 POP PUSH1 0x0 DUP5 GT PUSH2 0xAE1 JUMPI PUSH1 0x40 MLOAD PUSH3 0x461BCD PUSH1 0xE5 SHL DUP2 MSTORE PUSH1 0x20 PUSH1 0x4 DUP3 ADD MSTORE PUSH1 0x7 PUSH1 0x24 DUP3 ADD MSTORE PUSH7 0x1B9BC81919585B PUSH1 0xCA SHL PUSH1 0x44 DUP3 ADD MSTORE PUSH1 0x64 ADD PUSH2 0x4C9 JUMP JUMPDEST PUSH2 0x2710 PUSH2 0xB11 PUSH1 0xFF PUSH32 0x0 AND DUP7 PUSH2 0x2821 JUMP JUMPDEST PUSH2 0xB1B SWAP2 SWAP1 PUSH2 0x2838 JUMP JUMPDEST SWAP2 POP DUP2 ISZERO PUSH2 0xBD8 JUMPI PUSH1 0x40 MLOAD PUSH4 0x23B872DD PUSH1 0xE0 SHL DUP2 MSTORE PUSH1 0x1 PUSH1 0x1 PUSH1 0xA0 SHL SUB PUSH32 0x0 AND SWAP1 PUSH4 0x23B872DD SWAP1 PUSH2 0xB93 SWAP1 CALLER SWAP1 PUSH32 0x0 SWAP1 DUP8 SWAP1 PUSH1 0x4 ADD PUSH2 0x27FD JUMP JUMPDEST PUSH1 0x20 PUSH1 0x40 MLOAD DUP1 DUP4 SUB DUP2 PUSH1 0x0 DUP8 GAS CALL ISZERO DUP1 ISZERO PUSH2 0xBB2 JUMPI RETURNDATASIZE PUSH1 0x0 DUP1 RETURNDATACOPY RETURNDATASIZE PUSH1 0x0 REVERT JUMPDEST POP POP POP POP PUSH1 0x40 MLOAD RETURNDATASIZE PUSH1 0x1F NOT PUSH1 0x1F DUP3 ADD AND DUP3 ADD DUP1 PUSH1 0x40 MSTORE POP DUP2 ADD SWAP1 PUSH2 0xBD6 SWAP2 SWAP1 PUSH2 0x27DB JUMP JUMPDEST POP JUMPDEST DUP1 ISZERO PUSH2 0xC71 JUMPI PUSH1 0x40 MLOAD PUSH4 0xA9059CBB PUSH1 0xE0 SHL DUP2 MSTORE PUSH1 0x1 PUSH1 0x1 PUSH1 0xA0 SHL SUB PUSH32 0x0 AND SWAP1 PUSH4 0xA9059CBB SWAP1 PUSH2 0xC2C SWAP1 CALLER SWAP1 DUP6 SWAP1 PUSH1 0x4 ADD PUSH2 0x27C2 JUMP JUMPDEST PUSH1 0x20 PUSH1 0x40 MLOAD DUP1 DUP4 SUB DUP2 PUSH1 0x0 DUP8 GAS CALL ISZERO DUP1 ISZERO PUSH2 0xC4B JUMPI RETURNDATASIZE PUSH1 0x0 DUP1 RETURNDATACOPY RETURNDATASIZE PUSH1 0x0 REVERT JUMPDEST POP POP POP POP PUSH1 0x40 MLOAD RETURNDATASIZE PUSH1 0x1F NOT PUSH1 0x1F DUP3 ADD AND DUP3 ADD DUP1 PUSH1 0x40 MSTORE POP DUP2 ADD SWAP1 PUSH2 0xC6F SWAP2 SWAP1 PUSH2 0x27DB JUMP JUMPDEST POP JUMPDEST DUP3 ISZERO PUSH2 0xD0A JUMPI PUSH1 0x40 MLOAD PUSH4 0xA9059CBB PUSH1 0xE0 SHL DUP2 MSTORE PUSH1 0x1 PUSH1 0x1 PUSH1 0xA0 SHL SUB PUSH32 0x0 AND SWAP1 PUSH4 0xA9059CBB SWAP1 PUSH2 0xCC5 SWAP1 CALLER SWAP1 DUP8 SWAP1 PUSH1 0x4 ADD PUSH2 0x27C2 JUMP JUMPDEST PUSH1 0x20 PUSH1 0x40 MLOAD DUP1 DUP4 SUB DUP2 PUSH1 0x0 DUP8 GAS CALL ISZERO DUP1 ISZERO PUSH2 0xCE4 JUMPI RETURNDATASIZE PUSH1 0x0 DUP1 RETURNDATACOPY RETURNDATASIZE PUSH1 0x0 REVERT JUMPDEST POP POP POP POP PUSH1 0x40 MLOAD RETURNDATASIZE PUSH1 0x1F NOT PUSH1 0x1F DUP3 ADD AND DUP3 ADD DUP1 PUSH1 0x40 MSTORE POP DUP2 ADD SWAP1 PUSH2 0xD08 SWAP2 SWAP1 PUSH2 0x27DB JUMP JUMPDEST POP JUMPDEST POP SWAP3 POP SWAP3 POP SWAP3 JUMP JUMPDEST PUSH6 0xFFFFFFFFFFFF DUP2 AND PUSH1 0x0 SWAP1 DUP2 MSTORE PUSH1 0x3 PUSH1 0x20 MSTORE PUSH1 0x40 DUP2 KECCAK256 DUP1 SLOAD PUSH1 0x1 PUSH1 0x60 SHL SWAP1 DIV PUSH1 0x1 PUSH1 0x1 PUSH1 0xA0 SHL SUB AND CALLER EQ PUSH2 0xD59 JUMPI PUSH1 0x40 MLOAD PUSH3 0x461BCD PUSH1 0xE5 SHL DUP2 MSTORE PUSH1 0x4 ADD PUSH2 0x4C9 SWAP1 PUSH2 0x271A JUMP JUMPDEST DUP1 SLOAD PUSH6 0xFFFFFFFFFFFF AND PUSH6 0xFFFFFFFFFFFE NOT ADD PUSH2 0xD88 JUMPI PUSH1 0x40 MLOAD PUSH3 0x461BCD PUSH1 0xE5 SHL DUP2 MSTORE PUSH1 0x4 ADD PUSH2 0x4C9 SWAP1 PUSH2 0x2751 JUMP JUMPDEST PUSH2 0xD93 DUP2 PUSH1 0x3 PUSH2 0x2563 JUMP JUMPDEST PUSH1 0x4 SLOAD PUSH6 0xFFFFFFFFFFFF DUP1 DUP6 AND SWAP2 AND SUB PUSH2 0xDCF JUMPI DUP1 SLOAD PUSH1 0x4 DUP1 SLOAD PUSH1 0x1 PUSH1 0x30 SHL SWAP1 SWAP3 DIV PUSH6 0xFFFFFFFFFFFF AND PUSH6 0xFFFFFFFFFFFF NOT SWAP1 SWAP3 AND SWAP2 SWAP1 SWAP2 OR SWAP1 SSTORE JUMPDEST DUP1 SLOAD PUSH6 0xFFFFFFFFFFFF NOT AND PUSH6 0xFFFFFFFFFFFF OR DUP2 SSTORE PUSH1 0x3 DUP2 ADD SLOAD PUSH1 0x1 DUP3 ADD SLOAD PUSH2 0xDF8 SWAP2 SWAP1 PUSH2 0x27A9 JUMP JUMPDEST SWAP2 POP DUP2 ISZERO PUSH2 0x70C JUMPI DUP1 SLOAD PUSH1 0x40 MLOAD PUSH4 0xA9059CBB PUSH1 0xE0 SHL DUP2 MSTORE PUSH1 0x1 PUSH1 0x1 PUSH1 0xA0 SHL SUB PUSH32 0x0 DUP2 AND SWAP3 PUSH4 0xA9059CBB SWAP3 PUSH2 0x6C7 SWAP3 PUSH1 0x1 PUSH1 0x60 SHL SWAP1 SWAP3 DIV SWAP1 SWAP2 AND SWAP1 DUP7 SWAP1 PUSH1 0x4 ADD PUSH2 0x27C2 JUMP JUMPDEST PUSH2 0xE63 PUSH2 0x25FB JUMP JUMPDEST POP PUSH6 0xFFFFFFFFFFFF SWAP1 DUP2 AND PUSH1 0x0 SWAP1 DUP2 MSTORE PUSH1 0x3 PUSH1 0x20 DUP2 DUP2 MSTORE PUSH1 0x40 SWAP3 DUP4 SWAP1 KECCAK256 DUP4 MLOAD PUSH1 0xC0 DUP2 ADD DUP6 MSTORE DUP2 SLOAD DUP1 DUP8 AND DUP3 MSTORE PUSH1 0x1 PUSH1 0x30 SHL DUP2 DIV SWAP1 SWAP7 AND SWAP3 DUP2 ADD SWAP3 SWAP1 SWAP3 MSTORE PUSH1 0x1 PUSH1 0x60 SHL SWAP1 SWAP5 DIV PUSH1 0x1 PUSH1 0x1 PUSH1 0xA0 SHL SUB AND SWAP3 DUP2 ADD SWAP3 SWAP1 SWAP3 MSTORE PUSH1 0x1 DUP4 ADD SLOAD PUSH1 0x60 DUP4 ADD MSTORE PUSH1 0x2 DUP4 ADD SLOAD PUSH1 0x80 DUP4 ADD MSTORE SWAP2 SWAP1 SWAP2 ADD SLOAD PUSH1 0xA0 DUP3 ADD MSTORE SWAP1 JUMP JUMPDEST PUSH1 0x0 DUP1 DUP5 GT PUSH2 0xF2A JUMPI PUSH1 0x40 MLOAD PUSH3 0x461BCD PUSH1 0xE5 SHL DUP2 MSTORE PUSH1 0x20 PUSH1 0x4 DUP3 ADD MSTORE PUSH1 0x1B PUSH1 0x24 DUP3 ADD MSTORE PUSH32 0x746F6B656E30496E20616D6F756E742063616E6E6F7420626520300000000000 PUSH1 0x44 DUP3 ADD MSTORE PUSH1 0x64 ADD PUSH2 0x4C9 JUMP JUMPDEST PUSH1 0x0 DUP4 GT PUSH2 0xF7A JUMPI PUSH1 0x40 MLOAD PUSH3 0x461BCD PUSH1 0xE5 SHL DUP2 MSTORE PUSH1 0x20 PUSH1 0x4 DUP3 ADD MSTORE PUSH1 0x1C PUSH1 0x24 DUP3 ADD MSTORE PUSH32 0x746F6B656E314F757420616D6F756E742063616E6E6F74206265203000000000 PUSH1 0x44 DUP3 ADD MSTORE PUSH1 0x64 ADD PUSH2 0x4C9 JUMP JUMPDEST PUSH1 0x40 MLOAD PUSH4 0x23B872DD PUSH1 0xE0 SHL DUP2 MSTORE PUSH1 0x1 PUSH1 0x1 PUSH1 0xA0 SHL SUB PUSH32 0x0 AND SWAP1 PUSH4 0x23B872DD SWAP1 PUSH2 0xFCA SWAP1 CALLER SWAP1 ADDRESS SWAP1 DUP10 SWAP1 PUSH1 0x4 ADD PUSH2 0x27FD JUMP JUMPDEST PUSH1 0x20 PUSH1 0x40 MLOAD DUP1 DUP4 SUB DUP2 PUSH1 0x0 DUP8 GAS CALL ISZERO DUP1 ISZERO PUSH2 0xFE9 JUMPI RETURNDATASIZE PUSH1 0x0 DUP1 RETURNDATACOPY RETURNDATASIZE PUSH1 0x0 REVERT JUMPDEST POP POP POP POP PUSH1 0x40 MLOAD RETURNDATASIZE PUSH1 0x1F NOT PUSH1 0x1F DUP3 ADD AND DUP3 ADD DUP1 PUSH1 0x40 MSTORE POP DUP2 ADD SWAP1 PUSH2 0x100D SWAP2 SWAP1 PUSH2 0x27DB JUMP JUMPDEST POP PUSH1 0x0 DUP1 SLOAD DUP2 SWAP1 PUSH2 0x1025 SWAP1 PUSH6 0xFFFFFFFFFFFF AND PUSH2 0x286D JUMP JUMPDEST DUP3 SLOAD PUSH2 0x100 SWAP3 SWAP1 SWAP3 EXP PUSH6 0xFFFFFFFFFFFF DUP2 DUP2 MUL NOT SWAP1 SWAP4 AND SWAP2 DUP4 AND MUL OR SWAP1 SWAP2 SSTORE PUSH1 0x4 SLOAD AND PUSH1 0x0 SUB PUSH2 0x1114 JUMPI POP PUSH1 0x40 DUP1 MLOAD PUSH1 0xC0 DUP2 ADD DUP3 MSTORE PUSH1 0x0 DUP1 DUP3 MSTORE PUSH1 0x20 DUP1 DUP4 ADD DUP3 DUP2 MSTORE CALLER DUP5 DUP7 ADD SWAP1 DUP2 MSTORE PUSH1 0x60 DUP6 ADD DUP10 DUP2 MSTORE PUSH1 0x80 DUP7 ADD DUP10 DUP2 MSTORE PUSH1 0xA0 DUP8 ADD DUP7 DUP2 MSTORE DUP7 SLOAD PUSH6 0xFFFFFFFFFFFF SWAP1 DUP2 AND DUP9 MSTORE PUSH1 0x3 SWAP7 DUP8 SWAP1 MSTORE SWAP9 DUP8 KECCAK256 SWAP8 MLOAD DUP9 SLOAD SWAP6 MLOAD SWAP5 MLOAD PUSH1 0x1 PUSH1 0x1 PUSH1 0xA0 SHL SUB AND PUSH1 0x1 PUSH1 0x60 SHL MUL PUSH1 0x1 PUSH1 0x1 PUSH1 0x60 SHL SUB SWAP6 DUP12 AND PUSH1 0x1 PUSH1 0x30 SHL MUL PUSH1 0x1 PUSH1 0x1 PUSH1 0x60 SHL SUB NOT SWAP1 SWAP8 AND SWAP2 DUP12 AND SWAP2 SWAP1 SWAP2 OR SWAP6 SWAP1 SWAP6 OR SWAP4 SWAP1 SWAP4 AND SWAP4 SWAP1 SWAP4 OR DUP7 SSTORE MLOAD PUSH1 0x1 DUP7 ADD SSTORE SWAP1 MLOAD PUSH1 0x2 DUP6 ADD SSTORE MLOAD SWAP3 ADD SWAP2 SWAP1 SWAP2 SSTORE SLOAD PUSH1 0x4 DUP1 SLOAD PUSH6 0xFFFFFFFFFFFF NOT AND SWAP2 SWAP1 SWAP3 AND SWAP1 DUP2 OR SWAP1 SWAP2 SSTORE PUSH2 0x16C3 JUMP JUMPDEST DUP2 PUSH6 0xFFFFFFFFFFFF AND PUSH1 0x0 SUB PUSH2 0x1282 JUMPI PUSH1 0x4 SLOAD PUSH6 0xFFFFFFFFFFFF AND PUSH1 0x0 SWAP1 DUP2 MSTORE PUSH1 0x3 PUSH1 0x20 MSTORE PUSH1 0x40 SWAP1 KECCAK256 PUSH1 0x1 DUP2 ADD SLOAD PUSH2 0x114D SWAP1 DUP6 SWAP1 PUSH2 0x2821 JUMP JUMPDEST DUP6 DUP3 PUSH1 0x2 ADD SLOAD PUSH2 0x115D SWAP2 SWAP1 PUSH2 0x2821 JUMP JUMPDEST GT PUSH2 0x11AA JUMPI PUSH1 0x40 MLOAD PUSH3 0x461BCD PUSH1 0xE5 SHL DUP2 MSTORE PUSH1 0x20 PUSH1 0x4 DUP3 ADD MSTORE PUSH1 0x1A PUSH1 0x24 DUP3 ADD MSTORE PUSH32 0x796F7572207072696365206D757374203C20746F704F72646572000000000000 PUSH1 0x44 DUP3 ADD MSTORE PUSH1 0x64 ADD PUSH2 0x4C9 JUMP JUMPDEST PUSH1 0x0 DUP1 SLOAD DUP3 SLOAD PUSH6 0xFFFFFFFFFFFF NOT SWAP1 DUP2 AND PUSH6 0xFFFFFFFFFFFF SWAP3 DUP4 AND OR SWAP1 SWAP4 SSTORE PUSH1 0x40 DUP1 MLOAD PUSH1 0xC0 DUP2 ADD DUP3 MSTORE DUP4 DUP2 MSTORE PUSH1 0x4 DUP1 SLOAD DUP5 AND PUSH1 0x20 DUP1 DUP5 ADD SWAP2 DUP3 MSTORE CALLER DUP5 DUP7 ADD SWAP1 DUP2 MSTORE PUSH1 0x60 DUP6 ADD DUP14 DUP2 MSTORE PUSH1 0x80 DUP7 ADD DUP14 DUP2 MSTORE PUSH1 0xA0 DUP8 ADD DUP11 DUP2 MSTORE DUP11 SLOAD DUP11 AND DUP12 MSTORE PUSH1 0x3 SWAP5 DUP6 SWAP1 MSTORE SWAP8 DUP11 KECCAK256 SWAP7 MLOAD DUP8 SLOAD SWAP6 MLOAD SWAP4 MLOAD PUSH1 0x1 PUSH1 0x1 PUSH1 0xA0 SHL SUB AND PUSH1 0x1 PUSH1 0x60 SHL MUL PUSH1 0x1 PUSH1 0x1 PUSH1 0x60 SHL SUB SWAP5 DUP12 AND PUSH1 0x1 PUSH1 0x30 SHL MUL PUSH1 0x1 PUSH1 0x1 PUSH1 0x60 SHL SUB NOT SWAP1 SWAP8 AND SWAP2 DUP12 AND SWAP2 SWAP1 SWAP2 OR SWAP6 SWAP1 SWAP6 OR SWAP3 SWAP1 SWAP3 AND SWAP4 SWAP1 SWAP4 OR DUP6 SSTORE SWAP2 MLOAD PUSH1 0x1 DUP6 ADD SSTORE SWAP1 MLOAD PUSH1 0x2 DUP5 ADD SSTORE SWAP3 MLOAD SWAP2 SWAP1 SWAP3 ADD SSTORE SWAP2 SLOAD DUP3 SLOAD SWAP1 SWAP4 AND SWAP3 AND SWAP2 DUP3 OR SWAP1 SSTORE SWAP1 POP PUSH2 0x16C3 JUMP JUMPDEST PUSH6 0xFFFFFFFFFFFF DUP3 AND PUSH1 0x0 SWAP1 DUP2 MSTORE PUSH1 0x3 PUSH1 0x20 MSTORE PUSH1 0x40 DUP2 KECCAK256 PUSH1 0x1 DUP2 ADD SLOAD SWAP1 SWAP2 SUB PUSH2 0x12E8 JUMPI PUSH1 0x40 MLOAD PUSH3 0x461BCD PUSH1 0xE5 SHL DUP2 MSTORE PUSH1 0x20 PUSH1 0x4 DUP3 ADD MSTORE PUSH1 0x18 PUSH1 0x24 DUP3 ADD MSTORE PUSH24 0x1899599BDC9953DC99195C881A5CC81B9BDD08195E1A5CDD PUSH1 0x42 SHL PUSH1 0x44 DUP3 ADD MSTORE PUSH1 0x64 ADD PUSH2 0x4C9 JUMP JUMPDEST DUP1 SLOAD PUSH6 0xFFFFFFFFFFFF AND PUSH6 0xFFFFFFFFFFFE NOT ADD PUSH2 0x1347 JUMPI PUSH1 0x40 MLOAD PUSH3 0x461BCD PUSH1 0xE5 SHL DUP2 MSTORE PUSH1 0x20 PUSH1 0x4 DUP3 ADD MSTORE PUSH1 0x1C PUSH1 0x24 DUP3 ADD MSTORE PUSH32 0x6265666F72654F726465722069732072656D6F76656428646F6E652900000000 PUSH1 0x44 DUP3 ADD MSTORE PUSH1 0x64 ADD PUSH2 0x4C9 JUMP JUMPDEST DUP4 DUP2 PUSH1 0x1 ADD SLOAD PUSH2 0x1357 SWAP2 SWAP1 PUSH2 0x2821 JUMP JUMPDEST DUP6 DUP3 PUSH1 0x2 ADD SLOAD PUSH2 0x1367 SWAP2 SWAP1 PUSH2 0x2821 JUMP JUMPDEST GT ISZERO PUSH2 0x13B5 JUMPI PUSH1 0x40 MLOAD PUSH3 0x461BCD PUSH1 0xE5 SHL DUP2 MSTORE PUSH1 0x20 PUSH1 0x4 DUP3 ADD MSTORE PUSH1 0x1E PUSH1 0x24 DUP3 ADD MSTORE PUSH32 0x796F7572207072696365206D757374203E3D206265666F72654F726465720000 PUSH1 0x44 DUP3 ADD MSTORE PUSH1 0x64 ADD PUSH2 0x4C9 JUMP JUMPDEST DUP1 SLOAD PUSH1 0x1 PUSH1 0x30 SHL SWAP1 DIV PUSH6 0xFFFFFFFFFFFF AND PUSH1 0x0 SUB PUSH2 0x149D JUMPI PUSH1 0x0 DUP1 SLOAD DUP3 SLOAD PUSH1 0x1 PUSH1 0x30 SHL PUSH6 0xFFFFFFFFFFFF SWAP3 DUP4 AND DUP2 MUL PUSH6 0xFFFFFFFFFFFF PUSH1 0x30 SHL NOT SWAP1 SWAP3 AND SWAP2 SWAP1 SWAP2 OR SWAP1 SWAP4 SSTORE PUSH1 0x40 DUP1 MLOAD PUSH1 0xC0 DUP2 ADD DUP3 MSTORE DUP7 DUP4 AND DUP2 MSTORE PUSH1 0x20 DUP1 DUP3 ADD DUP6 DUP2 MSTORE CALLER DUP4 DUP6 ADD SWAP1 DUP2 MSTORE PUSH1 0x60 DUP5 ADD DUP13 DUP2 MSTORE PUSH1 0x80 DUP6 ADD DUP13 DUP2 MSTORE PUSH1 0xA0 DUP7 ADD DUP10 DUP2 MSTORE DUP10 SLOAD DUP10 AND DUP11 MSTORE PUSH1 0x3 SWAP6 DUP7 SWAP1 MSTORE SWAP7 DUP10 KECCAK256 SWAP6 MLOAD DUP7 SLOAD SWAP5 MLOAD SWAP4 MLOAD PUSH1 0x1 PUSH1 0x1 PUSH1 0xA0 SHL SUB AND PUSH1 0x1 PUSH1 0x60 SHL MUL PUSH1 0x1 PUSH1 0x1 PUSH1 0x60 SHL SUB SWAP5 DUP11 AND SWAP1 SWAP12 MUL PUSH1 0x1 PUSH1 0x1 PUSH1 0x60 SHL SUB NOT SWAP1 SWAP6 AND SWAP1 DUP10 AND OR SWAP4 SWAP1 SWAP4 OR SWAP2 SWAP1 SWAP2 AND SWAP8 SWAP1 SWAP8 OR DUP4 SSTORE SWAP6 MLOAD PUSH1 0x1 DUP4 ADD SSTORE SWAP5 MLOAD PUSH1 0x2 DUP3 ADD SSTORE SWAP1 MLOAD SWAP4 ADD SWAP3 SWAP1 SWAP3 SSTORE SLOAD AND SWAP1 POP PUSH2 0x16C3 JUMP JUMPDEST DUP1 SLOAD PUSH1 0x1 PUSH1 0x30 SHL SWAP1 DIV PUSH6 0xFFFFFFFFFFFF AND PUSH1 0x0 SWAP1 DUP2 MSTORE PUSH1 0x3 PUSH1 0x20 MSTORE PUSH1 0x40 DUP2 KECCAK256 PUSH1 0x1 DUP2 ADD SLOAD SWAP1 SWAP2 SUB PUSH2 0x150A JUMPI PUSH1 0x40 MLOAD PUSH3 0x461BCD PUSH1 0xE5 SHL DUP2 MSTORE PUSH1 0x20 PUSH1 0x4 DUP3 ADD MSTORE PUSH1 0x17 PUSH1 0x24 DUP3 ADD MSTORE PUSH23 0x18599D195C93DC99195C881A5CC81B9BDD08195E1A5CDD PUSH1 0x4A SHL PUSH1 0x44 DUP3 ADD MSTORE PUSH1 0x64 ADD PUSH2 0x4C9 JUMP JUMPDEST DUP1 SLOAD PUSH6 0xFFFFFFFFFFFF AND PUSH6 0xFFFFFFFFFFFE NOT ADD PUSH2 0x1569 JUMPI PUSH1 0x40 MLOAD PUSH3 0x461BCD PUSH1 0xE5 SHL DUP2 MSTORE PUSH1 0x20 PUSH1 0x4 DUP3 ADD MSTORE PUSH1 0x1B PUSH1 0x24 DUP3 ADD MSTORE PUSH32 0x61667465724F726465722069732072656D6F76656428646F6E65290000000000 PUSH1 0x44 DUP3 ADD MSTORE PUSH1 0x64 ADD PUSH2 0x4C9 JUMP JUMPDEST DUP5 DUP2 PUSH1 0x1 ADD SLOAD PUSH2 0x1579 SWAP2 SWAP1 PUSH2 0x2821 JUMP JUMPDEST DUP7 DUP3 PUSH1 0x2 ADD SLOAD PUSH2 0x1589 SWAP2 SWAP1 PUSH2 0x2821 JUMP JUMPDEST GT PUSH2 0x15D6 JUMPI PUSH1 0x40 MLOAD PUSH3 0x461BCD PUSH1 0xE5 SHL DUP2 MSTORE PUSH1 0x20 PUSH1 0x4 DUP3 ADD MSTORE PUSH1 0x1C PUSH1 0x24 DUP3 ADD MSTORE PUSH32 0x796F7572207072696365206D757374203C2061667465724F7264657200000000 PUSH1 0x44 DUP3 ADD MSTORE PUSH1 0x64 ADD PUSH2 0x4C9 JUMP JUMPDEST PUSH1 0x40 DUP1 MLOAD PUSH1 0xC0 DUP2 ADD DUP3 MSTORE PUSH6 0xFFFFFFFFFFFF DUP1 DUP8 AND DUP3 MSTORE DUP5 SLOAD PUSH1 0x1 PUSH1 0x30 SHL SWAP1 DUP2 SWAP1 DIV DUP3 AND PUSH1 0x20 DUP1 DUP6 ADD SWAP2 DUP3 MSTORE CALLER DUP6 DUP8 ADD SWAP1 DUP2 MSTORE PUSH1 0x60 DUP7 ADD DUP14 DUP2 MSTORE PUSH1 0x80 DUP8 ADD DUP14 DUP2 MSTORE PUSH1 0x0 PUSH1 0xA0 DUP10 ADD DUP2 DUP2 MSTORE DUP2 SLOAD DUP10 AND DUP3 MSTORE PUSH1 0x3 SWAP6 DUP7 SWAP1 MSTORE SWAP10 DUP2 KECCAK256 SWAP9 MLOAD DUP10 SLOAD SWAP7 MLOAD SWAP5 MLOAD PUSH1 0x1 PUSH1 0x1 PUSH1 0xA0 SHL SUB AND PUSH1 0x1 PUSH1 0x60 SHL MUL PUSH1 0x1 PUSH1 0x1 PUSH1 0x60 SHL SUB SWAP6 DUP11 AND DUP10 MUL PUSH1 0x1 PUSH1 0x1 PUSH1 0x60 SHL SUB NOT SWAP1 SWAP9 AND SWAP2 DUP11 AND SWAP2 SWAP1 SWAP2 OR SWAP7 SWAP1 SWAP7 OR SWAP4 SWAP1 SWAP4 AND SWAP5 SWAP1 SWAP5 OR DUP8 SSTORE MLOAD PUSH1 0x1 DUP8 ADD SSTORE SWAP2 MLOAD PUSH1 0x2 DUP7 ADD SSTORE SWAP5 MLOAD SWAP4 SWAP1 SWAP5 ADD SWAP3 SWAP1 SWAP3 SSTORE DUP3 SLOAD DUP6 SLOAD SWAP1 DUP3 AND SWAP1 SWAP3 MUL PUSH6 0xFFFFFFFFFFFF PUSH1 0x30 SHL NOT SWAP3 SWAP1 SWAP3 AND SWAP2 SWAP1 SWAP2 OR SWAP1 SWAP4 SSTORE DUP1 SLOAD DUP3 SLOAD PUSH6 0xFFFFFFFFFFFF NOT AND SWAP1 DUP5 AND OR SWAP1 SWAP2 SSTORE SLOAD AND SWAP1 POP JUMPDEST SWAP4 SWAP3 POP POP POP JUMP JUMPDEST PUSH6 0xFFFFFFFFFFFF DUP3 AND PUSH1 0x0 SWAP1 DUP2 MSTORE PUSH1 0x3 PUSH1 0x20 MSTORE PUSH1 0x40 SWAP1 KECCAK256 DUP1 SLOAD PUSH1 0x1 PUSH1 0x60 SHL SWAP1 DIV PUSH1 0x1 PUSH1 0x1 PUSH1 0xA0 SHL SUB AND CALLER EQ PUSH2 0x1711 JUMPI PUSH1 0x40 MLOAD PUSH3 0x461BCD PUSH1 0xE5 SHL DUP2 MSTORE PUSH1 0x4 ADD PUSH2 0x4C9 SWAP1 PUSH2 0x271A JUMP JUMPDEST DUP1 SLOAD PUSH6 0xFFFFFFFFFFFF AND PUSH6 0xFFFFFFFFFFFE NOT ADD PUSH2 0x557 JUMPI PUSH1 0x40 MLOAD PUSH3 0x461BCD PUSH1 0xE5 SHL DUP2 MSTORE PUSH1 0x4 ADD PUSH2 0x4C9 SWAP1 PUSH2 0x2751 JUMP JUMPDEST PUSH1 0x4 SLOAD PUSH1 0x0 SWAP1 DUP2 SWAP1 DUP2 SWAP1 PUSH6 0xFFFFFFFFFFFF AND DUP2 SUB PUSH2 0x1796 JUMPI PUSH1 0x40 MLOAD PUSH3 0x461BCD PUSH1 0xE5 SHL DUP2 MSTORE PUSH1 0x20 PUSH1 0x4 DUP3 ADD MSTORE PUSH1 0x13 PUSH1 0x24 DUP3 ADD MSTORE PUSH19 0x73656C6C4F726465727320697320656D707479 PUSH1 0x68 SHL PUSH1 0x44 DUP3 ADD MSTORE PUSH1 0x64 ADD PUSH2 0x4C9 JUMP JUMPDEST PUSH1 0x40 MLOAD PUSH4 0x23B872DD PUSH1 0xE0 SHL DUP2 MSTORE PUSH1 0x1 PUSH1 0x1 PUSH1 0xA0 SHL SUB PUSH32 0x0 AND SWAP1 PUSH4 0x23B872DD SWAP1 PUSH2 0x17E6 SWAP1 CALLER SWAP1 ADDRESS SWAP1 DUP11 SWAP1 PUSH1 0x4 ADD PUSH2 0x27FD JUMP JUMPDEST PUSH1 0x20 PUSH1 0x40 MLOAD DUP1 DUP4 SUB DUP2 PUSH1 0x0 DUP8 GAS CALL ISZERO DUP1 ISZERO PUSH2 0x1805 JUMPI RETURNDATASIZE PUSH1 0x0 DUP1 RETURNDATACOPY RETURNDATASIZE PUSH1 0x0 REVERT JUMPDEST POP POP POP POP PUSH1 0x40 MLOAD RETURNDATASIZE PUSH1 0x1F NOT PUSH1 0x1F DUP3 ADD AND DUP3 ADD DUP1 PUSH1 0x40 MSTORE POP DUP2 ADD SWAP1 PUSH2 0x1829 SWAP2 SWAP1 PUSH2 0x27DB JUMP JUMPDEST POP DUP5 JUMPDEST PUSH1 0x4 SLOAD PUSH6 0xFFFFFFFFFFFF AND ISZERO PUSH2 0x1ACA JUMPI PUSH1 0x4 SLOAD PUSH6 0xFFFFFFFFFFFF AND PUSH1 0x0 SWAP1 DUP2 MSTORE PUSH1 0x3 PUSH1 0x20 MSTORE PUSH1 0x40 SWAP1 KECCAK256 PUSH1 0x2 DUP2 ADD SLOAD PUSH2 0x1864 SWAP1 DUP8 PUSH2 0x2821 JUMP JUMPDEST PUSH1 0x1 DUP3 ADD SLOAD PUSH2 0x1873 SWAP1 DUP10 PUSH2 0x2821 JUMP JUMPDEST LT ISZERO PUSH2 0x187F JUMPI POP PUSH2 0x1ACA JUMP JUMPDEST PUSH1 0x0 DUP2 PUSH1 0x1 ADD SLOAD DUP3 PUSH1 0x2 ADD SLOAD DUP4 PUSH1 0x3 ADD SLOAD PUSH2 0x189A SWAP2 SWAP1 PUSH2 0x2821 JUMP JUMPDEST PUSH2 0x18A4 SWAP2 SWAP1 PUSH2 0x2838 JUMP JUMPDEST DUP3 PUSH1 0x2 ADD SLOAD PUSH2 0x18B3 SWAP2 SWAP1 PUSH2 0x27A9 JUMP JUMPDEST SWAP1 POP DUP1 DUP4 LT PUSH2 0x19D0 JUMPI PUSH2 0x18C6 DUP2 DUP5 PUSH2 0x27A9 JUMP JUMPDEST SWAP3 POP DUP2 PUSH1 0x3 ADD SLOAD DUP3 PUSH1 0x1 ADD SLOAD PUSH2 0x18DC SWAP2 SWAP1 PUSH2 0x27A9 JUMP JUMPDEST PUSH2 0x18E6 SWAP1 DUP7 PUSH2 0x285A JUMP JUMPDEST SWAP5 POP PUSH2 0x18F3 DUP3 PUSH1 0x3 PUSH2 0x2563 JUMP JUMPDEST PUSH1 0x1 DUP3 ADD SLOAD PUSH1 0x3 DUP4 ADD SSTORE DUP2 SLOAD PUSH1 0x40 MLOAD PUSH4 0xA9059CBB PUSH1 0xE0 SHL DUP2 MSTORE PUSH1 0x1 PUSH1 0x1 PUSH1 0xA0 SHL SUB PUSH32 0x0 DUP2 AND SWAP3 PUSH4 0xA9059CBB SWAP3 PUSH2 0x1958 SWAP3 PUSH1 0x1 PUSH1 0x60 SHL SWAP1 SWAP3 DIV SWAP1 SWAP2 AND SWAP1 DUP6 SWAP1 PUSH1 0x4 ADD PUSH2 0x27C2 JUMP JUMPDEST PUSH1 0x20 PUSH1 0x40 MLOAD DUP1 DUP4 SUB DUP2 PUSH1 0x0 DUP8 GAS CALL ISZERO DUP1 ISZERO PUSH2 0x1977 JUMPI RETURNDATASIZE PUSH1 0x0 DUP1 RETURNDATACOPY RETURNDATASIZE PUSH1 0x0 REVERT JUMPDEST POP POP POP POP PUSH1 0x40 MLOAD RETURNDATASIZE PUSH1 0x1F NOT PUSH1 0x1F DUP3 ADD AND DUP3 ADD DUP1 PUSH1 0x40 MSTORE POP DUP2 ADD SWAP1 PUSH2 0x199B SWAP2 SWAP1 PUSH2 0x27DB JUMP JUMPDEST POP DUP2 SLOAD PUSH6 0xFFFFFFFFFFFF NOT SWAP1 DUP2 AND PUSH6 0xFFFFFFFFFFFF SWAP1 DUP2 OR DUP1 DUP6 SSTORE PUSH1 0x4 DUP1 SLOAD SWAP1 SWAP4 AND PUSH1 0x1 PUSH1 0x30 SHL SWAP1 SWAP2 DIV SWAP1 SWAP2 AND OR SWAP1 SSTORE PUSH2 0x1AC3 JUMP JUMPDEST PUSH1 0x0 DUP3 PUSH1 0x2 ADD SLOAD DUP4 PUSH1 0x1 ADD SLOAD DUP6 PUSH2 0x19E7 SWAP2 SWAP1 PUSH2 0x2821 JUMP JUMPDEST PUSH2 0x19F1 SWAP2 SWAP1 PUSH2 0x2838 JUMP JUMPDEST SWAP1 POP PUSH2 0x19FD DUP2 DUP8 PUSH2 0x285A JUMP JUMPDEST SWAP6 POP DUP1 DUP4 PUSH1 0x3 ADD PUSH1 0x0 DUP3 DUP3 SLOAD PUSH2 0x1A13 SWAP2 SWAP1 PUSH2 0x285A JUMP JUMPDEST SWAP1 SWAP2 SSTORE POP POP DUP3 SLOAD PUSH1 0x40 MLOAD PUSH4 0xA9059CBB PUSH1 0xE0 SHL DUP2 MSTORE PUSH1 0x1 PUSH1 0x1 PUSH1 0xA0 SHL SUB PUSH32 0x0 DUP2 AND SWAP3 PUSH4 0xA9059CBB SWAP3 PUSH2 0x1A73 SWAP3 PUSH1 0x1 PUSH1 0x60 SHL SWAP1 SWAP3 DIV SWAP1 SWAP2 AND SWAP1 DUP9 SWAP1 PUSH1 0x4 ADD PUSH2 0x27C2 JUMP JUMPDEST PUSH1 0x20 PUSH1 0x40 MLOAD DUP1 DUP4 SUB DUP2 PUSH1 0x0 DUP8 GAS CALL ISZERO DUP1 ISZERO PUSH2 0x1A92 JUMPI RETURNDATASIZE PUSH1 0x0 DUP1 RETURNDATACOPY RETURNDATASIZE PUSH1 0x0 REVERT JUMPDEST POP POP POP POP PUSH1 0x40 MLOAD RETURNDATASIZE PUSH1 0x1F NOT PUSH1 0x1F DUP3 ADD AND DUP3 ADD DUP1 PUSH1 0x40 MSTORE POP DUP2 ADD SWAP1 PUSH2 0x1AB6 SWAP2 SWAP1 PUSH2 0x27DB JUMP JUMPDEST POP PUSH1 0x0 SWAP4 POP POP POP POP PUSH2 0x1ACA JUMP JUMPDEST POP POP PUSH2 0x182C JUMP JUMPDEST PUSH2 0x1AD4 DUP2 DUP8 PUSH2 0x27A9 JUMP JUMPDEST SWAP4 POP PUSH1 0x0 DUP5 GT PUSH2 0x1B10 JUMPI PUSH1 0x40 MLOAD PUSH3 0x461BCD PUSH1 0xE5 SHL DUP2 MSTORE PUSH1 0x20 PUSH1 0x4 DUP3 ADD MSTORE PUSH1 0x7 PUSH1 0x24 DUP3 ADD MSTORE PUSH7 0x1B9BC81919585B PUSH1 0xCA SHL PUSH1 0x44 DUP3 ADD MSTORE PUSH1 0x64 ADD PUSH2 0x4C9 JUMP JUMPDEST PUSH2 0x2710 PUSH2 0x1B40 PUSH1 0xFF PUSH32 0x0 AND DUP7 PUSH2 0x2821 JUMP JUMPDEST PUSH2 0x1B4A SWAP2 SWAP1 PUSH2 0x2838 JUMP JUMPDEST SWAP2 POP DUP2 ISZERO PUSH2 0x1C07 JUMPI PUSH1 0x40 MLOAD PUSH4 0x23B872DD PUSH1 0xE0 SHL DUP2 MSTORE PUSH1 0x1 PUSH1 0x1 PUSH1 0xA0 SHL SUB PUSH32 0x0 AND SWAP1 PUSH4 0x23B872DD SWAP1 PUSH2 0x1BC2 SWAP1 CALLER SWAP1 PUSH32 0x0 SWAP1 DUP8 SWAP1 PUSH1 0x4 ADD PUSH2 0x27FD JUMP JUMPDEST PUSH1 0x20 PUSH1 0x40 MLOAD DUP1 DUP4 SUB DUP2 PUSH1 0x0 DUP8 GAS CALL ISZERO DUP1 ISZERO PUSH2 0x1BE1 JUMPI RETURNDATASIZE PUSH1 0x0 DUP1 RETURNDATACOPY RETURNDATASIZE PUSH1 0x0 REVERT JUMPDEST POP POP POP POP PUSH1 0x40 MLOAD RETURNDATASIZE PUSH1 0x1F NOT PUSH1 0x1F DUP3 ADD AND DUP3 ADD DUP1 PUSH1 0x40 MSTORE POP DUP2 ADD SWAP1 PUSH2 0x1C05 SWAP2 SWAP1 PUSH2 0x27DB JUMP JUMPDEST POP JUMPDEST DUP1 ISZERO PUSH2 0x1CA0 JUMPI PUSH1 0x40 MLOAD PUSH4 0xA9059CBB PUSH1 0xE0 SHL DUP2 MSTORE PUSH1 0x1 PUSH1 0x1 PUSH1 0xA0 SHL SUB PUSH32 0x0 AND SWAP1 PUSH4 0xA9059CBB SWAP1 PUSH2 0x1C5B SWAP1 CALLER SWAP1 DUP6 SWAP1 PUSH1 0x4 ADD PUSH2 0x27C2 JUMP JUMPDEST PUSH1 0x20 PUSH1 0x40 MLOAD DUP1 DUP4 SUB DUP2 PUSH1 0x0 DUP8 GAS CALL ISZERO DUP1 ISZERO PUSH2 0x1C7A JUMPI RETURNDATASIZE PUSH1 0x0 DUP1 RETURNDATACOPY RETURNDATASIZE PUSH1 0x0 REVERT JUMPDEST POP POP POP POP PUSH1 0x40 MLOAD RETURNDATASIZE PUSH1 0x1F NOT PUSH1 0x1F DUP3 ADD AND DUP3 ADD DUP1 PUSH1 0x40 MSTORE POP DUP2 ADD SWAP1 PUSH2 0x1C9E SWAP2 SWAP1 PUSH2 0x27DB JUMP JUMPDEST POP JUMPDEST DUP3 ISZERO PUSH2 0xD0A JUMPI PUSH1 0x40 MLOAD PUSH4 0xA9059CBB PUSH1 0xE0 SHL DUP2 MSTORE PUSH1 0x1 PUSH1 0x1 PUSH1 0xA0 SHL SUB PUSH32 0x0 AND SWAP1 PUSH4 0xA9059CBB SWAP1 PUSH2 0xCC5 SWAP1 CALLER SWAP1 DUP8 SWAP1 PUSH1 0x4 ADD PUSH2 0x27C2 JUMP JUMPDEST PUSH1 0x0 DUP1 DUP5 GT PUSH2 0x1D45 JUMPI PUSH1 0x40 MLOAD PUSH3 0x461BCD PUSH1 0xE5 SHL DUP2 MSTORE PUSH1 0x20 PUSH1 0x4 DUP3 ADD MSTORE PUSH1 0x1B PUSH1 0x24 DUP3 ADD MSTORE PUSH32 0x746F6B656E31496E20616D6F756E742063616E6E6F7420626520300000000000 PUSH1 0x44 DUP3 ADD MSTORE PUSH1 0x64 ADD PUSH2 0x4C9 JUMP JUMPDEST PUSH1 0x0 DUP4 GT PUSH2 0x1D95 JUMPI PUSH1 0x40 MLOAD PUSH3 0x461BCD PUSH1 0xE5 SHL DUP2 MSTORE PUSH1 0x20 PUSH1 0x4 DUP3 ADD MSTORE PUSH1 0x1C PUSH1 0x24 DUP3 ADD MSTORE PUSH32 0x746F6B656E304F757420616D6F756E742063616E6E6F74206265203000000000 PUSH1 0x44 DUP3 ADD MSTORE PUSH1 0x64 ADD PUSH2 0x4C9 JUMP JUMPDEST PUSH1 0x40 MLOAD PUSH4 0x23B872DD PUSH1 0xE0 SHL DUP2 MSTORE PUSH1 0x1 PUSH1 0x1 PUSH1 0xA0 SHL SUB PUSH32 0x0 AND SWAP1 PUSH4 0x23B872DD SWAP1 PUSH2 0x1DE5 SWAP1 CALLER SWAP1 ADDRESS SWAP1 DUP10 SWAP1 PUSH1 0x4 ADD PUSH2 0x27FD JUMP JUMPDEST PUSH1 0x20 PUSH1 0x40 MLOAD DUP1 DUP4 SUB DUP2 PUSH1 0x0 DUP8 GAS CALL ISZERO DUP1 ISZERO PUSH2 0x1E04 JUMPI RETURNDATASIZE PUSH1 0x0 DUP1 RETURNDATACOPY RETURNDATASIZE PUSH1 0x0 REVERT JUMPDEST POP POP POP POP PUSH1 0x40 MLOAD RETURNDATASIZE PUSH1 0x1F NOT PUSH1 0x1F DUP3 ADD AND DUP3 ADD DUP1 PUSH1 0x40 MSTORE POP DUP2 ADD SWAP1 PUSH2 0x1E28 SWAP2 SWAP1 PUSH2 0x27DB JUMP JUMPDEST POP PUSH1 0x0 DUP1 SLOAD DUP2 SWAP1 PUSH2 0x1E40 SWAP1 PUSH6 0xFFFFFFFFFFFF AND PUSH2 0x286D JUMP JUMPDEST DUP3 SLOAD PUSH2 0x100 SWAP3 SWAP1 SWAP3 EXP PUSH6 0xFFFFFFFFFFFF DUP2 DUP2 MUL NOT SWAP1 SWAP4 AND SWAP2 DUP4 AND MUL OR SWAP1 SWAP2 SSTORE PUSH1 0x2 SLOAD AND PUSH1 0x0 SUB PUSH2 0x1F33 JUMPI POP PUSH1 0x40 DUP1 MLOAD PUSH1 0xC0 DUP2 ADD DUP3 MSTORE PUSH1 0x0 DUP1 DUP3 MSTORE PUSH1 0x20 DUP1 DUP4 ADD DUP3 DUP2 MSTORE CALLER DUP5 DUP7 ADD SWAP1 DUP2 MSTORE PUSH1 0x60 DUP6 ADD DUP10 DUP2 MSTORE PUSH1 0x80 DUP7 ADD DUP10 DUP2 MSTORE PUSH1 0xA0 DUP8 ADD DUP7 DUP2 MSTORE DUP7 SLOAD PUSH6 0xFFFFFFFFFFFF SWAP1 DUP2 AND DUP9 MSTORE PUSH1 0x1 SWAP7 DUP8 SWAP1 MSTORE SWAP9 DUP8 KECCAK256 SWAP8 MLOAD DUP9 SLOAD SWAP6 MLOAD SWAP5 MLOAD PUSH1 0x1 PUSH1 0x1 PUSH1 0xA0 SHL SUB AND PUSH1 0x1 PUSH1 0x60 SHL MUL PUSH1 0x1 PUSH1 0x1 PUSH1 0x60 SHL SUB SWAP6 DUP12 AND PUSH1 0x1 PUSH1 0x30 SHL MUL PUSH1 0x1 PUSH1 0x1 PUSH1 0x60 SHL SUB NOT SWAP1 SWAP8 AND SWAP2 DUP12 AND SWAP2 SWAP1 SWAP2 OR SWAP6 SWAP1 SWAP6 OR SWAP4 SWAP1 SWAP4 AND SWAP4 SWAP1 SWAP4 OR DUP7 SSTORE MLOAD SWAP3 DUP6 ADD SWAP3 SWAP1 SWAP3 SSTORE MLOAD PUSH1 0x2 DUP1 DUP6 ADD SWAP2 SWAP1 SWAP2 SSTORE SWAP1 MLOAD PUSH1 0x3 SWAP1 SWAP4 ADD SWAP3 SWAP1 SWAP3 SSTORE SLOAD DUP2 SLOAD PUSH6 0xFFFFFFFFFFFF NOT AND SWAP3 AND SWAP2 DUP3 OR SWAP1 SSTORE PUSH2 0x16C3 JUMP JUMPDEST DUP2 PUSH6 0xFFFFFFFFFFFF AND PUSH1 0x0 SUB PUSH2 0x20A1 JUMPI PUSH1 0x2 SLOAD PUSH6 0xFFFFFFFFFFFF AND PUSH1 0x0 SWAP1 DUP2 MSTORE PUSH1 0x1 PUSH1 0x20 DUP2 SWAP1 MSTORE PUSH1 0x40 SWAP1 SWAP2 KECCAK256 SWAP1 DUP2 ADD SLOAD PUSH2 0x1F6E SWAP1 DUP6 SWAP1 PUSH2 0x2821 JUMP JUMPDEST DUP6 DUP3 PUSH1 0x2 ADD SLOAD PUSH2 0x1F7E SWAP2 SWAP1 PUSH2 0x2821 JUMP JUMPDEST GT PUSH2 0x1FCB JUMPI PUSH1 0x40 MLOAD PUSH3 0x461BCD PUSH1 0xE5 SHL DUP2 MSTORE PUSH1 0x20 PUSH1 0x4 DUP3 ADD MSTORE PUSH1 0x1A PUSH1 0x24 DUP3 ADD MSTORE PUSH32 0x796F7572207072696365206D757374203E20746F704F72646572000000000000 PUSH1 0x44 DUP3 ADD MSTORE PUSH1 0x64 ADD PUSH2 0x4C9 JUMP JUMPDEST PUSH1 0x0 DUP1 SLOAD DUP3 SLOAD PUSH6 0xFFFFFFFFFFFF NOT SWAP1 DUP2 AND PUSH6 0xFFFFFFFFFFFF SWAP3 DUP4 AND OR SWAP1 SWAP4 SSTORE PUSH1 0x40 DUP1 MLOAD PUSH1 0xC0 DUP2 ADD DUP3 MSTORE DUP4 DUP2 MSTORE PUSH1 0x2 DUP1 SLOAD DUP5 AND PUSH1 0x20 DUP1 DUP5 ADD SWAP2 DUP3 MSTORE CALLER DUP5 DUP7 ADD SWAP1 DUP2 MSTORE PUSH1 0x60 DUP6 ADD DUP14 DUP2 MSTORE PUSH1 0x80 DUP7 ADD DUP14 DUP2 MSTORE PUSH1 0xA0 DUP8 ADD DUP11 DUP2 MSTORE DUP11 SLOAD DUP11 AND DUP12 MSTORE PUSH1 0x1 SWAP5 DUP6 SWAP1 MSTORE SWAP8 DUP11 KECCAK256 SWAP7 MLOAD DUP8 SLOAD SWAP6 MLOAD SWAP4 MLOAD PUSH1 0x1 PUSH1 0x1 PUSH1 0xA0 SHL SUB AND PUSH1 0x1 PUSH1 0x60 SHL MUL PUSH1 0x1 PUSH1 0x1 PUSH1 0x60 SHL SUB SWAP5 DUP12 AND PUSH1 0x1 PUSH1 0x30 SHL MUL PUSH1 0x1 PUSH1 0x1 PUSH1 0x60 SHL SUB NOT SWAP1 SWAP8 AND SWAP2 DUP12 AND SWAP2 SWAP1 SWAP2 OR SWAP6 SWAP1 SWAP6 OR SWAP3 SWAP1 SWAP3 AND SWAP4 SWAP1 SWAP4 OR DUP6 SSTORE SWAP2 MLOAD SWAP1 DUP5 ADD SSTORE MLOAD DUP3 DUP3 ADD SSTORE SWAP2 MLOAD PUSH1 0x3 SWAP1 SWAP2 ADD SSTORE SWAP2 SLOAD DUP3 SLOAD SWAP1 SWAP4 AND SWAP3 AND SWAP2 DUP3 OR SWAP1 SSTORE SWAP1 POP PUSH2 0x16C3 JUMP JUMPDEST PUSH6 0xFFFFFFFFFFFF DUP3 AND PUSH1 0x0 SWAP1 DUP2 MSTORE PUSH1 0x1 PUSH1 0x20 DUP2 SWAP1 MSTORE PUSH1 0x40 DUP3 KECCAK256 SWAP1 DUP2 ADD SLOAD SWAP1 SWAP2 SUB PUSH2 0x2108 JUMPI PUSH1 0x40 MLOAD PUSH3 0x461BCD PUSH1 0xE5 SHL DUP2 MSTORE PUSH1 0x20 PUSH1 0x4 DUP3 ADD MSTORE PUSH1 0x18 PUSH1 0x24 DUP3 ADD MSTORE PUSH24 0x1899599BDC9953DC99195C881A5CC81B9BDD08195E1A5CDD PUSH1 0x42 SHL PUSH1 0x44 DUP3 ADD MSTORE PUSH1 0x64 ADD PUSH2 0x4C9 JUMP JUMPDEST DUP1 SLOAD PUSH6 0xFFFFFFFFFFFF AND PUSH6 0xFFFFFFFFFFFE NOT ADD PUSH2 0x2167 JUMPI PUSH1 0x40 MLOAD PUSH3 0x461BCD PUSH1 0xE5 SHL DUP2 MSTORE PUSH1 0x20 PUSH1 0x4 DUP3 ADD MSTORE PUSH1 0x1C PUSH1 0x24 DUP3 ADD MSTORE PUSH32 0x6265666F72654F726465722069732072656D6F76656428646F6E652900000000 PUSH1 0x44 DUP3 ADD MSTORE PUSH1 0x64 ADD PUSH2 0x4C9 JUMP JUMPDEST DUP4 DUP2 PUSH1 0x1 ADD SLOAD PUSH2 0x2177 SWAP2 SWAP1 PUSH2 0x2821 JUMP JUMPDEST DUP6 DUP3 PUSH1 0x2 ADD SLOAD PUSH2 0x2187 SWAP2 SWAP1 PUSH2 0x2821 JUMP JUMPDEST GT ISZERO PUSH2 0x21D5 JUMPI PUSH1 0x40 MLOAD PUSH3 0x461BCD PUSH1 0xE5 SHL DUP2 MSTORE PUSH1 0x20 PUSH1 0x4 DUP3 ADD MSTORE PUSH1 0x1E PUSH1 0x24 DUP3 ADD MSTORE PUSH32 0x796F7572207072696365206D757374203C3D206265666F72654F726465720000 PUSH1 0x44 DUP3 ADD MSTORE PUSH1 0x64 ADD PUSH2 0x4C9 JUMP JUMPDEST DUP1 SLOAD PUSH1 0x1 PUSH1 0x30 SHL SWAP1 DIV PUSH6 0xFFFFFFFFFFFF AND PUSH1 0x0 SUB PUSH2 0x22BE JUMPI PUSH1 0x0 DUP1 SLOAD DUP3 SLOAD PUSH1 0x1 PUSH1 0x30 SHL PUSH6 0xFFFFFFFFFFFF SWAP3 DUP4 AND DUP2 MUL PUSH6 0xFFFFFFFFFFFF PUSH1 0x30 SHL NOT SWAP1 SWAP3 AND SWAP2 SWAP1 SWAP2 OR SWAP1 SWAP4 SSTORE PUSH1 0x40 DUP1 MLOAD PUSH1 0xC0 DUP2 ADD DUP3 MSTORE DUP7 DUP4 AND DUP2 MSTORE PUSH1 0x20 DUP1 DUP3 ADD DUP6 DUP2 MSTORE CALLER DUP4 DUP6 ADD SWAP1 DUP2 MSTORE PUSH1 0x60 DUP5 ADD DUP13 DUP2 MSTORE PUSH1 0x80 DUP6 ADD DUP13 DUP2 MSTORE PUSH1 0xA0 DUP7 ADD DUP10 DUP2 MSTORE DUP10 SLOAD DUP10 AND DUP11 MSTORE PUSH1 0x1 SWAP6 DUP7 SWAP1 MSTORE SWAP7 DUP10 KECCAK256 SWAP6 MLOAD DUP7 SLOAD SWAP5 MLOAD SWAP4 MLOAD PUSH1 0x1 PUSH1 0x1 PUSH1 0xA0 SHL SUB AND PUSH1 0x1 PUSH1 0x60 SHL MUL PUSH1 0x1 PUSH1 0x1 PUSH1 0x60 SHL SUB SWAP5 DUP11 AND SWAP1 SWAP12 MUL PUSH1 0x1 PUSH1 0x1 PUSH1 0x60 SHL SUB NOT SWAP1 SWAP6 AND SWAP1 DUP10 AND OR SWAP4 SWAP1 SWAP4 OR SWAP2 SWAP1 SWAP2 AND SWAP8 SWAP1 SWAP8 OR DUP4 SSTORE SWAP6 MLOAD SWAP1 DUP3 ADD SSTORE SWAP4 MLOAD PUSH1 0x2 DUP6 ADD SSTORE MLOAD PUSH1 0x3 SWAP1 SWAP4 ADD SWAP3 SWAP1 SWAP3 SSTORE SLOAD AND SWAP1 POP PUSH2 0x16C3 JUMP JUMPDEST DUP1 SLOAD PUSH1 0x1 PUSH1 0x30 SHL SWAP1 DIV PUSH6 0xFFFFFFFFFFFF AND PUSH1 0x0 SWAP1 DUP2 MSTORE PUSH1 0x1 PUSH1 0x20 DUP2 SWAP1 MSTORE PUSH1 0x40 DUP3 KECCAK256 SWAP1 DUP2 ADD SLOAD SWAP1 SWAP2 SUB PUSH2 0x232C JUMPI PUSH1 0x40 MLOAD PUSH3 0x461BCD PUSH1 0xE5 SHL DUP2 MSTORE PUSH1 0x20 PUSH1 0x4 DUP3 ADD MSTORE PUSH1 0x17 PUSH1 0x24 DUP3 ADD MSTORE PUSH23 0x18599D195C93DC99195C881A5CC81B9BDD08195E1A5CDD PUSH1 0x4A SHL PUSH1 0x44 DUP3 ADD MSTORE PUSH1 0x64 ADD PUSH2 0x4C9 JUMP JUMPDEST DUP1 SLOAD PUSH6 0xFFFFFFFFFFFF AND PUSH6 0xFFFFFFFFFFFE NOT ADD PUSH2 0x238B JUMPI PUSH1 0x40 MLOAD PUSH3 0x461BCD PUSH1 0xE5 SHL DUP2 MSTORE PUSH1 0x20 PUSH1 0x4 DUP3 ADD MSTORE PUSH1 0x1B PUSH1 0x24 DUP3 ADD MSTORE PUSH32 0x61667465724F726465722069732072656D6F76656428646F6E65290000000000 PUSH1 0x44 DUP3 ADD MSTORE PUSH1 0x64 ADD PUSH2 0x4C9 JUMP JUMPDEST DUP5 DUP2 PUSH1 0x1 ADD SLOAD PUSH2 0x239B SWAP2 SWAP1 PUSH2 0x2821 JUMP JUMPDEST DUP7 DUP3 PUSH1 0x2 ADD SLOAD PUSH2 0x23AB SWAP2 SWAP1 PUSH2 0x2821 JUMP JUMPDEST GT PUSH2 0x23F8 JUMPI PUSH1 0x40 MLOAD PUSH3 0x461BCD PUSH1 0xE5 SHL DUP2 MSTORE PUSH1 0x20 PUSH1 0x4 DUP3 ADD MSTORE PUSH1 0x1C PUSH1 0x24 DUP3 ADD MSTORE PUSH32 0x796F7572207072696365206D757374203E2061667465724F7264657200000000 PUSH1 0x44 DUP3 ADD MSTORE PUSH1 0x64 ADD PUSH2 0x4C9 JUMP JUMPDEST PUSH1 0x40 DUP1 MLOAD PUSH1 0xC0 DUP2 ADD DUP3 MSTORE PUSH6 0xFFFFFFFFFFFF SWAP6 DUP7 AND DUP2 MSTORE DUP4 SLOAD PUSH1 0x1 PUSH1 0x30 SHL SWAP1 DUP2 SWAP1 DIV DUP8 AND PUSH1 0x20 DUP1 DUP5 ADD SWAP2 DUP3 MSTORE CALLER DUP5 DUP7 ADD SWAP1 DUP2 MSTORE PUSH1 0x60 DUP6 ADD SWAP12 DUP13 MSTORE PUSH1 0x80 DUP6 ADD SWAP11 DUP12 MSTORE PUSH1 0x0 PUSH1 0xA0 DUP7 ADD DUP2 DUP2 MSTORE DUP2 SLOAD DUP13 AND DUP3 MSTORE PUSH1 0x1 SWAP4 DUP5 SWAP1 MSTORE SWAP7 DUP2 KECCAK256 SWAP6 MLOAD DUP7 SLOAD SWAP5 MLOAD SWAP3 MLOAD PUSH1 0x1 PUSH1 0x1 PUSH1 0xA0 SHL SUB AND PUSH1 0x1 PUSH1 0x60 SHL MUL PUSH1 0x1 PUSH1 0x1 PUSH1 0x60 SHL SUB SWAP4 DUP14 AND DUP8 MUL PUSH1 0x1 PUSH1 0x1 PUSH1 0x60 SHL SUB NOT SWAP1 SWAP7 AND SWAP2 DUP14 AND SWAP2 SWAP1 SWAP2 OR SWAP5 SWAP1 SWAP5 OR SWAP2 SWAP1 SWAP2 AND SWAP3 SWAP1 SWAP3 OR DUP5 SSTORE SWAP10 MLOAD SWAP10 DUP4 ADD SWAP10 SWAP1 SWAP10 SSTORE SWAP7 MLOAD PUSH1 0x2 DUP3 ADD SSTORE SWAP1 MLOAD PUSH1 0x3 SWAP1 SWAP2 ADD SSTORE DUP6 SLOAD DUP3 SLOAD SWAP1 DUP6 AND SWAP1 SWAP6 MUL PUSH6 0xFFFFFFFFFFFF PUSH1 0x30 SHL NOT SWAP1 SWAP6 AND SWAP5 SWAP1 SWAP5 OR SWAP1 SSTORE POP DUP3 SLOAD DUP3 SLOAD PUSH6 0xFFFFFFFFFFFF NOT AND SWAP1 DUP3 AND OR SWAP1 SWAP2 SSTORE SWAP1 SLOAD AND SWAP1 JUMP JUMPDEST PUSH2 0x24EE PUSH2 0x25FB JUMP JUMPDEST POP PUSH6 0xFFFFFFFFFFFF SWAP1 DUP2 AND PUSH1 0x0 SWAP1 DUP2 MSTORE PUSH1 0x1 PUSH1 0x20 DUP2 DUP2 MSTORE PUSH1 0x40 SWAP3 DUP4 SWAP1 KECCAK256 DUP4 MLOAD PUSH1 0xC0 DUP2 ADD DUP6 MSTORE DUP2 SLOAD DUP1 DUP8 AND DUP3 MSTORE PUSH1 0x1 PUSH1 0x30 SHL DUP2 DIV SWAP1 SWAP7 AND SWAP3 DUP2 ADD SWAP3 SWAP1 SWAP3 MSTORE PUSH1 0x1 PUSH1 0x60 SHL SWAP1 SWAP5 DIV PUSH1 0x1 PUSH1 0x1 PUSH1 0xA0 SHL SUB AND SWAP3 DUP2 ADD SWAP3 SWAP1 SWAP3 MSTORE DUP3 ADD SLOAD PUSH1 0x60 DUP3 ADD MSTORE PUSH1 0x2 DUP3 ADD SLOAD PUSH1 0x80 DUP3 ADD MSTORE PUSH1 0x3 SWAP1 SWAP2 ADD SLOAD PUSH1 0xA0 DUP3 ADD MSTORE SWAP1 JUMP JUMPDEST DUP2 SLOAD PUSH6 0xFFFFFFFFFFFF AND ISZERO PUSH2 0x25AD JUMPI DUP2 SLOAD PUSH6 0xFFFFFFFFFFFF DUP1 DUP3 AND PUSH1 0x0 SWAP1 DUP2 MSTORE PUSH1 0x20 DUP5 SWAP1 MSTORE PUSH1 0x40 SWAP1 KECCAK256 DUP1 SLOAD PUSH6 0xFFFFFFFFFFFF PUSH1 0x30 SHL NOT AND PUSH1 0x1 PUSH1 0x30 SHL SWAP4 DUP5 SWAP1 DIV SWAP1 SWAP3 AND SWAP1 SWAP3 MUL OR SWAP1 SSTORE JUMPDEST DUP2 SLOAD PUSH1 0x1 PUSH1 0x30 SHL SWAP1 DIV PUSH6 0xFFFFFFFFFFFF AND ISZERO PUSH2 0x25F7 JUMPI DUP2 SLOAD PUSH1 0x1 PUSH1 0x30 SHL DUP2 DIV PUSH6 0xFFFFFFFFFFFF SWAP1 DUP2 AND PUSH1 0x0 SWAP1 DUP2 MSTORE PUSH1 0x20 DUP5 SWAP1 MSTORE PUSH1 0x40 SWAP1 KECCAK256 DUP1 SLOAD PUSH6 0xFFFFFFFFFFFF NOT AND SWAP2 SWAP1 SWAP3 AND OR SWAP1 SSTORE JUMPDEST POP POP JUMP JUMPDEST PUSH1 0x40 MLOAD DUP1 PUSH1 0xC0 ADD PUSH1 0x40 MSTORE DUP1 PUSH1 0x0 PUSH6 0xFFFFFFFFFFFF AND DUP2 MSTORE PUSH1 0x20 ADD PUSH1 0x0 PUSH6 0xFFFFFFFFFFFF AND DUP2 MSTORE PUSH1 0x20 ADD PUSH1 0x0 PUSH1 0x1 PUSH1 0x1 PUSH1 0xA0 SHL SUB AND DUP2 MSTORE PUSH1 0x20 ADD PUSH1 0x0 DUP2 MSTORE PUSH1 0x20 ADD PUSH1 0x0 DUP2 MSTORE PUSH1 0x20 ADD PUSH1 0x0 DUP2 MSTORE POP SWAP1 JUMP JUMPDEST DUP1 CALLDATALOAD PUSH6 0xFFFFFFFFFFFF DUP2 AND DUP2 EQ PUSH2 0x2660 JUMPI PUSH1 0x0 DUP1 REVERT JUMPDEST SWAP2 SWAP1 POP JUMP JUMPDEST PUSH1 0x0 DUP1 PUSH1 0x40 DUP4 DUP6 SUB SLT ISZERO PUSH2 0x2678 JUMPI PUSH1 0x0 DUP1 REVERT JUMPDEST PUSH2 0x2681 DUP4 PUSH2 0x264A JUMP JUMPDEST SWAP2 POP PUSH1 0x20 DUP4 ADD CALLDATALOAD PUSH1 0x1 PUSH1 0x1 PUSH1 0xA0 SHL SUB DUP2 AND DUP2 EQ PUSH2 0x269D JUMPI PUSH1 0x0 DUP1 REVERT JUMPDEST DUP1 SWAP2 POP POP SWAP3 POP SWAP3 SWAP1 POP JUMP JUMPDEST PUSH1 0x0 PUSH1 0x20 DUP3 DUP5 SUB SLT ISZERO PUSH2 0x26BA JUMPI PUSH1 0x0 DUP1 REVERT JUMPDEST PUSH2 0x16C3 DUP3 PUSH2 0x264A JUMP JUMPDEST PUSH1 0x0 DUP1 PUSH1 0x40 DUP4 DUP6 SUB SLT ISZERO PUSH2 0x26D6 JUMPI PUSH1 0x0 DUP1 REVERT JUMPDEST POP POP DUP1 CALLDATALOAD SWAP3 PUSH1 0x20 SWAP1 SWAP2 ADD CALLDATALOAD SWAP2 POP JUMP JUMPDEST PUSH1 0x0 DUP1 PUSH1 0x0 PUSH1 0x60 DUP5 DUP7 SUB SLT ISZERO PUSH2 0x26FA JUMPI PUSH1 0x0 DUP1 REVERT JUMPDEST DUP4 CALLDATALOAD SWAP3 POP PUSH1 0x20 DUP5 ADD CALLDATALOAD SWAP2 POP PUSH2 0x2711 PUSH1 0x40 DUP6 ADD PUSH2 0x264A JUMP JUMPDEST SWAP1 POP SWAP3 POP SWAP3 POP SWAP3 JUMP JUMPDEST PUSH1 0x20 DUP1 DUP3 MSTORE PUSH1 0x1E SWAP1 DUP3 ADD MSTORE PUSH32 0x796F7520617265206E6F74206F776E6572206F6620746865206F726465720000 PUSH1 0x40 DUP3 ADD MSTORE PUSH1 0x60 ADD SWAP1 JUMP JUMPDEST PUSH1 0x20 DUP1 DUP3 MSTORE PUSH1 0x22 SWAP1 DUP3 ADD MSTORE PUSH32 0x746865206F7264657220697320616C72656164792072656D6F76656428646F6E PUSH1 0x40 DUP3 ADD MSTORE PUSH2 0x6529 PUSH1 0xF0 SHL PUSH1 0x60 DUP3 ADD MSTORE PUSH1 0x80 ADD SWAP1 JUMP JUMPDEST PUSH4 0x4E487B71 PUSH1 0xE0 SHL PUSH1 0x0 MSTORE PUSH1 0x11 PUSH1 0x4 MSTORE PUSH1 0x24 PUSH1 0x0 REVERT JUMPDEST DUP2 DUP2 SUB DUP2 DUP2 GT ISZERO PUSH2 0x27BC JUMPI PUSH2 0x27BC PUSH2 0x2793 JUMP JUMPDEST SWAP3 SWAP2 POP POP JUMP JUMPDEST PUSH1 0x1 PUSH1 0x1 PUSH1 0xA0 SHL SUB SWAP3 SWAP1 SWAP3 AND DUP3 MSTORE PUSH1 0x20 DUP3 ADD MSTORE PUSH1 0x40 ADD SWAP1 JUMP JUMPDEST PUSH1 0x0 PUSH1 0x20 DUP3 DUP5 SUB SLT ISZERO PUSH2 0x27ED JUMPI PUSH1 0x0 DUP1 REVERT JUMPDEST DUP2 MLOAD DUP1 ISZERO ISZERO DUP2 EQ PUSH2 0x16C3 JUMPI PUSH1 0x0 DUP1 REVERT JUMPDEST PUSH1 0x1 PUSH1 0x1 PUSH1 0xA0 SHL SUB SWAP4 DUP5 AND DUP2 MSTORE SWAP2 SWAP1 SWAP3 AND PUSH1 0x20 DUP3 ADD MSTORE PUSH1 0x40 DUP2 ADD SWAP2 SWAP1 SWAP2 MSTORE PUSH1 0x60 ADD SWAP1 JUMP JUMPDEST DUP1 DUP3 MUL DUP2 ISZERO DUP3 DUP3 DIV DUP5 EQ OR PUSH2 0x27BC JUMPI PUSH2 0x27BC PUSH2 0x2793 JUMP JUMPDEST PUSH1 0x0 DUP3 PUSH2 0x2855 JUMPI PUSH4 0x4E487B71 PUSH1 0xE0 SHL PUSH1 0x0 MSTORE PUSH1 0x12 PUSH1 0x4 MSTORE PUSH1 0x24 PUSH1 0x0 REVERT JUMPDEST POP DIV SWAP1 JUMP JUMPDEST DUP1 DUP3 ADD DUP1 DUP3 GT ISZERO PUSH2 0x27BC JUMPI PUSH2 0x27BC PUSH2 0x2793 JUMP JUMPDEST PUSH1 0x0 PUSH6 0xFFFFFFFFFFFF DUP1 DUP4 AND DUP2 DUP2 SUB PUSH2 0x2888 JUMPI PUSH2 0x2888 PUSH2 0x2793 JUMP JUMPDEST PUSH1 0x1 ADD SWAP4 SWAP3 POP POP POP JUMP INVALID LOG2 PUSH5 0x6970667358 0x22 SLT KECCAK256 PUSH32 0xEE1306A2556DA2843C87B58985BB8CEC5111762501DFDEB866FA1D5618764664 PUSH20 0x6F6C634300081800330000000000000000000000 "},"methodIdentifiers":{"buyOrders(uint48)":"d44ca7af","cancelBuyOrder(uint48)":"67d301f9","cancelSellOrder(uint48)":"a1cca87e","changeBuyOrderOwner(uint48,address)":"58c0c530","changeSellOrderOwner(uint48,address)":"bfe1363e","count()":"06661abd","fee()":"ddca3f43","feeTo()":"017e7e58","getBuyOrder(uint48)":"e5c274bc","getSellOrder(uint48)":"ae445bac","makeBuyOrder(uint256,uint256,uint48)":"dda37b24","makeSellOrder(uint256,uint256,uint48)":"b5b2d29b","sellOrders(uint48)":"d7d99b0b","takeBuyOrder(uint256,uint256)":"8a44b056","takeSellOrder(uint256,uint256)":"c0253d58","token0()":"0dfe1681","token1()":"d21220a7","topBuyOrderId()":"c4ccb40a","topSellOrderId()":"7c33e99a"}}}}}