{"contracts/v2/TradeService.sol":{"TradeService":{"abi":[{"inputs":[],"stateMutability":"nonpayable","type":"constructor"},{"anonymous":false,"inputs":[{"indexed":true,"internalType":"address","name":"tokenA","type":"address"},{"indexed":true,"internalType":"address","name":"tokenB","type":"address"},{"indexed":false,"internalType":"address","name":"tradeAB","type":"address"},{"indexed":false,"internalType":"address","name":"tradeBA","type":"address"}],"name":"PairCreated","type":"event"},{"inputs":[{"internalType":"address","name":"token0","type":"address"},{"internalType":"address","name":"token1","type":"address"}],"name":"computePairAddr","outputs":[{"internalType":"address","name":"","type":"address"}],"stateMutability":"view","type":"function"},{"inputs":[{"internalType":"address","name":"tokenA","type":"address"},{"internalType":"address","name":"tokenB","type":"address"}],"name":"createPair","outputs":[{"internalType":"address","name":"tradeAB","type":"address"},{"internalType":"address","name":"tradeBA","type":"address"}],"stateMutability":"nonpayable","type":"function"},{"inputs":[],"name":"fee","outputs":[{"internalType":"uint8","name":"","type":"uint8"}],"stateMutability":"view","type":"function"},{"inputs":[],"name":"feeTo","outputs":[{"internalType":"address","name":"","type":"address"}],"stateMutability":"view","type":"function"},{"inputs":[{"internalType":"address","name":"tradeAddr","type":"address"},{"internalType":"uint48","name":"fromOrderId","type":"uint48"},{"internalType":"uint8","name":"num","type":"uint8"}],"name":"getOrderList","outputs":[{"components":[{"internalType":"uint48","name":"orderId","type":"uint48"},{"internalType":"uint112","name":"amountIn","type":"uint112"},{"internalType":"uint112","name":"amountOut","type":"uint112"},{"internalType":"uint32","name":"progress","type":"uint32"}],"internalType":"struct TradeService.ListOrder[]","name":"","type":"tuple[]"}],"stateMutability":"view","type":"function"},{"inputs":[{"internalType":"address","name":"token0","type":"address"},{"internalType":"address","name":"token1","type":"address"}],"name":"getTrade","outputs":[{"internalType":"address","name":"","type":"address"}],"stateMutability":"view","type":"function"},{"inputs":[{"internalType":"address","name":"user","type":"address"},{"internalType":"uint48","name":"startIndex","type":"uint48"},{"internalType":"uint48","name":"num","type":"uint48"}],"name":"getUserOrders","outputs":[{"components":[{"internalType":"address","name":"trade","type":"address"},{"internalType":"address","name":"token0","type":"address"},{"internalType":"address","name":"token1","type":"address"},{"internalType":"uint48","name":"orderId","type":"uint48"},{"internalType":"uint32","name":"createTime","type":"uint32"},{"internalType":"address","name":"owner","type":"address"},{"internalType":"uint112","name":"amountIn","type":"uint112"},{"internalType":"uint112","name":"amountOut","type":"uint112"},{"internalType":"uint32","name":"progress","type":"uint32"},{"internalType":"bool","name":"isRemoved","type":"bool"}],"internalType":"struct TradeService.UserOrder[]","name":"","type":"tuple[]"}],"stateMutability":"view","type":"function"},{"inputs":[{"internalType":"address","name":"","type":"address"},{"internalType":"address","name":"","type":"address"}],"name":"trades","outputs":[{"internalType":"address","name":"","type":"address"}],"stateMutability":"view","type":"function"}],"evm":{"bytecode":{"linkReferences":{},"object":"60a060405234801561001057600080fd5b50336080526080516132fb61004460003960008181609201528181610241015281816105b5015261067d01526132fb6000f3fe608060405234801561001057600080fd5b50600436106100885760003560e01c8063c9c653961161005b578063c9c653961461014b578063ddca3f431461017e578063f06675a814610198578063f519e79f146101b857600080fd5b8063017e7e581461008d5780633bd07d27146100d15780637240976c146100e4578063b2ee08da14610115575b600080fd5b6100b47f000000000000000000000000000000000000000000000000000000000000000081565b6040516001600160a01b0390911681526020015b60405180910390f35b6100b46100df366004610e87565b6101d8565b6100b46100f2366004610e87565b60006020818152928152604080822090935290815220546001600160a01b031681565b6100b4610123366004610e87565b6001600160a01b03918216600090815260208181526040808320938516835292905220541690565b61015e610159366004610e87565b610300565b604080516001600160a01b039384168152929091166020830152016100c8565b610186606481565b60405160ff90911681526020016100c8565b6101ab6101a6366004610ed4565b61075e565b6040516100c89190610f25565b6101cb6101c6366004610fa3565b610a35565b6040516100c89190610fe3565b60008083836040516020016101ee9291906110b7565b604051602081830303815290604052805190602001209050600060ff60f81b30836040518060200161021f90610e0e565b601f1982820381018352601f909101166040819052610269908a908a906064907f0000000000000000000000000000000000000000000000000000000000000000906020016110d9565b60408051601f19818403018152908290526102879291602001611137565b604051602081830303815290604052805190602001206040516020016102df94939291906001600160f81b031994909416845260609290921b6001600160601b03191660018401526015830152603582015260550190565b60408051808303601f19018152919052805160209091012095945050505050565b600080826001600160a01b0316846001600160a01b03160361038f5760405162461bcd60e51b815260206004820152603f60248201527f5472616465536572766963653a20637265617465506169723a3a20746f6b656e60448201527f4120616e6420746f6b656e422063616e6e6f74206265207468652073616d650060648201526084015b60405180910390fd5b6001600160a01b0384166103fb5760405162461bcd60e51b815260206004820152602d60248201527f5472616465536572766963653a20637265617465506169723a3a20746f6b656e60448201526c0412063616e6e6f74206265203609c1b6064820152608401610386565b6001600160a01b0383166104675760405162461bcd60e51b815260206004820152602d60248201527f5472616465536572766963653a20637265617465506169723a3a20746f6b656e60448201526c0422063616e6e6f74206265203609c1b6064820152608401610386565b6001600160a01b03848116600090815260208181526040808320878516845290915290205416156104f35760405162461bcd60e51b815260206004820152603060248201527f5472616465536572766963653a20637265617465506169723a3a20747261646560448201526f105088185b1c9958591e48195e1a5cdd60821b6064820152608401610386565b6001600160a01b038381166000908152602081815260408083208885168452909152902054161561057f5760405162461bcd60e51b815260206004820152603060248201527f5472616465536572766963653a20637265617465506169723a3a20747261646560448201526f109048185b1c9958591e48195e1a5cdd60821b6064820152608401610386565b600084846040516020016105949291906110b7565b604051602081830303815290604052805190602001209050600081868660647f00000000000000000000000000000000000000000000000000000000000000006040516105e090610e0e565b6105ed94939291906110d9565b8190604051809103906000f590508015801561060d573d6000803e3d6000fd5b506001600160a01b038781166000908152602081815260408083208a8516845282529182902080546001600160a01b031916938516939093179092555191955085925061065e9187918991016110b7565b60405160208183030381529060405280519060200120915081858760647f00000000000000000000000000000000000000000000000000000000000000006040516106a890610e0e565b6106b594939291906110d9565b8190604051809103906000f59050801580156106d5573d6000803e3d6000fd5b506001600160a01b038681166000818152602081815260408083208c86168085529083529281902080546001600160a01b0319168787169081179091558151958b16865291850191909152939650869450909290917f528a7392e6fd550c4de9e894c55879cd7a03e87f1ac9ddafe8677a2ac1d8cf9f910160405180910390a350509250929050565b606060008260ff1667ffffffffffffffff81111561077e5761077e611154565b6040519080825280602002602001820160405280156107d057816020015b60408051608081018252600080825260208083018290529282018190526060820152825260001990920191018161079c5790505b5090508465ffffffffffff851660000361084957806001600160a01b03166399a3bd236040518163ffffffff1660e01b8152600401602060405180830381865afa158015610822573d6000803e3d6000fd5b505050506040513d601f19601f82011682018060405250810190610846919061117a565b94505b604051633e710cd560e11b815265ffffffffffff861660048201526000906001600160a01b03831690637ce219aa9060240160c060405180830381865afa158015610898573d6000803e3d6000fd5b505050506040513d601f19601f820116820180604052508101906108bc91906111cd565b905060405180608001604052808765ffffffffffff16815260200182606001516001600160701b0316815260200182608001516001600160701b031681526020018260a0015163ffffffff168152508360008151811061091e5761091e61127a565b602090810291909101015260015b8560ff168160ff161015610a27576020820151604051633e710cd560e11b815265ffffffffffff821660048201526001600160a01b03851690637ce219aa9060240160c060405180830381865afa15801561098b573d6000803e3d6000fd5b505050506040513d601f19601f820116820180604052508101906109af91906111cd565b925060405180608001604052808265ffffffffffff16815260200184606001516001600160701b0316815260200184608001516001600160701b031681526020018460a0015163ffffffff16815250858360ff1681518110610a1357610a1361127a565b60209081029190910101525060010161092c565b5091925050505b9392505050565b606060008265ffffffffffff1667ffffffffffffffff811115610a5a57610a5a611154565b604051908082528060200260200182016040528015610a9357816020015b610a80610e1b565b815260200190600190039081610a785790505b5090508365ffffffffffff16600003610aca576001600160a01b03851660009081526002602052604090205465ffffffffffff1693505b8365ffffffffffff16600003610ae1579050610a2e565b835b65ffffffffffff8416610af682876112a6565b65ffffffffffff161015610c1e57600060016000610b148985610c27565b65ffffffffffff1916815260208082019290925260409081016000908120825160608101845290546001600160a01b03811680835265ffffffffffff600160a01b830416958301869052600160d01b90910463ffffffff16828501529251633e710cd560e11b81526004810194909452935091637ce219aa9060240160c060405180830381865afa158015610bad573d6000803e3d6000fd5b505050506040513d601f19601f82011682018060405250810190610bd191906111cd565b9050610bdd8282610c70565b84610be8858a6112a6565b65ffffffffffff1681518110610c0057610c0061127a565b6020026020010181905250505080610c17906112cc565b9050610ae3565b50949350505050565b6040516001600160601b0319606084901b1660208201526001600160d01b031960d083901b166034820152600090603a01604051602081830303815290604052610a2e906112ee565b610c78610e1b565b60405180610140016040528084600001516001600160a01b0316815260200184600001516001600160a01b0316630dfe16816040518163ffffffff1660e01b8152600401602060405180830381865afa158015610cd9573d6000803e3d6000fd5b505050506040513d601f19601f82011682018060405250810190610cfd9190611324565b6001600160a01b0316815260200184600001516001600160a01b031663d21220a76040518163ffffffff1660e01b8152600401602060405180830381865afa158015610d4d573d6000803e3d6000fd5b505050506040513d601f19601f82011682018060405250810190610d719190611324565b6001600160a01b03168152602001846020015165ffffffffffff168152602001846040015163ffffffff16815260200183604001516001600160a01b0316815260200183606001516001600160701b0316815260200183608001516001600160701b031681526020018360a0015163ffffffff16815260200165ffffffffffff8016846000015165ffffffffffff16141515815250905092915050565b611f848061134283390190565b6040805161014081018252600080825260208201819052918101829052606081018290526080810182905260a0810182905260c0810182905260e08101829052610100810182905261012081019190915290565b6001600160a01b0381168114610e8457600080fd5b50565b60008060408385031215610e9a57600080fd5b8235610ea581610e6f565b91506020830135610eb581610e6f565b809150509250929050565b65ffffffffffff81168114610e8457600080fd5b600080600060608486031215610ee957600080fd5b8335610ef481610e6f565b92506020840135610f0481610ec0565b9150604084013560ff81168114610f1a57600080fd5b809150509250925092565b602080825282518282018190526000919060409081850190868401855b82811015610f96578151805165ffffffffffff168552868101516001600160701b039081168887015286820151168686015260609081015163ffffffff169085015260809093019290850190600101610f42565b5091979650505050505050565b600080600060608486031215610fb857600080fd5b8335610fc381610e6f565b92506020840135610fd381610ec0565b91506040840135610f1a81610ec0565b602080825282518282018190526000919060409081850190868401855b82811015610f9657815180516001600160a01b039081168652878201518116888701528682015181168787015260608083015165ffffffffffff169087015260808083015163ffffffff9081169188019190915260a0808401519092169187019190915260c0808301516001600160701b039081169188019190915260e080840151909116908701526101008083015190911690860152610120908101511515908501526101409093019290850190600101611000565b6001600160601b0319606093841b811682529190921b16601482015260280190565b6001600160a01b039485168152928416602084015260ff919091166040830152909116606082015260800190565b6000815160005b81811015611128576020818501810151868301520161110e565b50600093019283525090919050565b600061114c6111468386611107565b84611107565b949350505050565b634e487b7160e01b600052604160045260246000fd5b805161117581610ec0565b919050565b60006020828403121561118c57600080fd5b8151610a2e81610ec0565b805161117581610e6f565b80516001600160701b038116811461117557600080fd5b805163ffffffff8116811461117557600080fd5b600060c082840312156111df57600080fd5b60405160c0810181811067ffffffffffffffff8211171561121057634e487b7160e01b600052604160045260246000fd5b60405261121c8361116a565b815261122a6020840161116a565b602082015261123b60408401611197565b604082015261124c606084016111a2565b606082015261125d608084016111a2565b608082015261126e60a084016111b9565b60a08201529392505050565b634e487b7160e01b600052603260045260246000fd5b634e487b7160e01b600052601160045260246000fd5b65ffffffffffff8281168282160390808211156112c5576112c5611290565b5092915050565b600065ffffffffffff8216806112e4576112e4611290565b6000190192915050565b8051602082015165ffffffffffff19808216929190601a83101561131c57808184601a0360031b1b83161693505b505050919050565b60006020828403121561133657600080fd5b8151610a2e81610e6f56fe6101006040526000805465ffffffffffff191690553480156200002157600080fd5b5060405162001f8438038062001f84833981016040819052620000449162000085565b6001600160a01b0393841660805291831660a05260ff1660c0521660e052620000e9565b80516001600160a01b03811681146200008057600080fd5b919050565b600080600080608085870312156200009c57600080fd5b620000a78562000068565b9350620000b76020860162000068565b9250604085015160ff81168114620000ce57600080fd5b9150620000de6060860162000068565b905092959194509250565b60805160a05160c05160e051611e156200016f6000396000818160be0152818161098d0152610a1a01526000818161042501526109bc0152600081816103ab01528181610b9d01528181610ef70152611a7301526000818161012b015281816104f7015281816107180152818161089a01528181610a510152610af30152611e156000f3fe608060405234801561001057600080fd5b50600436106100b45760003560e01c806399a3bd231161007157806399a3bd2314610394578063d21220a7146103a6578063d51356f2146103cd578063d9d8f541146103e2578063dbc4ba87146103f5578063ddca3f431461042057600080fd5b8063017e7e58146100b957806306661abd146100fd5780630dfe1681146101265780632784e8151461014d578063692f3a44146102165780637ce219aa14610253575b600080fd5b6100e07f000000000000000000000000000000000000000000000000000000000000000081565b6040516001600160a01b0390911681526020015b60405180910390f35b60005461010f9065ffffffffffff1681565b60405165ffffffffffff90911681526020016100f4565b6100e07f000000000000000000000000000000000000000000000000000000000000000081565b6101c061015b366004611b9b565b6001602081905260009182526040909120805491015465ffffffffffff80831692600160301b810490911691600160601b9091046001600160a01b0316906001600160701b0380821691600160701b810490911690600160e01b900463ffffffff1686565b6040805165ffffffffffff97881681529690951660208701526001600160a01b03909316938501939093526001600160701b039081166060850152909116608083015263ffffffff1660a082015260c0016100f4565b610229610224366004611bcd565b610459565b604080516001600160701b03948516815292841660208401529216918101919091526060016100f4565b61031f610261366004611b9b565b6040805160c081018252600080825260208201819052918101829052606081018290526080810182905260a08101919091525065ffffffffffff908116600090815260016020818152604092839020835160c08101855281548087168252600160301b810490961692810192909252600160601b9094046001600160a01b03169281019290925291909101546001600160701b038082166060840152600160701b8204166080830152600160e01b900463ffffffff1660a082015290565b6040516100f49190600060c08201905065ffffffffffff8084511683528060208501511660208401525060018060a01b03604084015116604083015260608301516001600160701b038082166060850152806080860151166080850152505063ffffffff60a08401511660a083015292915050565b60025461010f9065ffffffffffff1681565b6100e07f000000000000000000000000000000000000000000000000000000000000000081565b6103e06103db366004611c00565b610c1c565b005b61010f6103f0366004611c43565b610de3565b610408610403366004611b9b565b61185d565b6040516001600160701b0390911681526020016100f4565b6104477f000000000000000000000000000000000000000000000000000000000000000081565b60405160ff90911681526020016100f4565b6002546000908190819065ffffffffffff1681036104cd5760405162461bcd60e51b815260206004820152602660248201527f4d6f6e6f54726164653a2074616b654f726465723a3a206f726465727320697360448201526520656d70747960d01b60648201526084015b60405180910390fd5b6040516323b872dd60e01b81523360048201523060248201526001600160701b03861660448201527f00000000000000000000000000000000000000000000000000000000000000006001600160a01b0316906323b872dd906064016020604051808303816000875af1158015610548573d6000803e3d6000fd5b505050506040513d601f19601f8201168201806040525081019061056c9190611c86565b50845b60025465ffffffffffff161561091d5760025465ffffffffffff166000908152600160208190526040909120908101546105bd906001600160701b03600160701b9091048116908816611cbe565b60018201546105d9906001600160701b03908116908a16611cbe565b10156105e5575061091d565b600181015460009063ffffffff90610610906001600160701b03811690600160e01b90048316611cbe565b61061a9190611cf1565b60018301549091506000906001600160701b038082169161064791600160701b9091048116908516611cbe565b6106519190611cf1565b60018401546106709190600160701b90046001600160701b0316611d05565b9050806001600160701b0316846001600160701b0316106107bc576106958185611d05565b60018401549094506106b19083906001600160701b0316611d05565b6106bb9087611d2c565b95506106c683611ae9565b6001830180546001600160e01b03166001600160e01b0319179055825460405163a9059cbb60e01b81526001600160a01b03600160601b909204821660048201526001600160701b03831660248201527f00000000000000000000000000000000000000000000000000000000000000009091169063a9059cbb906044016020604051808303816000875af1158015610763573d6000803e3d6000fd5b505050506040513d601f19601f820116820180604052508101906107879190611c86565b50825465ffffffffffff1990811665ffffffffffff90811780865560028054909316600160301b909104909116179055610915565b60018301546000906001600160701b03600160701b82048116916107e591908116908816611cbe565b6107ef9190611cf1565b90506107fb8188611d2c565b96506108078184611d2c565b60018501549093506001600160701b031661082663ffffffff85611d4c565b6108309190611d77565b61083b906001611d9d565b6001850180546001600160e01b0316600160e01b63ffffffff9390931692909202919091179055835460405163a9059cbb60e01b8152600160601b9091046001600160a01b0390811660048301526001600160701b03871660248301527f0000000000000000000000000000000000000000000000000000000000000000169063a9059cbb906044016020604051808303816000875af11580156108e3573d6000803e3d6000fd5b505050506040513d601f19601f820116820180604052508101906109079190611c86565b50600094505050505061091d565b50505061056f565b6109278187611d05565b93506000846001600160701b0316116109825760405162461bcd60e51b815260206004820152601e60248201527f4d6f6e6f54726164653a2074616b654f726465723a3a206e6f206465616c000060448201526064016104c4565b336001600160a01b037f00000000000000000000000000000000000000000000000000000000000000001614610ac0576127106109e260ff7f00000000000000000000000000000000000000000000000000000000000000001686611d4c565b6109ec9190611d77565b91506001600160701b03821615610ac0576040516323b872dd60e01b81523360048201526001600160a01b037f0000000000000000000000000000000000000000000000000000000000000000811660248301526001600160701b03841660448301527f000000000000000000000000000000000000000000000000000000000000000016906323b872dd906064016020604051808303816000875af1158015610a9a573d6000803e3d6000fd5b505050506040513d601f19601f82011682018060405250810190610abe9190611c86565b505b6001600160701b03811615610b6a5760405163a9059cbb60e01b81523360048201526001600160701b03821660248201527f00000000000000000000000000000000000000000000000000000000000000006001600160a01b03169063a9059cbb906044016020604051808303816000875af1158015610b44573d6000803e3d6000fd5b505050506040513d601f19601f82011682018060405250810190610b689190611c86565b505b6001600160701b03831615610c145760405163a9059cbb60e01b81523360048201526001600160701b03841660248201527f00000000000000000000000000000000000000000000000000000000000000006001600160a01b03169063a9059cbb906044016020604051808303816000875af1158015610bee573d6000803e3d6000fd5b505050506040513d601f19601f82011682018060405250810190610c129190611c86565b505b509250925092565b65ffffffffffff821660009081526001602052604090208054600160601b90046001600160a01b03163314610cb95760405162461bcd60e51b815260206004820152603c60248201527f4d6f6e6f54726164653a206368616e67654f726465724f776e65723a3a20796f60448201527f7520617265206e6f74206f776e6572206f6620746865206f726465720000000060648201526084016104c4565b805465ffffffffffff1665fffffffffffe1901610d40576040805162461bcd60e51b81526020600482015260248101919091527f4d6f6e6f54726164653a206368616e67654f726465724f776e65723a3a20746860448201527f65206f7264657220697320616c72656164792072656d6f76656428646f6e652960648201526084016104c4565b6001600160a01b038216610dbc5760405162461bcd60e51b815260206004820152603a60248201527f4d6f6e6f54726164653a206368616e67654f726465724f776e65723a3a206e6560448201527f774f776e65722063616e2774206265206164647265737328302900000000000060648201526084016104c4565b80546001600160a01b03909216600160601b026001600160601b0390921691909117905550565b600080846001600160701b031611610e585760405162461bcd60e51b815260206004820152603260248201527f4d6f6e6f54726164653a206d616b654f726465723a3a20746f6b656e31496e206044820152710616d6f756e742063616e6e6f7420626520360741b60648201526084016104c4565b6000836001600160701b031611610ecd5760405162461bcd60e51b815260206004820152603360248201527f4d6f6e6f54726164653a206d616b654f726465723a3a20746f6b656e304f7574604482015272020616d6f756e742063616e6e6f74206265203606c1b60648201526084016104c4565b6040516323b872dd60e01b81523360048201523060248201526001600160701b03851660448201527f00000000000000000000000000000000000000000000000000000000000000006001600160a01b0316906323b872dd906064016020604051808303816000875af1158015610f48573d6000803e3d6000fd5b505050506040513d601f19601f82011682018060405250810190610f6c9190611c86565b50600080548190610f849065ffffffffffff16611dba565b82546101009290920a65ffffffffffff818102199093169183160217909155600254166000036110b257506040805160c08101825260008082526020808301828152338486019081526001600160701b03808a16606087019081528982166080880190815260a08801878152875465ffffffffffff908116895260019788905299882098518954965195516001600160a01b0316600160601b026001600160601b03968c16600160301b026001600160601b0319909816918c16919091179690961794909416949094178755519590930180549251915163ffffffff16600160e01b026001600160e01b03928516600160701b026001600160e01b03199094169690941695909517919091171617909155546002805465ffffffffffff191691909216908117909155611856565b8165ffffffffffff1660000361129a5760025465ffffffffffff166000908152600160208190526040909120908101546110f8906001600160701b038087169116611cbe565b600182015461111a906001600160701b0380891691600160701b900416611cbe565b116111815760405162461bcd60e51b815260206004820152603160248201527f4d6f6e6f54726164653a206d616b654f726465723a3a20796f75722070726963604482015270329036bab9ba101f103a37b827b93232b960791b60648201526084016104c4565b60008054825465ffffffffffff1990811665ffffffffffff928316179093556040805160c0810182528381526002805484166020808401918252338486019081526001600160701b03808e16606087019081528d82166080880190815260a088018b81528b548b168c52600195869052988b2097518854965194516001600160a01b0316600160601b026001600160601b03958c16600160301b026001600160601b0319909816918c1691909117969096179390931694909417865592519490910180549151955163ffffffff16600160e01b026001600160e01b03968416600160701b026001600160e01b03199093169590931694909417179390931692909217905591548254909316921691821790559050611856565b65ffffffffffff8216600090815260016020819052604082209081015490916001600160701b03909116900361132a5760405162461bcd60e51b815260206004820152602f60248201527f4d6f6e6f54726164653a206d616b654f726465723a3a206265666f72654f726460448201526e195c881a5cc81b9bdd08195e1a5cdd608a1b60648201526084016104c4565b805465ffffffffffff1665fffffffffffe19016113a55760405162461bcd60e51b815260206004820152603360248201527f4d6f6e6f54726164653a206d616b654f726465723a3a206265666f72654f726460448201527265722069732072656d6f76656428646f6e652960681b60648201526084016104c4565b60018101546113c0906001600160701b038087169116611cbe565b60018201546113e2906001600160701b0380891691600160701b900416611cbe565b111561144e5760405162461bcd60e51b815260206004820152603560248201527f4d6f6e6f54726164653a206d616b654f726465723a3a20796f75722070726963604482015274329036bab9ba101e1e903132b337b932a7b93232b960591b60648201526084016104c4565b8054600160301b900465ffffffffffff1660000361157657600080548254600160301b65ffffffffffff928316810265ffffffffffff60301b19909216919091179093556040805160c08101825286831681526020808201858152338385019081526001600160701b03808d16606086019081528c82166080870190815260a087018a81528a548a168b52600196879052978a2096518754955194516001600160a01b0316600160601b026001600160601b03958b16909c026001600160601b0319909616908a16179490941792909216989098178455519290910180549151935163ffffffff16600160e01b026001600160e01b03948816600160701b026001600160e01b0319909316939097169290921717919091169390931790925554169050611856565b8054600160301b900465ffffffffffff16600090815260016020819052604082209081015490916001600160701b03909116900361160d5760405162461bcd60e51b815260206004820152602e60248201527f4d6f6e6f54726164653a206d616b654f726465723a3a2061667465724f72646560448201526d1c881a5cc81b9bdd08195e1a5cdd60921b60648201526084016104c4565b805465ffffffffffff1665fffffffffffe19016116815760405162461bcd60e51b815260206004820152602c60248201527f4d6f6e6f54726164653a206d616b654f726465723a3a2061667465724f72646560448201526b1c881a5cc81c995b5bdd995960a21b60648201526084016104c4565b600181015461169c906001600160701b038088169116611cbe565b60018201546116be906001600160701b03808a1691600160701b900416611cbe565b116117275760405162461bcd60e51b815260206004820152603360248201527f4d6f6e6f54726164653a206d616b654f726465723a3a20796f75722070726963604482015272329036bab9ba101f1030b33a32b927b93232b960691b60648201526084016104c4565b6040805160c08101825265ffffffffffff80871682528454600160301b9081900482166020808501918252338587019081526001600160701b03808e16606088019081528d821660808901908152600060a08a0181815281548a1682526001968790529a812099518a54975195516001600160a01b0316600160601b026001600160601b03968b168a026001600160601b0319909916918b16919091179790971794909416959095178855519690920180549351975163ffffffff16600160e01b026001600160e01b03988416600160701b026001600160e01b031990951697909316969096179290921795909516949094179092558254855490821690920265ffffffffffff60301b1992909216919091179093558054825465ffffffffffff191690841617909155541690505b9392505050565b65ffffffffffff811660009081526001602052604081208054600160601b90046001600160a01b031633146118fa5760405162461bcd60e51b815260206004820152603760248201527f4d6f6e6f54726164653a2063616e63656c4f726465723a3a20796f752061726560448201527f206e6f74206f776e6572206f6620746865206f7264657200000000000000000060648201526084016104c4565b805465ffffffffffff1665fffffffffffe190161197f5760405162461bcd60e51b815260206004820152603b60248201527f4d6f6e6f54726164653a2063616e63656c4f726465723a3a20746865206f726460448201527f657220697320616c72656164792072656d6f76656428646f6e6529000000000060648201526084016104c4565b61198881611ae9565b60025465ffffffffffff8085169116036119c457805460028054600160301b90920465ffffffffffff1665ffffffffffff199092169190911790555b805465ffffffffffff191665ffffffffffff178155600181015460009063ffffffff90611a04906001600160701b03811690600160e01b90048316611cbe565b611a0e9190611cf1565b6001830154909150611a2a9082906001600160701b0316611d05565b92506001600160701b03831615611ae257815460405163a9059cbb60e01b8152600160601b9091046001600160a01b0390811660048301526001600160701b03851660248301527f0000000000000000000000000000000000000000000000000000000000000000169063a9059cbb906044016020604051808303816000875af1158015611abc573d6000803e3d6000fd5b505050506040513d601f19601f82011682018060405250810190611ae09190611c86565b505b5050919050565b805465ffffffffffff1615611b3357805465ffffffffffff8082166000908152600160205260409020805465ffffffffffff60301b1916600160301b938490049092169092021790555b8054600160301b900465ffffffffffff1615611b7d578054600160301b810465ffffffffffff9081166000908152600160205260409020805465ffffffffffff1916919092161790555b50565b803565ffffffffffff81168114611b9657600080fd5b919050565b600060208284031215611bad57600080fd5b61185682611b80565b80356001600160701b0381168114611b9657600080fd5b60008060408385031215611be057600080fd5b611be983611bb6565b9150611bf760208401611bb6565b90509250929050565b60008060408385031215611c1357600080fd5b611c1c83611b80565b915060208301356001600160a01b0381168114611c3857600080fd5b809150509250929050565b600080600060608486031215611c5857600080fd5b611c6184611bb6565b9250611c6f60208501611bb6565b9150611c7d60408501611b80565b90509250925092565b600060208284031215611c9857600080fd5b8151801515811461185657600080fd5b634e487b7160e01b600052601160045260246000fd5b8082028115828204841417611cd557611cd5611ca8565b92915050565b634e487b7160e01b600052601260045260246000fd5b600082611d0057611d00611cdb565b500490565b6001600160701b03828116828216039080821115611d2557611d25611ca8565b5092915050565b6001600160701b03818116838216019080821115611d2557611d25611ca8565b6001600160701b03818116838216028082169190828114611d6f57611d6f611ca8565b505092915050565b60006001600160701b0380841680611d9157611d91611cdb565b92169190910492915050565b63ffffffff818116838216019080821115611d2557611d25611ca8565b600065ffffffffffff808316818103611dd557611dd5611ca8565b600101939250505056fea2646970667358221220f9cd91da68eb5e63b030ac872fc94af6545fa74c579bc9665e4e0d593df87fd464736f6c63430008180033a26469706673582212200f8decf5f816ae6a659d47390511fd1b9a6c4f1c2433223126823af54834670d64736f6c63430008180033","opcodes":"PUSH1 0xA0 PUSH1 0x40 MSTORE CALLVALUE DUP1 ISZERO PUSH2 0x10 JUMPI PUSH1 0x0 DUP1 REVERT JUMPDEST POP CALLER PUSH1 0x80 MSTORE PUSH1 0x80 MLOAD PUSH2 0x32FB PUSH2 0x44 PUSH1 0x0 CODECOPY PUSH1 0x0 DUP2 DUP2 PUSH1 0x92 ADD MSTORE DUP2 DUP2 PUSH2 0x241 ADD MSTORE DUP2 DUP2 PUSH2 0x5B5 ADD MSTORE PUSH2 0x67D ADD MSTORE PUSH2 0x32FB PUSH1 0x0 RETURN INVALID PUSH1 0x80 PUSH1 0x40 MSTORE CALLVALUE DUP1 ISZERO PUSH2 0x10 JUMPI PUSH1 0x0 DUP1 REVERT JUMPDEST POP PUSH1 0x4 CALLDATASIZE LT PUSH2 0x88 JUMPI PUSH1 0x0 CALLDATALOAD PUSH1 0xE0 SHR DUP1 PUSH4 0xC9C65396 GT PUSH2 0x5B JUMPI DUP1 PUSH4 0xC9C65396 EQ PUSH2 0x14B JUMPI DUP1 PUSH4 0xDDCA3F43 EQ PUSH2 0x17E JUMPI DUP1 PUSH4 0xF06675A8 EQ PUSH2 0x198 JUMPI DUP1 PUSH4 0xF519E79F EQ PUSH2 0x1B8 JUMPI PUSH1 0x0 DUP1 REVERT JUMPDEST DUP1 PUSH4 0x17E7E58 EQ PUSH2 0x8D JUMPI DUP1 PUSH4 0x3BD07D27 EQ PUSH2 0xD1 JUMPI DUP1 PUSH4 0x7240976C EQ PUSH2 0xE4 JUMPI DUP1 PUSH4 0xB2EE08DA EQ PUSH2 0x115 JUMPI JUMPDEST PUSH1 0x0 DUP1 REVERT JUMPDEST PUSH2 0xB4 PUSH32 0x0 DUP2 JUMP JUMPDEST PUSH1 0x40 MLOAD PUSH1 0x1 PUSH1 0x1 PUSH1 0xA0 SHL SUB SWAP1 SWAP2 AND DUP2 MSTORE PUSH1 0x20 ADD JUMPDEST PUSH1 0x40 MLOAD DUP1 SWAP2 SUB SWAP1 RETURN JUMPDEST PUSH2 0xB4 PUSH2 0xDF CALLDATASIZE PUSH1 0x4 PUSH2 0xE87 JUMP JUMPDEST PUSH2 0x1D8 JUMP JUMPDEST PUSH2 0xB4 PUSH2 0xF2 CALLDATASIZE PUSH1 0x4 PUSH2 0xE87 JUMP JUMPDEST PUSH1 0x0 PUSH1 0x20 DUP2 DUP2 MSTORE SWAP3 DUP2 MSTORE PUSH1 0x40 DUP1 DUP3 KECCAK256 SWAP1 SWAP4 MSTORE SWAP1 DUP2 MSTORE KECCAK256 SLOAD PUSH1 0x1 PUSH1 0x1 PUSH1 0xA0 SHL SUB AND DUP2 JUMP JUMPDEST PUSH2 0xB4 PUSH2 0x123 CALLDATASIZE PUSH1 0x4 PUSH2 0xE87 JUMP JUMPDEST PUSH1 0x1 PUSH1 0x1 PUSH1 0xA0 SHL SUB SWAP2 DUP3 AND PUSH1 0x0 SWAP1 DUP2 MSTORE PUSH1 0x20 DUP2 DUP2 MSTORE PUSH1 0x40 DUP1 DUP4 KECCAK256 SWAP4 DUP6 AND DUP4 MSTORE SWAP3 SWAP1 MSTORE KECCAK256 SLOAD AND SWAP1 JUMP JUMPDEST PUSH2 0x15E PUSH2 0x159 CALLDATASIZE PUSH1 0x4 PUSH2 0xE87 JUMP JUMPDEST PUSH2 0x300 JUMP JUMPDEST PUSH1 0x40 DUP1 MLOAD PUSH1 0x1 PUSH1 0x1 PUSH1 0xA0 SHL SUB SWAP4 DUP5 AND DUP2 MSTORE SWAP3 SWAP1 SWAP2 AND PUSH1 0x20 DUP4 ADD MSTORE ADD PUSH2 0xC8 JUMP JUMPDEST PUSH2 0x186 PUSH1 0x64 DUP2 JUMP JUMPDEST PUSH1 0x40 MLOAD PUSH1 0xFF SWAP1 SWAP2 AND DUP2 MSTORE PUSH1 0x20 ADD PUSH2 0xC8 JUMP JUMPDEST PUSH2 0x1AB PUSH2 0x1A6 CALLDATASIZE PUSH1 0x4 PUSH2 0xED4 JUMP JUMPDEST PUSH2 0x75E JUMP JUMPDEST PUSH1 0x40 MLOAD PUSH2 0xC8 SWAP2 SWAP1 PUSH2 0xF25 JUMP JUMPDEST PUSH2 0x1CB PUSH2 0x1C6 CALLDATASIZE PUSH1 0x4 PUSH2 0xFA3 JUMP JUMPDEST PUSH2 0xA35 JUMP JUMPDEST PUSH1 0x40 MLOAD PUSH2 0xC8 SWAP2 SWAP1 PUSH2 0xFE3 JUMP JUMPDEST PUSH1 0x0 DUP1 DUP4 DUP4 PUSH1 0x40 MLOAD PUSH1 0x20 ADD PUSH2 0x1EE SWAP3 SWAP2 SWAP1 PUSH2 0x10B7 JUMP JUMPDEST PUSH1 0x40 MLOAD PUSH1 0x20 DUP2 DUP4 SUB SUB DUP2 MSTORE SWAP1 PUSH1 0x40 MSTORE DUP1 MLOAD SWAP1 PUSH1 0x20 ADD KECCAK256 SWAP1 POP PUSH1 0x0 PUSH1 0xFF PUSH1 0xF8 SHL ADDRESS DUP4 PUSH1 0x40 MLOAD DUP1 PUSH1 0x20 ADD PUSH2 0x21F SWAP1 PUSH2 0xE0E JUMP JUMPDEST PUSH1 0x1F NOT DUP3 DUP3 SUB DUP2 ADD DUP4 MSTORE PUSH1 0x1F SWAP1 SWAP2 ADD AND PUSH1 0x40 DUP2 SWAP1 MSTORE PUSH2 0x269 SWAP1 DUP11 SWAP1 DUP11 SWAP1 PUSH1 0x64 SWAP1 PUSH32 0x0 SWAP1 PUSH1 0x20 ADD PUSH2 0x10D9 JUMP JUMPDEST PUSH1 0x40 DUP1 MLOAD PUSH1 0x1F NOT DUP2 DUP5 SUB ADD DUP2 MSTORE SWAP1 DUP3 SWAP1 MSTORE PUSH2 0x287 SWAP3 SWAP2 PUSH1 0x20 ADD PUSH2 0x1137 JUMP JUMPDEST PUSH1 0x40 MLOAD PUSH1 0x20 DUP2 DUP4 SUB SUB DUP2 MSTORE SWAP1 PUSH1 0x40 MSTORE DUP1 MLOAD SWAP1 PUSH1 0x20 ADD KECCAK256 PUSH1 0x40 MLOAD PUSH1 0x20 ADD PUSH2 0x2DF SWAP5 SWAP4 SWAP3 SWAP2 SWAP1 PUSH1 0x1 PUSH1 0x1 PUSH1 0xF8 SHL SUB NOT SWAP5 SWAP1 SWAP5 AND DUP5 MSTORE PUSH1 0x60 SWAP3 SWAP1 SWAP3 SHL PUSH1 0x1 PUSH1 0x1 PUSH1 0x60 SHL SUB NOT AND PUSH1 0x1 DUP5 ADD MSTORE PUSH1 0x15 DUP4 ADD MSTORE PUSH1 0x35 DUP3 ADD MSTORE PUSH1 0x55 ADD SWAP1 JUMP JUMPDEST PUSH1 0x40 DUP1 MLOAD DUP1 DUP4 SUB PUSH1 0x1F NOT ADD DUP2 MSTORE SWAP2 SWAP1 MSTORE DUP1 MLOAD PUSH1 0x20 SWAP1 SWAP2 ADD KECCAK256 SWAP6 SWAP5 POP POP POP POP POP JUMP JUMPDEST PUSH1 0x0 DUP1 DUP3 PUSH1 0x1 PUSH1 0x1 PUSH1 0xA0 SHL SUB AND DUP5 PUSH1 0x1 PUSH1 0x1 PUSH1 0xA0 SHL SUB AND SUB PUSH2 0x38F JUMPI PUSH1 0x40 MLOAD PUSH3 0x461BCD PUSH1 0xE5 SHL DUP2 MSTORE PUSH1 0x20 PUSH1 0x4 DUP3 ADD MSTORE PUSH1 0x3F PUSH1 0x24 DUP3 ADD MSTORE PUSH32 0x5472616465536572766963653A20637265617465506169723A3A20746F6B656E PUSH1 0x44 DUP3 ADD MSTORE PUSH32 0x4120616E6420746F6B656E422063616E6E6F74206265207468652073616D6500 PUSH1 0x64 DUP3 ADD MSTORE PUSH1 0x84 ADD JUMPDEST PUSH1 0x40 MLOAD DUP1 SWAP2 SUB SWAP1 REVERT JUMPDEST PUSH1 0x1 PUSH1 0x1 PUSH1 0xA0 SHL SUB DUP5 AND PUSH2 0x3FB JUMPI PUSH1 0x40 MLOAD PUSH3 0x461BCD PUSH1 0xE5 SHL DUP2 MSTORE PUSH1 0x20 PUSH1 0x4 DUP3 ADD MSTORE PUSH1 0x2D PUSH1 0x24 DUP3 ADD MSTORE PUSH32 0x5472616465536572766963653A20637265617465506169723A3A20746F6B656E PUSH1 0x44 DUP3 ADD MSTORE PUSH13 0x412063616E6E6F74206265203 PUSH1 0x9C SHL PUSH1 0x64 DUP3 ADD MSTORE PUSH1 0x84 ADD PUSH2 0x386 JUMP JUMPDEST PUSH1 0x1 PUSH1 0x1 PUSH1 0xA0 SHL SUB DUP4 AND PUSH2 0x467 JUMPI PUSH1 0x40 MLOAD PUSH3 0x461BCD PUSH1 0xE5 SHL DUP2 MSTORE PUSH1 0x20 PUSH1 0x4 DUP3 ADD MSTORE PUSH1 0x2D PUSH1 0x24 DUP3 ADD MSTORE PUSH32 0x5472616465536572766963653A20637265617465506169723A3A20746F6B656E PUSH1 0x44 DUP3 ADD MSTORE PUSH13 0x422063616E6E6F74206265203 PUSH1 0x9C SHL PUSH1 0x64 DUP3 ADD MSTORE PUSH1 0x84 ADD PUSH2 0x386 JUMP JUMPDEST PUSH1 0x1 PUSH1 0x1 PUSH1 0xA0 SHL SUB DUP5 DUP2 AND PUSH1 0x0 SWAP1 DUP2 MSTORE PUSH1 0x20 DUP2 DUP2 MSTORE PUSH1 0x40 DUP1 DUP4 KECCAK256 DUP8 DUP6 AND DUP5 MSTORE SWAP1 SWAP2 MSTORE SWAP1 KECCAK256 SLOAD AND ISZERO PUSH2 0x4F3 JUMPI PUSH1 0x40 MLOAD PUSH3 0x461BCD PUSH1 0xE5 SHL DUP2 MSTORE PUSH1 0x20 PUSH1 0x4 DUP3 ADD MSTORE PUSH1 0x30 PUSH1 0x24 DUP3 ADD MSTORE PUSH32 0x5472616465536572766963653A20637265617465506169723A3A207472616465 PUSH1 0x44 DUP3 ADD MSTORE PUSH16 0x105088185B1C9958591E48195E1A5CDD PUSH1 0x82 SHL PUSH1 0x64 DUP3 ADD MSTORE PUSH1 0x84 ADD PUSH2 0x386 JUMP JUMPDEST PUSH1 0x1 PUSH1 0x1 PUSH1 0xA0 SHL SUB DUP4 DUP2 AND PUSH1 0x0 SWAP1 DUP2 MSTORE PUSH1 0x20 DUP2 DUP2 MSTORE PUSH1 0x40 DUP1 DUP4 KECCAK256 DUP9 DUP6 AND DUP5 MSTORE SWAP1 SWAP2 MSTORE SWAP1 KECCAK256 SLOAD AND ISZERO PUSH2 0x57F JUMPI PUSH1 0x40 MLOAD PUSH3 0x461BCD PUSH1 0xE5 SHL DUP2 MSTORE PUSH1 0x20 PUSH1 0x4 DUP3 ADD MSTORE PUSH1 0x30 PUSH1 0x24 DUP3 ADD MSTORE PUSH32 0x5472616465536572766963653A20637265617465506169723A3A207472616465 PUSH1 0x44 DUP3 ADD MSTORE PUSH16 0x109048185B1C9958591E48195E1A5CDD PUSH1 0x82 SHL PUSH1 0x64 DUP3 ADD MSTORE PUSH1 0x84 ADD PUSH2 0x386 JUMP JUMPDEST PUSH1 0x0 DUP5 DUP5 PUSH1 0x40 MLOAD PUSH1 0x20 ADD PUSH2 0x594 SWAP3 SWAP2 SWAP1 PUSH2 0x10B7 JUMP JUMPDEST PUSH1 0x40 MLOAD PUSH1 0x20 DUP2 DUP4 SUB SUB DUP2 MSTORE SWAP1 PUSH1 0x40 MSTORE DUP1 MLOAD SWAP1 PUSH1 0x20 ADD KECCAK256 SWAP1 POP PUSH1 0x0 DUP2 DUP7 DUP7 PUSH1 0x64 PUSH32 0x0 PUSH1 0x40 MLOAD PUSH2 0x5E0 SWAP1 PUSH2 0xE0E JUMP JUMPDEST PUSH2 0x5ED SWAP5 SWAP4 SWAP3 SWAP2 SWAP1 PUSH2 0x10D9 JUMP JUMPDEST DUP2 SWAP1 PUSH1 0x40 MLOAD DUP1 SWAP2 SUB SWAP1 PUSH1 0x0 CREATE2 SWAP1 POP DUP1 ISZERO DUP1 ISZERO PUSH2 0x60D JUMPI RETURNDATASIZE PUSH1 0x0 DUP1 RETURNDATACOPY RETURNDATASIZE PUSH1 0x0 REVERT JUMPDEST POP PUSH1 0x1 PUSH1 0x1 PUSH1 0xA0 SHL SUB DUP8 DUP2 AND PUSH1 0x0 SWAP1 DUP2 MSTORE PUSH1 0x20 DUP2 DUP2 MSTORE PUSH1 0x40 DUP1 DUP4 KECCAK256 DUP11 DUP6 AND DUP5 MSTORE DUP3 MSTORE SWAP2 DUP3 SWAP1 KECCAK256 DUP1 SLOAD PUSH1 0x1 PUSH1 0x1 PUSH1 0xA0 SHL SUB NOT AND SWAP4 DUP6 AND SWAP4 SWAP1 SWAP4 OR SWAP1 SWAP3 SSTORE MLOAD SWAP2 SWAP6 POP DUP6 SWAP3 POP PUSH2 0x65E SWAP2 DUP8 SWAP2 DUP10 SWAP2 ADD PUSH2 0x10B7 JUMP JUMPDEST PUSH1 0x40 MLOAD PUSH1 0x20 DUP2 DUP4 SUB SUB DUP2 MSTORE SWAP1 PUSH1 0x40 MSTORE DUP1 MLOAD SWAP1 PUSH1 0x20 ADD KECCAK256 SWAP2 POP DUP2 DUP6 DUP8 PUSH1 0x64 PUSH32 0x0 PUSH1 0x40 MLOAD PUSH2 0x6A8 SWAP1 PUSH2 0xE0E JUMP JUMPDEST PUSH2 0x6B5 SWAP5 SWAP4 SWAP3 SWAP2 SWAP1 PUSH2 0x10D9 JUMP JUMPDEST DUP2 SWAP1 PUSH1 0x40 MLOAD DUP1 SWAP2 SUB SWAP1 PUSH1 0x0 CREATE2 SWAP1 POP DUP1 ISZERO DUP1 ISZERO PUSH2 0x6D5 JUMPI RETURNDATASIZE PUSH1 0x0 DUP1 RETURNDATACOPY RETURNDATASIZE PUSH1 0x0 REVERT JUMPDEST POP PUSH1 0x1 PUSH1 0x1 PUSH1 0xA0 SHL SUB DUP7 DUP2 AND PUSH1 0x0 DUP2 DUP2 MSTORE PUSH1 0x20 DUP2 DUP2 MSTORE PUSH1 0x40 DUP1 DUP4 KECCAK256 DUP13 DUP7 AND DUP1 DUP6 MSTORE SWAP1 DUP4 MSTORE SWAP3 DUP2 SWAP1 KECCAK256 DUP1 SLOAD PUSH1 0x1 PUSH1 0x1 PUSH1 0xA0 SHL SUB NOT AND DUP8 DUP8 AND SWAP1 DUP2 OR SWAP1 SWAP2 SSTORE DUP2 MLOAD SWAP6 DUP12 AND DUP7 MSTORE SWAP2 DUP6 ADD SWAP2 SWAP1 SWAP2 MSTORE SWAP4 SWAP7 POP DUP7 SWAP5 POP SWAP1 SWAP3 SWAP1 SWAP2 PUSH32 0x528A7392E6FD550C4DE9E894C55879CD7A03E87F1AC9DDAFE8677A2AC1D8CF9F SWAP2 ADD PUSH1 0x40 MLOAD DUP1 SWAP2 SUB SWAP1 LOG3 POP POP SWAP3 POP SWAP3 SWAP1 POP JUMP JUMPDEST PUSH1 0x60 PUSH1 0x0 DUP3 PUSH1 0xFF AND PUSH8 0xFFFFFFFFFFFFFFFF DUP2 GT ISZERO PUSH2 0x77E JUMPI PUSH2 0x77E PUSH2 0x1154 JUMP JUMPDEST PUSH1 0x40 MLOAD SWAP1 DUP1 DUP3 MSTORE DUP1 PUSH1 0x20 MUL PUSH1 0x20 ADD DUP3 ADD PUSH1 0x40 MSTORE DUP1 ISZERO PUSH2 0x7D0 JUMPI DUP2 PUSH1 0x20 ADD JUMPDEST PUSH1 0x40 DUP1 MLOAD PUSH1 0x80 DUP2 ADD DUP3 MSTORE PUSH1 0x0 DUP1 DUP3 MSTORE PUSH1 0x20 DUP1 DUP4 ADD DUP3 SWAP1 MSTORE SWAP3 DUP3 ADD DUP2 SWAP1 MSTORE PUSH1 0x60 DUP3 ADD MSTORE DUP3 MSTORE PUSH1 0x0 NOT SWAP1 SWAP3 ADD SWAP2 ADD DUP2 PUSH2 0x79C JUMPI SWAP1 POP JUMPDEST POP SWAP1 POP DUP5 PUSH6 0xFFFFFFFFFFFF DUP6 AND PUSH1 0x0 SUB PUSH2 0x849 JUMPI DUP1 PUSH1 0x1 PUSH1 0x1 PUSH1 0xA0 SHL SUB AND PUSH4 0x99A3BD23 PUSH1 0x40 MLOAD DUP2 PUSH4 0xFFFFFFFF AND PUSH1 0xE0 SHL DUP2 MSTORE PUSH1 0x4 ADD PUSH1 0x20 PUSH1 0x40 MLOAD DUP1 DUP4 SUB DUP2 DUP7 GAS STATICCALL ISZERO DUP1 ISZERO PUSH2 0x822 JUMPI RETURNDATASIZE PUSH1 0x0 DUP1 RETURNDATACOPY RETURNDATASIZE PUSH1 0x0 REVERT JUMPDEST POP POP POP POP PUSH1 0x40 MLOAD RETURNDATASIZE PUSH1 0x1F NOT PUSH1 0x1F DUP3 ADD AND DUP3 ADD DUP1 PUSH1 0x40 MSTORE POP DUP2 ADD SWAP1 PUSH2 0x846 SWAP2 SWAP1 PUSH2 0x117A JUMP JUMPDEST SWAP5 POP JUMPDEST PUSH1 0x40 MLOAD PUSH4 0x3E710CD5 PUSH1 0xE1 SHL DUP2 MSTORE PUSH6 0xFFFFFFFFFFFF DUP7 AND PUSH1 0x4 DUP3 ADD MSTORE PUSH1 0x0 SWAP1 PUSH1 0x1 PUSH1 0x1 PUSH1 0xA0 SHL SUB DUP4 AND SWAP1 PUSH4 0x7CE219AA SWAP1 PUSH1 0x24 ADD PUSH1 0xC0 PUSH1 0x40 MLOAD DUP1 DUP4 SUB DUP2 DUP7 GAS STATICCALL ISZERO DUP1 ISZERO PUSH2 0x898 JUMPI RETURNDATASIZE PUSH1 0x0 DUP1 RETURNDATACOPY RETURNDATASIZE PUSH1 0x0 REVERT JUMPDEST POP POP POP POP PUSH1 0x40 MLOAD RETURNDATASIZE PUSH1 0x1F NOT PUSH1 0x1F DUP3 ADD AND DUP3 ADD DUP1 PUSH1 0x40 MSTORE POP DUP2 ADD SWAP1 PUSH2 0x8BC SWAP2 SWAP1 PUSH2 0x11CD JUMP JUMPDEST SWAP1 POP PUSH1 0x40 MLOAD DUP1 PUSH1 0x80 ADD PUSH1 0x40 MSTORE DUP1 DUP8 PUSH6 0xFFFFFFFFFFFF AND DUP2 MSTORE PUSH1 0x20 ADD DUP3 PUSH1 0x60 ADD MLOAD PUSH1 0x1 PUSH1 0x1 PUSH1 0x70 SHL SUB AND DUP2 MSTORE PUSH1 0x20 ADD DUP3 PUSH1 0x80 ADD MLOAD PUSH1 0x1 PUSH1 0x1 PUSH1 0x70 SHL SUB AND DUP2 MSTORE PUSH1 0x20 ADD DUP3 PUSH1 0xA0 ADD MLOAD PUSH4 0xFFFFFFFF AND DUP2 MSTORE POP DUP4 PUSH1 0x0 DUP2 MLOAD DUP2 LT PUSH2 0x91E JUMPI PUSH2 0x91E PUSH2 0x127A JUMP JUMPDEST PUSH1 0x20 SWAP1 DUP2 MUL SWAP2 SWAP1 SWAP2 ADD ADD MSTORE PUSH1 0x1 JUMPDEST DUP6 PUSH1 0xFF AND DUP2 PUSH1 0xFF AND LT ISZERO PUSH2 0xA27 JUMPI PUSH1 0x20 DUP3 ADD MLOAD PUSH1 0x40 MLOAD PUSH4 0x3E710CD5 PUSH1 0xE1 SHL DUP2 MSTORE PUSH6 0xFFFFFFFFFFFF DUP3 AND PUSH1 0x4 DUP3 ADD MSTORE PUSH1 0x1 PUSH1 0x1 PUSH1 0xA0 SHL SUB DUP6 AND SWAP1 PUSH4 0x7CE219AA SWAP1 PUSH1 0x24 ADD PUSH1 0xC0 PUSH1 0x40 MLOAD DUP1 DUP4 SUB DUP2 DUP7 GAS STATICCALL ISZERO DUP1 ISZERO PUSH2 0x98B JUMPI RETURNDATASIZE PUSH1 0x0 DUP1 RETURNDATACOPY RETURNDATASIZE PUSH1 0x0 REVERT JUMPDEST POP POP POP POP PUSH1 0x40 MLOAD RETURNDATASIZE PUSH1 0x1F NOT PUSH1 0x1F DUP3 ADD AND DUP3 ADD DUP1 PUSH1 0x40 MSTORE POP DUP2 ADD SWAP1 PUSH2 0x9AF SWAP2 SWAP1 PUSH2 0x11CD JUMP JUMPDEST SWAP3 POP PUSH1 0x40 MLOAD DUP1 PUSH1 0x80 ADD PUSH1 0x40 MSTORE DUP1 DUP3 PUSH6 0xFFFFFFFFFFFF AND DUP2 MSTORE PUSH1 0x20 ADD DUP5 PUSH1 0x60 ADD MLOAD PUSH1 0x1 PUSH1 0x1 PUSH1 0x70 SHL SUB AND DUP2 MSTORE PUSH1 0x20 ADD DUP5 PUSH1 0x80 ADD MLOAD PUSH1 0x1 PUSH1 0x1 PUSH1 0x70 SHL SUB AND DUP2 MSTORE PUSH1 0x20 ADD DUP5 PUSH1 0xA0 ADD MLOAD PUSH4 0xFFFFFFFF AND DUP2 MSTORE POP DUP6 DUP4 PUSH1 0xFF AND DUP2 MLOAD DUP2 LT PUSH2 0xA13 JUMPI PUSH2 0xA13 PUSH2 0x127A JUMP JUMPDEST PUSH1 0x20 SWAP1 DUP2 MUL SWAP2 SWAP1 SWAP2 ADD ADD MSTORE POP PUSH1 0x1 ADD PUSH2 0x92C JUMP JUMPDEST POP SWAP2 SWAP3 POP POP POP JUMPDEST SWAP4 SWAP3 POP POP POP JUMP JUMPDEST PUSH1 0x60 PUSH1 0x0 DUP3 PUSH6 0xFFFFFFFFFFFF AND PUSH8 0xFFFFFFFFFFFFFFFF DUP2 GT ISZERO PUSH2 0xA5A JUMPI PUSH2 0xA5A PUSH2 0x1154 JUMP JUMPDEST PUSH1 0x40 MLOAD SWAP1 DUP1 DUP3 MSTORE DUP1 PUSH1 0x20 MUL PUSH1 0x20 ADD DUP3 ADD PUSH1 0x40 MSTORE DUP1 ISZERO PUSH2 0xA93 JUMPI DUP2 PUSH1 0x20 ADD JUMPDEST PUSH2 0xA80 PUSH2 0xE1B JUMP JUMPDEST DUP2 MSTORE PUSH1 0x20 ADD SWAP1 PUSH1 0x1 SWAP1 SUB SWAP1 DUP2 PUSH2 0xA78 JUMPI SWAP1 POP JUMPDEST POP SWAP1 POP DUP4 PUSH6 0xFFFFFFFFFFFF AND PUSH1 0x0 SUB PUSH2 0xACA JUMPI PUSH1 0x1 PUSH1 0x1 PUSH1 0xA0 SHL SUB DUP6 AND PUSH1 0x0 SWAP1 DUP2 MSTORE PUSH1 0x2 PUSH1 0x20 MSTORE PUSH1 0x40 SWAP1 KECCAK256 SLOAD PUSH6 0xFFFFFFFFFFFF AND SWAP4 POP JUMPDEST DUP4 PUSH6 0xFFFFFFFFFFFF AND PUSH1 0x0 SUB PUSH2 0xAE1 JUMPI SWAP1 POP PUSH2 0xA2E JUMP JUMPDEST DUP4 JUMPDEST PUSH6 0xFFFFFFFFFFFF DUP5 AND PUSH2 0xAF6 DUP3 DUP8 PUSH2 0x12A6 JUMP JUMPDEST PUSH6 0xFFFFFFFFFFFF AND LT ISZERO PUSH2 0xC1E JUMPI PUSH1 0x0 PUSH1 0x1 PUSH1 0x0 PUSH2 0xB14 DUP10 DUP6 PUSH2 0xC27 JUMP JUMPDEST PUSH6 0xFFFFFFFFFFFF NOT AND DUP2 MSTORE PUSH1 0x20 DUP1 DUP3 ADD SWAP3 SWAP1 SWAP3 MSTORE PUSH1 0x40 SWAP1 DUP2 ADD PUSH1 0x0 SWAP1 DUP2 KECCAK256 DUP3 MLOAD PUSH1 0x60 DUP2 ADD DUP5 MSTORE SWAP1 SLOAD PUSH1 0x1 PUSH1 0x1 PUSH1 0xA0 SHL SUB DUP2 AND DUP1 DUP4 MSTORE PUSH6 0xFFFFFFFFFFFF PUSH1 0x1 PUSH1 0xA0 SHL DUP4 DIV AND SWAP6 DUP4 ADD DUP7 SWAP1 MSTORE PUSH1 0x1 PUSH1 0xD0 SHL SWAP1 SWAP2 DIV PUSH4 0xFFFFFFFF AND DUP3 DUP6 ADD MSTORE SWAP3 MLOAD PUSH4 0x3E710CD5 PUSH1 0xE1 SHL DUP2 MSTORE PUSH1 0x4 DUP2 ADD SWAP5 SWAP1 SWAP5 MSTORE SWAP4 POP SWAP2 PUSH4 0x7CE219AA SWAP1 PUSH1 0x24 ADD PUSH1 0xC0 PUSH1 0x40 MLOAD DUP1 DUP4 SUB DUP2 DUP7 GAS STATICCALL ISZERO DUP1 ISZERO PUSH2 0xBAD JUMPI RETURNDATASIZE PUSH1 0x0 DUP1 RETURNDATACOPY RETURNDATASIZE PUSH1 0x0 REVERT JUMPDEST POP POP POP POP PUSH1 0x40 MLOAD RETURNDATASIZE PUSH1 0x1F NOT PUSH1 0x1F DUP3 ADD AND DUP3 ADD DUP1 PUSH1 0x40 MSTORE POP DUP2 ADD SWAP1 PUSH2 0xBD1 SWAP2 SWAP1 PUSH2 0x11CD JUMP JUMPDEST SWAP1 POP PUSH2 0xBDD DUP3 DUP3 PUSH2 0xC70 JUMP JUMPDEST DUP5 PUSH2 0xBE8 DUP6 DUP11 PUSH2 0x12A6 JUMP JUMPDEST PUSH6 0xFFFFFFFFFFFF AND DUP2 MLOAD DUP2 LT PUSH2 0xC00 JUMPI PUSH2 0xC00 PUSH2 0x127A JUMP JUMPDEST PUSH1 0x20 MUL PUSH1 0x20 ADD ADD DUP2 SWAP1 MSTORE POP POP POP DUP1 PUSH2 0xC17 SWAP1 PUSH2 0x12CC JUMP JUMPDEST SWAP1 POP PUSH2 0xAE3 JUMP JUMPDEST POP SWAP5 SWAP4 POP POP POP POP JUMP JUMPDEST PUSH1 0x40 MLOAD PUSH1 0x1 PUSH1 0x1 PUSH1 0x60 SHL SUB NOT PUSH1 0x60 DUP5 SWAP1 SHL AND PUSH1 0x20 DUP3 ADD MSTORE PUSH1 0x1 PUSH1 0x1 PUSH1 0xD0 SHL SUB NOT PUSH1 0xD0 DUP4 SWAP1 SHL AND PUSH1 0x34 DUP3 ADD MSTORE PUSH1 0x0 SWAP1 PUSH1 0x3A ADD PUSH1 0x40 MLOAD PUSH1 0x20 DUP2 DUP4 SUB SUB DUP2 MSTORE SWAP1 PUSH1 0x40 MSTORE PUSH2 0xA2E SWAP1 PUSH2 0x12EE JUMP JUMPDEST PUSH2 0xC78 PUSH2 0xE1B JUMP JUMPDEST PUSH1 0x40 MLOAD DUP1 PUSH2 0x140 ADD PUSH1 0x40 MSTORE DUP1 DUP5 PUSH1 0x0 ADD MLOAD PUSH1 0x1 PUSH1 0x1 PUSH1 0xA0 SHL SUB AND DUP2 MSTORE PUSH1 0x20 ADD DUP5 PUSH1 0x0 ADD MLOAD PUSH1 0x1 PUSH1 0x1 PUSH1 0xA0 SHL SUB AND PUSH4 0xDFE1681 PUSH1 0x40 MLOAD DUP2 PUSH4 0xFFFFFFFF AND PUSH1 0xE0 SHL DUP2 MSTORE PUSH1 0x4 ADD PUSH1 0x20 PUSH1 0x40 MLOAD DUP1 DUP4 SUB DUP2 DUP7 GAS STATICCALL ISZERO DUP1 ISZERO PUSH2 0xCD9 JUMPI RETURNDATASIZE PUSH1 0x0 DUP1 RETURNDATACOPY RETURNDATASIZE PUSH1 0x0 REVERT JUMPDEST POP POP POP POP PUSH1 0x40 MLOAD RETURNDATASIZE PUSH1 0x1F NOT PUSH1 0x1F DUP3 ADD AND DUP3 ADD DUP1 PUSH1 0x40 MSTORE POP DUP2 ADD SWAP1 PUSH2 0xCFD SWAP2 SWAP1 PUSH2 0x1324 JUMP JUMPDEST PUSH1 0x1 PUSH1 0x1 PUSH1 0xA0 SHL SUB AND DUP2 MSTORE PUSH1 0x20 ADD DUP5 PUSH1 0x0 ADD MLOAD PUSH1 0x1 PUSH1 0x1 PUSH1 0xA0 SHL SUB AND PUSH4 0xD21220A7 PUSH1 0x40 MLOAD DUP2 PUSH4 0xFFFFFFFF AND PUSH1 0xE0 SHL DUP2 MSTORE PUSH1 0x4 ADD PUSH1 0x20 PUSH1 0x40 MLOAD DUP1 DUP4 SUB DUP2 DUP7 GAS STATICCALL ISZERO DUP1 ISZERO PUSH2 0xD4D JUMPI RETURNDATASIZE PUSH1 0x0 DUP1 RETURNDATACOPY RETURNDATASIZE PUSH1 0x0 REVERT JUMPDEST POP POP POP POP PUSH1 0x40 MLOAD RETURNDATASIZE PUSH1 0x1F NOT PUSH1 0x1F DUP3 ADD AND DUP3 ADD DUP1 PUSH1 0x40 MSTORE POP DUP2 ADD SWAP1 PUSH2 0xD71 SWAP2 SWAP1 PUSH2 0x1324 JUMP JUMPDEST PUSH1 0x1 PUSH1 0x1 PUSH1 0xA0 SHL SUB AND DUP2 MSTORE PUSH1 0x20 ADD DUP5 PUSH1 0x20 ADD MLOAD PUSH6 0xFFFFFFFFFFFF AND DUP2 MSTORE PUSH1 0x20 ADD DUP5 PUSH1 0x40 ADD MLOAD PUSH4 0xFFFFFFFF AND DUP2 MSTORE PUSH1 0x20 ADD DUP4 PUSH1 0x40 ADD MLOAD PUSH1 0x1 PUSH1 0x1 PUSH1 0xA0 SHL SUB AND DUP2 MSTORE PUSH1 0x20 ADD DUP4 PUSH1 0x60 ADD MLOAD PUSH1 0x1 PUSH1 0x1 PUSH1 0x70 SHL SUB AND DUP2 MSTORE PUSH1 0x20 ADD DUP4 PUSH1 0x80 ADD MLOAD PUSH1 0x1 PUSH1 0x1 PUSH1 0x70 SHL SUB AND DUP2 MSTORE PUSH1 0x20 ADD DUP4 PUSH1 0xA0 ADD MLOAD PUSH4 0xFFFFFFFF AND DUP2 MSTORE PUSH1 0x20 ADD PUSH6 0xFFFFFFFFFFFF DUP1 AND DUP5 PUSH1 0x0 ADD MLOAD PUSH6 0xFFFFFFFFFFFF AND EQ ISZERO ISZERO DUP2 MSTORE POP SWAP1 POP SWAP3 SWAP2 POP POP JUMP JUMPDEST PUSH2 0x1F84 DUP1 PUSH2 0x1342 DUP4 CODECOPY ADD SWAP1 JUMP JUMPDEST PUSH1 0x40 DUP1 MLOAD PUSH2 0x140 DUP2 ADD DUP3 MSTORE PUSH1 0x0 DUP1 DUP3 MSTORE PUSH1 0x20 DUP3 ADD DUP2 SWAP1 MSTORE SWAP2 DUP2 ADD DUP3 SWAP1 MSTORE PUSH1 0x60 DUP2 ADD DUP3 SWAP1 MSTORE PUSH1 0x80 DUP2 ADD DUP3 SWAP1 MSTORE PUSH1 0xA0 DUP2 ADD DUP3 SWAP1 MSTORE PUSH1 0xC0 DUP2 ADD DUP3 SWAP1 MSTORE PUSH1 0xE0 DUP2 ADD DUP3 SWAP1 MSTORE PUSH2 0x100 DUP2 ADD DUP3 SWAP1 MSTORE PUSH2 0x120 DUP2 ADD SWAP2 SWAP1 SWAP2 MSTORE SWAP1 JUMP JUMPDEST PUSH1 0x1 PUSH1 0x1 PUSH1 0xA0 SHL SUB DUP2 AND DUP2 EQ PUSH2 0xE84 JUMPI PUSH1 0x0 DUP1 REVERT JUMPDEST POP JUMP JUMPDEST PUSH1 0x0 DUP1 PUSH1 0x40 DUP4 DUP6 SUB SLT ISZERO PUSH2 0xE9A JUMPI PUSH1 0x0 DUP1 REVERT JUMPDEST DUP3 CALLDATALOAD PUSH2 0xEA5 DUP2 PUSH2 0xE6F JUMP JUMPDEST SWAP2 POP PUSH1 0x20 DUP4 ADD CALLDATALOAD PUSH2 0xEB5 DUP2 PUSH2 0xE6F JUMP JUMPDEST DUP1 SWAP2 POP POP SWAP3 POP SWAP3 SWAP1 POP JUMP JUMPDEST PUSH6 0xFFFFFFFFFFFF DUP2 AND DUP2 EQ PUSH2 0xE84 JUMPI PUSH1 0x0 DUP1 REVERT JUMPDEST PUSH1 0x0 DUP1 PUSH1 0x0 PUSH1 0x60 DUP5 DUP7 SUB SLT ISZERO PUSH2 0xEE9 JUMPI PUSH1 0x0 DUP1 REVERT JUMPDEST DUP4 CALLDATALOAD PUSH2 0xEF4 DUP2 PUSH2 0xE6F JUMP JUMPDEST SWAP3 POP PUSH1 0x20 DUP5 ADD CALLDATALOAD PUSH2 0xF04 DUP2 PUSH2 0xEC0 JUMP JUMPDEST SWAP2 POP PUSH1 0x40 DUP5 ADD CALLDATALOAD PUSH1 0xFF DUP2 AND DUP2 EQ PUSH2 0xF1A JUMPI PUSH1 0x0 DUP1 REVERT JUMPDEST DUP1 SWAP2 POP POP SWAP3 POP SWAP3 POP SWAP3 JUMP JUMPDEST PUSH1 0x20 DUP1 DUP3 MSTORE DUP3 MLOAD DUP3 DUP3 ADD DUP2 SWAP1 MSTORE PUSH1 0x0 SWAP2 SWAP1 PUSH1 0x40 SWAP1 DUP2 DUP6 ADD SWAP1 DUP7 DUP5 ADD DUP6 JUMPDEST DUP3 DUP2 LT ISZERO PUSH2 0xF96 JUMPI DUP2 MLOAD DUP1 MLOAD PUSH6 0xFFFFFFFFFFFF AND DUP6 MSTORE DUP7 DUP2 ADD MLOAD PUSH1 0x1 PUSH1 0x1 PUSH1 0x70 SHL SUB SWAP1 DUP2 AND DUP9 DUP8 ADD MSTORE DUP7 DUP3 ADD MLOAD AND DUP7 DUP7 ADD MSTORE PUSH1 0x60 SWAP1 DUP2 ADD MLOAD PUSH4 0xFFFFFFFF AND SWAP1 DUP6 ADD MSTORE PUSH1 0x80 SWAP1 SWAP4 ADD SWAP3 SWAP1 DUP6 ADD SWAP1 PUSH1 0x1 ADD PUSH2 0xF42 JUMP JUMPDEST POP SWAP2 SWAP8 SWAP7 POP POP POP POP POP POP POP JUMP JUMPDEST PUSH1 0x0 DUP1 PUSH1 0x0 PUSH1 0x60 DUP5 DUP7 SUB SLT ISZERO PUSH2 0xFB8 JUMPI PUSH1 0x0 DUP1 REVERT JUMPDEST DUP4 CALLDATALOAD PUSH2 0xFC3 DUP2 PUSH2 0xE6F JUMP JUMPDEST SWAP3 POP PUSH1 0x20 DUP5 ADD CALLDATALOAD PUSH2 0xFD3 DUP2 PUSH2 0xEC0 JUMP JUMPDEST SWAP2 POP PUSH1 0x40 DUP5 ADD CALLDATALOAD PUSH2 0xF1A DUP2 PUSH2 0xEC0 JUMP JUMPDEST PUSH1 0x20 DUP1 DUP3 MSTORE DUP3 MLOAD DUP3 DUP3 ADD DUP2 SWAP1 MSTORE PUSH1 0x0 SWAP2 SWAP1 PUSH1 0x40 SWAP1 DUP2 DUP6 ADD SWAP1 DUP7 DUP5 ADD DUP6 JUMPDEST DUP3 DUP2 LT ISZERO PUSH2 0xF96 JUMPI DUP2 MLOAD DUP1 MLOAD PUSH1 0x1 PUSH1 0x1 PUSH1 0xA0 SHL SUB SWAP1 DUP2 AND DUP7 MSTORE DUP8 DUP3 ADD MLOAD DUP2 AND DUP9 DUP8 ADD MSTORE DUP7 DUP3 ADD MLOAD DUP2 AND DUP8 DUP8 ADD MSTORE PUSH1 0x60 DUP1 DUP4 ADD MLOAD PUSH6 0xFFFFFFFFFFFF AND SWAP1 DUP8 ADD MSTORE PUSH1 0x80 DUP1 DUP4 ADD MLOAD PUSH4 0xFFFFFFFF SWAP1 DUP2 AND SWAP2 DUP9 ADD SWAP2 SWAP1 SWAP2 MSTORE PUSH1 0xA0 DUP1 DUP5 ADD MLOAD SWAP1 SWAP3 AND SWAP2 DUP8 ADD SWAP2 SWAP1 SWAP2 MSTORE PUSH1 0xC0 DUP1 DUP4 ADD MLOAD PUSH1 0x1 PUSH1 0x1 PUSH1 0x70 SHL SUB SWAP1 DUP2 AND SWAP2 DUP9 ADD SWAP2 SWAP1 SWAP2 MSTORE PUSH1 0xE0 DUP1 DUP5 ADD MLOAD SWAP1 SWAP2 AND SWAP1 DUP8 ADD MSTORE PUSH2 0x100 DUP1 DUP4 ADD MLOAD SWAP1 SWAP2 AND SWAP1 DUP7 ADD MSTORE PUSH2 0x120 SWAP1 DUP2 ADD MLOAD ISZERO ISZERO SWAP1 DUP6 ADD MSTORE PUSH2 0x140 SWAP1 SWAP4 ADD SWAP3 SWAP1 DUP6 ADD SWAP1 PUSH1 0x1 ADD PUSH2 0x1000 JUMP JUMPDEST PUSH1 0x1 PUSH1 0x1 PUSH1 0x60 SHL SUB NOT PUSH1 0x60 SWAP4 DUP5 SHL DUP2 AND DUP3 MSTORE SWAP2 SWAP1 SWAP3 SHL AND PUSH1 0x14 DUP3 ADD MSTORE PUSH1 0x28 ADD SWAP1 JUMP JUMPDEST PUSH1 0x1 PUSH1 0x1 PUSH1 0xA0 SHL SUB SWAP5 DUP6 AND DUP2 MSTORE SWAP3 DUP5 AND PUSH1 0x20 DUP5 ADD MSTORE PUSH1 0xFF SWAP2 SWAP1 SWAP2 AND PUSH1 0x40 DUP4 ADD MSTORE SWAP1 SWAP2 AND PUSH1 0x60 DUP3 ADD MSTORE PUSH1 0x80 ADD SWAP1 JUMP JUMPDEST PUSH1 0x0 DUP2 MLOAD PUSH1 0x0 JUMPDEST DUP2 DUP2 LT ISZERO PUSH2 0x1128 JUMPI PUSH1 0x20 DUP2 DUP6 ADD DUP2 ADD MLOAD DUP7 DUP4 ADD MSTORE ADD PUSH2 0x110E JUMP JUMPDEST POP PUSH1 0x0 SWAP4 ADD SWAP3 DUP4 MSTORE POP SWAP1 SWAP2 SWAP1 POP JUMP JUMPDEST PUSH1 0x0 PUSH2 0x114C PUSH2 0x1146 DUP4 DUP7 PUSH2 0x1107 JUMP JUMPDEST DUP5 PUSH2 0x1107 JUMP JUMPDEST SWAP5 SWAP4 POP POP POP POP JUMP JUMPDEST PUSH4 0x4E487B71 PUSH1 0xE0 SHL PUSH1 0x0 MSTORE PUSH1 0x41 PUSH1 0x4 MSTORE PUSH1 0x24 PUSH1 0x0 REVERT JUMPDEST DUP1 MLOAD PUSH2 0x1175 DUP2 PUSH2 0xEC0 JUMP JUMPDEST SWAP2 SWAP1 POP JUMP JUMPDEST PUSH1 0x0 PUSH1 0x20 DUP3 DUP5 SUB SLT ISZERO PUSH2 0x118C JUMPI PUSH1 0x0 DUP1 REVERT JUMPDEST DUP2 MLOAD PUSH2 0xA2E DUP2 PUSH2 0xEC0 JUMP JUMPDEST DUP1 MLOAD PUSH2 0x1175 DUP2 PUSH2 0xE6F JUMP JUMPDEST DUP1 MLOAD PUSH1 0x1 PUSH1 0x1 PUSH1 0x70 SHL SUB DUP2 AND DUP2 EQ PUSH2 0x1175 JUMPI PUSH1 0x0 DUP1 REVERT JUMPDEST DUP1 MLOAD PUSH4 0xFFFFFFFF DUP2 AND DUP2 EQ PUSH2 0x1175 JUMPI PUSH1 0x0 DUP1 REVERT JUMPDEST PUSH1 0x0 PUSH1 0xC0 DUP3 DUP5 SUB SLT ISZERO PUSH2 0x11DF JUMPI PUSH1 0x0 DUP1 REVERT JUMPDEST PUSH1 0x40 MLOAD PUSH1 0xC0 DUP2 ADD DUP2 DUP2 LT PUSH8 0xFFFFFFFFFFFFFFFF DUP3 GT OR ISZERO PUSH2 0x1210 JUMPI PUSH4 0x4E487B71 PUSH1 0xE0 SHL PUSH1 0x0 MSTORE PUSH1 0x41 PUSH1 0x4 MSTORE PUSH1 0x24 PUSH1 0x0 REVERT JUMPDEST PUSH1 0x40 MSTORE PUSH2 0x121C DUP4 PUSH2 0x116A JUMP JUMPDEST DUP2 MSTORE PUSH2 0x122A PUSH1 0x20 DUP5 ADD PUSH2 0x116A JUMP JUMPDEST PUSH1 0x20 DUP3 ADD MSTORE PUSH2 0x123B PUSH1 0x40 DUP5 ADD PUSH2 0x1197 JUMP JUMPDEST PUSH1 0x40 DUP3 ADD MSTORE PUSH2 0x124C PUSH1 0x60 DUP5 ADD PUSH2 0x11A2 JUMP JUMPDEST PUSH1 0x60 DUP3 ADD MSTORE PUSH2 0x125D PUSH1 0x80 DUP5 ADD PUSH2 0x11A2 JUMP JUMPDEST PUSH1 0x80 DUP3 ADD MSTORE PUSH2 0x126E PUSH1 0xA0 DUP5 ADD PUSH2 0x11B9 JUMP JUMPDEST PUSH1 0xA0 DUP3 ADD MSTORE SWAP4 SWAP3 POP POP POP JUMP JUMPDEST PUSH4 0x4E487B71 PUSH1 0xE0 SHL PUSH1 0x0 MSTORE PUSH1 0x32 PUSH1 0x4 MSTORE PUSH1 0x24 PUSH1 0x0 REVERT JUMPDEST PUSH4 0x4E487B71 PUSH1 0xE0 SHL PUSH1 0x0 MSTORE PUSH1 0x11 PUSH1 0x4 MSTORE PUSH1 0x24 PUSH1 0x0 REVERT JUMPDEST PUSH6 0xFFFFFFFFFFFF DUP3 DUP2 AND DUP3 DUP3 AND SUB SWAP1 DUP1 DUP3 GT ISZERO PUSH2 0x12C5 JUMPI PUSH2 0x12C5 PUSH2 0x1290 JUMP JUMPDEST POP SWAP3 SWAP2 POP POP JUMP JUMPDEST PUSH1 0x0 PUSH6 0xFFFFFFFFFFFF DUP3 AND DUP1 PUSH2 0x12E4 JUMPI PUSH2 0x12E4 PUSH2 0x1290 JUMP JUMPDEST PUSH1 0x0 NOT ADD SWAP3 SWAP2 POP POP JUMP JUMPDEST DUP1 MLOAD PUSH1 0x20 DUP3 ADD MLOAD PUSH6 0xFFFFFFFFFFFF NOT DUP1 DUP3 AND SWAP3 SWAP2 SWAP1 PUSH1 0x1A DUP4 LT ISZERO PUSH2 0x131C JUMPI DUP1 DUP2 DUP5 PUSH1 0x1A SUB PUSH1 0x3 SHL SHL DUP4 AND AND SWAP4 POP JUMPDEST POP POP POP SWAP2 SWAP1 POP JUMP JUMPDEST PUSH1 0x0 PUSH1 0x20 DUP3 DUP5 SUB SLT ISZERO PUSH2 0x1336 JUMPI PUSH1 0x0 DUP1 REVERT JUMPDEST DUP2 MLOAD PUSH2 0xA2E DUP2 PUSH2 0xE6F JUMP INVALID PUSH2 0x100 PUSH1 0x40 MSTORE PUSH1 0x0 DUP1 SLOAD PUSH6 0xFFFFFFFFFFFF NOT AND SWAP1 SSTORE CALLVALUE DUP1 ISZERO PUSH3 0x21 JUMPI PUSH1 0x0 DUP1 REVERT JUMPDEST POP PUSH1 0x40 MLOAD PUSH3 0x1F84 CODESIZE SUB DUP1 PUSH3 0x1F84 DUP4 CODECOPY DUP2 ADD PUSH1 0x40 DUP2 SWAP1 MSTORE PUSH3 0x44 SWAP2 PUSH3 0x85 JUMP JUMPDEST PUSH1 0x1 PUSH1 0x1 PUSH1 0xA0 SHL SUB SWAP4 DUP5 AND PUSH1 0x80 MSTORE SWAP2 DUP4 AND PUSH1 0xA0 MSTORE PUSH1 0xFF AND PUSH1 0xC0 MSTORE AND PUSH1 0xE0 MSTORE PUSH3 0xE9 JUMP JUMPDEST DUP1 MLOAD PUSH1 0x1 PUSH1 0x1 PUSH1 0xA0 SHL SUB DUP2 AND DUP2 EQ PUSH3 0x80 JUMPI PUSH1 0x0 DUP1 REVERT JUMPDEST SWAP2 SWAP1 POP JUMP JUMPDEST PUSH1 0x0 DUP1 PUSH1 0x0 DUP1 PUSH1 0x80 DUP6 DUP8 SUB SLT ISZERO PUSH3 0x9C JUMPI PUSH1 0x0 DUP1 REVERT JUMPDEST PUSH3 0xA7 DUP6 PUSH3 0x68 JUMP JUMPDEST SWAP4 POP PUSH3 0xB7 PUSH1 0x20 DUP7 ADD PUSH3 0x68 JUMP JUMPDEST SWAP3 POP PUSH1 0x40 DUP6 ADD MLOAD PUSH1 0xFF DUP2 AND DUP2 EQ PUSH3 0xCE JUMPI PUSH1 0x0 DUP1 REVERT JUMPDEST SWAP2 POP PUSH3 0xDE PUSH1 0x60 DUP7 ADD PUSH3 0x68 JUMP JUMPDEST SWAP1 POP SWAP3 SWAP6 SWAP2 SWAP5 POP SWAP3 POP JUMP JUMPDEST PUSH1 0x80 MLOAD PUSH1 0xA0 MLOAD PUSH1 0xC0 MLOAD PUSH1 0xE0 MLOAD PUSH2 0x1E15 PUSH3 0x16F PUSH1 0x0 CODECOPY PUSH1 0x0 DUP2 DUP2 PUSH1 0xBE ADD MSTORE DUP2 DUP2 PUSH2 0x98D ADD MSTORE PUSH2 0xA1A ADD MSTORE PUSH1 0x0 DUP2 DUP2 PUSH2 0x425 ADD MSTORE PUSH2 0x9BC ADD MSTORE PUSH1 0x0 DUP2 DUP2 PUSH2 0x3AB ADD MSTORE DUP2 DUP2 PUSH2 0xB9D ADD MSTORE DUP2 DUP2 PUSH2 0xEF7 ADD MSTORE PUSH2 0x1A73 ADD MSTORE PUSH1 0x0 DUP2 DUP2 PUSH2 0x12B ADD MSTORE DUP2 DUP2 PUSH2 0x4F7 ADD MSTORE DUP2 DUP2 PUSH2 0x718 ADD MSTORE DUP2 DUP2 PUSH2 0x89A ADD MSTORE DUP2 DUP2 PUSH2 0xA51 ADD MSTORE PUSH2 0xAF3 ADD MSTORE PUSH2 0x1E15 PUSH1 0x0 RETURN INVALID PUSH1 0x80 PUSH1 0x40 MSTORE CALLVALUE DUP1 ISZERO PUSH2 0x10 JUMPI PUSH1 0x0 DUP1 REVERT JUMPDEST POP PUSH1 0x4 CALLDATASIZE LT PUSH2 0xB4 JUMPI PUSH1 0x0 CALLDATALOAD PUSH1 0xE0 SHR DUP1 PUSH4 0x99A3BD23 GT PUSH2 0x71 JUMPI DUP1 PUSH4 0x99A3BD23 EQ PUSH2 0x394 JUMPI DUP1 PUSH4 0xD21220A7 EQ PUSH2 0x3A6 JUMPI DUP1 PUSH4 0xD51356F2 EQ PUSH2 0x3CD JUMPI DUP1 PUSH4 0xD9D8F541 EQ PUSH2 0x3E2 JUMPI DUP1 PUSH4 0xDBC4BA87 EQ PUSH2 0x3F5 JUMPI DUP1 PUSH4 0xDDCA3F43 EQ PUSH2 0x420 JUMPI PUSH1 0x0 DUP1 REVERT JUMPDEST DUP1 PUSH4 0x17E7E58 EQ PUSH2 0xB9 JUMPI DUP1 PUSH4 0x6661ABD EQ PUSH2 0xFD JUMPI DUP1 PUSH4 0xDFE1681 EQ PUSH2 0x126 JUMPI DUP1 PUSH4 0x2784E815 EQ PUSH2 0x14D JUMPI DUP1 PUSH4 0x692F3A44 EQ PUSH2 0x216 JUMPI DUP1 PUSH4 0x7CE219AA EQ PUSH2 0x253 JUMPI JUMPDEST PUSH1 0x0 DUP1 REVERT JUMPDEST PUSH2 0xE0 PUSH32 0x0 DUP2 JUMP JUMPDEST PUSH1 0x40 MLOAD PUSH1 0x1 PUSH1 0x1 PUSH1 0xA0 SHL SUB SWAP1 SWAP2 AND DUP2 MSTORE PUSH1 0x20 ADD JUMPDEST PUSH1 0x40 MLOAD DUP1 SWAP2 SUB SWAP1 RETURN JUMPDEST PUSH1 0x0 SLOAD PUSH2 0x10F SWAP1 PUSH6 0xFFFFFFFFFFFF AND DUP2 JUMP JUMPDEST PUSH1 0x40 MLOAD PUSH6 0xFFFFFFFFFFFF SWAP1 SWAP2 AND DUP2 MSTORE PUSH1 0x20 ADD PUSH2 0xF4 JUMP JUMPDEST PUSH2 0xE0 PUSH32 0x0 DUP2 JUMP JUMPDEST PUSH2 0x1C0 PUSH2 0x15B CALLDATASIZE PUSH1 0x4 PUSH2 0x1B9B JUMP JUMPDEST PUSH1 0x1 PUSH1 0x20 DUP2 SWAP1 MSTORE PUSH1 0x0 SWAP2 DUP3 MSTORE PUSH1 0x40 SWAP1 SWAP2 KECCAK256 DUP1 SLOAD SWAP2 ADD SLOAD PUSH6 0xFFFFFFFFFFFF DUP1 DUP4 AND SWAP3 PUSH1 0x1 PUSH1 0x30 SHL DUP2 DIV SWAP1 SWAP2 AND SWAP2 PUSH1 0x1 PUSH1 0x60 SHL SWAP1 SWAP2 DIV PUSH1 0x1 PUSH1 0x1 PUSH1 0xA0 SHL SUB AND SWAP1 PUSH1 0x1 PUSH1 0x1 PUSH1 0x70 SHL SUB DUP1 DUP3 AND SWAP2 PUSH1 0x1 PUSH1 0x70 SHL DUP2 DIV SWAP1 SWAP2 AND SWAP1 PUSH1 0x1 PUSH1 0xE0 SHL SWAP1 DIV PUSH4 0xFFFFFFFF AND DUP7 JUMP JUMPDEST PUSH1 0x40 DUP1 MLOAD PUSH6 0xFFFFFFFFFFFF SWAP8 DUP9 AND DUP2 MSTORE SWAP7 SWAP1 SWAP6 AND PUSH1 0x20 DUP8 ADD MSTORE PUSH1 0x1 PUSH1 0x1 PUSH1 0xA0 SHL SUB SWAP1 SWAP4 AND SWAP4 DUP6 ADD SWAP4 SWAP1 SWAP4 MSTORE PUSH1 0x1 PUSH1 0x1 PUSH1 0x70 SHL SUB SWAP1 DUP2 AND PUSH1 0x60 DUP6 ADD MSTORE SWAP1 SWAP2 AND PUSH1 0x80 DUP4 ADD MSTORE PUSH4 0xFFFFFFFF AND PUSH1 0xA0 DUP3 ADD MSTORE PUSH1 0xC0 ADD PUSH2 0xF4 JUMP JUMPDEST PUSH2 0x229 PUSH2 0x224 CALLDATASIZE PUSH1 0x4 PUSH2 0x1BCD JUMP JUMPDEST PUSH2 0x459 JUMP JUMPDEST PUSH1 0x40 DUP1 MLOAD PUSH1 0x1 PUSH1 0x1 PUSH1 0x70 SHL SUB SWAP5 DUP6 AND DUP2 MSTORE SWAP3 DUP5 AND PUSH1 0x20 DUP5 ADD MSTORE SWAP3 AND SWAP2 DUP2 ADD SWAP2 SWAP1 SWAP2 MSTORE PUSH1 0x60 ADD PUSH2 0xF4 JUMP JUMPDEST PUSH2 0x31F PUSH2 0x261 CALLDATASIZE PUSH1 0x4 PUSH2 0x1B9B JUMP JUMPDEST PUSH1 0x40 DUP1 MLOAD PUSH1 0xC0 DUP2 ADD DUP3 MSTORE PUSH1 0x0 DUP1 DUP3 MSTORE PUSH1 0x20 DUP3 ADD DUP2 SWAP1 MSTORE SWAP2 DUP2 ADD DUP3 SWAP1 MSTORE PUSH1 0x60 DUP2 ADD DUP3 SWAP1 MSTORE PUSH1 0x80 DUP2 ADD DUP3 SWAP1 MSTORE PUSH1 0xA0 DUP2 ADD SWAP2 SWAP1 SWAP2 MSTORE POP PUSH6 0xFFFFFFFFFFFF SWAP1 DUP2 AND PUSH1 0x0 SWAP1 DUP2 MSTORE PUSH1 0x1 PUSH1 0x20 DUP2 DUP2 MSTORE PUSH1 0x40 SWAP3 DUP4 SWAP1 KECCAK256 DUP4 MLOAD PUSH1 0xC0 DUP2 ADD DUP6 MSTORE DUP2 SLOAD DUP1 DUP8 AND DUP3 MSTORE PUSH1 0x1 PUSH1 0x30 SHL DUP2 DIV SWAP1 SWAP7 AND SWAP3 DUP2 ADD SWAP3 SWAP1 SWAP3 MSTORE PUSH1 0x1 PUSH1 0x60 SHL SWAP1 SWAP5 DIV PUSH1 0x1 PUSH1 0x1 PUSH1 0xA0 SHL SUB AND SWAP3 DUP2 ADD SWAP3 SWAP1 SWAP3 MSTORE SWAP2 SWAP1 SWAP2 ADD SLOAD PUSH1 0x1 PUSH1 0x1 PUSH1 0x70 SHL SUB DUP1 DUP3 AND PUSH1 0x60 DUP5 ADD MSTORE PUSH1 0x1 PUSH1 0x70 SHL DUP3 DIV AND PUSH1 0x80 DUP4 ADD MSTORE PUSH1 0x1 PUSH1 0xE0 SHL SWAP1 DIV PUSH4 0xFFFFFFFF AND PUSH1 0xA0 DUP3 ADD MSTORE SWAP1 JUMP JUMPDEST PUSH1 0x40 MLOAD PUSH2 0xF4 SWAP2 SWAP1 PUSH1 0x0 PUSH1 0xC0 DUP3 ADD SWAP1 POP PUSH6 0xFFFFFFFFFFFF DUP1 DUP5 MLOAD AND DUP4 MSTORE DUP1 PUSH1 0x20 DUP6 ADD MLOAD AND PUSH1 0x20 DUP5 ADD MSTORE POP PUSH1 0x1 DUP1 PUSH1 0xA0 SHL SUB PUSH1 0x40 DUP5 ADD MLOAD AND PUSH1 0x40 DUP4 ADD MSTORE PUSH1 0x60 DUP4 ADD MLOAD PUSH1 0x1 PUSH1 0x1 PUSH1 0x70 SHL SUB DUP1 DUP3 AND PUSH1 0x60 DUP6 ADD MSTORE DUP1 PUSH1 0x80 DUP7 ADD MLOAD AND PUSH1 0x80 DUP6 ADD MSTORE POP POP PUSH4 0xFFFFFFFF PUSH1 0xA0 DUP5 ADD MLOAD AND PUSH1 0xA0 DUP4 ADD MSTORE SWAP3 SWAP2 POP POP JUMP JUMPDEST PUSH1 0x2 SLOAD PUSH2 0x10F SWAP1 PUSH6 0xFFFFFFFFFFFF AND DUP2 JUMP JUMPDEST PUSH2 0xE0 PUSH32 0x0 DUP2 JUMP JUMPDEST PUSH2 0x3E0 PUSH2 0x3DB CALLDATASIZE PUSH1 0x4 PUSH2 0x1C00 JUMP JUMPDEST PUSH2 0xC1C JUMP JUMPDEST STOP JUMPDEST PUSH2 0x10F PUSH2 0x3F0 CALLDATASIZE PUSH1 0x4 PUSH2 0x1C43 JUMP JUMPDEST PUSH2 0xDE3 JUMP JUMPDEST PUSH2 0x408 PUSH2 0x403 CALLDATASIZE PUSH1 0x4 PUSH2 0x1B9B JUMP JUMPDEST PUSH2 0x185D JUMP JUMPDEST PUSH1 0x40 MLOAD PUSH1 0x1 PUSH1 0x1 PUSH1 0x70 SHL SUB SWAP1 SWAP2 AND DUP2 MSTORE PUSH1 0x20 ADD PUSH2 0xF4 JUMP JUMPDEST PUSH2 0x447 PUSH32 0x0 DUP2 JUMP JUMPDEST PUSH1 0x40 MLOAD PUSH1 0xFF SWAP1 SWAP2 AND DUP2 MSTORE PUSH1 0x20 ADD PUSH2 0xF4 JUMP JUMPDEST PUSH1 0x2 SLOAD PUSH1 0x0 SWAP1 DUP2 SWAP1 DUP2 SWAP1 PUSH6 0xFFFFFFFFFFFF AND DUP2 SUB PUSH2 0x4CD JUMPI PUSH1 0x40 MLOAD PUSH3 0x461BCD PUSH1 0xE5 SHL DUP2 MSTORE PUSH1 0x20 PUSH1 0x4 DUP3 ADD MSTORE PUSH1 0x26 PUSH1 0x24 DUP3 ADD MSTORE PUSH32 0x4D6F6E6F54726164653A2074616B654F726465723A3A206F7264657273206973 PUSH1 0x44 DUP3 ADD MSTORE PUSH6 0x20656D707479 PUSH1 0xD0 SHL PUSH1 0x64 DUP3 ADD MSTORE PUSH1 0x84 ADD JUMPDEST PUSH1 0x40 MLOAD DUP1 SWAP2 SUB SWAP1 REVERT JUMPDEST PUSH1 0x40 MLOAD PUSH4 0x23B872DD PUSH1 0xE0 SHL DUP2 MSTORE CALLER PUSH1 0x4 DUP3 ADD MSTORE ADDRESS PUSH1 0x24 DUP3 ADD MSTORE PUSH1 0x1 PUSH1 0x1 PUSH1 0x70 SHL SUB DUP7 AND PUSH1 0x44 DUP3 ADD MSTORE PUSH32 0x0 PUSH1 0x1 PUSH1 0x1 PUSH1 0xA0 SHL SUB AND SWAP1 PUSH4 0x23B872DD SWAP1 PUSH1 0x64 ADD PUSH1 0x20 PUSH1 0x40 MLOAD DUP1 DUP4 SUB DUP2 PUSH1 0x0 DUP8 GAS CALL ISZERO DUP1 ISZERO PUSH2 0x548 JUMPI RETURNDATASIZE PUSH1 0x0 DUP1 RETURNDATACOPY RETURNDATASIZE PUSH1 0x0 REVERT JUMPDEST POP POP POP POP PUSH1 0x40 MLOAD RETURNDATASIZE PUSH1 0x1F NOT PUSH1 0x1F DUP3 ADD AND DUP3 ADD DUP1 PUSH1 0x40 MSTORE POP DUP2 ADD SWAP1 PUSH2 0x56C SWAP2 SWAP1 PUSH2 0x1C86 JUMP JUMPDEST POP DUP5 JUMPDEST PUSH1 0x2 SLOAD PUSH6 0xFFFFFFFFFFFF AND ISZERO PUSH2 0x91D JUMPI PUSH1 0x2 SLOAD PUSH6 0xFFFFFFFFFFFF AND PUSH1 0x0 SWAP1 DUP2 MSTORE PUSH1 0x1 PUSH1 0x20 DUP2 SWAP1 MSTORE PUSH1 0x40 SWAP1 SWAP2 KECCAK256 SWAP1 DUP2 ADD SLOAD PUSH2 0x5BD SWAP1 PUSH1 0x1 PUSH1 0x1 PUSH1 0x70 SHL SUB PUSH1 0x1 PUSH1 0x70 SHL SWAP1 SWAP2 DIV DUP2 AND SWAP1 DUP9 AND PUSH2 0x1CBE JUMP JUMPDEST PUSH1 0x1 DUP3 ADD SLOAD PUSH2 0x5D9 SWAP1 PUSH1 0x1 PUSH1 0x1 PUSH1 0x70 SHL SUB SWAP1 DUP2 AND SWAP1 DUP11 AND PUSH2 0x1CBE JUMP JUMPDEST LT ISZERO PUSH2 0x5E5 JUMPI POP PUSH2 0x91D JUMP JUMPDEST PUSH1 0x1 DUP2 ADD SLOAD PUSH1 0x0 SWAP1 PUSH4 0xFFFFFFFF SWAP1 PUSH2 0x610 SWAP1 PUSH1 0x1 PUSH1 0x1 PUSH1 0x70 SHL SUB DUP2 AND SWAP1 PUSH1 0x1 PUSH1 0xE0 SHL SWAP1 DIV DUP4 AND PUSH2 0x1CBE JUMP JUMPDEST PUSH2 0x61A SWAP2 SWAP1 PUSH2 0x1CF1 JUMP JUMPDEST PUSH1 0x1 DUP4 ADD SLOAD SWAP1 SWAP2 POP PUSH1 0x0 SWAP1 PUSH1 0x1 PUSH1 0x1 PUSH1 0x70 SHL SUB DUP1 DUP3 AND SWAP2 PUSH2 0x647 SWAP2 PUSH1 0x1 PUSH1 0x70 SHL SWAP1 SWAP2 DIV DUP2 AND SWAP1 DUP6 AND PUSH2 0x1CBE JUMP JUMPDEST PUSH2 0x651 SWAP2 SWAP1 PUSH2 0x1CF1 JUMP JUMPDEST PUSH1 0x1 DUP5 ADD SLOAD PUSH2 0x670 SWAP2 SWAP1 PUSH1 0x1 PUSH1 0x70 SHL SWAP1 DIV PUSH1 0x1 PUSH1 0x1 PUSH1 0x70 SHL SUB AND PUSH2 0x1D05 JUMP JUMPDEST SWAP1 POP DUP1 PUSH1 0x1 PUSH1 0x1 PUSH1 0x70 SHL SUB AND DUP5 PUSH1 0x1 PUSH1 0x1 PUSH1 0x70 SHL SUB AND LT PUSH2 0x7BC JUMPI PUSH2 0x695 DUP2 DUP6 PUSH2 0x1D05 JUMP JUMPDEST PUSH1 0x1 DUP5 ADD SLOAD SWAP1 SWAP5 POP PUSH2 0x6B1 SWAP1 DUP4 SWAP1 PUSH1 0x1 PUSH1 0x1 PUSH1 0x70 SHL SUB AND PUSH2 0x1D05 JUMP JUMPDEST PUSH2 0x6BB SWAP1 DUP8 PUSH2 0x1D2C JUMP JUMPDEST SWAP6 POP PUSH2 0x6C6 DUP4 PUSH2 0x1AE9 JUMP JUMPDEST PUSH1 0x1 DUP4 ADD DUP1 SLOAD PUSH1 0x1 PUSH1 0x1 PUSH1 0xE0 SHL SUB AND PUSH1 0x1 PUSH1 0x1 PUSH1 0xE0 SHL SUB NOT OR SWAP1 SSTORE DUP3 SLOAD PUSH1 0x40 MLOAD PUSH4 0xA9059CBB PUSH1 0xE0 SHL DUP2 MSTORE PUSH1 0x1 PUSH1 0x1 PUSH1 0xA0 SHL SUB PUSH1 0x1 PUSH1 0x60 SHL SWAP1 SWAP3 DIV DUP3 AND PUSH1 0x4 DUP3 ADD MSTORE PUSH1 0x1 PUSH1 0x1 PUSH1 0x70 SHL SUB DUP4 AND PUSH1 0x24 DUP3 ADD MSTORE PUSH32 0x0 SWAP1 SWAP2 AND SWAP1 PUSH4 0xA9059CBB SWAP1 PUSH1 0x44 ADD PUSH1 0x20 PUSH1 0x40 MLOAD DUP1 DUP4 SUB DUP2 PUSH1 0x0 DUP8 GAS CALL ISZERO DUP1 ISZERO PUSH2 0x763 JUMPI RETURNDATASIZE PUSH1 0x0 DUP1 RETURNDATACOPY RETURNDATASIZE PUSH1 0x0 REVERT JUMPDEST POP POP POP POP PUSH1 0x40 MLOAD RETURNDATASIZE PUSH1 0x1F NOT PUSH1 0x1F DUP3 ADD AND DUP3 ADD DUP1 PUSH1 0x40 MSTORE POP DUP2 ADD SWAP1 PUSH2 0x787 SWAP2 SWAP1 PUSH2 0x1C86 JUMP JUMPDEST POP DUP3 SLOAD PUSH6 0xFFFFFFFFFFFF NOT SWAP1 DUP2 AND PUSH6 0xFFFFFFFFFFFF SWAP1 DUP2 OR DUP1 DUP7 SSTORE PUSH1 0x2 DUP1 SLOAD SWAP1 SWAP4 AND PUSH1 0x1 PUSH1 0x30 SHL SWAP1 SWAP2 DIV SWAP1 SWAP2 AND OR SWAP1 SSTORE PUSH2 0x915 JUMP JUMPDEST PUSH1 0x1 DUP4 ADD SLOAD PUSH1 0x0 SWAP1 PUSH1 0x1 PUSH1 0x1 PUSH1 0x70 SHL SUB PUSH1 0x1 PUSH1 0x70 SHL DUP3 DIV DUP2 AND SWAP2 PUSH2 0x7E5 SWAP2 SWAP1 DUP2 AND SWAP1 DUP9 AND PUSH2 0x1CBE JUMP JUMPDEST PUSH2 0x7EF SWAP2 SWAP1 PUSH2 0x1CF1 JUMP JUMPDEST SWAP1 POP PUSH2 0x7FB DUP2 DUP9 PUSH2 0x1D2C JUMP JUMPDEST SWAP7 POP PUSH2 0x807 DUP2 DUP5 PUSH2 0x1D2C JUMP JUMPDEST PUSH1 0x1 DUP6 ADD SLOAD SWAP1 SWAP4 POP PUSH1 0x1 PUSH1 0x1 PUSH1 0x70 SHL SUB AND PUSH2 0x826 PUSH4 0xFFFFFFFF DUP6 PUSH2 0x1D4C JUMP JUMPDEST PUSH2 0x830 SWAP2 SWAP1 PUSH2 0x1D77 JUMP JUMPDEST PUSH2 0x83B SWAP1 PUSH1 0x1 PUSH2 0x1D9D JUMP JUMPDEST PUSH1 0x1 DUP6 ADD DUP1 SLOAD PUSH1 0x1 PUSH1 0x1 PUSH1 0xE0 SHL SUB AND PUSH1 0x1 PUSH1 0xE0 SHL PUSH4 0xFFFFFFFF SWAP4 SWAP1 SWAP4 AND SWAP3 SWAP1 SWAP3 MUL SWAP2 SWAP1 SWAP2 OR SWAP1 SSTORE DUP4 SLOAD PUSH1 0x40 MLOAD PUSH4 0xA9059CBB PUSH1 0xE0 SHL DUP2 MSTORE PUSH1 0x1 PUSH1 0x60 SHL SWAP1 SWAP2 DIV PUSH1 0x1 PUSH1 0x1 PUSH1 0xA0 SHL SUB SWAP1 DUP2 AND PUSH1 0x4 DUP4 ADD MSTORE PUSH1 0x1 PUSH1 0x1 PUSH1 0x70 SHL SUB DUP8 AND PUSH1 0x24 DUP4 ADD MSTORE PUSH32 0x0 AND SWAP1 PUSH4 0xA9059CBB SWAP1 PUSH1 0x44 ADD PUSH1 0x20 PUSH1 0x40 MLOAD DUP1 DUP4 SUB DUP2 PUSH1 0x0 DUP8 GAS CALL ISZERO DUP1 ISZERO PUSH2 0x8E3 JUMPI RETURNDATASIZE PUSH1 0x0 DUP1 RETURNDATACOPY RETURNDATASIZE PUSH1 0x0 REVERT JUMPDEST POP POP POP POP PUSH1 0x40 MLOAD RETURNDATASIZE PUSH1 0x1F NOT PUSH1 0x1F DUP3 ADD AND DUP3 ADD DUP1 PUSH1 0x40 MSTORE POP DUP2 ADD SWAP1 PUSH2 0x907 SWAP2 SWAP1 PUSH2 0x1C86 JUMP JUMPDEST POP PUSH1 0x0 SWAP5 POP POP POP POP POP PUSH2 0x91D JUMP JUMPDEST POP POP POP PUSH2 0x56F JUMP JUMPDEST PUSH2 0x927 DUP2 DUP8 PUSH2 0x1D05 JUMP JUMPDEST SWAP4 POP PUSH1 0x0 DUP5 PUSH1 0x1 PUSH1 0x1 PUSH1 0x70 SHL SUB AND GT PUSH2 0x982 JUMPI PUSH1 0x40 MLOAD PUSH3 0x461BCD PUSH1 0xE5 SHL DUP2 MSTORE PUSH1 0x20 PUSH1 0x4 DUP3 ADD MSTORE PUSH1 0x1E PUSH1 0x24 DUP3 ADD MSTORE PUSH32 0x4D6F6E6F54726164653A2074616B654F726465723A3A206E6F206465616C0000 PUSH1 0x44 DUP3 ADD MSTORE PUSH1 0x64 ADD PUSH2 0x4C4 JUMP JUMPDEST CALLER PUSH1 0x1 PUSH1 0x1 PUSH1 0xA0 SHL SUB PUSH32 0x0 AND EQ PUSH2 0xAC0 JUMPI PUSH2 0x2710 PUSH2 0x9E2 PUSH1 0xFF PUSH32 0x0 AND DUP7 PUSH2 0x1D4C JUMP JUMPDEST PUSH2 0x9EC SWAP2 SWAP1 PUSH2 0x1D77 JUMP JUMPDEST SWAP2 POP PUSH1 0x1 PUSH1 0x1 PUSH1 0x70 SHL SUB DUP3 AND ISZERO PUSH2 0xAC0 JUMPI PUSH1 0x40 MLOAD PUSH4 0x23B872DD PUSH1 0xE0 SHL DUP2 MSTORE CALLER PUSH1 0x4 DUP3 ADD MSTORE PUSH1 0x1 PUSH1 0x1 PUSH1 0xA0 SHL SUB PUSH32 0x0 DUP2 AND PUSH1 0x24 DUP4 ADD MSTORE PUSH1 0x1 PUSH1 0x1 PUSH1 0x70 SHL SUB DUP5 AND PUSH1 0x44 DUP4 ADD MSTORE PUSH32 0x0 AND SWAP1 PUSH4 0x23B872DD SWAP1 PUSH1 0x64 ADD PUSH1 0x20 PUSH1 0x40 MLOAD DUP1 DUP4 SUB DUP2 PUSH1 0x0 DUP8 GAS CALL ISZERO DUP1 ISZERO PUSH2 0xA9A JUMPI RETURNDATASIZE PUSH1 0x0 DUP1 RETURNDATACOPY RETURNDATASIZE PUSH1 0x0 REVERT JUMPDEST POP POP POP POP PUSH1 0x40 MLOAD RETURNDATASIZE PUSH1 0x1F NOT PUSH1 0x1F DUP3 ADD AND DUP3 ADD DUP1 PUSH1 0x40 MSTORE POP DUP2 ADD SWAP1 PUSH2 0xABE SWAP2 SWAP1 PUSH2 0x1C86 JUMP JUMPDEST POP JUMPDEST PUSH1 0x1 PUSH1 0x1 PUSH1 0x70 SHL SUB DUP2 AND ISZERO PUSH2 0xB6A JUMPI PUSH1 0x40 MLOAD PUSH4 0xA9059CBB PUSH1 0xE0 SHL DUP2 MSTORE CALLER PUSH1 0x4 DUP3 ADD MSTORE PUSH1 0x1 PUSH1 0x1 PUSH1 0x70 SHL SUB DUP3 AND PUSH1 0x24 DUP3 ADD MSTORE PUSH32 0x0 PUSH1 0x1 PUSH1 0x1 PUSH1 0xA0 SHL SUB AND SWAP1 PUSH4 0xA9059CBB SWAP1 PUSH1 0x44 ADD PUSH1 0x20 PUSH1 0x40 MLOAD DUP1 DUP4 SUB DUP2 PUSH1 0x0 DUP8 GAS CALL ISZERO DUP1 ISZERO PUSH2 0xB44 JUMPI RETURNDATASIZE PUSH1 0x0 DUP1 RETURNDATACOPY RETURNDATASIZE PUSH1 0x0 REVERT JUMPDEST POP POP POP POP PUSH1 0x40 MLOAD RETURNDATASIZE PUSH1 0x1F NOT PUSH1 0x1F DUP3 ADD AND DUP3 ADD DUP1 PUSH1 0x40 MSTORE POP DUP2 ADD SWAP1 PUSH2 0xB68 SWAP2 SWAP1 PUSH2 0x1C86 JUMP JUMPDEST POP JUMPDEST PUSH1 0x1 PUSH1 0x1 PUSH1 0x70 SHL SUB DUP4 AND ISZERO PUSH2 0xC14 JUMPI PUSH1 0x40 MLOAD PUSH4 0xA9059CBB PUSH1 0xE0 SHL DUP2 MSTORE CALLER PUSH1 0x4 DUP3 ADD MSTORE PUSH1 0x1 PUSH1 0x1 PUSH1 0x70 SHL SUB DUP5 AND PUSH1 0x24 DUP3 ADD MSTORE PUSH32 0x0 PUSH1 0x1 PUSH1 0x1 PUSH1 0xA0 SHL SUB AND SWAP1 PUSH4 0xA9059CBB SWAP1 PUSH1 0x44 ADD PUSH1 0x20 PUSH1 0x40 MLOAD DUP1 DUP4 SUB DUP2 PUSH1 0x0 DUP8 GAS CALL ISZERO DUP1 ISZERO PUSH2 0xBEE JUMPI RETURNDATASIZE PUSH1 0x0 DUP1 RETURNDATACOPY RETURNDATASIZE PUSH1 0x0 REVERT JUMPDEST POP POP POP POP PUSH1 0x40 MLOAD RETURNDATASIZE PUSH1 0x1F NOT PUSH1 0x1F DUP3 ADD AND DUP3 ADD DUP1 PUSH1 0x40 MSTORE POP DUP2 ADD SWAP1 PUSH2 0xC12 SWAP2 SWAP1 PUSH2 0x1C86 JUMP JUMPDEST POP JUMPDEST POP SWAP3 POP SWAP3 POP SWAP3 JUMP JUMPDEST PUSH6 0xFFFFFFFFFFFF DUP3 AND PUSH1 0x0 SWAP1 DUP2 MSTORE PUSH1 0x1 PUSH1 0x20 MSTORE PUSH1 0x40 SWAP1 KECCAK256 DUP1 SLOAD PUSH1 0x1 PUSH1 0x60 SHL SWAP1 DIV PUSH1 0x1 PUSH1 0x1 PUSH1 0xA0 SHL SUB AND CALLER EQ PUSH2 0xCB9 JUMPI PUSH1 0x40 MLOAD PUSH3 0x461BCD PUSH1 0xE5 SHL DUP2 MSTORE PUSH1 0x20 PUSH1 0x4 DUP3 ADD MSTORE PUSH1 0x3C PUSH1 0x24 DUP3 ADD MSTORE PUSH32 0x4D6F6E6F54726164653A206368616E67654F726465724F776E65723A3A20796F PUSH1 0x44 DUP3 ADD MSTORE PUSH32 0x7520617265206E6F74206F776E6572206F6620746865206F7264657200000000 PUSH1 0x64 DUP3 ADD MSTORE PUSH1 0x84 ADD PUSH2 0x4C4 JUMP JUMPDEST DUP1 SLOAD PUSH6 0xFFFFFFFFFFFF AND PUSH6 0xFFFFFFFFFFFE NOT ADD PUSH2 0xD40 JUMPI PUSH1 0x40 DUP1 MLOAD PUSH3 0x461BCD PUSH1 0xE5 SHL DUP2 MSTORE PUSH1 0x20 PUSH1 0x4 DUP3 ADD MSTORE PUSH1 0x24 DUP2 ADD SWAP2 SWAP1 SWAP2 MSTORE PUSH32 0x4D6F6E6F54726164653A206368616E67654F726465724F776E65723A3A207468 PUSH1 0x44 DUP3 ADD MSTORE PUSH32 0x65206F7264657220697320616C72656164792072656D6F76656428646F6E6529 PUSH1 0x64 DUP3 ADD MSTORE PUSH1 0x84 ADD PUSH2 0x4C4 JUMP JUMPDEST PUSH1 0x1 PUSH1 0x1 PUSH1 0xA0 SHL SUB DUP3 AND PUSH2 0xDBC JUMPI PUSH1 0x40 MLOAD PUSH3 0x461BCD PUSH1 0xE5 SHL DUP2 MSTORE PUSH1 0x20 PUSH1 0x4 DUP3 ADD MSTORE PUSH1 0x3A PUSH1 0x24 DUP3 ADD MSTORE PUSH32 0x4D6F6E6F54726164653A206368616E67654F726465724F776E65723A3A206E65 PUSH1 0x44 DUP3 ADD MSTORE PUSH32 0x774F776E65722063616E27742062652061646472657373283029000000000000 PUSH1 0x64 DUP3 ADD MSTORE PUSH1 0x84 ADD PUSH2 0x4C4 JUMP JUMPDEST DUP1 SLOAD PUSH1 0x1 PUSH1 0x1 PUSH1 0xA0 SHL SUB SWAP1 SWAP3 AND PUSH1 0x1 PUSH1 0x60 SHL MUL PUSH1 0x1 PUSH1 0x1 PUSH1 0x60 SHL SUB SWAP1 SWAP3 AND SWAP2 SWAP1 SWAP2 OR SWAP1 SSTORE POP JUMP JUMPDEST PUSH1 0x0 DUP1 DUP5 PUSH1 0x1 PUSH1 0x1 PUSH1 0x70 SHL SUB AND GT PUSH2 0xE58 JUMPI PUSH1 0x40 MLOAD PUSH3 0x461BCD PUSH1 0xE5 SHL DUP2 MSTORE PUSH1 0x20 PUSH1 0x4 DUP3 ADD MSTORE PUSH1 0x32 PUSH1 0x24 DUP3 ADD MSTORE PUSH32 0x4D6F6E6F54726164653A206D616B654F726465723A3A20746F6B656E31496E20 PUSH1 0x44 DUP3 ADD MSTORE PUSH18 0x616D6F756E742063616E6E6F74206265203 PUSH1 0x74 SHL PUSH1 0x64 DUP3 ADD MSTORE PUSH1 0x84 ADD PUSH2 0x4C4 JUMP JUMPDEST PUSH1 0x0 DUP4 PUSH1 0x1 PUSH1 0x1 PUSH1 0x70 SHL SUB AND GT PUSH2 0xECD JUMPI PUSH1 0x40 MLOAD PUSH3 0x461BCD PUSH1 0xE5 SHL DUP2 MSTORE PUSH1 0x20 PUSH1 0x4 DUP3 ADD MSTORE PUSH1 0x33 PUSH1 0x24 DUP3 ADD MSTORE PUSH32 0x4D6F6E6F54726164653A206D616B654F726465723A3A20746F6B656E304F7574 PUSH1 0x44 DUP3 ADD MSTORE PUSH19 0x20616D6F756E742063616E6E6F74206265203 PUSH1 0x6C SHL PUSH1 0x64 DUP3 ADD MSTORE PUSH1 0x84 ADD PUSH2 0x4C4 JUMP JUMPDEST PUSH1 0x40 MLOAD PUSH4 0x23B872DD PUSH1 0xE0 SHL DUP2 MSTORE CALLER PUSH1 0x4 DUP3 ADD MSTORE ADDRESS PUSH1 0x24 DUP3 ADD MSTORE PUSH1 0x1 PUSH1 0x1 PUSH1 0x70 SHL SUB DUP6 AND PUSH1 0x44 DUP3 ADD MSTORE PUSH32 0x0 PUSH1 0x1 PUSH1 0x1 PUSH1 0xA0 SHL SUB AND SWAP1 PUSH4 0x23B872DD SWAP1 PUSH1 0x64 ADD PUSH1 0x20 PUSH1 0x40 MLOAD DUP1 DUP4 SUB DUP2 PUSH1 0x0 DUP8 GAS CALL ISZERO DUP1 ISZERO PUSH2 0xF48 JUMPI RETURNDATASIZE PUSH1 0x0 DUP1 RETURNDATACOPY RETURNDATASIZE PUSH1 0x0 REVERT JUMPDEST POP POP POP POP PUSH1 0x40 MLOAD RETURNDATASIZE PUSH1 0x1F NOT PUSH1 0x1F DUP3 ADD AND DUP3 ADD DUP1 PUSH1 0x40 MSTORE POP DUP2 ADD SWAP1 PUSH2 0xF6C SWAP2 SWAP1 PUSH2 0x1C86 JUMP JUMPDEST POP PUSH1 0x0 DUP1 SLOAD DUP2 SWAP1 PUSH2 0xF84 SWAP1 PUSH6 0xFFFFFFFFFFFF AND PUSH2 0x1DBA JUMP JUMPDEST DUP3 SLOAD PUSH2 0x100 SWAP3 SWAP1 SWAP3 EXP PUSH6 0xFFFFFFFFFFFF DUP2 DUP2 MUL NOT SWAP1 SWAP4 AND SWAP2 DUP4 AND MUL OR SWAP1 SWAP2 SSTORE PUSH1 0x2 SLOAD AND PUSH1 0x0 SUB PUSH2 0x10B2 JUMPI POP PUSH1 0x40 DUP1 MLOAD PUSH1 0xC0 DUP2 ADD DUP3 MSTORE PUSH1 0x0 DUP1 DUP3 MSTORE PUSH1 0x20 DUP1 DUP4 ADD DUP3 DUP2 MSTORE CALLER DUP5 DUP7 ADD SWAP1 DUP2 MSTORE PUSH1 0x1 PUSH1 0x1 PUSH1 0x70 SHL SUB DUP1 DUP11 AND PUSH1 0x60 DUP8 ADD SWAP1 DUP2 MSTORE DUP10 DUP3 AND PUSH1 0x80 DUP9 ADD SWAP1 DUP2 MSTORE PUSH1 0xA0 DUP9 ADD DUP8 DUP2 MSTORE DUP8 SLOAD PUSH6 0xFFFFFFFFFFFF SWAP1 DUP2 AND DUP10 MSTORE PUSH1 0x1 SWAP8 DUP9 SWAP1 MSTORE SWAP10 DUP9 KECCAK256 SWAP9 MLOAD DUP10 SLOAD SWAP7 MLOAD SWAP6 MLOAD PUSH1 0x1 PUSH1 0x1 PUSH1 0xA0 SHL SUB AND PUSH1 0x1 PUSH1 0x60 SHL MUL PUSH1 0x1 PUSH1 0x1 PUSH1 0x60 SHL SUB SWAP7 DUP13 AND PUSH1 0x1 PUSH1 0x30 SHL MUL PUSH1 0x1 PUSH1 0x1 PUSH1 0x60 SHL SUB NOT SWAP1 SWAP9 AND SWAP2 DUP13 AND SWAP2 SWAP1 SWAP2 OR SWAP7 SWAP1 SWAP7 OR SWAP5 SWAP1 SWAP5 AND SWAP5 SWAP1 SWAP5 OR DUP8 SSTORE MLOAD SWAP6 SWAP1 SWAP4 ADD DUP1 SLOAD SWAP3 MLOAD SWAP2 MLOAD PUSH4 0xFFFFFFFF AND PUSH1 0x1 PUSH1 0xE0 SHL MUL PUSH1 0x1 PUSH1 0x1 PUSH1 0xE0 SHL SUB SWAP3 DUP6 AND PUSH1 0x1 PUSH1 0x70 SHL MUL PUSH1 0x1 PUSH1 0x1 PUSH1 0xE0 SHL SUB NOT SWAP1 SWAP5 AND SWAP7 SWAP1 SWAP5 AND SWAP6 SWAP1 SWAP6 OR SWAP2 SWAP1 SWAP2 OR AND OR SWAP1 SWAP2 SSTORE SLOAD PUSH1 0x2 DUP1 SLOAD PUSH6 0xFFFFFFFFFFFF NOT AND SWAP2 SWAP1 SWAP3 AND SWAP1 DUP2 OR SWAP1 SWAP2 SSTORE PUSH2 0x1856 JUMP JUMPDEST DUP2 PUSH6 0xFFFFFFFFFFFF AND PUSH1 0x0 SUB PUSH2 0x129A JUMPI PUSH1 0x2 SLOAD PUSH6 0xFFFFFFFFFFFF AND PUSH1 0x0 SWAP1 DUP2 MSTORE PUSH1 0x1 PUSH1 0x20 DUP2 SWAP1 MSTORE PUSH1 0x40 SWAP1 SWAP2 KECCAK256 SWAP1 DUP2 ADD SLOAD PUSH2 0x10F8 SWAP1 PUSH1 0x1 PUSH1 0x1 PUSH1 0x70 SHL SUB DUP1 DUP8 AND SWAP2 AND PUSH2 0x1CBE JUMP JUMPDEST PUSH1 0x1 DUP3 ADD SLOAD PUSH2 0x111A SWAP1 PUSH1 0x1 PUSH1 0x1 PUSH1 0x70 SHL SUB DUP1 DUP10 AND SWAP2 PUSH1 0x1 PUSH1 0x70 SHL SWAP1 DIV AND PUSH2 0x1CBE JUMP JUMPDEST GT PUSH2 0x1181 JUMPI PUSH1 0x40 MLOAD PUSH3 0x461BCD PUSH1 0xE5 SHL DUP2 MSTORE PUSH1 0x20 PUSH1 0x4 DUP3 ADD MSTORE PUSH1 0x31 PUSH1 0x24 DUP3 ADD MSTORE PUSH32 0x4D6F6E6F54726164653A206D616B654F726465723A3A20796F75722070726963 PUSH1 0x44 DUP3 ADD MSTORE PUSH17 0x329036BAB9BA101F103A37B827B93232B9 PUSH1 0x79 SHL PUSH1 0x64 DUP3 ADD MSTORE PUSH1 0x84 ADD PUSH2 0x4C4 JUMP JUMPDEST PUSH1 0x0 DUP1 SLOAD DUP3 SLOAD PUSH6 0xFFFFFFFFFFFF NOT SWAP1 DUP2 AND PUSH6 0xFFFFFFFFFFFF SWAP3 DUP4 AND OR SWAP1 SWAP4 SSTORE PUSH1 0x40 DUP1 MLOAD PUSH1 0xC0 DUP2 ADD DUP3 MSTORE DUP4 DUP2 MSTORE PUSH1 0x2 DUP1 SLOAD DUP5 AND PUSH1 0x20 DUP1 DUP5 ADD SWAP2 DUP3 MSTORE CALLER DUP5 DUP7 ADD SWAP1 DUP2 MSTORE PUSH1 0x1 PUSH1 0x1 PUSH1 0x70 SHL SUB DUP1 DUP15 AND PUSH1 0x60 DUP8 ADD SWAP1 DUP2 MSTORE DUP14 DUP3 AND PUSH1 0x80 DUP9 ADD SWAP1 DUP2 MSTORE PUSH1 0xA0 DUP9 ADD DUP12 DUP2 MSTORE DUP12 SLOAD DUP12 AND DUP13 MSTORE PUSH1 0x1 SWAP6 DUP7 SWAP1 MSTORE SWAP9 DUP12 KECCAK256 SWAP8 MLOAD DUP9 SLOAD SWAP7 MLOAD SWAP5 MLOAD PUSH1 0x1 PUSH1 0x1 PUSH1 0xA0 SHL SUB AND PUSH1 0x1 PUSH1 0x60 SHL MUL PUSH1 0x1 PUSH1 0x1 PUSH1 0x60 SHL SUB SWAP6 DUP13 AND PUSH1 0x1 PUSH1 0x30 SHL MUL PUSH1 0x1 PUSH1 0x1 PUSH1 0x60 SHL SUB NOT SWAP1 SWAP9 AND SWAP2 DUP13 AND SWAP2 SWAP1 SWAP2 OR SWAP7 SWAP1 SWAP7 OR SWAP4 SWAP1 SWAP4 AND SWAP5 SWAP1 SWAP5 OR DUP7 SSTORE SWAP3 MLOAD SWAP5 SWAP1 SWAP2 ADD DUP1 SLOAD SWAP2 MLOAD SWAP6 MLOAD PUSH4 0xFFFFFFFF AND PUSH1 0x1 PUSH1 0xE0 SHL MUL PUSH1 0x1 PUSH1 0x1 PUSH1 0xE0 SHL SUB SWAP7 DUP5 AND PUSH1 0x1 PUSH1 0x70 SHL MUL PUSH1 0x1 PUSH1 0x1 PUSH1 0xE0 SHL SUB NOT SWAP1 SWAP4 AND SWAP6 SWAP1 SWAP4 AND SWAP5 SWAP1 SWAP5 OR OR SWAP4 SWAP1 SWAP4 AND SWAP3 SWAP1 SWAP3 OR SWAP1 SSTORE SWAP2 SLOAD DUP3 SLOAD SWAP1 SWAP4 AND SWAP3 AND SWAP2 DUP3 OR SWAP1 SSTORE SWAP1 POP PUSH2 0x1856 JUMP JUMPDEST PUSH6 0xFFFFFFFFFFFF DUP3 AND PUSH1 0x0 SWAP1 DUP2 MSTORE PUSH1 0x1 PUSH1 0x20 DUP2 SWAP1 MSTORE PUSH1 0x40 DUP3 KECCAK256 SWAP1 DUP2 ADD SLOAD SWAP1 SWAP2 PUSH1 0x1 PUSH1 0x1 PUSH1 0x70 SHL SUB SWAP1 SWAP2 AND SWAP1 SUB PUSH2 0x132A JUMPI PUSH1 0x40 MLOAD PUSH3 0x461BCD PUSH1 0xE5 SHL DUP2 MSTORE PUSH1 0x20 PUSH1 0x4 DUP3 ADD MSTORE PUSH1 0x2F PUSH1 0x24 DUP3 ADD MSTORE PUSH32 0x4D6F6E6F54726164653A206D616B654F726465723A3A206265666F72654F7264 PUSH1 0x44 DUP3 ADD MSTORE PUSH15 0x195C881A5CC81B9BDD08195E1A5CDD PUSH1 0x8A SHL PUSH1 0x64 DUP3 ADD MSTORE PUSH1 0x84 ADD PUSH2 0x4C4 JUMP JUMPDEST DUP1 SLOAD PUSH6 0xFFFFFFFFFFFF AND PUSH6 0xFFFFFFFFFFFE NOT ADD PUSH2 0x13A5 JUMPI PUSH1 0x40 MLOAD PUSH3 0x461BCD PUSH1 0xE5 SHL DUP2 MSTORE PUSH1 0x20 PUSH1 0x4 DUP3 ADD MSTORE PUSH1 0x33 PUSH1 0x24 DUP3 ADD MSTORE PUSH32 0x4D6F6E6F54726164653A206D616B654F726465723A3A206265666F72654F7264 PUSH1 0x44 DUP3 ADD MSTORE PUSH19 0x65722069732072656D6F76656428646F6E6529 PUSH1 0x68 SHL PUSH1 0x64 DUP3 ADD MSTORE PUSH1 0x84 ADD PUSH2 0x4C4 JUMP JUMPDEST PUSH1 0x1 DUP2 ADD SLOAD PUSH2 0x13C0 SWAP1 PUSH1 0x1 PUSH1 0x1 PUSH1 0x70 SHL SUB DUP1 DUP8 AND SWAP2 AND PUSH2 0x1CBE JUMP JUMPDEST PUSH1 0x1 DUP3 ADD SLOAD PUSH2 0x13E2 SWAP1 PUSH1 0x1 PUSH1 0x1 PUSH1 0x70 SHL SUB DUP1 DUP10 AND SWAP2 PUSH1 0x1 PUSH1 0x70 SHL SWAP1 DIV AND PUSH2 0x1CBE JUMP JUMPDEST GT ISZERO PUSH2 0x144E JUMPI PUSH1 0x40 MLOAD PUSH3 0x461BCD PUSH1 0xE5 SHL DUP2 MSTORE PUSH1 0x20 PUSH1 0x4 DUP3 ADD MSTORE PUSH1 0x35 PUSH1 0x24 DUP3 ADD MSTORE PUSH32 0x4D6F6E6F54726164653A206D616B654F726465723A3A20796F75722070726963 PUSH1 0x44 DUP3 ADD MSTORE PUSH21 0x329036BAB9BA101E1E903132B337B932A7B93232B9 PUSH1 0x59 SHL PUSH1 0x64 DUP3 ADD MSTORE PUSH1 0x84 ADD PUSH2 0x4C4 JUMP JUMPDEST DUP1 SLOAD PUSH1 0x1 PUSH1 0x30 SHL SWAP1 DIV PUSH6 0xFFFFFFFFFFFF AND PUSH1 0x0 SUB PUSH2 0x1576 JUMPI PUSH1 0x0 DUP1 SLOAD DUP3 SLOAD PUSH1 0x1 PUSH1 0x30 SHL PUSH6 0xFFFFFFFFFFFF SWAP3 DUP4 AND DUP2 MUL PUSH6 0xFFFFFFFFFFFF PUSH1 0x30 SHL NOT SWAP1 SWAP3 AND SWAP2 SWAP1 SWAP2 OR SWAP1 SWAP4 SSTORE PUSH1 0x40 DUP1 MLOAD PUSH1 0xC0 DUP2 ADD DUP3 MSTORE DUP7 DUP4 AND DUP2 MSTORE PUSH1 0x20 DUP1 DUP3 ADD DUP6 DUP2 MSTORE CALLER DUP4 DUP6 ADD SWAP1 DUP2 MSTORE PUSH1 0x1 PUSH1 0x1 PUSH1 0x70 SHL SUB DUP1 DUP14 AND PUSH1 0x60 DUP7 ADD SWAP1 DUP2 MSTORE DUP13 DUP3 AND PUSH1 0x80 DUP8 ADD SWAP1 DUP2 MSTORE PUSH1 0xA0 DUP8 ADD DUP11 DUP2 MSTORE DUP11 SLOAD DUP11 AND DUP12 MSTORE PUSH1 0x1 SWAP7 DUP8 SWAP1 MSTORE SWAP8 DUP11 KECCAK256 SWAP7 MLOAD DUP8 SLOAD SWAP6 MLOAD SWAP5 MLOAD PUSH1 0x1 PUSH1 0x1 PUSH1 0xA0 SHL SUB AND PUSH1 0x1 PUSH1 0x60 SHL MUL PUSH1 0x1 PUSH1 0x1 PUSH1 0x60 SHL SUB SWAP6 DUP12 AND SWAP1 SWAP13 MUL PUSH1 0x1 PUSH1 0x1 PUSH1 0x60 SHL SUB NOT SWAP1 SWAP7 AND SWAP1 DUP11 AND OR SWAP5 SWAP1 SWAP5 OR SWAP3 SWAP1 SWAP3 AND SWAP9 SWAP1 SWAP9 OR DUP5 SSTORE MLOAD SWAP3 SWAP1 SWAP2 ADD DUP1 SLOAD SWAP2 MLOAD SWAP4 MLOAD PUSH4 0xFFFFFFFF AND PUSH1 0x1 PUSH1 0xE0 SHL MUL PUSH1 0x1 PUSH1 0x1 PUSH1 0xE0 SHL SUB SWAP5 DUP9 AND PUSH1 0x1 PUSH1 0x70 SHL MUL PUSH1 0x1 PUSH1 0x1 PUSH1 0xE0 SHL SUB NOT SWAP1 SWAP4 AND SWAP4 SWAP1 SWAP8 AND SWAP3 SWAP1 SWAP3 OR OR SWAP2 SWAP1 SWAP2 AND SWAP4 SWAP1 SWAP4 OR SWAP1 SWAP3 SSTORE SLOAD AND SWAP1 POP PUSH2 0x1856 JUMP JUMPDEST DUP1 SLOAD PUSH1 0x1 PUSH1 0x30 SHL SWAP1 DIV PUSH6 0xFFFFFFFFFFFF AND PUSH1 0x0 SWAP1 DUP2 MSTORE PUSH1 0x1 PUSH1 0x20 DUP2 SWAP1 MSTORE PUSH1 0x40 DUP3 KECCAK256 SWAP1 DUP2 ADD SLOAD SWAP1 SWAP2 PUSH1 0x1 PUSH1 0x1 PUSH1 0x70 SHL SUB SWAP1 SWAP2 AND SWAP1 SUB PUSH2 0x160D JUMPI PUSH1 0x40 MLOAD PUSH3 0x461BCD PUSH1 0xE5 SHL DUP2 MSTORE PUSH1 0x20 PUSH1 0x4 DUP3 ADD MSTORE PUSH1 0x2E PUSH1 0x24 DUP3 ADD MSTORE PUSH32 0x4D6F6E6F54726164653A206D616B654F726465723A3A2061667465724F726465 PUSH1 0x44 DUP3 ADD MSTORE PUSH14 0x1C881A5CC81B9BDD08195E1A5CDD PUSH1 0x92 SHL PUSH1 0x64 DUP3 ADD MSTORE PUSH1 0x84 ADD PUSH2 0x4C4 JUMP JUMPDEST DUP1 SLOAD PUSH6 0xFFFFFFFFFFFF AND PUSH6 0xFFFFFFFFFFFE NOT ADD PUSH2 0x1681 JUMPI PUSH1 0x40 MLOAD PUSH3 0x461BCD PUSH1 0xE5 SHL DUP2 MSTORE PUSH1 0x20 PUSH1 0x4 DUP3 ADD MSTORE PUSH1 0x2C PUSH1 0x24 DUP3 ADD MSTORE PUSH32 0x4D6F6E6F54726164653A206D616B654F726465723A3A2061667465724F726465 PUSH1 0x44 DUP3 ADD MSTORE PUSH12 0x1C881A5CC81C995B5BDD9959 PUSH1 0xA2 SHL PUSH1 0x64 DUP3 ADD MSTORE PUSH1 0x84 ADD PUSH2 0x4C4 JUMP JUMPDEST PUSH1 0x1 DUP2 ADD SLOAD PUSH2 0x169C SWAP1 PUSH1 0x1 PUSH1 0x1 PUSH1 0x70 SHL SUB DUP1 DUP9 AND SWAP2 AND PUSH2 0x1CBE JUMP JUMPDEST PUSH1 0x1 DUP3 ADD SLOAD PUSH2 0x16BE SWAP1 PUSH1 0x1 PUSH1 0x1 PUSH1 0x70 SHL SUB DUP1 DUP11 AND SWAP2 PUSH1 0x1 PUSH1 0x70 SHL SWAP1 DIV AND PUSH2 0x1CBE JUMP JUMPDEST GT PUSH2 0x1727 JUMPI PUSH1 0x40 MLOAD PUSH3 0x461BCD PUSH1 0xE5 SHL DUP2 MSTORE PUSH1 0x20 PUSH1 0x4 DUP3 ADD MSTORE PUSH1 0x33 PUSH1 0x24 DUP3 ADD MSTORE PUSH32 0x4D6F6E6F54726164653A206D616B654F726465723A3A20796F75722070726963 PUSH1 0x44 DUP3 ADD MSTORE PUSH19 0x329036BAB9BA101F1030B33A32B927B93232B9 PUSH1 0x69 SHL PUSH1 0x64 DUP3 ADD MSTORE PUSH1 0x84 ADD PUSH2 0x4C4 JUMP JUMPDEST PUSH1 0x40 DUP1 MLOAD PUSH1 0xC0 DUP2 ADD DUP3 MSTORE PUSH6 0xFFFFFFFFFFFF DUP1 DUP8 AND DUP3 MSTORE DUP5 SLOAD PUSH1 0x1 PUSH1 0x30 SHL SWAP1 DUP2 SWAP1 DIV DUP3 AND PUSH1 0x20 DUP1 DUP6 ADD SWAP2 DUP3 MSTORE CALLER DUP6 DUP8 ADD SWAP1 DUP2 MSTORE PUSH1 0x1 PUSH1 0x1 PUSH1 0x70 SHL SUB DUP1 DUP15 AND PUSH1 0x60 DUP9 ADD SWAP1 DUP2 MSTORE DUP14 DUP3 AND PUSH1 0x80 DUP10 ADD SWAP1 DUP2 MSTORE PUSH1 0x0 PUSH1 0xA0 DUP11 ADD DUP2 DUP2 MSTORE DUP2 SLOAD DUP11 AND DUP3 MSTORE PUSH1 0x1 SWAP7 DUP8 SWAP1 MSTORE SWAP11 DUP2 KECCAK256 SWAP10 MLOAD DUP11 SLOAD SWAP8 MLOAD SWAP6 MLOAD PUSH1 0x1 PUSH1 0x1 PUSH1 0xA0 SHL SUB AND PUSH1 0x1 PUSH1 0x60 SHL MUL PUSH1 0x1 PUSH1 0x1 PUSH1 0x60 SHL SUB SWAP7 DUP12 AND DUP11 MUL PUSH1 0x1 PUSH1 0x1 PUSH1 0x60 SHL SUB NOT SWAP1 SWAP10 AND SWAP2 DUP12 AND SWAP2 SWAP1 SWAP2 OR SWAP8 SWAP1 SWAP8 OR SWAP5 SWAP1 SWAP5 AND SWAP6 SWAP1 SWAP6 OR DUP9 SSTORE MLOAD SWAP7 SWAP1 SWAP3 ADD DUP1 SLOAD SWAP4 MLOAD SWAP8 MLOAD PUSH4 0xFFFFFFFF AND PUSH1 0x1 PUSH1 0xE0 SHL MUL PUSH1 0x1 PUSH1 0x1 PUSH1 0xE0 SHL SUB SWAP9 DUP5 AND PUSH1 0x1 PUSH1 0x70 SHL MUL PUSH1 0x1 PUSH1 0x1 PUSH1 0xE0 SHL SUB NOT SWAP1 SWAP6 AND SWAP8 SWAP1 SWAP4 AND SWAP7 SWAP1 SWAP7 OR SWAP3 SWAP1 SWAP3 OR SWAP6 SWAP1 SWAP6 AND SWAP5 SWAP1 SWAP5 OR SWAP1 SWAP3 SSTORE DUP3 SLOAD DUP6 SLOAD SWAP1 DUP3 AND SWAP1 SWAP3 MUL PUSH6 0xFFFFFFFFFFFF PUSH1 0x30 SHL NOT SWAP3 SWAP1 SWAP3 AND SWAP2 SWAP1 SWAP2 OR SWAP1 SWAP4 SSTORE DUP1 SLOAD DUP3 SLOAD PUSH6 0xFFFFFFFFFFFF NOT AND SWAP1 DUP5 AND OR SWAP1 SWAP2 SSTORE SLOAD AND SWAP1 POP JUMPDEST SWAP4 SWAP3 POP POP POP JUMP JUMPDEST PUSH6 0xFFFFFFFFFFFF DUP2 AND PUSH1 0x0 SWAP1 DUP2 MSTORE PUSH1 0x1 PUSH1 0x20 MSTORE PUSH1 0x40 DUP2 KECCAK256 DUP1 SLOAD PUSH1 0x1 PUSH1 0x60 SHL SWAP1 DIV PUSH1 0x1 PUSH1 0x1 PUSH1 0xA0 SHL SUB AND CALLER EQ PUSH2 0x18FA JUMPI PUSH1 0x40 MLOAD PUSH3 0x461BCD PUSH1 0xE5 SHL DUP2 MSTORE PUSH1 0x20 PUSH1 0x4 DUP3 ADD MSTORE PUSH1 0x37 PUSH1 0x24 DUP3 ADD MSTORE PUSH32 0x4D6F6E6F54726164653A2063616E63656C4F726465723A3A20796F7520617265 PUSH1 0x44 DUP3 ADD MSTORE PUSH32 0x206E6F74206F776E6572206F6620746865206F72646572000000000000000000 PUSH1 0x64 DUP3 ADD MSTORE PUSH1 0x84 ADD PUSH2 0x4C4 JUMP JUMPDEST DUP1 SLOAD PUSH6 0xFFFFFFFFFFFF AND PUSH6 0xFFFFFFFFFFFE NOT ADD PUSH2 0x197F JUMPI PUSH1 0x40 MLOAD PUSH3 0x461BCD PUSH1 0xE5 SHL DUP2 MSTORE PUSH1 0x20 PUSH1 0x4 DUP3 ADD MSTORE PUSH1 0x3B PUSH1 0x24 DUP3 ADD MSTORE PUSH32 0x4D6F6E6F54726164653A2063616E63656C4F726465723A3A20746865206F7264 PUSH1 0x44 DUP3 ADD MSTORE PUSH32 0x657220697320616C72656164792072656D6F76656428646F6E65290000000000 PUSH1 0x64 DUP3 ADD MSTORE PUSH1 0x84 ADD PUSH2 0x4C4 JUMP JUMPDEST PUSH2 0x1988 DUP2 PUSH2 0x1AE9 JUMP JUMPDEST PUSH1 0x2 SLOAD PUSH6 0xFFFFFFFFFFFF DUP1 DUP6 AND SWAP2 AND SUB PUSH2 0x19C4 JUMPI DUP1 SLOAD PUSH1 0x2 DUP1 SLOAD PUSH1 0x1 PUSH1 0x30 SHL SWAP1 SWAP3 DIV PUSH6 0xFFFFFFFFFFFF AND PUSH6 0xFFFFFFFFFFFF NOT SWAP1 SWAP3 AND SWAP2 SWAP1 SWAP2 OR SWAP1 SSTORE JUMPDEST DUP1 SLOAD PUSH6 0xFFFFFFFFFFFF NOT AND PUSH6 0xFFFFFFFFFFFF OR DUP2 SSTORE PUSH1 0x1 DUP2 ADD SLOAD PUSH1 0x0 SWAP1 PUSH4 0xFFFFFFFF SWAP1 PUSH2 0x1A04 SWAP1 PUSH1 0x1 PUSH1 0x1 PUSH1 0x70 SHL SUB DUP2 AND SWAP1 PUSH1 0x1 PUSH1 0xE0 SHL SWAP1 DIV DUP4 AND PUSH2 0x1CBE JUMP JUMPDEST PUSH2 0x1A0E SWAP2 SWAP1 PUSH2 0x1CF1 JUMP JUMPDEST PUSH1 0x1 DUP4 ADD SLOAD SWAP1 SWAP2 POP PUSH2 0x1A2A SWAP1 DUP3 SWAP1 PUSH1 0x1 PUSH1 0x1 PUSH1 0x70 SHL SUB AND PUSH2 0x1D05 JUMP JUMPDEST SWAP3 POP PUSH1 0x1 PUSH1 0x1 PUSH1 0x70 SHL SUB DUP4 AND ISZERO PUSH2 0x1AE2 JUMPI DUP2 SLOAD PUSH1 0x40 MLOAD PUSH4 0xA9059CBB PUSH1 0xE0 SHL DUP2 MSTORE PUSH1 0x1 PUSH1 0x60 SHL SWAP1 SWAP2 DIV PUSH1 0x1 PUSH1 0x1 PUSH1 0xA0 SHL SUB SWAP1 DUP2 AND PUSH1 0x4 DUP4 ADD MSTORE PUSH1 0x1 PUSH1 0x1 PUSH1 0x70 SHL SUB DUP6 AND PUSH1 0x24 DUP4 ADD MSTORE PUSH32 0x0 AND SWAP1 PUSH4 0xA9059CBB SWAP1 PUSH1 0x44 ADD PUSH1 0x20 PUSH1 0x40 MLOAD DUP1 DUP4 SUB DUP2 PUSH1 0x0 DUP8 GAS CALL ISZERO DUP1 ISZERO PUSH2 0x1ABC JUMPI RETURNDATASIZE PUSH1 0x0 DUP1 RETURNDATACOPY RETURNDATASIZE PUSH1 0x0 REVERT JUMPDEST POP POP POP POP PUSH1 0x40 MLOAD RETURNDATASIZE PUSH1 0x1F NOT PUSH1 0x1F DUP3 ADD AND DUP3 ADD DUP1 PUSH1 0x40 MSTORE POP DUP2 ADD SWAP1 PUSH2 0x1AE0 SWAP2 SWAP1 PUSH2 0x1C86 JUMP JUMPDEST POP JUMPDEST POP POP SWAP2 SWAP1 POP JUMP JUMPDEST DUP1 SLOAD PUSH6 0xFFFFFFFFFFFF AND ISZERO PUSH2 0x1B33 JUMPI DUP1 SLOAD PUSH6 0xFFFFFFFFFFFF DUP1 DUP3 AND PUSH1 0x0 SWAP1 DUP2 MSTORE PUSH1 0x1 PUSH1 0x20 MSTORE PUSH1 0x40 SWAP1 KECCAK256 DUP1 SLOAD PUSH6 0xFFFFFFFFFFFF PUSH1 0x30 SHL NOT AND PUSH1 0x1 PUSH1 0x30 SHL SWAP4 DUP5 SWAP1 DIV SWAP1 SWAP3 AND SWAP1 SWAP3 MUL OR SWAP1 SSTORE JUMPDEST DUP1 SLOAD PUSH1 0x1 PUSH1 0x30 SHL SWAP1 DIV PUSH6 0xFFFFFFFFFFFF AND ISZERO PUSH2 0x1B7D JUMPI DUP1 SLOAD PUSH1 0x1 PUSH1 0x30 SHL DUP2 DIV PUSH6 0xFFFFFFFFFFFF SWAP1 DUP2 AND PUSH1 0x0 SWAP1 DUP2 MSTORE PUSH1 0x1 PUSH1 0x20 MSTORE PUSH1 0x40 SWAP1 KECCAK256 DUP1 SLOAD PUSH6 0xFFFFFFFFFFFF NOT AND SWAP2 SWAP1 SWAP3 AND OR SWAP1 SSTORE JUMPDEST POP JUMP JUMPDEST DUP1 CALLDATALOAD PUSH6 0xFFFFFFFFFFFF DUP2 AND DUP2 EQ PUSH2 0x1B96 JUMPI PUSH1 0x0 DUP1 REVERT JUMPDEST SWAP2 SWAP1 POP JUMP JUMPDEST PUSH1 0x0 PUSH1 0x20 DUP3 DUP5 SUB SLT ISZERO PUSH2 0x1BAD JUMPI PUSH1 0x0 DUP1 REVERT JUMPDEST PUSH2 0x1856 DUP3 PUSH2 0x1B80 JUMP JUMPDEST DUP1 CALLDATALOAD PUSH1 0x1 PUSH1 0x1 PUSH1 0x70 SHL SUB DUP2 AND DUP2 EQ PUSH2 0x1B96 JUMPI PUSH1 0x0 DUP1 REVERT JUMPDEST PUSH1 0x0 DUP1 PUSH1 0x40 DUP4 DUP6 SUB SLT ISZERO PUSH2 0x1BE0 JUMPI PUSH1 0x0 DUP1 REVERT JUMPDEST PUSH2 0x1BE9 DUP4 PUSH2 0x1BB6 JUMP JUMPDEST SWAP2 POP PUSH2 0x1BF7 PUSH1 0x20 DUP5 ADD PUSH2 0x1BB6 JUMP JUMPDEST SWAP1 POP SWAP3 POP SWAP3 SWAP1 POP JUMP JUMPDEST PUSH1 0x0 DUP1 PUSH1 0x40 DUP4 DUP6 SUB SLT ISZERO PUSH2 0x1C13 JUMPI PUSH1 0x0 DUP1 REVERT JUMPDEST PUSH2 0x1C1C DUP4 PUSH2 0x1B80 JUMP JUMPDEST SWAP2 POP PUSH1 0x20 DUP4 ADD CALLDATALOAD PUSH1 0x1 PUSH1 0x1 PUSH1 0xA0 SHL SUB DUP2 AND DUP2 EQ PUSH2 0x1C38 JUMPI PUSH1 0x0 DUP1 REVERT JUMPDEST DUP1 SWAP2 POP POP SWAP3 POP SWAP3 SWAP1 POP JUMP JUMPDEST PUSH1 0x0 DUP1 PUSH1 0x0 PUSH1 0x60 DUP5 DUP7 SUB SLT ISZERO PUSH2 0x1C58 JUMPI PUSH1 0x0 DUP1 REVERT JUMPDEST PUSH2 0x1C61 DUP5 PUSH2 0x1BB6 JUMP JUMPDEST SWAP3 POP PUSH2 0x1C6F PUSH1 0x20 DUP6 ADD PUSH2 0x1BB6 JUMP JUMPDEST SWAP2 POP PUSH2 0x1C7D PUSH1 0x40 DUP6 ADD PUSH2 0x1B80 JUMP JUMPDEST SWAP1 POP SWAP3 POP SWAP3 POP SWAP3 JUMP JUMPDEST PUSH1 0x0 PUSH1 0x20 DUP3 DUP5 SUB SLT ISZERO PUSH2 0x1C98 JUMPI PUSH1 0x0 DUP1 REVERT JUMPDEST DUP2 MLOAD DUP1 ISZERO ISZERO DUP2 EQ PUSH2 0x1856 JUMPI PUSH1 0x0 DUP1 REVERT JUMPDEST PUSH4 0x4E487B71 PUSH1 0xE0 SHL PUSH1 0x0 MSTORE PUSH1 0x11 PUSH1 0x4 MSTORE PUSH1 0x24 PUSH1 0x0 REVERT JUMPDEST DUP1 DUP3 MUL DUP2 ISZERO DUP3 DUP3 DIV DUP5 EQ OR PUSH2 0x1CD5 JUMPI PUSH2 0x1CD5 PUSH2 0x1CA8 JUMP JUMPDEST SWAP3 SWAP2 POP POP JUMP JUMPDEST PUSH4 0x4E487B71 PUSH1 0xE0 SHL PUSH1 0x0 MSTORE PUSH1 0x12 PUSH1 0x4 MSTORE PUSH1 0x24 PUSH1 0x0 REVERT JUMPDEST PUSH1 0x0 DUP3 PUSH2 0x1D00 JUMPI PUSH2 0x1D00 PUSH2 0x1CDB JUMP JUMPDEST POP DIV SWAP1 JUMP JUMPDEST PUSH1 0x1 PUSH1 0x1 PUSH1 0x70 SHL SUB DUP3 DUP2 AND DUP3 DUP3 AND SUB SWAP1 DUP1 DUP3 GT ISZERO PUSH2 0x1D25 JUMPI PUSH2 0x1D25 PUSH2 0x1CA8 JUMP JUMPDEST POP SWAP3 SWAP2 POP POP JUMP JUMPDEST PUSH1 0x1 PUSH1 0x1 PUSH1 0x70 SHL SUB DUP2 DUP2 AND DUP4 DUP3 AND ADD SWAP1 DUP1 DUP3 GT ISZERO PUSH2 0x1D25 JUMPI PUSH2 0x1D25 PUSH2 0x1CA8 JUMP JUMPDEST PUSH1 0x1 PUSH1 0x1 PUSH1 0x70 SHL SUB DUP2 DUP2 AND DUP4 DUP3 AND MUL DUP1 DUP3 AND SWAP2 SWAP1 DUP3 DUP2 EQ PUSH2 0x1D6F JUMPI PUSH2 0x1D6F PUSH2 0x1CA8 JUMP JUMPDEST POP POP SWAP3 SWAP2 POP POP JUMP JUMPDEST PUSH1 0x0 PUSH1 0x1 PUSH1 0x1 PUSH1 0x70 SHL SUB DUP1 DUP5 AND DUP1 PUSH2 0x1D91 JUMPI PUSH2 0x1D91 PUSH2 0x1CDB JUMP JUMPDEST SWAP3 AND SWAP2 SWAP1 SWAP2 DIV SWAP3 SWAP2 POP POP JUMP JUMPDEST PUSH4 0xFFFFFFFF DUP2 DUP2 AND DUP4 DUP3 AND ADD SWAP1 DUP1 DUP3 GT ISZERO PUSH2 0x1D25 JUMPI PUSH2 0x1D25 PUSH2 0x1CA8 JUMP JUMPDEST PUSH1 0x0 PUSH6 0xFFFFFFFFFFFF DUP1 DUP4 AND DUP2 DUP2 SUB PUSH2 0x1DD5 JUMPI PUSH2 0x1DD5 PUSH2 0x1CA8 JUMP JUMPDEST PUSH1 0x1 ADD SWAP4 SWAP3 POP POP POP JUMP INVALID LOG2 PUSH5 0x6970667358 0x22 SLT KECCAK256 0xF9 0xCD SWAP2 0xDA PUSH9 0xEB5E63B030AC872FC9 BLOBBASEFEE 0xF6 SLOAD PUSH0 0xA7 0x4C JUMPI SWAP12 0xC9 PUSH7 0x5E4E0D593DF87F 0xD4 PUSH5 0x736F6C6343 STOP ADDMOD XOR STOP CALLER LOG2 PUSH5 0x6970667358 0x22 SLT KECCAK256 0xF DUP14 0xEC CREATE2 0xF8 AND 0xAE PUSH11 0x659D47390511FD1B9A6C4F SHR 0x24 CALLER 0x22 BALANCE 0x26 DUP3 GASPRICE CREATE2 BASEFEE CALLVALUE PUSH8 0xD64736F6C634300 ADDMOD XOR STOP CALLER "},"methodIdentifiers":{"computePairAddr(address,address)":"3bd07d27","createPair(address,address)":"c9c65396","fee()":"ddca3f43","feeTo()":"017e7e58","getOrderList(address,uint48,uint8)":"f06675a8","getTrade(address,address)":"b2ee08da","getUserOrders(address,uint48,uint48)":"f519e79f","trades(address,address)":"7240976c"}}}}}