{"contracts/PairReadHelp.sol":{"PairReadHelp":{"abi":[{"inputs":[],"stateMutability":"nonpayable","type":"constructor"},{"inputs":[{"internalType":"address","name":"pairAddr","type":"address"},{"internalType":"uint48","name":"fromOrderId","type":"uint48"},{"internalType":"uint8","name":"num","type":"uint8"}],"name":"getBuyList","outputs":[{"components":[{"internalType":"uint48","name":"orderId","type":"uint48"},{"internalType":"address","name":"owner","type":"address"},{"internalType":"uint256","name":"amountIn","type":"uint256"},{"internalType":"uint256","name":"amountOut","type":"uint256"},{"internalType":"uint256","name":"amountInUsed","type":"uint256"},{"internalType":"bool","name":"isDone","type":"bool"}],"internalType":"struct PairReadHelp.Order[]","name":"","type":"tuple[]"}],"stateMutability":"view","type":"function"},{"inputs":[{"internalType":"address","name":"pairAddr","type":"address"},{"internalType":"uint48","name":"orderId","type":"uint48"}],"name":"getOrder","outputs":[{"components":[{"internalType":"uint48","name":"orderId","type":"uint48"},{"internalType":"address","name":"owner","type":"address"},{"internalType":"uint256","name":"amountIn","type":"uint256"},{"internalType":"uint256","name":"amountOut","type":"uint256"},{"internalType":"uint256","name":"amountInUsed","type":"uint256"},{"internalType":"bool","name":"isDone","type":"bool"}],"internalType":"struct PairReadHelp.Order","name":"","type":"tuple"}],"stateMutability":"view","type":"function"},{"inputs":[{"internalType":"address","name":"pairAddr","type":"address"},{"internalType":"uint48","name":"fromOrderId","type":"uint48"},{"internalType":"uint8","name":"num","type":"uint8"}],"name":"getSellList","outputs":[{"components":[{"internalType":"uint48","name":"orderId","type":"uint48"},{"internalType":"address","name":"owner","type":"address"},{"internalType":"uint256","name":"amountIn","type":"uint256"},{"internalType":"uint256","name":"amountOut","type":"uint256"},{"internalType":"uint256","name":"amountInUsed","type":"uint256"},{"internalType":"bool","name":"isDone","type":"bool"}],"internalType":"struct PairReadHelp.Order[]","name":"","type":"tuple[]"}],"stateMutability":"view","type":"function"}],"evm":{"bytecode":{"linkReferences":{},"object":"608060405234801561001057600080fd5b50610868806100206000396000f3fe608060405234801561001057600080fd5b50600436106100415760003560e01c806309d255b51461004657806378cfd70e1461006f578063d4092fa61461008f575b600080fd5b610059610054366004610620565b6100a2565b60405161006691906106a3565b60405180910390f35b61008261007d3660046106b1565b6101bc565b6040516100669190610702565b61008261009d3660046106b1565b61037e565b6100aa6105ab565b6040516339709d2f60e21b815265ffffffffffff8316600482015283906000906001600160a01b0383169063e5c274bc9060240160c060405180830381865afa1580156100fb573d6000803e3d6000fd5b505050506040513d601f19601f8201168201806040525081019061011f9190610781565b60408101519091506001600160a01b03166101a757604051632b9116eb60e21b815265ffffffffffff851660048201526001600160a01b0383169063ae445bac9060240160c060405180830381865afa158015610180573d6000803e3d6000fd5b505050506040513d601f19601f820116820180604052508101906101a49190610781565b90505b6101b18185610535565b925050505b92915050565b604051632b9116eb60e21b815265ffffffffffff8316600482015260609084906000906001600160a01b0383169063ae445bac9060240160c060405180830381865afa158015610210573d6000803e3d6000fd5b505050506040513d601f19601f820116820180604052508101906102349190610781565b905060008460ff1667ffffffffffffffff81111561025457610254610750565b60405190808252806020026020018201604052801561028d57816020015b61027a6105ab565b8152602001906001900390816102725790505b50905061029a8287610535565b816000815181106102ad576102ad61081c565b602090810291909101015260015b8560ff168160ff161015610373576020830151604051632b9116eb60e21b815265ffffffffffff821660048201526001600160a01b0386169063ae445bac9060240160c060405180830381865afa15801561031a573d6000803e3d6000fd5b505050506040513d601f19601f8201168201806040525081019061033e9190610781565b935061034a8482610535565b838360ff168151811061035f5761035f61081c565b6020908102919091010152506001016102bb565b509695505050505050565b6040516339709d2f60e21b815265ffffffffffff8316600482015260609084906000906001600160a01b0383169063e5c274bc9060240160c060405180830381865afa1580156103d2573d6000803e3d6000fd5b505050506040513d601f19601f820116820180604052508101906103f69190610781565b905060008460ff1667ffffffffffffffff81111561041657610416610750565b60405190808252806020026020018201604052801561044f57816020015b61043c6105ab565b8152602001906001900390816104345790505b50905061045c8287610535565b8160008151811061046f5761046f61081c565b602090810291909101015260015b8560ff168160ff1610156103735760208301516040516339709d2f60e21b815265ffffffffffff821660048201526001600160a01b0386169063e5c274bc9060240160c060405180830381865afa1580156104dc573d6000803e3d6000fd5b505050506040513d601f19601f820116820180604052508101906105009190610781565b935061050c8482610535565b838360ff16815181106105215761052161081c565b60209081029190910101525060010161047d565b61053d6105ab565b6040518060c001604052808365ffffffffffff16815260200184604001516001600160a01b0316815260200184606001518152602001846080015181526020018460a00151815260200165ffffffffffff8016856000015165ffffffffffff16141515815250905092915050565b6040518060c00160405280600065ffffffffffff16815260200160006001600160a01b031681526020016000815260200160008152602001600081526020016000151581525090565b6001600160a01b038116811461060957600080fd5b50565b65ffffffffffff8116811461060957600080fd5b6000806040838503121561063357600080fd5b823561063e816105f4565b9150602083013561064e8161060c565b809150509250929050565b805165ffffffffffff1682526020808201516001600160a01b03169083015260408082015190830152606080820151908301526080808201519083015260a0908101511515910152565b60c081016101b68284610659565b6000806000606084860312156106c657600080fd5b83356106d1816105f4565b925060208401356106e18161060c565b9150604084013560ff811681146106f757600080fd5b809150509250925092565b6020808252825182820181905260009190848201906040850190845b8181101561074457610731838551610659565b9284019260c0929092019160010161071e565b50909695505050505050565b634e487b7160e01b600052604160045260246000fd5b80516107718161060c565b919050565b8051610771816105f4565b600060c0828403121561079357600080fd5b60405160c0810181811067ffffffffffffffff821117156107c457634e487b7160e01b600052604160045260246000fd5b6040526107d083610766565b81526107de60208401610766565b60208201526107ef60408401610776565b6040820152606083015160608201526080830151608082015260a083015160a08201528091505092915050565b634e487b7160e01b600052603260045260246000fdfea26469706673582212207bca3e25ad351d1b5d5dcfbe6bfb9b4e24d5b6affd46ab96a02757edfff8ac5764736f6c63430008180033","opcodes":"PUSH1 0x80 PUSH1 0x40 MSTORE CALLVALUE DUP1 ISZERO PUSH2 0x10 JUMPI PUSH1 0x0 DUP1 REVERT JUMPDEST POP PUSH2 0x868 DUP1 PUSH2 0x20 PUSH1 0x0 CODECOPY PUSH1 0x0 RETURN INVALID PUSH1 0x80 PUSH1 0x40 MSTORE CALLVALUE DUP1 ISZERO PUSH2 0x10 JUMPI PUSH1 0x0 DUP1 REVERT JUMPDEST POP PUSH1 0x4 CALLDATASIZE LT PUSH2 0x41 JUMPI PUSH1 0x0 CALLDATALOAD PUSH1 0xE0 SHR DUP1 PUSH4 0x9D255B5 EQ PUSH2 0x46 JUMPI DUP1 PUSH4 0x78CFD70E EQ PUSH2 0x6F JUMPI DUP1 PUSH4 0xD4092FA6 EQ PUSH2 0x8F JUMPI JUMPDEST PUSH1 0x0 DUP1 REVERT JUMPDEST PUSH2 0x59 PUSH2 0x54 CALLDATASIZE PUSH1 0x4 PUSH2 0x620 JUMP JUMPDEST PUSH2 0xA2 JUMP JUMPDEST PUSH1 0x40 MLOAD PUSH2 0x66 SWAP2 SWAP1 PUSH2 0x6A3 JUMP JUMPDEST PUSH1 0x40 MLOAD DUP1 SWAP2 SUB SWAP1 RETURN JUMPDEST PUSH2 0x82 PUSH2 0x7D CALLDATASIZE PUSH1 0x4 PUSH2 0x6B1 JUMP JUMPDEST PUSH2 0x1BC JUMP JUMPDEST PUSH1 0x40 MLOAD PUSH2 0x66 SWAP2 SWAP1 PUSH2 0x702 JUMP JUMPDEST PUSH2 0x82 PUSH2 0x9D CALLDATASIZE PUSH1 0x4 PUSH2 0x6B1 JUMP JUMPDEST PUSH2 0x37E JUMP JUMPDEST PUSH2 0xAA PUSH2 0x5AB JUMP JUMPDEST PUSH1 0x40 MLOAD PUSH4 0x39709D2F PUSH1 0xE2 SHL DUP2 MSTORE PUSH6 0xFFFFFFFFFFFF DUP4 AND PUSH1 0x4 DUP3 ADD MSTORE DUP4 SWAP1 PUSH1 0x0 SWAP1 PUSH1 0x1 PUSH1 0x1 PUSH1 0xA0 SHL SUB DUP4 AND SWAP1 PUSH4 0xE5C274BC SWAP1 PUSH1 0x24 ADD PUSH1 0xC0 PUSH1 0x40 MLOAD DUP1 DUP4 SUB DUP2 DUP7 GAS STATICCALL ISZERO DUP1 ISZERO PUSH2 0xFB JUMPI RETURNDATASIZE PUSH1 0x0 DUP1 RETURNDATACOPY RETURNDATASIZE PUSH1 0x0 REVERT JUMPDEST POP POP POP POP PUSH1 0x40 MLOAD RETURNDATASIZE PUSH1 0x1F NOT PUSH1 0x1F DUP3 ADD AND DUP3 ADD DUP1 PUSH1 0x40 MSTORE POP DUP2 ADD SWAP1 PUSH2 0x11F SWAP2 SWAP1 PUSH2 0x781 JUMP JUMPDEST PUSH1 0x40 DUP2 ADD MLOAD SWAP1 SWAP2 POP PUSH1 0x1 PUSH1 0x1 PUSH1 0xA0 SHL SUB AND PUSH2 0x1A7 JUMPI PUSH1 0x40 MLOAD PUSH4 0x2B9116EB PUSH1 0xE2 SHL DUP2 MSTORE PUSH6 0xFFFFFFFFFFFF DUP6 AND PUSH1 0x4 DUP3 ADD MSTORE PUSH1 0x1 PUSH1 0x1 PUSH1 0xA0 SHL SUB DUP4 AND SWAP1 PUSH4 0xAE445BAC SWAP1 PUSH1 0x24 ADD PUSH1 0xC0 PUSH1 0x40 MLOAD DUP1 DUP4 SUB DUP2 DUP7 GAS STATICCALL ISZERO DUP1 ISZERO PUSH2 0x180 JUMPI RETURNDATASIZE PUSH1 0x0 DUP1 RETURNDATACOPY RETURNDATASIZE PUSH1 0x0 REVERT JUMPDEST POP POP POP POP PUSH1 0x40 MLOAD RETURNDATASIZE PUSH1 0x1F NOT PUSH1 0x1F DUP3 ADD AND DUP3 ADD DUP1 PUSH1 0x40 MSTORE POP DUP2 ADD SWAP1 PUSH2 0x1A4 SWAP2 SWAP1 PUSH2 0x781 JUMP JUMPDEST SWAP1 POP JUMPDEST PUSH2 0x1B1 DUP2 DUP6 PUSH2 0x535 JUMP JUMPDEST SWAP3 POP POP POP JUMPDEST SWAP3 SWAP2 POP POP JUMP JUMPDEST PUSH1 0x40 MLOAD PUSH4 0x2B9116EB PUSH1 0xE2 SHL DUP2 MSTORE PUSH6 0xFFFFFFFFFFFF DUP4 AND PUSH1 0x4 DUP3 ADD MSTORE PUSH1 0x60 SWAP1 DUP5 SWAP1 PUSH1 0x0 SWAP1 PUSH1 0x1 PUSH1 0x1 PUSH1 0xA0 SHL SUB DUP4 AND SWAP1 PUSH4 0xAE445BAC SWAP1 PUSH1 0x24 ADD PUSH1 0xC0 PUSH1 0x40 MLOAD DUP1 DUP4 SUB DUP2 DUP7 GAS STATICCALL ISZERO DUP1 ISZERO PUSH2 0x210 JUMPI RETURNDATASIZE PUSH1 0x0 DUP1 RETURNDATACOPY RETURNDATASIZE PUSH1 0x0 REVERT JUMPDEST POP POP POP POP PUSH1 0x40 MLOAD RETURNDATASIZE PUSH1 0x1F NOT PUSH1 0x1F DUP3 ADD AND DUP3 ADD DUP1 PUSH1 0x40 MSTORE POP DUP2 ADD SWAP1 PUSH2 0x234 SWAP2 SWAP1 PUSH2 0x781 JUMP JUMPDEST SWAP1 POP PUSH1 0x0 DUP5 PUSH1 0xFF AND PUSH8 0xFFFFFFFFFFFFFFFF DUP2 GT ISZERO PUSH2 0x254 JUMPI PUSH2 0x254 PUSH2 0x750 JUMP JUMPDEST PUSH1 0x40 MLOAD SWAP1 DUP1 DUP3 MSTORE DUP1 PUSH1 0x20 MUL PUSH1 0x20 ADD DUP3 ADD PUSH1 0x40 MSTORE DUP1 ISZERO PUSH2 0x28D JUMPI DUP2 PUSH1 0x20 ADD JUMPDEST PUSH2 0x27A PUSH2 0x5AB JUMP JUMPDEST DUP2 MSTORE PUSH1 0x20 ADD SWAP1 PUSH1 0x1 SWAP1 SUB SWAP1 DUP2 PUSH2 0x272 JUMPI SWAP1 POP JUMPDEST POP SWAP1 POP PUSH2 0x29A DUP3 DUP8 PUSH2 0x535 JUMP JUMPDEST DUP2 PUSH1 0x0 DUP2 MLOAD DUP2 LT PUSH2 0x2AD JUMPI PUSH2 0x2AD PUSH2 0x81C JUMP JUMPDEST PUSH1 0x20 SWAP1 DUP2 MUL SWAP2 SWAP1 SWAP2 ADD ADD MSTORE PUSH1 0x1 JUMPDEST DUP6 PUSH1 0xFF AND DUP2 PUSH1 0xFF AND LT ISZERO PUSH2 0x373 JUMPI PUSH1 0x20 DUP4 ADD MLOAD PUSH1 0x40 MLOAD PUSH4 0x2B9116EB PUSH1 0xE2 SHL DUP2 MSTORE PUSH6 0xFFFFFFFFFFFF DUP3 AND PUSH1 0x4 DUP3 ADD MSTORE PUSH1 0x1 PUSH1 0x1 PUSH1 0xA0 SHL SUB DUP7 AND SWAP1 PUSH4 0xAE445BAC SWAP1 PUSH1 0x24 ADD PUSH1 0xC0 PUSH1 0x40 MLOAD DUP1 DUP4 SUB DUP2 DUP7 GAS STATICCALL ISZERO DUP1 ISZERO PUSH2 0x31A JUMPI RETURNDATASIZE PUSH1 0x0 DUP1 RETURNDATACOPY RETURNDATASIZE PUSH1 0x0 REVERT JUMPDEST POP POP POP POP PUSH1 0x40 MLOAD RETURNDATASIZE PUSH1 0x1F NOT PUSH1 0x1F DUP3 ADD AND DUP3 ADD DUP1 PUSH1 0x40 MSTORE POP DUP2 ADD SWAP1 PUSH2 0x33E SWAP2 SWAP1 PUSH2 0x781 JUMP JUMPDEST SWAP4 POP PUSH2 0x34A DUP5 DUP3 PUSH2 0x535 JUMP JUMPDEST DUP4 DUP4 PUSH1 0xFF AND DUP2 MLOAD DUP2 LT PUSH2 0x35F JUMPI PUSH2 0x35F PUSH2 0x81C JUMP JUMPDEST PUSH1 0x20 SWAP1 DUP2 MUL SWAP2 SWAP1 SWAP2 ADD ADD MSTORE POP PUSH1 0x1 ADD PUSH2 0x2BB JUMP JUMPDEST POP SWAP7 SWAP6 POP POP POP POP POP POP JUMP JUMPDEST PUSH1 0x40 MLOAD PUSH4 0x39709D2F PUSH1 0xE2 SHL DUP2 MSTORE PUSH6 0xFFFFFFFFFFFF DUP4 AND PUSH1 0x4 DUP3 ADD MSTORE PUSH1 0x60 SWAP1 DUP5 SWAP1 PUSH1 0x0 SWAP1 PUSH1 0x1 PUSH1 0x1 PUSH1 0xA0 SHL SUB DUP4 AND SWAP1 PUSH4 0xE5C274BC SWAP1 PUSH1 0x24 ADD PUSH1 0xC0 PUSH1 0x40 MLOAD DUP1 DUP4 SUB DUP2 DUP7 GAS STATICCALL ISZERO DUP1 ISZERO PUSH2 0x3D2 JUMPI RETURNDATASIZE PUSH1 0x0 DUP1 RETURNDATACOPY RETURNDATASIZE PUSH1 0x0 REVERT JUMPDEST POP POP POP POP PUSH1 0x40 MLOAD RETURNDATASIZE PUSH1 0x1F NOT PUSH1 0x1F DUP3 ADD AND DUP3 ADD DUP1 PUSH1 0x40 MSTORE POP DUP2 ADD SWAP1 PUSH2 0x3F6 SWAP2 SWAP1 PUSH2 0x781 JUMP JUMPDEST SWAP1 POP PUSH1 0x0 DUP5 PUSH1 0xFF AND PUSH8 0xFFFFFFFFFFFFFFFF DUP2 GT ISZERO PUSH2 0x416 JUMPI PUSH2 0x416 PUSH2 0x750 JUMP JUMPDEST PUSH1 0x40 MLOAD SWAP1 DUP1 DUP3 MSTORE DUP1 PUSH1 0x20 MUL PUSH1 0x20 ADD DUP3 ADD PUSH1 0x40 MSTORE DUP1 ISZERO PUSH2 0x44F JUMPI DUP2 PUSH1 0x20 ADD JUMPDEST PUSH2 0x43C PUSH2 0x5AB JUMP JUMPDEST DUP2 MSTORE PUSH1 0x20 ADD SWAP1 PUSH1 0x1 SWAP1 SUB SWAP1 DUP2 PUSH2 0x434 JUMPI SWAP1 POP JUMPDEST POP SWAP1 POP PUSH2 0x45C DUP3 DUP8 PUSH2 0x535 JUMP JUMPDEST DUP2 PUSH1 0x0 DUP2 MLOAD DUP2 LT PUSH2 0x46F JUMPI PUSH2 0x46F PUSH2 0x81C JUMP JUMPDEST PUSH1 0x20 SWAP1 DUP2 MUL SWAP2 SWAP1 SWAP2 ADD ADD MSTORE PUSH1 0x1 JUMPDEST DUP6 PUSH1 0xFF AND DUP2 PUSH1 0xFF AND LT ISZERO PUSH2 0x373 JUMPI PUSH1 0x20 DUP4 ADD MLOAD PUSH1 0x40 MLOAD PUSH4 0x39709D2F PUSH1 0xE2 SHL DUP2 MSTORE PUSH6 0xFFFFFFFFFFFF DUP3 AND PUSH1 0x4 DUP3 ADD MSTORE PUSH1 0x1 PUSH1 0x1 PUSH1 0xA0 SHL SUB DUP7 AND SWAP1 PUSH4 0xE5C274BC SWAP1 PUSH1 0x24 ADD PUSH1 0xC0 PUSH1 0x40 MLOAD DUP1 DUP4 SUB DUP2 DUP7 GAS STATICCALL ISZERO DUP1 ISZERO PUSH2 0x4DC JUMPI RETURNDATASIZE PUSH1 0x0 DUP1 RETURNDATACOPY RETURNDATASIZE PUSH1 0x0 REVERT JUMPDEST POP POP POP POP PUSH1 0x40 MLOAD RETURNDATASIZE PUSH1 0x1F NOT PUSH1 0x1F DUP3 ADD AND DUP3 ADD DUP1 PUSH1 0x40 MSTORE POP DUP2 ADD SWAP1 PUSH2 0x500 SWAP2 SWAP1 PUSH2 0x781 JUMP JUMPDEST SWAP4 POP PUSH2 0x50C DUP5 DUP3 PUSH2 0x535 JUMP JUMPDEST DUP4 DUP4 PUSH1 0xFF AND DUP2 MLOAD DUP2 LT PUSH2 0x521 JUMPI PUSH2 0x521 PUSH2 0x81C JUMP JUMPDEST PUSH1 0x20 SWAP1 DUP2 MUL SWAP2 SWAP1 SWAP2 ADD ADD MSTORE POP PUSH1 0x1 ADD PUSH2 0x47D JUMP JUMPDEST PUSH2 0x53D PUSH2 0x5AB JUMP JUMPDEST PUSH1 0x40 MLOAD DUP1 PUSH1 0xC0 ADD PUSH1 0x40 MSTORE DUP1 DUP4 PUSH6 0xFFFFFFFFFFFF AND DUP2 MSTORE PUSH1 0x20 ADD DUP5 PUSH1 0x40 ADD MLOAD PUSH1 0x1 PUSH1 0x1 PUSH1 0xA0 SHL SUB AND DUP2 MSTORE PUSH1 0x20 ADD DUP5 PUSH1 0x60 ADD MLOAD DUP2 MSTORE PUSH1 0x20 ADD DUP5 PUSH1 0x80 ADD MLOAD DUP2 MSTORE PUSH1 0x20 ADD DUP5 PUSH1 0xA0 ADD MLOAD DUP2 MSTORE PUSH1 0x20 ADD PUSH6 0xFFFFFFFFFFFF DUP1 AND DUP6 PUSH1 0x0 ADD MLOAD PUSH6 0xFFFFFFFFFFFF AND EQ ISZERO ISZERO DUP2 MSTORE POP SWAP1 POP SWAP3 SWAP2 POP POP JUMP JUMPDEST PUSH1 0x40 MLOAD DUP1 PUSH1 0xC0 ADD PUSH1 0x40 MSTORE DUP1 PUSH1 0x0 PUSH6 0xFFFFFFFFFFFF AND DUP2 MSTORE PUSH1 0x20 ADD PUSH1 0x0 PUSH1 0x1 PUSH1 0x1 PUSH1 0xA0 SHL SUB AND DUP2 MSTORE PUSH1 0x20 ADD PUSH1 0x0 DUP2 MSTORE PUSH1 0x20 ADD PUSH1 0x0 DUP2 MSTORE PUSH1 0x20 ADD PUSH1 0x0 DUP2 MSTORE PUSH1 0x20 ADD PUSH1 0x0 ISZERO ISZERO DUP2 MSTORE POP SWAP1 JUMP JUMPDEST PUSH1 0x1 PUSH1 0x1 PUSH1 0xA0 SHL SUB DUP2 AND DUP2 EQ PUSH2 0x609 JUMPI PUSH1 0x0 DUP1 REVERT JUMPDEST POP JUMP JUMPDEST PUSH6 0xFFFFFFFFFFFF DUP2 AND DUP2 EQ PUSH2 0x609 JUMPI PUSH1 0x0 DUP1 REVERT JUMPDEST PUSH1 0x0 DUP1 PUSH1 0x40 DUP4 DUP6 SUB SLT ISZERO PUSH2 0x633 JUMPI PUSH1 0x0 DUP1 REVERT JUMPDEST DUP3 CALLDATALOAD PUSH2 0x63E DUP2 PUSH2 0x5F4 JUMP JUMPDEST SWAP2 POP PUSH1 0x20 DUP4 ADD CALLDATALOAD PUSH2 0x64E DUP2 PUSH2 0x60C JUMP JUMPDEST DUP1 SWAP2 POP POP SWAP3 POP SWAP3 SWAP1 POP JUMP JUMPDEST DUP1 MLOAD PUSH6 0xFFFFFFFFFFFF AND DUP3 MSTORE PUSH1 0x20 DUP1 DUP3 ADD MLOAD PUSH1 0x1 PUSH1 0x1 PUSH1 0xA0 SHL SUB AND SWAP1 DUP4 ADD MSTORE PUSH1 0x40 DUP1 DUP3 ADD MLOAD SWAP1 DUP4 ADD MSTORE PUSH1 0x60 DUP1 DUP3 ADD MLOAD SWAP1 DUP4 ADD MSTORE PUSH1 0x80 DUP1 DUP3 ADD MLOAD SWAP1 DUP4 ADD MSTORE PUSH1 0xA0 SWAP1 DUP2 ADD MLOAD ISZERO ISZERO SWAP2 ADD MSTORE JUMP JUMPDEST PUSH1 0xC0 DUP2 ADD PUSH2 0x1B6 DUP3 DUP5 PUSH2 0x659 JUMP JUMPDEST PUSH1 0x0 DUP1 PUSH1 0x0 PUSH1 0x60 DUP5 DUP7 SUB SLT ISZERO PUSH2 0x6C6 JUMPI PUSH1 0x0 DUP1 REVERT JUMPDEST DUP4 CALLDATALOAD PUSH2 0x6D1 DUP2 PUSH2 0x5F4 JUMP JUMPDEST SWAP3 POP PUSH1 0x20 DUP5 ADD CALLDATALOAD PUSH2 0x6E1 DUP2 PUSH2 0x60C JUMP JUMPDEST SWAP2 POP PUSH1 0x40 DUP5 ADD CALLDATALOAD PUSH1 0xFF DUP2 AND DUP2 EQ PUSH2 0x6F7 JUMPI PUSH1 0x0 DUP1 REVERT JUMPDEST DUP1 SWAP2 POP POP SWAP3 POP SWAP3 POP SWAP3 JUMP JUMPDEST PUSH1 0x20 DUP1 DUP3 MSTORE DUP3 MLOAD DUP3 DUP3 ADD DUP2 SWAP1 MSTORE PUSH1 0x0 SWAP2 SWAP1 DUP5 DUP3 ADD SWAP1 PUSH1 0x40 DUP6 ADD SWAP1 DUP5 JUMPDEST DUP2 DUP2 LT ISZERO PUSH2 0x744 JUMPI PUSH2 0x731 DUP4 DUP6 MLOAD PUSH2 0x659 JUMP JUMPDEST SWAP3 DUP5 ADD SWAP3 PUSH1 0xC0 SWAP3 SWAP1 SWAP3 ADD SWAP2 PUSH1 0x1 ADD PUSH2 0x71E JUMP JUMPDEST POP SWAP1 SWAP7 SWAP6 POP POP POP POP POP POP JUMP JUMPDEST PUSH4 0x4E487B71 PUSH1 0xE0 SHL PUSH1 0x0 MSTORE PUSH1 0x41 PUSH1 0x4 MSTORE PUSH1 0x24 PUSH1 0x0 REVERT JUMPDEST DUP1 MLOAD PUSH2 0x771 DUP2 PUSH2 0x60C JUMP JUMPDEST SWAP2 SWAP1 POP JUMP JUMPDEST DUP1 MLOAD PUSH2 0x771 DUP2 PUSH2 0x5F4 JUMP JUMPDEST PUSH1 0x0 PUSH1 0xC0 DUP3 DUP5 SUB SLT ISZERO PUSH2 0x793 JUMPI PUSH1 0x0 DUP1 REVERT JUMPDEST PUSH1 0x40 MLOAD PUSH1 0xC0 DUP2 ADD DUP2 DUP2 LT PUSH8 0xFFFFFFFFFFFFFFFF DUP3 GT OR ISZERO PUSH2 0x7C4 JUMPI PUSH4 0x4E487B71 PUSH1 0xE0 SHL PUSH1 0x0 MSTORE PUSH1 0x41 PUSH1 0x4 MSTORE PUSH1 0x24 PUSH1 0x0 REVERT JUMPDEST PUSH1 0x40 MSTORE PUSH2 0x7D0 DUP4 PUSH2 0x766 JUMP JUMPDEST DUP2 MSTORE PUSH2 0x7DE PUSH1 0x20 DUP5 ADD PUSH2 0x766 JUMP JUMPDEST PUSH1 0x20 DUP3 ADD MSTORE PUSH2 0x7EF PUSH1 0x40 DUP5 ADD PUSH2 0x776 JUMP JUMPDEST PUSH1 0x40 DUP3 ADD MSTORE PUSH1 0x60 DUP4 ADD MLOAD PUSH1 0x60 DUP3 ADD MSTORE PUSH1 0x80 DUP4 ADD MLOAD PUSH1 0x80 DUP3 ADD MSTORE PUSH1 0xA0 DUP4 ADD MLOAD PUSH1 0xA0 DUP3 ADD MSTORE DUP1 SWAP2 POP POP SWAP3 SWAP2 POP POP JUMP JUMPDEST PUSH4 0x4E487B71 PUSH1 0xE0 SHL PUSH1 0x0 MSTORE PUSH1 0x32 PUSH1 0x4 MSTORE PUSH1 0x24 PUSH1 0x0 REVERT INVALID LOG2 PUSH5 0x6970667358 0x22 SLT KECCAK256 PUSH28 0xCA3E25AD351D1B5D5DCFBE6BFB9B4E24D5B6AFFD46AB96A02757EDFF 0xF8 0xAC JUMPI PUSH5 0x736F6C6343 STOP ADDMOD XOR STOP CALLER "},"methodIdentifiers":{"getBuyList(address,uint48,uint8)":"d4092fa6","getOrder(address,uint48)":"09d255b5","getSellList(address,uint48,uint8)":"78cfd70e"}}}}}