{"contracts/MarsHelp.sol":{"MarsHelp":{"abi":[{"inputs":[],"stateMutability":"nonpayable","type":"constructor"},{"inputs":[{"internalType":"uint256","name":"token1In","type":"uint256"},{"internalType":"uint256","name":"token0Out","type":"uint256"}],"name":"findBeforeOrderIdInBuyList","outputs":[{"internalType":"uint48","name":"","type":"uint48"}],"stateMutability":"nonpayable","type":"function"},{"inputs":[{"internalType":"address","name":"pairAddr","type":"address"},{"internalType":"uint48","name":"fromOrderId","type":"uint48"},{"internalType":"uint8","name":"num","type":"uint8"}],"name":"getBuyList","outputs":[{"components":[{"internalType":"uint48","name":"orderId","type":"uint48"},{"internalType":"address","name":"owner","type":"address"},{"internalType":"uint256","name":"amountIn","type":"uint256"},{"internalType":"uint256","name":"amountOut","type":"uint256"},{"internalType":"uint256","name":"amountInUsed","type":"uint256"},{"internalType":"bool","name":"isDone","type":"bool"}],"internalType":"struct MarsHelp.Order[]","name":"","type":"tuple[]"}],"stateMutability":"view","type":"function"},{"inputs":[{"internalType":"address","name":"pairAddr","type":"address"},{"internalType":"uint48","name":"orderId","type":"uint48"}],"name":"getOrder","outputs":[{"components":[{"internalType":"uint48","name":"orderId","type":"uint48"},{"internalType":"address","name":"owner","type":"address"},{"internalType":"uint256","name":"amountIn","type":"uint256"},{"internalType":"uint256","name":"amountOut","type":"uint256"},{"internalType":"uint256","name":"amountInUsed","type":"uint256"},{"internalType":"bool","name":"isDone","type":"bool"}],"internalType":"struct MarsHelp.Order","name":"","type":"tuple"}],"stateMutability":"view","type":"function"},{"inputs":[{"internalType":"address","name":"pairAddr","type":"address"},{"internalType":"uint48","name":"fromOrderId","type":"uint48"},{"internalType":"uint8","name":"num","type":"uint8"}],"name":"getSellList","outputs":[{"components":[{"internalType":"uint48","name":"orderId","type":"uint48"},{"internalType":"address","name":"owner","type":"address"},{"internalType":"uint256","name":"amountIn","type":"uint256"},{"internalType":"uint256","name":"amountOut","type":"uint256"},{"internalType":"uint256","name":"amountInUsed","type":"uint256"},{"internalType":"bool","name":"isDone","type":"bool"}],"internalType":"struct MarsHelp.Order[]","name":"","type":"tuple[]"}],"stateMutability":"view","type":"function"}],"evm":{"bytecode":{"linkReferences":{},"object":"608060405234801561001057600080fd5b506108c2806100206000396000f3fe608060405234801561001057600080fd5b506004361061004c5760003560e01c806309d255b5146100515780632e83f20c1461007a57806378cfd70e146100a7578063d4092fa6146100c7575b600080fd5b61006461005f366004610658565b6100da565b60405161007191906106db565b60405180910390f35b6100906100883660046106e9565b600092915050565b60405165ffffffffffff9091168152602001610071565b6100ba6100b536600461070b565b6101f4565b604051610071919061075c565b6100ba6100d536600461070b565b6103b6565b6100e26105e3565b6040516339709d2f60e21b815265ffffffffffff8316600482015283906000906001600160a01b0383169063e5c274bc9060240160c060405180830381865afa158015610133573d6000803e3d6000fd5b505050506040513d601f19601f8201168201806040525081019061015791906107db565b60408101519091506001600160a01b03166101df57604051632b9116eb60e21b815265ffffffffffff851660048201526001600160a01b0383169063ae445bac9060240160c060405180830381865afa1580156101b8573d6000803e3d6000fd5b505050506040513d601f19601f820116820180604052508101906101dc91906107db565b90505b6101e9818561056d565b925050505b92915050565b604051632b9116eb60e21b815265ffffffffffff8316600482015260609084906000906001600160a01b0383169063ae445bac9060240160c060405180830381865afa158015610248573d6000803e3d6000fd5b505050506040513d601f19601f8201168201806040525081019061026c91906107db565b905060008460ff1667ffffffffffffffff81111561028c5761028c6107aa565b6040519080825280602002602001820160405280156102c557816020015b6102b26105e3565b8152602001906001900390816102aa5790505b5090506102d2828761056d565b816000815181106102e5576102e5610876565b602090810291909101015260015b8560ff168160ff1610156103ab576020830151604051632b9116eb60e21b815265ffffffffffff821660048201526001600160a01b0386169063ae445bac9060240160c060405180830381865afa158015610352573d6000803e3d6000fd5b505050506040513d601f19601f8201168201806040525081019061037691906107db565b9350610382848261056d565b838360ff168151811061039757610397610876565b6020908102919091010152506001016102f3565b509695505050505050565b6040516339709d2f60e21b815265ffffffffffff8316600482015260609084906000906001600160a01b0383169063e5c274bc9060240160c060405180830381865afa15801561040a573d6000803e3d6000fd5b505050506040513d601f19601f8201168201806040525081019061042e91906107db565b905060008460ff1667ffffffffffffffff81111561044e5761044e6107aa565b60405190808252806020026020018201604052801561048757816020015b6104746105e3565b81526020019060019003908161046c5790505b509050610494828761056d565b816000815181106104a7576104a7610876565b602090810291909101015260015b8560ff168160ff1610156103ab5760208301516040516339709d2f60e21b815265ffffffffffff821660048201526001600160a01b0386169063e5c274bc9060240160c060405180830381865afa158015610514573d6000803e3d6000fd5b505050506040513d601f19601f8201168201806040525081019061053891906107db565b9350610544848261056d565b838360ff168151811061055957610559610876565b6020908102919091010152506001016104b5565b6105756105e3565b6040518060c001604052808365ffffffffffff16815260200184604001516001600160a01b0316815260200184606001518152602001846080015181526020018460a00151815260200165ffffffffffff8016856000015165ffffffffffff16141515815250905092915050565b6040518060c00160405280600065ffffffffffff16815260200160006001600160a01b031681526020016000815260200160008152602001600081526020016000151581525090565b6001600160a01b038116811461064157600080fd5b50565b65ffffffffffff8116811461064157600080fd5b6000806040838503121561066b57600080fd5b82356106768161062c565b9150602083013561068681610644565b809150509250929050565b805165ffffffffffff1682526020808201516001600160a01b03169083015260408082015190830152606080820151908301526080808201519083015260a0908101511515910152565b60c081016101ee8284610691565b600080604083850312156106fc57600080fd5b50508035926020909101359150565b60008060006060848603121561072057600080fd5b833561072b8161062c565b9250602084013561073b81610644565b9150604084013560ff8116811461075157600080fd5b809150509250925092565b6020808252825182820181905260009190848201906040850190845b8181101561079e5761078b838551610691565b9284019260c09290920191600101610778565b50909695505050505050565b634e487b7160e01b600052604160045260246000fd5b80516107cb81610644565b919050565b80516107cb8161062c565b600060c082840312156107ed57600080fd5b60405160c0810181811067ffffffffffffffff8211171561081e57634e487b7160e01b600052604160045260246000fd5b60405261082a836107c0565b8152610838602084016107c0565b6020820152610849604084016107d0565b6040820152606083015160608201526080830151608082015260a083015160a08201528091505092915050565b634e487b7160e01b600052603260045260246000fdfea2646970667358221220edb6ae4774389adcbb88a466d34ae21385a49989e35394ed46ed43f2dd3c1deb64736f6c63430008180033","opcodes":"PUSH1 0x80 PUSH1 0x40 MSTORE CALLVALUE DUP1 ISZERO PUSH2 0x10 JUMPI PUSH1 0x0 DUP1 REVERT JUMPDEST POP PUSH2 0x8C2 DUP1 PUSH2 0x20 PUSH1 0x0 CODECOPY PUSH1 0x0 RETURN INVALID PUSH1 0x80 PUSH1 0x40 MSTORE CALLVALUE DUP1 ISZERO PUSH2 0x10 JUMPI PUSH1 0x0 DUP1 REVERT JUMPDEST POP PUSH1 0x4 CALLDATASIZE LT PUSH2 0x4C JUMPI PUSH1 0x0 CALLDATALOAD PUSH1 0xE0 SHR DUP1 PUSH4 0x9D255B5 EQ PUSH2 0x51 JUMPI DUP1 PUSH4 0x2E83F20C EQ PUSH2 0x7A JUMPI DUP1 PUSH4 0x78CFD70E EQ PUSH2 0xA7 JUMPI DUP1 PUSH4 0xD4092FA6 EQ PUSH2 0xC7 JUMPI JUMPDEST PUSH1 0x0 DUP1 REVERT JUMPDEST PUSH2 0x64 PUSH2 0x5F CALLDATASIZE PUSH1 0x4 PUSH2 0x658 JUMP JUMPDEST PUSH2 0xDA JUMP JUMPDEST PUSH1 0x40 MLOAD PUSH2 0x71 SWAP2 SWAP1 PUSH2 0x6DB JUMP JUMPDEST PUSH1 0x40 MLOAD DUP1 SWAP2 SUB SWAP1 RETURN JUMPDEST PUSH2 0x90 PUSH2 0x88 CALLDATASIZE PUSH1 0x4 PUSH2 0x6E9 JUMP JUMPDEST PUSH1 0x0 SWAP3 SWAP2 POP POP JUMP JUMPDEST PUSH1 0x40 MLOAD PUSH6 0xFFFFFFFFFFFF SWAP1 SWAP2 AND DUP2 MSTORE PUSH1 0x20 ADD PUSH2 0x71 JUMP JUMPDEST PUSH2 0xBA PUSH2 0xB5 CALLDATASIZE PUSH1 0x4 PUSH2 0x70B JUMP JUMPDEST PUSH2 0x1F4 JUMP JUMPDEST PUSH1 0x40 MLOAD PUSH2 0x71 SWAP2 SWAP1 PUSH2 0x75C JUMP JUMPDEST PUSH2 0xBA PUSH2 0xD5 CALLDATASIZE PUSH1 0x4 PUSH2 0x70B JUMP JUMPDEST PUSH2 0x3B6 JUMP JUMPDEST PUSH2 0xE2 PUSH2 0x5E3 JUMP JUMPDEST PUSH1 0x40 MLOAD PUSH4 0x39709D2F PUSH1 0xE2 SHL DUP2 MSTORE PUSH6 0xFFFFFFFFFFFF DUP4 AND PUSH1 0x4 DUP3 ADD MSTORE DUP4 SWAP1 PUSH1 0x0 SWAP1 PUSH1 0x1 PUSH1 0x1 PUSH1 0xA0 SHL SUB DUP4 AND SWAP1 PUSH4 0xE5C274BC SWAP1 PUSH1 0x24 ADD PUSH1 0xC0 PUSH1 0x40 MLOAD DUP1 DUP4 SUB DUP2 DUP7 GAS STATICCALL ISZERO DUP1 ISZERO PUSH2 0x133 JUMPI RETURNDATASIZE PUSH1 0x0 DUP1 RETURNDATACOPY RETURNDATASIZE PUSH1 0x0 REVERT JUMPDEST POP POP POP POP PUSH1 0x40 MLOAD RETURNDATASIZE PUSH1 0x1F NOT PUSH1 0x1F DUP3 ADD AND DUP3 ADD DUP1 PUSH1 0x40 MSTORE POP DUP2 ADD SWAP1 PUSH2 0x157 SWAP2 SWAP1 PUSH2 0x7DB JUMP JUMPDEST PUSH1 0x40 DUP2 ADD MLOAD SWAP1 SWAP2 POP PUSH1 0x1 PUSH1 0x1 PUSH1 0xA0 SHL SUB AND PUSH2 0x1DF JUMPI PUSH1 0x40 MLOAD PUSH4 0x2B9116EB PUSH1 0xE2 SHL DUP2 MSTORE PUSH6 0xFFFFFFFFFFFF DUP6 AND PUSH1 0x4 DUP3 ADD MSTORE PUSH1 0x1 PUSH1 0x1 PUSH1 0xA0 SHL SUB DUP4 AND SWAP1 PUSH4 0xAE445BAC SWAP1 PUSH1 0x24 ADD PUSH1 0xC0 PUSH1 0x40 MLOAD DUP1 DUP4 SUB DUP2 DUP7 GAS STATICCALL ISZERO DUP1 ISZERO PUSH2 0x1B8 JUMPI RETURNDATASIZE PUSH1 0x0 DUP1 RETURNDATACOPY RETURNDATASIZE PUSH1 0x0 REVERT JUMPDEST POP POP POP POP PUSH1 0x40 MLOAD RETURNDATASIZE PUSH1 0x1F NOT PUSH1 0x1F DUP3 ADD AND DUP3 ADD DUP1 PUSH1 0x40 MSTORE POP DUP2 ADD SWAP1 PUSH2 0x1DC SWAP2 SWAP1 PUSH2 0x7DB JUMP JUMPDEST SWAP1 POP JUMPDEST PUSH2 0x1E9 DUP2 DUP6 PUSH2 0x56D JUMP JUMPDEST SWAP3 POP POP POP JUMPDEST SWAP3 SWAP2 POP POP JUMP JUMPDEST PUSH1 0x40 MLOAD PUSH4 0x2B9116EB PUSH1 0xE2 SHL DUP2 MSTORE PUSH6 0xFFFFFFFFFFFF DUP4 AND PUSH1 0x4 DUP3 ADD MSTORE PUSH1 0x60 SWAP1 DUP5 SWAP1 PUSH1 0x0 SWAP1 PUSH1 0x1 PUSH1 0x1 PUSH1 0xA0 SHL SUB DUP4 AND SWAP1 PUSH4 0xAE445BAC SWAP1 PUSH1 0x24 ADD PUSH1 0xC0 PUSH1 0x40 MLOAD DUP1 DUP4 SUB DUP2 DUP7 GAS STATICCALL ISZERO DUP1 ISZERO PUSH2 0x248 JUMPI RETURNDATASIZE PUSH1 0x0 DUP1 RETURNDATACOPY RETURNDATASIZE PUSH1 0x0 REVERT JUMPDEST POP POP POP POP PUSH1 0x40 MLOAD RETURNDATASIZE PUSH1 0x1F NOT PUSH1 0x1F DUP3 ADD AND DUP3 ADD DUP1 PUSH1 0x40 MSTORE POP DUP2 ADD SWAP1 PUSH2 0x26C SWAP2 SWAP1 PUSH2 0x7DB JUMP JUMPDEST SWAP1 POP PUSH1 0x0 DUP5 PUSH1 0xFF AND PUSH8 0xFFFFFFFFFFFFFFFF DUP2 GT ISZERO PUSH2 0x28C JUMPI PUSH2 0x28C PUSH2 0x7AA JUMP JUMPDEST PUSH1 0x40 MLOAD SWAP1 DUP1 DUP3 MSTORE DUP1 PUSH1 0x20 MUL PUSH1 0x20 ADD DUP3 ADD PUSH1 0x40 MSTORE DUP1 ISZERO PUSH2 0x2C5 JUMPI DUP2 PUSH1 0x20 ADD JUMPDEST PUSH2 0x2B2 PUSH2 0x5E3 JUMP JUMPDEST DUP2 MSTORE PUSH1 0x20 ADD SWAP1 PUSH1 0x1 SWAP1 SUB SWAP1 DUP2 PUSH2 0x2AA JUMPI SWAP1 POP JUMPDEST POP SWAP1 POP PUSH2 0x2D2 DUP3 DUP8 PUSH2 0x56D JUMP JUMPDEST DUP2 PUSH1 0x0 DUP2 MLOAD DUP2 LT PUSH2 0x2E5 JUMPI PUSH2 0x2E5 PUSH2 0x876 JUMP JUMPDEST PUSH1 0x20 SWAP1 DUP2 MUL SWAP2 SWAP1 SWAP2 ADD ADD MSTORE PUSH1 0x1 JUMPDEST DUP6 PUSH1 0xFF AND DUP2 PUSH1 0xFF AND LT ISZERO PUSH2 0x3AB JUMPI PUSH1 0x20 DUP4 ADD MLOAD PUSH1 0x40 MLOAD PUSH4 0x2B9116EB PUSH1 0xE2 SHL DUP2 MSTORE PUSH6 0xFFFFFFFFFFFF DUP3 AND PUSH1 0x4 DUP3 ADD MSTORE PUSH1 0x1 PUSH1 0x1 PUSH1 0xA0 SHL SUB DUP7 AND SWAP1 PUSH4 0xAE445BAC SWAP1 PUSH1 0x24 ADD PUSH1 0xC0 PUSH1 0x40 MLOAD DUP1 DUP4 SUB DUP2 DUP7 GAS STATICCALL ISZERO DUP1 ISZERO PUSH2 0x352 JUMPI RETURNDATASIZE PUSH1 0x0 DUP1 RETURNDATACOPY RETURNDATASIZE PUSH1 0x0 REVERT JUMPDEST POP POP POP POP PUSH1 0x40 MLOAD RETURNDATASIZE PUSH1 0x1F NOT PUSH1 0x1F DUP3 ADD AND DUP3 ADD DUP1 PUSH1 0x40 MSTORE POP DUP2 ADD SWAP1 PUSH2 0x376 SWAP2 SWAP1 PUSH2 0x7DB JUMP JUMPDEST SWAP4 POP PUSH2 0x382 DUP5 DUP3 PUSH2 0x56D JUMP JUMPDEST DUP4 DUP4 PUSH1 0xFF AND DUP2 MLOAD DUP2 LT PUSH2 0x397 JUMPI PUSH2 0x397 PUSH2 0x876 JUMP JUMPDEST PUSH1 0x20 SWAP1 DUP2 MUL SWAP2 SWAP1 SWAP2 ADD ADD MSTORE POP PUSH1 0x1 ADD PUSH2 0x2F3 JUMP JUMPDEST POP SWAP7 SWAP6 POP POP POP POP POP POP JUMP JUMPDEST PUSH1 0x40 MLOAD PUSH4 0x39709D2F PUSH1 0xE2 SHL DUP2 MSTORE PUSH6 0xFFFFFFFFFFFF DUP4 AND PUSH1 0x4 DUP3 ADD MSTORE PUSH1 0x60 SWAP1 DUP5 SWAP1 PUSH1 0x0 SWAP1 PUSH1 0x1 PUSH1 0x1 PUSH1 0xA0 SHL SUB DUP4 AND SWAP1 PUSH4 0xE5C274BC SWAP1 PUSH1 0x24 ADD PUSH1 0xC0 PUSH1 0x40 MLOAD DUP1 DUP4 SUB DUP2 DUP7 GAS STATICCALL ISZERO DUP1 ISZERO PUSH2 0x40A JUMPI RETURNDATASIZE PUSH1 0x0 DUP1 RETURNDATACOPY RETURNDATASIZE PUSH1 0x0 REVERT JUMPDEST POP POP POP POP PUSH1 0x40 MLOAD RETURNDATASIZE PUSH1 0x1F NOT PUSH1 0x1F DUP3 ADD AND DUP3 ADD DUP1 PUSH1 0x40 MSTORE POP DUP2 ADD SWAP1 PUSH2 0x42E SWAP2 SWAP1 PUSH2 0x7DB JUMP JUMPDEST SWAP1 POP PUSH1 0x0 DUP5 PUSH1 0xFF AND PUSH8 0xFFFFFFFFFFFFFFFF DUP2 GT ISZERO PUSH2 0x44E JUMPI PUSH2 0x44E PUSH2 0x7AA JUMP JUMPDEST PUSH1 0x40 MLOAD SWAP1 DUP1 DUP3 MSTORE DUP1 PUSH1 0x20 MUL PUSH1 0x20 ADD DUP3 ADD PUSH1 0x40 MSTORE DUP1 ISZERO PUSH2 0x487 JUMPI DUP2 PUSH1 0x20 ADD JUMPDEST PUSH2 0x474 PUSH2 0x5E3 JUMP JUMPDEST DUP2 MSTORE PUSH1 0x20 ADD SWAP1 PUSH1 0x1 SWAP1 SUB SWAP1 DUP2 PUSH2 0x46C JUMPI SWAP1 POP JUMPDEST POP SWAP1 POP PUSH2 0x494 DUP3 DUP8 PUSH2 0x56D JUMP JUMPDEST DUP2 PUSH1 0x0 DUP2 MLOAD DUP2 LT PUSH2 0x4A7 JUMPI PUSH2 0x4A7 PUSH2 0x876 JUMP JUMPDEST PUSH1 0x20 SWAP1 DUP2 MUL SWAP2 SWAP1 SWAP2 ADD ADD MSTORE PUSH1 0x1 JUMPDEST DUP6 PUSH1 0xFF AND DUP2 PUSH1 0xFF AND LT ISZERO PUSH2 0x3AB JUMPI PUSH1 0x20 DUP4 ADD MLOAD PUSH1 0x40 MLOAD PUSH4 0x39709D2F PUSH1 0xE2 SHL DUP2 MSTORE PUSH6 0xFFFFFFFFFFFF DUP3 AND PUSH1 0x4 DUP3 ADD MSTORE PUSH1 0x1 PUSH1 0x1 PUSH1 0xA0 SHL SUB DUP7 AND SWAP1 PUSH4 0xE5C274BC SWAP1 PUSH1 0x24 ADD PUSH1 0xC0 PUSH1 0x40 MLOAD DUP1 DUP4 SUB DUP2 DUP7 GAS STATICCALL ISZERO DUP1 ISZERO PUSH2 0x514 JUMPI RETURNDATASIZE PUSH1 0x0 DUP1 RETURNDATACOPY RETURNDATASIZE PUSH1 0x0 REVERT JUMPDEST POP POP POP POP PUSH1 0x40 MLOAD RETURNDATASIZE PUSH1 0x1F NOT PUSH1 0x1F DUP3 ADD AND DUP3 ADD DUP1 PUSH1 0x40 MSTORE POP DUP2 ADD SWAP1 PUSH2 0x538 SWAP2 SWAP1 PUSH2 0x7DB JUMP JUMPDEST SWAP4 POP PUSH2 0x544 DUP5 DUP3 PUSH2 0x56D JUMP JUMPDEST DUP4 DUP4 PUSH1 0xFF AND DUP2 MLOAD DUP2 LT PUSH2 0x559 JUMPI PUSH2 0x559 PUSH2 0x876 JUMP JUMPDEST PUSH1 0x20 SWAP1 DUP2 MUL SWAP2 SWAP1 SWAP2 ADD ADD MSTORE POP PUSH1 0x1 ADD PUSH2 0x4B5 JUMP JUMPDEST PUSH2 0x575 PUSH2 0x5E3 JUMP JUMPDEST PUSH1 0x40 MLOAD DUP1 PUSH1 0xC0 ADD PUSH1 0x40 MSTORE DUP1 DUP4 PUSH6 0xFFFFFFFFFFFF AND DUP2 MSTORE PUSH1 0x20 ADD DUP5 PUSH1 0x40 ADD MLOAD PUSH1 0x1 PUSH1 0x1 PUSH1 0xA0 SHL SUB AND DUP2 MSTORE PUSH1 0x20 ADD DUP5 PUSH1 0x60 ADD MLOAD DUP2 MSTORE PUSH1 0x20 ADD DUP5 PUSH1 0x80 ADD MLOAD DUP2 MSTORE PUSH1 0x20 ADD DUP5 PUSH1 0xA0 ADD MLOAD DUP2 MSTORE PUSH1 0x20 ADD PUSH6 0xFFFFFFFFFFFF DUP1 AND DUP6 PUSH1 0x0 ADD MLOAD PUSH6 0xFFFFFFFFFFFF AND EQ ISZERO ISZERO DUP2 MSTORE POP SWAP1 POP SWAP3 SWAP2 POP POP JUMP JUMPDEST PUSH1 0x40 MLOAD DUP1 PUSH1 0xC0 ADD PUSH1 0x40 MSTORE DUP1 PUSH1 0x0 PUSH6 0xFFFFFFFFFFFF AND DUP2 MSTORE PUSH1 0x20 ADD PUSH1 0x0 PUSH1 0x1 PUSH1 0x1 PUSH1 0xA0 SHL SUB AND DUP2 MSTORE PUSH1 0x20 ADD PUSH1 0x0 DUP2 MSTORE PUSH1 0x20 ADD PUSH1 0x0 DUP2 MSTORE PUSH1 0x20 ADD PUSH1 0x0 DUP2 MSTORE PUSH1 0x20 ADD PUSH1 0x0 ISZERO ISZERO DUP2 MSTORE POP SWAP1 JUMP JUMPDEST PUSH1 0x1 PUSH1 0x1 PUSH1 0xA0 SHL SUB DUP2 AND DUP2 EQ PUSH2 0x641 JUMPI PUSH1 0x0 DUP1 REVERT JUMPDEST POP JUMP JUMPDEST PUSH6 0xFFFFFFFFFFFF DUP2 AND DUP2 EQ PUSH2 0x641 JUMPI PUSH1 0x0 DUP1 REVERT JUMPDEST PUSH1 0x0 DUP1 PUSH1 0x40 DUP4 DUP6 SUB SLT ISZERO PUSH2 0x66B JUMPI PUSH1 0x0 DUP1 REVERT JUMPDEST DUP3 CALLDATALOAD PUSH2 0x676 DUP2 PUSH2 0x62C JUMP JUMPDEST SWAP2 POP PUSH1 0x20 DUP4 ADD CALLDATALOAD PUSH2 0x686 DUP2 PUSH2 0x644 JUMP JUMPDEST DUP1 SWAP2 POP POP SWAP3 POP SWAP3 SWAP1 POP JUMP JUMPDEST DUP1 MLOAD PUSH6 0xFFFFFFFFFFFF AND DUP3 MSTORE PUSH1 0x20 DUP1 DUP3 ADD MLOAD PUSH1 0x1 PUSH1 0x1 PUSH1 0xA0 SHL SUB AND SWAP1 DUP4 ADD MSTORE PUSH1 0x40 DUP1 DUP3 ADD MLOAD SWAP1 DUP4 ADD MSTORE PUSH1 0x60 DUP1 DUP3 ADD MLOAD SWAP1 DUP4 ADD MSTORE PUSH1 0x80 DUP1 DUP3 ADD MLOAD SWAP1 DUP4 ADD MSTORE PUSH1 0xA0 SWAP1 DUP2 ADD MLOAD ISZERO ISZERO SWAP2 ADD MSTORE JUMP JUMPDEST PUSH1 0xC0 DUP2 ADD PUSH2 0x1EE DUP3 DUP5 PUSH2 0x691 JUMP JUMPDEST PUSH1 0x0 DUP1 PUSH1 0x40 DUP4 DUP6 SUB SLT ISZERO PUSH2 0x6FC JUMPI PUSH1 0x0 DUP1 REVERT JUMPDEST POP POP DUP1 CALLDATALOAD SWAP3 PUSH1 0x20 SWAP1 SWAP2 ADD CALLDATALOAD SWAP2 POP JUMP JUMPDEST PUSH1 0x0 DUP1 PUSH1 0x0 PUSH1 0x60 DUP5 DUP7 SUB SLT ISZERO PUSH2 0x720 JUMPI PUSH1 0x0 DUP1 REVERT JUMPDEST DUP4 CALLDATALOAD PUSH2 0x72B DUP2 PUSH2 0x62C JUMP JUMPDEST SWAP3 POP PUSH1 0x20 DUP5 ADD CALLDATALOAD PUSH2 0x73B DUP2 PUSH2 0x644 JUMP JUMPDEST SWAP2 POP PUSH1 0x40 DUP5 ADD CALLDATALOAD PUSH1 0xFF DUP2 AND DUP2 EQ PUSH2 0x751 JUMPI PUSH1 0x0 DUP1 REVERT JUMPDEST DUP1 SWAP2 POP POP SWAP3 POP SWAP3 POP SWAP3 JUMP JUMPDEST PUSH1 0x20 DUP1 DUP3 MSTORE DUP3 MLOAD DUP3 DUP3 ADD DUP2 SWAP1 MSTORE PUSH1 0x0 SWAP2 SWAP1 DUP5 DUP3 ADD SWAP1 PUSH1 0x40 DUP6 ADD SWAP1 DUP5 JUMPDEST DUP2 DUP2 LT ISZERO PUSH2 0x79E JUMPI PUSH2 0x78B DUP4 DUP6 MLOAD PUSH2 0x691 JUMP JUMPDEST SWAP3 DUP5 ADD SWAP3 PUSH1 0xC0 SWAP3 SWAP1 SWAP3 ADD SWAP2 PUSH1 0x1 ADD PUSH2 0x778 JUMP JUMPDEST POP SWAP1 SWAP7 SWAP6 POP POP POP POP POP POP JUMP JUMPDEST PUSH4 0x4E487B71 PUSH1 0xE0 SHL PUSH1 0x0 MSTORE PUSH1 0x41 PUSH1 0x4 MSTORE PUSH1 0x24 PUSH1 0x0 REVERT JUMPDEST DUP1 MLOAD PUSH2 0x7CB DUP2 PUSH2 0x644 JUMP JUMPDEST SWAP2 SWAP1 POP JUMP JUMPDEST DUP1 MLOAD PUSH2 0x7CB DUP2 PUSH2 0x62C JUMP JUMPDEST PUSH1 0x0 PUSH1 0xC0 DUP3 DUP5 SUB SLT ISZERO PUSH2 0x7ED JUMPI PUSH1 0x0 DUP1 REVERT JUMPDEST PUSH1 0x40 MLOAD PUSH1 0xC0 DUP2 ADD DUP2 DUP2 LT PUSH8 0xFFFFFFFFFFFFFFFF DUP3 GT OR ISZERO PUSH2 0x81E JUMPI PUSH4 0x4E487B71 PUSH1 0xE0 SHL PUSH1 0x0 MSTORE PUSH1 0x41 PUSH1 0x4 MSTORE PUSH1 0x24 PUSH1 0x0 REVERT JUMPDEST PUSH1 0x40 MSTORE PUSH2 0x82A DUP4 PUSH2 0x7C0 JUMP JUMPDEST DUP2 MSTORE PUSH2 0x838 PUSH1 0x20 DUP5 ADD PUSH2 0x7C0 JUMP JUMPDEST PUSH1 0x20 DUP3 ADD MSTORE PUSH2 0x849 PUSH1 0x40 DUP5 ADD PUSH2 0x7D0 JUMP JUMPDEST PUSH1 0x40 DUP3 ADD MSTORE PUSH1 0x60 DUP4 ADD MLOAD PUSH1 0x60 DUP3 ADD MSTORE PUSH1 0x80 DUP4 ADD MLOAD PUSH1 0x80 DUP3 ADD MSTORE PUSH1 0xA0 DUP4 ADD MLOAD PUSH1 0xA0 DUP3 ADD MSTORE DUP1 SWAP2 POP POP SWAP3 SWAP2 POP POP JUMP JUMPDEST PUSH4 0x4E487B71 PUSH1 0xE0 SHL PUSH1 0x0 MSTORE PUSH1 0x32 PUSH1 0x4 MSTORE PUSH1 0x24 PUSH1 0x0 REVERT INVALID LOG2 PUSH5 0x6970667358 0x22 SLT KECCAK256 0xED 0xB6 0xAE SELFBALANCE PUSH21 0x389ADCBB88A466D34AE21385A49989E35394ED46ED NUMBER CALLCODE 0xDD EXTCODECOPY SAR 0xEB PUSH5 0x736F6C6343 STOP ADDMOD XOR STOP CALLER "},"methodIdentifiers":{"findBeforeOrderIdInBuyList(uint256,uint256)":"2e83f20c","getBuyList(address,uint48,uint8)":"d4092fa6","getOrder(address,uint48)":"09d255b5","getSellList(address,uint48,uint8)":"78cfd70e"}}}}}