{"contracts/v2/MonoTradeV2.sol":{"MonoTradeV2":{"abi":[{"inputs":[{"internalType":"address","name":"_token0","type":"address"},{"internalType":"address","name":"_token1","type":"address"},{"internalType":"uint8","name":"_fee","type":"uint8"}],"stateMutability":"nonpayable","type":"constructor"},{"anonymous":false,"inputs":[{"indexed":true,"internalType":"uint48","name":"orderId","type":"uint48"}],"name":"CancelOrder","type":"event"},{"anonymous":false,"inputs":[{"indexed":true,"internalType":"uint48","name":"orderId","type":"uint48"},{"indexed":false,"internalType":"uint256","name":"token1In","type":"uint256"},{"indexed":false,"internalType":"uint256","name":"token0Out","type":"uint256"}],"name":"MakeOrder","type":"event"},{"anonymous":false,"inputs":[{"indexed":false,"internalType":"uint256","name":"token0Paid","type":"uint256"},{"indexed":false,"internalType":"uint256","name":"token1Gain","type":"uint256"}],"name":"TakeOrder","type":"event"},{"inputs":[],"name":"count","outputs":[{"internalType":"uint48","name":"","type":"uint48"}],"stateMutability":"view","type":"function"},{"inputs":[],"name":"factory","outputs":[{"internalType":"address","name":"","type":"address"}],"stateMutability":"view","type":"function"},{"inputs":[],"name":"fee","outputs":[{"internalType":"uint8","name":"","type":"uint8"}],"stateMutability":"view","type":"function"},{"inputs":[{"internalType":"uint64","name":"amountDec","type":"uint64"},{"internalType":"uint8","name":"decimals","type":"uint8"}],"name":"from6Decimals","outputs":[{"internalType":"uint256","name":"amount","type":"uint256"}],"stateMutability":"pure","type":"function"},{"inputs":[{"internalType":"uint48","name":"orderId","type":"uint48"}],"name":"getOrder","outputs":[{"components":[{"internalType":"uint48","name":"beforeOrderId","type":"uint48"},{"internalType":"uint48","name":"afterOrderId","type":"uint48"},{"internalType":"address","name":"owner","type":"address"},{"internalType":"uint64","name":"amountIn","type":"uint64"},{"internalType":"uint64","name":"amountOut","type":"uint64"},{"internalType":"uint64","name":"amountInCost","type":"uint64"},{"internalType":"uint64","name":"amountOutFilled","type":"uint64"}],"internalType":"struct MonoTradeV2.Order","name":"","type":"tuple"}],"stateMutability":"view","type":"function"},{"inputs":[{"internalType":"uint256","name":"token1In","type":"uint256"},{"internalType":"uint256","name":"token0Out","type":"uint256"},{"internalType":"uint48","name":"beforeOrderId","type":"uint48"}],"name":"makeOrder","outputs":[{"internalType":"uint48","name":"","type":"uint48"}],"stateMutability":"nonpayable","type":"function"},{"inputs":[{"internalType":"uint48","name":"","type":"uint48"}],"name":"orders","outputs":[{"internalType":"uint48","name":"beforeOrderId","type":"uint48"},{"internalType":"uint48","name":"afterOrderId","type":"uint48"},{"internalType":"address","name":"owner","type":"address"},{"internalType":"uint64","name":"amountIn","type":"uint64"},{"internalType":"uint64","name":"amountOut","type":"uint64"},{"internalType":"uint64","name":"amountInCost","type":"uint64"},{"internalType":"uint64","name":"amountOutFilled","type":"uint64"}],"stateMutability":"view","type":"function"},{"inputs":[{"internalType":"uint256","name":"token0In","type":"uint256"},{"internalType":"uint256","name":"token1ForPrice","type":"uint256"}],"name":"takeOrder","outputs":[{"internalType":"uint256","name":"token0Paid","type":"uint256"},{"internalType":"uint256","name":"token1Gain","type":"uint256"},{"internalType":"uint256","name":"token0Fee","type":"uint256"}],"stateMutability":"nonpayable","type":"function"},{"inputs":[{"internalType":"uint256","name":"amount","type":"uint256"},{"internalType":"uint8","name":"decimals","type":"uint8"}],"name":"to6Decimals","outputs":[{"internalType":"uint64","name":"amountDec","type":"uint64"}],"stateMutability":"pure","type":"function"},{"inputs":[],"name":"token0","outputs":[{"internalType":"address","name":"","type":"address"}],"stateMutability":"view","type":"function"},{"inputs":[],"name":"token0Decimals","outputs":[{"internalType":"uint8","name":"","type":"uint8"}],"stateMutability":"view","type":"function"},{"inputs":[],"name":"token1","outputs":[{"internalType":"address","name":"","type":"address"}],"stateMutability":"view","type":"function"},{"inputs":[],"name":"token1Decimals","outputs":[{"internalType":"uint8","name":"","type":"uint8"}],"stateMutability":"view","type":"function"},{"inputs":[],"name":"topOrderId","outputs":[{"internalType":"uint48","name":"","type":"uint48"}],"stateMutability":"view","type":"function"}],"evm":{"bytecode":{"linkReferences":{},"object":"6101406040526000805465ffffffffffff191690553480156200002157600080fd5b50604051620022293803806200222983398101604081905262000044916200017a565b6001600160a01b03808416608081905290831660c05260ff82166101205233610100526040805163313ce56760e01b8152905163313ce567916004808201926020929091908290030181865afa158015620000a3573d6000803e3d6000fd5b505050506040513d601f19601f82011682018060405250810190620000c99190620001c4565b60ff1660a08160ff1681525050816001600160a01b031663313ce5676040518163ffffffff1660e01b8152600401602060405180830381865afa15801562000115573d6000803e3d6000fd5b505050506040513d601f19601f820116820180604052508101906200013b9190620001c4565b60ff1660e05250620001e9915050565b80516001600160a01b03811681146200016357600080fd5b919050565b805160ff811681146200016357600080fd5b6000806000606084860312156200019057600080fd5b6200019b846200014b565b9250620001ab602085016200014b565b9150620001bb6040850162000168565b90509250925092565b600060208284031215620001d757600080fd5b620001e28262000168565b9392505050565b60805160a05160c05160e0516101005161012051611f56620002d3600039600081816104c20152610af1015260008181610474015281816109fd01528181610a2d0152610a530152600081816101220152818161055301528181610bb001528181610cdd01528181610e2b015261182301526000818161049b01528181610be30152610e5901526000818161044d0152818161052501528181610600015281816107ff0152818161097a015281816109c901528181610b7701528181610d0b015261184d01526000818161015b0152818161062e0152818161082d0152610b360152611f566000f3fe608060405234801561001057600080fd5b50600436106100ea5760003560e01c806399a3bd231161008c578063c45a015511610066578063c45a01551461046f578063d21220a714610496578063ddca3f43146104bd578063e5434843146104e457600080fd5b806399a3bd2314610415578063af778f2d14610427578063b31ac6e21461044857600080fd5b80632784e815116100c85780632784e815146101955780632eab93cb146102645780636c62ed8e146102925780637ce219aa146102bd57600080fd5b806306661abd146100ef5780630b77884d1461011d5780630dfe168114610156575b600080fd5b6000546101019065ffffffffffff1681565b60405165ffffffffffff90911681526020015b60405180910390f35b6101447f000000000000000000000000000000000000000000000000000000000000000081565b60405160ff9091168152602001610114565b61017d7f000000000000000000000000000000000000000000000000000000000000000081565b6040516001600160a01b039091168152602001610114565b61020c6101a3366004611b9f565b6001602081905260009182526040909120805491015465ffffffffffff80831692600160301b810490911691600160601b9091046001600160a01b0316906001600160401b0380821691600160401b8104821691600160801b8204811691600160c01b90041687565b6040805165ffffffffffff98891681529790961660208801526001600160a01b03909416948601949094526001600160401b0391821660608601528116608085015291821660a08401521660c082015260e001610114565b610277610272366004611bba565b6104f7565b60408051938452602084019290925290820152606001610114565b6102a56102a0366004611bed565b610c51565b6040516001600160401b039091168152602001610114565b61039b6102cb366004611b9f565b6040805160e081018252600080825260208201819052918101829052606081018290526080810182905260a0810182905260c08101919091525065ffffffffffff908116600090815260016020818152604092839020835160e08101855281548087168252600160301b810490961692810192909252600160601b9094046001600160a01b03169281019290925291909101546001600160401b038082166060840152600160401b820481166080840152600160801b8204811660a0840152600160c01b9091041660c082015290565b6040516101149190815165ffffffffffff9081168252602080840151909116908201526040808301516001600160a01b0316908201526060808301516001600160401b039081169183019190915260808084015182169083015260a08084015182169083015260c092830151169181019190915260e00190565b6002546101019065ffffffffffff1681565b61043a610435366004611c19565b610c8e565b604051908152602001610114565b6101447f000000000000000000000000000000000000000000000000000000000000000081565b61017d7f000000000000000000000000000000000000000000000000000000000000000081565b61017d7f000000000000000000000000000000000000000000000000000000000000000081565b6101447f000000000000000000000000000000000000000000000000000000000000000081565b6101016104f2366004611c51565b610cd4565b6002546000908190819065ffffffffffff16810361051d57506000915081905080610c4a565b6000610549867f0000000000000000000000000000000000000000000000000000000000000000610c51565b90506000610577867f0000000000000000000000000000000000000000000000000000000000000000610c51565b90506000826001600160401b0316116105f55760405162461bcd60e51b815260206004820152603560248201527f4d6f6e6f54726164653a2074616b654f726465723a3a20746f6b656e30496e446044820152740656320616d6f756e742063616e6e6f74206265203605c1b60648201526084015b60405180910390fd5b6106563330610624857f0000000000000000000000000000000000000000000000000000000000000000610c8e565b6001600160a01b037f0000000000000000000000000000000000000000000000000000000000000000169291906118a2565b8160005b60025465ffffffffffff16156109b15760025465ffffffffffff166000908152600160208190526040909120908101546106a490600160401b90046001600160401b031685611c9c565b60018201546001600160401b03918216916106c0911687611c9c565b6001600160401b031610156106d557506109b1565b60018101546000906001600160401b0380821691600160401b810482169161070591600160801b90041683611cc7565b61070f9190611c9c565b6107199190611d04565b9050806001600160401b0316846001600160401b0316106108885761073e8185611cc7565b6001830154909450610762906001600160401b03600160801b820481169116611cc7565b61076c9084611d2a565b9250610777826119d2565b60018201805467ffffffffffffffff60801b1981166001600160401b03918216600160801b02178083558392916018916107ba918591600160c01b900416611d2a565b92506101000a8154816001600160401b0302191690836001600160401b0316021790555061085482600001600c9054906101000a90046001600160a01b0316610823837f0000000000000000000000000000000000000000000000000000000000000000610c8e565b6001600160a01b037f0000000000000000000000000000000000000000000000000000000000000000169190611a69565b815465ffffffffffff1990811665ffffffffffff90811780855560028054909316600160301b9091049091161790556109aa565b60018201546000906001600160401b03600160401b82048116916108ad911687611c9c565b6108b79190611d04565b90506108c38185611d2a565b9350808360010160108282829054906101000a90046001600160401b03166108eb9190611d2a565b92506101000a8154816001600160401b0302191690836001600160401b03160217905550848360010160188282829054906101000a90046001600160401b03166109359190611d2a565b92506101000a8154816001600160401b0302191690836001600160401b0316021790555061099e83600001600c9054906101000a90046001600160a01b0316610823877f0000000000000000000000000000000000000000000000000000000000000000610c8e565b600094505050506109b1565b505061065a565b6109ed6109be8386611cc7565b6001600160401b03167f0000000000000000000000000000000000000000000000000000000000000000610c51565b6001600160401b031696506000807f00000000000000000000000000000000000000000000000000000000000000006001600160a01b03163b11610a51577f0000000000000000000000000000000000000000000000000000000000000000610ad5565b7f00000000000000000000000000000000000000000000000000000000000000006001600160a01b031663017e7e586040518163ffffffff1660e01b81526004016020604051808303816000875af1158015610ab1573d6000803e3d6000fd5b505050506040513d601f19601f82011682018060405250810190610ad59190611d4a565b9050336001600160a01b03821614610b5e57612710610b1760ff7f0000000000000000000000000000000000000000000000000000000000000000168a611d73565b610b219190611d8a565b95508515610b5e57610b5e6001600160a01b037f0000000000000000000000000000000000000000000000000000000000000000163383896118a2565b6001600160401b03831615610b9b57610b9b33610823857f0000000000000000000000000000000000000000000000000000000000000000610c8e565b6001600160401b03821615610c4457610bd4827f0000000000000000000000000000000000000000000000000000000000000000610c8e565b9650610c0a6001600160a01b037f0000000000000000000000000000000000000000000000000000000000000000163389611a69565b60408051898152602081018990527f02c46cdd281fee18d15d9a50e01f56cfcb751e18de8353900feccd29e09b6534910160405180910390a15b50505050505b9250925092565b600060068260ff1611610c65575081610c88565b610c70600683611d9e565b610c7b90600a611e9b565b610c859084611d8a565b90505b92915050565b600060068260ff1611610cab57506001600160401b038216610c88565b610cb6600683611d9e565b610cc190600a611e9b565b610c85906001600160401b038516611d73565b600080610d01857f0000000000000000000000000000000000000000000000000000000000000000610c51565b90506000610d2f857f0000000000000000000000000000000000000000000000000000000000000000610c51565b90506000826001600160401b031611610da85760405162461bcd60e51b815260206004820152603560248201527f4d6f6e6f54726164653a206d616b654f726465723a3a20746f6b656e31496e446044820152740656320616d6f756e742063616e6e6f74206265203605c1b60648201526084016105ec565b6000816001600160401b031611610e205760405162461bcd60e51b815260206004820152603660248201527f4d6f6e6f54726164653a206d616b654f726465723a3a20746f6b656e304f7574604482015275044656320616d6f756e742063616e6e6f7420626520360541b60648201526084016105ec565b610e813330610e4f857f0000000000000000000000000000000000000000000000000000000000000000610c8e565b6001600160a01b037f0000000000000000000000000000000000000000000000000000000000000000169291906118a2565b600080548190610e989065ffffffffffff16611eaa565b82546101009290920a65ffffffffffff81810219909316918316021790915560025416600003610fed576040805160e08101825260008082526020808301828152338486019081526001600160401b03978816606086019081529688166080860190815260a0860185815260c08701868152865465ffffffffffff908116885260019687905298872097518854955194516001600160a01b0316600160601b026001600160601b03958b16600160301b026001600160601b0319909716918b1691909117959095179390931693909317865596519490920180549651915192518816600160c01b026001600160c01b03938916600160801b02939093166001600160801b03928916600160401b026001600160801b031990981695909816949094179590951794909416949094179290921790915590546002805465ffffffffffff191691909216908117909155905061189b565b8365ffffffffffff166000036111f85760025465ffffffffffff166000908152600160208190526040909120908101546110319083906001600160401b0316611c9c565b60018201546001600160401b0391821691611056918691600160401b90910416611c9c565b6001600160401b0316116110c65760405162461bcd60e51b815260206004820152603160248201527f4d6f6e6f54726164653a206d616b654f726465723a3a20796f75722070726963604482015270329036bab9ba101f103a37b827b93232b960791b60648201526084016105ec565b60008054825465ffffffffffff1990811665ffffffffffff928316179093556040805160e0810182528381526002805484166020808401918252338486019081526001600160401b039a8b1660608601908152998b166080860190815260a0860189815260c087018a81528a548a168b52600194859052978a2096518754955193516001600160a01b0316600160601b026001600160601b03948b16600160301b026001600160601b0319909716918b169190911795909517929092169390931785559851930180549151985194518a16600160c01b026001600160c01b03958b16600160801b02959095166001600160801b03998b16600160401b026001600160801b031990931694909a16939093171796909616969096171790945554825490911692169182179055905061189b565b65ffffffffffff8416600090815260016020819052604082209081015490916001600160401b0390911690036112885760405162461bcd60e51b815260206004820152602f60248201527f4d6f6e6f54726164653a206d616b654f726465723a3a206265666f72654f726460448201526e195c881a5cc81b9bdd08195e1a5cdd608a1b60648201526084016105ec565b805465ffffffffffff1665fffffffffffe19016113035760405162461bcd60e51b815260206004820152603360248201527f4d6f6e6f54726164653a206d616b654f726465723a3a206265666f72654f726460448201527265722069732072656d6f76656428646f6e652960681b60648201526084016105ec565b600181015461131c9083906001600160401b0316611c9c565b60018201546001600160401b0391821691611341918691600160401b90910416611c9c565b6001600160401b031611156113b65760405162461bcd60e51b815260206004820152603560248201527f4d6f6e6f54726164653a206d616b654f726465723a3a20796f75722070726963604482015274329036bab9ba101e1e903132b337b932a7b93232b960591b60648201526084016105ec565b8054600160301b900465ffffffffffff166000036114fd57600080548254600160301b65ffffffffffff928316810265ffffffffffff60301b19909216919091179093556040805160e08101825288831681526020808201858152338385019081526001600160401b03998a1660608501908152988a166080850190815260a0850188815260c08601898152895489168a5260019586905296892095518654945193516001600160a01b0316600160601b026001600160601b03948a16909b026001600160601b03199095169089161793909317919091169790971783559651910180549551965192518816600160c01b026001600160c01b03938916600160801b02939093166001600160801b03978916600160401b026001600160801b031990971692909816919091179490941794909416949094179290921790555416905061189b565b8054600160301b900465ffffffffffff16600090815260016020819052604082209081015490916001600160401b0390911690036115945760405162461bcd60e51b815260206004820152602e60248201527f4d6f6e6f54726164653a206d616b654f726465723a3a2061667465724f72646560448201526d1c881a5cc81b9bdd08195e1a5cdd60921b60648201526084016105ec565b805465ffffffffffff1665fffffffffffe19016116085760405162461bcd60e51b815260206004820152602c60248201527f4d6f6e6f54726164653a206d616b654f726465723a3a2061667465724f72646560448201526b1c881a5cc81c995b5bdd995960a21b60648201526084016105ec565b60018101546116219084906001600160401b0316611c9c565b60018201546001600160401b0391821691611646918791600160401b90910416611c9c565b6001600160401b0316116116b85760405162461bcd60e51b815260206004820152603360248201527f4d6f6e6f54726164653a206d616b654f726465723a3a20796f75722070726963604482015272329036bab9ba101f1030b33a32b927b93232b960691b60648201526084016105ec565b6040805160e08101825265ffffffffffff80891682528454600160301b9081900482166020808501918252338587019081526001600160401b03808c16606088019081528b821660808901908152600060a08a0181815260c08b0182815282548b1683526001978890529b82209a518b54985196516001600160a01b0316600160601b026001600160601b03978c168b026001600160601b0319909a16918c1691909117989098179590951696909617895590519790930180549351925198518216600160c01b026001600160c01b03998316600160801b02999099166001600160801b03938316600160401b026001600160801b03199095169890921697909717929092171617949094179092558254855490821690920265ffffffffffff60301b19929092169190911784558154835465ffffffffffff19169082161783559054167fea910122087cbf17285b27427f85b78f899146c9516d8de30e3d715d33f34078611847867f0000000000000000000000000000000000000000000000000000000000000000610c8e565b611871867f0000000000000000000000000000000000000000000000000000000000000000610c8e565b6040805192835260208301919091520160405180910390a2505060005465ffffffffffff16925050505b9392505050565b604080516001600160a01b0385811660248301528481166044830152606480830185905283518084039091018152608490920183526020820180516001600160e01b03166323b872dd60e01b17905291516000928392908816916119069190611ecf565b6000604051808303816000865af19150503d8060008114611943576040519150601f19603f3d011682016040523d82523d6000602084013e611948565b606091505b50915091508180156119725750805115806119725750808060200190518101906119729190611efe565b6119ca5760405162461bcd60e51b8152602060048201526024808201527f5472616e7366657248656c7065723a205452414e534645525f46524f4d5f46416044820152631253115160e21b60648201526084016105ec565b505050505050565b805465ffffffffffff1615611a1c57805465ffffffffffff8082166000908152600160205260409020805465ffffffffffff60301b1916600160301b938490049092169092021790555b8054600160301b900465ffffffffffff1615611a66578054600160301b810465ffffffffffff9081166000908152600160205260409020805465ffffffffffff1916919092161790555b50565b604080516001600160a01b038481166024830152604480830185905283518084039091018152606490920183526020820180516001600160e01b031663a9059cbb60e01b1790529151600092839290871691611ac59190611ecf565b6000604051808303816000865af19150503d8060008114611b02576040519150601f19603f3d011682016040523d82523d6000602084013e611b07565b606091505b5091509150818015611b31575080511580611b31575080806020019051810190611b319190611efe565b611b7d5760405162461bcd60e51b815260206004820152601f60248201527f5472616e7366657248656c7065723a205452414e534645525f4641494c45440060448201526064016105ec565b5050505050565b803565ffffffffffff81168114611b9a57600080fd5b919050565b600060208284031215611bb157600080fd5b610c8582611b84565b60008060408385031215611bcd57600080fd5b50508035926020909101359150565b803560ff81168114611b9a57600080fd5b60008060408385031215611c0057600080fd5b82359150611c1060208401611bdc565b90509250929050565b60008060408385031215611c2c57600080fd5b82356001600160401b0381168114611c4357600080fd5b9150611c1060208401611bdc565b600080600060608486031215611c6657600080fd5b8335925060208401359150611c7d60408501611b84565b90509250925092565b634e487b7160e01b600052601160045260246000fd5b6001600160401b03818116838216028082169190828114611cbf57611cbf611c86565b505092915050565b6001600160401b03828116828216039080821115611ce757611ce7611c86565b5092915050565b634e487b7160e01b600052601260045260246000fd5b60006001600160401b0380841680611d1e57611d1e611cee565b92169190910492915050565b6001600160401b03818116838216019080821115611ce757611ce7611c86565b600060208284031215611d5c57600080fd5b81516001600160a01b038116811461189b57600080fd5b8082028115828204841417610c8857610c88611c86565b600082611d9957611d99611cee565b500490565b60ff8281168282160390811115610c8857610c88611c86565b600181815b80851115611df2578160001904821115611dd857611dd8611c86565b80851615611de557918102915b93841c9390800290611dbc565b509250929050565b600082611e0957506001610c88565b81611e1657506000610c88565b8160018114611e2c5760028114611e3657611e52565b6001915050610c88565b60ff841115611e4757611e47611c86565b50506001821b610c88565b5060208310610133831016604e8410600b8410161715611e75575081810a610c88565b611e7f8383611db7565b8060001904821115611e9357611e93611c86565b029392505050565b6000610c8560ff841683611dfa565b600065ffffffffffff808316818103611ec557611ec5611c86565b6001019392505050565b6000825160005b81811015611ef05760208186018101518583015201611ed6565b506000920191825250919050565b600060208284031215611f1057600080fd5b8151801515811461189b57600080fdfea2646970667358221220142df9ad5644590aa4b422c4e74ef9bb4c83102a9242e41a4f775c25f2602e8264736f6c63430008180033","opcodes":"PUSH2 0x140 PUSH1 0x40 MSTORE PUSH1 0x0 DUP1 SLOAD PUSH6 0xFFFFFFFFFFFF NOT AND SWAP1 SSTORE CALLVALUE DUP1 ISZERO PUSH3 0x21 JUMPI PUSH1 0x0 DUP1 REVERT JUMPDEST POP PUSH1 0x40 MLOAD PUSH3 0x2229 CODESIZE SUB DUP1 PUSH3 0x2229 DUP4 CODECOPY DUP2 ADD PUSH1 0x40 DUP2 SWAP1 MSTORE PUSH3 0x44 SWAP2 PUSH3 0x17A JUMP JUMPDEST PUSH1 0x1 PUSH1 0x1 PUSH1 0xA0 SHL SUB DUP1 DUP5 AND PUSH1 0x80 DUP2 SWAP1 MSTORE SWAP1 DUP4 AND PUSH1 0xC0 MSTORE PUSH1 0xFF DUP3 AND PUSH2 0x120 MSTORE CALLER PUSH2 0x100 MSTORE PUSH1 0x40 DUP1 MLOAD PUSH4 0x313CE567 PUSH1 0xE0 SHL DUP2 MSTORE SWAP1 MLOAD PUSH4 0x313CE567 SWAP2 PUSH1 0x4 DUP1 DUP3 ADD SWAP3 PUSH1 0x20 SWAP3 SWAP1 SWAP2 SWAP1 DUP3 SWAP1 SUB ADD DUP2 DUP7 GAS STATICCALL ISZERO DUP1 ISZERO PUSH3 0xA3 JUMPI RETURNDATASIZE PUSH1 0x0 DUP1 RETURNDATACOPY RETURNDATASIZE PUSH1 0x0 REVERT JUMPDEST POP POP POP POP PUSH1 0x40 MLOAD RETURNDATASIZE PUSH1 0x1F NOT PUSH1 0x1F DUP3 ADD AND DUP3 ADD DUP1 PUSH1 0x40 MSTORE POP DUP2 ADD SWAP1 PUSH3 0xC9 SWAP2 SWAP1 PUSH3 0x1C4 JUMP JUMPDEST PUSH1 0xFF AND PUSH1 0xA0 DUP2 PUSH1 0xFF AND DUP2 MSTORE POP POP DUP2 PUSH1 0x1 PUSH1 0x1 PUSH1 0xA0 SHL SUB AND PUSH4 0x313CE567 PUSH1 0x40 MLOAD DUP2 PUSH4 0xFFFFFFFF AND PUSH1 0xE0 SHL DUP2 MSTORE PUSH1 0x4 ADD PUSH1 0x20 PUSH1 0x40 MLOAD DUP1 DUP4 SUB DUP2 DUP7 GAS STATICCALL ISZERO DUP1 ISZERO PUSH3 0x115 JUMPI RETURNDATASIZE PUSH1 0x0 DUP1 RETURNDATACOPY RETURNDATASIZE PUSH1 0x0 REVERT JUMPDEST POP POP POP POP PUSH1 0x40 MLOAD RETURNDATASIZE PUSH1 0x1F NOT PUSH1 0x1F DUP3 ADD AND DUP3 ADD DUP1 PUSH1 0x40 MSTORE POP DUP2 ADD SWAP1 PUSH3 0x13B SWAP2 SWAP1 PUSH3 0x1C4 JUMP JUMPDEST PUSH1 0xFF AND PUSH1 0xE0 MSTORE POP PUSH3 0x1E9 SWAP2 POP POP JUMP JUMPDEST DUP1 MLOAD PUSH1 0x1 PUSH1 0x1 PUSH1 0xA0 SHL SUB DUP2 AND DUP2 EQ PUSH3 0x163 JUMPI PUSH1 0x0 DUP1 REVERT JUMPDEST SWAP2 SWAP1 POP JUMP JUMPDEST DUP1 MLOAD PUSH1 0xFF DUP2 AND DUP2 EQ PUSH3 0x163 JUMPI PUSH1 0x0 DUP1 REVERT JUMPDEST PUSH1 0x0 DUP1 PUSH1 0x0 PUSH1 0x60 DUP5 DUP7 SUB SLT ISZERO PUSH3 0x190 JUMPI PUSH1 0x0 DUP1 REVERT JUMPDEST PUSH3 0x19B DUP5 PUSH3 0x14B JUMP JUMPDEST SWAP3 POP PUSH3 0x1AB PUSH1 0x20 DUP6 ADD PUSH3 0x14B JUMP JUMPDEST SWAP2 POP PUSH3 0x1BB PUSH1 0x40 DUP6 ADD PUSH3 0x168 JUMP JUMPDEST SWAP1 POP SWAP3 POP SWAP3 POP SWAP3 JUMP JUMPDEST PUSH1 0x0 PUSH1 0x20 DUP3 DUP5 SUB SLT ISZERO PUSH3 0x1D7 JUMPI PUSH1 0x0 DUP1 REVERT JUMPDEST PUSH3 0x1E2 DUP3 PUSH3 0x168 JUMP JUMPDEST SWAP4 SWAP3 POP POP POP JUMP JUMPDEST PUSH1 0x80 MLOAD PUSH1 0xA0 MLOAD PUSH1 0xC0 MLOAD PUSH1 0xE0 MLOAD PUSH2 0x100 MLOAD PUSH2 0x120 MLOAD PUSH2 0x1F56 PUSH3 0x2D3 PUSH1 0x0 CODECOPY PUSH1 0x0 DUP2 DUP2 PUSH2 0x4C2 ADD MSTORE PUSH2 0xAF1 ADD MSTORE PUSH1 0x0 DUP2 DUP2 PUSH2 0x474 ADD MSTORE DUP2 DUP2 PUSH2 0x9FD ADD MSTORE DUP2 DUP2 PUSH2 0xA2D ADD MSTORE PUSH2 0xA53 ADD MSTORE PUSH1 0x0 DUP2 DUP2 PUSH2 0x122 ADD MSTORE DUP2 DUP2 PUSH2 0x553 ADD MSTORE DUP2 DUP2 PUSH2 0xBB0 ADD MSTORE DUP2 DUP2 PUSH2 0xCDD ADD MSTORE DUP2 DUP2 PUSH2 0xE2B ADD MSTORE PUSH2 0x1823 ADD MSTORE PUSH1 0x0 DUP2 DUP2 PUSH2 0x49B ADD MSTORE DUP2 DUP2 PUSH2 0xBE3 ADD MSTORE PUSH2 0xE59 ADD MSTORE PUSH1 0x0 DUP2 DUP2 PUSH2 0x44D ADD MSTORE DUP2 DUP2 PUSH2 0x525 ADD MSTORE DUP2 DUP2 PUSH2 0x600 ADD MSTORE DUP2 DUP2 PUSH2 0x7FF ADD MSTORE DUP2 DUP2 PUSH2 0x97A ADD MSTORE DUP2 DUP2 PUSH2 0x9C9 ADD MSTORE DUP2 DUP2 PUSH2 0xB77 ADD MSTORE DUP2 DUP2 PUSH2 0xD0B ADD MSTORE PUSH2 0x184D ADD MSTORE PUSH1 0x0 DUP2 DUP2 PUSH2 0x15B ADD MSTORE DUP2 DUP2 PUSH2 0x62E ADD MSTORE DUP2 DUP2 PUSH2 0x82D ADD MSTORE PUSH2 0xB36 ADD MSTORE PUSH2 0x1F56 PUSH1 0x0 RETURN INVALID PUSH1 0x80 PUSH1 0x40 MSTORE CALLVALUE DUP1 ISZERO PUSH2 0x10 JUMPI PUSH1 0x0 DUP1 REVERT JUMPDEST POP PUSH1 0x4 CALLDATASIZE LT PUSH2 0xEA JUMPI PUSH1 0x0 CALLDATALOAD PUSH1 0xE0 SHR DUP1 PUSH4 0x99A3BD23 GT PUSH2 0x8C JUMPI DUP1 PUSH4 0xC45A0155 GT PUSH2 0x66 JUMPI DUP1 PUSH4 0xC45A0155 EQ PUSH2 0x46F JUMPI DUP1 PUSH4 0xD21220A7 EQ PUSH2 0x496 JUMPI DUP1 PUSH4 0xDDCA3F43 EQ PUSH2 0x4BD JUMPI DUP1 PUSH4 0xE5434843 EQ PUSH2 0x4E4 JUMPI PUSH1 0x0 DUP1 REVERT JUMPDEST DUP1 PUSH4 0x99A3BD23 EQ PUSH2 0x415 JUMPI DUP1 PUSH4 0xAF778F2D EQ PUSH2 0x427 JUMPI DUP1 PUSH4 0xB31AC6E2 EQ PUSH2 0x448 JUMPI PUSH1 0x0 DUP1 REVERT JUMPDEST DUP1 PUSH4 0x2784E815 GT PUSH2 0xC8 JUMPI DUP1 PUSH4 0x2784E815 EQ PUSH2 0x195 JUMPI DUP1 PUSH4 0x2EAB93CB EQ PUSH2 0x264 JUMPI DUP1 PUSH4 0x6C62ED8E EQ PUSH2 0x292 JUMPI DUP1 PUSH4 0x7CE219AA EQ PUSH2 0x2BD JUMPI PUSH1 0x0 DUP1 REVERT JUMPDEST DUP1 PUSH4 0x6661ABD EQ PUSH2 0xEF JUMPI DUP1 PUSH4 0xB77884D EQ PUSH2 0x11D JUMPI DUP1 PUSH4 0xDFE1681 EQ PUSH2 0x156 JUMPI JUMPDEST PUSH1 0x0 DUP1 REVERT JUMPDEST PUSH1 0x0 SLOAD PUSH2 0x101 SWAP1 PUSH6 0xFFFFFFFFFFFF AND DUP2 JUMP JUMPDEST PUSH1 0x40 MLOAD PUSH6 0xFFFFFFFFFFFF SWAP1 SWAP2 AND DUP2 MSTORE PUSH1 0x20 ADD JUMPDEST PUSH1 0x40 MLOAD DUP1 SWAP2 SUB SWAP1 RETURN JUMPDEST PUSH2 0x144 PUSH32 0x0 DUP2 JUMP JUMPDEST PUSH1 0x40 MLOAD PUSH1 0xFF SWAP1 SWAP2 AND DUP2 MSTORE PUSH1 0x20 ADD PUSH2 0x114 JUMP JUMPDEST PUSH2 0x17D PUSH32 0x0 DUP2 JUMP JUMPDEST PUSH1 0x40 MLOAD PUSH1 0x1 PUSH1 0x1 PUSH1 0xA0 SHL SUB SWAP1 SWAP2 AND DUP2 MSTORE PUSH1 0x20 ADD PUSH2 0x114 JUMP JUMPDEST PUSH2 0x20C PUSH2 0x1A3 CALLDATASIZE PUSH1 0x4 PUSH2 0x1B9F JUMP JUMPDEST PUSH1 0x1 PUSH1 0x20 DUP2 SWAP1 MSTORE PUSH1 0x0 SWAP2 DUP3 MSTORE PUSH1 0x40 SWAP1 SWAP2 KECCAK256 DUP1 SLOAD SWAP2 ADD SLOAD PUSH6 0xFFFFFFFFFFFF DUP1 DUP4 AND SWAP3 PUSH1 0x1 PUSH1 0x30 SHL DUP2 DIV SWAP1 SWAP2 AND SWAP2 PUSH1 0x1 PUSH1 0x60 SHL SWAP1 SWAP2 DIV PUSH1 0x1 PUSH1 0x1 PUSH1 0xA0 SHL SUB AND SWAP1 PUSH1 0x1 PUSH1 0x1 PUSH1 0x40 SHL SUB DUP1 DUP3 AND SWAP2 PUSH1 0x1 PUSH1 0x40 SHL DUP2 DIV DUP3 AND SWAP2 PUSH1 0x1 PUSH1 0x80 SHL DUP3 DIV DUP2 AND SWAP2 PUSH1 0x1 PUSH1 0xC0 SHL SWAP1 DIV AND DUP8 JUMP JUMPDEST PUSH1 0x40 DUP1 MLOAD PUSH6 0xFFFFFFFFFFFF SWAP9 DUP10 AND DUP2 MSTORE SWAP8 SWAP1 SWAP7 AND PUSH1 0x20 DUP9 ADD MSTORE PUSH1 0x1 PUSH1 0x1 PUSH1 0xA0 SHL SUB SWAP1 SWAP5 AND SWAP5 DUP7 ADD SWAP5 SWAP1 SWAP5 MSTORE PUSH1 0x1 PUSH1 0x1 PUSH1 0x40 SHL SUB SWAP2 DUP3 AND PUSH1 0x60 DUP7 ADD MSTORE DUP2 AND PUSH1 0x80 DUP6 ADD MSTORE SWAP2 DUP3 AND PUSH1 0xA0 DUP5 ADD MSTORE AND PUSH1 0xC0 DUP3 ADD MSTORE PUSH1 0xE0 ADD PUSH2 0x114 JUMP JUMPDEST PUSH2 0x277 PUSH2 0x272 CALLDATASIZE PUSH1 0x4 PUSH2 0x1BBA JUMP JUMPDEST PUSH2 0x4F7 JUMP JUMPDEST PUSH1 0x40 DUP1 MLOAD SWAP4 DUP5 MSTORE PUSH1 0x20 DUP5 ADD SWAP3 SWAP1 SWAP3 MSTORE SWAP1 DUP3 ADD MSTORE PUSH1 0x60 ADD PUSH2 0x114 JUMP JUMPDEST PUSH2 0x2A5 PUSH2 0x2A0 CALLDATASIZE PUSH1 0x4 PUSH2 0x1BED JUMP JUMPDEST PUSH2 0xC51 JUMP JUMPDEST PUSH1 0x40 MLOAD PUSH1 0x1 PUSH1 0x1 PUSH1 0x40 SHL SUB SWAP1 SWAP2 AND DUP2 MSTORE PUSH1 0x20 ADD PUSH2 0x114 JUMP JUMPDEST PUSH2 0x39B PUSH2 0x2CB CALLDATASIZE PUSH1 0x4 PUSH2 0x1B9F JUMP JUMPDEST PUSH1 0x40 DUP1 MLOAD PUSH1 0xE0 DUP2 ADD DUP3 MSTORE PUSH1 0x0 DUP1 DUP3 MSTORE PUSH1 0x20 DUP3 ADD DUP2 SWAP1 MSTORE SWAP2 DUP2 ADD DUP3 SWAP1 MSTORE PUSH1 0x60 DUP2 ADD DUP3 SWAP1 MSTORE PUSH1 0x80 DUP2 ADD DUP3 SWAP1 MSTORE PUSH1 0xA0 DUP2 ADD DUP3 SWAP1 MSTORE PUSH1 0xC0 DUP2 ADD SWAP2 SWAP1 SWAP2 MSTORE POP PUSH6 0xFFFFFFFFFFFF SWAP1 DUP2 AND PUSH1 0x0 SWAP1 DUP2 MSTORE PUSH1 0x1 PUSH1 0x20 DUP2 DUP2 MSTORE PUSH1 0x40 SWAP3 DUP4 SWAP1 KECCAK256 DUP4 MLOAD PUSH1 0xE0 DUP2 ADD DUP6 MSTORE DUP2 SLOAD DUP1 DUP8 AND DUP3 MSTORE PUSH1 0x1 PUSH1 0x30 SHL DUP2 DIV SWAP1 SWAP7 AND SWAP3 DUP2 ADD SWAP3 SWAP1 SWAP3 MSTORE PUSH1 0x1 PUSH1 0x60 SHL SWAP1 SWAP5 DIV PUSH1 0x1 PUSH1 0x1 PUSH1 0xA0 SHL SUB AND SWAP3 DUP2 ADD SWAP3 SWAP1 SWAP3 MSTORE SWAP2 SWAP1 SWAP2 ADD SLOAD PUSH1 0x1 PUSH1 0x1 PUSH1 0x40 SHL SUB DUP1 DUP3 AND PUSH1 0x60 DUP5 ADD MSTORE PUSH1 0x1 PUSH1 0x40 SHL DUP3 DIV DUP2 AND PUSH1 0x80 DUP5 ADD MSTORE PUSH1 0x1 PUSH1 0x80 SHL DUP3 DIV DUP2 AND PUSH1 0xA0 DUP5 ADD MSTORE PUSH1 0x1 PUSH1 0xC0 SHL SWAP1 SWAP2 DIV AND PUSH1 0xC0 DUP3 ADD MSTORE SWAP1 JUMP JUMPDEST PUSH1 0x40 MLOAD PUSH2 0x114 SWAP2 SWAP1 DUP2 MLOAD PUSH6 0xFFFFFFFFFFFF SWAP1 DUP2 AND DUP3 MSTORE PUSH1 0x20 DUP1 DUP5 ADD MLOAD SWAP1 SWAP2 AND SWAP1 DUP3 ADD MSTORE PUSH1 0x40 DUP1 DUP4 ADD MLOAD PUSH1 0x1 PUSH1 0x1 PUSH1 0xA0 SHL SUB AND SWAP1 DUP3 ADD MSTORE PUSH1 0x60 DUP1 DUP4 ADD MLOAD PUSH1 0x1 PUSH1 0x1 PUSH1 0x40 SHL SUB SWAP1 DUP2 AND SWAP2 DUP4 ADD SWAP2 SWAP1 SWAP2 MSTORE PUSH1 0x80 DUP1 DUP5 ADD MLOAD DUP3 AND SWAP1 DUP4 ADD MSTORE PUSH1 0xA0 DUP1 DUP5 ADD MLOAD DUP3 AND SWAP1 DUP4 ADD MSTORE PUSH1 0xC0 SWAP3 DUP4 ADD MLOAD AND SWAP2 DUP2 ADD SWAP2 SWAP1 SWAP2 MSTORE PUSH1 0xE0 ADD SWAP1 JUMP JUMPDEST PUSH1 0x2 SLOAD PUSH2 0x101 SWAP1 PUSH6 0xFFFFFFFFFFFF AND DUP2 JUMP JUMPDEST PUSH2 0x43A PUSH2 0x435 CALLDATASIZE PUSH1 0x4 PUSH2 0x1C19 JUMP JUMPDEST PUSH2 0xC8E JUMP JUMPDEST PUSH1 0x40 MLOAD SWAP1 DUP2 MSTORE PUSH1 0x20 ADD PUSH2 0x114 JUMP JUMPDEST PUSH2 0x144 PUSH32 0x0 DUP2 JUMP JUMPDEST PUSH2 0x17D PUSH32 0x0 DUP2 JUMP JUMPDEST PUSH2 0x17D PUSH32 0x0 DUP2 JUMP JUMPDEST PUSH2 0x144 PUSH32 0x0 DUP2 JUMP JUMPDEST PUSH2 0x101 PUSH2 0x4F2 CALLDATASIZE PUSH1 0x4 PUSH2 0x1C51 JUMP JUMPDEST PUSH2 0xCD4 JUMP JUMPDEST PUSH1 0x2 SLOAD PUSH1 0x0 SWAP1 DUP2 SWAP1 DUP2 SWAP1 PUSH6 0xFFFFFFFFFFFF AND DUP2 SUB PUSH2 0x51D JUMPI POP PUSH1 0x0 SWAP2 POP DUP2 SWAP1 POP DUP1 PUSH2 0xC4A JUMP JUMPDEST PUSH1 0x0 PUSH2 0x549 DUP7 PUSH32 0x0 PUSH2 0xC51 JUMP JUMPDEST SWAP1 POP PUSH1 0x0 PUSH2 0x577 DUP7 PUSH32 0x0 PUSH2 0xC51 JUMP JUMPDEST SWAP1 POP PUSH1 0x0 DUP3 PUSH1 0x1 PUSH1 0x1 PUSH1 0x40 SHL SUB AND GT PUSH2 0x5F5 JUMPI PUSH1 0x40 MLOAD PUSH3 0x461BCD PUSH1 0xE5 SHL DUP2 MSTORE PUSH1 0x20 PUSH1 0x4 DUP3 ADD MSTORE PUSH1 0x35 PUSH1 0x24 DUP3 ADD MSTORE PUSH32 0x4D6F6E6F54726164653A2074616B654F726465723A3A20746F6B656E30496E44 PUSH1 0x44 DUP3 ADD MSTORE PUSH21 0x656320616D6F756E742063616E6E6F74206265203 PUSH1 0x5C SHL PUSH1 0x64 DUP3 ADD MSTORE PUSH1 0x84 ADD JUMPDEST PUSH1 0x40 MLOAD DUP1 SWAP2 SUB SWAP1 REVERT JUMPDEST PUSH2 0x656 CALLER ADDRESS PUSH2 0x624 DUP6 PUSH32 0x0 PUSH2 0xC8E JUMP JUMPDEST PUSH1 0x1 PUSH1 0x1 PUSH1 0xA0 SHL SUB PUSH32 0x0 AND SWAP3 SWAP2 SWAP1 PUSH2 0x18A2 JUMP JUMPDEST DUP2 PUSH1 0x0 JUMPDEST PUSH1 0x2 SLOAD PUSH6 0xFFFFFFFFFFFF AND ISZERO PUSH2 0x9B1 JUMPI PUSH1 0x2 SLOAD PUSH6 0xFFFFFFFFFFFF AND PUSH1 0x0 SWAP1 DUP2 MSTORE PUSH1 0x1 PUSH1 0x20 DUP2 SWAP1 MSTORE PUSH1 0x40 SWAP1 SWAP2 KECCAK256 SWAP1 DUP2 ADD SLOAD PUSH2 0x6A4 SWAP1 PUSH1 0x1 PUSH1 0x40 SHL SWAP1 DIV PUSH1 0x1 PUSH1 0x1 PUSH1 0x40 SHL SUB AND DUP6 PUSH2 0x1C9C JUMP JUMPDEST PUSH1 0x1 DUP3 ADD SLOAD PUSH1 0x1 PUSH1 0x1 PUSH1 0x40 SHL SUB SWAP2 DUP3 AND SWAP2 PUSH2 0x6C0 SWAP2 AND DUP8 PUSH2 0x1C9C JUMP JUMPDEST PUSH1 0x1 PUSH1 0x1 PUSH1 0x40 SHL SUB AND LT ISZERO PUSH2 0x6D5 JUMPI POP PUSH2 0x9B1 JUMP JUMPDEST PUSH1 0x1 DUP2 ADD SLOAD PUSH1 0x0 SWAP1 PUSH1 0x1 PUSH1 0x1 PUSH1 0x40 SHL SUB DUP1 DUP3 AND SWAP2 PUSH1 0x1 PUSH1 0x40 SHL DUP2 DIV DUP3 AND SWAP2 PUSH2 0x705 SWAP2 PUSH1 0x1 PUSH1 0x80 SHL SWAP1 DIV AND DUP4 PUSH2 0x1CC7 JUMP JUMPDEST PUSH2 0x70F SWAP2 SWAP1 PUSH2 0x1C9C JUMP JUMPDEST PUSH2 0x719 SWAP2 SWAP1 PUSH2 0x1D04 JUMP JUMPDEST SWAP1 POP DUP1 PUSH1 0x1 PUSH1 0x1 PUSH1 0x40 SHL SUB AND DUP5 PUSH1 0x1 PUSH1 0x1 PUSH1 0x40 SHL SUB AND LT PUSH2 0x888 JUMPI PUSH2 0x73E DUP2 DUP6 PUSH2 0x1CC7 JUMP JUMPDEST PUSH1 0x1 DUP4 ADD SLOAD SWAP1 SWAP5 POP PUSH2 0x762 SWAP1 PUSH1 0x1 PUSH1 0x1 PUSH1 0x40 SHL SUB PUSH1 0x1 PUSH1 0x80 SHL DUP3 DIV DUP2 AND SWAP2 AND PUSH2 0x1CC7 JUMP JUMPDEST PUSH2 0x76C SWAP1 DUP5 PUSH2 0x1D2A JUMP JUMPDEST SWAP3 POP PUSH2 0x777 DUP3 PUSH2 0x19D2 JUMP JUMPDEST PUSH1 0x1 DUP3 ADD DUP1 SLOAD PUSH8 0xFFFFFFFFFFFFFFFF PUSH1 0x80 SHL NOT DUP2 AND PUSH1 0x1 PUSH1 0x1 PUSH1 0x40 SHL SUB SWAP2 DUP3 AND PUSH1 0x1 PUSH1 0x80 SHL MUL OR DUP1 DUP4 SSTORE DUP4 SWAP3 SWAP2 PUSH1 0x18 SWAP2 PUSH2 0x7BA SWAP2 DUP6 SWAP2 PUSH1 0x1 PUSH1 0xC0 SHL SWAP1 DIV AND PUSH2 0x1D2A JUMP JUMPDEST SWAP3 POP PUSH2 0x100 EXP DUP2 SLOAD DUP2 PUSH1 0x1 PUSH1 0x1 PUSH1 0x40 SHL SUB MUL NOT AND SWAP1 DUP4 PUSH1 0x1 PUSH1 0x1 PUSH1 0x40 SHL SUB AND MUL OR SWAP1 SSTORE POP PUSH2 0x854 DUP3 PUSH1 0x0 ADD PUSH1 0xC SWAP1 SLOAD SWAP1 PUSH2 0x100 EXP SWAP1 DIV PUSH1 0x1 PUSH1 0x1 PUSH1 0xA0 SHL SUB AND PUSH2 0x823 DUP4 PUSH32 0x0 PUSH2 0xC8E JUMP JUMPDEST PUSH1 0x1 PUSH1 0x1 PUSH1 0xA0 SHL SUB PUSH32 0x0 AND SWAP2 SWAP1 PUSH2 0x1A69 JUMP JUMPDEST DUP2 SLOAD PUSH6 0xFFFFFFFFFFFF NOT SWAP1 DUP2 AND PUSH6 0xFFFFFFFFFFFF SWAP1 DUP2 OR DUP1 DUP6 SSTORE PUSH1 0x2 DUP1 SLOAD SWAP1 SWAP4 AND PUSH1 0x1 PUSH1 0x30 SHL SWAP1 SWAP2 DIV SWAP1 SWAP2 AND OR SWAP1 SSTORE PUSH2 0x9AA JUMP JUMPDEST PUSH1 0x1 DUP3 ADD SLOAD PUSH1 0x0 SWAP1 PUSH1 0x1 PUSH1 0x1 PUSH1 0x40 SHL SUB PUSH1 0x1 PUSH1 0x40 SHL DUP3 DIV DUP2 AND SWAP2 PUSH2 0x8AD SWAP2 AND DUP8 PUSH2 0x1C9C JUMP JUMPDEST PUSH2 0x8B7 SWAP2 SWAP1 PUSH2 0x1D04 JUMP JUMPDEST SWAP1 POP PUSH2 0x8C3 DUP2 DUP6 PUSH2 0x1D2A JUMP JUMPDEST SWAP4 POP DUP1 DUP4 PUSH1 0x1 ADD PUSH1 0x10 DUP3 DUP3 DUP3 SWAP1 SLOAD SWAP1 PUSH2 0x100 EXP SWAP1 DIV PUSH1 0x1 PUSH1 0x1 PUSH1 0x40 SHL SUB AND PUSH2 0x8EB SWAP2 SWAP1 PUSH2 0x1D2A JUMP JUMPDEST SWAP3 POP PUSH2 0x100 EXP DUP2 SLOAD DUP2 PUSH1 0x1 PUSH1 0x1 PUSH1 0x40 SHL SUB MUL NOT AND SWAP1 DUP4 PUSH1 0x1 PUSH1 0x1 PUSH1 0x40 SHL SUB AND MUL OR SWAP1 SSTORE POP DUP5 DUP4 PUSH1 0x1 ADD PUSH1 0x18 DUP3 DUP3 DUP3 SWAP1 SLOAD SWAP1 PUSH2 0x100 EXP SWAP1 DIV PUSH1 0x1 PUSH1 0x1 PUSH1 0x40 SHL SUB AND PUSH2 0x935 SWAP2 SWAP1 PUSH2 0x1D2A JUMP JUMPDEST SWAP3 POP PUSH2 0x100 EXP DUP2 SLOAD DUP2 PUSH1 0x1 PUSH1 0x1 PUSH1 0x40 SHL SUB MUL NOT AND SWAP1 DUP4 PUSH1 0x1 PUSH1 0x1 PUSH1 0x40 SHL SUB AND MUL OR SWAP1 SSTORE POP PUSH2 0x99E DUP4 PUSH1 0x0 ADD PUSH1 0xC SWAP1 SLOAD SWAP1 PUSH2 0x100 EXP SWAP1 DIV PUSH1 0x1 PUSH1 0x1 PUSH1 0xA0 SHL SUB AND PUSH2 0x823 DUP8 PUSH32 0x0 PUSH2 0xC8E JUMP JUMPDEST PUSH1 0x0 SWAP5 POP POP POP POP PUSH2 0x9B1 JUMP JUMPDEST POP POP PUSH2 0x65A JUMP JUMPDEST PUSH2 0x9ED PUSH2 0x9BE DUP4 DUP7 PUSH2 0x1CC7 JUMP JUMPDEST PUSH1 0x1 PUSH1 0x1 PUSH1 0x40 SHL SUB AND PUSH32 0x0 PUSH2 0xC51 JUMP JUMPDEST PUSH1 0x1 PUSH1 0x1 PUSH1 0x40 SHL SUB AND SWAP7 POP PUSH1 0x0 DUP1 PUSH32 0x0 PUSH1 0x1 PUSH1 0x1 PUSH1 0xA0 SHL SUB AND EXTCODESIZE GT PUSH2 0xA51 JUMPI PUSH32 0x0 PUSH2 0xAD5 JUMP JUMPDEST PUSH32 0x0 PUSH1 0x1 PUSH1 0x1 PUSH1 0xA0 SHL SUB AND PUSH4 0x17E7E58 PUSH1 0x40 MLOAD DUP2 PUSH4 0xFFFFFFFF AND PUSH1 0xE0 SHL DUP2 MSTORE PUSH1 0x4 ADD PUSH1 0x20 PUSH1 0x40 MLOAD DUP1 DUP4 SUB DUP2 PUSH1 0x0 DUP8 GAS CALL ISZERO DUP1 ISZERO PUSH2 0xAB1 JUMPI RETURNDATASIZE PUSH1 0x0 DUP1 RETURNDATACOPY RETURNDATASIZE PUSH1 0x0 REVERT JUMPDEST POP POP POP POP PUSH1 0x40 MLOAD RETURNDATASIZE PUSH1 0x1F NOT PUSH1 0x1F DUP3 ADD AND DUP3 ADD DUP1 PUSH1 0x40 MSTORE POP DUP2 ADD SWAP1 PUSH2 0xAD5 SWAP2 SWAP1 PUSH2 0x1D4A JUMP JUMPDEST SWAP1 POP CALLER PUSH1 0x1 PUSH1 0x1 PUSH1 0xA0 SHL SUB DUP3 AND EQ PUSH2 0xB5E JUMPI PUSH2 0x2710 PUSH2 0xB17 PUSH1 0xFF PUSH32 0x0 AND DUP11 PUSH2 0x1D73 JUMP JUMPDEST PUSH2 0xB21 SWAP2 SWAP1 PUSH2 0x1D8A JUMP JUMPDEST SWAP6 POP DUP6 ISZERO PUSH2 0xB5E JUMPI PUSH2 0xB5E PUSH1 0x1 PUSH1 0x1 PUSH1 0xA0 SHL SUB PUSH32 0x0 AND CALLER DUP4 DUP10 PUSH2 0x18A2 JUMP JUMPDEST PUSH1 0x1 PUSH1 0x1 PUSH1 0x40 SHL SUB DUP4 AND ISZERO PUSH2 0xB9B JUMPI PUSH2 0xB9B CALLER PUSH2 0x823 DUP6 PUSH32 0x0 PUSH2 0xC8E JUMP JUMPDEST PUSH1 0x1 PUSH1 0x1 PUSH1 0x40 SHL SUB DUP3 AND ISZERO PUSH2 0xC44 JUMPI PUSH2 0xBD4 DUP3 PUSH32 0x0 PUSH2 0xC8E JUMP JUMPDEST SWAP7 POP PUSH2 0xC0A PUSH1 0x1 PUSH1 0x1 PUSH1 0xA0 SHL SUB PUSH32 0x0 AND CALLER DUP10 PUSH2 0x1A69 JUMP JUMPDEST PUSH1 0x40 DUP1 MLOAD DUP10 DUP2 MSTORE PUSH1 0x20 DUP2 ADD DUP10 SWAP1 MSTORE PUSH32 0x2C46CDD281FEE18D15D9A50E01F56CFCB751E18DE8353900FECCD29E09B6534 SWAP2 ADD PUSH1 0x40 MLOAD DUP1 SWAP2 SUB SWAP1 LOG1 JUMPDEST POP POP POP POP POP JUMPDEST SWAP3 POP SWAP3 POP SWAP3 JUMP JUMPDEST PUSH1 0x0 PUSH1 0x6 DUP3 PUSH1 0xFF AND GT PUSH2 0xC65 JUMPI POP DUP2 PUSH2 0xC88 JUMP JUMPDEST PUSH2 0xC70 PUSH1 0x6 DUP4 PUSH2 0x1D9E JUMP JUMPDEST PUSH2 0xC7B SWAP1 PUSH1 0xA PUSH2 0x1E9B JUMP JUMPDEST PUSH2 0xC85 SWAP1 DUP5 PUSH2 0x1D8A JUMP JUMPDEST SWAP1 POP JUMPDEST SWAP3 SWAP2 POP POP JUMP JUMPDEST PUSH1 0x0 PUSH1 0x6 DUP3 PUSH1 0xFF AND GT PUSH2 0xCAB JUMPI POP PUSH1 0x1 PUSH1 0x1 PUSH1 0x40 SHL SUB DUP3 AND PUSH2 0xC88 JUMP JUMPDEST PUSH2 0xCB6 PUSH1 0x6 DUP4 PUSH2 0x1D9E JUMP JUMPDEST PUSH2 0xCC1 SWAP1 PUSH1 0xA PUSH2 0x1E9B JUMP JUMPDEST PUSH2 0xC85 SWAP1 PUSH1 0x1 PUSH1 0x1 PUSH1 0x40 SHL SUB DUP6 AND PUSH2 0x1D73 JUMP JUMPDEST PUSH1 0x0 DUP1 PUSH2 0xD01 DUP6 PUSH32 0x0 PUSH2 0xC51 JUMP JUMPDEST SWAP1 POP PUSH1 0x0 PUSH2 0xD2F DUP6 PUSH32 0x0 PUSH2 0xC51 JUMP JUMPDEST SWAP1 POP PUSH1 0x0 DUP3 PUSH1 0x1 PUSH1 0x1 PUSH1 0x40 SHL SUB AND GT PUSH2 0xDA8 JUMPI PUSH1 0x40 MLOAD PUSH3 0x461BCD PUSH1 0xE5 SHL DUP2 MSTORE PUSH1 0x20 PUSH1 0x4 DUP3 ADD MSTORE PUSH1 0x35 PUSH1 0x24 DUP3 ADD MSTORE PUSH32 0x4D6F6E6F54726164653A206D616B654F726465723A3A20746F6B656E31496E44 PUSH1 0x44 DUP3 ADD MSTORE PUSH21 0x656320616D6F756E742063616E6E6F74206265203 PUSH1 0x5C SHL PUSH1 0x64 DUP3 ADD MSTORE PUSH1 0x84 ADD PUSH2 0x5EC JUMP JUMPDEST PUSH1 0x0 DUP2 PUSH1 0x1 PUSH1 0x1 PUSH1 0x40 SHL SUB AND GT PUSH2 0xE20 JUMPI PUSH1 0x40 MLOAD PUSH3 0x461BCD PUSH1 0xE5 SHL DUP2 MSTORE PUSH1 0x20 PUSH1 0x4 DUP3 ADD MSTORE PUSH1 0x36 PUSH1 0x24 DUP3 ADD MSTORE PUSH32 0x4D6F6E6F54726164653A206D616B654F726465723A3A20746F6B656E304F7574 PUSH1 0x44 DUP3 ADD MSTORE PUSH22 0x44656320616D6F756E742063616E6E6F74206265203 PUSH1 0x54 SHL PUSH1 0x64 DUP3 ADD MSTORE PUSH1 0x84 ADD PUSH2 0x5EC JUMP JUMPDEST PUSH2 0xE81 CALLER ADDRESS PUSH2 0xE4F DUP6 PUSH32 0x0 PUSH2 0xC8E JUMP JUMPDEST PUSH1 0x1 PUSH1 0x1 PUSH1 0xA0 SHL SUB PUSH32 0x0 AND SWAP3 SWAP2 SWAP1 PUSH2 0x18A2 JUMP JUMPDEST PUSH1 0x0 DUP1 SLOAD DUP2 SWAP1 PUSH2 0xE98 SWAP1 PUSH6 0xFFFFFFFFFFFF AND PUSH2 0x1EAA JUMP JUMPDEST DUP3 SLOAD PUSH2 0x100 SWAP3 SWAP1 SWAP3 EXP PUSH6 0xFFFFFFFFFFFF DUP2 DUP2 MUL NOT SWAP1 SWAP4 AND SWAP2 DUP4 AND MUL OR SWAP1 SWAP2 SSTORE PUSH1 0x2 SLOAD AND PUSH1 0x0 SUB PUSH2 0xFED JUMPI PUSH1 0x40 DUP1 MLOAD PUSH1 0xE0 DUP2 ADD DUP3 MSTORE PUSH1 0x0 DUP1 DUP3 MSTORE PUSH1 0x20 DUP1 DUP4 ADD DUP3 DUP2 MSTORE CALLER DUP5 DUP7 ADD SWAP1 DUP2 MSTORE PUSH1 0x1 PUSH1 0x1 PUSH1 0x40 SHL SUB SWAP8 DUP9 AND PUSH1 0x60 DUP7 ADD SWAP1 DUP2 MSTORE SWAP7 DUP9 AND PUSH1 0x80 DUP7 ADD SWAP1 DUP2 MSTORE PUSH1 0xA0 DUP7 ADD DUP6 DUP2 MSTORE PUSH1 0xC0 DUP8 ADD DUP7 DUP2 MSTORE DUP7 SLOAD PUSH6 0xFFFFFFFFFFFF SWAP1 DUP2 AND DUP9 MSTORE PUSH1 0x1 SWAP7 DUP8 SWAP1 MSTORE SWAP9 DUP8 KECCAK256 SWAP8 MLOAD DUP9 SLOAD SWAP6 MLOAD SWAP5 MLOAD PUSH1 0x1 PUSH1 0x1 PUSH1 0xA0 SHL SUB AND PUSH1 0x1 PUSH1 0x60 SHL MUL PUSH1 0x1 PUSH1 0x1 PUSH1 0x60 SHL SUB SWAP6 DUP12 AND PUSH1 0x1 PUSH1 0x30 SHL MUL PUSH1 0x1 PUSH1 0x1 PUSH1 0x60 SHL SUB NOT SWAP1 SWAP8 AND SWAP2 DUP12 AND SWAP2 SWAP1 SWAP2 OR SWAP6 SWAP1 SWAP6 OR SWAP4 SWAP1 SWAP4 AND SWAP4 SWAP1 SWAP4 OR DUP7 SSTORE SWAP7 MLOAD SWAP5 SWAP1 SWAP3 ADD DUP1 SLOAD SWAP7 MLOAD SWAP2 MLOAD SWAP3 MLOAD DUP9 AND PUSH1 0x1 PUSH1 0xC0 SHL MUL PUSH1 0x1 PUSH1 0x1 PUSH1 0xC0 SHL SUB SWAP4 DUP10 AND PUSH1 0x1 PUSH1 0x80 SHL MUL SWAP4 SWAP1 SWAP4 AND PUSH1 0x1 PUSH1 0x1 PUSH1 0x80 SHL SUB SWAP3 DUP10 AND PUSH1 0x1 PUSH1 0x40 SHL MUL PUSH1 0x1 PUSH1 0x1 PUSH1 0x80 SHL SUB NOT SWAP1 SWAP9 AND SWAP6 SWAP1 SWAP9 AND SWAP5 SWAP1 SWAP5 OR SWAP6 SWAP1 SWAP6 OR SWAP5 SWAP1 SWAP5 AND SWAP5 SWAP1 SWAP5 OR SWAP3 SWAP1 SWAP3 OR SWAP1 SWAP2 SSTORE SWAP1 SLOAD PUSH1 0x2 DUP1 SLOAD PUSH6 0xFFFFFFFFFFFF NOT AND SWAP2 SWAP1 SWAP3 AND SWAP1 DUP2 OR SWAP1 SWAP2 SSTORE SWAP1 POP PUSH2 0x189B JUMP JUMPDEST DUP4 PUSH6 0xFFFFFFFFFFFF AND PUSH1 0x0 SUB PUSH2 0x11F8 JUMPI PUSH1 0x2 SLOAD PUSH6 0xFFFFFFFFFFFF AND PUSH1 0x0 SWAP1 DUP2 MSTORE PUSH1 0x1 PUSH1 0x20 DUP2 SWAP1 MSTORE PUSH1 0x40 SWAP1 SWAP2 KECCAK256 SWAP1 DUP2 ADD SLOAD PUSH2 0x1031 SWAP1 DUP4 SWAP1 PUSH1 0x1 PUSH1 0x1 PUSH1 0x40 SHL SUB AND PUSH2 0x1C9C JUMP JUMPDEST PUSH1 0x1 DUP3 ADD SLOAD PUSH1 0x1 PUSH1 0x1 PUSH1 0x40 SHL SUB SWAP2 DUP3 AND SWAP2 PUSH2 0x1056 SWAP2 DUP7 SWAP2 PUSH1 0x1 PUSH1 0x40 SHL SWAP1 SWAP2 DIV AND PUSH2 0x1C9C JUMP JUMPDEST PUSH1 0x1 PUSH1 0x1 PUSH1 0x40 SHL SUB AND GT PUSH2 0x10C6 JUMPI PUSH1 0x40 MLOAD PUSH3 0x461BCD PUSH1 0xE5 SHL DUP2 MSTORE PUSH1 0x20 PUSH1 0x4 DUP3 ADD MSTORE PUSH1 0x31 PUSH1 0x24 DUP3 ADD MSTORE PUSH32 0x4D6F6E6F54726164653A206D616B654F726465723A3A20796F75722070726963 PUSH1 0x44 DUP3 ADD MSTORE PUSH17 0x329036BAB9BA101F103A37B827B93232B9 PUSH1 0x79 SHL PUSH1 0x64 DUP3 ADD MSTORE PUSH1 0x84 ADD PUSH2 0x5EC JUMP JUMPDEST PUSH1 0x0 DUP1 SLOAD DUP3 SLOAD PUSH6 0xFFFFFFFFFFFF NOT SWAP1 DUP2 AND PUSH6 0xFFFFFFFFFFFF SWAP3 DUP4 AND OR SWAP1 SWAP4 SSTORE PUSH1 0x40 DUP1 MLOAD PUSH1 0xE0 DUP2 ADD DUP3 MSTORE DUP4 DUP2 MSTORE PUSH1 0x2 DUP1 SLOAD DUP5 AND PUSH1 0x20 DUP1 DUP5 ADD SWAP2 DUP3 MSTORE CALLER DUP5 DUP7 ADD SWAP1 DUP2 MSTORE PUSH1 0x1 PUSH1 0x1 PUSH1 0x40 SHL SUB SWAP11 DUP12 AND PUSH1 0x60 DUP7 ADD SWAP1 DUP2 MSTORE SWAP10 DUP12 AND PUSH1 0x80 DUP7 ADD SWAP1 DUP2 MSTORE PUSH1 0xA0 DUP7 ADD DUP10 DUP2 MSTORE PUSH1 0xC0 DUP8 ADD DUP11 DUP2 MSTORE DUP11 SLOAD DUP11 AND DUP12 MSTORE PUSH1 0x1 SWAP5 DUP6 SWAP1 MSTORE SWAP8 DUP11 KECCAK256 SWAP7 MLOAD DUP8 SLOAD SWAP6 MLOAD SWAP4 MLOAD PUSH1 0x1 PUSH1 0x1 PUSH1 0xA0 SHL SUB AND PUSH1 0x1 PUSH1 0x60 SHL MUL PUSH1 0x1 PUSH1 0x1 PUSH1 0x60 SHL SUB SWAP5 DUP12 AND PUSH1 0x1 PUSH1 0x30 SHL MUL PUSH1 0x1 PUSH1 0x1 PUSH1 0x60 SHL SUB NOT SWAP1 SWAP8 AND SWAP2 DUP12 AND SWAP2 SWAP1 SWAP2 OR SWAP6 SWAP1 SWAP6 OR SWAP3 SWAP1 SWAP3 AND SWAP4 SWAP1 SWAP4 OR DUP6 SSTORE SWAP9 MLOAD SWAP4 ADD DUP1 SLOAD SWAP2 MLOAD SWAP9 MLOAD SWAP5 MLOAD DUP11 AND PUSH1 0x1 PUSH1 0xC0 SHL MUL PUSH1 0x1 PUSH1 0x1 PUSH1 0xC0 SHL SUB SWAP6 DUP12 AND PUSH1 0x1 PUSH1 0x80 SHL MUL SWAP6 SWAP1 SWAP6 AND PUSH1 0x1 PUSH1 0x1 PUSH1 0x80 SHL SUB SWAP10 DUP12 AND PUSH1 0x1 PUSH1 0x40 SHL MUL PUSH1 0x1 PUSH1 0x1 PUSH1 0x80 SHL SUB NOT SWAP1 SWAP4 AND SWAP5 SWAP1 SWAP11 AND SWAP4 SWAP1 SWAP4 OR OR SWAP7 SWAP1 SWAP7 AND SWAP7 SWAP1 SWAP7 OR OR SWAP1 SWAP5 SSTORE SLOAD DUP3 SLOAD SWAP1 SWAP2 AND SWAP3 AND SWAP2 DUP3 OR SWAP1 SSTORE SWAP1 POP PUSH2 0x189B JUMP JUMPDEST PUSH6 0xFFFFFFFFFFFF DUP5 AND PUSH1 0x0 SWAP1 DUP2 MSTORE PUSH1 0x1 PUSH1 0x20 DUP2 SWAP1 MSTORE PUSH1 0x40 DUP3 KECCAK256 SWAP1 DUP2 ADD SLOAD SWAP1 SWAP2 PUSH1 0x1 PUSH1 0x1 PUSH1 0x40 SHL SUB SWAP1 SWAP2 AND SWAP1 SUB PUSH2 0x1288 JUMPI PUSH1 0x40 MLOAD PUSH3 0x461BCD PUSH1 0xE5 SHL DUP2 MSTORE PUSH1 0x20 PUSH1 0x4 DUP3 ADD MSTORE PUSH1 0x2F PUSH1 0x24 DUP3 ADD MSTORE PUSH32 0x4D6F6E6F54726164653A206D616B654F726465723A3A206265666F72654F7264 PUSH1 0x44 DUP3 ADD MSTORE PUSH15 0x195C881A5CC81B9BDD08195E1A5CDD PUSH1 0x8A SHL PUSH1 0x64 DUP3 ADD MSTORE PUSH1 0x84 ADD PUSH2 0x5EC JUMP JUMPDEST DUP1 SLOAD PUSH6 0xFFFFFFFFFFFF AND PUSH6 0xFFFFFFFFFFFE NOT ADD PUSH2 0x1303 JUMPI PUSH1 0x40 MLOAD PUSH3 0x461BCD PUSH1 0xE5 SHL DUP2 MSTORE PUSH1 0x20 PUSH1 0x4 DUP3 ADD MSTORE PUSH1 0x33 PUSH1 0x24 DUP3 ADD MSTORE PUSH32 0x4D6F6E6F54726164653A206D616B654F726465723A3A206265666F72654F7264 PUSH1 0x44 DUP3 ADD MSTORE PUSH19 0x65722069732072656D6F76656428646F6E6529 PUSH1 0x68 SHL PUSH1 0x64 DUP3 ADD MSTORE PUSH1 0x84 ADD PUSH2 0x5EC JUMP JUMPDEST PUSH1 0x1 DUP2 ADD SLOAD PUSH2 0x131C SWAP1 DUP4 SWAP1 PUSH1 0x1 PUSH1 0x1 PUSH1 0x40 SHL SUB AND PUSH2 0x1C9C JUMP JUMPDEST PUSH1 0x1 DUP3 ADD SLOAD PUSH1 0x1 PUSH1 0x1 PUSH1 0x40 SHL SUB SWAP2 DUP3 AND SWAP2 PUSH2 0x1341 SWAP2 DUP7 SWAP2 PUSH1 0x1 PUSH1 0x40 SHL SWAP1 SWAP2 DIV AND PUSH2 0x1C9C JUMP JUMPDEST PUSH1 0x1 PUSH1 0x1 PUSH1 0x40 SHL SUB AND GT ISZERO PUSH2 0x13B6 JUMPI PUSH1 0x40 MLOAD PUSH3 0x461BCD PUSH1 0xE5 SHL DUP2 MSTORE PUSH1 0x20 PUSH1 0x4 DUP3 ADD MSTORE PUSH1 0x35 PUSH1 0x24 DUP3 ADD MSTORE PUSH32 0x4D6F6E6F54726164653A206D616B654F726465723A3A20796F75722070726963 PUSH1 0x44 DUP3 ADD MSTORE PUSH21 0x329036BAB9BA101E1E903132B337B932A7B93232B9 PUSH1 0x59 SHL PUSH1 0x64 DUP3 ADD MSTORE PUSH1 0x84 ADD PUSH2 0x5EC JUMP JUMPDEST DUP1 SLOAD PUSH1 0x1 PUSH1 0x30 SHL SWAP1 DIV PUSH6 0xFFFFFFFFFFFF AND PUSH1 0x0 SUB PUSH2 0x14FD JUMPI PUSH1 0x0 DUP1 SLOAD DUP3 SLOAD PUSH1 0x1 PUSH1 0x30 SHL PUSH6 0xFFFFFFFFFFFF SWAP3 DUP4 AND DUP2 MUL PUSH6 0xFFFFFFFFFFFF PUSH1 0x30 SHL NOT SWAP1 SWAP3 AND SWAP2 SWAP1 SWAP2 OR SWAP1 SWAP4 SSTORE PUSH1 0x40 DUP1 MLOAD PUSH1 0xE0 DUP2 ADD DUP3 MSTORE DUP9 DUP4 AND DUP2 MSTORE PUSH1 0x20 DUP1 DUP3 ADD DUP6 DUP2 MSTORE CALLER DUP4 DUP6 ADD SWAP1 DUP2 MSTORE PUSH1 0x1 PUSH1 0x1 PUSH1 0x40 SHL SUB SWAP10 DUP11 AND PUSH1 0x60 DUP6 ADD SWAP1 DUP2 MSTORE SWAP9 DUP11 AND PUSH1 0x80 DUP6 ADD SWAP1 DUP2 MSTORE PUSH1 0xA0 DUP6 ADD DUP9 DUP2 MSTORE PUSH1 0xC0 DUP7 ADD DUP10 DUP2 MSTORE DUP10 SLOAD DUP10 AND DUP11 MSTORE PUSH1 0x1 SWAP6 DUP7 SWAP1 MSTORE SWAP7 DUP10 KECCAK256 SWAP6 MLOAD DUP7 SLOAD SWAP5 MLOAD SWAP4 MLOAD PUSH1 0x1 PUSH1 0x1 PUSH1 0xA0 SHL SUB AND PUSH1 0x1 PUSH1 0x60 SHL MUL PUSH1 0x1 PUSH1 0x1 PUSH1 0x60 SHL SUB SWAP5 DUP11 AND SWAP1 SWAP12 MUL PUSH1 0x1 PUSH1 0x1 PUSH1 0x60 SHL SUB NOT SWAP1 SWAP6 AND SWAP1 DUP10 AND OR SWAP4 SWAP1 SWAP4 OR SWAP2 SWAP1 SWAP2 AND SWAP8 SWAP1 SWAP8 OR DUP4 SSTORE SWAP7 MLOAD SWAP2 ADD DUP1 SLOAD SWAP6 MLOAD SWAP7 MLOAD SWAP3 MLOAD DUP9 AND PUSH1 0x1 PUSH1 0xC0 SHL MUL PUSH1 0x1 PUSH1 0x1 PUSH1 0xC0 SHL SUB SWAP4 DUP10 AND PUSH1 0x1 PUSH1 0x80 SHL MUL SWAP4 SWAP1 SWAP4 AND PUSH1 0x1 PUSH1 0x1 PUSH1 0x80 SHL SUB SWAP8 DUP10 AND PUSH1 0x1 PUSH1 0x40 SHL MUL PUSH1 0x1 PUSH1 0x1 PUSH1 0x80 SHL SUB NOT SWAP1 SWAP8 AND SWAP3 SWAP1 SWAP9 AND SWAP2 SWAP1 SWAP2 OR SWAP5 SWAP1 SWAP5 OR SWAP5 SWAP1 SWAP5 AND SWAP5 SWAP1 SWAP5 OR SWAP3 SWAP1 SWAP3 OR SWAP1 SSTORE SLOAD AND SWAP1 POP PUSH2 0x189B JUMP JUMPDEST DUP1 SLOAD PUSH1 0x1 PUSH1 0x30 SHL SWAP1 DIV PUSH6 0xFFFFFFFFFFFF AND PUSH1 0x0 SWAP1 DUP2 MSTORE PUSH1 0x1 PUSH1 0x20 DUP2 SWAP1 MSTORE PUSH1 0x40 DUP3 KECCAK256 SWAP1 DUP2 ADD SLOAD SWAP1 SWAP2 PUSH1 0x1 PUSH1 0x1 PUSH1 0x40 SHL SUB SWAP1 SWAP2 AND SWAP1 SUB PUSH2 0x1594 JUMPI PUSH1 0x40 MLOAD PUSH3 0x461BCD PUSH1 0xE5 SHL DUP2 MSTORE PUSH1 0x20 PUSH1 0x4 DUP3 ADD MSTORE PUSH1 0x2E PUSH1 0x24 DUP3 ADD MSTORE PUSH32 0x4D6F6E6F54726164653A206D616B654F726465723A3A2061667465724F726465 PUSH1 0x44 DUP3 ADD MSTORE PUSH14 0x1C881A5CC81B9BDD08195E1A5CDD PUSH1 0x92 SHL PUSH1 0x64 DUP3 ADD MSTORE PUSH1 0x84 ADD PUSH2 0x5EC JUMP JUMPDEST DUP1 SLOAD PUSH6 0xFFFFFFFFFFFF AND PUSH6 0xFFFFFFFFFFFE NOT ADD PUSH2 0x1608 JUMPI PUSH1 0x40 MLOAD PUSH3 0x461BCD PUSH1 0xE5 SHL DUP2 MSTORE PUSH1 0x20 PUSH1 0x4 DUP3 ADD MSTORE PUSH1 0x2C PUSH1 0x24 DUP3 ADD MSTORE PUSH32 0x4D6F6E6F54726164653A206D616B654F726465723A3A2061667465724F726465 PUSH1 0x44 DUP3 ADD MSTORE PUSH12 0x1C881A5CC81C995B5BDD9959 PUSH1 0xA2 SHL PUSH1 0x64 DUP3 ADD MSTORE PUSH1 0x84 ADD PUSH2 0x5EC JUMP JUMPDEST PUSH1 0x1 DUP2 ADD SLOAD PUSH2 0x1621 SWAP1 DUP5 SWAP1 PUSH1 0x1 PUSH1 0x1 PUSH1 0x40 SHL SUB AND PUSH2 0x1C9C JUMP JUMPDEST PUSH1 0x1 DUP3 ADD SLOAD PUSH1 0x1 PUSH1 0x1 PUSH1 0x40 SHL SUB SWAP2 DUP3 AND SWAP2 PUSH2 0x1646 SWAP2 DUP8 SWAP2 PUSH1 0x1 PUSH1 0x40 SHL SWAP1 SWAP2 DIV AND PUSH2 0x1C9C JUMP JUMPDEST PUSH1 0x1 PUSH1 0x1 PUSH1 0x40 SHL SUB AND GT PUSH2 0x16B8 JUMPI PUSH1 0x40 MLOAD PUSH3 0x461BCD PUSH1 0xE5 SHL DUP2 MSTORE PUSH1 0x20 PUSH1 0x4 DUP3 ADD MSTORE PUSH1 0x33 PUSH1 0x24 DUP3 ADD MSTORE PUSH32 0x4D6F6E6F54726164653A206D616B654F726465723A3A20796F75722070726963 PUSH1 0x44 DUP3 ADD MSTORE PUSH19 0x329036BAB9BA101F1030B33A32B927B93232B9 PUSH1 0x69 SHL PUSH1 0x64 DUP3 ADD MSTORE PUSH1 0x84 ADD PUSH2 0x5EC JUMP JUMPDEST PUSH1 0x40 DUP1 MLOAD PUSH1 0xE0 DUP2 ADD DUP3 MSTORE PUSH6 0xFFFFFFFFFFFF DUP1 DUP10 AND DUP3 MSTORE DUP5 SLOAD PUSH1 0x1 PUSH1 0x30 SHL SWAP1 DUP2 SWAP1 DIV DUP3 AND PUSH1 0x20 DUP1 DUP6 ADD SWAP2 DUP3 MSTORE CALLER DUP6 DUP8 ADD SWAP1 DUP2 MSTORE PUSH1 0x1 PUSH1 0x1 PUSH1 0x40 SHL SUB DUP1 DUP13 AND PUSH1 0x60 DUP9 ADD SWAP1 DUP2 MSTORE DUP12 DUP3 AND PUSH1 0x80 DUP10 ADD SWAP1 DUP2 MSTORE PUSH1 0x0 PUSH1 0xA0 DUP11 ADD DUP2 DUP2 MSTORE PUSH1 0xC0 DUP12 ADD DUP3 DUP2 MSTORE DUP3 SLOAD DUP12 AND DUP4 MSTORE PUSH1 0x1 SWAP8 DUP9 SWAP1 MSTORE SWAP12 DUP3 KECCAK256 SWAP11 MLOAD DUP12 SLOAD SWAP9 MLOAD SWAP7 MLOAD PUSH1 0x1 PUSH1 0x1 PUSH1 0xA0 SHL SUB AND PUSH1 0x1 PUSH1 0x60 SHL MUL PUSH1 0x1 PUSH1 0x1 PUSH1 0x60 SHL SUB SWAP8 DUP13 AND DUP12 MUL PUSH1 0x1 PUSH1 0x1 PUSH1 0x60 SHL SUB NOT SWAP1 SWAP11 AND SWAP2 DUP13 AND SWAP2 SWAP1 SWAP2 OR SWAP9 SWAP1 SWAP9 OR SWAP6 SWAP1 SWAP6 AND SWAP7 SWAP1 SWAP7 OR DUP10 SSTORE SWAP1 MLOAD SWAP8 SWAP1 SWAP4 ADD DUP1 SLOAD SWAP4 MLOAD SWAP3 MLOAD SWAP9 MLOAD DUP3 AND PUSH1 0x1 PUSH1 0xC0 SHL MUL PUSH1 0x1 PUSH1 0x1 PUSH1 0xC0 SHL SUB SWAP10 DUP4 AND PUSH1 0x1 PUSH1 0x80 SHL MUL SWAP10 SWAP1 SWAP10 AND PUSH1 0x1 PUSH1 0x1 PUSH1 0x80 SHL SUB SWAP4 DUP4 AND PUSH1 0x1 PUSH1 0x40 SHL MUL PUSH1 0x1 PUSH1 0x1 PUSH1 0x80 SHL SUB NOT SWAP1 SWAP6 AND SWAP9 SWAP1 SWAP3 AND SWAP8 SWAP1 SWAP8 OR SWAP3 SWAP1 SWAP3 OR AND OR SWAP5 SWAP1 SWAP5 OR SWAP1 SWAP3 SSTORE DUP3 SLOAD DUP6 SLOAD SWAP1 DUP3 AND SWAP1 SWAP3 MUL PUSH6 0xFFFFFFFFFFFF PUSH1 0x30 SHL NOT SWAP3 SWAP1 SWAP3 AND SWAP2 SWAP1 SWAP2 OR DUP5 SSTORE DUP2 SLOAD DUP4 SLOAD PUSH6 0xFFFFFFFFFFFF NOT AND SWAP1 DUP3 AND OR DUP4 SSTORE SWAP1 SLOAD AND PUSH32 0xEA910122087CBF17285B27427F85B78F899146C9516D8DE30E3D715D33F34078 PUSH2 0x1847 DUP7 PUSH32 0x0 PUSH2 0xC8E JUMP JUMPDEST PUSH2 0x1871 DUP7 PUSH32 0x0 PUSH2 0xC8E JUMP JUMPDEST PUSH1 0x40 DUP1 MLOAD SWAP3 DUP4 MSTORE PUSH1 0x20 DUP4 ADD SWAP2 SWAP1 SWAP2 MSTORE ADD PUSH1 0x40 MLOAD DUP1 SWAP2 SUB SWAP1 LOG2 POP POP PUSH1 0x0 SLOAD PUSH6 0xFFFFFFFFFFFF AND SWAP3 POP POP POP JUMPDEST SWAP4 SWAP3 POP POP POP JUMP JUMPDEST PUSH1 0x40 DUP1 MLOAD PUSH1 0x1 PUSH1 0x1 PUSH1 0xA0 SHL SUB DUP6 DUP2 AND PUSH1 0x24 DUP4 ADD MSTORE DUP5 DUP2 AND PUSH1 0x44 DUP4 ADD MSTORE PUSH1 0x64 DUP1 DUP4 ADD DUP6 SWAP1 MSTORE DUP4 MLOAD DUP1 DUP5 SUB SWAP1 SWAP2 ADD DUP2 MSTORE PUSH1 0x84 SWAP1 SWAP3 ADD DUP4 MSTORE PUSH1 0x20 DUP3 ADD DUP1 MLOAD PUSH1 0x1 PUSH1 0x1 PUSH1 0xE0 SHL SUB AND PUSH4 0x23B872DD PUSH1 0xE0 SHL OR SWAP1 MSTORE SWAP2 MLOAD PUSH1 0x0 SWAP3 DUP4 SWAP3 SWAP1 DUP9 AND SWAP2 PUSH2 0x1906 SWAP2 SWAP1 PUSH2 0x1ECF JUMP JUMPDEST PUSH1 0x0 PUSH1 0x40 MLOAD DUP1 DUP4 SUB DUP2 PUSH1 0x0 DUP7 GAS CALL SWAP2 POP POP RETURNDATASIZE DUP1 PUSH1 0x0 DUP2 EQ PUSH2 0x1943 JUMPI PUSH1 0x40 MLOAD SWAP2 POP PUSH1 0x1F NOT PUSH1 0x3F RETURNDATASIZE ADD AND DUP3 ADD PUSH1 0x40 MSTORE RETURNDATASIZE DUP3 MSTORE RETURNDATASIZE PUSH1 0x0 PUSH1 0x20 DUP5 ADD RETURNDATACOPY PUSH2 0x1948 JUMP JUMPDEST PUSH1 0x60 SWAP2 POP JUMPDEST POP SWAP2 POP SWAP2 POP DUP2 DUP1 ISZERO PUSH2 0x1972 JUMPI POP DUP1 MLOAD ISZERO DUP1 PUSH2 0x1972 JUMPI POP DUP1 DUP1 PUSH1 0x20 ADD SWAP1 MLOAD DUP2 ADD SWAP1 PUSH2 0x1972 SWAP2 SWAP1 PUSH2 0x1EFE JUMP JUMPDEST PUSH2 0x19CA JUMPI PUSH1 0x40 MLOAD PUSH3 0x461BCD PUSH1 0xE5 SHL DUP2 MSTORE PUSH1 0x20 PUSH1 0x4 DUP3 ADD MSTORE PUSH1 0x24 DUP1 DUP3 ADD MSTORE PUSH32 0x5472616E7366657248656C7065723A205452414E534645525F46524F4D5F4641 PUSH1 0x44 DUP3 ADD MSTORE PUSH4 0x12531151 PUSH1 0xE2 SHL PUSH1 0x64 DUP3 ADD MSTORE PUSH1 0x84 ADD PUSH2 0x5EC JUMP JUMPDEST POP POP POP POP POP POP JUMP JUMPDEST DUP1 SLOAD PUSH6 0xFFFFFFFFFFFF AND ISZERO PUSH2 0x1A1C JUMPI DUP1 SLOAD PUSH6 0xFFFFFFFFFFFF DUP1 DUP3 AND PUSH1 0x0 SWAP1 DUP2 MSTORE PUSH1 0x1 PUSH1 0x20 MSTORE PUSH1 0x40 SWAP1 KECCAK256 DUP1 SLOAD PUSH6 0xFFFFFFFFFFFF PUSH1 0x30 SHL NOT AND PUSH1 0x1 PUSH1 0x30 SHL SWAP4 DUP5 SWAP1 DIV SWAP1 SWAP3 AND SWAP1 SWAP3 MUL OR SWAP1 SSTORE JUMPDEST DUP1 SLOAD PUSH1 0x1 PUSH1 0x30 SHL SWAP1 DIV PUSH6 0xFFFFFFFFFFFF AND ISZERO PUSH2 0x1A66 JUMPI DUP1 SLOAD PUSH1 0x1 PUSH1 0x30 SHL DUP2 DIV PUSH6 0xFFFFFFFFFFFF SWAP1 DUP2 AND PUSH1 0x0 SWAP1 DUP2 MSTORE PUSH1 0x1 PUSH1 0x20 MSTORE PUSH1 0x40 SWAP1 KECCAK256 DUP1 SLOAD PUSH6 0xFFFFFFFFFFFF NOT AND SWAP2 SWAP1 SWAP3 AND OR SWAP1 SSTORE JUMPDEST POP JUMP JUMPDEST PUSH1 0x40 DUP1 MLOAD PUSH1 0x1 PUSH1 0x1 PUSH1 0xA0 SHL SUB DUP5 DUP2 AND PUSH1 0x24 DUP4 ADD MSTORE PUSH1 0x44 DUP1 DUP4 ADD DUP6 SWAP1 MSTORE DUP4 MLOAD DUP1 DUP5 SUB SWAP1 SWAP2 ADD DUP2 MSTORE PUSH1 0x64 SWAP1 SWAP3 ADD DUP4 MSTORE PUSH1 0x20 DUP3 ADD DUP1 MLOAD PUSH1 0x1 PUSH1 0x1 PUSH1 0xE0 SHL SUB AND PUSH4 0xA9059CBB PUSH1 0xE0 SHL OR SWAP1 MSTORE SWAP2 MLOAD PUSH1 0x0 SWAP3 DUP4 SWAP3 SWAP1 DUP8 AND SWAP2 PUSH2 0x1AC5 SWAP2 SWAP1 PUSH2 0x1ECF JUMP JUMPDEST PUSH1 0x0 PUSH1 0x40 MLOAD DUP1 DUP4 SUB DUP2 PUSH1 0x0 DUP7 GAS CALL SWAP2 POP POP RETURNDATASIZE DUP1 PUSH1 0x0 DUP2 EQ PUSH2 0x1B02 JUMPI PUSH1 0x40 MLOAD SWAP2 POP PUSH1 0x1F NOT PUSH1 0x3F RETURNDATASIZE ADD AND DUP3 ADD PUSH1 0x40 MSTORE RETURNDATASIZE DUP3 MSTORE RETURNDATASIZE PUSH1 0x0 PUSH1 0x20 DUP5 ADD RETURNDATACOPY PUSH2 0x1B07 JUMP JUMPDEST PUSH1 0x60 SWAP2 POP JUMPDEST POP SWAP2 POP SWAP2 POP DUP2 DUP1 ISZERO PUSH2 0x1B31 JUMPI POP DUP1 MLOAD ISZERO DUP1 PUSH2 0x1B31 JUMPI POP DUP1 DUP1 PUSH1 0x20 ADD SWAP1 MLOAD DUP2 ADD SWAP1 PUSH2 0x1B31 SWAP2 SWAP1 PUSH2 0x1EFE JUMP JUMPDEST PUSH2 0x1B7D JUMPI PUSH1 0x40 MLOAD PUSH3 0x461BCD PUSH1 0xE5 SHL DUP2 MSTORE PUSH1 0x20 PUSH1 0x4 DUP3 ADD MSTORE PUSH1 0x1F PUSH1 0x24 DUP3 ADD MSTORE PUSH32 0x5472616E7366657248656C7065723A205452414E534645525F4641494C454400 PUSH1 0x44 DUP3 ADD MSTORE PUSH1 0x64 ADD PUSH2 0x5EC JUMP JUMPDEST POP POP POP POP POP JUMP JUMPDEST DUP1 CALLDATALOAD PUSH6 0xFFFFFFFFFFFF DUP2 AND DUP2 EQ PUSH2 0x1B9A JUMPI PUSH1 0x0 DUP1 REVERT JUMPDEST SWAP2 SWAP1 POP JUMP JUMPDEST PUSH1 0x0 PUSH1 0x20 DUP3 DUP5 SUB SLT ISZERO PUSH2 0x1BB1 JUMPI PUSH1 0x0 DUP1 REVERT JUMPDEST PUSH2 0xC85 DUP3 PUSH2 0x1B84 JUMP JUMPDEST PUSH1 0x0 DUP1 PUSH1 0x40 DUP4 DUP6 SUB SLT ISZERO PUSH2 0x1BCD JUMPI PUSH1 0x0 DUP1 REVERT JUMPDEST POP POP DUP1 CALLDATALOAD SWAP3 PUSH1 0x20 SWAP1 SWAP2 ADD CALLDATALOAD SWAP2 POP JUMP JUMPDEST DUP1 CALLDATALOAD PUSH1 0xFF DUP2 AND DUP2 EQ PUSH2 0x1B9A JUMPI PUSH1 0x0 DUP1 REVERT JUMPDEST PUSH1 0x0 DUP1 PUSH1 0x40 DUP4 DUP6 SUB SLT ISZERO PUSH2 0x1C00 JUMPI PUSH1 0x0 DUP1 REVERT JUMPDEST DUP3 CALLDATALOAD SWAP2 POP PUSH2 0x1C10 PUSH1 0x20 DUP5 ADD PUSH2 0x1BDC JUMP JUMPDEST SWAP1 POP SWAP3 POP SWAP3 SWAP1 POP JUMP JUMPDEST PUSH1 0x0 DUP1 PUSH1 0x40 DUP4 DUP6 SUB SLT ISZERO PUSH2 0x1C2C JUMPI PUSH1 0x0 DUP1 REVERT JUMPDEST DUP3 CALLDATALOAD PUSH1 0x1 PUSH1 0x1 PUSH1 0x40 SHL SUB DUP2 AND DUP2 EQ PUSH2 0x1C43 JUMPI PUSH1 0x0 DUP1 REVERT JUMPDEST SWAP2 POP PUSH2 0x1C10 PUSH1 0x20 DUP5 ADD PUSH2 0x1BDC JUMP JUMPDEST PUSH1 0x0 DUP1 PUSH1 0x0 PUSH1 0x60 DUP5 DUP7 SUB SLT ISZERO PUSH2 0x1C66 JUMPI PUSH1 0x0 DUP1 REVERT JUMPDEST DUP4 CALLDATALOAD SWAP3 POP PUSH1 0x20 DUP5 ADD CALLDATALOAD SWAP2 POP PUSH2 0x1C7D PUSH1 0x40 DUP6 ADD PUSH2 0x1B84 JUMP JUMPDEST SWAP1 POP SWAP3 POP SWAP3 POP SWAP3 JUMP JUMPDEST PUSH4 0x4E487B71 PUSH1 0xE0 SHL PUSH1 0x0 MSTORE PUSH1 0x11 PUSH1 0x4 MSTORE PUSH1 0x24 PUSH1 0x0 REVERT JUMPDEST PUSH1 0x1 PUSH1 0x1 PUSH1 0x40 SHL SUB DUP2 DUP2 AND DUP4 DUP3 AND MUL DUP1 DUP3 AND SWAP2 SWAP1 DUP3 DUP2 EQ PUSH2 0x1CBF JUMPI PUSH2 0x1CBF PUSH2 0x1C86 JUMP JUMPDEST POP POP SWAP3 SWAP2 POP POP JUMP JUMPDEST PUSH1 0x1 PUSH1 0x1 PUSH1 0x40 SHL SUB DUP3 DUP2 AND DUP3 DUP3 AND SUB SWAP1 DUP1 DUP3 GT ISZERO PUSH2 0x1CE7 JUMPI PUSH2 0x1CE7 PUSH2 0x1C86 JUMP JUMPDEST POP SWAP3 SWAP2 POP POP JUMP JUMPDEST PUSH4 0x4E487B71 PUSH1 0xE0 SHL PUSH1 0x0 MSTORE PUSH1 0x12 PUSH1 0x4 MSTORE PUSH1 0x24 PUSH1 0x0 REVERT JUMPDEST PUSH1 0x0 PUSH1 0x1 PUSH1 0x1 PUSH1 0x40 SHL SUB DUP1 DUP5 AND DUP1 PUSH2 0x1D1E JUMPI PUSH2 0x1D1E PUSH2 0x1CEE JUMP JUMPDEST SWAP3 AND SWAP2 SWAP1 SWAP2 DIV SWAP3 SWAP2 POP POP JUMP JUMPDEST PUSH1 0x1 PUSH1 0x1 PUSH1 0x40 SHL SUB DUP2 DUP2 AND DUP4 DUP3 AND ADD SWAP1 DUP1 DUP3 GT ISZERO PUSH2 0x1CE7 JUMPI PUSH2 0x1CE7 PUSH2 0x1C86 JUMP JUMPDEST PUSH1 0x0 PUSH1 0x20 DUP3 DUP5 SUB SLT ISZERO PUSH2 0x1D5C JUMPI PUSH1 0x0 DUP1 REVERT JUMPDEST DUP2 MLOAD PUSH1 0x1 PUSH1 0x1 PUSH1 0xA0 SHL SUB DUP2 AND DUP2 EQ PUSH2 0x189B JUMPI PUSH1 0x0 DUP1 REVERT JUMPDEST DUP1 DUP3 MUL DUP2 ISZERO DUP3 DUP3 DIV DUP5 EQ OR PUSH2 0xC88 JUMPI PUSH2 0xC88 PUSH2 0x1C86 JUMP JUMPDEST PUSH1 0x0 DUP3 PUSH2 0x1D99 JUMPI PUSH2 0x1D99 PUSH2 0x1CEE JUMP JUMPDEST POP DIV SWAP1 JUMP JUMPDEST PUSH1 0xFF DUP3 DUP2 AND DUP3 DUP3 AND SUB SWAP1 DUP2 GT ISZERO PUSH2 0xC88 JUMPI PUSH2 0xC88 PUSH2 0x1C86 JUMP JUMPDEST PUSH1 0x1 DUP2 DUP2 JUMPDEST DUP1 DUP6 GT ISZERO PUSH2 0x1DF2 JUMPI DUP2 PUSH1 0x0 NOT DIV DUP3 GT ISZERO PUSH2 0x1DD8 JUMPI PUSH2 0x1DD8 PUSH2 0x1C86 JUMP JUMPDEST DUP1 DUP6 AND ISZERO PUSH2 0x1DE5 JUMPI SWAP2 DUP2 MUL SWAP2 JUMPDEST SWAP4 DUP5 SHR SWAP4 SWAP1 DUP1 MUL SWAP1 PUSH2 0x1DBC JUMP JUMPDEST POP SWAP3 POP SWAP3 SWAP1 POP JUMP JUMPDEST PUSH1 0x0 DUP3 PUSH2 0x1E09 JUMPI POP PUSH1 0x1 PUSH2 0xC88 JUMP JUMPDEST DUP2 PUSH2 0x1E16 JUMPI POP PUSH1 0x0 PUSH2 0xC88 JUMP JUMPDEST DUP2 PUSH1 0x1 DUP2 EQ PUSH2 0x1E2C JUMPI PUSH1 0x2 DUP2 EQ PUSH2 0x1E36 JUMPI PUSH2 0x1E52 JUMP JUMPDEST PUSH1 0x1 SWAP2 POP POP PUSH2 0xC88 JUMP JUMPDEST PUSH1 0xFF DUP5 GT ISZERO PUSH2 0x1E47 JUMPI PUSH2 0x1E47 PUSH2 0x1C86 JUMP JUMPDEST POP POP PUSH1 0x1 DUP3 SHL PUSH2 0xC88 JUMP JUMPDEST POP PUSH1 0x20 DUP4 LT PUSH2 0x133 DUP4 LT AND PUSH1 0x4E DUP5 LT PUSH1 0xB DUP5 LT AND OR ISZERO PUSH2 0x1E75 JUMPI POP DUP2 DUP2 EXP PUSH2 0xC88 JUMP JUMPDEST PUSH2 0x1E7F DUP4 DUP4 PUSH2 0x1DB7 JUMP JUMPDEST DUP1 PUSH1 0x0 NOT DIV DUP3 GT ISZERO PUSH2 0x1E93 JUMPI PUSH2 0x1E93 PUSH2 0x1C86 JUMP JUMPDEST MUL SWAP4 SWAP3 POP POP POP JUMP JUMPDEST PUSH1 0x0 PUSH2 0xC85 PUSH1 0xFF DUP5 AND DUP4 PUSH2 0x1DFA JUMP JUMPDEST PUSH1 0x0 PUSH6 0xFFFFFFFFFFFF DUP1 DUP4 AND DUP2 DUP2 SUB PUSH2 0x1EC5 JUMPI PUSH2 0x1EC5 PUSH2 0x1C86 JUMP JUMPDEST PUSH1 0x1 ADD SWAP4 SWAP3 POP POP POP JUMP JUMPDEST PUSH1 0x0 DUP3 MLOAD PUSH1 0x0 JUMPDEST DUP2 DUP2 LT ISZERO PUSH2 0x1EF0 JUMPI PUSH1 0x20 DUP2 DUP7 ADD DUP2 ADD MLOAD DUP6 DUP4 ADD MSTORE ADD PUSH2 0x1ED6 JUMP JUMPDEST POP PUSH1 0x0 SWAP3 ADD SWAP2 DUP3 MSTORE POP SWAP2 SWAP1 POP JUMP JUMPDEST PUSH1 0x0 PUSH1 0x20 DUP3 DUP5 SUB SLT ISZERO PUSH2 0x1F10 JUMPI PUSH1 0x0 DUP1 REVERT JUMPDEST DUP2 MLOAD DUP1 ISZERO ISZERO DUP2 EQ PUSH2 0x189B JUMPI PUSH1 0x0 DUP1 REVERT INVALID LOG2 PUSH5 0x6970667358 0x22 SLT KECCAK256 EQ 0x2D 0xF9 0xAD JUMP PREVRANDAO MSIZE EXP LOG4 0xB4 0x22 0xC4 0xE7 0x4E 0xF9 0xBB 0x4C DUP4 LT 0x2A SWAP3 TIMESTAMP 0xE4 BYTE 0x4F PUSH24 0x5C25F2602E8264736F6C6343000818003300000000000000 "},"methodIdentifiers":{"count()":"06661abd","factory()":"c45a0155","fee()":"ddca3f43","from6Decimals(uint64,uint8)":"af778f2d","getOrder(uint48)":"7ce219aa","makeOrder(uint256,uint256,uint48)":"e5434843","orders(uint48)":"2784e815","takeOrder(uint256,uint256)":"2eab93cb","to6Decimals(uint256,uint8)":"6c62ed8e","token0()":"0dfe1681","token0Decimals()":"b31ac6e2","token1()":"d21220a7","token1Decimals()":"0b77884d","topOrderId()":"99a3bd23"}}}}}