{"contracts/MarsFactory.sol":{"MarsFactory":{"abi":[{"inputs":[],"stateMutability":"nonpayable","type":"constructor"},{"anonymous":false,"inputs":[{"indexed":true,"internalType":"address","name":"token0","type":"address"},{"indexed":true,"internalType":"address","name":"token1","type":"address"},{"indexed":false,"internalType":"address","name":"pair","type":"address"}],"name":"PairCreated","type":"event"},{"inputs":[{"internalType":"address","name":"token0","type":"address"},{"internalType":"address","name":"token1","type":"address"}],"name":"computePairAddr","outputs":[{"internalType":"address","name":"","type":"address"}],"stateMutability":"view","type":"function"},{"inputs":[{"internalType":"address","name":"token0","type":"address"},{"internalType":"address","name":"token1","type":"address"}],"name":"createPair","outputs":[{"internalType":"address","name":"pairAddr","type":"address"}],"stateMutability":"nonpayable","type":"function"},{"inputs":[],"name":"fee","outputs":[{"internalType":"uint8","name":"","type":"uint8"}],"stateMutability":"view","type":"function"},{"inputs":[],"name":"feeTo","outputs":[{"internalType":"address","name":"","type":"address"}],"stateMutability":"view","type":"function"},{"inputs":[{"internalType":"address","name":"","type":"address"}],"name":"hasPair","outputs":[{"internalType":"bool","name":"","type":"bool"}],"stateMutability":"view","type":"function"}],"evm":{"bytecode":{"linkReferences":{},"object":"60a060405234801561001057600080fd5b503360805260805161395261003d600039600081816061015281816101a501526103fa01526139526000f3fe608060405234801561001057600080fd5b50600436106100575760003560e01c8063017e7e581461005c5780633bd07d27146100a0578063591712af146100b3578063c9c65396146100e6578063ddca3f43146100f9575b600080fd5b6100837f000000000000000000000000000000000000000000000000000000000000000081565b6040516001600160a01b0390911681526020015b60405180910390f35b6100836100ae366004610507565b610113565b6100d66100c136600461053a565b60006020819052908152604090205460ff1681565b6040519015158152602001610097565b6100836100f4366004610507565b610264565b610101606481565b60405160ff9091168152602001610097565b6040516001600160601b0319606084811b8216602084015283901b1660348201526000908190604801604051602081830303815290604052805190602001209050600060ff60f81b30836040518060200161016d906104de565b601f1982820381018352601f9091011660408181526001600160a01b038b811660208401528a811691830191909152606460608301527f000000000000000000000000000000000000000000000000000000000000000016608082015260a00160408051601f19818403018152908290526101eb929160200161058c565b6040516020818303038152906040528051906020012060405160200161024394939291906001600160f81b031994909416845260609290921b6001600160601b03191660018401526015830152603582015260550190565b60408051808303601f19018152919052805160209091012095945050505050565b6000816001600160a01b0316836001600160a01b0316036102c25760405162461bcd60e51b81526020600482015260136024820152724944454e544943414c5f41444452455353455360681b60448201526064015b60405180910390fd5b6001600160a01b0383166103075760405162461bcd60e51b815260206004820152600c60248201526b5a45524f5f4144445245535360a01b60448201526064016102b9565b6001600160a01b03821661034c5760405162461bcd60e51b815260206004820152600c60248201526b5a45524f5f4144445245535360a01b60448201526064016102b9565b60006103588484610113565b6001600160a01b03811660009081526020819052604090205490915060ff16156103b25760405162461bcd60e51b815260206004820152600b60248201526a504149525f45584953545360a81b60448201526064016102b9565b6040516001600160601b0319606086811b8216602084015285901b166034820152600090604801604051602081830303815290604052805190602001209050600081868660647f0000000000000000000000000000000000000000000000000000000000000000604051610425906104de565b6001600160a01b039485168152928416602084015260ff90911660408301529190911660608201526080018190604051809103906000f5905080158015610470573d6000803e3d6000fd5b506001600160a01b0381811660008181526020818152604091829020805460ff19166001179055905191825292965086935087821692918916917fa92a2b95c8d8436f6ac4c673c61487364f877efb9534d4296fad8ef904546c94910160405180910390a350505092915050565b613373806105aa83390190565b80356001600160a01b038116811461050257600080fd5b919050565b6000806040838503121561051a57600080fd5b610523836104eb565b9150610531602084016104eb565b90509250929050565b60006020828403121561054c57600080fd5b610555826104eb565b9392505050565b6000815160005b8181101561057d5760208185018101518683015201610563565b50600093019283525090919050565b60006105a161059b838661055c565b8461055c565b94935050505056fe6101006040526000805465ffffffffffff191690553480156200002157600080fd5b506040516200337338038062003373833981016040819052620000449162000085565b6001600160a01b0393841660805291831660a05260ff1660c0521660e052620000e9565b80516001600160a01b03811681146200008057600080fd5b919050565b600080600080608085870312156200009c57600080fd5b620000a78562000068565b9350620000b76020860162000068565b9250604085015160ff81168114620000ce57600080fd5b9150620000de6060860162000068565b905092959194509250565b60805160a05160c05160e0516131b6620001bd6000396000818161013601528181611518015281816115ce01528181611d940152611e4a01526000818161057f015281816115470152611dc301526000818161041c0152818161076101528181611098015281816112b90152818161143b0152818161159f0152818161167901528181611f9f01526121420152600081816101b6015281816117230152818161190201528181611b3501528181611cb701528181611e1b01528181611ef5015281816123c6015261253501526131b66000f3fe608060405234801561001057600080fd5b506004361061012c5760003560e01c8063a1cca87e116100ad578063d44ca7af11610071578063d44ca7af1461043e578063d7d99b0b14610507578063ddca3f431461057a578063e5c274bc146105b3578063f02d8fae1461067f57600080fd5b8063a1cca87e1461029d578063ae445bac146102b0578063bfe1363e146103f2578063c4ccb40a14610405578063d21220a71461041757600080fd5b806358c0c530116100f457806358c0c53014610215578063596afb4d1461022a57806367d301f91461023d5780637c33e99a14610268578063943525de1461027a57600080fd5b8063017e7e581461013157806306661abd146101755780630a1926201461019e5780630dfe1681146101b15780634bb43f28146101d8575b600080fd5b6101587f000000000000000000000000000000000000000000000000000000000000000081565b6040516001600160a01b0390911681526020015b60405180910390f35b6000546101879065ffffffffffff1681565b60405165ffffffffffff909116815260200161016c565b6101876101ac366004612eb6565b610692565b6101587f000000000000000000000000000000000000000000000000000000000000000081565b6101eb6101e6366004612ef9565b611018565b604080516001600160701b039485168152928416602084015292169181019190915260600161016c565b610228610223366004612f2c565b6117a3565b005b6101eb610238366004612ef9565b611896565b61025061024b366004612f6f565b611fd6565b6040516001600160701b03909116815260200161016c565b6004546101879065ffffffffffff1681565b61028d610288366004612f6f565b6121b9565b604051901515815260200161016c565b6102506102ab366004612f6f565b61225a565b61037d6102be366004612f6f565b6040805160c081018252600080825260208201819052918101829052606081018290526080810182905260a08101919091525065ffffffffffff908116600090815260036020908152604091829020825160c08101845281548086168252600160301b810490951692810192909252600160601b9093046001600160a01b0316918101919091526001909101546001600160701b038082166060840152600160701b8204166080830152600160e01b900463ffffffff1660a082015290565b60405161016c9190600060c08201905065ffffffffffff8084511683528060208501511660208401525060018060a01b03604084015116604083015260608301516001600160701b038082166060850152806080860151166080850152505063ffffffff60a08401511660a083015292915050565b610228610400366004612f2c565b6123f5565b6002546101879065ffffffffffff1681565b6101587f000000000000000000000000000000000000000000000000000000000000000081565b6104b161044c366004612f6f565b6001602081905260009182526040909120805491015465ffffffffffff80831692600160301b810490911691600160601b9091046001600160a01b0316906001600160701b0380821691600160701b810490911690600160e01b900463ffffffff1686565b6040805165ffffffffffff97881681529690951660208701526001600160a01b03909316938501939093526001600160701b039081166060850152909116608083015263ffffffff1660a082015260c00161016c565b6104b1610515366004612f6f565b6003602052600090815260409020805460019091015465ffffffffffff80831692600160301b810490911691600160601b9091046001600160a01b0316906001600160701b0380821691600160701b810490911690600160e01b900463ffffffff1686565b6105a17f000000000000000000000000000000000000000000000000000000000000000081565b60405160ff909116815260200161016c565b61037d6105c1366004612f6f565b6040805160c081018252600080825260208201819052918101829052606081018290526080810182905260a08101919091525065ffffffffffff908116600090815260016020818152604092839020835160c08101855281548087168252600160301b810490961692810192909252600160601b9094046001600160a01b03169281019290925291909101546001600160701b038082166060840152600160701b8204166080830152600160e01b900463ffffffff1660a082015290565b61018761068d366004612eb6565b61246b565b600080846001600160701b0316116106f15760405162461bcd60e51b815260206004820152601b60248201527f746f6b656e31496e20616d6f756e742063616e6e6f742062652030000000000060448201526064015b60405180910390fd5b6000836001600160701b03161161074a5760405162461bcd60e51b815260206004820152601c60248201527f746f6b656e304f757420616d6f756e742063616e6e6f7420626520300000000060448201526064016106e8565b6040516323b872dd60e01b81526001600160a01b037f000000000000000000000000000000000000000000000000000000000000000016906323b872dd906107a390339030906001600160701b038a1690600401612f8a565b6020604051808303816000875af11580156107c2573d6000803e3d6000fd5b505050506040513d601f19601f820116820180604052508101906107e69190612fae565b506000805481906107fe9065ffffffffffff16612fe6565b82546101009290920a65ffffffffffff8181021990931691831602179091556002541660000361092c57506040805160c08101825260008082526020808301828152338486019081526001600160701b03808a16606087019081528982166080880190815260a08801878152875465ffffffffffff908116895260019788905299882098518954965195516001600160a01b0316600160601b026001600160601b03968c16600160301b026001600160601b0319909816918c16919091179690961794909416949094178755519590930180549251915163ffffffff16600160e01b026001600160e01b03928516600160701b026001600160e01b03199094169690941695909517919091171617909155546002805465ffffffffffff191691909216908117909155611011565b8165ffffffffffff16600003610afa5760025465ffffffffffff16600090815260016020819052604090912090810154610972906001600160701b03808716911661300b565b6001820154610994906001600160701b0380891691600160701b90041661300b565b116109e15760405162461bcd60e51b815260206004820152601a60248201527f796f7572207072696365206d757374203e20746f704f7264657200000000000060448201526064016106e8565b60008054825465ffffffffffff1990811665ffffffffffff928316179093556040805160c0810182528381526002805484166020808401918252338486019081526001600160701b03808e16606087019081528d82166080880190815260a088018b81528b548b168c52600195869052988b2097518854965194516001600160a01b0316600160601b026001600160601b03958c16600160301b026001600160601b0319909816918c1691909117969096179390931694909417865592519490910180549151955163ffffffff16600160e01b026001600160e01b03968416600160701b026001600160e01b03199093169590931694909417179390931692909217905591548254909316921691821790559050611011565b65ffffffffffff8216600090815260016020819052604082209081015490916001600160701b039091169003610b6d5760405162461bcd60e51b81526020600482015260186024820152771899599bdc9953dc99195c881a5cc81b9bdd08195e1a5cdd60421b60448201526064016106e8565b805465ffffffffffff1665fffffffffffe1901610bcc5760405162461bcd60e51b815260206004820152601c60248201527f6265666f72654f726465722069732072656d6f76656428646f6e65290000000060448201526064016106e8565b6001810154610be7906001600160701b03808716911661300b565b6001820154610c09906001600160701b0380891691600160701b90041661300b565b1115610c575760405162461bcd60e51b815260206004820152601e60248201527f796f7572207072696365206d757374203c3d206265666f72654f72646572000060448201526064016106e8565b8054600160301b900465ffffffffffff16600003610d7f57600080548254600160301b65ffffffffffff928316810265ffffffffffff60301b19909216919091179093556040805160c08101825286831681526020808201858152338385019081526001600160701b03808d16606086019081528c82166080870190815260a087018a81528a548a168b52600196879052978a2096518754955194516001600160a01b0316600160601b026001600160601b03958b16909c026001600160601b0319909616908a16179490941792909216989098178455519290910180549151935163ffffffff16600160e01b026001600160e01b03948816600160701b026001600160e01b0319909316939097169290921717919091169390931790925554169050611011565b8054600160301b900465ffffffffffff16600090815260016020819052604082209081015490916001600160701b039091169003610df95760405162461bcd60e51b815260206004820152601760248201527618599d195c93dc99195c881a5cc81b9bdd08195e1a5cdd604a1b60448201526064016106e8565b805465ffffffffffff1665fffffffffffe1901610e585760405162461bcd60e51b815260206004820152601b60248201527f61667465724f726465722069732072656d6f76656428646f6e6529000000000060448201526064016106e8565b6001810154610e73906001600160701b03808816911661300b565b6001820154610e95906001600160701b03808a1691600160701b90041661300b565b11610ee25760405162461bcd60e51b815260206004820152601c60248201527f796f7572207072696365206d757374203e2061667465724f726465720000000060448201526064016106e8565b6040805160c08101825265ffffffffffff80871682528454600160301b9081900482166020808501918252338587019081526001600160701b03808e16606088019081528d821660808901908152600060a08a0181815281548a1682526001968790529a812099518a54975195516001600160a01b0316600160601b026001600160601b03968b168a026001600160601b0319909916918b16919091179790971794909416959095178855519690920180549351975163ffffffff16600160e01b026001600160e01b03988416600160701b026001600160e01b031990951697909316969096179290921795909516949094179092558254855490821690920265ffffffffffff60301b1992909216919091179093558054825465ffffffffffff191690841617909155541690505b9392505050565b6004546000908190819065ffffffffffff16810361106e5760405162461bcd60e51b815260206004820152601360248201527273656c6c4f726465727320697320656d70747960681b60448201526064016106e8565b6040516323b872dd60e01b81523360048201523060248201526001600160701b03861660448201527f00000000000000000000000000000000000000000000000000000000000000006001600160a01b0316906323b872dd906064016020604051808303816000875af11580156110e9573d6000803e3d6000fd5b505050506040513d601f19601f8201168201806040525081019061110d9190612fae565b50845b60045465ffffffffffff16156114be5760045465ffffffffffff166000908152600360205260409020600181015461115c906001600160701b03600160701b909104811690881661300b565b6001820154611178906001600160701b03908116908a1661300b565b101561118457506114be565b600181015460009063ffffffff906111af906001600160701b03811690600160e01b9004831661300b565b6111b9919061303e565b60018301549091506000906001600160701b03808216916111e691600160701b909104811690851661300b565b6111f0919061303e565b600184015461120f9190600160701b90046001600160701b0316613052565b9050806001600160701b0316846001600160701b03161061135d576112348185613052565b60018401549094506112509083906001600160701b0316613052565b61125a9087613079565b9550611267836003612dec565b6001830180546001600160e01b03166001600160e01b0319179055825460405163a9059cbb60e01b81526001600160a01b03600160601b909204821660048201526001600160701b03831660248201527f00000000000000000000000000000000000000000000000000000000000000009091169063a9059cbb906044016020604051808303816000875af1158015611304573d6000803e3d6000fd5b505050506040513d601f19601f820116820180604052508101906113289190612fae565b50825465ffffffffffff1990811665ffffffffffff90811780865560048054909316600160301b9091049091161790556114b6565b60018301546000906001600160701b03600160701b82048116916113869190811690881661300b565b611390919061303e565b905061139c8188613079565b96506113a88184613079565b60018501549093506001600160701b03166113c763ffffffff85613099565b6113d191906130c4565b6113dc9060016130ea565b6001850180546001600160e01b0316600160e01b63ffffffff9390931692909202919091179055835460405163a9059cbb60e01b8152600160601b9091046001600160a01b0390811660048301526001600160701b03871660248301527f0000000000000000000000000000000000000000000000000000000000000000169063a9059cbb906044016020604051808303816000875af1158015611484573d6000803e3d6000fd5b505050506040513d601f19601f820116820180604052508101906114a89190612fae565b5060009450505050506114be565b505050611110565b6114c88187613052565b93506000846001600160701b03161161150d5760405162461bcd60e51b81526020600482015260076024820152661b9bc81919585b60ca1b60448201526064016106e8565b336001600160a01b037f000000000000000000000000000000000000000000000000000000000000000016146116465761271061156d60ff7f00000000000000000000000000000000000000000000000000000000000000001686613099565b61157791906130c4565b91506001600160701b03821615611646576040516323b872dd60e01b81526001600160a01b037f000000000000000000000000000000000000000000000000000000000000000016906323b872dd906116019033907f0000000000000000000000000000000000000000000000000000000000000000906001600160701b03881690600401612f8a565b6020604051808303816000875af1158015611620573d6000803e3d6000fd5b505050506040513d601f19601f820116820180604052508101906116449190612fae565b505b6001600160701b038116156116f05760405163a9059cbb60e01b81523360048201526001600160701b03821660248201527f00000000000000000000000000000000000000000000000000000000000000006001600160a01b03169063a9059cbb906044016020604051808303816000875af11580156116ca573d6000803e3d6000fd5b505050506040513d601f19601f820116820180604052508101906116ee9190612fae565b505b6001600160701b0383161561179b5760405163a9059cbb60e01b81523360048201526001600160701b03841660248201527f00000000000000000000000000000000000000000000000000000000000000006001600160a01b03169063a9059cbb906044015b6020604051808303816000875af1158015611775573d6000803e3d6000fd5b505050506040513d601f19601f820116820180604052508101906117999190612fae565b505b509250925092565b65ffffffffffff821660009081526001602052604090208054600160601b90046001600160a01b031633146117ea5760405162461bcd60e51b81526004016106e890613107565b805465ffffffffffff1665fffffffffffe19016118195760405162461bcd60e51b81526004016106e89061313e565b6001600160a01b03821661186f5760405162461bcd60e51b815260206004820152601c60248201527f6e65774f776e65722063616e277420626520616464726573732830290000000060448201526064016106e8565b80546001600160a01b03909216600160601b026001600160601b0390921691909117905550565b6002546000908190819065ffffffffffff1681036118eb5760405162461bcd60e51b81526020600482015260126024820152716275794f726465727320697320656d70747960701b60448201526064016106e8565b6040516323b872dd60e01b81526001600160a01b037f000000000000000000000000000000000000000000000000000000000000000016906323b872dd9061194490339030906001600160701b038b1690600401612f8a565b6020604051808303816000875af1158015611963573d6000803e3d6000fd5b505050506040513d601f19601f820116820180604052508101906119879190612fae565b50845b60025465ffffffffffff1615611d3a5760025465ffffffffffff166000908152600160208190526040909120908101546119d8906001600160701b03600160701b909104811690881661300b565b60018201546119f4906001600160701b03908116908a1661300b565b1015611a005750611d3a565b600181015460009063ffffffff90611a2b906001600160701b03811690600160e01b9004831661300b565b611a35919061303e565b60018301549091506000906001600160701b0380821691611a6291600160701b909104811690851661300b565b611a6c919061303e565b6001840154611a8b9190600160701b90046001600160701b0316613052565b9050806001600160701b0316846001600160701b031610611bd957611ab08185613052565b6001840154909450611acc9083906001600160701b0316613052565b611ad69087613079565b9550611ae3836001612dec565b6001830180546001600160e01b03166001600160e01b0319179055825460405163a9059cbb60e01b81526001600160a01b03600160601b909204821660048201526001600160701b03831660248201527f00000000000000000000000000000000000000000000000000000000000000009091169063a9059cbb906044016020604051808303816000875af1158015611b80573d6000803e3d6000fd5b505050506040513d601f19601f82011682018060405250810190611ba49190612fae565b50825465ffffffffffff1990811665ffffffffffff90811780865560028054909316600160301b909104909116179055611d32565b60018301546000906001600160701b03600160701b8204811691611c029190811690881661300b565b611c0c919061303e565b9050611c188188613079565b9650611c248184613079565b60018501549093506001600160701b0316611c4363ffffffff85613099565b611c4d91906130c4565b611c589060016130ea565b6001850180546001600160e01b0316600160e01b63ffffffff9390931692909202919091179055835460405163a9059cbb60e01b8152600160601b9091046001600160a01b0390811660048301526001600160701b03871660248301527f0000000000000000000000000000000000000000000000000000000000000000169063a9059cbb906044016020604051808303816000875af1158015611d00573d6000803e3d6000fd5b505050506040513d601f19601f82011682018060405250810190611d249190612fae565b506000945050505050611d3a565b50505061198a565b611d448187613052565b93506000846001600160701b031611611d895760405162461bcd60e51b81526020600482015260076024820152661b9bc81919585b60ca1b60448201526064016106e8565b336001600160a01b037f00000000000000000000000000000000000000000000000000000000000000001614611ec257612710611de960ff7f00000000000000000000000000000000000000000000000000000000000000001686613099565b611df391906130c4565b91506001600160701b03821615611ec2576040516323b872dd60e01b81526001600160a01b037f000000000000000000000000000000000000000000000000000000000000000016906323b872dd90611e7d9033907f0000000000000000000000000000000000000000000000000000000000000000906001600160701b03881690600401612f8a565b6020604051808303816000875af1158015611e9c573d6000803e3d6000fd5b505050506040513d601f19601f82011682018060405250810190611ec09190612fae565b505b6001600160701b03811615611f6c5760405163a9059cbb60e01b81523360048201526001600160701b03821660248201527f00000000000000000000000000000000000000000000000000000000000000006001600160a01b03169063a9059cbb906044016020604051808303816000875af1158015611f46573d6000803e3d6000fd5b505050506040513d601f19601f82011682018060405250810190611f6a9190612fae565b505b6001600160701b0383161561179b5760405163a9059cbb60e01b81523360048201526001600160701b03841660248201527f00000000000000000000000000000000000000000000000000000000000000006001600160a01b03169063a9059cbb90604401611756565b65ffffffffffff811660009081526001602052604081208054600160601b90046001600160a01b0316331461201d5760405162461bcd60e51b81526004016106e890613107565b805465ffffffffffff1665fffffffffffe190161204c5760405162461bcd60e51b81526004016106e89061313e565b612057816001612dec565b60025465ffffffffffff80851691160361209357805460028054600160301b90920465ffffffffffff1665ffffffffffff199092169190911790555b805465ffffffffffff191665ffffffffffff178155600181015460009063ffffffff906120d3906001600160701b03811690600160e01b9004831661300b565b6120dd919061303e565b60018301549091506120f99082906001600160701b0316613052565b92506001600160701b038316156121b257815460405163a9059cbb60e01b8152600160601b9091046001600160a01b0390811660048301526001600160701b03851660248301527f0000000000000000000000000000000000000000000000000000000000000000169063a9059cbb906044015b6020604051808303816000875af115801561218c573d6000803e3d6000fd5b505050506040513d601f19601f820116820180604052508101906121b09190612fae565b505b5050919050565b65ffffffffffff81166000908152600160208190526040822001546001600160701b0316156121ea57506001919050565b65ffffffffffff82166000908152600360205260409020600101546001600160701b03161561221b57506000919050565b60405162461bcd60e51b815260206004820152601460248201527334b9a13abc9d1037b93232b924b21032b93937b960611b60448201526064016106e8565b65ffffffffffff811660009081526003602052604081208054600160601b90046001600160a01b031633146122a15760405162461bcd60e51b81526004016106e890613107565b805465ffffffffffff1665fffffffffffe19016122d05760405162461bcd60e51b81526004016106e89061313e565b6122db816003612dec565b60045465ffffffffffff80851691160361231757805460048054600160301b90920465ffffffffffff1665ffffffffffff199092169190911790555b805465ffffffffffff191665ffffffffffff178155600181015460009063ffffffff90612357906001600160701b03811690600160e01b9004831661300b565b612361919061303e565b600183015490915061237d9082906001600160701b0316613052565b92506001600160701b038316156121b257815460405163a9059cbb60e01b8152600160601b9091046001600160a01b0390811660048301526001600160701b03851660248301527f0000000000000000000000000000000000000000000000000000000000000000169063a9059cbb9060440161216d565b65ffffffffffff821660009081526003602052604090208054600160601b90046001600160a01b0316331461243c5760405162461bcd60e51b81526004016106e890613107565b805465ffffffffffff1665fffffffffffe190161186f5760405162461bcd60e51b81526004016106e89061313e565b600080846001600160701b0316116124c55760405162461bcd60e51b815260206004820152601b60248201527f746f6b656e30496e20616d6f756e742063616e6e6f742062652030000000000060448201526064016106e8565b6000836001600160701b03161161251e5760405162461bcd60e51b815260206004820152601c60248201527f746f6b656e314f757420616d6f756e742063616e6e6f7420626520300000000060448201526064016106e8565b6040516323b872dd60e01b81526001600160a01b037f000000000000000000000000000000000000000000000000000000000000000016906323b872dd9061257790339030906001600160701b038a1690600401612f8a565b6020604051808303816000875af1158015612596573d6000803e3d6000fd5b505050506040513d601f19601f820116820180604052508101906125ba9190612fae565b506000805481906125d29065ffffffffffff16612fe6565b82546101009290920a65ffffffffffff8181021990931691831602179091556004541660000361270557506040805160c08101825260008082526020808301828152338486019081526001600160701b03808a16606087019081528982166080880190815260a08801878152875465ffffffffffff9081168952600390975298872097518854955194516001600160a01b0316600160601b026001600160601b03958816600160301b026001600160601b0319909716918816919091179590951793909316939093178655915160019590950180549151965163ffffffff16600160e01b026001600160e01b03978416600160701b026001600160e01b03199093169690931695909517179490941693909317909155546004805465ffffffffffff191691909216908117909155611011565b8165ffffffffffff166000036128d45760045465ffffffffffff1660009081526003602052604090206001810154612749906001600160701b03808716911661300b565b600182015461276b906001600160701b0380891691600160701b90041661300b565b116127b85760405162461bcd60e51b815260206004820152601a60248201527f796f7572207072696365206d757374203c20746f704f7264657200000000000060448201526064016106e8565b60008054825465ffffffffffff1990811665ffffffffffff928316179093556040805160c0810182528381526004805484166020808401918252338486019081526001600160701b03808e16606087019081528d82166080880190815260a088018b81528b548b168c526003909552978a2096518754955193516001600160a01b0316600160601b026001600160601b03948b16600160301b026001600160601b0319909716918b169190911795909517929092169390931785555160019490940180549551915163ffffffff16600160e01b026001600160e01b03928416600160701b026001600160e01b03199097169590931694909417949094179390931692909217905591548254909316921691821790559050611011565b65ffffffffffff82166000908152600360205260408120600181015490916001600160701b0390911690036129465760405162461bcd60e51b81526020600482015260186024820152771899599bdc9953dc99195c881a5cc81b9bdd08195e1a5cdd60421b60448201526064016106e8565b805465ffffffffffff1665fffffffffffe19016129a55760405162461bcd60e51b815260206004820152601c60248201527f6265666f72654f726465722069732072656d6f76656428646f6e65290000000060448201526064016106e8565b60018101546129c0906001600160701b03808716911661300b565b60018201546129e2906001600160701b0380891691600160701b90041661300b565b1115612a305760405162461bcd60e51b815260206004820152601e60248201527f796f7572207072696365206d757374203e3d206265666f72654f72646572000060448201526064016106e8565b8054600160301b900465ffffffffffff16600003612b5c57600080548254600160301b65ffffffffffff928316810265ffffffffffff60301b19909216919091179093556040805160c08101825286831681526020808201858152338385019081526001600160701b03808d16606086019081528c82166080870190815260a087018a81528a548a168b52600390965296892095518654945193516001600160a01b0316600160601b026001600160601b03948a16909b026001600160601b03199095169089161793909317919091169790971783555160019290920180549351915163ffffffff16600160e01b026001600160e01b03928816600160701b026001600160e01b0319909516939097169290921792909217919091169390931790925554169050611011565b8054600160301b900465ffffffffffff166000908152600360205260408120600181015490916001600160701b039091169003612bd55760405162461bcd60e51b815260206004820152601760248201527618599d195c93dc99195c881a5cc81b9bdd08195e1a5cdd604a1b60448201526064016106e8565b805465ffffffffffff1665fffffffffffe1901612c345760405162461bcd60e51b815260206004820152601b60248201527f61667465724f726465722069732072656d6f76656428646f6e6529000000000060448201526064016106e8565b6001810154612c4f906001600160701b03808816911661300b565b6001820154612c71906001600160701b03808a1691600160701b90041661300b565b11612cbe5760405162461bcd60e51b815260206004820152601c60248201527f796f7572207072696365206d757374203c2061667465724f726465720000000060448201526064016106e8565b6040805160c08101825265ffffffffffff80871682528454600160301b9081900482166020808501918252338587019081526001600160701b03808e16606088019081528d821660808901908152600060a08a0181815281548a1682526003909652998a2098518954965194516001600160a01b0316600160601b026001600160601b03958a1689026001600160601b0319909816918a16919091179690961793909316949094178755925160019690960180549151925163ffffffff16600160e01b026001600160e01b03938516600160701b026001600160e01b031990931697909416969096171716179092558254855490821690920265ffffffffffff60301b1992909216919091179093558054825465ffffffffffff191690841617909155541690509392505050565b815465ffffffffffff1615612e3657815465ffffffffffff8082166000908152602084905260409020805465ffffffffffff60301b1916600160301b938490049092169092021790555b8154600160301b900465ffffffffffff1615612e80578154600160301b810465ffffffffffff9081166000908152602084905260409020805465ffffffffffff1916919092161790555b5050565b80356001600160701b0381168114612e9b57600080fd5b919050565b803565ffffffffffff81168114612e9b57600080fd5b600080600060608486031215612ecb57600080fd5b612ed484612e84565b9250612ee260208501612e84565b9150612ef060408501612ea0565b90509250925092565b60008060408385031215612f0c57600080fd5b612f1583612e84565b9150612f2360208401612e84565b90509250929050565b60008060408385031215612f3f57600080fd5b612f4883612ea0565b915060208301356001600160a01b0381168114612f6457600080fd5b809150509250929050565b600060208284031215612f8157600080fd5b61101182612ea0565b6001600160a01b039384168152919092166020820152604081019190915260600190565b600060208284031215612fc057600080fd5b8151801515811461101157600080fd5b634e487b7160e01b600052601160045260246000fd5b600065ffffffffffff80831681810361300157613001612fd0565b6001019392505050565b808202811582820484141761302257613022612fd0565b92915050565b634e487b7160e01b600052601260045260246000fd5b60008261304d5761304d613028565b500490565b6001600160701b0382811682821603908082111561307257613072612fd0565b5092915050565b6001600160701b0381811683821601908082111561307257613072612fd0565b6001600160701b038181168382160280821691908281146130bc576130bc612fd0565b505092915050565b60006001600160701b03808416806130de576130de613028565b92169190910492915050565b63ffffffff81811683821601908082111561307257613072612fd0565b6020808252601e908201527f796f7520617265206e6f74206f776e6572206f6620746865206f726465720000604082015260600190565b60208082526022908201527f746865206f7264657220697320616c72656164792072656d6f76656428646f6e604082015261652960f01b60608201526080019056fea26469706673582212204fa240d7fa436d65954ea4dba1f8666f363bc66ab2bf425de30f0076531fcaee64736f6c63430008180033a2646970667358221220ce75ba8e055e5be1847df3f5614d321ef05c8aa6978b72eaf65c1d89554c323764736f6c63430008180033","opcodes":"PUSH1 0xA0 PUSH1 0x40 MSTORE CALLVALUE DUP1 ISZERO PUSH2 0x10 JUMPI PUSH1 0x0 DUP1 REVERT JUMPDEST POP CALLER PUSH1 0x80 MSTORE PUSH1 0x80 MLOAD PUSH2 0x3952 PUSH2 0x3D PUSH1 0x0 CODECOPY PUSH1 0x0 DUP2 DUP2 PUSH1 0x61 ADD MSTORE DUP2 DUP2 PUSH2 0x1A5 ADD MSTORE PUSH2 0x3FA ADD MSTORE PUSH2 0x3952 PUSH1 0x0 RETURN INVALID PUSH1 0x80 PUSH1 0x40 MSTORE CALLVALUE DUP1 ISZERO PUSH2 0x10 JUMPI PUSH1 0x0 DUP1 REVERT JUMPDEST POP PUSH1 0x4 CALLDATASIZE LT PUSH2 0x57 JUMPI PUSH1 0x0 CALLDATALOAD PUSH1 0xE0 SHR DUP1 PUSH4 0x17E7E58 EQ PUSH2 0x5C JUMPI DUP1 PUSH4 0x3BD07D27 EQ PUSH2 0xA0 JUMPI DUP1 PUSH4 0x591712AF EQ PUSH2 0xB3 JUMPI DUP1 PUSH4 0xC9C65396 EQ PUSH2 0xE6 JUMPI DUP1 PUSH4 0xDDCA3F43 EQ PUSH2 0xF9 JUMPI JUMPDEST PUSH1 0x0 DUP1 REVERT JUMPDEST PUSH2 0x83 PUSH32 0x0 DUP2 JUMP JUMPDEST PUSH1 0x40 MLOAD PUSH1 0x1 PUSH1 0x1 PUSH1 0xA0 SHL SUB SWAP1 SWAP2 AND DUP2 MSTORE PUSH1 0x20 ADD JUMPDEST PUSH1 0x40 MLOAD DUP1 SWAP2 SUB SWAP1 RETURN JUMPDEST PUSH2 0x83 PUSH2 0xAE CALLDATASIZE PUSH1 0x4 PUSH2 0x507 JUMP JUMPDEST PUSH2 0x113 JUMP JUMPDEST PUSH2 0xD6 PUSH2 0xC1 CALLDATASIZE PUSH1 0x4 PUSH2 0x53A JUMP JUMPDEST PUSH1 0x0 PUSH1 0x20 DUP2 SWAP1 MSTORE SWAP1 DUP2 MSTORE PUSH1 0x40 SWAP1 KECCAK256 SLOAD PUSH1 0xFF AND DUP2 JUMP JUMPDEST PUSH1 0x40 MLOAD SWAP1 ISZERO ISZERO DUP2 MSTORE PUSH1 0x20 ADD PUSH2 0x97 JUMP JUMPDEST PUSH2 0x83 PUSH2 0xF4 CALLDATASIZE PUSH1 0x4 PUSH2 0x507 JUMP JUMPDEST PUSH2 0x264 JUMP JUMPDEST PUSH2 0x101 PUSH1 0x64 DUP2 JUMP JUMPDEST PUSH1 0x40 MLOAD PUSH1 0xFF SWAP1 SWAP2 AND DUP2 MSTORE PUSH1 0x20 ADD PUSH2 0x97 JUMP JUMPDEST PUSH1 0x40 MLOAD PUSH1 0x1 PUSH1 0x1 PUSH1 0x60 SHL SUB NOT PUSH1 0x60 DUP5 DUP2 SHL DUP3 AND PUSH1 0x20 DUP5 ADD MSTORE DUP4 SWAP1 SHL AND PUSH1 0x34 DUP3 ADD MSTORE PUSH1 0x0 SWAP1 DUP2 SWAP1 PUSH1 0x48 ADD PUSH1 0x40 MLOAD PUSH1 0x20 DUP2 DUP4 SUB SUB DUP2 MSTORE SWAP1 PUSH1 0x40 MSTORE DUP1 MLOAD SWAP1 PUSH1 0x20 ADD KECCAK256 SWAP1 POP PUSH1 0x0 PUSH1 0xFF PUSH1 0xF8 SHL ADDRESS DUP4 PUSH1 0x40 MLOAD DUP1 PUSH1 0x20 ADD PUSH2 0x16D SWAP1 PUSH2 0x4DE JUMP JUMPDEST PUSH1 0x1F NOT DUP3 DUP3 SUB DUP2 ADD DUP4 MSTORE PUSH1 0x1F SWAP1 SWAP2 ADD AND PUSH1 0x40 DUP2 DUP2 MSTORE PUSH1 0x1 PUSH1 0x1 PUSH1 0xA0 SHL SUB DUP12 DUP2 AND PUSH1 0x20 DUP5 ADD MSTORE DUP11 DUP2 AND SWAP2 DUP4 ADD SWAP2 SWAP1 SWAP2 MSTORE PUSH1 0x64 PUSH1 0x60 DUP4 ADD MSTORE PUSH32 0x0 AND PUSH1 0x80 DUP3 ADD MSTORE PUSH1 0xA0 ADD PUSH1 0x40 DUP1 MLOAD PUSH1 0x1F NOT DUP2 DUP5 SUB ADD DUP2 MSTORE SWAP1 DUP3 SWAP1 MSTORE PUSH2 0x1EB SWAP3 SWAP2 PUSH1 0x20 ADD PUSH2 0x58C JUMP JUMPDEST PUSH1 0x40 MLOAD PUSH1 0x20 DUP2 DUP4 SUB SUB DUP2 MSTORE SWAP1 PUSH1 0x40 MSTORE DUP1 MLOAD SWAP1 PUSH1 0x20 ADD KECCAK256 PUSH1 0x40 MLOAD PUSH1 0x20 ADD PUSH2 0x243 SWAP5 SWAP4 SWAP3 SWAP2 SWAP1 PUSH1 0x1 PUSH1 0x1 PUSH1 0xF8 SHL SUB NOT SWAP5 SWAP1 SWAP5 AND DUP5 MSTORE PUSH1 0x60 SWAP3 SWAP1 SWAP3 SHL PUSH1 0x1 PUSH1 0x1 PUSH1 0x60 SHL SUB NOT AND PUSH1 0x1 DUP5 ADD MSTORE PUSH1 0x15 DUP4 ADD MSTORE PUSH1 0x35 DUP3 ADD MSTORE PUSH1 0x55 ADD SWAP1 JUMP JUMPDEST PUSH1 0x40 DUP1 MLOAD DUP1 DUP4 SUB PUSH1 0x1F NOT ADD DUP2 MSTORE SWAP2 SWAP1 MSTORE DUP1 MLOAD PUSH1 0x20 SWAP1 SWAP2 ADD KECCAK256 SWAP6 SWAP5 POP POP POP POP POP JUMP JUMPDEST PUSH1 0x0 DUP2 PUSH1 0x1 PUSH1 0x1 PUSH1 0xA0 SHL SUB AND DUP4 PUSH1 0x1 PUSH1 0x1 PUSH1 0xA0 SHL SUB AND SUB PUSH2 0x2C2 JUMPI PUSH1 0x40 MLOAD PUSH3 0x461BCD PUSH1 0xE5 SHL DUP2 MSTORE PUSH1 0x20 PUSH1 0x4 DUP3 ADD MSTORE PUSH1 0x13 PUSH1 0x24 DUP3 ADD MSTORE PUSH19 0x4944454E544943414C5F414444524553534553 PUSH1 0x68 SHL PUSH1 0x44 DUP3 ADD MSTORE PUSH1 0x64 ADD JUMPDEST PUSH1 0x40 MLOAD DUP1 SWAP2 SUB SWAP1 REVERT JUMPDEST PUSH1 0x1 PUSH1 0x1 PUSH1 0xA0 SHL SUB DUP4 AND PUSH2 0x307 JUMPI PUSH1 0x40 MLOAD PUSH3 0x461BCD PUSH1 0xE5 SHL DUP2 MSTORE PUSH1 0x20 PUSH1 0x4 DUP3 ADD MSTORE PUSH1 0xC PUSH1 0x24 DUP3 ADD MSTORE PUSH12 0x5A45524F5F41444452455353 PUSH1 0xA0 SHL PUSH1 0x44 DUP3 ADD MSTORE PUSH1 0x64 ADD PUSH2 0x2B9 JUMP JUMPDEST PUSH1 0x1 PUSH1 0x1 PUSH1 0xA0 SHL SUB DUP3 AND PUSH2 0x34C JUMPI PUSH1 0x40 MLOAD PUSH3 0x461BCD PUSH1 0xE5 SHL DUP2 MSTORE PUSH1 0x20 PUSH1 0x4 DUP3 ADD MSTORE PUSH1 0xC PUSH1 0x24 DUP3 ADD MSTORE PUSH12 0x5A45524F5F41444452455353 PUSH1 0xA0 SHL PUSH1 0x44 DUP3 ADD MSTORE PUSH1 0x64 ADD PUSH2 0x2B9 JUMP JUMPDEST PUSH1 0x0 PUSH2 0x358 DUP5 DUP5 PUSH2 0x113 JUMP JUMPDEST PUSH1 0x1 PUSH1 0x1 PUSH1 0xA0 SHL SUB DUP2 AND PUSH1 0x0 SWAP1 DUP2 MSTORE PUSH1 0x20 DUP2 SWAP1 MSTORE PUSH1 0x40 SWAP1 KECCAK256 SLOAD SWAP1 SWAP2 POP PUSH1 0xFF AND ISZERO PUSH2 0x3B2 JUMPI PUSH1 0x40 MLOAD PUSH3 0x461BCD PUSH1 0xE5 SHL DUP2 MSTORE PUSH1 0x20 PUSH1 0x4 DUP3 ADD MSTORE PUSH1 0xB PUSH1 0x24 DUP3 ADD MSTORE PUSH11 0x504149525F455849535453 PUSH1 0xA8 SHL PUSH1 0x44 DUP3 ADD MSTORE PUSH1 0x64 ADD PUSH2 0x2B9 JUMP JUMPDEST PUSH1 0x40 MLOAD PUSH1 0x1 PUSH1 0x1 PUSH1 0x60 SHL SUB NOT PUSH1 0x60 DUP7 DUP2 SHL DUP3 AND PUSH1 0x20 DUP5 ADD MSTORE DUP6 SWAP1 SHL AND PUSH1 0x34 DUP3 ADD MSTORE PUSH1 0x0 SWAP1 PUSH1 0x48 ADD PUSH1 0x40 MLOAD PUSH1 0x20 DUP2 DUP4 SUB SUB DUP2 MSTORE SWAP1 PUSH1 0x40 MSTORE DUP1 MLOAD SWAP1 PUSH1 0x20 ADD KECCAK256 SWAP1 POP PUSH1 0x0 DUP2 DUP7 DUP7 PUSH1 0x64 PUSH32 0x0 PUSH1 0x40 MLOAD PUSH2 0x425 SWAP1 PUSH2 0x4DE JUMP JUMPDEST PUSH1 0x1 PUSH1 0x1 PUSH1 0xA0 SHL SUB SWAP5 DUP6 AND DUP2 MSTORE SWAP3 DUP5 AND PUSH1 0x20 DUP5 ADD MSTORE PUSH1 0xFF SWAP1 SWAP2 AND PUSH1 0x40 DUP4 ADD MSTORE SWAP2 SWAP1 SWAP2 AND PUSH1 0x60 DUP3 ADD MSTORE PUSH1 0x80 ADD DUP2 SWAP1 PUSH1 0x40 MLOAD DUP1 SWAP2 SUB SWAP1 PUSH1 0x0 CREATE2 SWAP1 POP DUP1 ISZERO DUP1 ISZERO PUSH2 0x470 JUMPI RETURNDATASIZE PUSH1 0x0 DUP1 RETURNDATACOPY RETURNDATASIZE PUSH1 0x0 REVERT JUMPDEST POP PUSH1 0x1 PUSH1 0x1 PUSH1 0xA0 SHL SUB DUP2 DUP2 AND PUSH1 0x0 DUP2 DUP2 MSTORE PUSH1 0x20 DUP2 DUP2 MSTORE PUSH1 0x40 SWAP2 DUP3 SWAP1 KECCAK256 DUP1 SLOAD PUSH1 0xFF NOT AND PUSH1 0x1 OR SWAP1 SSTORE SWAP1 MLOAD SWAP2 DUP3 MSTORE SWAP3 SWAP7 POP DUP7 SWAP4 POP DUP8 DUP3 AND SWAP3 SWAP2 DUP10 AND SWAP2 PUSH32 0xA92A2B95C8D8436F6AC4C673C61487364F877EFB9534D4296FAD8EF904546C94 SWAP2 ADD PUSH1 0x40 MLOAD DUP1 SWAP2 SUB SWAP1 LOG3 POP POP POP SWAP3 SWAP2 POP POP JUMP JUMPDEST PUSH2 0x3373 DUP1 PUSH2 0x5AA DUP4 CODECOPY ADD SWAP1 JUMP JUMPDEST DUP1 CALLDATALOAD PUSH1 0x1 PUSH1 0x1 PUSH1 0xA0 SHL SUB DUP2 AND DUP2 EQ PUSH2 0x502 JUMPI PUSH1 0x0 DUP1 REVERT JUMPDEST SWAP2 SWAP1 POP JUMP JUMPDEST PUSH1 0x0 DUP1 PUSH1 0x40 DUP4 DUP6 SUB SLT ISZERO PUSH2 0x51A JUMPI PUSH1 0x0 DUP1 REVERT JUMPDEST PUSH2 0x523 DUP4 PUSH2 0x4EB JUMP JUMPDEST SWAP2 POP PUSH2 0x531 PUSH1 0x20 DUP5 ADD PUSH2 0x4EB JUMP JUMPDEST SWAP1 POP SWAP3 POP SWAP3 SWAP1 POP JUMP JUMPDEST PUSH1 0x0 PUSH1 0x20 DUP3 DUP5 SUB SLT ISZERO PUSH2 0x54C JUMPI PUSH1 0x0 DUP1 REVERT JUMPDEST PUSH2 0x555 DUP3 PUSH2 0x4EB JUMP JUMPDEST SWAP4 SWAP3 POP POP POP JUMP JUMPDEST PUSH1 0x0 DUP2 MLOAD PUSH1 0x0 JUMPDEST DUP2 DUP2 LT ISZERO PUSH2 0x57D JUMPI PUSH1 0x20 DUP2 DUP6 ADD DUP2 ADD MLOAD DUP7 DUP4 ADD MSTORE ADD PUSH2 0x563 JUMP JUMPDEST POP PUSH1 0x0 SWAP4 ADD SWAP3 DUP4 MSTORE POP SWAP1 SWAP2 SWAP1 POP JUMP JUMPDEST PUSH1 0x0 PUSH2 0x5A1 PUSH2 0x59B DUP4 DUP7 PUSH2 0x55C JUMP JUMPDEST DUP5 PUSH2 0x55C JUMP JUMPDEST SWAP5 SWAP4 POP POP POP POP JUMP INVALID PUSH2 0x100 PUSH1 0x40 MSTORE PUSH1 0x0 DUP1 SLOAD PUSH6 0xFFFFFFFFFFFF NOT AND SWAP1 SSTORE CALLVALUE DUP1 ISZERO PUSH3 0x21 JUMPI PUSH1 0x0 DUP1 REVERT JUMPDEST POP PUSH1 0x40 MLOAD PUSH3 0x3373 CODESIZE SUB DUP1 PUSH3 0x3373 DUP4 CODECOPY DUP2 ADD PUSH1 0x40 DUP2 SWAP1 MSTORE PUSH3 0x44 SWAP2 PUSH3 0x85 JUMP JUMPDEST PUSH1 0x1 PUSH1 0x1 PUSH1 0xA0 SHL SUB SWAP4 DUP5 AND PUSH1 0x80 MSTORE SWAP2 DUP4 AND PUSH1 0xA0 MSTORE PUSH1 0xFF AND PUSH1 0xC0 MSTORE AND PUSH1 0xE0 MSTORE PUSH3 0xE9 JUMP JUMPDEST DUP1 MLOAD PUSH1 0x1 PUSH1 0x1 PUSH1 0xA0 SHL SUB DUP2 AND DUP2 EQ PUSH3 0x80 JUMPI PUSH1 0x0 DUP1 REVERT JUMPDEST SWAP2 SWAP1 POP JUMP JUMPDEST PUSH1 0x0 DUP1 PUSH1 0x0 DUP1 PUSH1 0x80 DUP6 DUP8 SUB SLT ISZERO PUSH3 0x9C JUMPI PUSH1 0x0 DUP1 REVERT JUMPDEST PUSH3 0xA7 DUP6 PUSH3 0x68 JUMP JUMPDEST SWAP4 POP PUSH3 0xB7 PUSH1 0x20 DUP7 ADD PUSH3 0x68 JUMP JUMPDEST SWAP3 POP PUSH1 0x40 DUP6 ADD MLOAD PUSH1 0xFF DUP2 AND DUP2 EQ PUSH3 0xCE JUMPI PUSH1 0x0 DUP1 REVERT JUMPDEST SWAP2 POP PUSH3 0xDE PUSH1 0x60 DUP7 ADD PUSH3 0x68 JUMP JUMPDEST SWAP1 POP SWAP3 SWAP6 SWAP2 SWAP5 POP SWAP3 POP JUMP JUMPDEST PUSH1 0x80 MLOAD PUSH1 0xA0 MLOAD PUSH1 0xC0 MLOAD PUSH1 0xE0 MLOAD PUSH2 0x31B6 PUSH3 0x1BD PUSH1 0x0 CODECOPY PUSH1 0x0 DUP2 DUP2 PUSH2 0x136 ADD MSTORE DUP2 DUP2 PUSH2 0x1518 ADD MSTORE DUP2 DUP2 PUSH2 0x15CE ADD MSTORE DUP2 DUP2 PUSH2 0x1D94 ADD MSTORE PUSH2 0x1E4A ADD MSTORE PUSH1 0x0 DUP2 DUP2 PUSH2 0x57F ADD MSTORE DUP2 DUP2 PUSH2 0x1547 ADD MSTORE PUSH2 0x1DC3 ADD MSTORE PUSH1 0x0 DUP2 DUP2 PUSH2 0x41C ADD MSTORE DUP2 DUP2 PUSH2 0x761 ADD MSTORE DUP2 DUP2 PUSH2 0x1098 ADD MSTORE DUP2 DUP2 PUSH2 0x12B9 ADD MSTORE DUP2 DUP2 PUSH2 0x143B ADD MSTORE DUP2 DUP2 PUSH2 0x159F ADD MSTORE DUP2 DUP2 PUSH2 0x1679 ADD MSTORE DUP2 DUP2 PUSH2 0x1F9F ADD MSTORE PUSH2 0x2142 ADD MSTORE PUSH1 0x0 DUP2 DUP2 PUSH2 0x1B6 ADD MSTORE DUP2 DUP2 PUSH2 0x1723 ADD MSTORE DUP2 DUP2 PUSH2 0x1902 ADD MSTORE DUP2 DUP2 PUSH2 0x1B35 ADD MSTORE DUP2 DUP2 PUSH2 0x1CB7 ADD MSTORE DUP2 DUP2 PUSH2 0x1E1B ADD MSTORE DUP2 DUP2 PUSH2 0x1EF5 ADD MSTORE DUP2 DUP2 PUSH2 0x23C6 ADD MSTORE PUSH2 0x2535 ADD MSTORE PUSH2 0x31B6 PUSH1 0x0 RETURN INVALID PUSH1 0x80 PUSH1 0x40 MSTORE CALLVALUE DUP1 ISZERO PUSH2 0x10 JUMPI PUSH1 0x0 DUP1 REVERT JUMPDEST POP PUSH1 0x4 CALLDATASIZE LT PUSH2 0x12C JUMPI PUSH1 0x0 CALLDATALOAD PUSH1 0xE0 SHR DUP1 PUSH4 0xA1CCA87E GT PUSH2 0xAD JUMPI DUP1 PUSH4 0xD44CA7AF GT PUSH2 0x71 JUMPI DUP1 PUSH4 0xD44CA7AF EQ PUSH2 0x43E JUMPI DUP1 PUSH4 0xD7D99B0B EQ PUSH2 0x507 JUMPI DUP1 PUSH4 0xDDCA3F43 EQ PUSH2 0x57A JUMPI DUP1 PUSH4 0xE5C274BC EQ PUSH2 0x5B3 JUMPI DUP1 PUSH4 0xF02D8FAE EQ PUSH2 0x67F JUMPI PUSH1 0x0 DUP1 REVERT JUMPDEST DUP1 PUSH4 0xA1CCA87E EQ PUSH2 0x29D JUMPI DUP1 PUSH4 0xAE445BAC EQ PUSH2 0x2B0 JUMPI DUP1 PUSH4 0xBFE1363E EQ PUSH2 0x3F2 JUMPI DUP1 PUSH4 0xC4CCB40A EQ PUSH2 0x405 JUMPI DUP1 PUSH4 0xD21220A7 EQ PUSH2 0x417 JUMPI PUSH1 0x0 DUP1 REVERT JUMPDEST DUP1 PUSH4 0x58C0C530 GT PUSH2 0xF4 JUMPI DUP1 PUSH4 0x58C0C530 EQ PUSH2 0x215 JUMPI DUP1 PUSH4 0x596AFB4D EQ PUSH2 0x22A JUMPI DUP1 PUSH4 0x67D301F9 EQ PUSH2 0x23D JUMPI DUP1 PUSH4 0x7C33E99A EQ PUSH2 0x268 JUMPI DUP1 PUSH4 0x943525DE EQ PUSH2 0x27A JUMPI PUSH1 0x0 DUP1 REVERT JUMPDEST DUP1 PUSH4 0x17E7E58 EQ PUSH2 0x131 JUMPI DUP1 PUSH4 0x6661ABD EQ PUSH2 0x175 JUMPI DUP1 PUSH4 0xA192620 EQ PUSH2 0x19E JUMPI DUP1 PUSH4 0xDFE1681 EQ PUSH2 0x1B1 JUMPI DUP1 PUSH4 0x4BB43F28 EQ PUSH2 0x1D8 JUMPI JUMPDEST PUSH1 0x0 DUP1 REVERT JUMPDEST PUSH2 0x158 PUSH32 0x0 DUP2 JUMP JUMPDEST PUSH1 0x40 MLOAD PUSH1 0x1 PUSH1 0x1 PUSH1 0xA0 SHL SUB SWAP1 SWAP2 AND DUP2 MSTORE PUSH1 0x20 ADD JUMPDEST PUSH1 0x40 MLOAD DUP1 SWAP2 SUB SWAP1 RETURN JUMPDEST PUSH1 0x0 SLOAD PUSH2 0x187 SWAP1 PUSH6 0xFFFFFFFFFFFF AND DUP2 JUMP JUMPDEST PUSH1 0x40 MLOAD PUSH6 0xFFFFFFFFFFFF SWAP1 SWAP2 AND DUP2 MSTORE PUSH1 0x20 ADD PUSH2 0x16C JUMP JUMPDEST PUSH2 0x187 PUSH2 0x1AC CALLDATASIZE PUSH1 0x4 PUSH2 0x2EB6 JUMP JUMPDEST PUSH2 0x692 JUMP JUMPDEST PUSH2 0x158 PUSH32 0x0 DUP2 JUMP JUMPDEST PUSH2 0x1EB PUSH2 0x1E6 CALLDATASIZE PUSH1 0x4 PUSH2 0x2EF9 JUMP JUMPDEST PUSH2 0x1018 JUMP JUMPDEST PUSH1 0x40 DUP1 MLOAD PUSH1 0x1 PUSH1 0x1 PUSH1 0x70 SHL SUB SWAP5 DUP6 AND DUP2 MSTORE SWAP3 DUP5 AND PUSH1 0x20 DUP5 ADD MSTORE SWAP3 AND SWAP2 DUP2 ADD SWAP2 SWAP1 SWAP2 MSTORE PUSH1 0x60 ADD PUSH2 0x16C JUMP JUMPDEST PUSH2 0x228 PUSH2 0x223 CALLDATASIZE PUSH1 0x4 PUSH2 0x2F2C JUMP JUMPDEST PUSH2 0x17A3 JUMP JUMPDEST STOP JUMPDEST PUSH2 0x1EB PUSH2 0x238 CALLDATASIZE PUSH1 0x4 PUSH2 0x2EF9 JUMP JUMPDEST PUSH2 0x1896 JUMP JUMPDEST PUSH2 0x250 PUSH2 0x24B CALLDATASIZE PUSH1 0x4 PUSH2 0x2F6F JUMP JUMPDEST PUSH2 0x1FD6 JUMP JUMPDEST PUSH1 0x40 MLOAD PUSH1 0x1 PUSH1 0x1 PUSH1 0x70 SHL SUB SWAP1 SWAP2 AND DUP2 MSTORE PUSH1 0x20 ADD PUSH2 0x16C JUMP JUMPDEST PUSH1 0x4 SLOAD PUSH2 0x187 SWAP1 PUSH6 0xFFFFFFFFFFFF AND DUP2 JUMP JUMPDEST PUSH2 0x28D PUSH2 0x288 CALLDATASIZE PUSH1 0x4 PUSH2 0x2F6F JUMP JUMPDEST PUSH2 0x21B9 JUMP JUMPDEST PUSH1 0x40 MLOAD SWAP1 ISZERO ISZERO DUP2 MSTORE PUSH1 0x20 ADD PUSH2 0x16C JUMP JUMPDEST PUSH2 0x250 PUSH2 0x2AB CALLDATASIZE PUSH1 0x4 PUSH2 0x2F6F JUMP JUMPDEST PUSH2 0x225A JUMP JUMPDEST PUSH2 0x37D PUSH2 0x2BE CALLDATASIZE PUSH1 0x4 PUSH2 0x2F6F JUMP JUMPDEST PUSH1 0x40 DUP1 MLOAD PUSH1 0xC0 DUP2 ADD DUP3 MSTORE PUSH1 0x0 DUP1 DUP3 MSTORE PUSH1 0x20 DUP3 ADD DUP2 SWAP1 MSTORE SWAP2 DUP2 ADD DUP3 SWAP1 MSTORE PUSH1 0x60 DUP2 ADD DUP3 SWAP1 MSTORE PUSH1 0x80 DUP2 ADD DUP3 SWAP1 MSTORE PUSH1 0xA0 DUP2 ADD SWAP2 SWAP1 SWAP2 MSTORE POP PUSH6 0xFFFFFFFFFFFF SWAP1 DUP2 AND PUSH1 0x0 SWAP1 DUP2 MSTORE PUSH1 0x3 PUSH1 0x20 SWAP1 DUP2 MSTORE PUSH1 0x40 SWAP2 DUP3 SWAP1 KECCAK256 DUP3 MLOAD PUSH1 0xC0 DUP2 ADD DUP5 MSTORE DUP2 SLOAD DUP1 DUP7 AND DUP3 MSTORE PUSH1 0x1 PUSH1 0x30 SHL DUP2 DIV SWAP1 SWAP6 AND SWAP3 DUP2 ADD SWAP3 SWAP1 SWAP3 MSTORE PUSH1 0x1 PUSH1 0x60 SHL SWAP1 SWAP4 DIV PUSH1 0x1 PUSH1 0x1 PUSH1 0xA0 SHL SUB AND SWAP2 DUP2 ADD SWAP2 SWAP1 SWAP2 MSTORE PUSH1 0x1 SWAP1 SWAP2 ADD SLOAD PUSH1 0x1 PUSH1 0x1 PUSH1 0x70 SHL SUB DUP1 DUP3 AND PUSH1 0x60 DUP5 ADD MSTORE PUSH1 0x1 PUSH1 0x70 SHL DUP3 DIV AND PUSH1 0x80 DUP4 ADD MSTORE PUSH1 0x1 PUSH1 0xE0 SHL SWAP1 DIV PUSH4 0xFFFFFFFF AND PUSH1 0xA0 DUP3 ADD MSTORE SWAP1 JUMP JUMPDEST PUSH1 0x40 MLOAD PUSH2 0x16C SWAP2 SWAP1 PUSH1 0x0 PUSH1 0xC0 DUP3 ADD SWAP1 POP PUSH6 0xFFFFFFFFFFFF DUP1 DUP5 MLOAD AND DUP4 MSTORE DUP1 PUSH1 0x20 DUP6 ADD MLOAD AND PUSH1 0x20 DUP5 ADD MSTORE POP PUSH1 0x1 DUP1 PUSH1 0xA0 SHL SUB PUSH1 0x40 DUP5 ADD MLOAD AND PUSH1 0x40 DUP4 ADD MSTORE PUSH1 0x60 DUP4 ADD MLOAD PUSH1 0x1 PUSH1 0x1 PUSH1 0x70 SHL SUB DUP1 DUP3 AND PUSH1 0x60 DUP6 ADD MSTORE DUP1 PUSH1 0x80 DUP7 ADD MLOAD AND PUSH1 0x80 DUP6 ADD MSTORE POP POP PUSH4 0xFFFFFFFF PUSH1 0xA0 DUP5 ADD MLOAD AND PUSH1 0xA0 DUP4 ADD MSTORE SWAP3 SWAP2 POP POP JUMP JUMPDEST PUSH2 0x228 PUSH2 0x400 CALLDATASIZE PUSH1 0x4 PUSH2 0x2F2C JUMP JUMPDEST PUSH2 0x23F5 JUMP JUMPDEST PUSH1 0x2 SLOAD PUSH2 0x187 SWAP1 PUSH6 0xFFFFFFFFFFFF AND DUP2 JUMP JUMPDEST PUSH2 0x158 PUSH32 0x0 DUP2 JUMP JUMPDEST PUSH2 0x4B1 PUSH2 0x44C CALLDATASIZE PUSH1 0x4 PUSH2 0x2F6F JUMP JUMPDEST PUSH1 0x1 PUSH1 0x20 DUP2 SWAP1 MSTORE PUSH1 0x0 SWAP2 DUP3 MSTORE PUSH1 0x40 SWAP1 SWAP2 KECCAK256 DUP1 SLOAD SWAP2 ADD SLOAD PUSH6 0xFFFFFFFFFFFF DUP1 DUP4 AND SWAP3 PUSH1 0x1 PUSH1 0x30 SHL DUP2 DIV SWAP1 SWAP2 AND SWAP2 PUSH1 0x1 PUSH1 0x60 SHL SWAP1 SWAP2 DIV PUSH1 0x1 PUSH1 0x1 PUSH1 0xA0 SHL SUB AND SWAP1 PUSH1 0x1 PUSH1 0x1 PUSH1 0x70 SHL SUB DUP1 DUP3 AND SWAP2 PUSH1 0x1 PUSH1 0x70 SHL DUP2 DIV SWAP1 SWAP2 AND SWAP1 PUSH1 0x1 PUSH1 0xE0 SHL SWAP1 DIV PUSH4 0xFFFFFFFF AND DUP7 JUMP JUMPDEST PUSH1 0x40 DUP1 MLOAD PUSH6 0xFFFFFFFFFFFF SWAP8 DUP9 AND DUP2 MSTORE SWAP7 SWAP1 SWAP6 AND PUSH1 0x20 DUP8 ADD MSTORE PUSH1 0x1 PUSH1 0x1 PUSH1 0xA0 SHL SUB SWAP1 SWAP4 AND SWAP4 DUP6 ADD SWAP4 SWAP1 SWAP4 MSTORE PUSH1 0x1 PUSH1 0x1 PUSH1 0x70 SHL SUB SWAP1 DUP2 AND PUSH1 0x60 DUP6 ADD MSTORE SWAP1 SWAP2 AND PUSH1 0x80 DUP4 ADD MSTORE PUSH4 0xFFFFFFFF AND PUSH1 0xA0 DUP3 ADD MSTORE PUSH1 0xC0 ADD PUSH2 0x16C JUMP JUMPDEST PUSH2 0x4B1 PUSH2 0x515 CALLDATASIZE PUSH1 0x4 PUSH2 0x2F6F JUMP JUMPDEST PUSH1 0x3 PUSH1 0x20 MSTORE PUSH1 0x0 SWAP1 DUP2 MSTORE PUSH1 0x40 SWAP1 KECCAK256 DUP1 SLOAD PUSH1 0x1 SWAP1 SWAP2 ADD SLOAD PUSH6 0xFFFFFFFFFFFF DUP1 DUP4 AND SWAP3 PUSH1 0x1 PUSH1 0x30 SHL DUP2 DIV SWAP1 SWAP2 AND SWAP2 PUSH1 0x1 PUSH1 0x60 SHL SWAP1 SWAP2 DIV PUSH1 0x1 PUSH1 0x1 PUSH1 0xA0 SHL SUB AND SWAP1 PUSH1 0x1 PUSH1 0x1 PUSH1 0x70 SHL SUB DUP1 DUP3 AND SWAP2 PUSH1 0x1 PUSH1 0x70 SHL DUP2 DIV SWAP1 SWAP2 AND SWAP1 PUSH1 0x1 PUSH1 0xE0 SHL SWAP1 DIV PUSH4 0xFFFFFFFF AND DUP7 JUMP JUMPDEST PUSH2 0x5A1 PUSH32 0x0 DUP2 JUMP JUMPDEST PUSH1 0x40 MLOAD PUSH1 0xFF SWAP1 SWAP2 AND DUP2 MSTORE PUSH1 0x20 ADD PUSH2 0x16C JUMP JUMPDEST PUSH2 0x37D PUSH2 0x5C1 CALLDATASIZE PUSH1 0x4 PUSH2 0x2F6F JUMP JUMPDEST PUSH1 0x40 DUP1 MLOAD PUSH1 0xC0 DUP2 ADD DUP3 MSTORE PUSH1 0x0 DUP1 DUP3 MSTORE PUSH1 0x20 DUP3 ADD DUP2 SWAP1 MSTORE SWAP2 DUP2 ADD DUP3 SWAP1 MSTORE PUSH1 0x60 DUP2 ADD DUP3 SWAP1 MSTORE PUSH1 0x80 DUP2 ADD DUP3 SWAP1 MSTORE PUSH1 0xA0 DUP2 ADD SWAP2 SWAP1 SWAP2 MSTORE POP PUSH6 0xFFFFFFFFFFFF SWAP1 DUP2 AND PUSH1 0x0 SWAP1 DUP2 MSTORE PUSH1 0x1 PUSH1 0x20 DUP2 DUP2 MSTORE PUSH1 0x40 SWAP3 DUP4 SWAP1 KECCAK256 DUP4 MLOAD PUSH1 0xC0 DUP2 ADD DUP6 MSTORE DUP2 SLOAD DUP1 DUP8 AND DUP3 MSTORE PUSH1 0x1 PUSH1 0x30 SHL DUP2 DIV SWAP1 SWAP7 AND SWAP3 DUP2 ADD SWAP3 SWAP1 SWAP3 MSTORE PUSH1 0x1 PUSH1 0x60 SHL SWAP1 SWAP5 DIV PUSH1 0x1 PUSH1 0x1 PUSH1 0xA0 SHL SUB AND SWAP3 DUP2 ADD SWAP3 SWAP1 SWAP3 MSTORE SWAP2 SWAP1 SWAP2 ADD SLOAD PUSH1 0x1 PUSH1 0x1 PUSH1 0x70 SHL SUB DUP1 DUP3 AND PUSH1 0x60 DUP5 ADD MSTORE PUSH1 0x1 PUSH1 0x70 SHL DUP3 DIV AND PUSH1 0x80 DUP4 ADD MSTORE PUSH1 0x1 PUSH1 0xE0 SHL SWAP1 DIV PUSH4 0xFFFFFFFF AND PUSH1 0xA0 DUP3 ADD MSTORE SWAP1 JUMP JUMPDEST PUSH2 0x187 PUSH2 0x68D CALLDATASIZE PUSH1 0x4 PUSH2 0x2EB6 JUMP JUMPDEST PUSH2 0x246B JUMP JUMPDEST PUSH1 0x0 DUP1 DUP5 PUSH1 0x1 PUSH1 0x1 PUSH1 0x70 SHL SUB AND GT PUSH2 0x6F1 JUMPI PUSH1 0x40 MLOAD PUSH3 0x461BCD PUSH1 0xE5 SHL DUP2 MSTORE PUSH1 0x20 PUSH1 0x4 DUP3 ADD MSTORE PUSH1 0x1B PUSH1 0x24 DUP3 ADD MSTORE PUSH32 0x746F6B656E31496E20616D6F756E742063616E6E6F7420626520300000000000 PUSH1 0x44 DUP3 ADD MSTORE PUSH1 0x64 ADD JUMPDEST PUSH1 0x40 MLOAD DUP1 SWAP2 SUB SWAP1 REVERT JUMPDEST PUSH1 0x0 DUP4 PUSH1 0x1 PUSH1 0x1 PUSH1 0x70 SHL SUB AND GT PUSH2 0x74A JUMPI PUSH1 0x40 MLOAD PUSH3 0x461BCD PUSH1 0xE5 SHL DUP2 MSTORE PUSH1 0x20 PUSH1 0x4 DUP3 ADD MSTORE PUSH1 0x1C PUSH1 0x24 DUP3 ADD MSTORE PUSH32 0x746F6B656E304F757420616D6F756E742063616E6E6F74206265203000000000 PUSH1 0x44 DUP3 ADD MSTORE PUSH1 0x64 ADD PUSH2 0x6E8 JUMP JUMPDEST PUSH1 0x40 MLOAD PUSH4 0x23B872DD PUSH1 0xE0 SHL DUP2 MSTORE PUSH1 0x1 PUSH1 0x1 PUSH1 0xA0 SHL SUB PUSH32 0x0 AND SWAP1 PUSH4 0x23B872DD SWAP1 PUSH2 0x7A3 SWAP1 CALLER SWAP1 ADDRESS SWAP1 PUSH1 0x1 PUSH1 0x1 PUSH1 0x70 SHL SUB DUP11 AND SWAP1 PUSH1 0x4 ADD PUSH2 0x2F8A JUMP JUMPDEST PUSH1 0x20 PUSH1 0x40 MLOAD DUP1 DUP4 SUB DUP2 PUSH1 0x0 DUP8 GAS CALL ISZERO DUP1 ISZERO PUSH2 0x7C2 JUMPI RETURNDATASIZE PUSH1 0x0 DUP1 RETURNDATACOPY RETURNDATASIZE PUSH1 0x0 REVERT JUMPDEST POP POP POP POP PUSH1 0x40 MLOAD RETURNDATASIZE PUSH1 0x1F NOT PUSH1 0x1F DUP3 ADD AND DUP3 ADD DUP1 PUSH1 0x40 MSTORE POP DUP2 ADD SWAP1 PUSH2 0x7E6 SWAP2 SWAP1 PUSH2 0x2FAE JUMP JUMPDEST POP PUSH1 0x0 DUP1 SLOAD DUP2 SWAP1 PUSH2 0x7FE SWAP1 PUSH6 0xFFFFFFFFFFFF AND PUSH2 0x2FE6 JUMP JUMPDEST DUP3 SLOAD PUSH2 0x100 SWAP3 SWAP1 SWAP3 EXP PUSH6 0xFFFFFFFFFFFF DUP2 DUP2 MUL NOT SWAP1 SWAP4 AND SWAP2 DUP4 AND MUL OR SWAP1 SWAP2 SSTORE PUSH1 0x2 SLOAD AND PUSH1 0x0 SUB PUSH2 0x92C JUMPI POP PUSH1 0x40 DUP1 MLOAD PUSH1 0xC0 DUP2 ADD DUP3 MSTORE PUSH1 0x0 DUP1 DUP3 MSTORE PUSH1 0x20 DUP1 DUP4 ADD DUP3 DUP2 MSTORE CALLER DUP5 DUP7 ADD SWAP1 DUP2 MSTORE PUSH1 0x1 PUSH1 0x1 PUSH1 0x70 SHL SUB DUP1 DUP11 AND PUSH1 0x60 DUP8 ADD SWAP1 DUP2 MSTORE DUP10 DUP3 AND PUSH1 0x80 DUP9 ADD SWAP1 DUP2 MSTORE PUSH1 0xA0 DUP9 ADD DUP8 DUP2 MSTORE DUP8 SLOAD PUSH6 0xFFFFFFFFFFFF SWAP1 DUP2 AND DUP10 MSTORE PUSH1 0x1 SWAP8 DUP9 SWAP1 MSTORE SWAP10 DUP9 KECCAK256 SWAP9 MLOAD DUP10 SLOAD SWAP7 MLOAD SWAP6 MLOAD PUSH1 0x1 PUSH1 0x1 PUSH1 0xA0 SHL SUB AND PUSH1 0x1 PUSH1 0x60 SHL MUL PUSH1 0x1 PUSH1 0x1 PUSH1 0x60 SHL SUB SWAP7 DUP13 AND PUSH1 0x1 PUSH1 0x30 SHL MUL PUSH1 0x1 PUSH1 0x1 PUSH1 0x60 SHL SUB NOT SWAP1 SWAP9 AND SWAP2 DUP13 AND SWAP2 SWAP1 SWAP2 OR SWAP7 SWAP1 SWAP7 OR SWAP5 SWAP1 SWAP5 AND SWAP5 SWAP1 SWAP5 OR DUP8 SSTORE MLOAD SWAP6 SWAP1 SWAP4 ADD DUP1 SLOAD SWAP3 MLOAD SWAP2 MLOAD PUSH4 0xFFFFFFFF AND PUSH1 0x1 PUSH1 0xE0 SHL MUL PUSH1 0x1 PUSH1 0x1 PUSH1 0xE0 SHL SUB SWAP3 DUP6 AND PUSH1 0x1 PUSH1 0x70 SHL MUL PUSH1 0x1 PUSH1 0x1 PUSH1 0xE0 SHL SUB NOT SWAP1 SWAP5 AND SWAP7 SWAP1 SWAP5 AND SWAP6 SWAP1 SWAP6 OR SWAP2 SWAP1 SWAP2 OR AND OR SWAP1 SWAP2 SSTORE SLOAD PUSH1 0x2 DUP1 SLOAD PUSH6 0xFFFFFFFFFFFF NOT AND SWAP2 SWAP1 SWAP3 AND SWAP1 DUP2 OR SWAP1 SWAP2 SSTORE PUSH2 0x1011 JUMP JUMPDEST DUP2 PUSH6 0xFFFFFFFFFFFF AND PUSH1 0x0 SUB PUSH2 0xAFA JUMPI PUSH1 0x2 SLOAD PUSH6 0xFFFFFFFFFFFF AND PUSH1 0x0 SWAP1 DUP2 MSTORE PUSH1 0x1 PUSH1 0x20 DUP2 SWAP1 MSTORE PUSH1 0x40 SWAP1 SWAP2 KECCAK256 SWAP1 DUP2 ADD SLOAD PUSH2 0x972 SWAP1 PUSH1 0x1 PUSH1 0x1 PUSH1 0x70 SHL SUB DUP1 DUP8 AND SWAP2 AND PUSH2 0x300B JUMP JUMPDEST PUSH1 0x1 DUP3 ADD SLOAD PUSH2 0x994 SWAP1 PUSH1 0x1 PUSH1 0x1 PUSH1 0x70 SHL SUB DUP1 DUP10 AND SWAP2 PUSH1 0x1 PUSH1 0x70 SHL SWAP1 DIV AND PUSH2 0x300B JUMP JUMPDEST GT PUSH2 0x9E1 JUMPI PUSH1 0x40 MLOAD PUSH3 0x461BCD PUSH1 0xE5 SHL DUP2 MSTORE PUSH1 0x20 PUSH1 0x4 DUP3 ADD MSTORE PUSH1 0x1A PUSH1 0x24 DUP3 ADD MSTORE PUSH32 0x796F7572207072696365206D757374203E20746F704F72646572000000000000 PUSH1 0x44 DUP3 ADD MSTORE PUSH1 0x64 ADD PUSH2 0x6E8 JUMP JUMPDEST PUSH1 0x0 DUP1 SLOAD DUP3 SLOAD PUSH6 0xFFFFFFFFFFFF NOT SWAP1 DUP2 AND PUSH6 0xFFFFFFFFFFFF SWAP3 DUP4 AND OR SWAP1 SWAP4 SSTORE PUSH1 0x40 DUP1 MLOAD PUSH1 0xC0 DUP2 ADD DUP3 MSTORE DUP4 DUP2 MSTORE PUSH1 0x2 DUP1 SLOAD DUP5 AND PUSH1 0x20 DUP1 DUP5 ADD SWAP2 DUP3 MSTORE CALLER DUP5 DUP7 ADD SWAP1 DUP2 MSTORE PUSH1 0x1 PUSH1 0x1 PUSH1 0x70 SHL SUB DUP1 DUP15 AND PUSH1 0x60 DUP8 ADD SWAP1 DUP2 MSTORE DUP14 DUP3 AND PUSH1 0x80 DUP9 ADD SWAP1 DUP2 MSTORE PUSH1 0xA0 DUP9 ADD DUP12 DUP2 MSTORE DUP12 SLOAD DUP12 AND DUP13 MSTORE PUSH1 0x1 SWAP6 DUP7 SWAP1 MSTORE SWAP9 DUP12 KECCAK256 SWAP8 MLOAD DUP9 SLOAD SWAP7 MLOAD SWAP5 MLOAD PUSH1 0x1 PUSH1 0x1 PUSH1 0xA0 SHL SUB AND PUSH1 0x1 PUSH1 0x60 SHL MUL PUSH1 0x1 PUSH1 0x1 PUSH1 0x60 SHL SUB SWAP6 DUP13 AND PUSH1 0x1 PUSH1 0x30 SHL MUL PUSH1 0x1 PUSH1 0x1 PUSH1 0x60 SHL SUB NOT SWAP1 SWAP9 AND SWAP2 DUP13 AND SWAP2 SWAP1 SWAP2 OR SWAP7 SWAP1 SWAP7 OR SWAP4 SWAP1 SWAP4 AND SWAP5 SWAP1 SWAP5 OR DUP7 SSTORE SWAP3 MLOAD SWAP5 SWAP1 SWAP2 ADD DUP1 SLOAD SWAP2 MLOAD SWAP6 MLOAD PUSH4 0xFFFFFFFF AND PUSH1 0x1 PUSH1 0xE0 SHL MUL PUSH1 0x1 PUSH1 0x1 PUSH1 0xE0 SHL SUB SWAP7 DUP5 AND PUSH1 0x1 PUSH1 0x70 SHL MUL PUSH1 0x1 PUSH1 0x1 PUSH1 0xE0 SHL SUB NOT SWAP1 SWAP4 AND SWAP6 SWAP1 SWAP4 AND SWAP5 SWAP1 SWAP5 OR OR SWAP4 SWAP1 SWAP4 AND SWAP3 SWAP1 SWAP3 OR SWAP1 SSTORE SWAP2 SLOAD DUP3 SLOAD SWAP1 SWAP4 AND SWAP3 AND SWAP2 DUP3 OR SWAP1 SSTORE SWAP1 POP PUSH2 0x1011 JUMP JUMPDEST PUSH6 0xFFFFFFFFFFFF DUP3 AND PUSH1 0x0 SWAP1 DUP2 MSTORE PUSH1 0x1 PUSH1 0x20 DUP2 SWAP1 MSTORE PUSH1 0x40 DUP3 KECCAK256 SWAP1 DUP2 ADD SLOAD SWAP1 SWAP2 PUSH1 0x1 PUSH1 0x1 PUSH1 0x70 SHL SUB SWAP1 SWAP2 AND SWAP1 SUB PUSH2 0xB6D JUMPI PUSH1 0x40 MLOAD PUSH3 0x461BCD PUSH1 0xE5 SHL DUP2 MSTORE PUSH1 0x20 PUSH1 0x4 DUP3 ADD MSTORE PUSH1 0x18 PUSH1 0x24 DUP3 ADD MSTORE PUSH24 0x1899599BDC9953DC99195C881A5CC81B9BDD08195E1A5CDD PUSH1 0x42 SHL PUSH1 0x44 DUP3 ADD MSTORE PUSH1 0x64 ADD PUSH2 0x6E8 JUMP JUMPDEST DUP1 SLOAD PUSH6 0xFFFFFFFFFFFF AND PUSH6 0xFFFFFFFFFFFE NOT ADD PUSH2 0xBCC JUMPI PUSH1 0x40 MLOAD PUSH3 0x461BCD PUSH1 0xE5 SHL DUP2 MSTORE PUSH1 0x20 PUSH1 0x4 DUP3 ADD MSTORE PUSH1 0x1C PUSH1 0x24 DUP3 ADD MSTORE PUSH32 0x6265666F72654F726465722069732072656D6F76656428646F6E652900000000 PUSH1 0x44 DUP3 ADD MSTORE PUSH1 0x64 ADD PUSH2 0x6E8 JUMP JUMPDEST PUSH1 0x1 DUP2 ADD SLOAD PUSH2 0xBE7 SWAP1 PUSH1 0x1 PUSH1 0x1 PUSH1 0x70 SHL SUB DUP1 DUP8 AND SWAP2 AND PUSH2 0x300B JUMP JUMPDEST PUSH1 0x1 DUP3 ADD SLOAD PUSH2 0xC09 SWAP1 PUSH1 0x1 PUSH1 0x1 PUSH1 0x70 SHL SUB DUP1 DUP10 AND SWAP2 PUSH1 0x1 PUSH1 0x70 SHL SWAP1 DIV AND PUSH2 0x300B JUMP JUMPDEST GT ISZERO PUSH2 0xC57 JUMPI PUSH1 0x40 MLOAD PUSH3 0x461BCD PUSH1 0xE5 SHL DUP2 MSTORE PUSH1 0x20 PUSH1 0x4 DUP3 ADD MSTORE PUSH1 0x1E PUSH1 0x24 DUP3 ADD MSTORE PUSH32 0x796F7572207072696365206D757374203C3D206265666F72654F726465720000 PUSH1 0x44 DUP3 ADD MSTORE PUSH1 0x64 ADD PUSH2 0x6E8 JUMP JUMPDEST DUP1 SLOAD PUSH1 0x1 PUSH1 0x30 SHL SWAP1 DIV PUSH6 0xFFFFFFFFFFFF AND PUSH1 0x0 SUB PUSH2 0xD7F JUMPI PUSH1 0x0 DUP1 SLOAD DUP3 SLOAD PUSH1 0x1 PUSH1 0x30 SHL PUSH6 0xFFFFFFFFFFFF SWAP3 DUP4 AND DUP2 MUL PUSH6 0xFFFFFFFFFFFF PUSH1 0x30 SHL NOT SWAP1 SWAP3 AND SWAP2 SWAP1 SWAP2 OR SWAP1 SWAP4 SSTORE PUSH1 0x40 DUP1 MLOAD PUSH1 0xC0 DUP2 ADD DUP3 MSTORE DUP7 DUP4 AND DUP2 MSTORE PUSH1 0x20 DUP1 DUP3 ADD DUP6 DUP2 MSTORE CALLER DUP4 DUP6 ADD SWAP1 DUP2 MSTORE PUSH1 0x1 PUSH1 0x1 PUSH1 0x70 SHL SUB DUP1 DUP14 AND PUSH1 0x60 DUP7 ADD SWAP1 DUP2 MSTORE DUP13 DUP3 AND PUSH1 0x80 DUP8 ADD SWAP1 DUP2 MSTORE PUSH1 0xA0 DUP8 ADD DUP11 DUP2 MSTORE DUP11 SLOAD DUP11 AND DUP12 MSTORE PUSH1 0x1 SWAP7 DUP8 SWAP1 MSTORE SWAP8 DUP11 KECCAK256 SWAP7 MLOAD DUP8 SLOAD SWAP6 MLOAD SWAP5 MLOAD PUSH1 0x1 PUSH1 0x1 PUSH1 0xA0 SHL SUB AND PUSH1 0x1 PUSH1 0x60 SHL MUL PUSH1 0x1 PUSH1 0x1 PUSH1 0x60 SHL SUB SWAP6 DUP12 AND SWAP1 SWAP13 MUL PUSH1 0x1 PUSH1 0x1 PUSH1 0x60 SHL SUB NOT SWAP1 SWAP7 AND SWAP1 DUP11 AND OR SWAP5 SWAP1 SWAP5 OR SWAP3 SWAP1 SWAP3 AND SWAP9 SWAP1 SWAP9 OR DUP5 SSTORE MLOAD SWAP3 SWAP1 SWAP2 ADD DUP1 SLOAD SWAP2 MLOAD SWAP4 MLOAD PUSH4 0xFFFFFFFF AND PUSH1 0x1 PUSH1 0xE0 SHL MUL PUSH1 0x1 PUSH1 0x1 PUSH1 0xE0 SHL SUB SWAP5 DUP9 AND PUSH1 0x1 PUSH1 0x70 SHL MUL PUSH1 0x1 PUSH1 0x1 PUSH1 0xE0 SHL SUB NOT SWAP1 SWAP4 AND SWAP4 SWAP1 SWAP8 AND SWAP3 SWAP1 SWAP3 OR OR SWAP2 SWAP1 SWAP2 AND SWAP4 SWAP1 SWAP4 OR SWAP1 SWAP3 SSTORE SLOAD AND SWAP1 POP PUSH2 0x1011 JUMP JUMPDEST DUP1 SLOAD PUSH1 0x1 PUSH1 0x30 SHL SWAP1 DIV PUSH6 0xFFFFFFFFFFFF AND PUSH1 0x0 SWAP1 DUP2 MSTORE PUSH1 0x1 PUSH1 0x20 DUP2 SWAP1 MSTORE PUSH1 0x40 DUP3 KECCAK256 SWAP1 DUP2 ADD SLOAD SWAP1 SWAP2 PUSH1 0x1 PUSH1 0x1 PUSH1 0x70 SHL SUB SWAP1 SWAP2 AND SWAP1 SUB PUSH2 0xDF9 JUMPI PUSH1 0x40 MLOAD PUSH3 0x461BCD PUSH1 0xE5 SHL DUP2 MSTORE PUSH1 0x20 PUSH1 0x4 DUP3 ADD MSTORE PUSH1 0x17 PUSH1 0x24 DUP3 ADD MSTORE PUSH23 0x18599D195C93DC99195C881A5CC81B9BDD08195E1A5CDD PUSH1 0x4A SHL PUSH1 0x44 DUP3 ADD MSTORE PUSH1 0x64 ADD PUSH2 0x6E8 JUMP JUMPDEST DUP1 SLOAD PUSH6 0xFFFFFFFFFFFF AND PUSH6 0xFFFFFFFFFFFE NOT ADD PUSH2 0xE58 JUMPI PUSH1 0x40 MLOAD PUSH3 0x461BCD PUSH1 0xE5 SHL DUP2 MSTORE PUSH1 0x20 PUSH1 0x4 DUP3 ADD MSTORE PUSH1 0x1B PUSH1 0x24 DUP3 ADD MSTORE PUSH32 0x61667465724F726465722069732072656D6F76656428646F6E65290000000000 PUSH1 0x44 DUP3 ADD MSTORE PUSH1 0x64 ADD PUSH2 0x6E8 JUMP JUMPDEST PUSH1 0x1 DUP2 ADD SLOAD PUSH2 0xE73 SWAP1 PUSH1 0x1 PUSH1 0x1 PUSH1 0x70 SHL SUB DUP1 DUP9 AND SWAP2 AND PUSH2 0x300B JUMP JUMPDEST PUSH1 0x1 DUP3 ADD SLOAD PUSH2 0xE95 SWAP1 PUSH1 0x1 PUSH1 0x1 PUSH1 0x70 SHL SUB DUP1 DUP11 AND SWAP2 PUSH1 0x1 PUSH1 0x70 SHL SWAP1 DIV AND PUSH2 0x300B JUMP JUMPDEST GT PUSH2 0xEE2 JUMPI PUSH1 0x40 MLOAD PUSH3 0x461BCD PUSH1 0xE5 SHL DUP2 MSTORE PUSH1 0x20 PUSH1 0x4 DUP3 ADD MSTORE PUSH1 0x1C PUSH1 0x24 DUP3 ADD MSTORE PUSH32 0x796F7572207072696365206D757374203E2061667465724F7264657200000000 PUSH1 0x44 DUP3 ADD MSTORE PUSH1 0x64 ADD PUSH2 0x6E8 JUMP JUMPDEST PUSH1 0x40 DUP1 MLOAD PUSH1 0xC0 DUP2 ADD DUP3 MSTORE PUSH6 0xFFFFFFFFFFFF DUP1 DUP8 AND DUP3 MSTORE DUP5 SLOAD PUSH1 0x1 PUSH1 0x30 SHL SWAP1 DUP2 SWAP1 DIV DUP3 AND PUSH1 0x20 DUP1 DUP6 ADD SWAP2 DUP3 MSTORE CALLER DUP6 DUP8 ADD SWAP1 DUP2 MSTORE PUSH1 0x1 PUSH1 0x1 PUSH1 0x70 SHL SUB DUP1 DUP15 AND PUSH1 0x60 DUP9 ADD SWAP1 DUP2 MSTORE DUP14 DUP3 AND PUSH1 0x80 DUP10 ADD SWAP1 DUP2 MSTORE PUSH1 0x0 PUSH1 0xA0 DUP11 ADD DUP2 DUP2 MSTORE DUP2 SLOAD DUP11 AND DUP3 MSTORE PUSH1 0x1 SWAP7 DUP8 SWAP1 MSTORE SWAP11 DUP2 KECCAK256 SWAP10 MLOAD DUP11 SLOAD SWAP8 MLOAD SWAP6 MLOAD PUSH1 0x1 PUSH1 0x1 PUSH1 0xA0 SHL SUB AND PUSH1 0x1 PUSH1 0x60 SHL MUL PUSH1 0x1 PUSH1 0x1 PUSH1 0x60 SHL SUB SWAP7 DUP12 AND DUP11 MUL PUSH1 0x1 PUSH1 0x1 PUSH1 0x60 SHL SUB NOT SWAP1 SWAP10 AND SWAP2 DUP12 AND SWAP2 SWAP1 SWAP2 OR SWAP8 SWAP1 SWAP8 OR SWAP5 SWAP1 SWAP5 AND SWAP6 SWAP1 SWAP6 OR DUP9 SSTORE MLOAD SWAP7 SWAP1 SWAP3 ADD DUP1 SLOAD SWAP4 MLOAD SWAP8 MLOAD PUSH4 0xFFFFFFFF AND PUSH1 0x1 PUSH1 0xE0 SHL MUL PUSH1 0x1 PUSH1 0x1 PUSH1 0xE0 SHL SUB SWAP9 DUP5 AND PUSH1 0x1 PUSH1 0x70 SHL MUL PUSH1 0x1 PUSH1 0x1 PUSH1 0xE0 SHL SUB NOT SWAP1 SWAP6 AND SWAP8 SWAP1 SWAP4 AND SWAP7 SWAP1 SWAP7 OR SWAP3 SWAP1 SWAP3 OR SWAP6 SWAP1 SWAP6 AND SWAP5 SWAP1 SWAP5 OR SWAP1 SWAP3 SSTORE DUP3 SLOAD DUP6 SLOAD SWAP1 DUP3 AND SWAP1 SWAP3 MUL PUSH6 0xFFFFFFFFFFFF PUSH1 0x30 SHL NOT SWAP3 SWAP1 SWAP3 AND SWAP2 SWAP1 SWAP2 OR SWAP1 SWAP4 SSTORE DUP1 SLOAD DUP3 SLOAD PUSH6 0xFFFFFFFFFFFF NOT AND SWAP1 DUP5 AND OR SWAP1 SWAP2 SSTORE SLOAD AND SWAP1 POP JUMPDEST SWAP4 SWAP3 POP POP POP JUMP JUMPDEST PUSH1 0x4 SLOAD PUSH1 0x0 SWAP1 DUP2 SWAP1 DUP2 SWAP1 PUSH6 0xFFFFFFFFFFFF AND DUP2 SUB PUSH2 0x106E JUMPI PUSH1 0x40 MLOAD PUSH3 0x461BCD PUSH1 0xE5 SHL DUP2 MSTORE PUSH1 0x20 PUSH1 0x4 DUP3 ADD MSTORE PUSH1 0x13 PUSH1 0x24 DUP3 ADD MSTORE PUSH19 0x73656C6C4F726465727320697320656D707479 PUSH1 0x68 SHL PUSH1 0x44 DUP3 ADD MSTORE PUSH1 0x64 ADD PUSH2 0x6E8 JUMP JUMPDEST PUSH1 0x40 MLOAD PUSH4 0x23B872DD PUSH1 0xE0 SHL DUP2 MSTORE CALLER PUSH1 0x4 DUP3 ADD MSTORE ADDRESS PUSH1 0x24 DUP3 ADD MSTORE PUSH1 0x1 PUSH1 0x1 PUSH1 0x70 SHL SUB DUP7 AND PUSH1 0x44 DUP3 ADD MSTORE PUSH32 0x0 PUSH1 0x1 PUSH1 0x1 PUSH1 0xA0 SHL SUB AND SWAP1 PUSH4 0x23B872DD SWAP1 PUSH1 0x64 ADD PUSH1 0x20 PUSH1 0x40 MLOAD DUP1 DUP4 SUB DUP2 PUSH1 0x0 DUP8 GAS CALL ISZERO DUP1 ISZERO PUSH2 0x10E9 JUMPI RETURNDATASIZE PUSH1 0x0 DUP1 RETURNDATACOPY RETURNDATASIZE PUSH1 0x0 REVERT JUMPDEST POP POP POP POP PUSH1 0x40 MLOAD RETURNDATASIZE PUSH1 0x1F NOT PUSH1 0x1F DUP3 ADD AND DUP3 ADD DUP1 PUSH1 0x40 MSTORE POP DUP2 ADD SWAP1 PUSH2 0x110D SWAP2 SWAP1 PUSH2 0x2FAE JUMP JUMPDEST POP DUP5 JUMPDEST PUSH1 0x4 SLOAD PUSH6 0xFFFFFFFFFFFF AND ISZERO PUSH2 0x14BE JUMPI PUSH1 0x4 SLOAD PUSH6 0xFFFFFFFFFFFF AND PUSH1 0x0 SWAP1 DUP2 MSTORE PUSH1 0x3 PUSH1 0x20 MSTORE PUSH1 0x40 SWAP1 KECCAK256 PUSH1 0x1 DUP2 ADD SLOAD PUSH2 0x115C SWAP1 PUSH1 0x1 PUSH1 0x1 PUSH1 0x70 SHL SUB PUSH1 0x1 PUSH1 0x70 SHL SWAP1 SWAP2 DIV DUP2 AND SWAP1 DUP9 AND PUSH2 0x300B JUMP JUMPDEST PUSH1 0x1 DUP3 ADD SLOAD PUSH2 0x1178 SWAP1 PUSH1 0x1 PUSH1 0x1 PUSH1 0x70 SHL SUB SWAP1 DUP2 AND SWAP1 DUP11 AND PUSH2 0x300B JUMP JUMPDEST LT ISZERO PUSH2 0x1184 JUMPI POP PUSH2 0x14BE JUMP JUMPDEST PUSH1 0x1 DUP2 ADD SLOAD PUSH1 0x0 SWAP1 PUSH4 0xFFFFFFFF SWAP1 PUSH2 0x11AF SWAP1 PUSH1 0x1 PUSH1 0x1 PUSH1 0x70 SHL SUB DUP2 AND SWAP1 PUSH1 0x1 PUSH1 0xE0 SHL SWAP1 DIV DUP4 AND PUSH2 0x300B JUMP JUMPDEST PUSH2 0x11B9 SWAP2 SWAP1 PUSH2 0x303E JUMP JUMPDEST PUSH1 0x1 DUP4 ADD SLOAD SWAP1 SWAP2 POP PUSH1 0x0 SWAP1 PUSH1 0x1 PUSH1 0x1 PUSH1 0x70 SHL SUB DUP1 DUP3 AND SWAP2 PUSH2 0x11E6 SWAP2 PUSH1 0x1 PUSH1 0x70 SHL SWAP1 SWAP2 DIV DUP2 AND SWAP1 DUP6 AND PUSH2 0x300B JUMP JUMPDEST PUSH2 0x11F0 SWAP2 SWAP1 PUSH2 0x303E JUMP JUMPDEST PUSH1 0x1 DUP5 ADD SLOAD PUSH2 0x120F SWAP2 SWAP1 PUSH1 0x1 PUSH1 0x70 SHL SWAP1 DIV PUSH1 0x1 PUSH1 0x1 PUSH1 0x70 SHL SUB AND PUSH2 0x3052 JUMP JUMPDEST SWAP1 POP DUP1 PUSH1 0x1 PUSH1 0x1 PUSH1 0x70 SHL SUB AND DUP5 PUSH1 0x1 PUSH1 0x1 PUSH1 0x70 SHL SUB AND LT PUSH2 0x135D JUMPI PUSH2 0x1234 DUP2 DUP6 PUSH2 0x3052 JUMP JUMPDEST PUSH1 0x1 DUP5 ADD SLOAD SWAP1 SWAP5 POP PUSH2 0x1250 SWAP1 DUP4 SWAP1 PUSH1 0x1 PUSH1 0x1 PUSH1 0x70 SHL SUB AND PUSH2 0x3052 JUMP JUMPDEST PUSH2 0x125A SWAP1 DUP8 PUSH2 0x3079 JUMP JUMPDEST SWAP6 POP PUSH2 0x1267 DUP4 PUSH1 0x3 PUSH2 0x2DEC JUMP JUMPDEST PUSH1 0x1 DUP4 ADD DUP1 SLOAD PUSH1 0x1 PUSH1 0x1 PUSH1 0xE0 SHL SUB AND PUSH1 0x1 PUSH1 0x1 PUSH1 0xE0 SHL SUB NOT OR SWAP1 SSTORE DUP3 SLOAD PUSH1 0x40 MLOAD PUSH4 0xA9059CBB PUSH1 0xE0 SHL DUP2 MSTORE PUSH1 0x1 PUSH1 0x1 PUSH1 0xA0 SHL SUB PUSH1 0x1 PUSH1 0x60 SHL SWAP1 SWAP3 DIV DUP3 AND PUSH1 0x4 DUP3 ADD MSTORE PUSH1 0x1 PUSH1 0x1 PUSH1 0x70 SHL SUB DUP4 AND PUSH1 0x24 DUP3 ADD MSTORE PUSH32 0x0 SWAP1 SWAP2 AND SWAP1 PUSH4 0xA9059CBB SWAP1 PUSH1 0x44 ADD PUSH1 0x20 PUSH1 0x40 MLOAD DUP1 DUP4 SUB DUP2 PUSH1 0x0 DUP8 GAS CALL ISZERO DUP1 ISZERO PUSH2 0x1304 JUMPI RETURNDATASIZE PUSH1 0x0 DUP1 RETURNDATACOPY RETURNDATASIZE PUSH1 0x0 REVERT JUMPDEST POP POP POP POP PUSH1 0x40 MLOAD RETURNDATASIZE PUSH1 0x1F NOT PUSH1 0x1F DUP3 ADD AND DUP3 ADD DUP1 PUSH1 0x40 MSTORE POP DUP2 ADD SWAP1 PUSH2 0x1328 SWAP2 SWAP1 PUSH2 0x2FAE JUMP JUMPDEST POP DUP3 SLOAD PUSH6 0xFFFFFFFFFFFF NOT SWAP1 DUP2 AND PUSH6 0xFFFFFFFFFFFF SWAP1 DUP2 OR DUP1 DUP7 SSTORE PUSH1 0x4 DUP1 SLOAD SWAP1 SWAP4 AND PUSH1 0x1 PUSH1 0x30 SHL SWAP1 SWAP2 DIV SWAP1 SWAP2 AND OR SWAP1 SSTORE PUSH2 0x14B6 JUMP JUMPDEST PUSH1 0x1 DUP4 ADD SLOAD PUSH1 0x0 SWAP1 PUSH1 0x1 PUSH1 0x1 PUSH1 0x70 SHL SUB PUSH1 0x1 PUSH1 0x70 SHL DUP3 DIV DUP2 AND SWAP2 PUSH2 0x1386 SWAP2 SWAP1 DUP2 AND SWAP1 DUP9 AND PUSH2 0x300B JUMP JUMPDEST PUSH2 0x1390 SWAP2 SWAP1 PUSH2 0x303E JUMP JUMPDEST SWAP1 POP PUSH2 0x139C DUP2 DUP9 PUSH2 0x3079 JUMP JUMPDEST SWAP7 POP PUSH2 0x13A8 DUP2 DUP5 PUSH2 0x3079 JUMP JUMPDEST PUSH1 0x1 DUP6 ADD SLOAD SWAP1 SWAP4 POP PUSH1 0x1 PUSH1 0x1 PUSH1 0x70 SHL SUB AND PUSH2 0x13C7 PUSH4 0xFFFFFFFF DUP6 PUSH2 0x3099 JUMP JUMPDEST PUSH2 0x13D1 SWAP2 SWAP1 PUSH2 0x30C4 JUMP JUMPDEST PUSH2 0x13DC SWAP1 PUSH1 0x1 PUSH2 0x30EA JUMP JUMPDEST PUSH1 0x1 DUP6 ADD DUP1 SLOAD PUSH1 0x1 PUSH1 0x1 PUSH1 0xE0 SHL SUB AND PUSH1 0x1 PUSH1 0xE0 SHL PUSH4 0xFFFFFFFF SWAP4 SWAP1 SWAP4 AND SWAP3 SWAP1 SWAP3 MUL SWAP2 SWAP1 SWAP2 OR SWAP1 SSTORE DUP4 SLOAD PUSH1 0x40 MLOAD PUSH4 0xA9059CBB PUSH1 0xE0 SHL DUP2 MSTORE PUSH1 0x1 PUSH1 0x60 SHL SWAP1 SWAP2 DIV PUSH1 0x1 PUSH1 0x1 PUSH1 0xA0 SHL SUB SWAP1 DUP2 AND PUSH1 0x4 DUP4 ADD MSTORE PUSH1 0x1 PUSH1 0x1 PUSH1 0x70 SHL SUB DUP8 AND PUSH1 0x24 DUP4 ADD MSTORE PUSH32 0x0 AND SWAP1 PUSH4 0xA9059CBB SWAP1 PUSH1 0x44 ADD PUSH1 0x20 PUSH1 0x40 MLOAD DUP1 DUP4 SUB DUP2 PUSH1 0x0 DUP8 GAS CALL ISZERO DUP1 ISZERO PUSH2 0x1484 JUMPI RETURNDATASIZE PUSH1 0x0 DUP1 RETURNDATACOPY RETURNDATASIZE PUSH1 0x0 REVERT JUMPDEST POP POP POP POP PUSH1 0x40 MLOAD RETURNDATASIZE PUSH1 0x1F NOT PUSH1 0x1F DUP3 ADD AND DUP3 ADD DUP1 PUSH1 0x40 MSTORE POP DUP2 ADD SWAP1 PUSH2 0x14A8 SWAP2 SWAP1 PUSH2 0x2FAE JUMP JUMPDEST POP PUSH1 0x0 SWAP5 POP POP POP POP POP PUSH2 0x14BE JUMP JUMPDEST POP POP POP PUSH2 0x1110 JUMP JUMPDEST PUSH2 0x14C8 DUP2 DUP8 PUSH2 0x3052 JUMP JUMPDEST SWAP4 POP PUSH1 0x0 DUP5 PUSH1 0x1 PUSH1 0x1 PUSH1 0x70 SHL SUB AND GT PUSH2 0x150D JUMPI PUSH1 0x40 MLOAD PUSH3 0x461BCD PUSH1 0xE5 SHL DUP2 MSTORE PUSH1 0x20 PUSH1 0x4 DUP3 ADD MSTORE PUSH1 0x7 PUSH1 0x24 DUP3 ADD MSTORE PUSH7 0x1B9BC81919585B PUSH1 0xCA SHL PUSH1 0x44 DUP3 ADD MSTORE PUSH1 0x64 ADD PUSH2 0x6E8 JUMP JUMPDEST CALLER PUSH1 0x1 PUSH1 0x1 PUSH1 0xA0 SHL SUB PUSH32 0x0 AND EQ PUSH2 0x1646 JUMPI PUSH2 0x2710 PUSH2 0x156D PUSH1 0xFF PUSH32 0x0 AND DUP7 PUSH2 0x3099 JUMP JUMPDEST PUSH2 0x1577 SWAP2 SWAP1 PUSH2 0x30C4 JUMP JUMPDEST SWAP2 POP PUSH1 0x1 PUSH1 0x1 PUSH1 0x70 SHL SUB DUP3 AND ISZERO PUSH2 0x1646 JUMPI PUSH1 0x40 MLOAD PUSH4 0x23B872DD PUSH1 0xE0 SHL DUP2 MSTORE PUSH1 0x1 PUSH1 0x1 PUSH1 0xA0 SHL SUB PUSH32 0x0 AND SWAP1 PUSH4 0x23B872DD SWAP1 PUSH2 0x1601 SWAP1 CALLER SWAP1 PUSH32 0x0 SWAP1 PUSH1 0x1 PUSH1 0x1 PUSH1 0x70 SHL SUB DUP9 AND SWAP1 PUSH1 0x4 ADD PUSH2 0x2F8A JUMP JUMPDEST PUSH1 0x20 PUSH1 0x40 MLOAD DUP1 DUP4 SUB DUP2 PUSH1 0x0 DUP8 GAS CALL ISZERO DUP1 ISZERO PUSH2 0x1620 JUMPI RETURNDATASIZE PUSH1 0x0 DUP1 RETURNDATACOPY RETURNDATASIZE PUSH1 0x0 REVERT JUMPDEST POP POP POP POP PUSH1 0x40 MLOAD RETURNDATASIZE PUSH1 0x1F NOT PUSH1 0x1F DUP3 ADD AND DUP3 ADD DUP1 PUSH1 0x40 MSTORE POP DUP2 ADD SWAP1 PUSH2 0x1644 SWAP2 SWAP1 PUSH2 0x2FAE JUMP JUMPDEST POP JUMPDEST PUSH1 0x1 PUSH1 0x1 PUSH1 0x70 SHL SUB DUP2 AND ISZERO PUSH2 0x16F0 JUMPI PUSH1 0x40 MLOAD PUSH4 0xA9059CBB PUSH1 0xE0 SHL DUP2 MSTORE CALLER PUSH1 0x4 DUP3 ADD MSTORE PUSH1 0x1 PUSH1 0x1 PUSH1 0x70 SHL SUB DUP3 AND PUSH1 0x24 DUP3 ADD MSTORE PUSH32 0x0 PUSH1 0x1 PUSH1 0x1 PUSH1 0xA0 SHL SUB AND SWAP1 PUSH4 0xA9059CBB SWAP1 PUSH1 0x44 ADD PUSH1 0x20 PUSH1 0x40 MLOAD DUP1 DUP4 SUB DUP2 PUSH1 0x0 DUP8 GAS CALL ISZERO DUP1 ISZERO PUSH2 0x16CA JUMPI RETURNDATASIZE PUSH1 0x0 DUP1 RETURNDATACOPY RETURNDATASIZE PUSH1 0x0 REVERT JUMPDEST POP POP POP POP PUSH1 0x40 MLOAD RETURNDATASIZE PUSH1 0x1F NOT PUSH1 0x1F DUP3 ADD AND DUP3 ADD DUP1 PUSH1 0x40 MSTORE POP DUP2 ADD SWAP1 PUSH2 0x16EE SWAP2 SWAP1 PUSH2 0x2FAE JUMP JUMPDEST POP JUMPDEST PUSH1 0x1 PUSH1 0x1 PUSH1 0x70 SHL SUB DUP4 AND ISZERO PUSH2 0x179B JUMPI PUSH1 0x40 MLOAD PUSH4 0xA9059CBB PUSH1 0xE0 SHL DUP2 MSTORE CALLER PUSH1 0x4 DUP3 ADD MSTORE PUSH1 0x1 PUSH1 0x1 PUSH1 0x70 SHL SUB DUP5 AND PUSH1 0x24 DUP3 ADD MSTORE PUSH32 0x0 PUSH1 0x1 PUSH1 0x1 PUSH1 0xA0 SHL SUB AND SWAP1 PUSH4 0xA9059CBB SWAP1 PUSH1 0x44 ADD JUMPDEST PUSH1 0x20 PUSH1 0x40 MLOAD DUP1 DUP4 SUB DUP2 PUSH1 0x0 DUP8 GAS CALL ISZERO DUP1 ISZERO PUSH2 0x1775 JUMPI RETURNDATASIZE PUSH1 0x0 DUP1 RETURNDATACOPY RETURNDATASIZE PUSH1 0x0 REVERT JUMPDEST POP POP POP POP PUSH1 0x40 MLOAD RETURNDATASIZE PUSH1 0x1F NOT PUSH1 0x1F DUP3 ADD AND DUP3 ADD DUP1 PUSH1 0x40 MSTORE POP DUP2 ADD SWAP1 PUSH2 0x1799 SWAP2 SWAP1 PUSH2 0x2FAE JUMP JUMPDEST POP JUMPDEST POP SWAP3 POP SWAP3 POP SWAP3 JUMP JUMPDEST PUSH6 0xFFFFFFFFFFFF DUP3 AND PUSH1 0x0 SWAP1 DUP2 MSTORE PUSH1 0x1 PUSH1 0x20 MSTORE PUSH1 0x40 SWAP1 KECCAK256 DUP1 SLOAD PUSH1 0x1 PUSH1 0x60 SHL SWAP1 DIV PUSH1 0x1 PUSH1 0x1 PUSH1 0xA0 SHL SUB AND CALLER EQ PUSH2 0x17EA JUMPI PUSH1 0x40 MLOAD PUSH3 0x461BCD PUSH1 0xE5 SHL DUP2 MSTORE PUSH1 0x4 ADD PUSH2 0x6E8 SWAP1 PUSH2 0x3107 JUMP JUMPDEST DUP1 SLOAD PUSH6 0xFFFFFFFFFFFF AND PUSH6 0xFFFFFFFFFFFE NOT ADD PUSH2 0x1819 JUMPI PUSH1 0x40 MLOAD PUSH3 0x461BCD PUSH1 0xE5 SHL DUP2 MSTORE PUSH1 0x4 ADD PUSH2 0x6E8 SWAP1 PUSH2 0x313E JUMP JUMPDEST PUSH1 0x1 PUSH1 0x1 PUSH1 0xA0 SHL SUB DUP3 AND PUSH2 0x186F JUMPI PUSH1 0x40 MLOAD PUSH3 0x461BCD PUSH1 0xE5 SHL DUP2 MSTORE PUSH1 0x20 PUSH1 0x4 DUP3 ADD MSTORE PUSH1 0x1C PUSH1 0x24 DUP3 ADD MSTORE PUSH32 0x6E65774F776E65722063616E2774206265206164647265737328302900000000 PUSH1 0x44 DUP3 ADD MSTORE PUSH1 0x64 ADD PUSH2 0x6E8 JUMP JUMPDEST DUP1 SLOAD PUSH1 0x1 PUSH1 0x1 PUSH1 0xA0 SHL SUB SWAP1 SWAP3 AND PUSH1 0x1 PUSH1 0x60 SHL MUL PUSH1 0x1 PUSH1 0x1 PUSH1 0x60 SHL SUB SWAP1 SWAP3 AND SWAP2 SWAP1 SWAP2 OR SWAP1 SSTORE POP JUMP JUMPDEST PUSH1 0x2 SLOAD PUSH1 0x0 SWAP1 DUP2 SWAP1 DUP2 SWAP1 PUSH6 0xFFFFFFFFFFFF AND DUP2 SUB PUSH2 0x18EB JUMPI PUSH1 0x40 MLOAD PUSH3 0x461BCD PUSH1 0xE5 SHL DUP2 MSTORE PUSH1 0x20 PUSH1 0x4 DUP3 ADD MSTORE PUSH1 0x12 PUSH1 0x24 DUP3 ADD MSTORE PUSH18 0x6275794F726465727320697320656D707479 PUSH1 0x70 SHL PUSH1 0x44 DUP3 ADD MSTORE PUSH1 0x64 ADD PUSH2 0x6E8 JUMP JUMPDEST PUSH1 0x40 MLOAD PUSH4 0x23B872DD PUSH1 0xE0 SHL DUP2 MSTORE PUSH1 0x1 PUSH1 0x1 PUSH1 0xA0 SHL SUB PUSH32 0x0 AND SWAP1 PUSH4 0x23B872DD SWAP1 PUSH2 0x1944 SWAP1 CALLER SWAP1 ADDRESS SWAP1 PUSH1 0x1 PUSH1 0x1 PUSH1 0x70 SHL SUB DUP12 AND SWAP1 PUSH1 0x4 ADD PUSH2 0x2F8A JUMP JUMPDEST PUSH1 0x20 PUSH1 0x40 MLOAD DUP1 DUP4 SUB DUP2 PUSH1 0x0 DUP8 GAS CALL ISZERO DUP1 ISZERO PUSH2 0x1963 JUMPI RETURNDATASIZE PUSH1 0x0 DUP1 RETURNDATACOPY RETURNDATASIZE PUSH1 0x0 REVERT JUMPDEST POP POP POP POP PUSH1 0x40 MLOAD RETURNDATASIZE PUSH1 0x1F NOT PUSH1 0x1F DUP3 ADD AND DUP3 ADD DUP1 PUSH1 0x40 MSTORE POP DUP2 ADD SWAP1 PUSH2 0x1987 SWAP2 SWAP1 PUSH2 0x2FAE JUMP JUMPDEST POP DUP5 JUMPDEST PUSH1 0x2 SLOAD PUSH6 0xFFFFFFFFFFFF AND ISZERO PUSH2 0x1D3A JUMPI PUSH1 0x2 SLOAD PUSH6 0xFFFFFFFFFFFF AND PUSH1 0x0 SWAP1 DUP2 MSTORE PUSH1 0x1 PUSH1 0x20 DUP2 SWAP1 MSTORE PUSH1 0x40 SWAP1 SWAP2 KECCAK256 SWAP1 DUP2 ADD SLOAD PUSH2 0x19D8 SWAP1 PUSH1 0x1 PUSH1 0x1 PUSH1 0x70 SHL SUB PUSH1 0x1 PUSH1 0x70 SHL SWAP1 SWAP2 DIV DUP2 AND SWAP1 DUP9 AND PUSH2 0x300B JUMP JUMPDEST PUSH1 0x1 DUP3 ADD SLOAD PUSH2 0x19F4 SWAP1 PUSH1 0x1 PUSH1 0x1 PUSH1 0x70 SHL SUB SWAP1 DUP2 AND SWAP1 DUP11 AND PUSH2 0x300B JUMP JUMPDEST LT ISZERO PUSH2 0x1A00 JUMPI POP PUSH2 0x1D3A JUMP JUMPDEST PUSH1 0x1 DUP2 ADD SLOAD PUSH1 0x0 SWAP1 PUSH4 0xFFFFFFFF SWAP1 PUSH2 0x1A2B SWAP1 PUSH1 0x1 PUSH1 0x1 PUSH1 0x70 SHL SUB DUP2 AND SWAP1 PUSH1 0x1 PUSH1 0xE0 SHL SWAP1 DIV DUP4 AND PUSH2 0x300B JUMP JUMPDEST PUSH2 0x1A35 SWAP2 SWAP1 PUSH2 0x303E JUMP JUMPDEST PUSH1 0x1 DUP4 ADD SLOAD SWAP1 SWAP2 POP PUSH1 0x0 SWAP1 PUSH1 0x1 PUSH1 0x1 PUSH1 0x70 SHL SUB DUP1 DUP3 AND SWAP2 PUSH2 0x1A62 SWAP2 PUSH1 0x1 PUSH1 0x70 SHL SWAP1 SWAP2 DIV DUP2 AND SWAP1 DUP6 AND PUSH2 0x300B JUMP JUMPDEST PUSH2 0x1A6C SWAP2 SWAP1 PUSH2 0x303E JUMP JUMPDEST PUSH1 0x1 DUP5 ADD SLOAD PUSH2 0x1A8B SWAP2 SWAP1 PUSH1 0x1 PUSH1 0x70 SHL SWAP1 DIV PUSH1 0x1 PUSH1 0x1 PUSH1 0x70 SHL SUB AND PUSH2 0x3052 JUMP JUMPDEST SWAP1 POP DUP1 PUSH1 0x1 PUSH1 0x1 PUSH1 0x70 SHL SUB AND DUP5 PUSH1 0x1 PUSH1 0x1 PUSH1 0x70 SHL SUB AND LT PUSH2 0x1BD9 JUMPI PUSH2 0x1AB0 DUP2 DUP6 PUSH2 0x3052 JUMP JUMPDEST PUSH1 0x1 DUP5 ADD SLOAD SWAP1 SWAP5 POP PUSH2 0x1ACC SWAP1 DUP4 SWAP1 PUSH1 0x1 PUSH1 0x1 PUSH1 0x70 SHL SUB AND PUSH2 0x3052 JUMP JUMPDEST PUSH2 0x1AD6 SWAP1 DUP8 PUSH2 0x3079 JUMP JUMPDEST SWAP6 POP PUSH2 0x1AE3 DUP4 PUSH1 0x1 PUSH2 0x2DEC JUMP JUMPDEST PUSH1 0x1 DUP4 ADD DUP1 SLOAD PUSH1 0x1 PUSH1 0x1 PUSH1 0xE0 SHL SUB AND PUSH1 0x1 PUSH1 0x1 PUSH1 0xE0 SHL SUB NOT OR SWAP1 SSTORE DUP3 SLOAD PUSH1 0x40 MLOAD PUSH4 0xA9059CBB PUSH1 0xE0 SHL DUP2 MSTORE PUSH1 0x1 PUSH1 0x1 PUSH1 0xA0 SHL SUB PUSH1 0x1 PUSH1 0x60 SHL SWAP1 SWAP3 DIV DUP3 AND PUSH1 0x4 DUP3 ADD MSTORE PUSH1 0x1 PUSH1 0x1 PUSH1 0x70 SHL SUB DUP4 AND PUSH1 0x24 DUP3 ADD MSTORE PUSH32 0x0 SWAP1 SWAP2 AND SWAP1 PUSH4 0xA9059CBB SWAP1 PUSH1 0x44 ADD PUSH1 0x20 PUSH1 0x40 MLOAD DUP1 DUP4 SUB DUP2 PUSH1 0x0 DUP8 GAS CALL ISZERO DUP1 ISZERO PUSH2 0x1B80 JUMPI RETURNDATASIZE PUSH1 0x0 DUP1 RETURNDATACOPY RETURNDATASIZE PUSH1 0x0 REVERT JUMPDEST POP POP POP POP PUSH1 0x40 MLOAD RETURNDATASIZE PUSH1 0x1F NOT PUSH1 0x1F DUP3 ADD AND DUP3 ADD DUP1 PUSH1 0x40 MSTORE POP DUP2 ADD SWAP1 PUSH2 0x1BA4 SWAP2 SWAP1 PUSH2 0x2FAE JUMP JUMPDEST POP DUP3 SLOAD PUSH6 0xFFFFFFFFFFFF NOT SWAP1 DUP2 AND PUSH6 0xFFFFFFFFFFFF SWAP1 DUP2 OR DUP1 DUP7 SSTORE PUSH1 0x2 DUP1 SLOAD SWAP1 SWAP4 AND PUSH1 0x1 PUSH1 0x30 SHL SWAP1 SWAP2 DIV SWAP1 SWAP2 AND OR SWAP1 SSTORE PUSH2 0x1D32 JUMP JUMPDEST PUSH1 0x1 DUP4 ADD SLOAD PUSH1 0x0 SWAP1 PUSH1 0x1 PUSH1 0x1 PUSH1 0x70 SHL SUB PUSH1 0x1 PUSH1 0x70 SHL DUP3 DIV DUP2 AND SWAP2 PUSH2 0x1C02 SWAP2 SWAP1 DUP2 AND SWAP1 DUP9 AND PUSH2 0x300B JUMP JUMPDEST PUSH2 0x1C0C SWAP2 SWAP1 PUSH2 0x303E JUMP JUMPDEST SWAP1 POP PUSH2 0x1C18 DUP2 DUP9 PUSH2 0x3079 JUMP JUMPDEST SWAP7 POP PUSH2 0x1C24 DUP2 DUP5 PUSH2 0x3079 JUMP JUMPDEST PUSH1 0x1 DUP6 ADD SLOAD SWAP1 SWAP4 POP PUSH1 0x1 PUSH1 0x1 PUSH1 0x70 SHL SUB AND PUSH2 0x1C43 PUSH4 0xFFFFFFFF DUP6 PUSH2 0x3099 JUMP JUMPDEST PUSH2 0x1C4D SWAP2 SWAP1 PUSH2 0x30C4 JUMP JUMPDEST PUSH2 0x1C58 SWAP1 PUSH1 0x1 PUSH2 0x30EA JUMP JUMPDEST PUSH1 0x1 DUP6 ADD DUP1 SLOAD PUSH1 0x1 PUSH1 0x1 PUSH1 0xE0 SHL SUB AND PUSH1 0x1 PUSH1 0xE0 SHL PUSH4 0xFFFFFFFF SWAP4 SWAP1 SWAP4 AND SWAP3 SWAP1 SWAP3 MUL SWAP2 SWAP1 SWAP2 OR SWAP1 SSTORE DUP4 SLOAD PUSH1 0x40 MLOAD PUSH4 0xA9059CBB PUSH1 0xE0 SHL DUP2 MSTORE PUSH1 0x1 PUSH1 0x60 SHL SWAP1 SWAP2 DIV PUSH1 0x1 PUSH1 0x1 PUSH1 0xA0 SHL SUB SWAP1 DUP2 AND PUSH1 0x4 DUP4 ADD MSTORE PUSH1 0x1 PUSH1 0x1 PUSH1 0x70 SHL SUB DUP8 AND PUSH1 0x24 DUP4 ADD MSTORE PUSH32 0x0 AND SWAP1 PUSH4 0xA9059CBB SWAP1 PUSH1 0x44 ADD PUSH1 0x20 PUSH1 0x40 MLOAD DUP1 DUP4 SUB DUP2 PUSH1 0x0 DUP8 GAS CALL ISZERO DUP1 ISZERO PUSH2 0x1D00 JUMPI RETURNDATASIZE PUSH1 0x0 DUP1 RETURNDATACOPY RETURNDATASIZE PUSH1 0x0 REVERT JUMPDEST POP POP POP POP PUSH1 0x40 MLOAD RETURNDATASIZE PUSH1 0x1F NOT PUSH1 0x1F DUP3 ADD AND DUP3 ADD DUP1 PUSH1 0x40 MSTORE POP DUP2 ADD SWAP1 PUSH2 0x1D24 SWAP2 SWAP1 PUSH2 0x2FAE JUMP JUMPDEST POP PUSH1 0x0 SWAP5 POP POP POP POP POP PUSH2 0x1D3A JUMP JUMPDEST POP POP POP PUSH2 0x198A JUMP JUMPDEST PUSH2 0x1D44 DUP2 DUP8 PUSH2 0x3052 JUMP JUMPDEST SWAP4 POP PUSH1 0x0 DUP5 PUSH1 0x1 PUSH1 0x1 PUSH1 0x70 SHL SUB AND GT PUSH2 0x1D89 JUMPI PUSH1 0x40 MLOAD PUSH3 0x461BCD PUSH1 0xE5 SHL DUP2 MSTORE PUSH1 0x20 PUSH1 0x4 DUP3 ADD MSTORE PUSH1 0x7 PUSH1 0x24 DUP3 ADD MSTORE PUSH7 0x1B9BC81919585B PUSH1 0xCA SHL PUSH1 0x44 DUP3 ADD MSTORE PUSH1 0x64 ADD PUSH2 0x6E8 JUMP JUMPDEST CALLER PUSH1 0x1 PUSH1 0x1 PUSH1 0xA0 SHL SUB PUSH32 0x0 AND EQ PUSH2 0x1EC2 JUMPI PUSH2 0x2710 PUSH2 0x1DE9 PUSH1 0xFF PUSH32 0x0 AND DUP7 PUSH2 0x3099 JUMP JUMPDEST PUSH2 0x1DF3 SWAP2 SWAP1 PUSH2 0x30C4 JUMP JUMPDEST SWAP2 POP PUSH1 0x1 PUSH1 0x1 PUSH1 0x70 SHL SUB DUP3 AND ISZERO PUSH2 0x1EC2 JUMPI PUSH1 0x40 MLOAD PUSH4 0x23B872DD PUSH1 0xE0 SHL DUP2 MSTORE PUSH1 0x1 PUSH1 0x1 PUSH1 0xA0 SHL SUB PUSH32 0x0 AND SWAP1 PUSH4 0x23B872DD SWAP1 PUSH2 0x1E7D SWAP1 CALLER SWAP1 PUSH32 0x0 SWAP1 PUSH1 0x1 PUSH1 0x1 PUSH1 0x70 SHL SUB DUP9 AND SWAP1 PUSH1 0x4 ADD PUSH2 0x2F8A JUMP JUMPDEST PUSH1 0x20 PUSH1 0x40 MLOAD DUP1 DUP4 SUB DUP2 PUSH1 0x0 DUP8 GAS CALL ISZERO DUP1 ISZERO PUSH2 0x1E9C JUMPI RETURNDATASIZE PUSH1 0x0 DUP1 RETURNDATACOPY RETURNDATASIZE PUSH1 0x0 REVERT JUMPDEST POP POP POP POP PUSH1 0x40 MLOAD RETURNDATASIZE PUSH1 0x1F NOT PUSH1 0x1F DUP3 ADD AND DUP3 ADD DUP1 PUSH1 0x40 MSTORE POP DUP2 ADD SWAP1 PUSH2 0x1EC0 SWAP2 SWAP1 PUSH2 0x2FAE JUMP JUMPDEST POP JUMPDEST PUSH1 0x1 PUSH1 0x1 PUSH1 0x70 SHL SUB DUP2 AND ISZERO PUSH2 0x1F6C JUMPI PUSH1 0x40 MLOAD PUSH4 0xA9059CBB PUSH1 0xE0 SHL DUP2 MSTORE CALLER PUSH1 0x4 DUP3 ADD MSTORE PUSH1 0x1 PUSH1 0x1 PUSH1 0x70 SHL SUB DUP3 AND PUSH1 0x24 DUP3 ADD MSTORE PUSH32 0x0 PUSH1 0x1 PUSH1 0x1 PUSH1 0xA0 SHL SUB AND SWAP1 PUSH4 0xA9059CBB SWAP1 PUSH1 0x44 ADD PUSH1 0x20 PUSH1 0x40 MLOAD DUP1 DUP4 SUB DUP2 PUSH1 0x0 DUP8 GAS CALL ISZERO DUP1 ISZERO PUSH2 0x1F46 JUMPI RETURNDATASIZE PUSH1 0x0 DUP1 RETURNDATACOPY RETURNDATASIZE PUSH1 0x0 REVERT JUMPDEST POP POP POP POP PUSH1 0x40 MLOAD RETURNDATASIZE PUSH1 0x1F NOT PUSH1 0x1F DUP3 ADD AND DUP3 ADD DUP1 PUSH1 0x40 MSTORE POP DUP2 ADD SWAP1 PUSH2 0x1F6A SWAP2 SWAP1 PUSH2 0x2FAE JUMP JUMPDEST POP JUMPDEST PUSH1 0x1 PUSH1 0x1 PUSH1 0x70 SHL SUB DUP4 AND ISZERO PUSH2 0x179B JUMPI PUSH1 0x40 MLOAD PUSH4 0xA9059CBB PUSH1 0xE0 SHL DUP2 MSTORE CALLER PUSH1 0x4 DUP3 ADD MSTORE PUSH1 0x1 PUSH1 0x1 PUSH1 0x70 SHL SUB DUP5 AND PUSH1 0x24 DUP3 ADD MSTORE PUSH32 0x0 PUSH1 0x1 PUSH1 0x1 PUSH1 0xA0 SHL SUB AND SWAP1 PUSH4 0xA9059CBB SWAP1 PUSH1 0x44 ADD PUSH2 0x1756 JUMP JUMPDEST PUSH6 0xFFFFFFFFFFFF DUP2 AND PUSH1 0x0 SWAP1 DUP2 MSTORE PUSH1 0x1 PUSH1 0x20 MSTORE PUSH1 0x40 DUP2 KECCAK256 DUP1 SLOAD PUSH1 0x1 PUSH1 0x60 SHL SWAP1 DIV PUSH1 0x1 PUSH1 0x1 PUSH1 0xA0 SHL SUB AND CALLER EQ PUSH2 0x201D JUMPI PUSH1 0x40 MLOAD PUSH3 0x461BCD PUSH1 0xE5 SHL DUP2 MSTORE PUSH1 0x4 ADD PUSH2 0x6E8 SWAP1 PUSH2 0x3107 JUMP JUMPDEST DUP1 SLOAD PUSH6 0xFFFFFFFFFFFF AND PUSH6 0xFFFFFFFFFFFE NOT ADD PUSH2 0x204C JUMPI PUSH1 0x40 MLOAD PUSH3 0x461BCD PUSH1 0xE5 SHL DUP2 MSTORE PUSH1 0x4 ADD PUSH2 0x6E8 SWAP1 PUSH2 0x313E JUMP JUMPDEST PUSH2 0x2057 DUP2 PUSH1 0x1 PUSH2 0x2DEC JUMP JUMPDEST PUSH1 0x2 SLOAD PUSH6 0xFFFFFFFFFFFF DUP1 DUP6 AND SWAP2 AND SUB PUSH2 0x2093 JUMPI DUP1 SLOAD PUSH1 0x2 DUP1 SLOAD PUSH1 0x1 PUSH1 0x30 SHL SWAP1 SWAP3 DIV PUSH6 0xFFFFFFFFFFFF AND PUSH6 0xFFFFFFFFFFFF NOT SWAP1 SWAP3 AND SWAP2 SWAP1 SWAP2 OR SWAP1 SSTORE JUMPDEST DUP1 SLOAD PUSH6 0xFFFFFFFFFFFF NOT AND PUSH6 0xFFFFFFFFFFFF OR DUP2 SSTORE PUSH1 0x1 DUP2 ADD SLOAD PUSH1 0x0 SWAP1 PUSH4 0xFFFFFFFF SWAP1 PUSH2 0x20D3 SWAP1 PUSH1 0x1 PUSH1 0x1 PUSH1 0x70 SHL SUB DUP2 AND SWAP1 PUSH1 0x1 PUSH1 0xE0 SHL SWAP1 DIV DUP4 AND PUSH2 0x300B JUMP JUMPDEST PUSH2 0x20DD SWAP2 SWAP1 PUSH2 0x303E JUMP JUMPDEST PUSH1 0x1 DUP4 ADD SLOAD SWAP1 SWAP2 POP PUSH2 0x20F9 SWAP1 DUP3 SWAP1 PUSH1 0x1 PUSH1 0x1 PUSH1 0x70 SHL SUB AND PUSH2 0x3052 JUMP JUMPDEST SWAP3 POP PUSH1 0x1 PUSH1 0x1 PUSH1 0x70 SHL SUB DUP4 AND ISZERO PUSH2 0x21B2 JUMPI DUP2 SLOAD PUSH1 0x40 MLOAD PUSH4 0xA9059CBB PUSH1 0xE0 SHL DUP2 MSTORE PUSH1 0x1 PUSH1 0x60 SHL SWAP1 SWAP2 DIV PUSH1 0x1 PUSH1 0x1 PUSH1 0xA0 SHL SUB SWAP1 DUP2 AND PUSH1 0x4 DUP4 ADD MSTORE PUSH1 0x1 PUSH1 0x1 PUSH1 0x70 SHL SUB DUP6 AND PUSH1 0x24 DUP4 ADD MSTORE PUSH32 0x0 AND SWAP1 PUSH4 0xA9059CBB SWAP1 PUSH1 0x44 ADD JUMPDEST PUSH1 0x20 PUSH1 0x40 MLOAD DUP1 DUP4 SUB DUP2 PUSH1 0x0 DUP8 GAS CALL ISZERO DUP1 ISZERO PUSH2 0x218C JUMPI RETURNDATASIZE PUSH1 0x0 DUP1 RETURNDATACOPY RETURNDATASIZE PUSH1 0x0 REVERT JUMPDEST POP POP POP POP PUSH1 0x40 MLOAD RETURNDATASIZE PUSH1 0x1F NOT PUSH1 0x1F DUP3 ADD AND DUP3 ADD DUP1 PUSH1 0x40 MSTORE POP DUP2 ADD SWAP1 PUSH2 0x21B0 SWAP2 SWAP1 PUSH2 0x2FAE JUMP JUMPDEST POP JUMPDEST POP POP SWAP2 SWAP1 POP JUMP JUMPDEST PUSH6 0xFFFFFFFFFFFF DUP2 AND PUSH1 0x0 SWAP1 DUP2 MSTORE PUSH1 0x1 PUSH1 0x20 DUP2 SWAP1 MSTORE PUSH1 0x40 DUP3 KECCAK256 ADD SLOAD PUSH1 0x1 PUSH1 0x1 PUSH1 0x70 SHL SUB AND ISZERO PUSH2 0x21EA JUMPI POP PUSH1 0x1 SWAP2 SWAP1 POP JUMP JUMPDEST PUSH6 0xFFFFFFFFFFFF DUP3 AND PUSH1 0x0 SWAP1 DUP2 MSTORE PUSH1 0x3 PUSH1 0x20 MSTORE PUSH1 0x40 SWAP1 KECCAK256 PUSH1 0x1 ADD SLOAD PUSH1 0x1 PUSH1 0x1 PUSH1 0x70 SHL SUB AND ISZERO PUSH2 0x221B JUMPI POP PUSH1 0x0 SWAP2 SWAP1 POP JUMP JUMPDEST PUSH1 0x40 MLOAD PUSH3 0x461BCD PUSH1 0xE5 SHL DUP2 MSTORE PUSH1 0x20 PUSH1 0x4 DUP3 ADD MSTORE PUSH1 0x14 PUSH1 0x24 DUP3 ADD MSTORE PUSH20 0x34B9A13ABC9D1037B93232B924B21032B93937B9 PUSH1 0x61 SHL PUSH1 0x44 DUP3 ADD MSTORE PUSH1 0x64 ADD PUSH2 0x6E8 JUMP JUMPDEST PUSH6 0xFFFFFFFFFFFF DUP2 AND PUSH1 0x0 SWAP1 DUP2 MSTORE PUSH1 0x3 PUSH1 0x20 MSTORE PUSH1 0x40 DUP2 KECCAK256 DUP1 SLOAD PUSH1 0x1 PUSH1 0x60 SHL SWAP1 DIV PUSH1 0x1 PUSH1 0x1 PUSH1 0xA0 SHL SUB AND CALLER EQ PUSH2 0x22A1 JUMPI PUSH1 0x40 MLOAD PUSH3 0x461BCD PUSH1 0xE5 SHL DUP2 MSTORE PUSH1 0x4 ADD PUSH2 0x6E8 SWAP1 PUSH2 0x3107 JUMP JUMPDEST DUP1 SLOAD PUSH6 0xFFFFFFFFFFFF AND PUSH6 0xFFFFFFFFFFFE NOT ADD PUSH2 0x22D0 JUMPI PUSH1 0x40 MLOAD PUSH3 0x461BCD PUSH1 0xE5 SHL DUP2 MSTORE PUSH1 0x4 ADD PUSH2 0x6E8 SWAP1 PUSH2 0x313E JUMP JUMPDEST PUSH2 0x22DB DUP2 PUSH1 0x3 PUSH2 0x2DEC JUMP JUMPDEST PUSH1 0x4 SLOAD PUSH6 0xFFFFFFFFFFFF DUP1 DUP6 AND SWAP2 AND SUB PUSH2 0x2317 JUMPI DUP1 SLOAD PUSH1 0x4 DUP1 SLOAD PUSH1 0x1 PUSH1 0x30 SHL SWAP1 SWAP3 DIV PUSH6 0xFFFFFFFFFFFF AND PUSH6 0xFFFFFFFFFFFF NOT SWAP1 SWAP3 AND SWAP2 SWAP1 SWAP2 OR SWAP1 SSTORE JUMPDEST DUP1 SLOAD PUSH6 0xFFFFFFFFFFFF NOT AND PUSH6 0xFFFFFFFFFFFF OR DUP2 SSTORE PUSH1 0x1 DUP2 ADD SLOAD PUSH1 0x0 SWAP1 PUSH4 0xFFFFFFFF SWAP1 PUSH2 0x2357 SWAP1 PUSH1 0x1 PUSH1 0x1 PUSH1 0x70 SHL SUB DUP2 AND SWAP1 PUSH1 0x1 PUSH1 0xE0 SHL SWAP1 DIV DUP4 AND PUSH2 0x300B JUMP JUMPDEST PUSH2 0x2361 SWAP2 SWAP1 PUSH2 0x303E JUMP JUMPDEST PUSH1 0x1 DUP4 ADD SLOAD SWAP1 SWAP2 POP PUSH2 0x237D SWAP1 DUP3 SWAP1 PUSH1 0x1 PUSH1 0x1 PUSH1 0x70 SHL SUB AND PUSH2 0x3052 JUMP JUMPDEST SWAP3 POP PUSH1 0x1 PUSH1 0x1 PUSH1 0x70 SHL SUB DUP4 AND ISZERO PUSH2 0x21B2 JUMPI DUP2 SLOAD PUSH1 0x40 MLOAD PUSH4 0xA9059CBB PUSH1 0xE0 SHL DUP2 MSTORE PUSH1 0x1 PUSH1 0x60 SHL SWAP1 SWAP2 DIV PUSH1 0x1 PUSH1 0x1 PUSH1 0xA0 SHL SUB SWAP1 DUP2 AND PUSH1 0x4 DUP4 ADD MSTORE PUSH1 0x1 PUSH1 0x1 PUSH1 0x70 SHL SUB DUP6 AND PUSH1 0x24 DUP4 ADD MSTORE PUSH32 0x0 AND SWAP1 PUSH4 0xA9059CBB SWAP1 PUSH1 0x44 ADD PUSH2 0x216D JUMP JUMPDEST PUSH6 0xFFFFFFFFFFFF DUP3 AND PUSH1 0x0 SWAP1 DUP2 MSTORE PUSH1 0x3 PUSH1 0x20 MSTORE PUSH1 0x40 SWAP1 KECCAK256 DUP1 SLOAD PUSH1 0x1 PUSH1 0x60 SHL SWAP1 DIV PUSH1 0x1 PUSH1 0x1 PUSH1 0xA0 SHL SUB AND CALLER EQ PUSH2 0x243C JUMPI PUSH1 0x40 MLOAD PUSH3 0x461BCD PUSH1 0xE5 SHL DUP2 MSTORE PUSH1 0x4 ADD PUSH2 0x6E8 SWAP1 PUSH2 0x3107 JUMP JUMPDEST DUP1 SLOAD PUSH6 0xFFFFFFFFFFFF AND PUSH6 0xFFFFFFFFFFFE NOT ADD PUSH2 0x186F JUMPI PUSH1 0x40 MLOAD PUSH3 0x461BCD PUSH1 0xE5 SHL DUP2 MSTORE PUSH1 0x4 ADD PUSH2 0x6E8 SWAP1 PUSH2 0x313E JUMP JUMPDEST PUSH1 0x0 DUP1 DUP5 PUSH1 0x1 PUSH1 0x1 PUSH1 0x70 SHL SUB AND GT PUSH2 0x24C5 JUMPI PUSH1 0x40 MLOAD PUSH3 0x461BCD PUSH1 0xE5 SHL DUP2 MSTORE PUSH1 0x20 PUSH1 0x4 DUP3 ADD MSTORE PUSH1 0x1B PUSH1 0x24 DUP3 ADD MSTORE PUSH32 0x746F6B656E30496E20616D6F756E742063616E6E6F7420626520300000000000 PUSH1 0x44 DUP3 ADD MSTORE PUSH1 0x64 ADD PUSH2 0x6E8 JUMP JUMPDEST PUSH1 0x0 DUP4 PUSH1 0x1 PUSH1 0x1 PUSH1 0x70 SHL SUB AND GT PUSH2 0x251E JUMPI PUSH1 0x40 MLOAD PUSH3 0x461BCD PUSH1 0xE5 SHL DUP2 MSTORE PUSH1 0x20 PUSH1 0x4 DUP3 ADD MSTORE PUSH1 0x1C PUSH1 0x24 DUP3 ADD MSTORE PUSH32 0x746F6B656E314F757420616D6F756E742063616E6E6F74206265203000000000 PUSH1 0x44 DUP3 ADD MSTORE PUSH1 0x64 ADD PUSH2 0x6E8 JUMP JUMPDEST PUSH1 0x40 MLOAD PUSH4 0x23B872DD PUSH1 0xE0 SHL DUP2 MSTORE PUSH1 0x1 PUSH1 0x1 PUSH1 0xA0 SHL SUB PUSH32 0x0 AND SWAP1 PUSH4 0x23B872DD SWAP1 PUSH2 0x2577 SWAP1 CALLER SWAP1 ADDRESS SWAP1 PUSH1 0x1 PUSH1 0x1 PUSH1 0x70 SHL SUB DUP11 AND SWAP1 PUSH1 0x4 ADD PUSH2 0x2F8A JUMP JUMPDEST PUSH1 0x20 PUSH1 0x40 MLOAD DUP1 DUP4 SUB DUP2 PUSH1 0x0 DUP8 GAS CALL ISZERO DUP1 ISZERO PUSH2 0x2596 JUMPI RETURNDATASIZE PUSH1 0x0 DUP1 RETURNDATACOPY RETURNDATASIZE PUSH1 0x0 REVERT JUMPDEST POP POP POP POP PUSH1 0x40 MLOAD RETURNDATASIZE PUSH1 0x1F NOT PUSH1 0x1F DUP3 ADD AND DUP3 ADD DUP1 PUSH1 0x40 MSTORE POP DUP2 ADD SWAP1 PUSH2 0x25BA SWAP2 SWAP1 PUSH2 0x2FAE JUMP JUMPDEST POP PUSH1 0x0 DUP1 SLOAD DUP2 SWAP1 PUSH2 0x25D2 SWAP1 PUSH6 0xFFFFFFFFFFFF AND PUSH2 0x2FE6 JUMP JUMPDEST DUP3 SLOAD PUSH2 0x100 SWAP3 SWAP1 SWAP3 EXP PUSH6 0xFFFFFFFFFFFF DUP2 DUP2 MUL NOT SWAP1 SWAP4 AND SWAP2 DUP4 AND MUL OR SWAP1 SWAP2 SSTORE PUSH1 0x4 SLOAD AND PUSH1 0x0 SUB PUSH2 0x2705 JUMPI POP PUSH1 0x40 DUP1 MLOAD PUSH1 0xC0 DUP2 ADD DUP3 MSTORE PUSH1 0x0 DUP1 DUP3 MSTORE PUSH1 0x20 DUP1 DUP4 ADD DUP3 DUP2 MSTORE CALLER DUP5 DUP7 ADD SWAP1 DUP2 MSTORE PUSH1 0x1 PUSH1 0x1 PUSH1 0x70 SHL SUB DUP1 DUP11 AND PUSH1 0x60 DUP8 ADD SWAP1 DUP2 MSTORE DUP10 DUP3 AND PUSH1 0x80 DUP9 ADD SWAP1 DUP2 MSTORE PUSH1 0xA0 DUP9 ADD DUP8 DUP2 MSTORE DUP8 SLOAD PUSH6 0xFFFFFFFFFFFF SWAP1 DUP2 AND DUP10 MSTORE PUSH1 0x3 SWAP1 SWAP8 MSTORE SWAP9 DUP8 KECCAK256 SWAP8 MLOAD DUP9 SLOAD SWAP6 MLOAD SWAP5 MLOAD PUSH1 0x1 PUSH1 0x1 PUSH1 0xA0 SHL SUB AND PUSH1 0x1 PUSH1 0x60 SHL MUL PUSH1 0x1 PUSH1 0x1 PUSH1 0x60 SHL SUB SWAP6 DUP9 AND PUSH1 0x1 PUSH1 0x30 SHL MUL PUSH1 0x1 PUSH1 0x1 PUSH1 0x60 SHL SUB NOT SWAP1 SWAP8 AND SWAP2 DUP9 AND SWAP2 SWAP1 SWAP2 OR SWAP6 SWAP1 SWAP6 OR SWAP4 SWAP1 SWAP4 AND SWAP4 SWAP1 SWAP4 OR DUP7 SSTORE SWAP2 MLOAD PUSH1 0x1 SWAP6 SWAP1 SWAP6 ADD DUP1 SLOAD SWAP2 MLOAD SWAP7 MLOAD PUSH4 0xFFFFFFFF AND PUSH1 0x1 PUSH1 0xE0 SHL MUL PUSH1 0x1 PUSH1 0x1 PUSH1 0xE0 SHL SUB SWAP8 DUP5 AND PUSH1 0x1 PUSH1 0x70 SHL MUL PUSH1 0x1 PUSH1 0x1 PUSH1 0xE0 SHL SUB NOT SWAP1 SWAP4 AND SWAP7 SWAP1 SWAP4 AND SWAP6 SWAP1 SWAP6 OR OR SWAP5 SWAP1 SWAP5 AND SWAP4 SWAP1 SWAP4 OR SWAP1 SWAP2 SSTORE SLOAD PUSH1 0x4 DUP1 SLOAD PUSH6 0xFFFFFFFFFFFF NOT AND SWAP2 SWAP1 SWAP3 AND SWAP1 DUP2 OR SWAP1 SWAP2 SSTORE PUSH2 0x1011 JUMP JUMPDEST DUP2 PUSH6 0xFFFFFFFFFFFF AND PUSH1 0x0 SUB PUSH2 0x28D4 JUMPI PUSH1 0x4 SLOAD PUSH6 0xFFFFFFFFFFFF AND PUSH1 0x0 SWAP1 DUP2 MSTORE PUSH1 0x3 PUSH1 0x20 MSTORE PUSH1 0x40 SWAP1 KECCAK256 PUSH1 0x1 DUP2 ADD SLOAD PUSH2 0x2749 SWAP1 PUSH1 0x1 PUSH1 0x1 PUSH1 0x70 SHL SUB DUP1 DUP8 AND SWAP2 AND PUSH2 0x300B JUMP JUMPDEST PUSH1 0x1 DUP3 ADD SLOAD PUSH2 0x276B SWAP1 PUSH1 0x1 PUSH1 0x1 PUSH1 0x70 SHL SUB DUP1 DUP10 AND SWAP2 PUSH1 0x1 PUSH1 0x70 SHL SWAP1 DIV AND PUSH2 0x300B JUMP JUMPDEST GT PUSH2 0x27B8 JUMPI PUSH1 0x40 MLOAD PUSH3 0x461BCD PUSH1 0xE5 SHL DUP2 MSTORE PUSH1 0x20 PUSH1 0x4 DUP3 ADD MSTORE PUSH1 0x1A PUSH1 0x24 DUP3 ADD MSTORE PUSH32 0x796F7572207072696365206D757374203C20746F704F72646572000000000000 PUSH1 0x44 DUP3 ADD MSTORE PUSH1 0x64 ADD PUSH2 0x6E8 JUMP JUMPDEST PUSH1 0x0 DUP1 SLOAD DUP3 SLOAD PUSH6 0xFFFFFFFFFFFF NOT SWAP1 DUP2 AND PUSH6 0xFFFFFFFFFFFF SWAP3 DUP4 AND OR SWAP1 SWAP4 SSTORE PUSH1 0x40 DUP1 MLOAD PUSH1 0xC0 DUP2 ADD DUP3 MSTORE DUP4 DUP2 MSTORE PUSH1 0x4 DUP1 SLOAD DUP5 AND PUSH1 0x20 DUP1 DUP5 ADD SWAP2 DUP3 MSTORE CALLER DUP5 DUP7 ADD SWAP1 DUP2 MSTORE PUSH1 0x1 PUSH1 0x1 PUSH1 0x70 SHL SUB DUP1 DUP15 AND PUSH1 0x60 DUP8 ADD SWAP1 DUP2 MSTORE DUP14 DUP3 AND PUSH1 0x80 DUP9 ADD SWAP1 DUP2 MSTORE PUSH1 0xA0 DUP9 ADD DUP12 DUP2 MSTORE DUP12 SLOAD DUP12 AND DUP13 MSTORE PUSH1 0x3 SWAP1 SWAP6 MSTORE SWAP8 DUP11 KECCAK256 SWAP7 MLOAD DUP8 SLOAD SWAP6 MLOAD SWAP4 MLOAD PUSH1 0x1 PUSH1 0x1 PUSH1 0xA0 SHL SUB AND PUSH1 0x1 PUSH1 0x60 SHL MUL PUSH1 0x1 PUSH1 0x1 PUSH1 0x60 SHL SUB SWAP5 DUP12 AND PUSH1 0x1 PUSH1 0x30 SHL MUL PUSH1 0x1 PUSH1 0x1 PUSH1 0x60 SHL SUB NOT SWAP1 SWAP8 AND SWAP2 DUP12 AND SWAP2 SWAP1 SWAP2 OR SWAP6 SWAP1 SWAP6 OR SWAP3 SWAP1 SWAP3 AND SWAP4 SWAP1 SWAP4 OR DUP6 SSTORE MLOAD PUSH1 0x1 SWAP5 SWAP1 SWAP5 ADD DUP1 SLOAD SWAP6 MLOAD SWAP2 MLOAD PUSH4 0xFFFFFFFF AND PUSH1 0x1 PUSH1 0xE0 SHL MUL PUSH1 0x1 PUSH1 0x1 PUSH1 0xE0 SHL SUB SWAP3 DUP5 AND PUSH1 0x1 PUSH1 0x70 SHL MUL PUSH1 0x1 PUSH1 0x1 PUSH1 0xE0 SHL SUB NOT SWAP1 SWAP8 AND SWAP6 SWAP1 SWAP4 AND SWAP5 SWAP1 SWAP5 OR SWAP5 SWAP1 SWAP5 OR SWAP4 SWAP1 SWAP4 AND SWAP3 SWAP1 SWAP3 OR SWAP1 SSTORE SWAP2 SLOAD DUP3 SLOAD SWAP1 SWAP4 AND SWAP3 AND SWAP2 DUP3 OR SWAP1 SSTORE SWAP1 POP PUSH2 0x1011 JUMP JUMPDEST PUSH6 0xFFFFFFFFFFFF DUP3 AND PUSH1 0x0 SWAP1 DUP2 MSTORE PUSH1 0x3 PUSH1 0x20 MSTORE PUSH1 0x40 DUP2 KECCAK256 PUSH1 0x1 DUP2 ADD SLOAD SWAP1 SWAP2 PUSH1 0x1 PUSH1 0x1 PUSH1 0x70 SHL SUB SWAP1 SWAP2 AND SWAP1 SUB PUSH2 0x2946 JUMPI PUSH1 0x40 MLOAD PUSH3 0x461BCD PUSH1 0xE5 SHL DUP2 MSTORE PUSH1 0x20 PUSH1 0x4 DUP3 ADD MSTORE PUSH1 0x18 PUSH1 0x24 DUP3 ADD MSTORE PUSH24 0x1899599BDC9953DC99195C881A5CC81B9BDD08195E1A5CDD PUSH1 0x42 SHL PUSH1 0x44 DUP3 ADD MSTORE PUSH1 0x64 ADD PUSH2 0x6E8 JUMP JUMPDEST DUP1 SLOAD PUSH6 0xFFFFFFFFFFFF AND PUSH6 0xFFFFFFFFFFFE NOT ADD PUSH2 0x29A5 JUMPI PUSH1 0x40 MLOAD PUSH3 0x461BCD PUSH1 0xE5 SHL DUP2 MSTORE PUSH1 0x20 PUSH1 0x4 DUP3 ADD MSTORE PUSH1 0x1C PUSH1 0x24 DUP3 ADD MSTORE PUSH32 0x6265666F72654F726465722069732072656D6F76656428646F6E652900000000 PUSH1 0x44 DUP3 ADD MSTORE PUSH1 0x64 ADD PUSH2 0x6E8 JUMP JUMPDEST PUSH1 0x1 DUP2 ADD SLOAD PUSH2 0x29C0 SWAP1 PUSH1 0x1 PUSH1 0x1 PUSH1 0x70 SHL SUB DUP1 DUP8 AND SWAP2 AND PUSH2 0x300B JUMP JUMPDEST PUSH1 0x1 DUP3 ADD SLOAD PUSH2 0x29E2 SWAP1 PUSH1 0x1 PUSH1 0x1 PUSH1 0x70 SHL SUB DUP1 DUP10 AND SWAP2 PUSH1 0x1 PUSH1 0x70 SHL SWAP1 DIV AND PUSH2 0x300B JUMP JUMPDEST GT ISZERO PUSH2 0x2A30 JUMPI PUSH1 0x40 MLOAD PUSH3 0x461BCD PUSH1 0xE5 SHL DUP2 MSTORE PUSH1 0x20 PUSH1 0x4 DUP3 ADD MSTORE PUSH1 0x1E PUSH1 0x24 DUP3 ADD MSTORE PUSH32 0x796F7572207072696365206D757374203E3D206265666F72654F726465720000 PUSH1 0x44 DUP3 ADD MSTORE PUSH1 0x64 ADD PUSH2 0x6E8 JUMP JUMPDEST DUP1 SLOAD PUSH1 0x1 PUSH1 0x30 SHL SWAP1 DIV PUSH6 0xFFFFFFFFFFFF AND PUSH1 0x0 SUB PUSH2 0x2B5C JUMPI PUSH1 0x0 DUP1 SLOAD DUP3 SLOAD PUSH1 0x1 PUSH1 0x30 SHL PUSH6 0xFFFFFFFFFFFF SWAP3 DUP4 AND DUP2 MUL PUSH6 0xFFFFFFFFFFFF PUSH1 0x30 SHL NOT SWAP1 SWAP3 AND SWAP2 SWAP1 SWAP2 OR SWAP1 SWAP4 SSTORE PUSH1 0x40 DUP1 MLOAD PUSH1 0xC0 DUP2 ADD DUP3 MSTORE DUP7 DUP4 AND DUP2 MSTORE PUSH1 0x20 DUP1 DUP3 ADD DUP6 DUP2 MSTORE CALLER DUP4 DUP6 ADD SWAP1 DUP2 MSTORE PUSH1 0x1 PUSH1 0x1 PUSH1 0x70 SHL SUB DUP1 DUP14 AND PUSH1 0x60 DUP7 ADD SWAP1 DUP2 MSTORE DUP13 DUP3 AND PUSH1 0x80 DUP8 ADD SWAP1 DUP2 MSTORE PUSH1 0xA0 DUP8 ADD DUP11 DUP2 MSTORE DUP11 SLOAD DUP11 AND DUP12 MSTORE PUSH1 0x3 SWAP1 SWAP7 MSTORE SWAP7 DUP10 KECCAK256 SWAP6 MLOAD DUP7 SLOAD SWAP5 MLOAD SWAP4 MLOAD PUSH1 0x1 PUSH1 0x1 PUSH1 0xA0 SHL SUB AND PUSH1 0x1 PUSH1 0x60 SHL MUL PUSH1 0x1 PUSH1 0x1 PUSH1 0x60 SHL SUB SWAP5 DUP11 AND SWAP1 SWAP12 MUL PUSH1 0x1 PUSH1 0x1 PUSH1 0x60 SHL SUB NOT SWAP1 SWAP6 AND SWAP1 DUP10 AND OR SWAP4 SWAP1 SWAP4 OR SWAP2 SWAP1 SWAP2 AND SWAP8 SWAP1 SWAP8 OR DUP4 SSTORE MLOAD PUSH1 0x1 SWAP3 SWAP1 SWAP3 ADD DUP1 SLOAD SWAP4 MLOAD SWAP2 MLOAD PUSH4 0xFFFFFFFF AND PUSH1 0x1 PUSH1 0xE0 SHL MUL PUSH1 0x1 PUSH1 0x1 PUSH1 0xE0 SHL SUB SWAP3 DUP9 AND PUSH1 0x1 PUSH1 0x70 SHL MUL PUSH1 0x1 PUSH1 0x1 PUSH1 0xE0 SHL SUB NOT SWAP1 SWAP6 AND SWAP4 SWAP1 SWAP8 AND SWAP3 SWAP1 SWAP3 OR SWAP3 SWAP1 SWAP3 OR SWAP2 SWAP1 SWAP2 AND SWAP4 SWAP1 SWAP4 OR SWAP1 SWAP3 SSTORE SLOAD AND SWAP1 POP PUSH2 0x1011 JUMP JUMPDEST DUP1 SLOAD PUSH1 0x1 PUSH1 0x30 SHL SWAP1 DIV PUSH6 0xFFFFFFFFFFFF AND PUSH1 0x0 SWAP1 DUP2 MSTORE PUSH1 0x3 PUSH1 0x20 MSTORE PUSH1 0x40 DUP2 KECCAK256 PUSH1 0x1 DUP2 ADD SLOAD SWAP1 SWAP2 PUSH1 0x1 PUSH1 0x1 PUSH1 0x70 SHL SUB SWAP1 SWAP2 AND SWAP1 SUB PUSH2 0x2BD5 JUMPI PUSH1 0x40 MLOAD PUSH3 0x461BCD PUSH1 0xE5 SHL DUP2 MSTORE PUSH1 0x20 PUSH1 0x4 DUP3 ADD MSTORE PUSH1 0x17 PUSH1 0x24 DUP3 ADD MSTORE PUSH23 0x18599D195C93DC99195C881A5CC81B9BDD08195E1A5CDD PUSH1 0x4A SHL PUSH1 0x44 DUP3 ADD MSTORE PUSH1 0x64 ADD PUSH2 0x6E8 JUMP JUMPDEST DUP1 SLOAD PUSH6 0xFFFFFFFFFFFF AND PUSH6 0xFFFFFFFFFFFE NOT ADD PUSH2 0x2C34 JUMPI PUSH1 0x40 MLOAD PUSH3 0x461BCD PUSH1 0xE5 SHL DUP2 MSTORE PUSH1 0x20 PUSH1 0x4 DUP3 ADD MSTORE PUSH1 0x1B PUSH1 0x24 DUP3 ADD MSTORE PUSH32 0x61667465724F726465722069732072656D6F76656428646F6E65290000000000 PUSH1 0x44 DUP3 ADD MSTORE PUSH1 0x64 ADD PUSH2 0x6E8 JUMP JUMPDEST PUSH1 0x1 DUP2 ADD SLOAD PUSH2 0x2C4F SWAP1 PUSH1 0x1 PUSH1 0x1 PUSH1 0x70 SHL SUB DUP1 DUP9 AND SWAP2 AND PUSH2 0x300B JUMP JUMPDEST PUSH1 0x1 DUP3 ADD SLOAD PUSH2 0x2C71 SWAP1 PUSH1 0x1 PUSH1 0x1 PUSH1 0x70 SHL SUB DUP1 DUP11 AND SWAP2 PUSH1 0x1 PUSH1 0x70 SHL SWAP1 DIV AND PUSH2 0x300B JUMP JUMPDEST GT PUSH2 0x2CBE JUMPI PUSH1 0x40 MLOAD PUSH3 0x461BCD PUSH1 0xE5 SHL DUP2 MSTORE PUSH1 0x20 PUSH1 0x4 DUP3 ADD MSTORE PUSH1 0x1C PUSH1 0x24 DUP3 ADD MSTORE PUSH32 0x796F7572207072696365206D757374203C2061667465724F7264657200000000 PUSH1 0x44 DUP3 ADD MSTORE PUSH1 0x64 ADD PUSH2 0x6E8 JUMP JUMPDEST PUSH1 0x40 DUP1 MLOAD PUSH1 0xC0 DUP2 ADD DUP3 MSTORE PUSH6 0xFFFFFFFFFFFF DUP1 DUP8 AND DUP3 MSTORE DUP5 SLOAD PUSH1 0x1 PUSH1 0x30 SHL SWAP1 DUP2 SWAP1 DIV DUP3 AND PUSH1 0x20 DUP1 DUP6 ADD SWAP2 DUP3 MSTORE CALLER DUP6 DUP8 ADD SWAP1 DUP2 MSTORE PUSH1 0x1 PUSH1 0x1 PUSH1 0x70 SHL SUB DUP1 DUP15 AND PUSH1 0x60 DUP9 ADD SWAP1 DUP2 MSTORE DUP14 DUP3 AND PUSH1 0x80 DUP10 ADD SWAP1 DUP2 MSTORE PUSH1 0x0 PUSH1 0xA0 DUP11 ADD DUP2 DUP2 MSTORE DUP2 SLOAD DUP11 AND DUP3 MSTORE PUSH1 0x3 SWAP1 SWAP7 MSTORE SWAP10 DUP11 KECCAK256 SWAP9 MLOAD DUP10 SLOAD SWAP7 MLOAD SWAP5 MLOAD PUSH1 0x1 PUSH1 0x1 PUSH1 0xA0 SHL SUB AND PUSH1 0x1 PUSH1 0x60 SHL MUL PUSH1 0x1 PUSH1 0x1 PUSH1 0x60 SHL SUB SWAP6 DUP11 AND DUP10 MUL PUSH1 0x1 PUSH1 0x1 PUSH1 0x60 SHL SUB NOT SWAP1 SWAP9 AND SWAP2 DUP11 AND SWAP2 SWAP1 SWAP2 OR SWAP7 SWAP1 SWAP7 OR SWAP4 SWAP1 SWAP4 AND SWAP5 SWAP1 SWAP5 OR DUP8 SSTORE SWAP3 MLOAD PUSH1 0x1 SWAP7 SWAP1 SWAP7 ADD DUP1 SLOAD SWAP2 MLOAD SWAP3 MLOAD PUSH4 0xFFFFFFFF AND PUSH1 0x1 PUSH1 0xE0 SHL MUL PUSH1 0x1 PUSH1 0x1 PUSH1 0xE0 SHL SUB SWAP4 DUP6 AND PUSH1 0x1 PUSH1 0x70 SHL MUL PUSH1 0x1 PUSH1 0x1 PUSH1 0xE0 SHL SUB NOT SWAP1 SWAP4 AND SWAP8 SWAP1 SWAP5 AND SWAP7 SWAP1 SWAP7 OR OR AND OR SWAP1 SWAP3 SSTORE DUP3 SLOAD DUP6 SLOAD SWAP1 DUP3 AND SWAP1 SWAP3 MUL PUSH6 0xFFFFFFFFFFFF PUSH1 0x30 SHL NOT SWAP3 SWAP1 SWAP3 AND SWAP2 SWAP1 SWAP2 OR SWAP1 SWAP4 SSTORE DUP1 SLOAD DUP3 SLOAD PUSH6 0xFFFFFFFFFFFF NOT AND SWAP1 DUP5 AND OR SWAP1 SWAP2 SSTORE SLOAD AND SWAP1 POP SWAP4 SWAP3 POP POP POP JUMP JUMPDEST DUP2 SLOAD PUSH6 0xFFFFFFFFFFFF AND ISZERO PUSH2 0x2E36 JUMPI DUP2 SLOAD PUSH6 0xFFFFFFFFFFFF DUP1 DUP3 AND PUSH1 0x0 SWAP1 DUP2 MSTORE PUSH1 0x20 DUP5 SWAP1 MSTORE PUSH1 0x40 SWAP1 KECCAK256 DUP1 SLOAD PUSH6 0xFFFFFFFFFFFF PUSH1 0x30 SHL NOT AND PUSH1 0x1 PUSH1 0x30 SHL SWAP4 DUP5 SWAP1 DIV SWAP1 SWAP3 AND SWAP1 SWAP3 MUL OR SWAP1 SSTORE JUMPDEST DUP2 SLOAD PUSH1 0x1 PUSH1 0x30 SHL SWAP1 DIV PUSH6 0xFFFFFFFFFFFF AND ISZERO PUSH2 0x2E80 JUMPI DUP2 SLOAD PUSH1 0x1 PUSH1 0x30 SHL DUP2 DIV PUSH6 0xFFFFFFFFFFFF SWAP1 DUP2 AND PUSH1 0x0 SWAP1 DUP2 MSTORE PUSH1 0x20 DUP5 SWAP1 MSTORE PUSH1 0x40 SWAP1 KECCAK256 DUP1 SLOAD PUSH6 0xFFFFFFFFFFFF NOT AND SWAP2 SWAP1 SWAP3 AND OR SWAP1 SSTORE JUMPDEST POP POP JUMP JUMPDEST DUP1 CALLDATALOAD PUSH1 0x1 PUSH1 0x1 PUSH1 0x70 SHL SUB DUP2 AND DUP2 EQ PUSH2 0x2E9B JUMPI PUSH1 0x0 DUP1 REVERT JUMPDEST SWAP2 SWAP1 POP JUMP JUMPDEST DUP1 CALLDATALOAD PUSH6 0xFFFFFFFFFFFF DUP2 AND DUP2 EQ PUSH2 0x2E9B JUMPI PUSH1 0x0 DUP1 REVERT JUMPDEST PUSH1 0x0 DUP1 PUSH1 0x0 PUSH1 0x60 DUP5 DUP7 SUB SLT ISZERO PUSH2 0x2ECB JUMPI PUSH1 0x0 DUP1 REVERT JUMPDEST PUSH2 0x2ED4 DUP5 PUSH2 0x2E84 JUMP JUMPDEST SWAP3 POP PUSH2 0x2EE2 PUSH1 0x20 DUP6 ADD PUSH2 0x2E84 JUMP JUMPDEST SWAP2 POP PUSH2 0x2EF0 PUSH1 0x40 DUP6 ADD PUSH2 0x2EA0 JUMP JUMPDEST SWAP1 POP SWAP3 POP SWAP3 POP SWAP3 JUMP JUMPDEST PUSH1 0x0 DUP1 PUSH1 0x40 DUP4 DUP6 SUB SLT ISZERO PUSH2 0x2F0C JUMPI PUSH1 0x0 DUP1 REVERT JUMPDEST PUSH2 0x2F15 DUP4 PUSH2 0x2E84 JUMP JUMPDEST SWAP2 POP PUSH2 0x2F23 PUSH1 0x20 DUP5 ADD PUSH2 0x2E84 JUMP JUMPDEST SWAP1 POP SWAP3 POP SWAP3 SWAP1 POP JUMP JUMPDEST PUSH1 0x0 DUP1 PUSH1 0x40 DUP4 DUP6 SUB SLT ISZERO PUSH2 0x2F3F JUMPI PUSH1 0x0 DUP1 REVERT JUMPDEST PUSH2 0x2F48 DUP4 PUSH2 0x2EA0 JUMP JUMPDEST SWAP2 POP PUSH1 0x20 DUP4 ADD CALLDATALOAD PUSH1 0x1 PUSH1 0x1 PUSH1 0xA0 SHL SUB DUP2 AND DUP2 EQ PUSH2 0x2F64 JUMPI PUSH1 0x0 DUP1 REVERT JUMPDEST DUP1 SWAP2 POP POP SWAP3 POP SWAP3 SWAP1 POP JUMP JUMPDEST PUSH1 0x0 PUSH1 0x20 DUP3 DUP5 SUB SLT ISZERO PUSH2 0x2F81 JUMPI PUSH1 0x0 DUP1 REVERT JUMPDEST PUSH2 0x1011 DUP3 PUSH2 0x2EA0 JUMP JUMPDEST PUSH1 0x1 PUSH1 0x1 PUSH1 0xA0 SHL SUB SWAP4 DUP5 AND DUP2 MSTORE SWAP2 SWAP1 SWAP3 AND PUSH1 0x20 DUP3 ADD MSTORE PUSH1 0x40 DUP2 ADD SWAP2 SWAP1 SWAP2 MSTORE PUSH1 0x60 ADD SWAP1 JUMP JUMPDEST PUSH1 0x0 PUSH1 0x20 DUP3 DUP5 SUB SLT ISZERO PUSH2 0x2FC0 JUMPI PUSH1 0x0 DUP1 REVERT JUMPDEST DUP2 MLOAD DUP1 ISZERO ISZERO DUP2 EQ PUSH2 0x1011 JUMPI PUSH1 0x0 DUP1 REVERT JUMPDEST PUSH4 0x4E487B71 PUSH1 0xE0 SHL PUSH1 0x0 MSTORE PUSH1 0x11 PUSH1 0x4 MSTORE PUSH1 0x24 PUSH1 0x0 REVERT JUMPDEST PUSH1 0x0 PUSH6 0xFFFFFFFFFFFF DUP1 DUP4 AND DUP2 DUP2 SUB PUSH2 0x3001 JUMPI PUSH2 0x3001 PUSH2 0x2FD0 JUMP JUMPDEST PUSH1 0x1 ADD SWAP4 SWAP3 POP POP POP JUMP JUMPDEST DUP1 DUP3 MUL DUP2 ISZERO DUP3 DUP3 DIV DUP5 EQ OR PUSH2 0x3022 JUMPI PUSH2 0x3022 PUSH2 0x2FD0 JUMP JUMPDEST SWAP3 SWAP2 POP POP JUMP JUMPDEST PUSH4 0x4E487B71 PUSH1 0xE0 SHL PUSH1 0x0 MSTORE PUSH1 0x12 PUSH1 0x4 MSTORE PUSH1 0x24 PUSH1 0x0 REVERT JUMPDEST PUSH1 0x0 DUP3 PUSH2 0x304D JUMPI PUSH2 0x304D PUSH2 0x3028 JUMP JUMPDEST POP DIV SWAP1 JUMP JUMPDEST PUSH1 0x1 PUSH1 0x1 PUSH1 0x70 SHL SUB DUP3 DUP2 AND DUP3 DUP3 AND SUB SWAP1 DUP1 DUP3 GT ISZERO PUSH2 0x3072 JUMPI PUSH2 0x3072 PUSH2 0x2FD0 JUMP JUMPDEST POP SWAP3 SWAP2 POP POP JUMP JUMPDEST PUSH1 0x1 PUSH1 0x1 PUSH1 0x70 SHL SUB DUP2 DUP2 AND DUP4 DUP3 AND ADD SWAP1 DUP1 DUP3 GT ISZERO PUSH2 0x3072 JUMPI PUSH2 0x3072 PUSH2 0x2FD0 JUMP JUMPDEST PUSH1 0x1 PUSH1 0x1 PUSH1 0x70 SHL SUB DUP2 DUP2 AND DUP4 DUP3 AND MUL DUP1 DUP3 AND SWAP2 SWAP1 DUP3 DUP2 EQ PUSH2 0x30BC JUMPI PUSH2 0x30BC PUSH2 0x2FD0 JUMP JUMPDEST POP POP SWAP3 SWAP2 POP POP JUMP JUMPDEST PUSH1 0x0 PUSH1 0x1 PUSH1 0x1 PUSH1 0x70 SHL SUB DUP1 DUP5 AND DUP1 PUSH2 0x30DE JUMPI PUSH2 0x30DE PUSH2 0x3028 JUMP JUMPDEST SWAP3 AND SWAP2 SWAP1 SWAP2 DIV SWAP3 SWAP2 POP POP JUMP JUMPDEST PUSH4 0xFFFFFFFF DUP2 DUP2 AND DUP4 DUP3 AND ADD SWAP1 DUP1 DUP3 GT ISZERO PUSH2 0x3072 JUMPI PUSH2 0x3072 PUSH2 0x2FD0 JUMP JUMPDEST PUSH1 0x20 DUP1 DUP3 MSTORE PUSH1 0x1E SWAP1 DUP3 ADD MSTORE PUSH32 0x796F7520617265206E6F74206F776E6572206F6620746865206F726465720000 PUSH1 0x40 DUP3 ADD MSTORE PUSH1 0x60 ADD SWAP1 JUMP JUMPDEST PUSH1 0x20 DUP1 DUP3 MSTORE PUSH1 0x22 SWAP1 DUP3 ADD MSTORE PUSH32 0x746865206F7264657220697320616C72656164792072656D6F76656428646F6E PUSH1 0x40 DUP3 ADD MSTORE PUSH2 0x6529 PUSH1 0xF0 SHL PUSH1 0x60 DUP3 ADD MSTORE PUSH1 0x80 ADD SWAP1 JUMP INVALID LOG2 PUSH5 0x6970667358 0x22 SLT KECCAK256 0x4F LOG2 BLOCKHASH 0xD7 STATICCALL NUMBER PUSH14 0x65954EA4DBA1F8666F363BC66AB2 0xBF TIMESTAMP TSTORE 0xE3 0xF STOP PUSH23 0x531FCAEE64736F6C63430008180033A264697066735822 SLT KECCAK256 0xCE PUSH22 0xBA8E055E5BE1847DF3F5614D321EF05C8AA6978B72EA 0xF6 TLOAD SAR DUP10 SSTORE 0x4C ORIGIN CALLDATACOPY PUSH5 0x736F6C6343 STOP ADDMOD XOR STOP CALLER "},"methodIdentifiers":{"computePairAddr(address,address)":"3bd07d27","createPair(address,address)":"c9c65396","fee()":"ddca3f43","feeTo()":"017e7e58","hasPair(address)":"591712af"}}}}}