{"contracts/MarsService.sol":{"MarsService":{"abi":[{"inputs":[],"stateMutability":"nonpayable","type":"constructor"},{"inputs":[{"internalType":"address","name":"pairAddr","type":"address"},{"internalType":"uint48","name":"fromOrderId","type":"uint48"},{"internalType":"uint8","name":"num","type":"uint8"}],"name":"getBuyList","outputs":[{"components":[{"internalType":"uint48","name":"orderId","type":"uint48"},{"internalType":"uint112","name":"amountIn","type":"uint112"},{"internalType":"uint112","name":"amountOut","type":"uint112"},{"internalType":"uint32","name":"progress","type":"uint32"}],"internalType":"struct MarsService.ListOrder[]","name":"","type":"tuple[]"}],"stateMutability":"view","type":"function"},{"inputs":[{"internalType":"address","name":"pairAddr","type":"address"},{"internalType":"uint48","name":"fromOrderId","type":"uint48"},{"internalType":"uint8","name":"num","type":"uint8"}],"name":"getSellList","outputs":[{"components":[{"internalType":"uint48","name":"orderId","type":"uint48"},{"internalType":"uint112","name":"amountIn","type":"uint112"},{"internalType":"uint112","name":"amountOut","type":"uint112"},{"internalType":"uint32","name":"progress","type":"uint32"}],"internalType":"struct MarsService.ListOrder[]","name":"","type":"tuple[]"}],"stateMutability":"view","type":"function"},{"inputs":[{"internalType":"address","name":"user","type":"address"},{"internalType":"uint48","name":"startIndex","type":"uint48"},{"internalType":"uint48","name":"num","type":"uint48"}],"name":"getUserOrders","outputs":[{"components":[{"internalType":"address","name":"pair","type":"address"},{"internalType":"uint48","name":"orderId","type":"uint48"},{"internalType":"uint32","name":"createTime","type":"uint32"},{"internalType":"bool","name":"isBuy","type":"bool"},{"internalType":"address","name":"owner","type":"address"},{"internalType":"uint112","name":"amountIn","type":"uint112"},{"internalType":"uint112","name":"amountOut","type":"uint112"},{"internalType":"uint32","name":"progress","type":"uint32"},{"internalType":"bool","name":"isRemoved","type":"bool"}],"internalType":"struct MarsService.UserOrder[]","name":"","type":"tuple[]"}],"stateMutability":"view","type":"function"},{"inputs":[{"internalType":"address","name":"pairAddr","type":"address"},{"internalType":"uint112","name":"token1In","type":"uint112"},{"internalType":"uint112","name":"token0Out","type":"uint112"},{"internalType":"uint48","name":"beforeOrderId","type":"uint48"}],"name":"makeBuyOrder","outputs":[{"internalType":"uint48","name":"newOrderId","type":"uint48"}],"stateMutability":"nonpayable","type":"function"},{"inputs":[{"internalType":"address","name":"pairAddr","type":"address"},{"internalType":"uint112","name":"token0In","type":"uint112"},{"internalType":"uint112","name":"token1Out","type":"uint112"},{"internalType":"uint48","name":"beforeOrderId","type":"uint48"}],"name":"makeSellOrder","outputs":[{"internalType":"uint48","name":"newOrderId","type":"uint48"}],"stateMutability":"nonpayable","type":"function"},{"inputs":[{"internalType":"address","name":"pairAddr","type":"address"},{"internalType":"uint112","name":"token0In","type":"uint112"},{"internalType":"uint112","name":"token1Want","type":"uint112"}],"name":"takeBuyOrder","outputs":[{"internalType":"uint112","name":"token0Pay","type":"uint112"},{"internalType":"uint112","name":"token1Gain","type":"uint112"},{"internalType":"uint112","name":"token0Fee","type":"uint112"}],"stateMutability":"nonpayable","type":"function"},{"inputs":[{"internalType":"address","name":"pairAddr","type":"address"},{"internalType":"uint112","name":"token0In","type":"uint112"},{"internalType":"uint112","name":"token1Want","type":"uint112"}],"name":"takeBuyOrder2","outputs":[{"internalType":"uint112","name":"token0Pay","type":"uint112"},{"internalType":"uint112","name":"token1Gain","type":"uint112"},{"internalType":"uint112","name":"token0Fee","type":"uint112"}],"stateMutability":"nonpayable","type":"function"},{"inputs":[{"internalType":"address","name":"pairAddr","type":"address"},{"internalType":"uint112","name":"token1In","type":"uint112"},{"internalType":"uint112","name":"token0Want","type":"uint112"}],"name":"takeSellOrder","outputs":[{"internalType":"uint112","name":"token1Pay","type":"uint112"},{"internalType":"uint112","name":"token0Gain","type":"uint112"},{"internalType":"uint112","name":"token1Fee","type":"uint112"}],"stateMutability":"nonpayable","type":"function"},{"inputs":[{"internalType":"address","name":"pairAddr","type":"address"},{"internalType":"uint112","name":"token1In","type":"uint112"},{"internalType":"uint112","name":"token0Want","type":"uint112"}],"name":"takeSellOrder2","outputs":[{"internalType":"uint112","name":"token1Pay","type":"uint112"},{"internalType":"uint112","name":"token0Gain","type":"uint112"},{"internalType":"uint112","name":"token1Fee","type":"uint112"}],"stateMutability":"nonpayable","type":"function"}],"evm":{"bytecode":{"linkReferences":{},"object":"608060405234801561001057600080fd5b50613070806100206000396000f3fe608060405234801561001057600080fd5b50600436106100935760003560e01c80638ac9b3df116100665780638ac9b3df146101375780639fb6d44a1461014a578063bd3ddde41461015d578063d4092fa614610170578063f519e79f1461018357600080fd5b8063125f0d9e146100985780633adc4361146100c757806342760717146100da57806378cfd70e14610117575b600080fd5b6100ab6100a6366004612967565b6101a3565b60405165ffffffffffff90911681526020015b60405180910390f35b6100ab6100d5366004612967565b610479565b6100ed6100e83660046129c3565b610745565b604080516001600160701b03948516815292841660208401529216918101919091526060016100be565b61012a610125366004612a1d565b610bca565b6040516100be9190612a5d565b6100ed6101453660046129c3565b610ea1565b6100ed6101583660046129c3565b611436565b6100ed61016b3660046129c3565b611765565b61012a61017e366004612a1d565b611cb7565b610196610191366004612adb565b611f80565b6040516100be9190612b1b565b6000808590506000816001600160a01b031663d21220a76040518163ffffffff1660e01b8152600401602060405180830381865afa1580156101e9573d6000803e3d6000fd5b505050506040513d601f19601f8201168201806040525081019061020d9190612bdf565b6040516323b872dd60e01b81529091506001600160a01b038216906323b872dd9061024090339030908b90600401612bfc565b6020604051808303816000875af115801561025f573d6000803e3d6000fd5b505050506040513d601f19601f820116820180604052508101906102839190612c28565b50604051636eb1769f60e11b81523060048201526001600160a01b0388811660248301526001600160701b038816919083169063dd62ed3e90604401602060405180830381865afa1580156102dc573d6000803e3d6000fd5b505050506040513d601f19601f820116820180604052508101906103009190612c4a565b101561037c5760405163095ea7b360e01b81526001600160a01b038881166004830152600019602483015282169063095ea7b3906044016020604051808303816000875af1158015610356573d6000803e3d6000fd5b505050506040513d601f19601f8201168201806040525081019061037a9190612c28565b505b600061038a88888888612134565b6040516250c93160e51b81529091506001600160a01b03841690630a192620906103bc908a908a908690600401612c63565b6020604051808303816000875af11580156103db573d6000803e3d6000fd5b505050506040513d601f19601f820116820180604052508101906103ff9190612c9e565b60405163058c0c5360e41b81529094506001600160a01b038416906358c0c530906104309087903390600401612cbb565b600060405180830381600087803b15801561044a57600080fd5b505af115801561045e573d6000803e3d6000fd5b5050505061046e88856001612366565b505050949350505050565b6000808590506000816001600160a01b0316630dfe16816040518163ffffffff1660e01b8152600401602060405180830381865afa1580156104bf573d6000803e3d6000fd5b505050506040513d601f19601f820116820180604052508101906104e39190612bdf565b6040516323b872dd60e01b81529091506001600160a01b038216906323b872dd9061051690339030908b90600401612bfc565b6020604051808303816000875af1158015610535573d6000803e3d6000fd5b505050506040513d601f19601f820116820180604052508101906105599190612c28565b50604051636eb1769f60e11b81523060048201526001600160a01b0388811660248301526001600160701b038816919083169063dd62ed3e90604401602060405180830381865afa1580156105b2573d6000803e3d6000fd5b505050506040513d601f19601f820116820180604052508101906105d69190612c4a565b10156106525760405163095ea7b360e01b81526001600160a01b038881166004830152600019602483015282169063095ea7b3906044016020604051808303816000875af115801561062c573d6000803e3d6000fd5b505050506040513d601f19601f820116820180604052508101906106509190612c28565b505b600061066088888888612484565b604051637816c7d760e11b81529091506001600160a01b0384169063f02d8fae90610693908a908a908690600401612c63565b6020604051808303816000875af11580156106b2573d6000803e3d6000fd5b505050506040513d601f19601f820116820180604052508101906106d69190612c9e565b604051635ff09b1f60e11b81529094506001600160a01b0384169063bfe1363e906107079087903390600401612cbb565b600060405180830381600087803b15801561072157600080fd5b505af1158015610735573d6000803e3d6000fd5b5050505061046e88856000612366565b6000806000808690506000816001600160a01b031663d21220a76040518163ffffffff1660e01b8152600401602060405180830381865afa15801561078e573d6000803e3d6000fd5b505050506040513d601f19601f820116820180604052508101906107b29190612bdf565b90506000612710836001600160a01b031663ddca3f436040518163ffffffff1660e01b8152600401602060405180830381865afa1580156107f7573d6000803e3d6000fd5b505050506040513d601f19601f8201168201806040525081019061081b9190612cdc565b6108289060ff168a612d0f565b6108329190612d3a565b905060006108408983612d6e565b6040516323b872dd60e01b81529091506001600160a01b038416906323b872dd9061087390339030908690600401612bfc565b6020604051808303816000875af1158015610892573d6000803e3d6000fd5b505050506040513d601f19601f820116820180604052508101906108b69190612c28565b50604051636eb1769f60e11b81523060048201526001600160a01b038b811660248301526001600160701b038316919085169063dd62ed3e90604401602060405180830381865afa15801561090f573d6000803e3d6000fd5b505050506040513d601f19601f820116820180604052508101906109339190612c4a565b10156109af5760405163095ea7b360e01b81526001600160a01b038b81166004830152600019602483015284169063095ea7b3906044016020604051808303816000875af1158015610989573d6000803e3d6000fd5b505050506040513d601f19601f820116820180604052508101906109ad9190612c28565b505b60405163097687e560e31b81526001600160701b03808b166004830152891660248201526001600160a01b03851690634bb43f28906044016060604051808303816000875af1158015610a06573d6000803e3d6000fd5b505050506040513d601f19601f82011682018060405250810190610a2a9190612da0565b809750819850829950505050836001600160a01b0316630dfe16816040518163ffffffff1660e01b8152600401602060405180830381865afa158015610a74573d6000803e3d6000fd5b505050506040513d601f19601f82011682018060405250810190610a989190612bdf565b6001600160a01b031663a9059cbb33886040518363ffffffff1660e01b8152600401610ac5929190612de2565b6020604051808303816000875af1158015610ae4573d6000803e3d6000fd5b505050506040513d601f19601f82011682018060405250810190610b089190612c28565b50866001600160701b0316896001600160701b03161115610bbd576000610b2f888b612e04565b90506000610b3d8785612e04565b90506001600160a01b03851663a9059cbb33610b598486612d6e565b6040518363ffffffff1660e01b8152600401610b76929190612de2565b6020604051808303816000875af1158015610b95573d6000803e3d6000fd5b505050506040513d601f19601f82011682018060405250810190610bb99190612c28565b5050505b5050505093509350939050565b606060008260ff1667ffffffffffffffff811115610bea57610bea612e24565b604051908082528060200260200182016040528015610c3c57816020015b604080516080810182526000808252602080830182905292820181905260608201528252600019909201910181610c085790505b5090508465ffffffffffff8516600003610cb557806001600160a01b0316637c33e99a6040518163ffffffff1660e01b8152600401602060405180830381865afa158015610c8e573d6000803e3d6000fd5b505050506040513d601f19601f82011682018060405250810190610cb29190612c9e565b94505b604051632b9116eb60e21b815265ffffffffffff861660048201526000906001600160a01b0383169063ae445bac9060240160c060405180830381865afa158015610d04573d6000803e3d6000fd5b505050506040513d601f19601f82011682018060405250810190610d289190612e59565b905060405180608001604052808765ffffffffffff16815260200182606001516001600160701b0316815260200182608001516001600160701b031681526020018260a0015163ffffffff1681525083600081518110610d8a57610d8a612f06565b602090810291909101015260015b8560ff168160ff161015610e93576020820151604051632b9116eb60e21b815265ffffffffffff821660048201526001600160a01b0385169063ae445bac9060240160c060405180830381865afa158015610df7573d6000803e3d6000fd5b505050506040513d601f19601f82011682018060405250810190610e1b9190612e59565b925060405180608001604052808265ffffffffffff16815260200184606001516001600160701b0316815260200184608001516001600160701b031681526020018460a0015163ffffffff16815250858360ff1681518110610e7f57610e7f612f06565b602090810291909101015250600101610d98565b5091925050505b9392505050565b6000806000808690506000816001600160a01b031663d21220a76040518163ffffffff1660e01b8152600401602060405180830381865afa158015610eea573d6000803e3d6000fd5b505050506040513d601f19601f82011682018060405250810190610f0e9190612bdf565b90506000612710836001600160a01b031663ddca3f436040518163ffffffff1660e01b8152600401602060405180830381865afa158015610f53573d6000803e3d6000fd5b505050506040513d601f19601f82011682018060405250810190610f779190612cdc565b610f849060ff168a612d0f565b610f8e9190612d3a565b90506000610f9c8983612d6e565b6040516323b872dd60e01b81529091506001600160a01b038416906323b872dd90610fcf90339030908690600401612bfc565b6020604051808303816000875af1158015610fee573d6000803e3d6000fd5b505050506040513d601f19601f820116820180604052508101906110129190612c28565b50604051636eb1769f60e11b81523060048201526001600160a01b038b811660248301526001600160701b038316919085169063dd62ed3e90604401602060405180830381865afa15801561106b573d6000803e3d6000fd5b505050506040513d601f19601f8201168201806040525081019061108f9190612c4a565b101561110b5760405163095ea7b360e01b81526001600160a01b038b81166004830152600019602483015284169063095ea7b3906044016020604051808303816000875af11580156110e5573d6000803e3d6000fd5b505050506040513d601f19601f820116820180604052508101906111099190612c28565b505b60405163097687e560e31b81526001600160701b03808b166004830152891660248201526001600160a01b03851690634bb43f28906044016060604051808303816000875af1158015611162573d6000803e3d6000fd5b505050506040513d601f19601f820116820180604052508101906111869190612da0565b809750819850829950505050836001600160a01b0316630dfe16816040518163ffffffff1660e01b8152600401602060405180830381865afa1580156111d0573d6000803e3d6000fd5b505050506040513d601f19601f820116820180604052508101906111f49190612bdf565b6001600160a01b031663a9059cbb33886040518363ffffffff1660e01b8152600401611221929190612de2565b6020604051808303816000875af1158015611240573d6000803e3d6000fd5b505050506040513d601f19601f820116820180604052508101906112649190612c28565b50846001600160701b0316826001600160701b031611156112fb576001600160a01b03831663a9059cbb336112998886612e04565b6040518363ffffffff1660e01b81526004016112b6929190612de2565b6020604051808303816000875af11580156112d5573d6000803e3d6000fd5b505050506040513d601f19601f820116820180604052508101906112f99190612c28565b505b866001600160701b0316896001600160701b03161115610bbd576000611321888b612e04565b905060008a6113308b84612d0f565b61133a9190612d3a565b9050600061134b8d84846000612134565b90506000876001600160a01b0316630a1926208585856040518463ffffffff1660e01b815260040161137f93929190612c63565b6020604051808303816000875af115801561139e573d6000803e3d6000fd5b505050506040513d601f19601f820116820180604052508101906113c29190612c9e565b60405163058c0c5360e41b81529091506001600160a01b038916906358c0c530906113f39084903390600401612cbb565b600060405180830381600087803b15801561140d57600080fd5b505af1158015611421573d6000803e3d6000fd5b50505050505050505050505093509350939050565b6000806000808690506000816001600160a01b0316630dfe16816040518163ffffffff1660e01b8152600401602060405180830381865afa15801561147f573d6000803e3d6000fd5b505050506040513d601f19601f820116820180604052508101906114a39190612bdf565b90506000612710836001600160a01b031663ddca3f436040518163ffffffff1660e01b8152600401602060405180830381865afa1580156114e8573d6000803e3d6000fd5b505050506040513d601f19601f8201168201806040525081019061150c9190612cdc565b6115199060ff168a612d0f565b6115239190612d3a565b905060006115318983612d6e565b6040516323b872dd60e01b81529091506001600160a01b038416906323b872dd9061156490339030908690600401612bfc565b6020604051808303816000875af1158015611583573d6000803e3d6000fd5b505050506040513d601f19601f820116820180604052508101906115a79190612c28565b50604051636eb1769f60e11b81523060048201526001600160a01b038b811660248301526001600160701b038316919085169063dd62ed3e90604401602060405180830381865afa158015611600573d6000803e3d6000fd5b505050506040513d601f19601f820116820180604052508101906116249190612c4a565b10156116a05760405163095ea7b360e01b81526001600160a01b038b81166004830152600019602483015284169063095ea7b3906044016020604051808303816000875af115801561167a573d6000803e3d6000fd5b505050506040513d601f19601f8201168201806040525081019061169e9190612c28565b505b60405163596afb4d60e01b81526001600160701b03808b166004830152891660248201526001600160a01b0385169063596afb4d906044016060604051808303816000875af11580156116f7573d6000803e3d6000fd5b505050506040513d601f19601f8201168201806040525081019061171b9190612da0565b809750819850829950505050836001600160a01b031663d21220a76040518163ffffffff1660e01b8152600401602060405180830381865afa158015610a74573d6000803e3d6000fd5b6000806000808690506000816001600160a01b0316630dfe16816040518163ffffffff1660e01b8152600401602060405180830381865afa1580156117ae573d6000803e3d6000fd5b505050506040513d601f19601f820116820180604052508101906117d29190612bdf565b90506000612710836001600160a01b031663ddca3f436040518163ffffffff1660e01b8152600401602060405180830381865afa158015611817573d6000803e3d6000fd5b505050506040513d601f19601f8201168201806040525081019061183b9190612cdc565b6118489060ff168a612d0f565b6118529190612d3a565b905060006118608983612d6e565b6040516323b872dd60e01b81529091506001600160a01b038416906323b872dd9061189390339030908690600401612bfc565b6020604051808303816000875af11580156118b2573d6000803e3d6000fd5b505050506040513d601f19601f820116820180604052508101906118d69190612c28565b50604051636eb1769f60e11b81523060048201526001600160a01b038b811660248301526001600160701b038316919085169063dd62ed3e90604401602060405180830381865afa15801561192f573d6000803e3d6000fd5b505050506040513d601f19601f820116820180604052508101906119539190612c4a565b10156119cf5760405163095ea7b360e01b81526001600160a01b038b81166004830152600019602483015284169063095ea7b3906044016020604051808303816000875af11580156119a9573d6000803e3d6000fd5b505050506040513d601f19601f820116820180604052508101906119cd9190612c28565b505b60405163596afb4d60e01b81526001600160701b03808b166004830152891660248201526001600160a01b0385169063596afb4d906044016060604051808303816000875af1158015611a26573d6000803e3d6000fd5b505050506040513d601f19601f82011682018060405250810190611a4a9190612da0565b809750819850829950505050836001600160a01b031663d21220a76040518163ffffffff1660e01b8152600401602060405180830381865afa158015611a94573d6000803e3d6000fd5b505050506040513d601f19601f82011682018060405250810190611ab89190612bdf565b6001600160a01b031663a9059cbb33886040518363ffffffff1660e01b8152600401611ae5929190612de2565b6020604051808303816000875af1158015611b04573d6000803e3d6000fd5b505050506040513d601f19601f82011682018060405250810190611b289190612c28565b50846001600160701b0316826001600160701b03161115611bbf576001600160a01b03831663a9059cbb33611b5d8886612e04565b6040518363ffffffff1660e01b8152600401611b7a929190612de2565b6020604051808303816000875af1158015611b99573d6000803e3d6000fd5b505050506040513d601f19601f82011682018060405250810190611bbd9190612c28565b505b866001600160701b0316896001600160701b03161115610bbd576000611be5888b612e04565b905060008a611bf48b84612d0f565b611bfe9190612d3a565b90506000611c0f8d84846000612484565b90506000876001600160a01b031663f02d8fae8585856040518463ffffffff1660e01b8152600401611c4393929190612c63565b6020604051808303816000875af1158015611c62573d6000803e3d6000fd5b505050506040513d601f19601f82011682018060405250810190611c869190612c9e565b604051635ff09b1f60e11b81529091506001600160a01b0389169063bfe1363e906113f39084903390600401612cbb565b606060008260ff1667ffffffffffffffff811115611cd757611cd7612e24565b604051908082528060200260200182016040528015611d2957816020015b604080516080810182526000808252602080830182905292820181905260608201528252600019909201910181611cf55790505b5090508465ffffffffffff8516600003611da257806001600160a01b031663c4ccb40a6040518163ffffffff1660e01b8152600401602060405180830381865afa158015611d7b573d6000803e3d6000fd5b505050506040513d601f19601f82011682018060405250810190611d9f9190612c9e565b94505b6040516339709d2f60e21b815265ffffffffffff861660048201526000906001600160a01b0383169063e5c274bc9060240160c060405180830381865afa158015611df1573d6000803e3d6000fd5b505050506040513d601f19601f82011682018060405250810190611e159190612e59565b905060405180608001604052808765ffffffffffff16815260200182606001516001600160701b0316815260200182608001516001600160701b031681526020018260a0015163ffffffff1681525083600081518110611e7757611e77612f06565b602090810291909101015260015b8560ff168160ff161015610e935760208201516040516339709d2f60e21b815265ffffffffffff821660048201526001600160a01b0385169063e5c274bc9060240160c060405180830381865afa158015611ee4573d6000803e3d6000fd5b505050506040513d601f19601f82011682018060405250810190611f089190612e59565b925060405180608001604052808265ffffffffffff16815260200184606001516001600160701b0316815260200184608001516001600160701b031681526020018460a0015163ffffffff16815250858360ff1681518110611f6c57611f6c612f06565b602090810291909101015250600101611e85565b606060008265ffffffffffff1667ffffffffffffffff811115611fa557611fa5612e24565b604051908082528060200260200182016040528015611fde57816020015b611fcb6128da565b815260200190600190039081611fc35790505b5090508365ffffffffffff16600003612015576001600160a01b03851660009081526001602052604090205465ffffffffffff1693505b8365ffffffffffff1660000361202c579050610e9a565b835b65ffffffffffff84166120418287612f1c565b65ffffffffffff16101561212b57600080600061205e89856126ae565b65ffffffffffff1916815260208082019290925260409081016000908120825160808101845290546001600160a01b03811680835265ffffffffffff600160a01b830416958301869052600160d01b820463ffffffff1694830194909452600160f01b900460ff1615156060820181905290945090926120de92916126fc565b90506120ea8282612818565b846120f5858a612f1c565b65ffffffffffff168151811061210d5761210d612f06565b602002602001018190525050508061212490612f3b565b905061202e565b50949350505050565b6000808590506000816001600160a01b031663c4ccb40a6040518163ffffffff1660e01b8152600401602060405180830381865afa15801561217a573d6000803e3d6000fd5b505050506040513d601f19601f8201168201806040525081019061219e9190612c9e565b90508065ffffffffffff166000036121bb5760009250505061235e565b8365ffffffffffff166000036121cf578093505b60405163d44ca7af60e01b815265ffffffffffff851660048201526000908190819081906001600160a01b0387169063d44ca7af9060240160c060405180830381865afa158015612224573d6000803e3d6000fd5b505050506040513d601f19601f820116820180604052508101906122489190612f5d565b50945094505093509350816001600160701b0316600014158015612274575065ffffffffffff84811614155b1561227d578794505b6122878983612d0f565b6001600160701b031661229a8b83612d0f565b6001600160701b031611156122b75783965050505050505061235e565b8265ffffffffffff166000036122d55784965050505050505061235e565b60405163d44ca7af60e01b815265ffffffffffff8416600482015292945084926001600160a01b0387169063d44ca7af9060240160c060405180830381865afa158015612326573d6000803e3d6000fd5b505050506040513d601f19601f8201168201806040525081019061234a9190612f5d565b5093975091955090935090915061227d9050565b949350505050565b3360009081526001602052604090205465ffffffffffff168061238881612fdf565b9150506040518060800160405280856001600160a01b031681526020018465ffffffffffff1681526020014263ffffffff1681526020018315158152506000806123d233856126ae565b65ffffffffffff199081168252602080830193909352604091820160009081208551815487870151888701516060909901516001600160a01b039093166001600160d01b031990921691909117600160a01b65ffffffffffff928316021764ffffffffff60d01b1916600160d01b63ffffffff9099169890980260ff60f01b191697909717600160f01b9115159190910217905533815260019093529120805490911692909116919091179055505050565b6000808590506000816001600160a01b0316637c33e99a6040518163ffffffff1660e01b8152600401602060405180830381865afa1580156124ca573d6000803e3d6000fd5b505050506040513d601f19601f820116820180604052508101906124ee9190612c9e565b90508065ffffffffffff1660000361250b5760009250505061235e565b8365ffffffffffff1660000361251f578093505b60405163d7d99b0b60e01b815265ffffffffffff851660048201526000908190819081906001600160a01b0387169063d7d99b0b9060240160c060405180830381865afa158015612574573d6000803e3d6000fd5b505050506040513d601f19601f820116820180604052508101906125989190612f5d565b50945094505093509350816001600160701b03166000141580156125c4575065ffffffffffff84811614155b156125cd578794505b6125d78983612d0f565b6001600160701b03166125ea8b83612d0f565b6001600160701b031611156126075783965050505050505061235e565b8265ffffffffffff166000036126255784965050505050505061235e565b60405163d7d99b0b60e01b815265ffffffffffff8416600482015292945084926001600160a01b0387169063d7d99b0b9060240160c060405180830381865afa158015612676573d6000803e3d6000fd5b505050506040513d601f19601f8201168201806040525081019061269a9190612f5d565b509397509195509093509091506125cd9050565b6040516bffffffffffffffffffffffff19606084901b1660208201526001600160d01b031960d083901b166034820152600090603a01604051602081830303815290604052610e9a90613004565b6040805160c081018252600080825260208201819052918101829052606081018290526080810182905260a0810191909152816127a857604051632b9116eb60e21b815265ffffffffffff841660048201526001600160a01b0385169063ae445bac9060240160c060405180830381865afa15801561277f573d6000803e3d6000fd5b505050506040513d601f19601f820116820180604052508101906127a39190612e59565b61235e565b6040516339709d2f60e21b815265ffffffffffff841660048201526001600160a01b0385169063e5c274bc9060240160c060405180830381865afa1580156127f4573d6000803e3d6000fd5b505050506040513d601f19601f8201168201806040525081019061235e9190612e59565b6128206128da565b60405180610120016040528084600001516001600160a01b03168152602001846020015165ffffffffffff168152602001846040015163ffffffff16815260200184606001511515815260200183604001516001600160a01b0316815260200183606001516001600160701b0316815260200183608001516001600160701b031681526020018360a0015163ffffffff16815260200165ffffffffffff8016846000015165ffffffffffff16141515815250905092915050565b6040805161012081018252600080825260208201819052918101829052606081018290526080810182905260a0810182905260c0810182905260e0810182905261010081019190915290565b6001600160a01b038116811461293b57600080fd5b50565b6001600160701b038116811461293b57600080fd5b65ffffffffffff8116811461293b57600080fd5b6000806000806080858703121561297d57600080fd5b843561298881612926565b935060208501356129988161293e565b925060408501356129a88161293e565b915060608501356129b881612953565b939692955090935050565b6000806000606084860312156129d857600080fd5b83356129e381612926565b925060208401356129f38161293e565b91506040840135612a038161293e565b809150509250925092565b60ff8116811461293b57600080fd5b600080600060608486031215612a3257600080fd5b8335612a3d81612926565b92506020840135612a4d81612953565b91506040840135612a0381612a0e565b602080825282518282018190526000919060409081850190868401855b82811015612ace578151805165ffffffffffff168552868101516001600160701b039081168887015286820151168686015260609081015163ffffffff169085015260809093019290850190600101612a7a565b5091979650505050505050565b600080600060608486031215612af057600080fd5b8335612afb81612926565b92506020840135612b0b81612953565b91506040840135612a0381612953565b602080825282518282018190526000919060409081850190868401855b82811015612ace57815180516001600160a01b0390811686528782015165ffffffffffff16888701528682015163ffffffff908116888801526060808401511515908801526080808401519092169187019190915260a0808301516001600160701b039081169188019190915260c0808401519091169087015260e08083015190911690860152610100908101511515908501526101209093019290850190600101612b38565b600060208284031215612bf157600080fd5b8151610e9a81612926565b6001600160a01b0393841681529190921660208201526001600160701b03909116604082015260600190565b600060208284031215612c3a57600080fd5b81518015158114610e9a57600080fd5b600060208284031215612c5c57600080fd5b5051919050565b6001600160701b03938416815291909216602082015265ffffffffffff909116604082015260600190565b8051612c9981612953565b919050565b600060208284031215612cb057600080fd5b8151610e9a81612953565b65ffffffffffff9290921682526001600160a01b0316602082015260400190565b600060208284031215612cee57600080fd5b8151610e9a81612a0e565b634e487b7160e01b600052601160045260246000fd5b6001600160701b03818116838216028082169190828114612d3257612d32612cf9565b505092915050565b60006001600160701b0380841680612d6257634e487b7160e01b600052601260045260246000fd5b92169190910492915050565b6001600160701b03818116838216019080821115612d8e57612d8e612cf9565b5092915050565b8051612c998161293e565b600080600060608486031215612db557600080fd5b8351612dc08161293e565b6020850151909350612dd18161293e565b6040850151909250612a038161293e565b6001600160a01b039290921682526001600160701b0316602082015260400190565b6001600160701b03828116828216039080821115612d8e57612d8e612cf9565b634e487b7160e01b600052604160045260246000fd5b8051612c9981612926565b805163ffffffff81168114612c9957600080fd5b600060c08284031215612e6b57600080fd5b60405160c0810181811067ffffffffffffffff82111715612e9c57634e487b7160e01b600052604160045260246000fd5b604052612ea883612c8e565b8152612eb660208401612c8e565b6020820152612ec760408401612e3a565b6040820152612ed860608401612d95565b6060820152612ee960808401612d95565b6080820152612efa60a08401612e45565b60a08201529392505050565b634e487b7160e01b600052603260045260246000fd5b65ffffffffffff828116828216039080821115612d8e57612d8e612cf9565b600065ffffffffffff821680612f5357612f53612cf9565b6000190192915050565b60008060008060008060c08789031215612f7657600080fd5b8651612f8181612953565b6020880151909650612f9281612953565b6040880151909550612fa381612926565b6060880151909450612fb48161293e565b6080880151909350612fc58161293e565b9150612fd360a08801612e45565b90509295509295509295565b600065ffffffffffff808316818103612ffa57612ffa612cf9565b6001019392505050565b8051602082015165ffffffffffff19808216929190601a83101561303257808184601a0360031b1b83161693505b50505091905056fea26469706673582212208ba664e1e5b22a32a36b98cda357a289d096b3599a5046b26a1060cc0fb5118464736f6c63430008180033","opcodes":"PUSH1 0x80 PUSH1 0x40 MSTORE CALLVALUE DUP1 ISZERO PUSH2 0x10 JUMPI PUSH1 0x0 DUP1 REVERT JUMPDEST POP PUSH2 0x3070 DUP1 PUSH2 0x20 PUSH1 0x0 CODECOPY PUSH1 0x0 RETURN INVALID PUSH1 0x80 PUSH1 0x40 MSTORE CALLVALUE DUP1 ISZERO PUSH2 0x10 JUMPI PUSH1 0x0 DUP1 REVERT JUMPDEST POP PUSH1 0x4 CALLDATASIZE LT PUSH2 0x93 JUMPI PUSH1 0x0 CALLDATALOAD PUSH1 0xE0 SHR DUP1 PUSH4 0x8AC9B3DF GT PUSH2 0x66 JUMPI DUP1 PUSH4 0x8AC9B3DF EQ PUSH2 0x137 JUMPI DUP1 PUSH4 0x9FB6D44A EQ PUSH2 0x14A JUMPI DUP1 PUSH4 0xBD3DDDE4 EQ PUSH2 0x15D JUMPI DUP1 PUSH4 0xD4092FA6 EQ PUSH2 0x170 JUMPI DUP1 PUSH4 0xF519E79F EQ PUSH2 0x183 JUMPI PUSH1 0x0 DUP1 REVERT JUMPDEST DUP1 PUSH4 0x125F0D9E EQ PUSH2 0x98 JUMPI DUP1 PUSH4 0x3ADC4361 EQ PUSH2 0xC7 JUMPI DUP1 PUSH4 0x42760717 EQ PUSH2 0xDA JUMPI DUP1 PUSH4 0x78CFD70E EQ PUSH2 0x117 JUMPI JUMPDEST PUSH1 0x0 DUP1 REVERT JUMPDEST PUSH2 0xAB PUSH2 0xA6 CALLDATASIZE PUSH1 0x4 PUSH2 0x2967 JUMP JUMPDEST PUSH2 0x1A3 JUMP JUMPDEST PUSH1 0x40 MLOAD PUSH6 0xFFFFFFFFFFFF SWAP1 SWAP2 AND DUP2 MSTORE PUSH1 0x20 ADD JUMPDEST PUSH1 0x40 MLOAD DUP1 SWAP2 SUB SWAP1 RETURN JUMPDEST PUSH2 0xAB PUSH2 0xD5 CALLDATASIZE PUSH1 0x4 PUSH2 0x2967 JUMP JUMPDEST PUSH2 0x479 JUMP JUMPDEST PUSH2 0xED PUSH2 0xE8 CALLDATASIZE PUSH1 0x4 PUSH2 0x29C3 JUMP JUMPDEST PUSH2 0x745 JUMP JUMPDEST PUSH1 0x40 DUP1 MLOAD PUSH1 0x1 PUSH1 0x1 PUSH1 0x70 SHL SUB SWAP5 DUP6 AND DUP2 MSTORE SWAP3 DUP5 AND PUSH1 0x20 DUP5 ADD MSTORE SWAP3 AND SWAP2 DUP2 ADD SWAP2 SWAP1 SWAP2 MSTORE PUSH1 0x60 ADD PUSH2 0xBE JUMP JUMPDEST PUSH2 0x12A PUSH2 0x125 CALLDATASIZE PUSH1 0x4 PUSH2 0x2A1D JUMP JUMPDEST PUSH2 0xBCA JUMP JUMPDEST PUSH1 0x40 MLOAD PUSH2 0xBE SWAP2 SWAP1 PUSH2 0x2A5D JUMP JUMPDEST PUSH2 0xED PUSH2 0x145 CALLDATASIZE PUSH1 0x4 PUSH2 0x29C3 JUMP JUMPDEST PUSH2 0xEA1 JUMP JUMPDEST PUSH2 0xED PUSH2 0x158 CALLDATASIZE PUSH1 0x4 PUSH2 0x29C3 JUMP JUMPDEST PUSH2 0x1436 JUMP JUMPDEST PUSH2 0xED PUSH2 0x16B CALLDATASIZE PUSH1 0x4 PUSH2 0x29C3 JUMP JUMPDEST PUSH2 0x1765 JUMP JUMPDEST PUSH2 0x12A PUSH2 0x17E CALLDATASIZE PUSH1 0x4 PUSH2 0x2A1D JUMP JUMPDEST PUSH2 0x1CB7 JUMP JUMPDEST PUSH2 0x196 PUSH2 0x191 CALLDATASIZE PUSH1 0x4 PUSH2 0x2ADB JUMP JUMPDEST PUSH2 0x1F80 JUMP JUMPDEST PUSH1 0x40 MLOAD PUSH2 0xBE SWAP2 SWAP1 PUSH2 0x2B1B JUMP JUMPDEST PUSH1 0x0 DUP1 DUP6 SWAP1 POP PUSH1 0x0 DUP2 PUSH1 0x1 PUSH1 0x1 PUSH1 0xA0 SHL SUB AND PUSH4 0xD21220A7 PUSH1 0x40 MLOAD DUP2 PUSH4 0xFFFFFFFF AND PUSH1 0xE0 SHL DUP2 MSTORE PUSH1 0x4 ADD PUSH1 0x20 PUSH1 0x40 MLOAD DUP1 DUP4 SUB DUP2 DUP7 GAS STATICCALL ISZERO DUP1 ISZERO PUSH2 0x1E9 JUMPI RETURNDATASIZE PUSH1 0x0 DUP1 RETURNDATACOPY RETURNDATASIZE PUSH1 0x0 REVERT JUMPDEST POP POP POP POP PUSH1 0x40 MLOAD RETURNDATASIZE PUSH1 0x1F NOT PUSH1 0x1F DUP3 ADD AND DUP3 ADD DUP1 PUSH1 0x40 MSTORE POP DUP2 ADD SWAP1 PUSH2 0x20D SWAP2 SWAP1 PUSH2 0x2BDF JUMP JUMPDEST PUSH1 0x40 MLOAD PUSH4 0x23B872DD PUSH1 0xE0 SHL DUP2 MSTORE SWAP1 SWAP2 POP PUSH1 0x1 PUSH1 0x1 PUSH1 0xA0 SHL SUB DUP3 AND SWAP1 PUSH4 0x23B872DD SWAP1 PUSH2 0x240 SWAP1 CALLER SWAP1 ADDRESS SWAP1 DUP12 SWAP1 PUSH1 0x4 ADD PUSH2 0x2BFC JUMP JUMPDEST PUSH1 0x20 PUSH1 0x40 MLOAD DUP1 DUP4 SUB DUP2 PUSH1 0x0 DUP8 GAS CALL ISZERO DUP1 ISZERO PUSH2 0x25F JUMPI RETURNDATASIZE PUSH1 0x0 DUP1 RETURNDATACOPY RETURNDATASIZE PUSH1 0x0 REVERT JUMPDEST POP POP POP POP PUSH1 0x40 MLOAD RETURNDATASIZE PUSH1 0x1F NOT PUSH1 0x1F DUP3 ADD AND DUP3 ADD DUP1 PUSH1 0x40 MSTORE POP DUP2 ADD SWAP1 PUSH2 0x283 SWAP2 SWAP1 PUSH2 0x2C28 JUMP JUMPDEST POP PUSH1 0x40 MLOAD PUSH4 0x6EB1769F PUSH1 0xE1 SHL DUP2 MSTORE ADDRESS PUSH1 0x4 DUP3 ADD MSTORE PUSH1 0x1 PUSH1 0x1 PUSH1 0xA0 SHL SUB DUP9 DUP2 AND PUSH1 0x24 DUP4 ADD MSTORE PUSH1 0x1 PUSH1 0x1 PUSH1 0x70 SHL SUB DUP9 AND SWAP2 SWAP1 DUP4 AND SWAP1 PUSH4 0xDD62ED3E SWAP1 PUSH1 0x44 ADD PUSH1 0x20 PUSH1 0x40 MLOAD DUP1 DUP4 SUB DUP2 DUP7 GAS STATICCALL ISZERO DUP1 ISZERO PUSH2 0x2DC JUMPI RETURNDATASIZE PUSH1 0x0 DUP1 RETURNDATACOPY RETURNDATASIZE PUSH1 0x0 REVERT JUMPDEST POP POP POP POP PUSH1 0x40 MLOAD RETURNDATASIZE PUSH1 0x1F NOT PUSH1 0x1F DUP3 ADD AND DUP3 ADD DUP1 PUSH1 0x40 MSTORE POP DUP2 ADD SWAP1 PUSH2 0x300 SWAP2 SWAP1 PUSH2 0x2C4A JUMP JUMPDEST LT ISZERO PUSH2 0x37C JUMPI PUSH1 0x40 MLOAD PUSH4 0x95EA7B3 PUSH1 0xE0 SHL DUP2 MSTORE PUSH1 0x1 PUSH1 0x1 PUSH1 0xA0 SHL SUB DUP9 DUP2 AND PUSH1 0x4 DUP4 ADD MSTORE PUSH1 0x0 NOT PUSH1 0x24 DUP4 ADD MSTORE DUP3 AND SWAP1 PUSH4 0x95EA7B3 SWAP1 PUSH1 0x44 ADD PUSH1 0x20 PUSH1 0x40 MLOAD DUP1 DUP4 SUB DUP2 PUSH1 0x0 DUP8 GAS CALL ISZERO DUP1 ISZERO PUSH2 0x356 JUMPI RETURNDATASIZE PUSH1 0x0 DUP1 RETURNDATACOPY RETURNDATASIZE PUSH1 0x0 REVERT JUMPDEST POP POP POP POP PUSH1 0x40 MLOAD RETURNDATASIZE PUSH1 0x1F NOT PUSH1 0x1F DUP3 ADD AND DUP3 ADD DUP1 PUSH1 0x40 MSTORE POP DUP2 ADD SWAP1 PUSH2 0x37A SWAP2 SWAP1 PUSH2 0x2C28 JUMP JUMPDEST POP JUMPDEST PUSH1 0x0 PUSH2 0x38A DUP9 DUP9 DUP9 DUP9 PUSH2 0x2134 JUMP JUMPDEST PUSH1 0x40 MLOAD PUSH3 0x50C931 PUSH1 0xE5 SHL DUP2 MSTORE SWAP1 SWAP2 POP PUSH1 0x1 PUSH1 0x1 PUSH1 0xA0 SHL SUB DUP5 AND SWAP1 PUSH4 0xA192620 SWAP1 PUSH2 0x3BC SWAP1 DUP11 SWAP1 DUP11 SWAP1 DUP7 SWAP1 PUSH1 0x4 ADD PUSH2 0x2C63 JUMP JUMPDEST PUSH1 0x20 PUSH1 0x40 MLOAD DUP1 DUP4 SUB DUP2 PUSH1 0x0 DUP8 GAS CALL ISZERO DUP1 ISZERO PUSH2 0x3DB JUMPI RETURNDATASIZE PUSH1 0x0 DUP1 RETURNDATACOPY RETURNDATASIZE PUSH1 0x0 REVERT JUMPDEST POP POP POP POP PUSH1 0x40 MLOAD RETURNDATASIZE PUSH1 0x1F NOT PUSH1 0x1F DUP3 ADD AND DUP3 ADD DUP1 PUSH1 0x40 MSTORE POP DUP2 ADD SWAP1 PUSH2 0x3FF SWAP2 SWAP1 PUSH2 0x2C9E JUMP JUMPDEST PUSH1 0x40 MLOAD PUSH4 0x58C0C53 PUSH1 0xE4 SHL DUP2 MSTORE SWAP1 SWAP5 POP PUSH1 0x1 PUSH1 0x1 PUSH1 0xA0 SHL SUB DUP5 AND SWAP1 PUSH4 0x58C0C530 SWAP1 PUSH2 0x430 SWAP1 DUP8 SWAP1 CALLER SWAP1 PUSH1 0x4 ADD PUSH2 0x2CBB JUMP JUMPDEST PUSH1 0x0 PUSH1 0x40 MLOAD DUP1 DUP4 SUB DUP2 PUSH1 0x0 DUP8 DUP1 EXTCODESIZE ISZERO DUP1 ISZERO PUSH2 0x44A JUMPI PUSH1 0x0 DUP1 REVERT JUMPDEST POP GAS CALL ISZERO DUP1 ISZERO PUSH2 0x45E JUMPI RETURNDATASIZE PUSH1 0x0 DUP1 RETURNDATACOPY RETURNDATASIZE PUSH1 0x0 REVERT JUMPDEST POP POP POP POP PUSH2 0x46E DUP9 DUP6 PUSH1 0x1 PUSH2 0x2366 JUMP JUMPDEST POP POP POP SWAP5 SWAP4 POP POP POP POP JUMP JUMPDEST PUSH1 0x0 DUP1 DUP6 SWAP1 POP PUSH1 0x0 DUP2 PUSH1 0x1 PUSH1 0x1 PUSH1 0xA0 SHL SUB AND PUSH4 0xDFE1681 PUSH1 0x40 MLOAD DUP2 PUSH4 0xFFFFFFFF AND PUSH1 0xE0 SHL DUP2 MSTORE PUSH1 0x4 ADD PUSH1 0x20 PUSH1 0x40 MLOAD DUP1 DUP4 SUB DUP2 DUP7 GAS STATICCALL ISZERO DUP1 ISZERO PUSH2 0x4BF JUMPI RETURNDATASIZE PUSH1 0x0 DUP1 RETURNDATACOPY RETURNDATASIZE PUSH1 0x0 REVERT JUMPDEST POP POP POP POP PUSH1 0x40 MLOAD RETURNDATASIZE PUSH1 0x1F NOT PUSH1 0x1F DUP3 ADD AND DUP3 ADD DUP1 PUSH1 0x40 MSTORE POP DUP2 ADD SWAP1 PUSH2 0x4E3 SWAP2 SWAP1 PUSH2 0x2BDF JUMP JUMPDEST PUSH1 0x40 MLOAD PUSH4 0x23B872DD PUSH1 0xE0 SHL DUP2 MSTORE SWAP1 SWAP2 POP PUSH1 0x1 PUSH1 0x1 PUSH1 0xA0 SHL SUB DUP3 AND SWAP1 PUSH4 0x23B872DD SWAP1 PUSH2 0x516 SWAP1 CALLER SWAP1 ADDRESS SWAP1 DUP12 SWAP1 PUSH1 0x4 ADD PUSH2 0x2BFC JUMP JUMPDEST PUSH1 0x20 PUSH1 0x40 MLOAD DUP1 DUP4 SUB DUP2 PUSH1 0x0 DUP8 GAS CALL ISZERO DUP1 ISZERO PUSH2 0x535 JUMPI RETURNDATASIZE PUSH1 0x0 DUP1 RETURNDATACOPY RETURNDATASIZE PUSH1 0x0 REVERT JUMPDEST POP POP POP POP PUSH1 0x40 MLOAD RETURNDATASIZE PUSH1 0x1F NOT PUSH1 0x1F DUP3 ADD AND DUP3 ADD DUP1 PUSH1 0x40 MSTORE POP DUP2 ADD SWAP1 PUSH2 0x559 SWAP2 SWAP1 PUSH2 0x2C28 JUMP JUMPDEST POP PUSH1 0x40 MLOAD PUSH4 0x6EB1769F PUSH1 0xE1 SHL DUP2 MSTORE ADDRESS PUSH1 0x4 DUP3 ADD MSTORE PUSH1 0x1 PUSH1 0x1 PUSH1 0xA0 SHL SUB DUP9 DUP2 AND PUSH1 0x24 DUP4 ADD MSTORE PUSH1 0x1 PUSH1 0x1 PUSH1 0x70 SHL SUB DUP9 AND SWAP2 SWAP1 DUP4 AND SWAP1 PUSH4 0xDD62ED3E SWAP1 PUSH1 0x44 ADD PUSH1 0x20 PUSH1 0x40 MLOAD DUP1 DUP4 SUB DUP2 DUP7 GAS STATICCALL ISZERO DUP1 ISZERO PUSH2 0x5B2 JUMPI RETURNDATASIZE PUSH1 0x0 DUP1 RETURNDATACOPY RETURNDATASIZE PUSH1 0x0 REVERT JUMPDEST POP POP POP POP PUSH1 0x40 MLOAD RETURNDATASIZE PUSH1 0x1F NOT PUSH1 0x1F DUP3 ADD AND DUP3 ADD DUP1 PUSH1 0x40 MSTORE POP DUP2 ADD SWAP1 PUSH2 0x5D6 SWAP2 SWAP1 PUSH2 0x2C4A JUMP JUMPDEST LT ISZERO PUSH2 0x652 JUMPI PUSH1 0x40 MLOAD PUSH4 0x95EA7B3 PUSH1 0xE0 SHL DUP2 MSTORE PUSH1 0x1 PUSH1 0x1 PUSH1 0xA0 SHL SUB DUP9 DUP2 AND PUSH1 0x4 DUP4 ADD MSTORE PUSH1 0x0 NOT PUSH1 0x24 DUP4 ADD MSTORE DUP3 AND SWAP1 PUSH4 0x95EA7B3 SWAP1 PUSH1 0x44 ADD PUSH1 0x20 PUSH1 0x40 MLOAD DUP1 DUP4 SUB DUP2 PUSH1 0x0 DUP8 GAS CALL ISZERO DUP1 ISZERO PUSH2 0x62C JUMPI RETURNDATASIZE PUSH1 0x0 DUP1 RETURNDATACOPY RETURNDATASIZE PUSH1 0x0 REVERT JUMPDEST POP POP POP POP PUSH1 0x40 MLOAD RETURNDATASIZE PUSH1 0x1F NOT PUSH1 0x1F DUP3 ADD AND DUP3 ADD DUP1 PUSH1 0x40 MSTORE POP DUP2 ADD SWAP1 PUSH2 0x650 SWAP2 SWAP1 PUSH2 0x2C28 JUMP JUMPDEST POP JUMPDEST PUSH1 0x0 PUSH2 0x660 DUP9 DUP9 DUP9 DUP9 PUSH2 0x2484 JUMP JUMPDEST PUSH1 0x40 MLOAD PUSH4 0x7816C7D7 PUSH1 0xE1 SHL DUP2 MSTORE SWAP1 SWAP2 POP PUSH1 0x1 PUSH1 0x1 PUSH1 0xA0 SHL SUB DUP5 AND SWAP1 PUSH4 0xF02D8FAE SWAP1 PUSH2 0x693 SWAP1 DUP11 SWAP1 DUP11 SWAP1 DUP7 SWAP1 PUSH1 0x4 ADD PUSH2 0x2C63 JUMP JUMPDEST PUSH1 0x20 PUSH1 0x40 MLOAD DUP1 DUP4 SUB DUP2 PUSH1 0x0 DUP8 GAS CALL ISZERO DUP1 ISZERO PUSH2 0x6B2 JUMPI RETURNDATASIZE PUSH1 0x0 DUP1 RETURNDATACOPY RETURNDATASIZE PUSH1 0x0 REVERT JUMPDEST POP POP POP POP PUSH1 0x40 MLOAD RETURNDATASIZE PUSH1 0x1F NOT PUSH1 0x1F DUP3 ADD AND DUP3 ADD DUP1 PUSH1 0x40 MSTORE POP DUP2 ADD SWAP1 PUSH2 0x6D6 SWAP2 SWAP1 PUSH2 0x2C9E JUMP JUMPDEST PUSH1 0x40 MLOAD PUSH4 0x5FF09B1F PUSH1 0xE1 SHL DUP2 MSTORE SWAP1 SWAP5 POP PUSH1 0x1 PUSH1 0x1 PUSH1 0xA0 SHL SUB DUP5 AND SWAP1 PUSH4 0xBFE1363E SWAP1 PUSH2 0x707 SWAP1 DUP8 SWAP1 CALLER SWAP1 PUSH1 0x4 ADD PUSH2 0x2CBB JUMP JUMPDEST PUSH1 0x0 PUSH1 0x40 MLOAD DUP1 DUP4 SUB DUP2 PUSH1 0x0 DUP8 DUP1 EXTCODESIZE ISZERO DUP1 ISZERO PUSH2 0x721 JUMPI PUSH1 0x0 DUP1 REVERT JUMPDEST POP GAS CALL ISZERO DUP1 ISZERO PUSH2 0x735 JUMPI RETURNDATASIZE PUSH1 0x0 DUP1 RETURNDATACOPY RETURNDATASIZE PUSH1 0x0 REVERT JUMPDEST POP POP POP POP PUSH2 0x46E DUP9 DUP6 PUSH1 0x0 PUSH2 0x2366 JUMP JUMPDEST PUSH1 0x0 DUP1 PUSH1 0x0 DUP1 DUP7 SWAP1 POP PUSH1 0x0 DUP2 PUSH1 0x1 PUSH1 0x1 PUSH1 0xA0 SHL SUB AND PUSH4 0xD21220A7 PUSH1 0x40 MLOAD DUP2 PUSH4 0xFFFFFFFF AND PUSH1 0xE0 SHL DUP2 MSTORE PUSH1 0x4 ADD PUSH1 0x20 PUSH1 0x40 MLOAD DUP1 DUP4 SUB DUP2 DUP7 GAS STATICCALL ISZERO DUP1 ISZERO PUSH2 0x78E JUMPI RETURNDATASIZE PUSH1 0x0 DUP1 RETURNDATACOPY RETURNDATASIZE PUSH1 0x0 REVERT JUMPDEST POP POP POP POP PUSH1 0x40 MLOAD RETURNDATASIZE PUSH1 0x1F NOT PUSH1 0x1F DUP3 ADD AND DUP3 ADD DUP1 PUSH1 0x40 MSTORE POP DUP2 ADD SWAP1 PUSH2 0x7B2 SWAP2 SWAP1 PUSH2 0x2BDF JUMP JUMPDEST SWAP1 POP PUSH1 0x0 PUSH2 0x2710 DUP4 PUSH1 0x1 PUSH1 0x1 PUSH1 0xA0 SHL SUB AND PUSH4 0xDDCA3F43 PUSH1 0x40 MLOAD DUP2 PUSH4 0xFFFFFFFF AND PUSH1 0xE0 SHL DUP2 MSTORE PUSH1 0x4 ADD PUSH1 0x20 PUSH1 0x40 MLOAD DUP1 DUP4 SUB DUP2 DUP7 GAS STATICCALL ISZERO DUP1 ISZERO PUSH2 0x7F7 JUMPI RETURNDATASIZE PUSH1 0x0 DUP1 RETURNDATACOPY RETURNDATASIZE PUSH1 0x0 REVERT JUMPDEST POP POP POP POP PUSH1 0x40 MLOAD RETURNDATASIZE PUSH1 0x1F NOT PUSH1 0x1F DUP3 ADD AND DUP3 ADD DUP1 PUSH1 0x40 MSTORE POP DUP2 ADD SWAP1 PUSH2 0x81B SWAP2 SWAP1 PUSH2 0x2CDC JUMP JUMPDEST PUSH2 0x828 SWAP1 PUSH1 0xFF AND DUP11 PUSH2 0x2D0F JUMP JUMPDEST PUSH2 0x832 SWAP2 SWAP1 PUSH2 0x2D3A JUMP JUMPDEST SWAP1 POP PUSH1 0x0 PUSH2 0x840 DUP10 DUP4 PUSH2 0x2D6E JUMP JUMPDEST PUSH1 0x40 MLOAD PUSH4 0x23B872DD PUSH1 0xE0 SHL DUP2 MSTORE SWAP1 SWAP2 POP PUSH1 0x1 PUSH1 0x1 PUSH1 0xA0 SHL SUB DUP5 AND SWAP1 PUSH4 0x23B872DD SWAP1 PUSH2 0x873 SWAP1 CALLER SWAP1 ADDRESS SWAP1 DUP7 SWAP1 PUSH1 0x4 ADD PUSH2 0x2BFC JUMP JUMPDEST PUSH1 0x20 PUSH1 0x40 MLOAD DUP1 DUP4 SUB DUP2 PUSH1 0x0 DUP8 GAS CALL ISZERO DUP1 ISZERO PUSH2 0x892 JUMPI RETURNDATASIZE PUSH1 0x0 DUP1 RETURNDATACOPY RETURNDATASIZE PUSH1 0x0 REVERT JUMPDEST POP POP POP POP PUSH1 0x40 MLOAD RETURNDATASIZE PUSH1 0x1F NOT PUSH1 0x1F DUP3 ADD AND DUP3 ADD DUP1 PUSH1 0x40 MSTORE POP DUP2 ADD SWAP1 PUSH2 0x8B6 SWAP2 SWAP1 PUSH2 0x2C28 JUMP JUMPDEST POP PUSH1 0x40 MLOAD PUSH4 0x6EB1769F PUSH1 0xE1 SHL DUP2 MSTORE ADDRESS PUSH1 0x4 DUP3 ADD MSTORE PUSH1 0x1 PUSH1 0x1 PUSH1 0xA0 SHL SUB DUP12 DUP2 AND PUSH1 0x24 DUP4 ADD MSTORE PUSH1 0x1 PUSH1 0x1 PUSH1 0x70 SHL SUB DUP4 AND SWAP2 SWAP1 DUP6 AND SWAP1 PUSH4 0xDD62ED3E SWAP1 PUSH1 0x44 ADD PUSH1 0x20 PUSH1 0x40 MLOAD DUP1 DUP4 SUB DUP2 DUP7 GAS STATICCALL ISZERO DUP1 ISZERO PUSH2 0x90F JUMPI RETURNDATASIZE PUSH1 0x0 DUP1 RETURNDATACOPY RETURNDATASIZE PUSH1 0x0 REVERT JUMPDEST POP POP POP POP PUSH1 0x40 MLOAD RETURNDATASIZE PUSH1 0x1F NOT PUSH1 0x1F DUP3 ADD AND DUP3 ADD DUP1 PUSH1 0x40 MSTORE POP DUP2 ADD SWAP1 PUSH2 0x933 SWAP2 SWAP1 PUSH2 0x2C4A JUMP JUMPDEST LT ISZERO PUSH2 0x9AF JUMPI PUSH1 0x40 MLOAD PUSH4 0x95EA7B3 PUSH1 0xE0 SHL DUP2 MSTORE PUSH1 0x1 PUSH1 0x1 PUSH1 0xA0 SHL SUB DUP12 DUP2 AND PUSH1 0x4 DUP4 ADD MSTORE PUSH1 0x0 NOT PUSH1 0x24 DUP4 ADD MSTORE DUP5 AND SWAP1 PUSH4 0x95EA7B3 SWAP1 PUSH1 0x44 ADD PUSH1 0x20 PUSH1 0x40 MLOAD DUP1 DUP4 SUB DUP2 PUSH1 0x0 DUP8 GAS CALL ISZERO DUP1 ISZERO PUSH2 0x989 JUMPI RETURNDATASIZE PUSH1 0x0 DUP1 RETURNDATACOPY RETURNDATASIZE PUSH1 0x0 REVERT JUMPDEST POP POP POP POP PUSH1 0x40 MLOAD RETURNDATASIZE PUSH1 0x1F NOT PUSH1 0x1F DUP3 ADD AND DUP3 ADD DUP1 PUSH1 0x40 MSTORE POP DUP2 ADD SWAP1 PUSH2 0x9AD SWAP2 SWAP1 PUSH2 0x2C28 JUMP JUMPDEST POP JUMPDEST PUSH1 0x40 MLOAD PUSH4 0x97687E5 PUSH1 0xE3 SHL DUP2 MSTORE PUSH1 0x1 PUSH1 0x1 PUSH1 0x70 SHL SUB DUP1 DUP12 AND PUSH1 0x4 DUP4 ADD MSTORE DUP10 AND PUSH1 0x24 DUP3 ADD MSTORE PUSH1 0x1 PUSH1 0x1 PUSH1 0xA0 SHL SUB DUP6 AND SWAP1 PUSH4 0x4BB43F28 SWAP1 PUSH1 0x44 ADD PUSH1 0x60 PUSH1 0x40 MLOAD DUP1 DUP4 SUB DUP2 PUSH1 0x0 DUP8 GAS CALL ISZERO DUP1 ISZERO PUSH2 0xA06 JUMPI RETURNDATASIZE PUSH1 0x0 DUP1 RETURNDATACOPY RETURNDATASIZE PUSH1 0x0 REVERT JUMPDEST POP POP POP POP PUSH1 0x40 MLOAD RETURNDATASIZE PUSH1 0x1F NOT PUSH1 0x1F DUP3 ADD AND DUP3 ADD DUP1 PUSH1 0x40 MSTORE POP DUP2 ADD SWAP1 PUSH2 0xA2A SWAP2 SWAP1 PUSH2 0x2DA0 JUMP JUMPDEST DUP1 SWAP8 POP DUP2 SWAP9 POP DUP3 SWAP10 POP POP POP POP DUP4 PUSH1 0x1 PUSH1 0x1 PUSH1 0xA0 SHL SUB AND PUSH4 0xDFE1681 PUSH1 0x40 MLOAD DUP2 PUSH4 0xFFFFFFFF AND PUSH1 0xE0 SHL DUP2 MSTORE PUSH1 0x4 ADD PUSH1 0x20 PUSH1 0x40 MLOAD DUP1 DUP4 SUB DUP2 DUP7 GAS STATICCALL ISZERO DUP1 ISZERO PUSH2 0xA74 JUMPI RETURNDATASIZE PUSH1 0x0 DUP1 RETURNDATACOPY RETURNDATASIZE PUSH1 0x0 REVERT JUMPDEST POP POP POP POP PUSH1 0x40 MLOAD RETURNDATASIZE PUSH1 0x1F NOT PUSH1 0x1F DUP3 ADD AND DUP3 ADD DUP1 PUSH1 0x40 MSTORE POP DUP2 ADD SWAP1 PUSH2 0xA98 SWAP2 SWAP1 PUSH2 0x2BDF JUMP JUMPDEST PUSH1 0x1 PUSH1 0x1 PUSH1 0xA0 SHL SUB AND PUSH4 0xA9059CBB CALLER DUP9 PUSH1 0x40 MLOAD DUP4 PUSH4 0xFFFFFFFF AND PUSH1 0xE0 SHL DUP2 MSTORE PUSH1 0x4 ADD PUSH2 0xAC5 SWAP3 SWAP2 SWAP1 PUSH2 0x2DE2 JUMP JUMPDEST PUSH1 0x20 PUSH1 0x40 MLOAD DUP1 DUP4 SUB DUP2 PUSH1 0x0 DUP8 GAS CALL ISZERO DUP1 ISZERO PUSH2 0xAE4 JUMPI RETURNDATASIZE PUSH1 0x0 DUP1 RETURNDATACOPY RETURNDATASIZE PUSH1 0x0 REVERT JUMPDEST POP POP POP POP PUSH1 0x40 MLOAD RETURNDATASIZE PUSH1 0x1F NOT PUSH1 0x1F DUP3 ADD AND DUP3 ADD DUP1 PUSH1 0x40 MSTORE POP DUP2 ADD SWAP1 PUSH2 0xB08 SWAP2 SWAP1 PUSH2 0x2C28 JUMP JUMPDEST POP DUP7 PUSH1 0x1 PUSH1 0x1 PUSH1 0x70 SHL SUB AND DUP10 PUSH1 0x1 PUSH1 0x1 PUSH1 0x70 SHL SUB AND GT ISZERO PUSH2 0xBBD JUMPI PUSH1 0x0 PUSH2 0xB2F DUP9 DUP12 PUSH2 0x2E04 JUMP JUMPDEST SWAP1 POP PUSH1 0x0 PUSH2 0xB3D DUP8 DUP6 PUSH2 0x2E04 JUMP JUMPDEST SWAP1 POP PUSH1 0x1 PUSH1 0x1 PUSH1 0xA0 SHL SUB DUP6 AND PUSH4 0xA9059CBB CALLER PUSH2 0xB59 DUP5 DUP7 PUSH2 0x2D6E JUMP JUMPDEST PUSH1 0x40 MLOAD DUP4 PUSH4 0xFFFFFFFF AND PUSH1 0xE0 SHL DUP2 MSTORE PUSH1 0x4 ADD PUSH2 0xB76 SWAP3 SWAP2 SWAP1 PUSH2 0x2DE2 JUMP JUMPDEST PUSH1 0x20 PUSH1 0x40 MLOAD DUP1 DUP4 SUB DUP2 PUSH1 0x0 DUP8 GAS CALL ISZERO DUP1 ISZERO PUSH2 0xB95 JUMPI RETURNDATASIZE PUSH1 0x0 DUP1 RETURNDATACOPY RETURNDATASIZE PUSH1 0x0 REVERT JUMPDEST POP POP POP POP PUSH1 0x40 MLOAD RETURNDATASIZE PUSH1 0x1F NOT PUSH1 0x1F DUP3 ADD AND DUP3 ADD DUP1 PUSH1 0x40 MSTORE POP DUP2 ADD SWAP1 PUSH2 0xBB9 SWAP2 SWAP1 PUSH2 0x2C28 JUMP JUMPDEST POP POP POP JUMPDEST POP POP POP POP SWAP4 POP SWAP4 POP SWAP4 SWAP1 POP JUMP JUMPDEST PUSH1 0x60 PUSH1 0x0 DUP3 PUSH1 0xFF AND PUSH8 0xFFFFFFFFFFFFFFFF DUP2 GT ISZERO PUSH2 0xBEA JUMPI PUSH2 0xBEA PUSH2 0x2E24 JUMP JUMPDEST PUSH1 0x40 MLOAD SWAP1 DUP1 DUP3 MSTORE DUP1 PUSH1 0x20 MUL PUSH1 0x20 ADD DUP3 ADD PUSH1 0x40 MSTORE DUP1 ISZERO PUSH2 0xC3C JUMPI DUP2 PUSH1 0x20 ADD JUMPDEST PUSH1 0x40 DUP1 MLOAD PUSH1 0x80 DUP2 ADD DUP3 MSTORE PUSH1 0x0 DUP1 DUP3 MSTORE PUSH1 0x20 DUP1 DUP4 ADD DUP3 SWAP1 MSTORE SWAP3 DUP3 ADD DUP2 SWAP1 MSTORE PUSH1 0x60 DUP3 ADD MSTORE DUP3 MSTORE PUSH1 0x0 NOT SWAP1 SWAP3 ADD SWAP2 ADD DUP2 PUSH2 0xC08 JUMPI SWAP1 POP JUMPDEST POP SWAP1 POP DUP5 PUSH6 0xFFFFFFFFFFFF DUP6 AND PUSH1 0x0 SUB PUSH2 0xCB5 JUMPI DUP1 PUSH1 0x1 PUSH1 0x1 PUSH1 0xA0 SHL SUB AND PUSH4 0x7C33E99A PUSH1 0x40 MLOAD DUP2 PUSH4 0xFFFFFFFF AND PUSH1 0xE0 SHL DUP2 MSTORE PUSH1 0x4 ADD PUSH1 0x20 PUSH1 0x40 MLOAD DUP1 DUP4 SUB DUP2 DUP7 GAS STATICCALL ISZERO DUP1 ISZERO PUSH2 0xC8E JUMPI RETURNDATASIZE PUSH1 0x0 DUP1 RETURNDATACOPY RETURNDATASIZE PUSH1 0x0 REVERT JUMPDEST POP POP POP POP PUSH1 0x40 MLOAD RETURNDATASIZE PUSH1 0x1F NOT PUSH1 0x1F DUP3 ADD AND DUP3 ADD DUP1 PUSH1 0x40 MSTORE POP DUP2 ADD SWAP1 PUSH2 0xCB2 SWAP2 SWAP1 PUSH2 0x2C9E JUMP JUMPDEST SWAP5 POP JUMPDEST PUSH1 0x40 MLOAD PUSH4 0x2B9116EB PUSH1 0xE2 SHL DUP2 MSTORE PUSH6 0xFFFFFFFFFFFF DUP7 AND PUSH1 0x4 DUP3 ADD MSTORE PUSH1 0x0 SWAP1 PUSH1 0x1 PUSH1 0x1 PUSH1 0xA0 SHL SUB DUP4 AND SWAP1 PUSH4 0xAE445BAC SWAP1 PUSH1 0x24 ADD PUSH1 0xC0 PUSH1 0x40 MLOAD DUP1 DUP4 SUB DUP2 DUP7 GAS STATICCALL ISZERO DUP1 ISZERO PUSH2 0xD04 JUMPI RETURNDATASIZE PUSH1 0x0 DUP1 RETURNDATACOPY RETURNDATASIZE PUSH1 0x0 REVERT JUMPDEST POP POP POP POP PUSH1 0x40 MLOAD RETURNDATASIZE PUSH1 0x1F NOT PUSH1 0x1F DUP3 ADD AND DUP3 ADD DUP1 PUSH1 0x40 MSTORE POP DUP2 ADD SWAP1 PUSH2 0xD28 SWAP2 SWAP1 PUSH2 0x2E59 JUMP JUMPDEST SWAP1 POP PUSH1 0x40 MLOAD DUP1 PUSH1 0x80 ADD PUSH1 0x40 MSTORE DUP1 DUP8 PUSH6 0xFFFFFFFFFFFF AND DUP2 MSTORE PUSH1 0x20 ADD DUP3 PUSH1 0x60 ADD MLOAD PUSH1 0x1 PUSH1 0x1 PUSH1 0x70 SHL SUB AND DUP2 MSTORE PUSH1 0x20 ADD DUP3 PUSH1 0x80 ADD MLOAD PUSH1 0x1 PUSH1 0x1 PUSH1 0x70 SHL SUB AND DUP2 MSTORE PUSH1 0x20 ADD DUP3 PUSH1 0xA0 ADD MLOAD PUSH4 0xFFFFFFFF AND DUP2 MSTORE POP DUP4 PUSH1 0x0 DUP2 MLOAD DUP2 LT PUSH2 0xD8A JUMPI PUSH2 0xD8A PUSH2 0x2F06 JUMP JUMPDEST PUSH1 0x20 SWAP1 DUP2 MUL SWAP2 SWAP1 SWAP2 ADD ADD MSTORE PUSH1 0x1 JUMPDEST DUP6 PUSH1 0xFF AND DUP2 PUSH1 0xFF AND LT ISZERO PUSH2 0xE93 JUMPI PUSH1 0x20 DUP3 ADD MLOAD PUSH1 0x40 MLOAD PUSH4 0x2B9116EB PUSH1 0xE2 SHL DUP2 MSTORE PUSH6 0xFFFFFFFFFFFF DUP3 AND PUSH1 0x4 DUP3 ADD MSTORE PUSH1 0x1 PUSH1 0x1 PUSH1 0xA0 SHL SUB DUP6 AND SWAP1 PUSH4 0xAE445BAC SWAP1 PUSH1 0x24 ADD PUSH1 0xC0 PUSH1 0x40 MLOAD DUP1 DUP4 SUB DUP2 DUP7 GAS STATICCALL ISZERO DUP1 ISZERO PUSH2 0xDF7 JUMPI RETURNDATASIZE PUSH1 0x0 DUP1 RETURNDATACOPY RETURNDATASIZE PUSH1 0x0 REVERT JUMPDEST POP POP POP POP PUSH1 0x40 MLOAD RETURNDATASIZE PUSH1 0x1F NOT PUSH1 0x1F DUP3 ADD AND DUP3 ADD DUP1 PUSH1 0x40 MSTORE POP DUP2 ADD SWAP1 PUSH2 0xE1B SWAP2 SWAP1 PUSH2 0x2E59 JUMP JUMPDEST SWAP3 POP PUSH1 0x40 MLOAD DUP1 PUSH1 0x80 ADD PUSH1 0x40 MSTORE DUP1 DUP3 PUSH6 0xFFFFFFFFFFFF AND DUP2 MSTORE PUSH1 0x20 ADD DUP5 PUSH1 0x60 ADD MLOAD PUSH1 0x1 PUSH1 0x1 PUSH1 0x70 SHL SUB AND DUP2 MSTORE PUSH1 0x20 ADD DUP5 PUSH1 0x80 ADD MLOAD PUSH1 0x1 PUSH1 0x1 PUSH1 0x70 SHL SUB AND DUP2 MSTORE PUSH1 0x20 ADD DUP5 PUSH1 0xA0 ADD MLOAD PUSH4 0xFFFFFFFF AND DUP2 MSTORE POP DUP6 DUP4 PUSH1 0xFF AND DUP2 MLOAD DUP2 LT PUSH2 0xE7F JUMPI PUSH2 0xE7F PUSH2 0x2F06 JUMP JUMPDEST PUSH1 0x20 SWAP1 DUP2 MUL SWAP2 SWAP1 SWAP2 ADD ADD MSTORE POP PUSH1 0x1 ADD PUSH2 0xD98 JUMP JUMPDEST POP SWAP2 SWAP3 POP POP POP JUMPDEST SWAP4 SWAP3 POP POP POP JUMP JUMPDEST PUSH1 0x0 DUP1 PUSH1 0x0 DUP1 DUP7 SWAP1 POP PUSH1 0x0 DUP2 PUSH1 0x1 PUSH1 0x1 PUSH1 0xA0 SHL SUB AND PUSH4 0xD21220A7 PUSH1 0x40 MLOAD DUP2 PUSH4 0xFFFFFFFF AND PUSH1 0xE0 SHL DUP2 MSTORE PUSH1 0x4 ADD PUSH1 0x20 PUSH1 0x40 MLOAD DUP1 DUP4 SUB DUP2 DUP7 GAS STATICCALL ISZERO DUP1 ISZERO PUSH2 0xEEA JUMPI RETURNDATASIZE PUSH1 0x0 DUP1 RETURNDATACOPY RETURNDATASIZE PUSH1 0x0 REVERT JUMPDEST POP POP POP POP PUSH1 0x40 MLOAD RETURNDATASIZE PUSH1 0x1F NOT PUSH1 0x1F DUP3 ADD AND DUP3 ADD DUP1 PUSH1 0x40 MSTORE POP DUP2 ADD SWAP1 PUSH2 0xF0E SWAP2 SWAP1 PUSH2 0x2BDF JUMP JUMPDEST SWAP1 POP PUSH1 0x0 PUSH2 0x2710 DUP4 PUSH1 0x1 PUSH1 0x1 PUSH1 0xA0 SHL SUB AND PUSH4 0xDDCA3F43 PUSH1 0x40 MLOAD DUP2 PUSH4 0xFFFFFFFF AND PUSH1 0xE0 SHL DUP2 MSTORE PUSH1 0x4 ADD PUSH1 0x20 PUSH1 0x40 MLOAD DUP1 DUP4 SUB DUP2 DUP7 GAS STATICCALL ISZERO DUP1 ISZERO PUSH2 0xF53 JUMPI RETURNDATASIZE PUSH1 0x0 DUP1 RETURNDATACOPY RETURNDATASIZE PUSH1 0x0 REVERT JUMPDEST POP POP POP POP PUSH1 0x40 MLOAD RETURNDATASIZE PUSH1 0x1F NOT PUSH1 0x1F DUP3 ADD AND DUP3 ADD DUP1 PUSH1 0x40 MSTORE POP DUP2 ADD SWAP1 PUSH2 0xF77 SWAP2 SWAP1 PUSH2 0x2CDC JUMP JUMPDEST PUSH2 0xF84 SWAP1 PUSH1 0xFF AND DUP11 PUSH2 0x2D0F JUMP JUMPDEST PUSH2 0xF8E SWAP2 SWAP1 PUSH2 0x2D3A JUMP JUMPDEST SWAP1 POP PUSH1 0x0 PUSH2 0xF9C DUP10 DUP4 PUSH2 0x2D6E JUMP JUMPDEST PUSH1 0x40 MLOAD PUSH4 0x23B872DD PUSH1 0xE0 SHL DUP2 MSTORE SWAP1 SWAP2 POP PUSH1 0x1 PUSH1 0x1 PUSH1 0xA0 SHL SUB DUP5 AND SWAP1 PUSH4 0x23B872DD SWAP1 PUSH2 0xFCF SWAP1 CALLER SWAP1 ADDRESS SWAP1 DUP7 SWAP1 PUSH1 0x4 ADD PUSH2 0x2BFC JUMP JUMPDEST PUSH1 0x20 PUSH1 0x40 MLOAD DUP1 DUP4 SUB DUP2 PUSH1 0x0 DUP8 GAS CALL ISZERO DUP1 ISZERO PUSH2 0xFEE JUMPI RETURNDATASIZE PUSH1 0x0 DUP1 RETURNDATACOPY RETURNDATASIZE PUSH1 0x0 REVERT JUMPDEST POP POP POP POP PUSH1 0x40 MLOAD RETURNDATASIZE PUSH1 0x1F NOT PUSH1 0x1F DUP3 ADD AND DUP3 ADD DUP1 PUSH1 0x40 MSTORE POP DUP2 ADD SWAP1 PUSH2 0x1012 SWAP2 SWAP1 PUSH2 0x2C28 JUMP JUMPDEST POP PUSH1 0x40 MLOAD PUSH4 0x6EB1769F PUSH1 0xE1 SHL DUP2 MSTORE ADDRESS PUSH1 0x4 DUP3 ADD MSTORE PUSH1 0x1 PUSH1 0x1 PUSH1 0xA0 SHL SUB DUP12 DUP2 AND PUSH1 0x24 DUP4 ADD MSTORE PUSH1 0x1 PUSH1 0x1 PUSH1 0x70 SHL SUB DUP4 AND SWAP2 SWAP1 DUP6 AND SWAP1 PUSH4 0xDD62ED3E SWAP1 PUSH1 0x44 ADD PUSH1 0x20 PUSH1 0x40 MLOAD DUP1 DUP4 SUB DUP2 DUP7 GAS STATICCALL ISZERO DUP1 ISZERO PUSH2 0x106B JUMPI RETURNDATASIZE PUSH1 0x0 DUP1 RETURNDATACOPY RETURNDATASIZE PUSH1 0x0 REVERT JUMPDEST POP POP POP POP PUSH1 0x40 MLOAD RETURNDATASIZE PUSH1 0x1F NOT PUSH1 0x1F DUP3 ADD AND DUP3 ADD DUP1 PUSH1 0x40 MSTORE POP DUP2 ADD SWAP1 PUSH2 0x108F SWAP2 SWAP1 PUSH2 0x2C4A JUMP JUMPDEST LT ISZERO PUSH2 0x110B JUMPI PUSH1 0x40 MLOAD PUSH4 0x95EA7B3 PUSH1 0xE0 SHL DUP2 MSTORE PUSH1 0x1 PUSH1 0x1 PUSH1 0xA0 SHL SUB DUP12 DUP2 AND PUSH1 0x4 DUP4 ADD MSTORE PUSH1 0x0 NOT PUSH1 0x24 DUP4 ADD MSTORE DUP5 AND SWAP1 PUSH4 0x95EA7B3 SWAP1 PUSH1 0x44 ADD PUSH1 0x20 PUSH1 0x40 MLOAD DUP1 DUP4 SUB DUP2 PUSH1 0x0 DUP8 GAS CALL ISZERO DUP1 ISZERO PUSH2 0x10E5 JUMPI RETURNDATASIZE PUSH1 0x0 DUP1 RETURNDATACOPY RETURNDATASIZE PUSH1 0x0 REVERT JUMPDEST POP POP POP POP PUSH1 0x40 MLOAD RETURNDATASIZE PUSH1 0x1F NOT PUSH1 0x1F DUP3 ADD AND DUP3 ADD DUP1 PUSH1 0x40 MSTORE POP DUP2 ADD SWAP1 PUSH2 0x1109 SWAP2 SWAP1 PUSH2 0x2C28 JUMP JUMPDEST POP JUMPDEST PUSH1 0x40 MLOAD PUSH4 0x97687E5 PUSH1 0xE3 SHL DUP2 MSTORE PUSH1 0x1 PUSH1 0x1 PUSH1 0x70 SHL SUB DUP1 DUP12 AND PUSH1 0x4 DUP4 ADD MSTORE DUP10 AND PUSH1 0x24 DUP3 ADD MSTORE PUSH1 0x1 PUSH1 0x1 PUSH1 0xA0 SHL SUB DUP6 AND SWAP1 PUSH4 0x4BB43F28 SWAP1 PUSH1 0x44 ADD PUSH1 0x60 PUSH1 0x40 MLOAD DUP1 DUP4 SUB DUP2 PUSH1 0x0 DUP8 GAS CALL ISZERO DUP1 ISZERO PUSH2 0x1162 JUMPI RETURNDATASIZE PUSH1 0x0 DUP1 RETURNDATACOPY RETURNDATASIZE PUSH1 0x0 REVERT JUMPDEST POP POP POP POP PUSH1 0x40 MLOAD RETURNDATASIZE PUSH1 0x1F NOT PUSH1 0x1F DUP3 ADD AND DUP3 ADD DUP1 PUSH1 0x40 MSTORE POP DUP2 ADD SWAP1 PUSH2 0x1186 SWAP2 SWAP1 PUSH2 0x2DA0 JUMP JUMPDEST DUP1 SWAP8 POP DUP2 SWAP9 POP DUP3 SWAP10 POP POP POP POP DUP4 PUSH1 0x1 PUSH1 0x1 PUSH1 0xA0 SHL SUB AND PUSH4 0xDFE1681 PUSH1 0x40 MLOAD DUP2 PUSH4 0xFFFFFFFF AND PUSH1 0xE0 SHL DUP2 MSTORE PUSH1 0x4 ADD PUSH1 0x20 PUSH1 0x40 MLOAD DUP1 DUP4 SUB DUP2 DUP7 GAS STATICCALL ISZERO DUP1 ISZERO PUSH2 0x11D0 JUMPI RETURNDATASIZE PUSH1 0x0 DUP1 RETURNDATACOPY RETURNDATASIZE PUSH1 0x0 REVERT JUMPDEST POP POP POP POP PUSH1 0x40 MLOAD RETURNDATASIZE PUSH1 0x1F NOT PUSH1 0x1F DUP3 ADD AND DUP3 ADD DUP1 PUSH1 0x40 MSTORE POP DUP2 ADD SWAP1 PUSH2 0x11F4 SWAP2 SWAP1 PUSH2 0x2BDF JUMP JUMPDEST PUSH1 0x1 PUSH1 0x1 PUSH1 0xA0 SHL SUB AND PUSH4 0xA9059CBB CALLER DUP9 PUSH1 0x40 MLOAD DUP4 PUSH4 0xFFFFFFFF AND PUSH1 0xE0 SHL DUP2 MSTORE PUSH1 0x4 ADD PUSH2 0x1221 SWAP3 SWAP2 SWAP1 PUSH2 0x2DE2 JUMP JUMPDEST PUSH1 0x20 PUSH1 0x40 MLOAD DUP1 DUP4 SUB DUP2 PUSH1 0x0 DUP8 GAS CALL ISZERO DUP1 ISZERO PUSH2 0x1240 JUMPI RETURNDATASIZE PUSH1 0x0 DUP1 RETURNDATACOPY RETURNDATASIZE PUSH1 0x0 REVERT JUMPDEST POP POP POP POP PUSH1 0x40 MLOAD RETURNDATASIZE PUSH1 0x1F NOT PUSH1 0x1F DUP3 ADD AND DUP3 ADD DUP1 PUSH1 0x40 MSTORE POP DUP2 ADD SWAP1 PUSH2 0x1264 SWAP2 SWAP1 PUSH2 0x2C28 JUMP JUMPDEST POP DUP5 PUSH1 0x1 PUSH1 0x1 PUSH1 0x70 SHL SUB AND DUP3 PUSH1 0x1 PUSH1 0x1 PUSH1 0x70 SHL SUB AND GT ISZERO PUSH2 0x12FB JUMPI PUSH1 0x1 PUSH1 0x1 PUSH1 0xA0 SHL SUB DUP4 AND PUSH4 0xA9059CBB CALLER PUSH2 0x1299 DUP9 DUP7 PUSH2 0x2E04 JUMP JUMPDEST PUSH1 0x40 MLOAD DUP4 PUSH4 0xFFFFFFFF AND PUSH1 0xE0 SHL DUP2 MSTORE PUSH1 0x4 ADD PUSH2 0x12B6 SWAP3 SWAP2 SWAP1 PUSH2 0x2DE2 JUMP JUMPDEST PUSH1 0x20 PUSH1 0x40 MLOAD DUP1 DUP4 SUB DUP2 PUSH1 0x0 DUP8 GAS CALL ISZERO DUP1 ISZERO PUSH2 0x12D5 JUMPI RETURNDATASIZE PUSH1 0x0 DUP1 RETURNDATACOPY RETURNDATASIZE PUSH1 0x0 REVERT JUMPDEST POP POP POP POP PUSH1 0x40 MLOAD RETURNDATASIZE PUSH1 0x1F NOT PUSH1 0x1F DUP3 ADD AND DUP3 ADD DUP1 PUSH1 0x40 MSTORE POP DUP2 ADD SWAP1 PUSH2 0x12F9 SWAP2 SWAP1 PUSH2 0x2C28 JUMP JUMPDEST POP JUMPDEST DUP7 PUSH1 0x1 PUSH1 0x1 PUSH1 0x70 SHL SUB AND DUP10 PUSH1 0x1 PUSH1 0x1 PUSH1 0x70 SHL SUB AND GT ISZERO PUSH2 0xBBD JUMPI PUSH1 0x0 PUSH2 0x1321 DUP9 DUP12 PUSH2 0x2E04 JUMP JUMPDEST SWAP1 POP PUSH1 0x0 DUP11 PUSH2 0x1330 DUP12 DUP5 PUSH2 0x2D0F JUMP JUMPDEST PUSH2 0x133A SWAP2 SWAP1 PUSH2 0x2D3A JUMP JUMPDEST SWAP1 POP PUSH1 0x0 PUSH2 0x134B DUP14 DUP5 DUP5 PUSH1 0x0 PUSH2 0x2134 JUMP JUMPDEST SWAP1 POP PUSH1 0x0 DUP8 PUSH1 0x1 PUSH1 0x1 PUSH1 0xA0 SHL SUB AND PUSH4 0xA192620 DUP6 DUP6 DUP6 PUSH1 0x40 MLOAD DUP5 PUSH4 0xFFFFFFFF AND PUSH1 0xE0 SHL DUP2 MSTORE PUSH1 0x4 ADD PUSH2 0x137F SWAP4 SWAP3 SWAP2 SWAP1 PUSH2 0x2C63 JUMP JUMPDEST PUSH1 0x20 PUSH1 0x40 MLOAD DUP1 DUP4 SUB DUP2 PUSH1 0x0 DUP8 GAS CALL ISZERO DUP1 ISZERO PUSH2 0x139E JUMPI RETURNDATASIZE PUSH1 0x0 DUP1 RETURNDATACOPY RETURNDATASIZE PUSH1 0x0 REVERT JUMPDEST POP POP POP POP PUSH1 0x40 MLOAD RETURNDATASIZE PUSH1 0x1F NOT PUSH1 0x1F DUP3 ADD AND DUP3 ADD DUP1 PUSH1 0x40 MSTORE POP DUP2 ADD SWAP1 PUSH2 0x13C2 SWAP2 SWAP1 PUSH2 0x2C9E JUMP JUMPDEST PUSH1 0x40 MLOAD PUSH4 0x58C0C53 PUSH1 0xE4 SHL DUP2 MSTORE SWAP1 SWAP2 POP PUSH1 0x1 PUSH1 0x1 PUSH1 0xA0 SHL SUB DUP10 AND SWAP1 PUSH4 0x58C0C530 SWAP1 PUSH2 0x13F3 SWAP1 DUP5 SWAP1 CALLER SWAP1 PUSH1 0x4 ADD PUSH2 0x2CBB JUMP JUMPDEST PUSH1 0x0 PUSH1 0x40 MLOAD DUP1 DUP4 SUB DUP2 PUSH1 0x0 DUP8 DUP1 EXTCODESIZE ISZERO DUP1 ISZERO PUSH2 0x140D JUMPI PUSH1 0x0 DUP1 REVERT JUMPDEST POP GAS CALL ISZERO DUP1 ISZERO PUSH2 0x1421 JUMPI RETURNDATASIZE PUSH1 0x0 DUP1 RETURNDATACOPY RETURNDATASIZE PUSH1 0x0 REVERT JUMPDEST POP POP POP POP POP POP POP POP POP POP POP POP SWAP4 POP SWAP4 POP SWAP4 SWAP1 POP JUMP JUMPDEST PUSH1 0x0 DUP1 PUSH1 0x0 DUP1 DUP7 SWAP1 POP PUSH1 0x0 DUP2 PUSH1 0x1 PUSH1 0x1 PUSH1 0xA0 SHL SUB AND PUSH4 0xDFE1681 PUSH1 0x40 MLOAD DUP2 PUSH4 0xFFFFFFFF AND PUSH1 0xE0 SHL DUP2 MSTORE PUSH1 0x4 ADD PUSH1 0x20 PUSH1 0x40 MLOAD DUP1 DUP4 SUB DUP2 DUP7 GAS STATICCALL ISZERO DUP1 ISZERO PUSH2 0x147F JUMPI RETURNDATASIZE PUSH1 0x0 DUP1 RETURNDATACOPY RETURNDATASIZE PUSH1 0x0 REVERT JUMPDEST POP POP POP POP PUSH1 0x40 MLOAD RETURNDATASIZE PUSH1 0x1F NOT PUSH1 0x1F DUP3 ADD AND DUP3 ADD DUP1 PUSH1 0x40 MSTORE POP DUP2 ADD SWAP1 PUSH2 0x14A3 SWAP2 SWAP1 PUSH2 0x2BDF JUMP JUMPDEST SWAP1 POP PUSH1 0x0 PUSH2 0x2710 DUP4 PUSH1 0x1 PUSH1 0x1 PUSH1 0xA0 SHL SUB AND PUSH4 0xDDCA3F43 PUSH1 0x40 MLOAD DUP2 PUSH4 0xFFFFFFFF AND PUSH1 0xE0 SHL DUP2 MSTORE PUSH1 0x4 ADD PUSH1 0x20 PUSH1 0x40 MLOAD DUP1 DUP4 SUB DUP2 DUP7 GAS STATICCALL ISZERO DUP1 ISZERO PUSH2 0x14E8 JUMPI RETURNDATASIZE PUSH1 0x0 DUP1 RETURNDATACOPY RETURNDATASIZE PUSH1 0x0 REVERT JUMPDEST POP POP POP POP PUSH1 0x40 MLOAD RETURNDATASIZE PUSH1 0x1F NOT PUSH1 0x1F DUP3 ADD AND DUP3 ADD DUP1 PUSH1 0x40 MSTORE POP DUP2 ADD SWAP1 PUSH2 0x150C SWAP2 SWAP1 PUSH2 0x2CDC JUMP JUMPDEST PUSH2 0x1519 SWAP1 PUSH1 0xFF AND DUP11 PUSH2 0x2D0F JUMP JUMPDEST PUSH2 0x1523 SWAP2 SWAP1 PUSH2 0x2D3A JUMP JUMPDEST SWAP1 POP PUSH1 0x0 PUSH2 0x1531 DUP10 DUP4 PUSH2 0x2D6E JUMP JUMPDEST PUSH1 0x40 MLOAD PUSH4 0x23B872DD PUSH1 0xE0 SHL DUP2 MSTORE SWAP1 SWAP2 POP PUSH1 0x1 PUSH1 0x1 PUSH1 0xA0 SHL SUB DUP5 AND SWAP1 PUSH4 0x23B872DD SWAP1 PUSH2 0x1564 SWAP1 CALLER SWAP1 ADDRESS SWAP1 DUP7 SWAP1 PUSH1 0x4 ADD PUSH2 0x2BFC JUMP JUMPDEST PUSH1 0x20 PUSH1 0x40 MLOAD DUP1 DUP4 SUB DUP2 PUSH1 0x0 DUP8 GAS CALL ISZERO DUP1 ISZERO PUSH2 0x1583 JUMPI RETURNDATASIZE PUSH1 0x0 DUP1 RETURNDATACOPY RETURNDATASIZE PUSH1 0x0 REVERT JUMPDEST POP POP POP POP PUSH1 0x40 MLOAD RETURNDATASIZE PUSH1 0x1F NOT PUSH1 0x1F DUP3 ADD AND DUP3 ADD DUP1 PUSH1 0x40 MSTORE POP DUP2 ADD SWAP1 PUSH2 0x15A7 SWAP2 SWAP1 PUSH2 0x2C28 JUMP JUMPDEST POP PUSH1 0x40 MLOAD PUSH4 0x6EB1769F PUSH1 0xE1 SHL DUP2 MSTORE ADDRESS PUSH1 0x4 DUP3 ADD MSTORE PUSH1 0x1 PUSH1 0x1 PUSH1 0xA0 SHL SUB DUP12 DUP2 AND PUSH1 0x24 DUP4 ADD MSTORE PUSH1 0x1 PUSH1 0x1 PUSH1 0x70 SHL SUB DUP4 AND SWAP2 SWAP1 DUP6 AND SWAP1 PUSH4 0xDD62ED3E SWAP1 PUSH1 0x44 ADD PUSH1 0x20 PUSH1 0x40 MLOAD DUP1 DUP4 SUB DUP2 DUP7 GAS STATICCALL ISZERO DUP1 ISZERO PUSH2 0x1600 JUMPI RETURNDATASIZE PUSH1 0x0 DUP1 RETURNDATACOPY RETURNDATASIZE PUSH1 0x0 REVERT JUMPDEST POP POP POP POP PUSH1 0x40 MLOAD RETURNDATASIZE PUSH1 0x1F NOT PUSH1 0x1F DUP3 ADD AND DUP3 ADD DUP1 PUSH1 0x40 MSTORE POP DUP2 ADD SWAP1 PUSH2 0x1624 SWAP2 SWAP1 PUSH2 0x2C4A JUMP JUMPDEST LT ISZERO PUSH2 0x16A0 JUMPI PUSH1 0x40 MLOAD PUSH4 0x95EA7B3 PUSH1 0xE0 SHL DUP2 MSTORE PUSH1 0x1 PUSH1 0x1 PUSH1 0xA0 SHL SUB DUP12 DUP2 AND PUSH1 0x4 DUP4 ADD MSTORE PUSH1 0x0 NOT PUSH1 0x24 DUP4 ADD MSTORE DUP5 AND SWAP1 PUSH4 0x95EA7B3 SWAP1 PUSH1 0x44 ADD PUSH1 0x20 PUSH1 0x40 MLOAD DUP1 DUP4 SUB DUP2 PUSH1 0x0 DUP8 GAS CALL ISZERO DUP1 ISZERO PUSH2 0x167A JUMPI RETURNDATASIZE PUSH1 0x0 DUP1 RETURNDATACOPY RETURNDATASIZE PUSH1 0x0 REVERT JUMPDEST POP POP POP POP PUSH1 0x40 MLOAD RETURNDATASIZE PUSH1 0x1F NOT PUSH1 0x1F DUP3 ADD AND DUP3 ADD DUP1 PUSH1 0x40 MSTORE POP DUP2 ADD SWAP1 PUSH2 0x169E SWAP2 SWAP1 PUSH2 0x2C28 JUMP JUMPDEST POP JUMPDEST PUSH1 0x40 MLOAD PUSH4 0x596AFB4D PUSH1 0xE0 SHL DUP2 MSTORE PUSH1 0x1 PUSH1 0x1 PUSH1 0x70 SHL SUB DUP1 DUP12 AND PUSH1 0x4 DUP4 ADD MSTORE DUP10 AND PUSH1 0x24 DUP3 ADD MSTORE PUSH1 0x1 PUSH1 0x1 PUSH1 0xA0 SHL SUB DUP6 AND SWAP1 PUSH4 0x596AFB4D SWAP1 PUSH1 0x44 ADD PUSH1 0x60 PUSH1 0x40 MLOAD DUP1 DUP4 SUB DUP2 PUSH1 0x0 DUP8 GAS CALL ISZERO DUP1 ISZERO PUSH2 0x16F7 JUMPI RETURNDATASIZE PUSH1 0x0 DUP1 RETURNDATACOPY RETURNDATASIZE PUSH1 0x0 REVERT JUMPDEST POP POP POP POP PUSH1 0x40 MLOAD RETURNDATASIZE PUSH1 0x1F NOT PUSH1 0x1F DUP3 ADD AND DUP3 ADD DUP1 PUSH1 0x40 MSTORE POP DUP2 ADD SWAP1 PUSH2 0x171B SWAP2 SWAP1 PUSH2 0x2DA0 JUMP JUMPDEST DUP1 SWAP8 POP DUP2 SWAP9 POP DUP3 SWAP10 POP POP POP POP DUP4 PUSH1 0x1 PUSH1 0x1 PUSH1 0xA0 SHL SUB AND PUSH4 0xD21220A7 PUSH1 0x40 MLOAD DUP2 PUSH4 0xFFFFFFFF AND PUSH1 0xE0 SHL DUP2 MSTORE PUSH1 0x4 ADD PUSH1 0x20 PUSH1 0x40 MLOAD DUP1 DUP4 SUB DUP2 DUP7 GAS STATICCALL ISZERO DUP1 ISZERO PUSH2 0xA74 JUMPI RETURNDATASIZE PUSH1 0x0 DUP1 RETURNDATACOPY RETURNDATASIZE PUSH1 0x0 REVERT JUMPDEST PUSH1 0x0 DUP1 PUSH1 0x0 DUP1 DUP7 SWAP1 POP PUSH1 0x0 DUP2 PUSH1 0x1 PUSH1 0x1 PUSH1 0xA0 SHL SUB AND PUSH4 0xDFE1681 PUSH1 0x40 MLOAD DUP2 PUSH4 0xFFFFFFFF AND PUSH1 0xE0 SHL DUP2 MSTORE PUSH1 0x4 ADD PUSH1 0x20 PUSH1 0x40 MLOAD DUP1 DUP4 SUB DUP2 DUP7 GAS STATICCALL ISZERO DUP1 ISZERO PUSH2 0x17AE JUMPI RETURNDATASIZE PUSH1 0x0 DUP1 RETURNDATACOPY RETURNDATASIZE PUSH1 0x0 REVERT JUMPDEST POP POP POP POP PUSH1 0x40 MLOAD RETURNDATASIZE PUSH1 0x1F NOT PUSH1 0x1F DUP3 ADD AND DUP3 ADD DUP1 PUSH1 0x40 MSTORE POP DUP2 ADD SWAP1 PUSH2 0x17D2 SWAP2 SWAP1 PUSH2 0x2BDF JUMP JUMPDEST SWAP1 POP PUSH1 0x0 PUSH2 0x2710 DUP4 PUSH1 0x1 PUSH1 0x1 PUSH1 0xA0 SHL SUB AND PUSH4 0xDDCA3F43 PUSH1 0x40 MLOAD DUP2 PUSH4 0xFFFFFFFF AND PUSH1 0xE0 SHL DUP2 MSTORE PUSH1 0x4 ADD PUSH1 0x20 PUSH1 0x40 MLOAD DUP1 DUP4 SUB DUP2 DUP7 GAS STATICCALL ISZERO DUP1 ISZERO PUSH2 0x1817 JUMPI RETURNDATASIZE PUSH1 0x0 DUP1 RETURNDATACOPY RETURNDATASIZE PUSH1 0x0 REVERT JUMPDEST POP POP POP POP PUSH1 0x40 MLOAD RETURNDATASIZE PUSH1 0x1F NOT PUSH1 0x1F DUP3 ADD AND DUP3 ADD DUP1 PUSH1 0x40 MSTORE POP DUP2 ADD SWAP1 PUSH2 0x183B SWAP2 SWAP1 PUSH2 0x2CDC JUMP JUMPDEST PUSH2 0x1848 SWAP1 PUSH1 0xFF AND DUP11 PUSH2 0x2D0F JUMP JUMPDEST PUSH2 0x1852 SWAP2 SWAP1 PUSH2 0x2D3A JUMP JUMPDEST SWAP1 POP PUSH1 0x0 PUSH2 0x1860 DUP10 DUP4 PUSH2 0x2D6E JUMP JUMPDEST PUSH1 0x40 MLOAD PUSH4 0x23B872DD PUSH1 0xE0 SHL DUP2 MSTORE SWAP1 SWAP2 POP PUSH1 0x1 PUSH1 0x1 PUSH1 0xA0 SHL SUB DUP5 AND SWAP1 PUSH4 0x23B872DD SWAP1 PUSH2 0x1893 SWAP1 CALLER SWAP1 ADDRESS SWAP1 DUP7 SWAP1 PUSH1 0x4 ADD PUSH2 0x2BFC JUMP JUMPDEST PUSH1 0x20 PUSH1 0x40 MLOAD DUP1 DUP4 SUB DUP2 PUSH1 0x0 DUP8 GAS CALL ISZERO DUP1 ISZERO PUSH2 0x18B2 JUMPI RETURNDATASIZE PUSH1 0x0 DUP1 RETURNDATACOPY RETURNDATASIZE PUSH1 0x0 REVERT JUMPDEST POP POP POP POP PUSH1 0x40 MLOAD RETURNDATASIZE PUSH1 0x1F NOT PUSH1 0x1F DUP3 ADD AND DUP3 ADD DUP1 PUSH1 0x40 MSTORE POP DUP2 ADD SWAP1 PUSH2 0x18D6 SWAP2 SWAP1 PUSH2 0x2C28 JUMP JUMPDEST POP PUSH1 0x40 MLOAD PUSH4 0x6EB1769F PUSH1 0xE1 SHL DUP2 MSTORE ADDRESS PUSH1 0x4 DUP3 ADD MSTORE PUSH1 0x1 PUSH1 0x1 PUSH1 0xA0 SHL SUB DUP12 DUP2 AND PUSH1 0x24 DUP4 ADD MSTORE PUSH1 0x1 PUSH1 0x1 PUSH1 0x70 SHL SUB DUP4 AND SWAP2 SWAP1 DUP6 AND SWAP1 PUSH4 0xDD62ED3E SWAP1 PUSH1 0x44 ADD PUSH1 0x20 PUSH1 0x40 MLOAD DUP1 DUP4 SUB DUP2 DUP7 GAS STATICCALL ISZERO DUP1 ISZERO PUSH2 0x192F JUMPI RETURNDATASIZE PUSH1 0x0 DUP1 RETURNDATACOPY RETURNDATASIZE PUSH1 0x0 REVERT JUMPDEST POP POP POP POP PUSH1 0x40 MLOAD RETURNDATASIZE PUSH1 0x1F NOT PUSH1 0x1F DUP3 ADD AND DUP3 ADD DUP1 PUSH1 0x40 MSTORE POP DUP2 ADD SWAP1 PUSH2 0x1953 SWAP2 SWAP1 PUSH2 0x2C4A JUMP JUMPDEST LT ISZERO PUSH2 0x19CF JUMPI PUSH1 0x40 MLOAD PUSH4 0x95EA7B3 PUSH1 0xE0 SHL DUP2 MSTORE PUSH1 0x1 PUSH1 0x1 PUSH1 0xA0 SHL SUB DUP12 DUP2 AND PUSH1 0x4 DUP4 ADD MSTORE PUSH1 0x0 NOT PUSH1 0x24 DUP4 ADD MSTORE DUP5 AND SWAP1 PUSH4 0x95EA7B3 SWAP1 PUSH1 0x44 ADD PUSH1 0x20 PUSH1 0x40 MLOAD DUP1 DUP4 SUB DUP2 PUSH1 0x0 DUP8 GAS CALL ISZERO DUP1 ISZERO PUSH2 0x19A9 JUMPI RETURNDATASIZE PUSH1 0x0 DUP1 RETURNDATACOPY RETURNDATASIZE PUSH1 0x0 REVERT JUMPDEST POP POP POP POP PUSH1 0x40 MLOAD RETURNDATASIZE PUSH1 0x1F NOT PUSH1 0x1F DUP3 ADD AND DUP3 ADD DUP1 PUSH1 0x40 MSTORE POP DUP2 ADD SWAP1 PUSH2 0x19CD SWAP2 SWAP1 PUSH2 0x2C28 JUMP JUMPDEST POP JUMPDEST PUSH1 0x40 MLOAD PUSH4 0x596AFB4D PUSH1 0xE0 SHL DUP2 MSTORE PUSH1 0x1 PUSH1 0x1 PUSH1 0x70 SHL SUB DUP1 DUP12 AND PUSH1 0x4 DUP4 ADD MSTORE DUP10 AND PUSH1 0x24 DUP3 ADD MSTORE PUSH1 0x1 PUSH1 0x1 PUSH1 0xA0 SHL SUB DUP6 AND SWAP1 PUSH4 0x596AFB4D SWAP1 PUSH1 0x44 ADD PUSH1 0x60 PUSH1 0x40 MLOAD DUP1 DUP4 SUB DUP2 PUSH1 0x0 DUP8 GAS CALL ISZERO DUP1 ISZERO PUSH2 0x1A26 JUMPI RETURNDATASIZE PUSH1 0x0 DUP1 RETURNDATACOPY RETURNDATASIZE PUSH1 0x0 REVERT JUMPDEST POP POP POP POP PUSH1 0x40 MLOAD RETURNDATASIZE PUSH1 0x1F NOT PUSH1 0x1F DUP3 ADD AND DUP3 ADD DUP1 PUSH1 0x40 MSTORE POP DUP2 ADD SWAP1 PUSH2 0x1A4A SWAP2 SWAP1 PUSH2 0x2DA0 JUMP JUMPDEST DUP1 SWAP8 POP DUP2 SWAP9 POP DUP3 SWAP10 POP POP POP POP DUP4 PUSH1 0x1 PUSH1 0x1 PUSH1 0xA0 SHL SUB AND PUSH4 0xD21220A7 PUSH1 0x40 MLOAD DUP2 PUSH4 0xFFFFFFFF AND PUSH1 0xE0 SHL DUP2 MSTORE PUSH1 0x4 ADD PUSH1 0x20 PUSH1 0x40 MLOAD DUP1 DUP4 SUB DUP2 DUP7 GAS STATICCALL ISZERO DUP1 ISZERO PUSH2 0x1A94 JUMPI RETURNDATASIZE PUSH1 0x0 DUP1 RETURNDATACOPY RETURNDATASIZE PUSH1 0x0 REVERT JUMPDEST POP POP POP POP PUSH1 0x40 MLOAD RETURNDATASIZE PUSH1 0x1F NOT PUSH1 0x1F DUP3 ADD AND DUP3 ADD DUP1 PUSH1 0x40 MSTORE POP DUP2 ADD SWAP1 PUSH2 0x1AB8 SWAP2 SWAP1 PUSH2 0x2BDF JUMP JUMPDEST PUSH1 0x1 PUSH1 0x1 PUSH1 0xA0 SHL SUB AND PUSH4 0xA9059CBB CALLER DUP9 PUSH1 0x40 MLOAD DUP4 PUSH4 0xFFFFFFFF AND PUSH1 0xE0 SHL DUP2 MSTORE PUSH1 0x4 ADD PUSH2 0x1AE5 SWAP3 SWAP2 SWAP1 PUSH2 0x2DE2 JUMP JUMPDEST PUSH1 0x20 PUSH1 0x40 MLOAD DUP1 DUP4 SUB DUP2 PUSH1 0x0 DUP8 GAS CALL ISZERO DUP1 ISZERO PUSH2 0x1B04 JUMPI RETURNDATASIZE PUSH1 0x0 DUP1 RETURNDATACOPY RETURNDATASIZE PUSH1 0x0 REVERT JUMPDEST POP POP POP POP PUSH1 0x40 MLOAD RETURNDATASIZE PUSH1 0x1F NOT PUSH1 0x1F DUP3 ADD AND DUP3 ADD DUP1 PUSH1 0x40 MSTORE POP DUP2 ADD SWAP1 PUSH2 0x1B28 SWAP2 SWAP1 PUSH2 0x2C28 JUMP JUMPDEST POP DUP5 PUSH1 0x1 PUSH1 0x1 PUSH1 0x70 SHL SUB AND DUP3 PUSH1 0x1 PUSH1 0x1 PUSH1 0x70 SHL SUB AND GT ISZERO PUSH2 0x1BBF JUMPI PUSH1 0x1 PUSH1 0x1 PUSH1 0xA0 SHL SUB DUP4 AND PUSH4 0xA9059CBB CALLER PUSH2 0x1B5D DUP9 DUP7 PUSH2 0x2E04 JUMP JUMPDEST PUSH1 0x40 MLOAD DUP4 PUSH4 0xFFFFFFFF AND PUSH1 0xE0 SHL DUP2 MSTORE PUSH1 0x4 ADD PUSH2 0x1B7A SWAP3 SWAP2 SWAP1 PUSH2 0x2DE2 JUMP JUMPDEST PUSH1 0x20 PUSH1 0x40 MLOAD DUP1 DUP4 SUB DUP2 PUSH1 0x0 DUP8 GAS CALL ISZERO DUP1 ISZERO PUSH2 0x1B99 JUMPI RETURNDATASIZE PUSH1 0x0 DUP1 RETURNDATACOPY RETURNDATASIZE PUSH1 0x0 REVERT JUMPDEST POP POP POP POP PUSH1 0x40 MLOAD RETURNDATASIZE PUSH1 0x1F NOT PUSH1 0x1F DUP3 ADD AND DUP3 ADD DUP1 PUSH1 0x40 MSTORE POP DUP2 ADD SWAP1 PUSH2 0x1BBD SWAP2 SWAP1 PUSH2 0x2C28 JUMP JUMPDEST POP JUMPDEST DUP7 PUSH1 0x1 PUSH1 0x1 PUSH1 0x70 SHL SUB AND DUP10 PUSH1 0x1 PUSH1 0x1 PUSH1 0x70 SHL SUB AND GT ISZERO PUSH2 0xBBD JUMPI PUSH1 0x0 PUSH2 0x1BE5 DUP9 DUP12 PUSH2 0x2E04 JUMP JUMPDEST SWAP1 POP PUSH1 0x0 DUP11 PUSH2 0x1BF4 DUP12 DUP5 PUSH2 0x2D0F JUMP JUMPDEST PUSH2 0x1BFE SWAP2 SWAP1 PUSH2 0x2D3A JUMP JUMPDEST SWAP1 POP PUSH1 0x0 PUSH2 0x1C0F DUP14 DUP5 DUP5 PUSH1 0x0 PUSH2 0x2484 JUMP JUMPDEST SWAP1 POP PUSH1 0x0 DUP8 PUSH1 0x1 PUSH1 0x1 PUSH1 0xA0 SHL SUB AND PUSH4 0xF02D8FAE DUP6 DUP6 DUP6 PUSH1 0x40 MLOAD DUP5 PUSH4 0xFFFFFFFF AND PUSH1 0xE0 SHL DUP2 MSTORE PUSH1 0x4 ADD PUSH2 0x1C43 SWAP4 SWAP3 SWAP2 SWAP1 PUSH2 0x2C63 JUMP JUMPDEST PUSH1 0x20 PUSH1 0x40 MLOAD DUP1 DUP4 SUB DUP2 PUSH1 0x0 DUP8 GAS CALL ISZERO DUP1 ISZERO PUSH2 0x1C62 JUMPI RETURNDATASIZE PUSH1 0x0 DUP1 RETURNDATACOPY RETURNDATASIZE PUSH1 0x0 REVERT JUMPDEST POP POP POP POP PUSH1 0x40 MLOAD RETURNDATASIZE PUSH1 0x1F NOT PUSH1 0x1F DUP3 ADD AND DUP3 ADD DUP1 PUSH1 0x40 MSTORE POP DUP2 ADD SWAP1 PUSH2 0x1C86 SWAP2 SWAP1 PUSH2 0x2C9E JUMP JUMPDEST PUSH1 0x40 MLOAD PUSH4 0x5FF09B1F PUSH1 0xE1 SHL DUP2 MSTORE SWAP1 SWAP2 POP PUSH1 0x1 PUSH1 0x1 PUSH1 0xA0 SHL SUB DUP10 AND SWAP1 PUSH4 0xBFE1363E SWAP1 PUSH2 0x13F3 SWAP1 DUP5 SWAP1 CALLER SWAP1 PUSH1 0x4 ADD PUSH2 0x2CBB JUMP JUMPDEST PUSH1 0x60 PUSH1 0x0 DUP3 PUSH1 0xFF AND PUSH8 0xFFFFFFFFFFFFFFFF DUP2 GT ISZERO PUSH2 0x1CD7 JUMPI PUSH2 0x1CD7 PUSH2 0x2E24 JUMP JUMPDEST PUSH1 0x40 MLOAD SWAP1 DUP1 DUP3 MSTORE DUP1 PUSH1 0x20 MUL PUSH1 0x20 ADD DUP3 ADD PUSH1 0x40 MSTORE DUP1 ISZERO PUSH2 0x1D29 JUMPI DUP2 PUSH1 0x20 ADD JUMPDEST PUSH1 0x40 DUP1 MLOAD PUSH1 0x80 DUP2 ADD DUP3 MSTORE PUSH1 0x0 DUP1 DUP3 MSTORE PUSH1 0x20 DUP1 DUP4 ADD DUP3 SWAP1 MSTORE SWAP3 DUP3 ADD DUP2 SWAP1 MSTORE PUSH1 0x60 DUP3 ADD MSTORE DUP3 MSTORE PUSH1 0x0 NOT SWAP1 SWAP3 ADD SWAP2 ADD DUP2 PUSH2 0x1CF5 JUMPI SWAP1 POP JUMPDEST POP SWAP1 POP DUP5 PUSH6 0xFFFFFFFFFFFF DUP6 AND PUSH1 0x0 SUB PUSH2 0x1DA2 JUMPI DUP1 PUSH1 0x1 PUSH1 0x1 PUSH1 0xA0 SHL SUB AND PUSH4 0xC4CCB40A PUSH1 0x40 MLOAD DUP2 PUSH4 0xFFFFFFFF AND PUSH1 0xE0 SHL DUP2 MSTORE PUSH1 0x4 ADD PUSH1 0x20 PUSH1 0x40 MLOAD DUP1 DUP4 SUB DUP2 DUP7 GAS STATICCALL ISZERO DUP1 ISZERO PUSH2 0x1D7B JUMPI RETURNDATASIZE PUSH1 0x0 DUP1 RETURNDATACOPY RETURNDATASIZE PUSH1 0x0 REVERT JUMPDEST POP POP POP POP PUSH1 0x40 MLOAD RETURNDATASIZE PUSH1 0x1F NOT PUSH1 0x1F DUP3 ADD AND DUP3 ADD DUP1 PUSH1 0x40 MSTORE POP DUP2 ADD SWAP1 PUSH2 0x1D9F SWAP2 SWAP1 PUSH2 0x2C9E JUMP JUMPDEST SWAP5 POP JUMPDEST PUSH1 0x40 MLOAD PUSH4 0x39709D2F PUSH1 0xE2 SHL DUP2 MSTORE PUSH6 0xFFFFFFFFFFFF DUP7 AND PUSH1 0x4 DUP3 ADD MSTORE PUSH1 0x0 SWAP1 PUSH1 0x1 PUSH1 0x1 PUSH1 0xA0 SHL SUB DUP4 AND SWAP1 PUSH4 0xE5C274BC SWAP1 PUSH1 0x24 ADD PUSH1 0xC0 PUSH1 0x40 MLOAD DUP1 DUP4 SUB DUP2 DUP7 GAS STATICCALL ISZERO DUP1 ISZERO PUSH2 0x1DF1 JUMPI RETURNDATASIZE PUSH1 0x0 DUP1 RETURNDATACOPY RETURNDATASIZE PUSH1 0x0 REVERT JUMPDEST POP POP POP POP PUSH1 0x40 MLOAD RETURNDATASIZE PUSH1 0x1F NOT PUSH1 0x1F DUP3 ADD AND DUP3 ADD DUP1 PUSH1 0x40 MSTORE POP DUP2 ADD SWAP1 PUSH2 0x1E15 SWAP2 SWAP1 PUSH2 0x2E59 JUMP JUMPDEST SWAP1 POP PUSH1 0x40 MLOAD DUP1 PUSH1 0x80 ADD PUSH1 0x40 MSTORE DUP1 DUP8 PUSH6 0xFFFFFFFFFFFF AND DUP2 MSTORE PUSH1 0x20 ADD DUP3 PUSH1 0x60 ADD MLOAD PUSH1 0x1 PUSH1 0x1 PUSH1 0x70 SHL SUB AND DUP2 MSTORE PUSH1 0x20 ADD DUP3 PUSH1 0x80 ADD MLOAD PUSH1 0x1 PUSH1 0x1 PUSH1 0x70 SHL SUB AND DUP2 MSTORE PUSH1 0x20 ADD DUP3 PUSH1 0xA0 ADD MLOAD PUSH4 0xFFFFFFFF AND DUP2 MSTORE POP DUP4 PUSH1 0x0 DUP2 MLOAD DUP2 LT PUSH2 0x1E77 JUMPI PUSH2 0x1E77 PUSH2 0x2F06 JUMP JUMPDEST PUSH1 0x20 SWAP1 DUP2 MUL SWAP2 SWAP1 SWAP2 ADD ADD MSTORE PUSH1 0x1 JUMPDEST DUP6 PUSH1 0xFF AND DUP2 PUSH1 0xFF AND LT ISZERO PUSH2 0xE93 JUMPI PUSH1 0x20 DUP3 ADD MLOAD PUSH1 0x40 MLOAD PUSH4 0x39709D2F PUSH1 0xE2 SHL DUP2 MSTORE PUSH6 0xFFFFFFFFFFFF DUP3 AND PUSH1 0x4 DUP3 ADD MSTORE PUSH1 0x1 PUSH1 0x1 PUSH1 0xA0 SHL SUB DUP6 AND SWAP1 PUSH4 0xE5C274BC SWAP1 PUSH1 0x24 ADD PUSH1 0xC0 PUSH1 0x40 MLOAD DUP1 DUP4 SUB DUP2 DUP7 GAS STATICCALL ISZERO DUP1 ISZERO PUSH2 0x1EE4 JUMPI RETURNDATASIZE PUSH1 0x0 DUP1 RETURNDATACOPY RETURNDATASIZE PUSH1 0x0 REVERT JUMPDEST POP POP POP POP PUSH1 0x40 MLOAD RETURNDATASIZE PUSH1 0x1F NOT PUSH1 0x1F DUP3 ADD AND DUP3 ADD DUP1 PUSH1 0x40 MSTORE POP DUP2 ADD SWAP1 PUSH2 0x1F08 SWAP2 SWAP1 PUSH2 0x2E59 JUMP JUMPDEST SWAP3 POP PUSH1 0x40 MLOAD DUP1 PUSH1 0x80 ADD PUSH1 0x40 MSTORE DUP1 DUP3 PUSH6 0xFFFFFFFFFFFF AND DUP2 MSTORE PUSH1 0x20 ADD DUP5 PUSH1 0x60 ADD MLOAD PUSH1 0x1 PUSH1 0x1 PUSH1 0x70 SHL SUB AND DUP2 MSTORE PUSH1 0x20 ADD DUP5 PUSH1 0x80 ADD MLOAD PUSH1 0x1 PUSH1 0x1 PUSH1 0x70 SHL SUB AND DUP2 MSTORE PUSH1 0x20 ADD DUP5 PUSH1 0xA0 ADD MLOAD PUSH4 0xFFFFFFFF AND DUP2 MSTORE POP DUP6 DUP4 PUSH1 0xFF AND DUP2 MLOAD DUP2 LT PUSH2 0x1F6C JUMPI PUSH2 0x1F6C PUSH2 0x2F06 JUMP JUMPDEST PUSH1 0x20 SWAP1 DUP2 MUL SWAP2 SWAP1 SWAP2 ADD ADD MSTORE POP PUSH1 0x1 ADD PUSH2 0x1E85 JUMP JUMPDEST PUSH1 0x60 PUSH1 0x0 DUP3 PUSH6 0xFFFFFFFFFFFF AND PUSH8 0xFFFFFFFFFFFFFFFF DUP2 GT ISZERO PUSH2 0x1FA5 JUMPI PUSH2 0x1FA5 PUSH2 0x2E24 JUMP JUMPDEST PUSH1 0x40 MLOAD SWAP1 DUP1 DUP3 MSTORE DUP1 PUSH1 0x20 MUL PUSH1 0x20 ADD DUP3 ADD PUSH1 0x40 MSTORE DUP1 ISZERO PUSH2 0x1FDE JUMPI DUP2 PUSH1 0x20 ADD JUMPDEST PUSH2 0x1FCB PUSH2 0x28DA JUMP JUMPDEST DUP2 MSTORE PUSH1 0x20 ADD SWAP1 PUSH1 0x1 SWAP1 SUB SWAP1 DUP2 PUSH2 0x1FC3 JUMPI SWAP1 POP JUMPDEST POP SWAP1 POP DUP4 PUSH6 0xFFFFFFFFFFFF AND PUSH1 0x0 SUB PUSH2 0x2015 JUMPI PUSH1 0x1 PUSH1 0x1 PUSH1 0xA0 SHL SUB DUP6 AND PUSH1 0x0 SWAP1 DUP2 MSTORE PUSH1 0x1 PUSH1 0x20 MSTORE PUSH1 0x40 SWAP1 KECCAK256 SLOAD PUSH6 0xFFFFFFFFFFFF AND SWAP4 POP JUMPDEST DUP4 PUSH6 0xFFFFFFFFFFFF AND PUSH1 0x0 SUB PUSH2 0x202C JUMPI SWAP1 POP PUSH2 0xE9A JUMP JUMPDEST DUP4 JUMPDEST PUSH6 0xFFFFFFFFFFFF DUP5 AND PUSH2 0x2041 DUP3 DUP8 PUSH2 0x2F1C JUMP JUMPDEST PUSH6 0xFFFFFFFFFFFF AND LT ISZERO PUSH2 0x212B JUMPI PUSH1 0x0 DUP1 PUSH1 0x0 PUSH2 0x205E DUP10 DUP6 PUSH2 0x26AE JUMP JUMPDEST PUSH6 0xFFFFFFFFFFFF NOT AND DUP2 MSTORE PUSH1 0x20 DUP1 DUP3 ADD SWAP3 SWAP1 SWAP3 MSTORE PUSH1 0x40 SWAP1 DUP2 ADD PUSH1 0x0 SWAP1 DUP2 KECCAK256 DUP3 MLOAD PUSH1 0x80 DUP2 ADD DUP5 MSTORE SWAP1 SLOAD PUSH1 0x1 PUSH1 0x1 PUSH1 0xA0 SHL SUB DUP2 AND DUP1 DUP4 MSTORE PUSH6 0xFFFFFFFFFFFF PUSH1 0x1 PUSH1 0xA0 SHL DUP4 DIV AND SWAP6 DUP4 ADD DUP7 SWAP1 MSTORE PUSH1 0x1 PUSH1 0xD0 SHL DUP3 DIV PUSH4 0xFFFFFFFF AND SWAP5 DUP4 ADD SWAP5 SWAP1 SWAP5 MSTORE PUSH1 0x1 PUSH1 0xF0 SHL SWAP1 DIV PUSH1 0xFF AND ISZERO ISZERO PUSH1 0x60 DUP3 ADD DUP2 SWAP1 MSTORE SWAP1 SWAP5 POP SWAP1 SWAP3 PUSH2 0x20DE SWAP3 SWAP2 PUSH2 0x26FC JUMP JUMPDEST SWAP1 POP PUSH2 0x20EA DUP3 DUP3 PUSH2 0x2818 JUMP JUMPDEST DUP5 PUSH2 0x20F5 DUP6 DUP11 PUSH2 0x2F1C JUMP JUMPDEST PUSH6 0xFFFFFFFFFFFF AND DUP2 MLOAD DUP2 LT PUSH2 0x210D JUMPI PUSH2 0x210D PUSH2 0x2F06 JUMP JUMPDEST PUSH1 0x20 MUL PUSH1 0x20 ADD ADD DUP2 SWAP1 MSTORE POP POP POP DUP1 PUSH2 0x2124 SWAP1 PUSH2 0x2F3B JUMP JUMPDEST SWAP1 POP PUSH2 0x202E JUMP JUMPDEST POP SWAP5 SWAP4 POP POP POP POP JUMP JUMPDEST PUSH1 0x0 DUP1 DUP6 SWAP1 POP PUSH1 0x0 DUP2 PUSH1 0x1 PUSH1 0x1 PUSH1 0xA0 SHL SUB AND PUSH4 0xC4CCB40A PUSH1 0x40 MLOAD DUP2 PUSH4 0xFFFFFFFF AND PUSH1 0xE0 SHL DUP2 MSTORE PUSH1 0x4 ADD PUSH1 0x20 PUSH1 0x40 MLOAD DUP1 DUP4 SUB DUP2 DUP7 GAS STATICCALL ISZERO DUP1 ISZERO PUSH2 0x217A JUMPI RETURNDATASIZE PUSH1 0x0 DUP1 RETURNDATACOPY RETURNDATASIZE PUSH1 0x0 REVERT JUMPDEST POP POP POP POP PUSH1 0x40 MLOAD RETURNDATASIZE PUSH1 0x1F NOT PUSH1 0x1F DUP3 ADD AND DUP3 ADD DUP1 PUSH1 0x40 MSTORE POP DUP2 ADD SWAP1 PUSH2 0x219E SWAP2 SWAP1 PUSH2 0x2C9E JUMP JUMPDEST SWAP1 POP DUP1 PUSH6 0xFFFFFFFFFFFF AND PUSH1 0x0 SUB PUSH2 0x21BB JUMPI PUSH1 0x0 SWAP3 POP POP POP PUSH2 0x235E JUMP JUMPDEST DUP4 PUSH6 0xFFFFFFFFFFFF AND PUSH1 0x0 SUB PUSH2 0x21CF JUMPI DUP1 SWAP4 POP JUMPDEST PUSH1 0x40 MLOAD PUSH4 0xD44CA7AF PUSH1 0xE0 SHL DUP2 MSTORE PUSH6 0xFFFFFFFFFFFF DUP6 AND PUSH1 0x4 DUP3 ADD MSTORE PUSH1 0x0 SWAP1 DUP2 SWAP1 DUP2 SWAP1 DUP2 SWAP1 PUSH1 0x1 PUSH1 0x1 PUSH1 0xA0 SHL SUB DUP8 AND SWAP1 PUSH4 0xD44CA7AF SWAP1 PUSH1 0x24 ADD PUSH1 0xC0 PUSH1 0x40 MLOAD DUP1 DUP4 SUB DUP2 DUP7 GAS STATICCALL ISZERO DUP1 ISZERO PUSH2 0x2224 JUMPI RETURNDATASIZE PUSH1 0x0 DUP1 RETURNDATACOPY RETURNDATASIZE PUSH1 0x0 REVERT JUMPDEST POP POP POP POP PUSH1 0x40 MLOAD RETURNDATASIZE PUSH1 0x1F NOT PUSH1 0x1F DUP3 ADD AND DUP3 ADD DUP1 PUSH1 0x40 MSTORE POP DUP2 ADD SWAP1 PUSH2 0x2248 SWAP2 SWAP1 PUSH2 0x2F5D JUMP JUMPDEST POP SWAP5 POP SWAP5 POP POP SWAP4 POP SWAP4 POP DUP2 PUSH1 0x1 PUSH1 0x1 PUSH1 0x70 SHL SUB AND PUSH1 0x0 EQ ISZERO DUP1 ISZERO PUSH2 0x2274 JUMPI POP PUSH6 0xFFFFFFFFFFFF DUP5 DUP2 AND EQ ISZERO JUMPDEST ISZERO PUSH2 0x227D JUMPI DUP8 SWAP5 POP JUMPDEST PUSH2 0x2287 DUP10 DUP4 PUSH2 0x2D0F JUMP JUMPDEST PUSH1 0x1 PUSH1 0x1 PUSH1 0x70 SHL SUB AND PUSH2 0x229A DUP12 DUP4 PUSH2 0x2D0F JUMP JUMPDEST PUSH1 0x1 PUSH1 0x1 PUSH1 0x70 SHL SUB AND GT ISZERO PUSH2 0x22B7 JUMPI DUP4 SWAP7 POP POP POP POP POP POP POP PUSH2 0x235E JUMP JUMPDEST DUP3 PUSH6 0xFFFFFFFFFFFF AND PUSH1 0x0 SUB PUSH2 0x22D5 JUMPI DUP5 SWAP7 POP POP POP POP POP POP POP PUSH2 0x235E JUMP JUMPDEST PUSH1 0x40 MLOAD PUSH4 0xD44CA7AF PUSH1 0xE0 SHL DUP2 MSTORE PUSH6 0xFFFFFFFFFFFF DUP5 AND PUSH1 0x4 DUP3 ADD MSTORE SWAP3 SWAP5 POP DUP5 SWAP3 PUSH1 0x1 PUSH1 0x1 PUSH1 0xA0 SHL SUB DUP8 AND SWAP1 PUSH4 0xD44CA7AF SWAP1 PUSH1 0x24 ADD PUSH1 0xC0 PUSH1 0x40 MLOAD DUP1 DUP4 SUB DUP2 DUP7 GAS STATICCALL ISZERO DUP1 ISZERO PUSH2 0x2326 JUMPI RETURNDATASIZE PUSH1 0x0 DUP1 RETURNDATACOPY RETURNDATASIZE PUSH1 0x0 REVERT JUMPDEST POP POP POP POP PUSH1 0x40 MLOAD RETURNDATASIZE PUSH1 0x1F NOT PUSH1 0x1F DUP3 ADD AND DUP3 ADD DUP1 PUSH1 0x40 MSTORE POP DUP2 ADD SWAP1 PUSH2 0x234A SWAP2 SWAP1 PUSH2 0x2F5D JUMP JUMPDEST POP SWAP4 SWAP8 POP SWAP2 SWAP6 POP SWAP1 SWAP4 POP SWAP1 SWAP2 POP PUSH2 0x227D SWAP1 POP JUMP JUMPDEST SWAP5 SWAP4 POP POP POP POP JUMP JUMPDEST CALLER PUSH1 0x0 SWAP1 DUP2 MSTORE PUSH1 0x1 PUSH1 0x20 MSTORE PUSH1 0x40 SWAP1 KECCAK256 SLOAD PUSH6 0xFFFFFFFFFFFF AND DUP1 PUSH2 0x2388 DUP2 PUSH2 0x2FDF JUMP JUMPDEST SWAP2 POP POP PUSH1 0x40 MLOAD DUP1 PUSH1 0x80 ADD PUSH1 0x40 MSTORE DUP1 DUP6 PUSH1 0x1 PUSH1 0x1 PUSH1 0xA0 SHL SUB AND DUP2 MSTORE PUSH1 0x20 ADD DUP5 PUSH6 0xFFFFFFFFFFFF AND DUP2 MSTORE PUSH1 0x20 ADD TIMESTAMP PUSH4 0xFFFFFFFF AND DUP2 MSTORE PUSH1 0x20 ADD DUP4 ISZERO ISZERO DUP2 MSTORE POP PUSH1 0x0 DUP1 PUSH2 0x23D2 CALLER DUP6 PUSH2 0x26AE JUMP JUMPDEST PUSH6 0xFFFFFFFFFFFF NOT SWAP1 DUP2 AND DUP3 MSTORE PUSH1 0x20 DUP1 DUP4 ADD SWAP4 SWAP1 SWAP4 MSTORE PUSH1 0x40 SWAP2 DUP3 ADD PUSH1 0x0 SWAP1 DUP2 KECCAK256 DUP6 MLOAD DUP2 SLOAD DUP8 DUP8 ADD MLOAD DUP9 DUP8 ADD MLOAD PUSH1 0x60 SWAP1 SWAP10 ADD MLOAD PUSH1 0x1 PUSH1 0x1 PUSH1 0xA0 SHL SUB SWAP1 SWAP4 AND PUSH1 0x1 PUSH1 0x1 PUSH1 0xD0 SHL SUB NOT SWAP1 SWAP3 AND SWAP2 SWAP1 SWAP2 OR PUSH1 0x1 PUSH1 0xA0 SHL PUSH6 0xFFFFFFFFFFFF SWAP3 DUP4 AND MUL OR PUSH5 0xFFFFFFFFFF PUSH1 0xD0 SHL NOT AND PUSH1 0x1 PUSH1 0xD0 SHL PUSH4 0xFFFFFFFF SWAP1 SWAP10 AND SWAP9 SWAP1 SWAP9 MUL PUSH1 0xFF PUSH1 0xF0 SHL NOT AND SWAP8 SWAP1 SWAP8 OR PUSH1 0x1 PUSH1 0xF0 SHL SWAP2 ISZERO ISZERO SWAP2 SWAP1 SWAP2 MUL OR SWAP1 SSTORE CALLER DUP2 MSTORE PUSH1 0x1 SWAP1 SWAP4 MSTORE SWAP2 KECCAK256 DUP1 SLOAD SWAP1 SWAP2 AND SWAP3 SWAP1 SWAP2 AND SWAP2 SWAP1 SWAP2 OR SWAP1 SSTORE POP POP POP JUMP JUMPDEST PUSH1 0x0 DUP1 DUP6 SWAP1 POP PUSH1 0x0 DUP2 PUSH1 0x1 PUSH1 0x1 PUSH1 0xA0 SHL SUB AND PUSH4 0x7C33E99A PUSH1 0x40 MLOAD DUP2 PUSH4 0xFFFFFFFF AND PUSH1 0xE0 SHL DUP2 MSTORE PUSH1 0x4 ADD PUSH1 0x20 PUSH1 0x40 MLOAD DUP1 DUP4 SUB DUP2 DUP7 GAS STATICCALL ISZERO DUP1 ISZERO PUSH2 0x24CA JUMPI RETURNDATASIZE PUSH1 0x0 DUP1 RETURNDATACOPY RETURNDATASIZE PUSH1 0x0 REVERT JUMPDEST POP POP POP POP PUSH1 0x40 MLOAD RETURNDATASIZE PUSH1 0x1F NOT PUSH1 0x1F DUP3 ADD AND DUP3 ADD DUP1 PUSH1 0x40 MSTORE POP DUP2 ADD SWAP1 PUSH2 0x24EE SWAP2 SWAP1 PUSH2 0x2C9E JUMP JUMPDEST SWAP1 POP DUP1 PUSH6 0xFFFFFFFFFFFF AND PUSH1 0x0 SUB PUSH2 0x250B JUMPI PUSH1 0x0 SWAP3 POP POP POP PUSH2 0x235E JUMP JUMPDEST DUP4 PUSH6 0xFFFFFFFFFFFF AND PUSH1 0x0 SUB PUSH2 0x251F JUMPI DUP1 SWAP4 POP JUMPDEST PUSH1 0x40 MLOAD PUSH4 0xD7D99B0B PUSH1 0xE0 SHL DUP2 MSTORE PUSH6 0xFFFFFFFFFFFF DUP6 AND PUSH1 0x4 DUP3 ADD MSTORE PUSH1 0x0 SWAP1 DUP2 SWAP1 DUP2 SWAP1 DUP2 SWAP1 PUSH1 0x1 PUSH1 0x1 PUSH1 0xA0 SHL SUB DUP8 AND SWAP1 PUSH4 0xD7D99B0B SWAP1 PUSH1 0x24 ADD PUSH1 0xC0 PUSH1 0x40 MLOAD DUP1 DUP4 SUB DUP2 DUP7 GAS STATICCALL ISZERO DUP1 ISZERO PUSH2 0x2574 JUMPI RETURNDATASIZE PUSH1 0x0 DUP1 RETURNDATACOPY RETURNDATASIZE PUSH1 0x0 REVERT JUMPDEST POP POP POP POP PUSH1 0x40 MLOAD RETURNDATASIZE PUSH1 0x1F NOT PUSH1 0x1F DUP3 ADD AND DUP3 ADD DUP1 PUSH1 0x40 MSTORE POP DUP2 ADD SWAP1 PUSH2 0x2598 SWAP2 SWAP1 PUSH2 0x2F5D JUMP JUMPDEST POP SWAP5 POP SWAP5 POP POP SWAP4 POP SWAP4 POP DUP2 PUSH1 0x1 PUSH1 0x1 PUSH1 0x70 SHL SUB AND PUSH1 0x0 EQ ISZERO DUP1 ISZERO PUSH2 0x25C4 JUMPI POP PUSH6 0xFFFFFFFFFFFF DUP5 DUP2 AND EQ ISZERO JUMPDEST ISZERO PUSH2 0x25CD JUMPI DUP8 SWAP5 POP JUMPDEST PUSH2 0x25D7 DUP10 DUP4 PUSH2 0x2D0F JUMP JUMPDEST PUSH1 0x1 PUSH1 0x1 PUSH1 0x70 SHL SUB AND PUSH2 0x25EA DUP12 DUP4 PUSH2 0x2D0F JUMP JUMPDEST PUSH1 0x1 PUSH1 0x1 PUSH1 0x70 SHL SUB AND GT ISZERO PUSH2 0x2607 JUMPI DUP4 SWAP7 POP POP POP POP POP POP POP PUSH2 0x235E JUMP JUMPDEST DUP3 PUSH6 0xFFFFFFFFFFFF AND PUSH1 0x0 SUB PUSH2 0x2625 JUMPI DUP5 SWAP7 POP POP POP POP POP POP POP PUSH2 0x235E JUMP JUMPDEST PUSH1 0x40 MLOAD PUSH4 0xD7D99B0B PUSH1 0xE0 SHL DUP2 MSTORE PUSH6 0xFFFFFFFFFFFF DUP5 AND PUSH1 0x4 DUP3 ADD MSTORE SWAP3 SWAP5 POP DUP5 SWAP3 PUSH1 0x1 PUSH1 0x1 PUSH1 0xA0 SHL SUB DUP8 AND SWAP1 PUSH4 0xD7D99B0B SWAP1 PUSH1 0x24 ADD PUSH1 0xC0 PUSH1 0x40 MLOAD DUP1 DUP4 SUB DUP2 DUP7 GAS STATICCALL ISZERO DUP1 ISZERO PUSH2 0x2676 JUMPI RETURNDATASIZE PUSH1 0x0 DUP1 RETURNDATACOPY RETURNDATASIZE PUSH1 0x0 REVERT JUMPDEST POP POP POP POP PUSH1 0x40 MLOAD RETURNDATASIZE PUSH1 0x1F NOT PUSH1 0x1F DUP3 ADD AND DUP3 ADD DUP1 PUSH1 0x40 MSTORE POP DUP2 ADD SWAP1 PUSH2 0x269A SWAP2 SWAP1 PUSH2 0x2F5D JUMP JUMPDEST POP SWAP4 SWAP8 POP SWAP2 SWAP6 POP SWAP1 SWAP4 POP SWAP1 SWAP2 POP PUSH2 0x25CD SWAP1 POP JUMP JUMPDEST PUSH1 0x40 MLOAD PUSH12 0xFFFFFFFFFFFFFFFFFFFFFFFF NOT PUSH1 0x60 DUP5 SWAP1 SHL AND PUSH1 0x20 DUP3 ADD MSTORE PUSH1 0x1 PUSH1 0x1 PUSH1 0xD0 SHL SUB NOT PUSH1 0xD0 DUP4 SWAP1 SHL AND PUSH1 0x34 DUP3 ADD MSTORE PUSH1 0x0 SWAP1 PUSH1 0x3A ADD PUSH1 0x40 MLOAD PUSH1 0x20 DUP2 DUP4 SUB SUB DUP2 MSTORE SWAP1 PUSH1 0x40 MSTORE PUSH2 0xE9A SWAP1 PUSH2 0x3004 JUMP JUMPDEST PUSH1 0x40 DUP1 MLOAD PUSH1 0xC0 DUP2 ADD DUP3 MSTORE PUSH1 0x0 DUP1 DUP3 MSTORE PUSH1 0x20 DUP3 ADD DUP2 SWAP1 MSTORE SWAP2 DUP2 ADD DUP3 SWAP1 MSTORE PUSH1 0x60 DUP2 ADD DUP3 SWAP1 MSTORE PUSH1 0x80 DUP2 ADD DUP3 SWAP1 MSTORE PUSH1 0xA0 DUP2 ADD SWAP2 SWAP1 SWAP2 MSTORE DUP2 PUSH2 0x27A8 JUMPI PUSH1 0x40 MLOAD PUSH4 0x2B9116EB PUSH1 0xE2 SHL DUP2 MSTORE PUSH6 0xFFFFFFFFFFFF DUP5 AND PUSH1 0x4 DUP3 ADD MSTORE PUSH1 0x1 PUSH1 0x1 PUSH1 0xA0 SHL SUB DUP6 AND SWAP1 PUSH4 0xAE445BAC SWAP1 PUSH1 0x24 ADD PUSH1 0xC0 PUSH1 0x40 MLOAD DUP1 DUP4 SUB DUP2 DUP7 GAS STATICCALL ISZERO DUP1 ISZERO PUSH2 0x277F JUMPI RETURNDATASIZE PUSH1 0x0 DUP1 RETURNDATACOPY RETURNDATASIZE PUSH1 0x0 REVERT JUMPDEST POP POP POP POP PUSH1 0x40 MLOAD RETURNDATASIZE PUSH1 0x1F NOT PUSH1 0x1F DUP3 ADD AND DUP3 ADD DUP1 PUSH1 0x40 MSTORE POP DUP2 ADD SWAP1 PUSH2 0x27A3 SWAP2 SWAP1 PUSH2 0x2E59 JUMP JUMPDEST PUSH2 0x235E JUMP JUMPDEST PUSH1 0x40 MLOAD PUSH4 0x39709D2F PUSH1 0xE2 SHL DUP2 MSTORE PUSH6 0xFFFFFFFFFFFF DUP5 AND PUSH1 0x4 DUP3 ADD MSTORE PUSH1 0x1 PUSH1 0x1 PUSH1 0xA0 SHL SUB DUP6 AND SWAP1 PUSH4 0xE5C274BC SWAP1 PUSH1 0x24 ADD PUSH1 0xC0 PUSH1 0x40 MLOAD DUP1 DUP4 SUB DUP2 DUP7 GAS STATICCALL ISZERO DUP1 ISZERO PUSH2 0x27F4 JUMPI RETURNDATASIZE PUSH1 0x0 DUP1 RETURNDATACOPY RETURNDATASIZE PUSH1 0x0 REVERT JUMPDEST POP POP POP POP PUSH1 0x40 MLOAD RETURNDATASIZE PUSH1 0x1F NOT PUSH1 0x1F DUP3 ADD AND DUP3 ADD DUP1 PUSH1 0x40 MSTORE POP DUP2 ADD SWAP1 PUSH2 0x235E SWAP2 SWAP1 PUSH2 0x2E59 JUMP JUMPDEST PUSH2 0x2820 PUSH2 0x28DA JUMP JUMPDEST PUSH1 0x40 MLOAD DUP1 PUSH2 0x120 ADD PUSH1 0x40 MSTORE DUP1 DUP5 PUSH1 0x0 ADD MLOAD PUSH1 0x1 PUSH1 0x1 PUSH1 0xA0 SHL SUB AND DUP2 MSTORE PUSH1 0x20 ADD DUP5 PUSH1 0x20 ADD MLOAD PUSH6 0xFFFFFFFFFFFF AND DUP2 MSTORE PUSH1 0x20 ADD DUP5 PUSH1 0x40 ADD MLOAD PUSH4 0xFFFFFFFF AND DUP2 MSTORE PUSH1 0x20 ADD DUP5 PUSH1 0x60 ADD MLOAD ISZERO ISZERO DUP2 MSTORE PUSH1 0x20 ADD DUP4 PUSH1 0x40 ADD MLOAD PUSH1 0x1 PUSH1 0x1 PUSH1 0xA0 SHL SUB AND DUP2 MSTORE PUSH1 0x20 ADD DUP4 PUSH1 0x60 ADD MLOAD PUSH1 0x1 PUSH1 0x1 PUSH1 0x70 SHL SUB AND DUP2 MSTORE PUSH1 0x20 ADD DUP4 PUSH1 0x80 ADD MLOAD PUSH1 0x1 PUSH1 0x1 PUSH1 0x70 SHL SUB AND DUP2 MSTORE PUSH1 0x20 ADD DUP4 PUSH1 0xA0 ADD MLOAD PUSH4 0xFFFFFFFF AND DUP2 MSTORE PUSH1 0x20 ADD PUSH6 0xFFFFFFFFFFFF DUP1 AND DUP5 PUSH1 0x0 ADD MLOAD PUSH6 0xFFFFFFFFFFFF AND EQ ISZERO ISZERO DUP2 MSTORE POP SWAP1 POP SWAP3 SWAP2 POP POP JUMP JUMPDEST PUSH1 0x40 DUP1 MLOAD PUSH2 0x120 DUP2 ADD DUP3 MSTORE PUSH1 0x0 DUP1 DUP3 MSTORE PUSH1 0x20 DUP3 ADD DUP2 SWAP1 MSTORE SWAP2 DUP2 ADD DUP3 SWAP1 MSTORE PUSH1 0x60 DUP2 ADD DUP3 SWAP1 MSTORE PUSH1 0x80 DUP2 ADD DUP3 SWAP1 MSTORE PUSH1 0xA0 DUP2 ADD DUP3 SWAP1 MSTORE PUSH1 0xC0 DUP2 ADD DUP3 SWAP1 MSTORE PUSH1 0xE0 DUP2 ADD DUP3 SWAP1 MSTORE PUSH2 0x100 DUP2 ADD SWAP2 SWAP1 SWAP2 MSTORE SWAP1 JUMP JUMPDEST PUSH1 0x1 PUSH1 0x1 PUSH1 0xA0 SHL SUB DUP2 AND DUP2 EQ PUSH2 0x293B JUMPI PUSH1 0x0 DUP1 REVERT JUMPDEST POP JUMP JUMPDEST PUSH1 0x1 PUSH1 0x1 PUSH1 0x70 SHL SUB DUP2 AND DUP2 EQ PUSH2 0x293B JUMPI PUSH1 0x0 DUP1 REVERT JUMPDEST PUSH6 0xFFFFFFFFFFFF DUP2 AND DUP2 EQ PUSH2 0x293B JUMPI PUSH1 0x0 DUP1 REVERT JUMPDEST PUSH1 0x0 DUP1 PUSH1 0x0 DUP1 PUSH1 0x80 DUP6 DUP8 SUB SLT ISZERO PUSH2 0x297D JUMPI PUSH1 0x0 DUP1 REVERT JUMPDEST DUP5 CALLDATALOAD PUSH2 0x2988 DUP2 PUSH2 0x2926 JUMP JUMPDEST SWAP4 POP PUSH1 0x20 DUP6 ADD CALLDATALOAD PUSH2 0x2998 DUP2 PUSH2 0x293E JUMP JUMPDEST SWAP3 POP PUSH1 0x40 DUP6 ADD CALLDATALOAD PUSH2 0x29A8 DUP2 PUSH2 0x293E JUMP JUMPDEST SWAP2 POP PUSH1 0x60 DUP6 ADD CALLDATALOAD PUSH2 0x29B8 DUP2 PUSH2 0x2953 JUMP JUMPDEST SWAP4 SWAP7 SWAP3 SWAP6 POP SWAP1 SWAP4 POP POP JUMP JUMPDEST PUSH1 0x0 DUP1 PUSH1 0x0 PUSH1 0x60 DUP5 DUP7 SUB SLT ISZERO PUSH2 0x29D8 JUMPI PUSH1 0x0 DUP1 REVERT JUMPDEST DUP4 CALLDATALOAD PUSH2 0x29E3 DUP2 PUSH2 0x2926 JUMP JUMPDEST SWAP3 POP PUSH1 0x20 DUP5 ADD CALLDATALOAD PUSH2 0x29F3 DUP2 PUSH2 0x293E JUMP JUMPDEST SWAP2 POP PUSH1 0x40 DUP5 ADD CALLDATALOAD PUSH2 0x2A03 DUP2 PUSH2 0x293E JUMP JUMPDEST DUP1 SWAP2 POP POP SWAP3 POP SWAP3 POP SWAP3 JUMP JUMPDEST PUSH1 0xFF DUP2 AND DUP2 EQ PUSH2 0x293B JUMPI PUSH1 0x0 DUP1 REVERT JUMPDEST PUSH1 0x0 DUP1 PUSH1 0x0 PUSH1 0x60 DUP5 DUP7 SUB SLT ISZERO PUSH2 0x2A32 JUMPI PUSH1 0x0 DUP1 REVERT JUMPDEST DUP4 CALLDATALOAD PUSH2 0x2A3D DUP2 PUSH2 0x2926 JUMP JUMPDEST SWAP3 POP PUSH1 0x20 DUP5 ADD CALLDATALOAD PUSH2 0x2A4D DUP2 PUSH2 0x2953 JUMP JUMPDEST SWAP2 POP PUSH1 0x40 DUP5 ADD CALLDATALOAD PUSH2 0x2A03 DUP2 PUSH2 0x2A0E JUMP JUMPDEST PUSH1 0x20 DUP1 DUP3 MSTORE DUP3 MLOAD DUP3 DUP3 ADD DUP2 SWAP1 MSTORE PUSH1 0x0 SWAP2 SWAP1 PUSH1 0x40 SWAP1 DUP2 DUP6 ADD SWAP1 DUP7 DUP5 ADD DUP6 JUMPDEST DUP3 DUP2 LT ISZERO PUSH2 0x2ACE JUMPI DUP2 MLOAD DUP1 MLOAD PUSH6 0xFFFFFFFFFFFF AND DUP6 MSTORE DUP7 DUP2 ADD MLOAD PUSH1 0x1 PUSH1 0x1 PUSH1 0x70 SHL SUB SWAP1 DUP2 AND DUP9 DUP8 ADD MSTORE DUP7 DUP3 ADD MLOAD AND DUP7 DUP7 ADD MSTORE PUSH1 0x60 SWAP1 DUP2 ADD MLOAD PUSH4 0xFFFFFFFF AND SWAP1 DUP6 ADD MSTORE PUSH1 0x80 SWAP1 SWAP4 ADD SWAP3 SWAP1 DUP6 ADD SWAP1 PUSH1 0x1 ADD PUSH2 0x2A7A JUMP JUMPDEST POP SWAP2 SWAP8 SWAP7 POP POP POP POP POP POP POP JUMP JUMPDEST PUSH1 0x0 DUP1 PUSH1 0x0 PUSH1 0x60 DUP5 DUP7 SUB SLT ISZERO PUSH2 0x2AF0 JUMPI PUSH1 0x0 DUP1 REVERT JUMPDEST DUP4 CALLDATALOAD PUSH2 0x2AFB DUP2 PUSH2 0x2926 JUMP JUMPDEST SWAP3 POP PUSH1 0x20 DUP5 ADD CALLDATALOAD PUSH2 0x2B0B DUP2 PUSH2 0x2953 JUMP JUMPDEST SWAP2 POP PUSH1 0x40 DUP5 ADD CALLDATALOAD PUSH2 0x2A03 DUP2 PUSH2 0x2953 JUMP JUMPDEST PUSH1 0x20 DUP1 DUP3 MSTORE DUP3 MLOAD DUP3 DUP3 ADD DUP2 SWAP1 MSTORE PUSH1 0x0 SWAP2 SWAP1 PUSH1 0x40 SWAP1 DUP2 DUP6 ADD SWAP1 DUP7 DUP5 ADD DUP6 JUMPDEST DUP3 DUP2 LT ISZERO PUSH2 0x2ACE JUMPI DUP2 MLOAD DUP1 MLOAD PUSH1 0x1 PUSH1 0x1 PUSH1 0xA0 SHL SUB SWAP1 DUP2 AND DUP7 MSTORE DUP8 DUP3 ADD MLOAD PUSH6 0xFFFFFFFFFFFF AND DUP9 DUP8 ADD MSTORE DUP7 DUP3 ADD MLOAD PUSH4 0xFFFFFFFF SWAP1 DUP2 AND DUP9 DUP9 ADD MSTORE PUSH1 0x60 DUP1 DUP5 ADD MLOAD ISZERO ISZERO SWAP1 DUP9 ADD MSTORE PUSH1 0x80 DUP1 DUP5 ADD MLOAD SWAP1 SWAP3 AND SWAP2 DUP8 ADD SWAP2 SWAP1 SWAP2 MSTORE PUSH1 0xA0 DUP1 DUP4 ADD MLOAD PUSH1 0x1 PUSH1 0x1 PUSH1 0x70 SHL SUB SWAP1 DUP2 AND SWAP2 DUP9 ADD SWAP2 SWAP1 SWAP2 MSTORE PUSH1 0xC0 DUP1 DUP5 ADD MLOAD SWAP1 SWAP2 AND SWAP1 DUP8 ADD MSTORE PUSH1 0xE0 DUP1 DUP4 ADD MLOAD SWAP1 SWAP2 AND SWAP1 DUP7 ADD MSTORE PUSH2 0x100 SWAP1 DUP2 ADD MLOAD ISZERO ISZERO SWAP1 DUP6 ADD MSTORE PUSH2 0x120 SWAP1 SWAP4 ADD SWAP3 SWAP1 DUP6 ADD SWAP1 PUSH1 0x1 ADD PUSH2 0x2B38 JUMP JUMPDEST PUSH1 0x0 PUSH1 0x20 DUP3 DUP5 SUB SLT ISZERO PUSH2 0x2BF1 JUMPI PUSH1 0x0 DUP1 REVERT JUMPDEST DUP2 MLOAD PUSH2 0xE9A DUP2 PUSH2 0x2926 JUMP JUMPDEST PUSH1 0x1 PUSH1 0x1 PUSH1 0xA0 SHL SUB SWAP4 DUP5 AND DUP2 MSTORE SWAP2 SWAP1 SWAP3 AND PUSH1 0x20 DUP3 ADD MSTORE PUSH1 0x1 PUSH1 0x1 PUSH1 0x70 SHL SUB SWAP1 SWAP2 AND PUSH1 0x40 DUP3 ADD MSTORE PUSH1 0x60 ADD SWAP1 JUMP JUMPDEST PUSH1 0x0 PUSH1 0x20 DUP3 DUP5 SUB SLT ISZERO PUSH2 0x2C3A JUMPI PUSH1 0x0 DUP1 REVERT JUMPDEST DUP2 MLOAD DUP1 ISZERO ISZERO DUP2 EQ PUSH2 0xE9A JUMPI PUSH1 0x0 DUP1 REVERT JUMPDEST PUSH1 0x0 PUSH1 0x20 DUP3 DUP5 SUB SLT ISZERO PUSH2 0x2C5C JUMPI PUSH1 0x0 DUP1 REVERT JUMPDEST POP MLOAD SWAP2 SWAP1 POP JUMP JUMPDEST PUSH1 0x1 PUSH1 0x1 PUSH1 0x70 SHL SUB SWAP4 DUP5 AND DUP2 MSTORE SWAP2 SWAP1 SWAP3 AND PUSH1 0x20 DUP3 ADD MSTORE PUSH6 0xFFFFFFFFFFFF SWAP1 SWAP2 AND PUSH1 0x40 DUP3 ADD MSTORE PUSH1 0x60 ADD SWAP1 JUMP JUMPDEST DUP1 MLOAD PUSH2 0x2C99 DUP2 PUSH2 0x2953 JUMP JUMPDEST SWAP2 SWAP1 POP JUMP JUMPDEST PUSH1 0x0 PUSH1 0x20 DUP3 DUP5 SUB SLT ISZERO PUSH2 0x2CB0 JUMPI PUSH1 0x0 DUP1 REVERT JUMPDEST DUP2 MLOAD PUSH2 0xE9A DUP2 PUSH2 0x2953 JUMP JUMPDEST PUSH6 0xFFFFFFFFFFFF SWAP3 SWAP1 SWAP3 AND DUP3 MSTORE PUSH1 0x1 PUSH1 0x1 PUSH1 0xA0 SHL SUB AND PUSH1 0x20 DUP3 ADD MSTORE PUSH1 0x40 ADD SWAP1 JUMP JUMPDEST PUSH1 0x0 PUSH1 0x20 DUP3 DUP5 SUB SLT ISZERO PUSH2 0x2CEE JUMPI PUSH1 0x0 DUP1 REVERT JUMPDEST DUP2 MLOAD PUSH2 0xE9A DUP2 PUSH2 0x2A0E JUMP JUMPDEST PUSH4 0x4E487B71 PUSH1 0xE0 SHL PUSH1 0x0 MSTORE PUSH1 0x11 PUSH1 0x4 MSTORE PUSH1 0x24 PUSH1 0x0 REVERT JUMPDEST PUSH1 0x1 PUSH1 0x1 PUSH1 0x70 SHL SUB DUP2 DUP2 AND DUP4 DUP3 AND MUL DUP1 DUP3 AND SWAP2 SWAP1 DUP3 DUP2 EQ PUSH2 0x2D32 JUMPI PUSH2 0x2D32 PUSH2 0x2CF9 JUMP JUMPDEST POP POP SWAP3 SWAP2 POP POP JUMP JUMPDEST PUSH1 0x0 PUSH1 0x1 PUSH1 0x1 PUSH1 0x70 SHL SUB DUP1 DUP5 AND DUP1 PUSH2 0x2D62 JUMPI PUSH4 0x4E487B71 PUSH1 0xE0 SHL PUSH1 0x0 MSTORE PUSH1 0x12 PUSH1 0x4 MSTORE PUSH1 0x24 PUSH1 0x0 REVERT JUMPDEST SWAP3 AND SWAP2 SWAP1 SWAP2 DIV SWAP3 SWAP2 POP POP JUMP JUMPDEST PUSH1 0x1 PUSH1 0x1 PUSH1 0x70 SHL SUB DUP2 DUP2 AND DUP4 DUP3 AND ADD SWAP1 DUP1 DUP3 GT ISZERO PUSH2 0x2D8E JUMPI PUSH2 0x2D8E PUSH2 0x2CF9 JUMP JUMPDEST POP SWAP3 SWAP2 POP POP JUMP JUMPDEST DUP1 MLOAD PUSH2 0x2C99 DUP2 PUSH2 0x293E JUMP JUMPDEST PUSH1 0x0 DUP1 PUSH1 0x0 PUSH1 0x60 DUP5 DUP7 SUB SLT ISZERO PUSH2 0x2DB5 JUMPI PUSH1 0x0 DUP1 REVERT JUMPDEST DUP4 MLOAD PUSH2 0x2DC0 DUP2 PUSH2 0x293E JUMP JUMPDEST PUSH1 0x20 DUP6 ADD MLOAD SWAP1 SWAP4 POP PUSH2 0x2DD1 DUP2 PUSH2 0x293E JUMP JUMPDEST PUSH1 0x40 DUP6 ADD MLOAD SWAP1 SWAP3 POP PUSH2 0x2A03 DUP2 PUSH2 0x293E JUMP JUMPDEST PUSH1 0x1 PUSH1 0x1 PUSH1 0xA0 SHL SUB SWAP3 SWAP1 SWAP3 AND DUP3 MSTORE PUSH1 0x1 PUSH1 0x1 PUSH1 0x70 SHL SUB AND PUSH1 0x20 DUP3 ADD MSTORE PUSH1 0x40 ADD SWAP1 JUMP JUMPDEST PUSH1 0x1 PUSH1 0x1 PUSH1 0x70 SHL SUB DUP3 DUP2 AND DUP3 DUP3 AND SUB SWAP1 DUP1 DUP3 GT ISZERO PUSH2 0x2D8E JUMPI PUSH2 0x2D8E PUSH2 0x2CF9 JUMP JUMPDEST PUSH4 0x4E487B71 PUSH1 0xE0 SHL PUSH1 0x0 MSTORE PUSH1 0x41 PUSH1 0x4 MSTORE PUSH1 0x24 PUSH1 0x0 REVERT JUMPDEST DUP1 MLOAD PUSH2 0x2C99 DUP2 PUSH2 0x2926 JUMP JUMPDEST DUP1 MLOAD PUSH4 0xFFFFFFFF DUP2 AND DUP2 EQ PUSH2 0x2C99 JUMPI PUSH1 0x0 DUP1 REVERT JUMPDEST PUSH1 0x0 PUSH1 0xC0 DUP3 DUP5 SUB SLT ISZERO PUSH2 0x2E6B JUMPI PUSH1 0x0 DUP1 REVERT JUMPDEST PUSH1 0x40 MLOAD PUSH1 0xC0 DUP2 ADD DUP2 DUP2 LT PUSH8 0xFFFFFFFFFFFFFFFF DUP3 GT OR ISZERO PUSH2 0x2E9C JUMPI PUSH4 0x4E487B71 PUSH1 0xE0 SHL PUSH1 0x0 MSTORE PUSH1 0x41 PUSH1 0x4 MSTORE PUSH1 0x24 PUSH1 0x0 REVERT JUMPDEST PUSH1 0x40 MSTORE PUSH2 0x2EA8 DUP4 PUSH2 0x2C8E JUMP JUMPDEST DUP2 MSTORE PUSH2 0x2EB6 PUSH1 0x20 DUP5 ADD PUSH2 0x2C8E JUMP JUMPDEST PUSH1 0x20 DUP3 ADD MSTORE PUSH2 0x2EC7 PUSH1 0x40 DUP5 ADD PUSH2 0x2E3A JUMP JUMPDEST PUSH1 0x40 DUP3 ADD MSTORE PUSH2 0x2ED8 PUSH1 0x60 DUP5 ADD PUSH2 0x2D95 JUMP JUMPDEST PUSH1 0x60 DUP3 ADD MSTORE PUSH2 0x2EE9 PUSH1 0x80 DUP5 ADD PUSH2 0x2D95 JUMP JUMPDEST PUSH1 0x80 DUP3 ADD MSTORE PUSH2 0x2EFA PUSH1 0xA0 DUP5 ADD PUSH2 0x2E45 JUMP JUMPDEST PUSH1 0xA0 DUP3 ADD MSTORE SWAP4 SWAP3 POP POP POP JUMP JUMPDEST PUSH4 0x4E487B71 PUSH1 0xE0 SHL PUSH1 0x0 MSTORE PUSH1 0x32 PUSH1 0x4 MSTORE PUSH1 0x24 PUSH1 0x0 REVERT JUMPDEST PUSH6 0xFFFFFFFFFFFF DUP3 DUP2 AND DUP3 DUP3 AND SUB SWAP1 DUP1 DUP3 GT ISZERO PUSH2 0x2D8E JUMPI PUSH2 0x2D8E PUSH2 0x2CF9 JUMP JUMPDEST PUSH1 0x0 PUSH6 0xFFFFFFFFFFFF DUP3 AND DUP1 PUSH2 0x2F53 JUMPI PUSH2 0x2F53 PUSH2 0x2CF9 JUMP JUMPDEST PUSH1 0x0 NOT ADD SWAP3 SWAP2 POP POP JUMP JUMPDEST PUSH1 0x0 DUP1 PUSH1 0x0 DUP1 PUSH1 0x0 DUP1 PUSH1 0xC0 DUP8 DUP10 SUB SLT ISZERO PUSH2 0x2F76 JUMPI PUSH1 0x0 DUP1 REVERT JUMPDEST DUP7 MLOAD PUSH2 0x2F81 DUP2 PUSH2 0x2953 JUMP JUMPDEST PUSH1 0x20 DUP9 ADD MLOAD SWAP1 SWAP7 POP PUSH2 0x2F92 DUP2 PUSH2 0x2953 JUMP JUMPDEST PUSH1 0x40 DUP9 ADD MLOAD SWAP1 SWAP6 POP PUSH2 0x2FA3 DUP2 PUSH2 0x2926 JUMP JUMPDEST PUSH1 0x60 DUP9 ADD MLOAD SWAP1 SWAP5 POP PUSH2 0x2FB4 DUP2 PUSH2 0x293E JUMP JUMPDEST PUSH1 0x80 DUP9 ADD MLOAD SWAP1 SWAP4 POP PUSH2 0x2FC5 DUP2 PUSH2 0x293E JUMP JUMPDEST SWAP2 POP PUSH2 0x2FD3 PUSH1 0xA0 DUP9 ADD PUSH2 0x2E45 JUMP JUMPDEST SWAP1 POP SWAP3 SWAP6 POP SWAP3 SWAP6 POP SWAP3 SWAP6 JUMP JUMPDEST PUSH1 0x0 PUSH6 0xFFFFFFFFFFFF DUP1 DUP4 AND DUP2 DUP2 SUB PUSH2 0x2FFA JUMPI PUSH2 0x2FFA PUSH2 0x2CF9 JUMP JUMPDEST PUSH1 0x1 ADD SWAP4 SWAP3 POP POP POP JUMP JUMPDEST DUP1 MLOAD PUSH1 0x20 DUP3 ADD MLOAD PUSH6 0xFFFFFFFFFFFF NOT DUP1 DUP3 AND SWAP3 SWAP2 SWAP1 PUSH1 0x1A DUP4 LT ISZERO PUSH2 0x3032 JUMPI DUP1 DUP2 DUP5 PUSH1 0x1A SUB PUSH1 0x3 SHL SHL DUP4 AND AND SWAP4 POP JUMPDEST POP POP POP SWAP2 SWAP1 POP JUMP INVALID LOG2 PUSH5 0x6970667358 0x22 SLT KECCAK256 DUP12 0xA6 PUSH5 0xE1E5B22A32 LOG3 PUSH12 0x98CDA357A289D096B3599A50 CHAINID 0xB2 PUSH11 0x1060CC0FB5118464736F6C PUSH4 0x43000818 STOP CALLER "},"methodIdentifiers":{"getBuyList(address,uint48,uint8)":"d4092fa6","getSellList(address,uint48,uint8)":"78cfd70e","getUserOrders(address,uint48,uint48)":"f519e79f","makeBuyOrder(address,uint112,uint112,uint48)":"125f0d9e","makeSellOrder(address,uint112,uint112,uint48)":"3adc4361","takeBuyOrder(address,uint112,uint112)":"bd3ddde4","takeBuyOrder2(address,uint112,uint112)":"9fb6d44a","takeSellOrder(address,uint112,uint112)":"8ac9b3df","takeSellOrder2(address,uint112,uint112)":"42760717"}}}}}