{
  "_format": "hh-sol-artifact-1",
  "contractName": "MarsHelp",
  "sourceName": "contracts/MarsHelp.sol",
  "abi": [
    {
      "inputs": [],
      "stateMutability": "nonpayable",
      "type": "constructor"
    },
    {
      "inputs": [
        {
          "internalType": "uint256",
          "name": "token1In",
          "type": "uint256"
        },
        {
          "internalType": "uint256",
          "name": "token0Out",
          "type": "uint256"
        }
      ],
      "name": "findBeforeOrderIdInBuyList",
      "outputs": [
        {
          "internalType": "uint48",
          "name": "",
          "type": "uint48"
        }
      ],
      "stateMutability": "nonpayable",
      "type": "function"
    },
    {
      "inputs": [
        {
          "internalType": "address",
          "name": "pairAddr",
          "type": "address"
        },
        {
          "internalType": "uint48",
          "name": "fromOrderId",
          "type": "uint48"
        },
        {
          "internalType": "uint8",
          "name": "num",
          "type": "uint8"
        }
      ],
      "name": "getBuyList",
      "outputs": [
        {
          "components": [
            {
              "internalType": "uint48",
              "name": "orderId",
              "type": "uint48"
            },
            {
              "internalType": "address",
              "name": "owner",
              "type": "address"
            },
            {
              "internalType": "uint256",
              "name": "amountIn",
              "type": "uint256"
            },
            {
              "internalType": "uint256",
              "name": "amountOut",
              "type": "uint256"
            },
            {
              "internalType": "uint256",
              "name": "amountInUsed",
              "type": "uint256"
            },
            {
              "internalType": "bool",
              "name": "isDone",
              "type": "bool"
            }
          ],
          "internalType": "struct MarsHelp.Order[]",
          "name": "",
          "type": "tuple[]"
        }
      ],
      "stateMutability": "view",
      "type": "function"
    },
    {
      "inputs": [
        {
          "internalType": "address",
          "name": "pairAddr",
          "type": "address"
        },
        {
          "internalType": "uint48",
          "name": "orderId",
          "type": "uint48"
        }
      ],
      "name": "getOrder",
      "outputs": [
        {
          "components": [
            {
              "internalType": "uint48",
              "name": "orderId",
              "type": "uint48"
            },
            {
              "internalType": "address",
              "name": "owner",
              "type": "address"
            },
            {
              "internalType": "uint256",
              "name": "amountIn",
              "type": "uint256"
            },
            {
              "internalType": "uint256",
              "name": "amountOut",
              "type": "uint256"
            },
            {
              "internalType": "uint256",
              "name": "amountInUsed",
              "type": "uint256"
            },
            {
              "internalType": "bool",
              "name": "isDone",
              "type": "bool"
            }
          ],
          "internalType": "struct MarsHelp.Order",
          "name": "",
          "type": "tuple"
        }
      ],
      "stateMutability": "view",
      "type": "function"
    },
    {
      "inputs": [
        {
          "internalType": "address",
          "name": "pairAddr",
          "type": "address"
        },
        {
          "internalType": "uint48",
          "name": "fromOrderId",
          "type": "uint48"
        },
        {
          "internalType": "uint8",
          "name": "num",
          "type": "uint8"
        }
      ],
      "name": "getSellList",
      "outputs": [
        {
          "components": [
            {
              "internalType": "uint48",
              "name": "orderId",
              "type": "uint48"
            },
            {
              "internalType": "address",
              "name": "owner",
              "type": "address"
            },
            {
              "internalType": "uint256",
              "name": "amountIn",
              "type": "uint256"
            },
            {
              "internalType": "uint256",
              "name": "amountOut",
              "type": "uint256"
            },
            {
              "internalType": "uint256",
              "name": "amountInUsed",
              "type": "uint256"
            },
            {
              "internalType": "bool",
              "name": "isDone",
              "type": "bool"
            }
          ],
          "internalType": "struct MarsHelp.Order[]",
          "name": "",
          "type": "tuple[]"
        }
      ],
      "stateMutability": "view",
      "type": "function"
    }
  ],
  "bytecode": "0x608060405234801561001057600080fd5b506108c2806100206000396000f3fe608060405234801561001057600080fd5b506004361061004c5760003560e01c806309d255b5146100515780632e83f20c1461007a57806378cfd70e146100a7578063d4092fa6146100c7575b600080fd5b61006461005f366004610658565b6100da565b60405161007191906106db565b60405180910390f35b6100906100883660046106e9565b600092915050565b60405165ffffffffffff9091168152602001610071565b6100ba6100b536600461070b565b6101f4565b604051610071919061075c565b6100ba6100d536600461070b565b6103b6565b6100e26105e3565b6040516339709d2f60e21b815265ffffffffffff8316600482015283906000906001600160a01b0383169063e5c274bc9060240160c060405180830381865afa158015610133573d6000803e3d6000fd5b505050506040513d601f19601f8201168201806040525081019061015791906107db565b60408101519091506001600160a01b03166101df57604051632b9116eb60e21b815265ffffffffffff851660048201526001600160a01b0383169063ae445bac9060240160c060405180830381865afa1580156101b8573d6000803e3d6000fd5b505050506040513d601f19601f820116820180604052508101906101dc91906107db565b90505b6101e9818561056d565b925050505b92915050565b604051632b9116eb60e21b815265ffffffffffff8316600482015260609084906000906001600160a01b0383169063ae445bac9060240160c060405180830381865afa158015610248573d6000803e3d6000fd5b505050506040513d601f19601f8201168201806040525081019061026c91906107db565b905060008460ff1667ffffffffffffffff81111561028c5761028c6107aa565b6040519080825280602002602001820160405280156102c557816020015b6102b26105e3565b8152602001906001900390816102aa5790505b5090506102d2828761056d565b816000815181106102e5576102e5610876565b602090810291909101015260015b8560ff168160ff1610156103ab576020830151604051632b9116eb60e21b815265ffffffffffff821660048201526001600160a01b0386169063ae445bac9060240160c060405180830381865afa158015610352573d6000803e3d6000fd5b505050506040513d601f19601f8201168201806040525081019061037691906107db565b9350610382848261056d565b838360ff168151811061039757610397610876565b6020908102919091010152506001016102f3565b509695505050505050565b6040516339709d2f60e21b815265ffffffffffff8316600482015260609084906000906001600160a01b0383169063e5c274bc9060240160c060405180830381865afa15801561040a573d6000803e3d6000fd5b505050506040513d601f19601f8201168201806040525081019061042e91906107db565b905060008460ff1667ffffffffffffffff81111561044e5761044e6107aa565b60405190808252806020026020018201604052801561048757816020015b6104746105e3565b81526020019060019003908161046c5790505b509050610494828761056d565b816000815181106104a7576104a7610876565b602090810291909101015260015b8560ff168160ff1610156103ab5760208301516040516339709d2f60e21b815265ffffffffffff821660048201526001600160a01b0386169063e5c274bc9060240160c060405180830381865afa158015610514573d6000803e3d6000fd5b505050506040513d601f19601f8201168201806040525081019061053891906107db565b9350610544848261056d565b838360ff168151811061055957610559610876565b6020908102919091010152506001016104b5565b6105756105e3565b6040518060c001604052808365ffffffffffff16815260200184604001516001600160a01b0316815260200184606001518152602001846080015181526020018460a00151815260200165ffffffffffff8016856000015165ffffffffffff16141515815250905092915050565b6040518060c00160405280600065ffffffffffff16815260200160006001600160a01b031681526020016000815260200160008152602001600081526020016000151581525090565b6001600160a01b038116811461064157600080fd5b50565b65ffffffffffff8116811461064157600080fd5b6000806040838503121561066b57600080fd5b82356106768161062c565b9150602083013561068681610644565b809150509250929050565b805165ffffffffffff1682526020808201516001600160a01b03169083015260408082015190830152606080820151908301526080808201519083015260a0908101511515910152565b60c081016101ee8284610691565b600080604083850312156106fc57600080fd5b50508035926020909101359150565b60008060006060848603121561072057600080fd5b833561072b8161062c565b9250602084013561073b81610644565b9150604084013560ff8116811461075157600080fd5b809150509250925092565b6020808252825182820181905260009190848201906040850190845b8181101561079e5761078b838551610691565b9284019260c09290920191600101610778565b50909695505050505050565b634e487b7160e01b600052604160045260246000fd5b80516107cb81610644565b919050565b80516107cb8161062c565b600060c082840312156107ed57600080fd5b60405160c0810181811067ffffffffffffffff8211171561081e57634e487b7160e01b600052604160045260246000fd5b60405261082a836107c0565b8152610838602084016107c0565b6020820152610849604084016107d0565b6040820152606083015160608201526080830151608082015260a083015160a08201528091505092915050565b634e487b7160e01b600052603260045260246000fdfea2646970667358221220edb6ae4774389adcbb88a466d34ae21385a49989e35394ed46ed43f2dd3c1deb64736f6c63430008180033",
  "linkReferences": {},
  "deployedLinkReferences": {}
}