{
  "_format": "hh-sol-artifact-1",
  "contractName": "PairFactory",
  "sourceName": "contracts/PairFactory.sol",
  "abi": [
    {
      "inputs": [
        {
          "internalType": "address",
          "name": "_feeToSetter",
          "type": "address"
        }
      ],
      "stateMutability": "nonpayable",
      "type": "constructor"
    },
    {
      "anonymous": false,
      "inputs": [
        {
          "indexed": true,
          "internalType": "address",
          "name": "token0",
          "type": "address"
        },
        {
          "indexed": true,
          "internalType": "address",
          "name": "token1",
          "type": "address"
        },
        {
          "indexed": false,
          "internalType": "address",
          "name": "pair",
          "type": "address"
        },
        {
          "indexed": false,
          "internalType": "uint256",
          "name": "",
          "type": "uint256"
        }
      ],
      "name": "PairCreated",
      "type": "event"
    },
    {
      "inputs": [],
      "name": "INIT_CODE_PAIR_HASH",
      "outputs": [
        {
          "internalType": "bytes32",
          "name": "",
          "type": "bytes32"
        }
      ],
      "stateMutability": "view",
      "type": "function"
    },
    {
      "inputs": [
        {
          "internalType": "uint256",
          "name": "",
          "type": "uint256"
        }
      ],
      "name": "allPairs",
      "outputs": [
        {
          "internalType": "address",
          "name": "",
          "type": "address"
        }
      ],
      "stateMutability": "view",
      "type": "function"
    },
    {
      "inputs": [],
      "name": "feeTo",
      "outputs": [
        {
          "internalType": "address",
          "name": "",
          "type": "address"
        }
      ],
      "stateMutability": "view",
      "type": "function"
    },
    {
      "inputs": [],
      "name": "feeToSetter",
      "outputs": [
        {
          "internalType": "address",
          "name": "",
          "type": "address"
        }
      ],
      "stateMutability": "view",
      "type": "function"
    },
    {
      "inputs": [
        {
          "internalType": "address",
          "name": "pairAddr",
          "type": "address"
        },
        {
          "internalType": "uint96",
          "name": "fromOrderId",
          "type": "uint96"
        },
        {
          "internalType": "uint8",
          "name": "num",
          "type": "uint8"
        }
      ],
      "name": "getBuyOrders",
      "outputs": [
        {
          "components": [
            {
              "internalType": "uint96",
              "name": "orderId",
              "type": "uint96"
            },
            {
              "internalType": "uint96",
              "name": "beforeOrderId",
              "type": "uint96"
            },
            {
              "internalType": "uint96",
              "name": "afterOrderId",
              "type": "uint96"
            },
            {
              "internalType": "address",
              "name": "owner",
              "type": "address"
            },
            {
              "internalType": "uint256",
              "name": "amountIn",
              "type": "uint256"
            },
            {
              "internalType": "uint256",
              "name": "amountOut",
              "type": "uint256"
            },
            {
              "internalType": "uint256",
              "name": "amountInUsed",
              "type": "uint256"
            },
            {
              "internalType": "bool",
              "name": "isDone",
              "type": "bool"
            }
          ],
          "internalType": "struct PairFactory.Order[]",
          "name": "",
          "type": "tuple[]"
        }
      ],
      "stateMutability": "view",
      "type": "function"
    },
    {
      "inputs": [
        {
          "internalType": "address",
          "name": "",
          "type": "address"
        },
        {
          "internalType": "address",
          "name": "",
          "type": "address"
        }
      ],
      "name": "getPair",
      "outputs": [
        {
          "internalType": "address",
          "name": "",
          "type": "address"
        }
      ],
      "stateMutability": "view",
      "type": "function"
    }
  ],
  "bytecode": "0x608060405234801561001057600080fd5b50604051611db8380380611db883398101604081905261002f91610054565b600180546001600160a01b0319166001600160a01b0392909216919091179055610084565b60006020828403121561006657600080fd5b81516001600160a01b038116811461007d57600080fd5b9392505050565b611d25806100936000396000f3fe608060405234801561001057600080fd5b50600436106100625760003560e01c8063017e7e5814610067578063094b7415146100975780631e3dd18b146100aa5780635855a25a146100bd578063d9bba268146100d3578063e6a43905146100f3575b600080fd5b60005461007a906001600160a01b031681565b6040516001600160a01b0390911681526020015b60405180910390f35b60015461007a906001600160a01b031681565b61007a6100b836600461043c565b610127565b6100c5610151565b60405190815260200161008e565b6100e66100e1366004610482565b61019b565b60405161008e91906104d3565b61007a610101366004610579565b60026020908152600092835260408084209091529082529020546001600160a01b031681565b6003818154811061013757600080fd5b6000918252602090912001546001600160a01b0316905081565b604051610160602082016103eb565b601f1982820381018352601f90910116604081905261018291906020016105b2565b6040516020818303038152906040528051906020012081565b6040516314985b0160e21b81526001600160601b038316600482015260609084906000906001600160a01b038316906352616c049060240160e060405180830381865afa1580156101f0573d6000803e3d6000fd5b505050506040513d601f19601f820116820180604052508101906102149190610622565b905060008460ff1667ffffffffffffffff811115610234576102346105e1565b60405190808252806020026020018201604052801561026d57816020015b61025a6103f8565b8152602001906001900390816102525790505b50905061027a828761035f565b8160008151811061028d5761028d6106cb565b602090810291909101015260015b8560ff168160ff1610156103545760208301516040516314985b0160e21b81526001600160601b03821660048201526001600160a01b038616906352616c049060240160e060405180830381865afa1580156102fb573d6000803e3d6000fd5b505050506040513d601f19601f8201168201806040525081019061031f9190610622565b935061032b848261035f565b838360ff1681518110610340576103406106cb565b60209081029190910101525060010161029b565b509695505050505050565b6103676103f8565b604051806101000160405280836001600160601b0316815260200184600001516001600160601b0316815260200184602001516001600160601b0316815260200184604001516001600160a01b0316815260200184606001518152602001846080015181526020018460a0015181526020018460c001511515815250905092915050565b61160e806106e283390190565b6040805161010081018252600080825260208201819052918101829052606081018290526080810182905260a0810182905260c0810182905260e081019190915290565b60006020828403121561044e57600080fd5b5035919050565b6001600160a01b038116811461046a57600080fd5b50565b6001600160601b038116811461046a57600080fd5b60008060006060848603121561049757600080fd5b83356104a281610455565b925060208401356104b28161046d565b9150604084013560ff811681146104c857600080fd5b809150509250925092565b602080825282518282018190526000919060409081850190868401855b8281101561056c57815180516001600160601b039081168652878201518116888701528682015116868601526060808201516001600160a01b0316908601526080808201519086015260a0808201519086015260c0808201519086015260e09081015115159085015261010090930192908501906001016104f0565b5091979650505050505050565b6000806040838503121561058c57600080fd5b823561059781610455565b915060208301356105a781610455565b809150509250929050565b6000825160005b818110156105d357602081860181015185830152016105b9565b506000920191825250919050565b634e487b7160e01b600052604160045260246000fd5b80516106028161046d565b919050565b805161060281610455565b8051801515811461060257600080fd5b600060e0828403121561063457600080fd5b60405160e0810181811067ffffffffffffffff8211171561066557634e487b7160e01b600052604160045260246000fd5b604052610671836105f7565b815261067f602084016105f7565b602082015261069060408401610607565b6040820152606083015160608201526080830151608082015260a083015160a08201526106bf60c08401610612565b60c08201529392505050565b634e487b7160e01b600052603260045260246000fdfe60c0604052600080546001600160601b031916905534801561002057600080fd5b5060405161160e38038061160e83398101604081905261003f91610072565b6001600160a01b039182166080521660a0526100a5565b80516001600160a01b038116811461006d57600080fd5b919050565b6000806040838503121561008557600080fd5b61008e83610056565b915061009c60208401610056565b90509250929050565b60805160a0516115146100fa6000396000818161035f01528181610449015281816110870152611279015260008181609d01528181610c7b01528181610dc901528181610ee80152610fee01526115146000f3fe608060405234801561001057600080fd5b50600436106100935760003560e01c80636c538552116100665780636c5385521461024c5780638a44b056146102fe578063c2e4f26414610326578063c4ccb40a14610347578063d21220a71461035a57600080fd5b80630dfe16811461009857806352616c04146100dc5780635662ecc71461020e57806365c45ee314610239575b600080fd5b6100bf7f000000000000000000000000000000000000000000000000000000000000000081565b6040516001600160a01b0390911681526020015b60405180910390f35b6101a46100ea3660046113a9565b6040805160e081018252600080825260208201819052918101829052606081018290526080810182905260a0810182905260c0810191909152506001600160601b03908116600090815260016020818152604092839020835160e08101855281548087168252600160601b900490951691850191909152908101546001600160a01b0316918301919091526002810154606083015260038101546080830152600481015460a08301526005015460ff16151560c082015290565b6040516100d3919081516001600160601b039081168252602080840151909116908201526040808301516001600160a01b031690820152606080830151908201526080808301519082015260a0808301519082015260c09182015115159181019190915260e00190565b600054610221906001600160601b031681565b6040516001600160601b0390911681526020016100d3565b6102216102473660046113c4565b610381565b6102ae61025a3660046113a9565b60016020819052600091825260409091208054918101546002820154600383015460048401546005909401546001600160601b0380871696600160601b900416946001600160a01b03909416939060ff1687565b604080516001600160601b0398891681529790961660208801526001600160a01b03909416948601949094526060850191909152608084015260a0830191909152151560c082015260e0016100d3565b61031161030c3660046113f9565b610c05565b604080519283526020830191909152016100d3565b6103396103343660046113a9565b611106565b6040519081526020016100d3565b600254610221906001600160601b031681565b6100bf7f000000000000000000000000000000000000000000000000000000000000000081565b60008084116103d75760405162461bcd60e51b815260206004820152601a60248201527f746f6b656e496e20616d6f756e742063616e6e6f74206265203000000000000060448201526064015b60405180910390fd5b600083116104275760405162461bcd60e51b815260206004820152601b60248201527f746f6b656e4f757420616d6f756e742063616e6e6f742062652030000000000060448201526064016103ce565b6040516323b872dd60e01b8152336004820152306024820152604481018590527f00000000000000000000000000000000000000000000000000000000000000006001600160a01b0316906323b872dd906064016020604051808303816000875af115801561049a573d6000803e3d6000fd5b505050506040513d601f19601f820116820180604052508101906104be919061141b565b506000805481906104d7906001600160601b0316611453565b91906101000a8154816001600160601b0302191690836001600160601b0316021790559050600260009054906101000a90046001600160601b03166001600160601b0316600003610607576040805160e0810182526000808252602080830182815233848601908152606085018a8152608086018a815260a0870186815260c088018781526001600160601b038b8116808a526001988990529a9098209851895496518916600160601b026001600160c01b0319909716981697909717949094178755915193860180546001600160a01b03959095166001600160a01b03199095169490941790935591516002808601919091559151600385015551600484015590516005909201805492151560ff199093169290921790915580546001600160601b0319169091179055610bfe565b816001600160601b031660000361078e57600280546001600160601b031660009081526001602052604090209081015460038201548590610649908890611479565b6106539190611496565b116106a05760405162461bcd60e51b815260206004820152601a60248201527f796f7572207072696365206d757374203e20746f704f7264657200000000000060448201526064016103ce565b80546001600160601b038084166001600160601b031992831681179093556040805160e0810182526000808252600280548516602080850191825233858701908152606086018e8152608087018e815260a0880187815260c089018881528d8952600195869052999097209751885495518b16600160601b026001600160c01b03199096169a16999099179390931786555190850180546001600160a01b03929092166001600160a01b031990921691909117905551838201559351600383015551600482015590516005909101805491151560ff1990921691909117905580549091169091179055610bfe565b6001600160601b0382166000908152600160208190526040909120908101546001600160a01b03166108025760405162461bcd60e51b815260206004820152601860248201527f6265666f72654f72646572206973206e6f74206578697374000000000000000060448201526064016103ce565b600581015460ff16156108575760405162461bcd60e51b815260206004820152601c60248201527f6265666f72654f726465722069732072656d6f76656428646f6e65290000000060448201526064016103ce565b80600201548486836003015461086d9190611479565b6108779190611496565b11156108c55760405162461bcd60e51b815260206004820152601e60248201527f796f7572207072696365206d757374203c3d206265666f72654f72646572000060448201526064016103ce565b8054600160601b90046001600160601b03166000036109c4578054600160601b600160c01b031916600160601b6001600160601b03848116828102939093179093556040805160e08101825286851681526000602080830182815233848601908152606085018d8152608086018d815260a0870186815260c088018781529a875260019586905297909520955186549351908b166001600160c01b03199094169390931792909916909602178355935193820180546001600160a01b0319166001600160a01b03909516949094179093559351600285015590516003840155516004830155516005909101805460ff1916911515919091179055610bfe565b8054600160601b90046001600160601b03166000908152600160208190526040909120908101546001600160a01b0316610a405760405162461bcd60e51b815260206004820152601760248201527f61667465724f72646572206973206e6f7420657869737400000000000000000060448201526064016103ce565b600581015460ff1615610a955760405162461bcd60e51b815260206004820152601b60248201527f61667465724f726465722069732072656d6f76656428646f6e6529000000000060448201526064016103ce565b806002015485878360030154610aab9190611479565b610ab59190611496565b11610b025760405162461bcd60e51b815260206004820152601c60248201527f796f7572207072696365206d757374203e2061667465724f726465720000000060448201526064016103ce565b6040805160e0810182526001600160601b0386811682528454600160601b908190048216602080850191825233858701908152606086018d8152608087018d8152600060a0890181815260c08a018281528e8a168084526001978890529b90922099518a549751908a166001600160c01b031990981697909717969098168702959095178855915192870180546001600160a01b0319166001600160a01b0390941693909317909255905160028601555160038501559151600484015590516005909201805460ff1916921515929092179091558354600160601b600160c01b0319169082021790925580546001600160601b03191690911790555b9392505050565b60025460009081906001600160601b03168103610c595760405162461bcd60e51b81526020600482015260126024820152716275794f726465727320697320656d70747960701b60448201526064016103ce565b6040516323b872dd60e01b8152336004820152306024820152604481018590527f00000000000000000000000000000000000000000000000000000000000000006001600160a01b0316906323b872dd906064016020604051808303816000875af1158015610ccc573d6000803e3d6000fd5b505050506040513d601f19601f82011682018060405250810190610cf0919061141b565b50835b6002546001600160601b031615610f6b57600280546001600160601b031660009081526001602052604081209182015460038301546004840154610d379190611479565b610d419190611496565b8260030154610d5091906114b8565b9050808310610e7557610d6381846114b8565b925081600401548260020154610d7991906114b8565b610d8390856114cb565b9350610d8e826112f0565b6002820154600480840191909155600183015460405163a9059cbb60e01b81526001600160a01b0391821692810192909252602482018390527f0000000000000000000000000000000000000000000000000000000000000000169063a9059cbb906044016020604051808303816000875af1158015610e12573d6000803e3d6000fd5b505050506040513d601f19601f82011682018060405250810190610e36919061141b565b5060058201805460ff191660011790558154600280546001600160601b0319166001600160601b03600160601b90930492909216919091179055610f64565b60008260030154836002015485610e8c9190611479565b610e969190611496565b9050610ea281866114cb565b945080836004016000828254610eb891906114cb565b9091555050600183015460405163a9059cbb60e01b81526001600160a01b039182166004820152602481018690527f00000000000000000000000000000000000000000000000000000000000000009091169063a9059cbb906044016020604051808303816000875af1158015610f33573d6000803e3d6000fd5b505050506040513d601f19601f82011682018060405250810190610f57919061141b565b5060009350505050610f6b565b5050610cf3565b610f7581866114b8565b925081610f828486611479565b610f8c9190611496565b851015610fcc5760405162461bcd60e51b815260206004820152600e60248201526d1c1c9a58d9481b9bdd0819dbdbd960921b60448201526064016103ce565b80156110655760405163a9059cbb60e01b8152336004820152602481018290527f00000000000000000000000000000000000000000000000000000000000000006001600160a01b03169063a9059cbb906044016020604051808303816000875af115801561103f573d6000803e3d6000fd5b505050506040513d601f19601f82011682018060405250810190611063919061141b565b505b81156110fe5760405163a9059cbb60e01b8152336004820152602481018390527f00000000000000000000000000000000000000000000000000000000000000006001600160a01b03169063a9059cbb906044016020604051808303816000875af11580156110d8573d6000803e3d6000fd5b505050506040513d601f19601f820116820180604052508101906110fc919061141b565b505b509250929050565b6001600160601b03811660009081526001602081905260408220908101546001600160a01b0316331461117b5760405162461bcd60e51b815260206004820152601e60248201527f796f7520617265206e6f74206f776e6572206f6620746865206f72646572000060448201526064016103ce565b600581015460ff16156111db5760405162461bcd60e51b815260206004820152602260248201527f746865206f7264657220697320616c72656164792072656d6f76656428646f6e604482015261652960f01b60648201526084016103ce565b6111e4816112f0565b6002546001600160601b0380851691160361122357805460028054600160601b9092046001600160601b03166001600160601b03199092169190911790555b60058101805460ff191660011790556004810154600282015461124691906114b8565b915081156112ea57600181015460405163a9059cbb60e01b81526001600160a01b039182166004820152602481018490527f00000000000000000000000000000000000000000000000000000000000000009091169063a9059cbb906044016020604051808303816000875af11580156112c4573d6000803e3d6000fd5b505050506040513d601f19601f820116820180604052508101906112e8919061141b565b505b50919050565b80546001600160601b03161561133d5780546001600160601b0380821660009081526001602052604090208054600160601b600160c01b031916600160601b938490049092169092021790555b8054600160601b90046001600160601b03161561138a578054600160601b81046001600160601b03908116600090815260016020526040902080546001600160601b031916919092161790555b50565b80356001600160601b03811681146113a457600080fd5b919050565b6000602082840312156113bb57600080fd5b610bfe8261138d565b6000806000606084860312156113d957600080fd5b83359250602084013591506113f06040850161138d565b90509250925092565b6000806040838503121561140c57600080fd5b50508035926020909101359150565b60006020828403121561142d57600080fd5b81518015158114610bfe57600080fd5b634e487b7160e01b600052601160045260246000fd5b60006001600160601b0380831681810361146f5761146f61143d565b6001019392505050565b80820281158282048414176114905761149061143d565b92915050565b6000826114b357634e487b7160e01b600052601260045260246000fd5b500490565b818103818111156114905761149061143d565b808201808211156114905761149061143d56fea264697066735822122021bb52da92140679c3a63937cef3ddc4399bae2bca7c1e5a9b2934167896725664736f6c63430008180033a2646970667358221220dfb596db68e81d78b8c1a35f87c5f011bb5104af5ea4822bb6a9f3f2e205898964736f6c63430008180033",
  "linkReferences": {},
  "deployedLinkReferences": {}
}