{
  "_format": "hh-sol-artifact-1",
  "contractName": "MonoTradeV2",
  "sourceName": "contracts/v2/MonoTradeV2.sol",
  "abi": [
    {
      "inputs": [
        {
          "internalType": "address",
          "name": "_token0",
          "type": "address"
        },
        {
          "internalType": "address",
          "name": "_token1",
          "type": "address"
        },
        {
          "internalType": "uint8",
          "name": "_fee",
          "type": "uint8"
        }
      ],
      "stateMutability": "nonpayable",
      "type": "constructor"
    },
    {
      "anonymous": false,
      "inputs": [
        {
          "indexed": true,
          "internalType": "uint48",
          "name": "orderId",
          "type": "uint48"
        }
      ],
      "name": "CancelOrder",
      "type": "event"
    },
    {
      "anonymous": false,
      "inputs": [
        {
          "indexed": true,
          "internalType": "uint48",
          "name": "orderId",
          "type": "uint48"
        },
        {
          "indexed": false,
          "internalType": "uint256",
          "name": "token1In",
          "type": "uint256"
        },
        {
          "indexed": false,
          "internalType": "uint256",
          "name": "token0Out",
          "type": "uint256"
        }
      ],
      "name": "MakeOrder",
      "type": "event"
    },
    {
      "anonymous": false,
      "inputs": [
        {
          "indexed": false,
          "internalType": "uint256",
          "name": "token0Paid",
          "type": "uint256"
        },
        {
          "indexed": false,
          "internalType": "uint256",
          "name": "token1Gain",
          "type": "uint256"
        }
      ],
      "name": "TakeOrder",
      "type": "event"
    },
    {
      "inputs": [],
      "name": "count",
      "outputs": [
        {
          "internalType": "uint48",
          "name": "",
          "type": "uint48"
        }
      ],
      "stateMutability": "view",
      "type": "function"
    },
    {
      "inputs": [],
      "name": "factory",
      "outputs": [
        {
          "internalType": "address",
          "name": "",
          "type": "address"
        }
      ],
      "stateMutability": "view",
      "type": "function"
    },
    {
      "inputs": [],
      "name": "fee",
      "outputs": [
        {
          "internalType": "uint8",
          "name": "",
          "type": "uint8"
        }
      ],
      "stateMutability": "view",
      "type": "function"
    },
    {
      "inputs": [
        {
          "internalType": "uint64",
          "name": "amountDec",
          "type": "uint64"
        },
        {
          "internalType": "uint8",
          "name": "decimals",
          "type": "uint8"
        }
      ],
      "name": "from6Decimals",
      "outputs": [
        {
          "internalType": "uint256",
          "name": "amount",
          "type": "uint256"
        }
      ],
      "stateMutability": "pure",
      "type": "function"
    },
    {
      "inputs": [
        {
          "internalType": "uint48",
          "name": "orderId",
          "type": "uint48"
        }
      ],
      "name": "getOrder",
      "outputs": [
        {
          "components": [
            {
              "internalType": "uint48",
              "name": "beforeOrderId",
              "type": "uint48"
            },
            {
              "internalType": "uint48",
              "name": "afterOrderId",
              "type": "uint48"
            },
            {
              "internalType": "address",
              "name": "owner",
              "type": "address"
            },
            {
              "internalType": "uint64",
              "name": "amountIn",
              "type": "uint64"
            },
            {
              "internalType": "uint64",
              "name": "amountOut",
              "type": "uint64"
            },
            {
              "internalType": "uint64",
              "name": "amountInCost",
              "type": "uint64"
            },
            {
              "internalType": "uint64",
              "name": "amountOutFilled",
              "type": "uint64"
            }
          ],
          "internalType": "struct MonoTradeV2.Order",
          "name": "",
          "type": "tuple"
        }
      ],
      "stateMutability": "view",
      "type": "function"
    },
    {
      "inputs": [
        {
          "internalType": "uint256",
          "name": "token1In",
          "type": "uint256"
        },
        {
          "internalType": "uint256",
          "name": "token0Out",
          "type": "uint256"
        },
        {
          "internalType": "uint48",
          "name": "beforeOrderId",
          "type": "uint48"
        }
      ],
      "name": "makeOrder",
      "outputs": [
        {
          "internalType": "uint48",
          "name": "",
          "type": "uint48"
        }
      ],
      "stateMutability": "nonpayable",
      "type": "function"
    },
    {
      "inputs": [
        {
          "internalType": "uint48",
          "name": "",
          "type": "uint48"
        }
      ],
      "name": "orders",
      "outputs": [
        {
          "internalType": "uint48",
          "name": "beforeOrderId",
          "type": "uint48"
        },
        {
          "internalType": "uint48",
          "name": "afterOrderId",
          "type": "uint48"
        },
        {
          "internalType": "address",
          "name": "owner",
          "type": "address"
        },
        {
          "internalType": "uint64",
          "name": "amountIn",
          "type": "uint64"
        },
        {
          "internalType": "uint64",
          "name": "amountOut",
          "type": "uint64"
        },
        {
          "internalType": "uint64",
          "name": "amountInCost",
          "type": "uint64"
        },
        {
          "internalType": "uint64",
          "name": "amountOutFilled",
          "type": "uint64"
        }
      ],
      "stateMutability": "view",
      "type": "function"
    },
    {
      "inputs": [
        {
          "internalType": "uint256",
          "name": "token0In",
          "type": "uint256"
        },
        {
          "internalType": "uint256",
          "name": "token1ForPrice",
          "type": "uint256"
        }
      ],
      "name": "takeOrder",
      "outputs": [
        {
          "internalType": "uint256",
          "name": "token0Paid",
          "type": "uint256"
        },
        {
          "internalType": "uint256",
          "name": "token1Gain",
          "type": "uint256"
        },
        {
          "internalType": "uint256",
          "name": "token0Fee",
          "type": "uint256"
        }
      ],
      "stateMutability": "nonpayable",
      "type": "function"
    },
    {
      "inputs": [
        {
          "internalType": "uint256",
          "name": "amount",
          "type": "uint256"
        },
        {
          "internalType": "uint8",
          "name": "decimals",
          "type": "uint8"
        }
      ],
      "name": "to6Decimals",
      "outputs": [
        {
          "internalType": "uint64",
          "name": "amountDec",
          "type": "uint64"
        }
      ],
      "stateMutability": "pure",
      "type": "function"
    },
    {
      "inputs": [],
      "name": "token0",
      "outputs": [
        {
          "internalType": "address",
          "name": "",
          "type": "address"
        }
      ],
      "stateMutability": "view",
      "type": "function"
    },
    {
      "inputs": [],
      "name": "token0Decimals",
      "outputs": [
        {
          "internalType": "uint8",
          "name": "",
          "type": "uint8"
        }
      ],
      "stateMutability": "view",
      "type": "function"
    },
    {
      "inputs": [],
      "name": "token1",
      "outputs": [
        {
          "internalType": "address",
          "name": "",
          "type": "address"
        }
      ],
      "stateMutability": "view",
      "type": "function"
    },
    {
      "inputs": [],
      "name": "token1Decimals",
      "outputs": [
        {
          "internalType": "uint8",
          "name": "",
          "type": "uint8"
        }
      ],
      "stateMutability": "view",
      "type": "function"
    },
    {
      "inputs": [],
      "name": "topOrderId",
      "outputs": [
        {
          "internalType": "uint48",
          "name": "",
          "type": "uint48"
        }
      ],
      "stateMutability": "view",
      "type": "function"
    }
  ],
  "bytecode": "0x6101406040526000805465ffffffffffff191690553480156200002157600080fd5b50604051620022293803806200222983398101604081905262000044916200017a565b6001600160a01b03808416608081905290831660c05260ff82166101205233610100526040805163313ce56760e01b8152905163313ce567916004808201926020929091908290030181865afa158015620000a3573d6000803e3d6000fd5b505050506040513d601f19601f82011682018060405250810190620000c99190620001c4565b60ff1660a08160ff1681525050816001600160a01b031663313ce5676040518163ffffffff1660e01b8152600401602060405180830381865afa15801562000115573d6000803e3d6000fd5b505050506040513d601f19601f820116820180604052508101906200013b9190620001c4565b60ff1660e05250620001e9915050565b80516001600160a01b03811681146200016357600080fd5b919050565b805160ff811681146200016357600080fd5b6000806000606084860312156200019057600080fd5b6200019b846200014b565b9250620001ab602085016200014b565b9150620001bb6040850162000168565b90509250925092565b600060208284031215620001d757600080fd5b620001e28262000168565b9392505050565b60805160a05160c05160e0516101005161012051611f56620002d3600039600081816104c20152610af1015260008181610474015281816109fd01528181610a2d0152610a530152600081816101220152818161055301528181610bb001528181610cdd01528181610e2b015261182301526000818161049b01528181610be30152610e5901526000818161044d0152818161052501528181610600015281816107ff0152818161097a015281816109c901528181610b7701528181610d0b015261184d01526000818161015b0152818161062e0152818161082d0152610b360152611f566000f3fe608060405234801561001057600080fd5b50600436106100ea5760003560e01c806399a3bd231161008c578063c45a015511610066578063c45a01551461046f578063d21220a714610496578063ddca3f43146104bd578063e5434843146104e457600080fd5b806399a3bd2314610415578063af778f2d14610427578063b31ac6e21461044857600080fd5b80632784e815116100c85780632784e815146101955780632eab93cb146102645780636c62ed8e146102925780637ce219aa146102bd57600080fd5b806306661abd146100ef5780630b77884d1461011d5780630dfe168114610156575b600080fd5b6000546101019065ffffffffffff1681565b60405165ffffffffffff90911681526020015b60405180910390f35b6101447f000000000000000000000000000000000000000000000000000000000000000081565b60405160ff9091168152602001610114565b61017d7f000000000000000000000000000000000000000000000000000000000000000081565b6040516001600160a01b039091168152602001610114565b61020c6101a3366004611b9f565b6001602081905260009182526040909120805491015465ffffffffffff80831692600160301b810490911691600160601b9091046001600160a01b0316906001600160401b0380821691600160401b8104821691600160801b8204811691600160c01b90041687565b6040805165ffffffffffff98891681529790961660208801526001600160a01b03909416948601949094526001600160401b0391821660608601528116608085015291821660a08401521660c082015260e001610114565b610277610272366004611bba565b6104f7565b60408051938452602084019290925290820152606001610114565b6102a56102a0366004611bed565b610c51565b6040516001600160401b039091168152602001610114565b61039b6102cb366004611b9f565b6040805160e081018252600080825260208201819052918101829052606081018290526080810182905260a0810182905260c08101919091525065ffffffffffff908116600090815260016020818152604092839020835160e08101855281548087168252600160301b810490961692810192909252600160601b9094046001600160a01b03169281019290925291909101546001600160401b038082166060840152600160401b820481166080840152600160801b8204811660a0840152600160c01b9091041660c082015290565b6040516101149190815165ffffffffffff9081168252602080840151909116908201526040808301516001600160a01b0316908201526060808301516001600160401b039081169183019190915260808084015182169083015260a08084015182169083015260c092830151169181019190915260e00190565b6002546101019065ffffffffffff1681565b61043a610435366004611c19565b610c8e565b604051908152602001610114565b6101447f000000000000000000000000000000000000000000000000000000000000000081565b61017d7f000000000000000000000000000000000000000000000000000000000000000081565b61017d7f000000000000000000000000000000000000000000000000000000000000000081565b6101447f000000000000000000000000000000000000000000000000000000000000000081565b6101016104f2366004611c51565b610cd4565b6002546000908190819065ffffffffffff16810361051d57506000915081905080610c4a565b6000610549867f0000000000000000000000000000000000000000000000000000000000000000610c51565b90506000610577867f0000000000000000000000000000000000000000000000000000000000000000610c51565b90506000826001600160401b0316116105f55760405162461bcd60e51b815260206004820152603560248201527f4d6f6e6f54726164653a2074616b654f726465723a3a20746f6b656e30496e446044820152740656320616d6f756e742063616e6e6f74206265203605c1b60648201526084015b60405180910390fd5b6106563330610624857f0000000000000000000000000000000000000000000000000000000000000000610c8e565b6001600160a01b037f0000000000000000000000000000000000000000000000000000000000000000169291906118a2565b8160005b60025465ffffffffffff16156109b15760025465ffffffffffff166000908152600160208190526040909120908101546106a490600160401b90046001600160401b031685611c9c565b60018201546001600160401b03918216916106c0911687611c9c565b6001600160401b031610156106d557506109b1565b60018101546000906001600160401b0380821691600160401b810482169161070591600160801b90041683611cc7565b61070f9190611c9c565b6107199190611d04565b9050806001600160401b0316846001600160401b0316106108885761073e8185611cc7565b6001830154909450610762906001600160401b03600160801b820481169116611cc7565b61076c9084611d2a565b9250610777826119d2565b60018201805467ffffffffffffffff60801b1981166001600160401b03918216600160801b02178083558392916018916107ba918591600160c01b900416611d2a565b92506101000a8154816001600160401b0302191690836001600160401b0316021790555061085482600001600c9054906101000a90046001600160a01b0316610823837f0000000000000000000000000000000000000000000000000000000000000000610c8e565b6001600160a01b037f0000000000000000000000000000000000000000000000000000000000000000169190611a69565b815465ffffffffffff1990811665ffffffffffff90811780855560028054909316600160301b9091049091161790556109aa565b60018201546000906001600160401b03600160401b82048116916108ad911687611c9c565b6108b79190611d04565b90506108c38185611d2a565b9350808360010160108282829054906101000a90046001600160401b03166108eb9190611d2a565b92506101000a8154816001600160401b0302191690836001600160401b03160217905550848360010160188282829054906101000a90046001600160401b03166109359190611d2a565b92506101000a8154816001600160401b0302191690836001600160401b0316021790555061099e83600001600c9054906101000a90046001600160a01b0316610823877f0000000000000000000000000000000000000000000000000000000000000000610c8e565b600094505050506109b1565b505061065a565b6109ed6109be8386611cc7565b6001600160401b03167f0000000000000000000000000000000000000000000000000000000000000000610c51565b6001600160401b031696506000807f00000000000000000000000000000000000000000000000000000000000000006001600160a01b03163b11610a51577f0000000000000000000000000000000000000000000000000000000000000000610ad5565b7f00000000000000000000000000000000000000000000000000000000000000006001600160a01b031663017e7e586040518163ffffffff1660e01b81526004016020604051808303816000875af1158015610ab1573d6000803e3d6000fd5b505050506040513d601f19601f82011682018060405250810190610ad59190611d4a565b9050336001600160a01b03821614610b5e57612710610b1760ff7f0000000000000000000000000000000000000000000000000000000000000000168a611d73565b610b219190611d8a565b95508515610b5e57610b5e6001600160a01b037f0000000000000000000000000000000000000000000000000000000000000000163383896118a2565b6001600160401b03831615610b9b57610b9b33610823857f0000000000000000000000000000000000000000000000000000000000000000610c8e565b6001600160401b03821615610c4457610bd4827f0000000000000000000000000000000000000000000000000000000000000000610c8e565b9650610c0a6001600160a01b037f0000000000000000000000000000000000000000000000000000000000000000163389611a69565b60408051898152602081018990527f02c46cdd281fee18d15d9a50e01f56cfcb751e18de8353900feccd29e09b6534910160405180910390a15b50505050505b9250925092565b600060068260ff1611610c65575081610c88565b610c70600683611d9e565b610c7b90600a611e9b565b610c859084611d8a565b90505b92915050565b600060068260ff1611610cab57506001600160401b038216610c88565b610cb6600683611d9e565b610cc190600a611e9b565b610c85906001600160401b038516611d73565b600080610d01857f0000000000000000000000000000000000000000000000000000000000000000610c51565b90506000610d2f857f0000000000000000000000000000000000000000000000000000000000000000610c51565b90506000826001600160401b031611610da85760405162461bcd60e51b815260206004820152603560248201527f4d6f6e6f54726164653a206d616b654f726465723a3a20746f6b656e31496e446044820152740656320616d6f756e742063616e6e6f74206265203605c1b60648201526084016105ec565b6000816001600160401b031611610e205760405162461bcd60e51b815260206004820152603660248201527f4d6f6e6f54726164653a206d616b654f726465723a3a20746f6b656e304f7574604482015275044656320616d6f756e742063616e6e6f7420626520360541b60648201526084016105ec565b610e813330610e4f857f0000000000000000000000000000000000000000000000000000000000000000610c8e565b6001600160a01b037f0000000000000000000000000000000000000000000000000000000000000000169291906118a2565b600080548190610e989065ffffffffffff16611eaa565b82546101009290920a65ffffffffffff81810219909316918316021790915560025416600003610fed576040805160e08101825260008082526020808301828152338486019081526001600160401b03978816606086019081529688166080860190815260a0860185815260c08701868152865465ffffffffffff908116885260019687905298872097518854955194516001600160a01b0316600160601b026001600160601b03958b16600160301b026001600160601b0319909716918b1691909117959095179390931693909317865596519490920180549651915192518816600160c01b026001600160c01b03938916600160801b02939093166001600160801b03928916600160401b026001600160801b031990981695909816949094179590951794909416949094179290921790915590546002805465ffffffffffff191691909216908117909155905061189b565b8365ffffffffffff166000036111f85760025465ffffffffffff166000908152600160208190526040909120908101546110319083906001600160401b0316611c9c565b60018201546001600160401b0391821691611056918691600160401b90910416611c9c565b6001600160401b0316116110c65760405162461bcd60e51b815260206004820152603160248201527f4d6f6e6f54726164653a206d616b654f726465723a3a20796f75722070726963604482015270329036bab9ba101f103a37b827b93232b960791b60648201526084016105ec565b60008054825465ffffffffffff1990811665ffffffffffff928316179093556040805160e0810182528381526002805484166020808401918252338486019081526001600160401b039a8b1660608601908152998b166080860190815260a0860189815260c087018a81528a548a168b52600194859052978a2096518754955193516001600160a01b0316600160601b026001600160601b03948b16600160301b026001600160601b0319909716918b169190911795909517929092169390931785559851930180549151985194518a16600160c01b026001600160c01b03958b16600160801b02959095166001600160801b03998b16600160401b026001600160801b031990931694909a16939093171796909616969096171790945554825490911692169182179055905061189b565b65ffffffffffff8416600090815260016020819052604082209081015490916001600160401b0390911690036112885760405162461bcd60e51b815260206004820152602f60248201527f4d6f6e6f54726164653a206d616b654f726465723a3a206265666f72654f726460448201526e195c881a5cc81b9bdd08195e1a5cdd608a1b60648201526084016105ec565b805465ffffffffffff1665fffffffffffe19016113035760405162461bcd60e51b815260206004820152603360248201527f4d6f6e6f54726164653a206d616b654f726465723a3a206265666f72654f726460448201527265722069732072656d6f76656428646f6e652960681b60648201526084016105ec565b600181015461131c9083906001600160401b0316611c9c565b60018201546001600160401b0391821691611341918691600160401b90910416611c9c565b6001600160401b031611156113b65760405162461bcd60e51b815260206004820152603560248201527f4d6f6e6f54726164653a206d616b654f726465723a3a20796f75722070726963604482015274329036bab9ba101e1e903132b337b932a7b93232b960591b60648201526084016105ec565b8054600160301b900465ffffffffffff166000036114fd57600080548254600160301b65ffffffffffff928316810265ffffffffffff60301b19909216919091179093556040805160e08101825288831681526020808201858152338385019081526001600160401b03998a1660608501908152988a166080850190815260a0850188815260c08601898152895489168a5260019586905296892095518654945193516001600160a01b0316600160601b026001600160601b03948a16909b026001600160601b03199095169089161793909317919091169790971783559651910180549551965192518816600160c01b026001600160c01b03938916600160801b02939093166001600160801b03978916600160401b026001600160801b031990971692909816919091179490941794909416949094179290921790555416905061189b565b8054600160301b900465ffffffffffff16600090815260016020819052604082209081015490916001600160401b0390911690036115945760405162461bcd60e51b815260206004820152602e60248201527f4d6f6e6f54726164653a206d616b654f726465723a3a2061667465724f72646560448201526d1c881a5cc81b9bdd08195e1a5cdd60921b60648201526084016105ec565b805465ffffffffffff1665fffffffffffe19016116085760405162461bcd60e51b815260206004820152602c60248201527f4d6f6e6f54726164653a206d616b654f726465723a3a2061667465724f72646560448201526b1c881a5cc81c995b5bdd995960a21b60648201526084016105ec565b60018101546116219084906001600160401b0316611c9c565b60018201546001600160401b0391821691611646918791600160401b90910416611c9c565b6001600160401b0316116116b85760405162461bcd60e51b815260206004820152603360248201527f4d6f6e6f54726164653a206d616b654f726465723a3a20796f75722070726963604482015272329036bab9ba101f1030b33a32b927b93232b960691b60648201526084016105ec565b6040805160e08101825265ffffffffffff80891682528454600160301b9081900482166020808501918252338587019081526001600160401b03808c16606088019081528b821660808901908152600060a08a0181815260c08b0182815282548b1683526001978890529b82209a518b54985196516001600160a01b0316600160601b026001600160601b03978c168b026001600160601b0319909a16918c1691909117989098179590951696909617895590519790930180549351925198518216600160c01b026001600160c01b03998316600160801b02999099166001600160801b03938316600160401b026001600160801b03199095169890921697909717929092171617949094179092558254855490821690920265ffffffffffff60301b19929092169190911784558154835465ffffffffffff19169082161783559054167fea910122087cbf17285b27427f85b78f899146c9516d8de30e3d715d33f34078611847867f0000000000000000000000000000000000000000000000000000000000000000610c8e565b611871867f0000000000000000000000000000000000000000000000000000000000000000610c8e565b6040805192835260208301919091520160405180910390a2505060005465ffffffffffff16925050505b9392505050565b604080516001600160a01b0385811660248301528481166044830152606480830185905283518084039091018152608490920183526020820180516001600160e01b03166323b872dd60e01b17905291516000928392908816916119069190611ecf565b6000604051808303816000865af19150503d8060008114611943576040519150601f19603f3d011682016040523d82523d6000602084013e611948565b606091505b50915091508180156119725750805115806119725750808060200190518101906119729190611efe565b6119ca5760405162461bcd60e51b8152602060048201526024808201527f5472616e7366657248656c7065723a205452414e534645525f46524f4d5f46416044820152631253115160e21b60648201526084016105ec565b505050505050565b805465ffffffffffff1615611a1c57805465ffffffffffff8082166000908152600160205260409020805465ffffffffffff60301b1916600160301b938490049092169092021790555b8054600160301b900465ffffffffffff1615611a66578054600160301b810465ffffffffffff9081166000908152600160205260409020805465ffffffffffff1916919092161790555b50565b604080516001600160a01b038481166024830152604480830185905283518084039091018152606490920183526020820180516001600160e01b031663a9059cbb60e01b1790529151600092839290871691611ac59190611ecf565b6000604051808303816000865af19150503d8060008114611b02576040519150601f19603f3d011682016040523d82523d6000602084013e611b07565b606091505b5091509150818015611b31575080511580611b31575080806020019051810190611b319190611efe565b611b7d5760405162461bcd60e51b815260206004820152601f60248201527f5472616e7366657248656c7065723a205452414e534645525f4641494c45440060448201526064016105ec565b5050505050565b803565ffffffffffff81168114611b9a57600080fd5b919050565b600060208284031215611bb157600080fd5b610c8582611b84565b60008060408385031215611bcd57600080fd5b50508035926020909101359150565b803560ff81168114611b9a57600080fd5b60008060408385031215611c0057600080fd5b82359150611c1060208401611bdc565b90509250929050565b60008060408385031215611c2c57600080fd5b82356001600160401b0381168114611c4357600080fd5b9150611c1060208401611bdc565b600080600060608486031215611c6657600080fd5b8335925060208401359150611c7d60408501611b84565b90509250925092565b634e487b7160e01b600052601160045260246000fd5b6001600160401b03818116838216028082169190828114611cbf57611cbf611c86565b505092915050565b6001600160401b03828116828216039080821115611ce757611ce7611c86565b5092915050565b634e487b7160e01b600052601260045260246000fd5b60006001600160401b0380841680611d1e57611d1e611cee565b92169190910492915050565b6001600160401b03818116838216019080821115611ce757611ce7611c86565b600060208284031215611d5c57600080fd5b81516001600160a01b038116811461189b57600080fd5b8082028115828204841417610c8857610c88611c86565b600082611d9957611d99611cee565b500490565b60ff8281168282160390811115610c8857610c88611c86565b600181815b80851115611df2578160001904821115611dd857611dd8611c86565b80851615611de557918102915b93841c9390800290611dbc565b509250929050565b600082611e0957506001610c88565b81611e1657506000610c88565b8160018114611e2c5760028114611e3657611e52565b6001915050610c88565b60ff841115611e4757611e47611c86565b50506001821b610c88565b5060208310610133831016604e8410600b8410161715611e75575081810a610c88565b611e7f8383611db7565b8060001904821115611e9357611e93611c86565b029392505050565b6000610c8560ff841683611dfa565b600065ffffffffffff808316818103611ec557611ec5611c86565b6001019392505050565b6000825160005b81811015611ef05760208186018101518583015201611ed6565b506000920191825250919050565b600060208284031215611f1057600080fd5b8151801515811461189b57600080fdfea2646970667358221220142df9ad5644590aa4b422c4e74ef9bb4c83102a9242e41a4f775c25f2602e8264736f6c63430008180033",
  "linkReferences": {},
  "deployedLinkReferences": {}
}