{
  "_format": "hh-sol-artifact-1",
  "contractName": "PairReadHelp",
  "sourceName": "contracts/PairReadHelp.sol",
  "abi": [
    {
      "inputs": [],
      "stateMutability": "nonpayable",
      "type": "constructor"
    },
    {
      "inputs": [
        {
          "internalType": "address",
          "name": "pairAddr",
          "type": "address"
        },
        {
          "internalType": "uint48",
          "name": "fromOrderId",
          "type": "uint48"
        },
        {
          "internalType": "uint8",
          "name": "num",
          "type": "uint8"
        }
      ],
      "name": "getBuyList",
      "outputs": [
        {
          "components": [
            {
              "internalType": "uint48",
              "name": "orderId",
              "type": "uint48"
            },
            {
              "internalType": "address",
              "name": "owner",
              "type": "address"
            },
            {
              "internalType": "uint256",
              "name": "amountIn",
              "type": "uint256"
            },
            {
              "internalType": "uint256",
              "name": "amountOut",
              "type": "uint256"
            },
            {
              "internalType": "uint256",
              "name": "amountInUsed",
              "type": "uint256"
            },
            {
              "internalType": "bool",
              "name": "isDone",
              "type": "bool"
            }
          ],
          "internalType": "struct PairReadHelp.Order[]",
          "name": "",
          "type": "tuple[]"
        }
      ],
      "stateMutability": "view",
      "type": "function"
    },
    {
      "inputs": [
        {
          "internalType": "address",
          "name": "pairAddr",
          "type": "address"
        },
        {
          "internalType": "uint48",
          "name": "orderId",
          "type": "uint48"
        }
      ],
      "name": "getOrder",
      "outputs": [
        {
          "components": [
            {
              "internalType": "uint48",
              "name": "orderId",
              "type": "uint48"
            },
            {
              "internalType": "address",
              "name": "owner",
              "type": "address"
            },
            {
              "internalType": "uint256",
              "name": "amountIn",
              "type": "uint256"
            },
            {
              "internalType": "uint256",
              "name": "amountOut",
              "type": "uint256"
            },
            {
              "internalType": "uint256",
              "name": "amountInUsed",
              "type": "uint256"
            },
            {
              "internalType": "bool",
              "name": "isDone",
              "type": "bool"
            }
          ],
          "internalType": "struct PairReadHelp.Order",
          "name": "",
          "type": "tuple"
        }
      ],
      "stateMutability": "view",
      "type": "function"
    },
    {
      "inputs": [
        {
          "internalType": "address",
          "name": "pairAddr",
          "type": "address"
        },
        {
          "internalType": "uint48",
          "name": "fromOrderId",
          "type": "uint48"
        },
        {
          "internalType": "uint8",
          "name": "num",
          "type": "uint8"
        }
      ],
      "name": "getSellList",
      "outputs": [
        {
          "components": [
            {
              "internalType": "uint48",
              "name": "orderId",
              "type": "uint48"
            },
            {
              "internalType": "address",
              "name": "owner",
              "type": "address"
            },
            {
              "internalType": "uint256",
              "name": "amountIn",
              "type": "uint256"
            },
            {
              "internalType": "uint256",
              "name": "amountOut",
              "type": "uint256"
            },
            {
              "internalType": "uint256",
              "name": "amountInUsed",
              "type": "uint256"
            },
            {
              "internalType": "bool",
              "name": "isDone",
              "type": "bool"
            }
          ],
          "internalType": "struct PairReadHelp.Order[]",
          "name": "",
          "type": "tuple[]"
        }
      ],
      "stateMutability": "view",
      "type": "function"
    }
  ],
  "bytecode": "0x608060405234801561001057600080fd5b50610868806100206000396000f3fe608060405234801561001057600080fd5b50600436106100415760003560e01c806309d255b51461004657806378cfd70e1461006f578063d4092fa61461008f575b600080fd5b610059610054366004610620565b6100a2565b60405161006691906106a3565b60405180910390f35b61008261007d3660046106b1565b6101bc565b6040516100669190610702565b61008261009d3660046106b1565b61037e565b6100aa6105ab565b6040516339709d2f60e21b815265ffffffffffff8316600482015283906000906001600160a01b0383169063e5c274bc9060240160c060405180830381865afa1580156100fb573d6000803e3d6000fd5b505050506040513d601f19601f8201168201806040525081019061011f9190610781565b60408101519091506001600160a01b03166101a757604051632b9116eb60e21b815265ffffffffffff851660048201526001600160a01b0383169063ae445bac9060240160c060405180830381865afa158015610180573d6000803e3d6000fd5b505050506040513d601f19601f820116820180604052508101906101a49190610781565b90505b6101b18185610535565b925050505b92915050565b604051632b9116eb60e21b815265ffffffffffff8316600482015260609084906000906001600160a01b0383169063ae445bac9060240160c060405180830381865afa158015610210573d6000803e3d6000fd5b505050506040513d601f19601f820116820180604052508101906102349190610781565b905060008460ff1667ffffffffffffffff81111561025457610254610750565b60405190808252806020026020018201604052801561028d57816020015b61027a6105ab565b8152602001906001900390816102725790505b50905061029a8287610535565b816000815181106102ad576102ad61081c565b602090810291909101015260015b8560ff168160ff161015610373576020830151604051632b9116eb60e21b815265ffffffffffff821660048201526001600160a01b0386169063ae445bac9060240160c060405180830381865afa15801561031a573d6000803e3d6000fd5b505050506040513d601f19601f8201168201806040525081019061033e9190610781565b935061034a8482610535565b838360ff168151811061035f5761035f61081c565b6020908102919091010152506001016102bb565b509695505050505050565b6040516339709d2f60e21b815265ffffffffffff8316600482015260609084906000906001600160a01b0383169063e5c274bc9060240160c060405180830381865afa1580156103d2573d6000803e3d6000fd5b505050506040513d601f19601f820116820180604052508101906103f69190610781565b905060008460ff1667ffffffffffffffff81111561041657610416610750565b60405190808252806020026020018201604052801561044f57816020015b61043c6105ab565b8152602001906001900390816104345790505b50905061045c8287610535565b8160008151811061046f5761046f61081c565b602090810291909101015260015b8560ff168160ff1610156103735760208301516040516339709d2f60e21b815265ffffffffffff821660048201526001600160a01b0386169063e5c274bc9060240160c060405180830381865afa1580156104dc573d6000803e3d6000fd5b505050506040513d601f19601f820116820180604052508101906105009190610781565b935061050c8482610535565b838360ff16815181106105215761052161081c565b60209081029190910101525060010161047d565b61053d6105ab565b6040518060c001604052808365ffffffffffff16815260200184604001516001600160a01b0316815260200184606001518152602001846080015181526020018460a00151815260200165ffffffffffff8016856000015165ffffffffffff16141515815250905092915050565b6040518060c00160405280600065ffffffffffff16815260200160006001600160a01b031681526020016000815260200160008152602001600081526020016000151581525090565b6001600160a01b038116811461060957600080fd5b50565b65ffffffffffff8116811461060957600080fd5b6000806040838503121561063357600080fd5b823561063e816105f4565b9150602083013561064e8161060c565b809150509250929050565b805165ffffffffffff1682526020808201516001600160a01b03169083015260408082015190830152606080820151908301526080808201519083015260a0908101511515910152565b60c081016101b68284610659565b6000806000606084860312156106c657600080fd5b83356106d1816105f4565b925060208401356106e18161060c565b9150604084013560ff811681146106f757600080fd5b809150509250925092565b6020808252825182820181905260009190848201906040850190845b8181101561074457610731838551610659565b9284019260c0929092019160010161071e565b50909695505050505050565b634e487b7160e01b600052604160045260246000fd5b80516107718161060c565b919050565b8051610771816105f4565b600060c0828403121561079357600080fd5b60405160c0810181811067ffffffffffffffff821117156107c457634e487b7160e01b600052604160045260246000fd5b6040526107d083610766565b81526107de60208401610766565b60208201526107ef60408401610776565b6040820152606083015160608201526080830151608082015260a083015160a08201528091505092915050565b634e487b7160e01b600052603260045260246000fdfea26469706673582212207bca3e25ad351d1b5d5dcfbe6bfb9b4e24d5b6affd46ab96a02757edfff8ac5764736f6c63430008180033",
  "linkReferences": {},
  "deployedLinkReferences": {}
}