{
  "_format": "hh-sol-artifact-1",
  "contractName": "PairReadHelp",
  "sourceName": "contracts/PairReadHelp.sol",
  "abi": [
    {
      "inputs": [],
      "stateMutability": "nonpayable",
      "type": "constructor"
    },
    {
      "inputs": [
        {
          "internalType": "address",
          "name": "pairAddr",
          "type": "address"
        },
        {
          "internalType": "uint48",
          "name": "fromOrderId",
          "type": "uint48"
        },
        {
          "internalType": "uint8",
          "name": "num",
          "type": "uint8"
        }
      ],
      "name": "getBuyList",
      "outputs": [
        {
          "components": [
            {
              "internalType": "uint48",
              "name": "orderId",
              "type": "uint48"
            },
            {
              "internalType": "address",
              "name": "owner",
              "type": "address"
            },
            {
              "internalType": "uint256",
              "name": "amountIn",
              "type": "uint256"
            },
            {
              "internalType": "uint256",
              "name": "amountOut",
              "type": "uint256"
            },
            {
              "internalType": "uint256",
              "name": "amountInUsed",
              "type": "uint256"
            },
            {
              "internalType": "bool",
              "name": "isDone",
              "type": "bool"
            }
          ],
          "internalType": "struct PairReadHelp.Order[]",
          "name": "",
          "type": "tuple[]"
        }
      ],
      "stateMutability": "view",
      "type": "function"
    },
    {
      "inputs": [
        {
          "internalType": "address",
          "name": "pairAddr",
          "type": "address"
        },
        {
          "internalType": "uint48",
          "name": "orderId",
          "type": "uint48"
        }
      ],
      "name": "getOrder",
      "outputs": [
        {
          "components": [
            {
              "internalType": "uint48",
              "name": "orderId",
              "type": "uint48"
            },
            {
              "internalType": "address",
              "name": "owner",
              "type": "address"
            },
            {
              "internalType": "uint256",
              "name": "amountIn",
              "type": "uint256"
            },
            {
              "internalType": "uint256",
              "name": "amountOut",
              "type": "uint256"
            },
            {
              "internalType": "uint256",
              "name": "amountInUsed",
              "type": "uint256"
            },
            {
              "internalType": "bool",
              "name": "isDone",
              "type": "bool"
            }
          ],
          "internalType": "struct PairReadHelp.Order",
          "name": "",
          "type": "tuple"
        }
      ],
      "stateMutability": "view",
      "type": "function"
    }
  ],
  "bytecode": "0x608060405234801561001057600080fd5b5061060d806100206000396000f3fe608060405234801561001057600080fd5b50600436106100365760003560e01c806309d255b51461003b578063d4092fa614610064575b600080fd5b61004e6100493660046103c5565b610084565b60405161005b9190610448565b60405180910390f35b610077610072366004610456565b610118565b60405161005b91906104a7565b61008c610350565b6040516339709d2f60e21b815265ffffffffffff8316600482015283906000906001600160a01b0383169063e5c274bc9060240160c060405180830381865afa1580156100dd573d6000803e3d6000fd5b505050506040513d601f19601f820116820180604052508101906101019190610526565b905061010d81856102da565b925050505b92915050565b6040516339709d2f60e21b815265ffffffffffff8316600482015260609084906000906001600160a01b0383169063e5c274bc9060240160c060405180830381865afa15801561016c573d6000803e3d6000fd5b505050506040513d601f19601f820116820180604052508101906101909190610526565b905060008460ff1667ffffffffffffffff8111156101b0576101b06104f5565b6040519080825280602002602001820160405280156101e957816020015b6101d6610350565b8152602001906001900390816101ce5790505b5090506101f682876102da565b81600081518110610209576102096105c1565b602090810291909101015260015b8560ff168160ff1610156102cf5760208301516040516339709d2f60e21b815265ffffffffffff821660048201526001600160a01b0386169063e5c274bc9060240160c060405180830381865afa158015610276573d6000803e3d6000fd5b505050506040513d601f19601f8201168201806040525081019061029a9190610526565b93506102a684826102da565b838360ff16815181106102bb576102bb6105c1565b602090810291909101015250600101610217565b509695505050505050565b6102e2610350565b6040518060c001604052808365ffffffffffff16815260200184604001516001600160a01b0316815260200184606001518152602001846080015181526020018460a00151815260200165ffffffffffff8016856000015165ffffffffffff16141515815250905092915050565b6040518060c00160405280600065ffffffffffff16815260200160006001600160a01b031681526020016000815260200160008152602001600081526020016000151581525090565b6001600160a01b03811681146103ae57600080fd5b50565b65ffffffffffff811681146103ae57600080fd5b600080604083850312156103d857600080fd5b82356103e381610399565b915060208301356103f3816103b1565b809150509250929050565b805165ffffffffffff1682526020808201516001600160a01b03169083015260408082015190830152606080820151908301526080808201519083015260a0908101511515910152565b60c0810161011282846103fe565b60008060006060848603121561046b57600080fd5b833561047681610399565b92506020840135610486816103b1565b9150604084013560ff8116811461049c57600080fd5b809150509250925092565b6020808252825182820181905260009190848201906040850190845b818110156104e9576104d68385516103fe565b9284019260c092909201916001016104c3565b50909695505050505050565b634e487b7160e01b600052604160045260246000fd5b8051610516816103b1565b919050565b805161051681610399565b600060c0828403121561053857600080fd5b60405160c0810181811067ffffffffffffffff8211171561056957634e487b7160e01b600052604160045260246000fd5b6040526105758361050b565b81526105836020840161050b565b60208201526105946040840161051b565b6040820152606083015160608201526080830151608082015260a083015160a08201528091505092915050565b634e487b7160e01b600052603260045260246000fdfea2646970667358221220c2661f8231df742b39a773164255d3d4ec86553b58f840c28f7701821602241f64736f6c63430008180033",
  "linkReferences": {},
  "deployedLinkReferences": {}
}