{
  "_format": "hh-sol-artifact-1",
  "contractName": "TradeService",
  "sourceName": "contracts/v2/TradeService.sol",
  "abi": [
    {
      "inputs": [],
      "stateMutability": "nonpayable",
      "type": "constructor"
    },
    {
      "anonymous": false,
      "inputs": [
        {
          "indexed": true,
          "internalType": "address",
          "name": "previousOwner",
          "type": "address"
        },
        {
          "indexed": true,
          "internalType": "address",
          "name": "newOwner",
          "type": "address"
        }
      ],
      "name": "OwnershipTransferStarted",
      "type": "event"
    },
    {
      "anonymous": false,
      "inputs": [
        {
          "indexed": true,
          "internalType": "address",
          "name": "previousOwner",
          "type": "address"
        },
        {
          "indexed": true,
          "internalType": "address",
          "name": "newOwner",
          "type": "address"
        }
      ],
      "name": "OwnershipTransferred",
      "type": "event"
    },
    {
      "anonymous": false,
      "inputs": [
        {
          "indexed": true,
          "internalType": "address",
          "name": "tokenA",
          "type": "address"
        },
        {
          "indexed": true,
          "internalType": "address",
          "name": "tokenB",
          "type": "address"
        },
        {
          "indexed": false,
          "internalType": "address",
          "name": "tradeAB",
          "type": "address"
        },
        {
          "indexed": false,
          "internalType": "address",
          "name": "tradeBA",
          "type": "address"
        }
      ],
      "name": "PairCreated",
      "type": "event"
    },
    {
      "inputs": [],
      "name": "acceptOwnership",
      "outputs": [],
      "stateMutability": "nonpayable",
      "type": "function"
    },
    {
      "inputs": [
        {
          "internalType": "address",
          "name": "_feeTo",
          "type": "address"
        }
      ],
      "name": "changeFeeTo",
      "outputs": [],
      "stateMutability": "nonpayable",
      "type": "function"
    },
    {
      "inputs": [
        {
          "internalType": "address",
          "name": "token0",
          "type": "address"
        },
        {
          "internalType": "address",
          "name": "token1",
          "type": "address"
        }
      ],
      "name": "computeTradeAddr",
      "outputs": [
        {
          "internalType": "address",
          "name": "",
          "type": "address"
        }
      ],
      "stateMutability": "view",
      "type": "function"
    },
    {
      "inputs": [
        {
          "internalType": "address",
          "name": "tokenA",
          "type": "address"
        },
        {
          "internalType": "address",
          "name": "tokenB",
          "type": "address"
        }
      ],
      "name": "createPair",
      "outputs": [
        {
          "internalType": "address",
          "name": "tradeAB",
          "type": "address"
        },
        {
          "internalType": "address",
          "name": "tradeBA",
          "type": "address"
        }
      ],
      "stateMutability": "nonpayable",
      "type": "function"
    },
    {
      "inputs": [],
      "name": "fee",
      "outputs": [
        {
          "internalType": "uint8",
          "name": "",
          "type": "uint8"
        }
      ],
      "stateMutability": "view",
      "type": "function"
    },
    {
      "inputs": [],
      "name": "feeTo",
      "outputs": [
        {
          "internalType": "address",
          "name": "",
          "type": "address"
        }
      ],
      "stateMutability": "view",
      "type": "function"
    },
    {
      "inputs": [
        {
          "internalType": "address",
          "name": "tradeAddr",
          "type": "address"
        },
        {
          "internalType": "uint112",
          "name": "token1In",
          "type": "uint112"
        },
        {
          "internalType": "uint112",
          "name": "token0Out",
          "type": "uint112"
        },
        {
          "internalType": "uint48",
          "name": "findFromId",
          "type": "uint48"
        }
      ],
      "name": "findBeforeOrderId",
      "outputs": [
        {
          "internalType": "uint48",
          "name": "",
          "type": "uint48"
        }
      ],
      "stateMutability": "view",
      "type": "function"
    },
    {
      "inputs": [
        {
          "internalType": "address",
          "name": "tradeAddr",
          "type": "address"
        },
        {
          "internalType": "uint48",
          "name": "fromOrderId",
          "type": "uint48"
        },
        {
          "internalType": "uint8",
          "name": "num",
          "type": "uint8"
        }
      ],
      "name": "getOrderList",
      "outputs": [
        {
          "components": [
            {
              "internalType": "uint48",
              "name": "orderId",
              "type": "uint48"
            },
            {
              "internalType": "uint112",
              "name": "amountIn",
              "type": "uint112"
            },
            {
              "internalType": "uint112",
              "name": "amountOut",
              "type": "uint112"
            },
            {
              "internalType": "uint32",
              "name": "progress",
              "type": "uint32"
            }
          ],
          "internalType": "struct TradeService.ListOrder[]",
          "name": "",
          "type": "tuple[]"
        }
      ],
      "stateMutability": "view",
      "type": "function"
    },
    {
      "inputs": [
        {
          "internalType": "address",
          "name": "token0",
          "type": "address"
        },
        {
          "internalType": "address",
          "name": "token1",
          "type": "address"
        }
      ],
      "name": "getTrade",
      "outputs": [
        {
          "internalType": "address",
          "name": "",
          "type": "address"
        }
      ],
      "stateMutability": "view",
      "type": "function"
    },
    {
      "inputs": [
        {
          "internalType": "address",
          "name": "user",
          "type": "address"
        },
        {
          "internalType": "uint48",
          "name": "lastIndex",
          "type": "uint48"
        },
        {
          "internalType": "uint48",
          "name": "num",
          "type": "uint48"
        }
      ],
      "name": "getUserOrders",
      "outputs": [
        {
          "components": [
            {
              "internalType": "uint48",
              "name": "index",
              "type": "uint48"
            },
            {
              "internalType": "address",
              "name": "trade",
              "type": "address"
            },
            {
              "internalType": "address",
              "name": "token0",
              "type": "address"
            },
            {
              "internalType": "address",
              "name": "token1",
              "type": "address"
            },
            {
              "internalType": "uint48",
              "name": "orderId",
              "type": "uint48"
            },
            {
              "internalType": "uint32",
              "name": "createTime",
              "type": "uint32"
            },
            {
              "internalType": "uint112",
              "name": "amountIn",
              "type": "uint112"
            },
            {
              "internalType": "uint112",
              "name": "amountOut",
              "type": "uint112"
            },
            {
              "internalType": "uint32",
              "name": "progress",
              "type": "uint32"
            },
            {
              "internalType": "bool",
              "name": "isRemoved",
              "type": "bool"
            }
          ],
          "internalType": "struct TradeService.UserOrder[]",
          "name": "",
          "type": "tuple[]"
        }
      ],
      "stateMutability": "view",
      "type": "function"
    },
    {
      "inputs": [
        {
          "internalType": "address",
          "name": "tradeAddr",
          "type": "address"
        },
        {
          "internalType": "uint112",
          "name": "token1In",
          "type": "uint112"
        },
        {
          "internalType": "uint112",
          "name": "token0Out",
          "type": "uint112"
        },
        {
          "internalType": "uint48",
          "name": "beforeOrderId",
          "type": "uint48"
        }
      ],
      "name": "makeOrder",
      "outputs": [
        {
          "internalType": "uint48",
          "name": "newOrderId",
          "type": "uint48"
        }
      ],
      "stateMutability": "nonpayable",
      "type": "function"
    },
    {
      "inputs": [],
      "name": "owner",
      "outputs": [
        {
          "internalType": "address",
          "name": "",
          "type": "address"
        }
      ],
      "stateMutability": "view",
      "type": "function"
    },
    {
      "inputs": [],
      "name": "pendingOwner",
      "outputs": [
        {
          "internalType": "address",
          "name": "",
          "type": "address"
        }
      ],
      "stateMutability": "view",
      "type": "function"
    },
    {
      "inputs": [
        {
          "internalType": "address",
          "name": "tradeAddr",
          "type": "address"
        },
        {
          "internalType": "uint112",
          "name": "token0In",
          "type": "uint112"
        },
        {
          "internalType": "uint112",
          "name": "token1Want",
          "type": "uint112"
        }
      ],
      "name": "placeOrder",
      "outputs": [
        {
          "internalType": "uint112",
          "name": "token0Paid",
          "type": "uint112"
        },
        {
          "internalType": "uint112",
          "name": "token1Gain",
          "type": "uint112"
        },
        {
          "internalType": "uint112",
          "name": "token0Fee",
          "type": "uint112"
        }
      ],
      "stateMutability": "nonpayable",
      "type": "function"
    },
    {
      "inputs": [
        {
          "internalType": "address",
          "name": "tokenA",
          "type": "address"
        },
        {
          "internalType": "address",
          "name": "tokenB",
          "type": "address"
        }
      ],
      "name": "refreshApprove",
      "outputs": [],
      "stateMutability": "nonpayable",
      "type": "function"
    },
    {
      "inputs": [],
      "name": "renounceOwnership",
      "outputs": [],
      "stateMutability": "nonpayable",
      "type": "function"
    },
    {
      "inputs": [
        {
          "internalType": "address",
          "name": "tradeAddr",
          "type": "address"
        },
        {
          "internalType": "uint112",
          "name": "token0In",
          "type": "uint112"
        },
        {
          "internalType": "uint112",
          "name": "token1Want",
          "type": "uint112"
        }
      ],
      "name": "takeOrder",
      "outputs": [
        {
          "internalType": "uint112",
          "name": "token0Paid",
          "type": "uint112"
        },
        {
          "internalType": "uint112",
          "name": "token1Gain",
          "type": "uint112"
        },
        {
          "internalType": "uint112",
          "name": "token0Fee",
          "type": "uint112"
        }
      ],
      "stateMutability": "nonpayable",
      "type": "function"
    },
    {
      "inputs": [
        {
          "internalType": "address",
          "name": "newOwner",
          "type": "address"
        }
      ],
      "name": "transferOwnership",
      "outputs": [],
      "stateMutability": "nonpayable",
      "type": "function"
    },
    {
      "inputs": [
        {
          "internalType": "address",
          "name": "",
          "type": "address"
        }
      ],
      "name": "userOrdersLength",
      "outputs": [
        {
          "internalType": "uint48",
          "name": "",
          "type": "uint48"
        }
      ],
      "stateMutability": "view",
      "type": "function"
    }
  ],
  "bytecode": "0x60806040523480156200001157600080fd5b506200001d3362000035565b600280546001600160a01b03191633179055620000a3565b600180546001600160a01b0319169055620000508162000053565b50565b600080546001600160a01b038381166001600160a01b0319831681178455604051919092169283917f8be0079c531659141344cd1fd0a4f28419497f9722a3daafe3b4186f6b6457e09190a35050565b614eac80620000b36000396000f3fe60806040523480156200001157600080fd5b5060043610620001395760003560e01c8063b2ee08da11620000bb578063f06675a8116200007a578063f06675a814620002f5578063f2616274146200031b578063f2fde38b1462000332578063f519e79f1462000349578063f8b4f89d146200036f57600080fd5b8063b2ee08da1462000261578063c3fe2c341462000278578063c9c65396146200028f578063ddca3f4314620002c7578063e30c397814620002e357600080fd5b80635ad57ce211620001085780635ad57ce214620001ce578063715018a6146200021057806377309f4e146200021a57806379ba509714620002455780638da5cb5b146200024f57600080fd5b8063017e7e58146200013e57806321a0e632146200016f57806323b1cde4146200019e5780632f38842714620001b7575b600080fd5b60025462000152906001600160a01b031681565b6040516001600160a01b0390911681526020015b60405180910390f35b62000186620001803660046200266b565b62000386565b60405165ffffffffffff909116815260200162000166565b620001b5620001af366004620026d0565b6200053a565b005b620001b5620001c8366004620026f0565b62000566565b620001e5620001df3660046200272e565b62000665565b604080516001600160701b039485168152928416602084015292169181019190915260600162000166565b620001b562000aab565b620001866200022b366004620026d0565b60056020526000908152604090205465ffffffffffff1681565b620001b562000ac3565b6000546001600160a01b031662000152565b6200015262000272366004620026f0565b62000b41565b620001e5620002893660046200272e565b62000b70565b620002a6620002a0366004620026f0565b62000e1e565b604080516001600160a01b0393841681529290911660208301520162000166565b620002d0606481565b60405160ff909116815260200162000166565b6001546001600160a01b031662000152565b6200030c6200030636600462002790565b6200128f565b604051620001669190620027d7565b620001526200032c366004620026f0565b6200157d565b620001b562000343366004620026d0565b62001699565b620003606200035a36600462002857565b6200170d565b6040516200016691906200289e565b62000186620003803660046200266b565b62001d99565b6000808590506000816001600160a01b031663d21220a76040518163ffffffff1660e01b8152600401602060405180830381865afa158015620003cd573d6000803e3d6000fd5b505050506040513d601f19601f82011682018060405250810190620003f3919062002986565b9050620004156001600160a01b03821633306001600160701b038a1662001fe2565b6000620004258888888862001d99565b60405163d9d8f54160e01b81526001600160701b03808a1660048301528816602482015265ffffffffffff821660448201529091506001600160a01b0384169063d9d8f541906064016020604051808303816000875af11580156200048e573d6000803e3d6000fd5b505050506040513d601f19601f82011682018060405250810190620004b49190620029b3565b604051636a89ab7960e11b815265ffffffffffff821660048201523360248201529094506001600160a01b0384169063d51356f290604401600060405180830381600087803b1580156200050757600080fd5b505af11580156200051c573d6000803e3d6000fd5b505050506200052f88856000806200211c565b505050949350505050565b6200054462002273565b600280546001600160a01b0319166001600160a01b0392909216919091179055565b6001600160a01b03808316600090815260036020908152604080832085851684529091529020541680620005b75760405162461bcd60e51b8152600401620005ae90620029d3565b60405180910390fd5b620005cf6001600160a01b03841682600019620022cf565b620005e76001600160a01b03831682600019620022cf565b6001600160a01b038083166000908152600360209081526040808320878516845290915290205416806200062f5760405162461bcd60e51b8152600401620005ae90620029d3565b620006476001600160a01b03851682600019620022cf565b6200065f6001600160a01b03841682600019620022cf565b50505050565b6000806000808690506000816001600160a01b0316630dfe16816040518163ffffffff1660e01b8152600401602060405180830381865afa158015620006af573d6000803e3d6000fd5b505050506040513d601f19601f82011682018060405250810190620006d5919062002986565b90506000826001600160a01b031663d21220a76040518163ffffffff1660e01b8152600401602060405180830381865afa15801562000718573d6000803e3d6000fd5b505050506040513d601f19601f820116820180604052508101906200073e919062002986565b90506000612710846001600160a01b031663ddca3f436040518163ffffffff1660e01b8152600401602060405180830381865afa15801562000784573d6000803e3d6000fd5b505050506040513d601f19601f82011682018060405250810190620007aa919062002a23565b620007b99060ff168b62002a59565b620007c5919062002a9d565b90506000620007d58a8362002ac6565b9050620007f76001600160a01b03851633306001600160701b03851662001fe2565b604051631a4bce9160e21b81526001600160701b03808c1660048301528a1660248201526001600160a01b0386169063692f3a44906044016060604051808303816000875af11580156200084f573d6000803e3d6000fd5b505050506040513d601f19601f8201168201806040525081019062000875919062002afd565b919950975095506001600160701b03871615620008ab57620008ab6001600160a01b038416336001600160701b038a16620023f4565b856001600160701b0316826001600160701b03161115620008f257620008f233620008d7888562002b46565b6001600160a01b03871691906001600160701b0316620023f4565b876001600160701b03168a6001600160701b0316111562000a8e5760006200091b898c62002b46565b905060008b6200092c8c8462002a59565b62000938919062002a9d565b6001600160a01b0380871660009081526003602090815260408083208b851684529091528120549091169e508e9850909150620009788884848462001d99565b60405163d9d8f54160e01b81526001600160701b0380861660048301528416602482015265ffffffffffff821660448201529091506000906001600160a01b038a169063d9d8f541906064016020604051808303816000875af1158015620009e4573d6000803e3d6000fd5b505050506040513d601f19601f8201168201806040525081019062000a0a9190620029b3565b604051636a89ab7960e11b815265ffffffffffff821660048201523360248201529091506001600160a01b038a169063d51356f290604401600060405180830381600087803b15801562000a5d57600080fd5b505af115801562000a72573d6000803e3d6000fd5b5050505062000a848f828e8e6200211c565b5050505062000a9d565b62000a9d8b60008a8a6200211c565b505050505093509350939050565b62000ab562002273565b62000ac1600062002512565b565b60015433906001600160a01b0316811462000b335760405162461bcd60e51b815260206004820152602960248201527f4f776e61626c6532537465703a2063616c6c6572206973206e6f7420746865206044820152683732bb9037bbb732b960b91b6064820152608401620005ae565b62000b3e8162002512565b50565b6001600160a01b0380831660009081526003602090815260408083208585168452909152902054165b92915050565b6000806000808690506000816001600160a01b0316630dfe16816040518163ffffffff1660e01b8152600401602060405180830381865afa15801562000bba573d6000803e3d6000fd5b505050506040513d601f19601f8201168201806040525081019062000be0919062002986565b90506000826001600160a01b031663d21220a76040518163ffffffff1660e01b8152600401602060405180830381865afa15801562000c23573d6000803e3d6000fd5b505050506040513d601f19601f8201168201806040525081019062000c49919062002986565b90506000612710846001600160a01b031663ddca3f436040518163ffffffff1660e01b8152600401602060405180830381865afa15801562000c8f573d6000803e3d6000fd5b505050506040513d601f19601f8201168201806040525081019062000cb5919062002a23565b62000cc49060ff168b62002a59565b62000cd0919062002a9d565b9050600062000ce08a8362002ac6565b905062000d026001600160a01b03851633306001600160701b03851662001fe2565b604051631a4bce9160e21b81526001600160701b03808c1660048301528a1660248201526001600160a01b0386169063692f3a44906044016060604051808303816000875af115801562000d5a573d6000803e3d6000fd5b505050506040513d601f19601f8201168201806040525081019062000d80919062002afd565b9199509750955062000da66001600160a01b038416336001600160701b038a16620023f4565b876001600160701b03168a6001600160701b0316111562000a8e57600062000dcf898c62002b46565b9050600062000ddf888562002b46565b905062000e0d3362000df2838562002ac6565b6001600160a01b03891691906001600160701b0316620023f4565b505062000a9d8b60008a8a6200211c565b600080826001600160a01b0316846001600160a01b03160362000eaa5760405162461bcd60e51b815260206004820152603f60248201527f5472616465536572766963653a20637265617465506169723a3a20746f6b656e60448201527f4120616e6420746f6b656e422063616e6e6f74206265207468652073616d65006064820152608401620005ae565b6001600160a01b03841662000f185760405162461bcd60e51b815260206004820152602d60248201527f5472616465536572766963653a20637265617465506169723a3a20746f6b656e60448201526c0412063616e6e6f74206265203609c1b6064820152608401620005ae565b6001600160a01b03831662000f865760405162461bcd60e51b815260206004820152602d60248201527f5472616465536572766963653a20637265617465506169723a3a20746f6b656e60448201526c0422063616e6e6f74206265203609c1b6064820152608401620005ae565b6001600160a01b03848116600090815260036020908152604080832087851684529091529020541615620010165760405162461bcd60e51b815260206004820152603060248201527f5472616465536572766963653a20637265617465506169723a3a20747261646560448201526f105088185b1c9958591e48195e1a5cdd60821b6064820152608401620005ae565b6001600160a01b03838116600090815260036020908152604080832088851684529091529020541615620010a65760405162461bcd60e51b815260206004820152603060248201527f5472616465536572766963653a20637265617465506169723a3a20747261646560448201526f109048185b1c9958591e48195e1a5cdd60821b6064820152608401620005ae565b60008484604051602001620010bd92919062002b69565b6040516020818303038152906040528051906020012090508085856064600260009054906101000a90046001600160a01b0316604051620010fe90620025c8565b6200110d949392919062002b8b565b8190604051809103906000f59050801580156200112e573d6000803e3d6000fd5b506001600160a01b038681166000908152600360209081526040808320898516845282529182902080546001600160a01b03191693851693909317909255519194506200118091869188910162002b69565b6040516020818303038152906040528051906020012090508084866064600260009054906101000a90046001600160a01b0316604051620011c190620025c8565b620011d0949392919062002b8b565b8190604051809103906000f5905080158015620011f1573d6000803e3d6000fd5b506001600160a01b0385811660009081526003602090815260408083208a85168452909152902080546001600160a01b03191691831691909117905591506200123b858562000566565b604080516001600160a01b038581168252848116602083015280871692908816917f528a7392e6fd550c4de9e894c55879cd7a03e87f1ac9ddafe8677a2ac1d8cf9f910160405180910390a3509250929050565b606060008260ff1667ffffffffffffffff811115620012b257620012b262002bb9565b6040519080825280602002602001820160405280156200130657816020015b604080516080810182526000808252602080830182905292820181905260608201528252600019909201910181620012d15790505b5090508465ffffffffffff85166000036200138357806001600160a01b03166399a3bd236040518163ffffffff1660e01b8152600401602060405180830381865afa1580156200135a573d6000803e3d6000fd5b505050506040513d601f19601f82011682018060405250810190620013809190620029b3565b94505b604051633e710cd560e11b815265ffffffffffff861660048201526000906001600160a01b03831690637ce219aa9060240160c060405180830381865afa158015620013d3573d6000803e3d6000fd5b505050506040513d601f19601f82011682018060405250810190620013f9919062002be4565b905060405180608001604052808765ffffffffffff16815260200182606001516001600160701b0316815260200182608001516001600160701b031681526020018260a0015163ffffffff16815250836000815181106200145e576200145e62002c9f565b602090810291909101015260015b8560ff168160ff1610156200156f576020820151604051633e710cd560e11b815265ffffffffffff821660048201526001600160a01b03851690637ce219aa9060240160c060405180830381865afa158015620014cd573d6000803e3d6000fd5b505050506040513d601f19601f82011682018060405250810190620014f3919062002be4565b925060405180608001604052808265ffffffffffff16815260200184606001516001600160701b0316815260200184608001516001600160701b031681526020018460a0015163ffffffff16815250858360ff16815181106200155a576200155a62002c9f565b6020908102919091010152506001016200146c565b5091925050505b9392505050565b60008083836040516020016200159592919062002b69565b604051602081830303815290604052805190602001209050600060ff60f81b308360405180602001620015c890620025c8565b601f1982820381018352601f909101166040819052600254620015ff918b918b916064916001600160a01b03169060200162002b8b565b60408051601f19818403018152908290526200161f929160200162002ce7565b604051602081830303815290604052805190602001206040516020016200167894939291906001600160f81b031994909416845260609290921b6001600160601b03191660018401526015830152603582015260550190565b60408051808303601f19018152919052805160209091012095945050505050565b620016a362002273565b600180546001600160a01b0383166001600160a01b03199091168117909155620016d56000546001600160a01b031690565b6001600160a01b03167f38d16b8cac22d99fc7c124b9cd0de2d3fa1faef420bfe791d8c362d765e2270060405160405180910390a350565b606060008265ffffffffffff1667ffffffffffffffff81111562001735576200173562002bb9565b6040519080825280602002602001820160405280156200177257816020015b6200175e620025d6565b815260200190600190039081620017545790505b5090508365ffffffffffff16600003620017aa576001600160a01b03851660009081526005602052604090205465ffffffffffff1693505b8365ffffffffffff16600003620017c357905062001576565b835b65ffffffffffff8416620017da828762002d00565b65ffffffffffff16108015620017f8575060008165ffffffffffff16115b1562001d90576000600460006200181089856200252d565b65ffffffffffff191681526020808201929092526040908101600020815160a08101835281546001600160a01b038116825265ffffffffffff600160a01b82041694820194909452600160d01b90930463ffffffff1691830191909152600101546001600160701b038082166060840152600160701b90910416608082015290506200189b620025d6565b816020015165ffffffffffff1660000362001a2b576040518061014001604052808465ffffffffffff16815260200183600001516001600160a01b0316815260200183600001516001600160a01b0316630dfe16816040518163ffffffff1660e01b8152600401602060405180830381865afa15801562001920573d6000803e3d6000fd5b505050506040513d601f19601f8201168201806040525081019062001946919062002986565b6001600160a01b0316815260200183600001516001600160a01b031663d21220a76040518163ffffffff1660e01b8152600401602060405180830381865afa15801562001997573d6000803e3d6000fd5b505050506040513d601f19601f82011682018060405250810190620019bd919062002986565b6001600160a01b03168152602001600065ffffffffffff168152602001836040015163ffffffff16815260200183606001516001600160701b0316815260200183608001516001600160701b0316815260200163ffffffff8016815260200160011515815250905062001d46565b81516020830151604051633e710cd560e11b815265ffffffffffff90911660048201526000916001600160a01b031690637ce219aa9060240160c060405180830381865afa15801562001a82573d6000803e3d6000fd5b505050506040513d601f19601f8201168201806040525081019062001aa8919062002be4565b9050600063ffffffff80168260a0015163ffffffff16101562001b5d578360600151826060015162001adb919062002ac6565b6001600160701b031663ffffffff801685606001516001600160701b031663ffffffff80168560a0015163ffffffff1686606001516001600160701b031662001b25919062002d22565b62001b31919062002d3c565b62001b3d919062002d53565b62001b49919062002d22565b62001b55919062002d3c565b905062001b64565b5063ffffffff5b6040518061014001604052808665ffffffffffff16815260200185600001516001600160a01b0316815260200185600001516001600160a01b0316630dfe16816040518163ffffffff1660e01b8152600401602060405180830381865afa15801562001bd4573d6000803e3d6000fd5b505050506040513d601f19601f8201168201806040525081019062001bfa919062002986565b6001600160a01b0316815260200185600001516001600160a01b031663d21220a76040518163ffffffff1660e01b8152600401602060405180830381865afa15801562001c4b573d6000803e3d6000fd5b505050506040513d601f19601f8201168201806040525081019062001c71919062002986565b6001600160a01b03168152602001856020015165ffffffffffff168152602001856040015163ffffffff1681526020018560600151846060015162001cb7919062002ac6565b6001600160701b0316815260200183606001516001600160701b03168660600151856060015162001ce9919062002ac6565b6001600160701b031685608001516001600160701b031662001d0c919062002d22565b62001d18919062002d3c565b6001600160701b0316815263ffffffff9092166020830152915165ffffffffffff9081161460409091015290505b808462001d54858a62002d00565b65ffffffffffff168151811062001d6f5762001d6f62002c9f565b602002602001018190525050508062001d889062002d69565b9050620017c5565b50949350505050565b6000808590506000816001600160a01b03166399a3bd236040518163ffffffff1660e01b8152600401602060405180830381865afa15801562001de0573d6000803e3d6000fd5b505050506040513d601f19601f8201168201806040525081019062001e069190620029b3565b90508065ffffffffffff1660000362001e255760009250505062001fda565b8365ffffffffffff1660000362001e3a578093505b604051632784e81560e01b815265ffffffffffff851660048201526000908190819081906001600160a01b03871690632784e8159060240160c060405180830381865afa15801562001e90573d6000803e3d6000fd5b505050506040513d601f19601f8201168201806040525081019062001eb6919062002d8e565b50945094505093509350816001600160701b031660001415801562001ee3575065ffffffffffff84811614155b1562001eed578794505b62001ef9898362002a59565b6001600160701b031662001f0e8b8362002a59565b6001600160701b0316111562001f2d5783965050505050505062001fda565b8265ffffffffffff1660000362001f4d5784965050505050505062001fda565b604051632784e81560e01b815265ffffffffffff8416600482015292945084926001600160a01b03871690632784e8159060240160c060405180830381865afa15801562001f9f573d6000803e3d6000fd5b505050506040513d601f19601f8201168201806040525081019062001fc5919062002d8e565b5093975091955090935090915062001eed9050565b949350505050565b604080516001600160a01b0385811660248301528481166044830152606480830185905283518084039091018152608490920183526020820180516001600160e01b03166323b872dd60e01b179052915160009283929088169162002048919062002e1d565b6000604051808303816000865af19150503d806000811462002087576040519150601f19603f3d011682016040523d82523d6000602084013e6200208c565b606091505b5091509150818015620020ba575080511580620020ba575080806020019051810190620020ba919062002e2b565b620021145760405162461bcd60e51b8152602060048201526024808201527f5472616e7366657248656c7065723a205452414e534645525f46524f4d5f46416044820152631253115160e21b6064820152608401620005ae565b505050505050565b3360009081526005602052604090205465ffffffffffff1680620021408162002e4f565b9150506040518060a00160405280866001600160a01b031681526020018565ffffffffffff1681526020014263ffffffff168152602001846001600160701b03168152602001836001600160701b031681525060046000620021a333856200252d565b65ffffffffffff1990811682526020808301939093526040918201600090812085518154878701518887015163ffffffff16600160d01b0263ffffffff60d01b1965ffffffffffff928316600160a01b026001600160d01b03199094166001600160a01b039095169490941792909217929092161782556060870151600190920180546080909801516001600160701b03908116600160701b026001600160e01b031990991693169290921796909617905533815260059093529120805493909216921691909117905550505050565b6000546001600160a01b0316331462000ac15760405162461bcd60e51b815260206004820181905260248201527f4f776e61626c653a2063616c6c6572206973206e6f7420746865206f776e65726044820152606401620005ae565b604080516001600160a01b038481166024830152604480830185905283518084039091018152606490920183526020820180516001600160e01b031663095ea7b360e01b17905291516000928392908716916200232d919062002e1d565b6000604051808303816000865af19150503d80600081146200236c576040519150601f19603f3d011682016040523d82523d6000602084013e62002371565b606091505b50915091508180156200239f5750805115806200239f5750808060200190518101906200239f919062002e2b565b620023ed5760405162461bcd60e51b815260206004820152601e60248201527f5472616e7366657248656c7065723a20415050524f56455f4641494c454400006044820152606401620005ae565b5050505050565b604080516001600160a01b038481166024830152604480830185905283518084039091018152606490920183526020820180516001600160e01b031663a9059cbb60e01b179052915160009283929087169162002452919062002e1d565b6000604051808303816000865af19150503d806000811462002491576040519150601f19603f3d011682016040523d82523d6000602084013e62002496565b606091505b5091509150818015620024c4575080511580620024c4575080806020019051810190620024c4919062002e2b565b620023ed5760405162461bcd60e51b815260206004820152601f60248201527f5472616e7366657248656c7065723a205452414e534645525f4641494c4544006044820152606401620005ae565b600180546001600160a01b031916905562000b3e8162002578565b6040516001600160601b0319606084901b1660208201526001600160d01b031960d083901b166034820152600090603a01604051602081830303815290604052620015769062002e77565b600080546001600160a01b038381166001600160a01b0319831681178455604051919092169283917f8be0079c531659141344cd1fd0a4f28419497f9722a3daafe3b4186f6b6457e09190a35050565b611fc88062002eaf83390190565b6040805161014081018252600080825260208201819052918101829052606081018290526080810182905260a0810182905260c0810182905260e08101829052610100810182905261012081019190915290565b6001600160a01b038116811462000b3e57600080fd5b6001600160701b038116811462000b3e57600080fd5b65ffffffffffff8116811462000b3e57600080fd5b600080600080608085870312156200268257600080fd5b84356200268f816200262a565b93506020850135620026a18162002640565b92506040850135620026b38162002640565b91506060850135620026c58162002656565b939692955090935050565b600060208284031215620026e357600080fd5b813562001576816200262a565b600080604083850312156200270457600080fd5b823562002711816200262a565b9150602083013562002723816200262a565b809150509250929050565b6000806000606084860312156200274457600080fd5b833562002751816200262a565b92506020840135620027638162002640565b91506040840135620027758162002640565b809150509250925092565b60ff8116811462000b3e57600080fd5b600080600060608486031215620027a657600080fd5b8335620027b3816200262a565b92506020840135620027c58162002656565b91506040840135620027758162002780565b602080825282518282018190526000919060409081850190868401855b828110156200284a578151805165ffffffffffff168552868101516001600160701b039081168887015286820151168686015260609081015163ffffffff169085015260809093019290850190600101620027f4565b5091979650505050505050565b6000806000606084860312156200286d57600080fd5b83356200287a816200262a565b925060208401356200288c8162002656565b91506040840135620027758162002656565b602080825282518282018190526000919060409081850190868401855b828110156200284a578151805165ffffffffffff9081168652878201516001600160a01b039081168988015287830151811688880152606080840151909116908701526080808301519091169086015260a08082015163ffffffff9081169187019190915260c0808301516001600160701b039081169188019190915260e080840151909116908701526101008083015190911690860152610120908101511515908501526101409093019290850190600101620028bb565b805162002981816200262a565b919050565b6000602082840312156200299957600080fd5b815162001576816200262a565b8051620029818162002656565b600060208284031215620029c657600080fd5b8151620015768162002656565b60208082526030908201527f5472616465536572766963653a2072656672657368417070726f76653a3a207460408201526f1c9859195050881b9bdd08195e1a5cdd60821b606082015260800190565b60006020828403121562002a3657600080fd5b8151620015768162002780565b634e487b7160e01b600052601160045260246000fd5b6001600160701b0381811683821602808216919082811462002a7f5762002a7f62002a43565b505092915050565b634e487b7160e01b600052601260045260246000fd5b60006001600160701b038084168062002aba5762002aba62002a87565b92169190910492915050565b6001600160701b0381811683821601908082111562002ae95762002ae962002a43565b5092915050565b8051620029818162002640565b60008060006060848603121562002b1357600080fd5b835162002b208162002640565b602085015190935062002b338162002640565b6040850151909250620027758162002640565b6001600160701b0382811682821603908082111562002ae95762002ae962002a43565b6001600160601b0319606093841b811682529190921b16601482015260280190565b6001600160a01b039485168152928416602084015260ff919091166040830152909116606082015260800190565b634e487b7160e01b600052604160045260246000fd5b805163ffffffff811681146200298157600080fd5b600060c0828403121562002bf757600080fd5b60405160c0810181811067ffffffffffffffff8211171562002c2957634e487b7160e01b600052604160045260246000fd5b60405262002c3783620029a6565b815262002c4760208401620029a6565b602082015262002c5a6040840162002974565b604082015262002c6d6060840162002af0565b606082015262002c806080840162002af0565b608082015262002c9360a0840162002bcf565b60a08201529392505050565b634e487b7160e01b600052603260045260246000fd5b6000815160005b8181101562002cd8576020818501810151868301520162002cbc565b50600093019283525090919050565b600062001fda62002cf9838662002cb5565b8462002cb5565b65ffffffffffff82811682821603908082111562002ae95762002ae962002a43565b808202811582820484141762000b6a5762000b6a62002a43565b60008262002d4e5762002d4e62002a87565b500490565b8082018082111562000b6a5762000b6a62002a43565b600065ffffffffffff82168062002d845762002d8462002a43565b6000190192915050565b60008060008060008060c0878903121562002da857600080fd5b865162002db58162002656565b602088015190965062002dc88162002656565b604088015190955062002ddb816200262a565b606088015190945062002dee8162002640565b608088015190935062002e018162002640565b915062002e1160a0880162002bcf565b90509295509295509295565b600062001576828462002cb5565b60006020828403121562002e3e57600080fd5b815180151581146200157657600080fd5b600065ffffffffffff80831681810362002e6d5762002e6d62002a43565b6001019392505050565b8051602082015165ffffffffffff19808216929190601a83101562002ea657808184601a0360031b1b83161693505b50505091905056fe6101006040526000805465ffffffffffff191690553480156200002157600080fd5b5060405162001fc838038062001fc8833981016040819052620000449162000085565b6001600160a01b0393841660805291831660a05260ff1660c0521660e052620000e9565b80516001600160a01b03811681146200008057600080fd5b919050565b600080600080608085870312156200009c57600080fd5b620000a78562000068565b9350620000b76020860162000068565b9250604085015160ff81168114620000ce57600080fd5b9150620000de6060860162000068565b905092959194509250565b60805160a05160c05160e051611e52620001766000396000818160be015281816107c0015281816107f0015261081601526000818161042501526108b40152600081816103ab0152818161099b01528181610cde015261184601526000818161012b0152818161048c015281816106390152818161075e01528181610902015261094f0152611e526000f3fe608060405234801561001057600080fd5b50600436106100b45760003560e01c806399a3bd231161007157806399a3bd2314610394578063d21220a7146103a6578063d51356f2146103cd578063d9d8f541146103e2578063dbc4ba87146103f5578063ddca3f431461042057600080fd5b8063017e7e58146100b957806306661abd146100fd5780630dfe1681146101265780632784e8151461014d578063692f3a44146102165780637ce219aa14610253575b600080fd5b6100e07f000000000000000000000000000000000000000000000000000000000000000081565b6040516001600160a01b0390911681526020015b60405180910390f35b60005461010f9065ffffffffffff1681565b60405165ffffffffffff90911681526020016100f4565b6100e07f000000000000000000000000000000000000000000000000000000000000000081565b6101c061015b366004611b83565b6001602081905260009182526040909120805491015465ffffffffffff80831692600160301b810490911691600160601b9091046001600160a01b0316906001600160701b0380821691600160701b810490911690600160e01b900463ffffffff1686565b6040805165ffffffffffff97881681529690951660208701526001600160a01b03909316938501939093526001600160701b039081166060850152909116608083015263ffffffff1660a082015260c0016100f4565b610229610224366004611bb5565b610459565b604080516001600160701b03948516815292841660208401529216918101919091526060016100f4565b61031f610261366004611b83565b6040805160c081018252600080825260208201819052918101829052606081018290526080810182905260a08101919091525065ffffffffffff908116600090815260016020818152604092839020835160c08101855281548087168252600160301b810490961692810192909252600160601b9094046001600160a01b03169281019290925291909101546001600160701b038082166060840152600160701b8204166080830152600160e01b900463ffffffff1660a082015290565b6040516100f49190600060c08201905065ffffffffffff8084511683528060208501511660208401525060018060a01b03604084015116604083015260608301516001600160701b038082166060850152806080860151166080850152505063ffffffff60a08401511660a083015292915050565b60025461010f9065ffffffffffff1681565b6100e07f000000000000000000000000000000000000000000000000000000000000000081565b6103e06103db366004611bfd565b610a1b565b005b61010f6103f0366004611c34565b610be7565b610408610403366004611b83565b611658565b6040516001600160701b0390911681526020016100f4565b6104477f000000000000000000000000000000000000000000000000000000000000000081565b60405160ff90911681526020016100f4565b6002546000908190819065ffffffffffff16810361047f57506000915081905080610a14565b6104bd6001600160a01b037f00000000000000000000000000000000000000000000000000000000000000001633306001600160701b038916611886565b845b60025465ffffffffffff16156107af5760025465ffffffffffff1660009081526001602081905260409091209081015461050d906001600160701b03600160701b9091048116908816611c8d565b6001820154610529906001600160701b03908116908a16611c8d565b101561053557506107af565b600181015460009063ffffffff90610560906001600160701b03811690600160e01b90048316611c8d565b61056a9190611cc0565b60018301549091506000906001600160701b038082169161059791600160701b9091048116908516611c8d565b6105a19190611cc0565b60018401546105c09190600160701b90046001600160701b0316611cd4565b9050806001600160701b0316846001600160701b0316106106af576105e58185611cd4565b60018401549094506106019083906001600160701b0316611cd4565b61060b9087611cfb565b9550610616836119b6565b6001830180546001600160e01b03166001600160e01b0319179055825461067b907f00000000000000000000000000000000000000000000000000000000000000006001600160a01b0390811691600160601b9004166001600160701b038416611a4d565b825465ffffffffffff1990811665ffffffffffff90811780865560028054909316600160301b9091049091161790556107a7565b60018301546000906001600160701b03600160701b82048116916106d891908116908816611c8d565b6106e29190611cc0565b90506106ee8188611cfb565b96506106fa8184611cfb565b60018501549093506001600160701b031661071963ffffffff85611d1b565b6107239190611d46565b61072e906001611d6c565b6001850180546001600160e01b0316600160e01b63ffffffff93841602179055845461079a916001600160a01b037f0000000000000000000000000000000000000000000000000000000000000000811692600160601b900416906001600160701b03891690611a4d16565b60009450505050506107af565b5050506104bf565b6107b98187611cd4565b93506000807f00000000000000000000000000000000000000000000000000000000000000006001600160a01b03163b11610814577f0000000000000000000000000000000000000000000000000000000000000000610898565b7f00000000000000000000000000000000000000000000000000000000000000006001600160a01b031663017e7e586040518163ffffffff1660e01b81526004016020604051808303816000875af1158015610874573d6000803e3d6000fd5b505050506040513d601f19601f820116820180604052508101906108989190611d89565b9050336001600160a01b03821614610933576127106108da60ff7f00000000000000000000000000000000000000000000000000000000000000001687611d1b565b6108e49190611d46565b92506001600160701b03831615610933576109336001600160a01b037f00000000000000000000000000000000000000000000000000000000000000001633836001600160701b038716611886565b6001600160701b0382161561097f5761097f6001600160a01b037f000000000000000000000000000000000000000000000000000000000000000016336001600160701b038516611a4d565b6001600160701b03841615610a11576109cb6001600160a01b037f000000000000000000000000000000000000000000000000000000000000000016336001600160701b038716611a4d565b604080516001600160701b0380881682528616602082015233917fb94fb524ffbbe43521e10e0b077e95d54ea70b037aa5e6272ef4ebf499ee10d2910160405180910390a25b50505b9250925092565b65ffffffffffff821660009081526001602052604090208054600160601b90046001600160a01b03163314610abd5760405162461bcd60e51b815260206004820152603c60248201527f4d6f6e6f54726164653a206368616e67654f726465724f776e65723a3a20796f60448201527f7520617265206e6f74206f776e6572206f6620746865206f726465720000000060648201526084015b60405180910390fd5b805465ffffffffffff1665fffffffffffe1901610b44576040805162461bcd60e51b81526020600482015260248101919091527f4d6f6e6f54726164653a206368616e67654f726465724f776e65723a3a20746860448201527f65206f7264657220697320616c72656164792072656d6f76656428646f6e65296064820152608401610ab4565b6001600160a01b038216610bc05760405162461bcd60e51b815260206004820152603a60248201527f4d6f6e6f54726164653a206368616e67654f726465724f776e65723a3a206e6560448201527f774f776e65722063616e277420626520616464726573732830290000000000006064820152608401610ab4565b80546001600160a01b03909216600160601b026001600160601b0390921691909117905550565b600080846001600160701b031611610c5c5760405162461bcd60e51b815260206004820152603260248201527f4d6f6e6f54726164653a206d616b654f726465723a3a20746f6b656e31496e206044820152710616d6f756e742063616e6e6f7420626520360741b6064820152608401610ab4565b6000836001600160701b031611610cd15760405162461bcd60e51b815260206004820152603360248201527f4d6f6e6f54726164653a206d616b654f726465723a3a20746f6b656e304f7574604482015272020616d6f756e742063616e6e6f74206265203606c1b6064820152608401610ab4565b610d0f6001600160a01b037f00000000000000000000000000000000000000000000000000000000000000001633306001600160701b038816611886565b600080548190610d269065ffffffffffff16611da6565b82546101009290920a65ffffffffffff81810219909316918316021790915560025416600003610e5457506040805160c08101825260008082526020808301828152338486019081526001600160701b03808a16606087019081528982166080880190815260a08801878152875465ffffffffffff908116895260019788905299882098518954965195516001600160a01b0316600160601b026001600160601b03968c16600160301b026001600160601b0319909816918c16919091179690961794909416949094178755519590930180549251915163ffffffff16600160e01b026001600160e01b03928516600160701b026001600160e01b03199094169690941695909517919091171617909155546002805465ffffffffffff191691909216908117909155611651565b8165ffffffffffff1660000361103c5760025465ffffffffffff16600090815260016020819052604090912090810154610e9a906001600160701b038087169116611c8d565b6001820154610ebc906001600160701b0380891691600160701b900416611c8d565b11610f235760405162461bcd60e51b815260206004820152603160248201527f4d6f6e6f54726164653a206d616b654f726465723a3a20796f75722070726963604482015270329036bab9ba101f103a37b827b93232b960791b6064820152608401610ab4565b60008054825465ffffffffffff1990811665ffffffffffff928316179093556040805160c0810182528381526002805484166020808401918252338486019081526001600160701b03808e16606087019081528d82166080880190815260a088018b81528b548b168c52600195869052988b2097518854965194516001600160a01b0316600160601b026001600160601b03958c16600160301b026001600160601b0319909816918c1691909117969096179390931694909417865592519490910180549151955163ffffffff16600160e01b026001600160e01b03968416600160701b026001600160e01b03199093169590931694909417179390931692909217905591548254909316921691821790559050611651565b65ffffffffffff8216600090815260016020819052604082209081015490916001600160701b0390911690036110cc5760405162461bcd60e51b815260206004820152602f60248201527f4d6f6e6f54726164653a206d616b654f726465723a3a206265666f72654f726460448201526e195c881a5cc81b9bdd08195e1a5cdd608a1b6064820152608401610ab4565b805465ffffffffffff1665fffffffffffe19016111475760405162461bcd60e51b815260206004820152603360248201527f4d6f6e6f54726164653a206d616b654f726465723a3a206265666f72654f726460448201527265722069732072656d6f76656428646f6e652960681b6064820152608401610ab4565b6001810154611162906001600160701b038087169116611c8d565b6001820154611184906001600160701b0380891691600160701b900416611c8d565b11156111f05760405162461bcd60e51b815260206004820152603560248201527f4d6f6e6f54726164653a206d616b654f726465723a3a20796f75722070726963604482015274329036bab9ba101e1e903132b337b932a7b93232b960591b6064820152608401610ab4565b8054600160301b900465ffffffffffff1660000361131857600080548254600160301b65ffffffffffff928316810265ffffffffffff60301b19909216919091179093556040805160c08101825286831681526020808201858152338385019081526001600160701b03808d16606086019081528c82166080870190815260a087018a81528a548a168b52600196879052978a2096518754955194516001600160a01b0316600160601b026001600160601b03958b16909c026001600160601b0319909616908a16179490941792909216989098178455519290910180549151935163ffffffff16600160e01b026001600160e01b03948816600160701b026001600160e01b0319909316939097169290921717919091169390931790925554169050611651565b8054600160301b900465ffffffffffff16600090815260016020819052604082209081015490916001600160701b0390911690036113af5760405162461bcd60e51b815260206004820152602e60248201527f4d6f6e6f54726164653a206d616b654f726465723a3a2061667465724f72646560448201526d1c881a5cc81b9bdd08195e1a5cdd60921b6064820152608401610ab4565b805465ffffffffffff1665fffffffffffe19016114235760405162461bcd60e51b815260206004820152602c60248201527f4d6f6e6f54726164653a206d616b654f726465723a3a2061667465724f72646560448201526b1c881a5cc81c995b5bdd995960a21b6064820152608401610ab4565b600181015461143e906001600160701b038088169116611c8d565b6001820154611460906001600160701b03808a1691600160701b900416611c8d565b116114c95760405162461bcd60e51b815260206004820152603360248201527f4d6f6e6f54726164653a206d616b654f726465723a3a20796f75722070726963604482015272329036bab9ba101f1030b33a32b927b93232b960691b6064820152608401610ab4565b6040805160c08101825265ffffffffffff80871682528454600160301b9081900482166020808501918252338587018181526001600160701b03808f16606089019081528e821660808a01908152600060a08b0181815281548b1682526001978890528c82209b518c54995196516001600160a01b0316600160601b026001600160601b03978d168c026001600160601b0319909b16918d16919091179990991795909516979097178a5590519890940180549451925163ffffffff16600160e01b026001600160e01b03938316600160701b026001600160e01b031990961699909216989098179390931716919091179094558054875490841690920265ffffffffffff60301b19929092169190911786558054855465ffffffffffff19169083161785555492519216917f9c6261adc223913be01d72aba2f992e466189a5b386368eb9b0026b237f9384590611639908a908a906001600160701b0392831681529116602082015260400190565b60405180910390a3505060005465ffffffffffff1690505b9392505050565b65ffffffffffff811660009081526001602052604081208054600160601b90046001600160a01b031633146116f55760405162461bcd60e51b815260206004820152603760248201527f4d6f6e6f54726164653a2063616e63656c4f726465723a3a20796f752061726560448201527f206e6f74206f776e6572206f6620746865206f726465720000000000000000006064820152608401610ab4565b805465ffffffffffff1665fffffffffffe190161177a5760405162461bcd60e51b815260206004820152603b60248201527f4d6f6e6f54726164653a2063616e63656c4f726465723a3a20746865206f726460448201527f657220697320616c72656164792072656d6f76656428646f6e652900000000006064820152608401610ab4565b611783816119b6565b60025465ffffffffffff8085169116036117bf57805460028054600160301b90920465ffffffffffff1665ffffffffffff199092169190911790555b805465ffffffffffff191665ffffffffffff178155600181015460009063ffffffff906117ff906001600160701b03811690600160e01b90048316611c8d565b6118099190611cc0565b60018301549091506118259082906001600160701b0316611cd4565b92506001600160701b0383161561187f57815461187f906001600160a01b037f0000000000000000000000000000000000000000000000000000000000000000811691600160601b9004166001600160701b038616611a4d565b5050919050565b604080516001600160a01b0385811660248301528481166044830152606480830185905283518084039091018152608490920183526020820180516001600160e01b03166323b872dd60e01b17905291516000928392908816916118ea9190611dcb565b6000604051808303816000865af19150503d8060008114611927576040519150601f19603f3d011682016040523d82523d6000602084013e61192c565b606091505b50915091508180156119565750805115806119565750808060200190518101906119569190611dfa565b6119ae5760405162461bcd60e51b8152602060048201526024808201527f5472616e7366657248656c7065723a205452414e534645525f46524f4d5f46416044820152631253115160e21b6064820152608401610ab4565b505050505050565b805465ffffffffffff1615611a0057805465ffffffffffff8082166000908152600160205260409020805465ffffffffffff60301b1916600160301b938490049092169092021790555b8054600160301b900465ffffffffffff1615611a4a578054600160301b810465ffffffffffff9081166000908152600160205260409020805465ffffffffffff1916919092161790555b50565b604080516001600160a01b038481166024830152604480830185905283518084039091018152606490920183526020820180516001600160e01b031663a9059cbb60e01b1790529151600092839290871691611aa99190611dcb565b6000604051808303816000865af19150503d8060008114611ae6576040519150601f19603f3d011682016040523d82523d6000602084013e611aeb565b606091505b5091509150818015611b15575080511580611b15575080806020019051810190611b159190611dfa565b611b615760405162461bcd60e51b815260206004820152601f60248201527f5472616e7366657248656c7065723a205452414e534645525f4641494c4544006044820152606401610ab4565b5050505050565b803565ffffffffffff81168114611b7e57600080fd5b919050565b600060208284031215611b9557600080fd5b61165182611b68565b80356001600160701b0381168114611b7e57600080fd5b60008060408385031215611bc857600080fd5b611bd183611b9e565b9150611bdf60208401611b9e565b90509250929050565b6001600160a01b0381168114611a4a57600080fd5b60008060408385031215611c1057600080fd5b611c1983611b68565b91506020830135611c2981611be8565b809150509250929050565b600080600060608486031215611c4957600080fd5b611c5284611b9e565b9250611c6060208501611b9e565b9150611c6e60408501611b68565b90509250925092565b634e487b7160e01b600052601160045260246000fd5b8082028115828204841417611ca457611ca4611c77565b92915050565b634e487b7160e01b600052601260045260246000fd5b600082611ccf57611ccf611caa565b500490565b6001600160701b03828116828216039080821115611cf457611cf4611c77565b5092915050565b6001600160701b03818116838216019080821115611cf457611cf4611c77565b6001600160701b03818116838216028082169190828114611d3e57611d3e611c77565b505092915050565b60006001600160701b0380841680611d6057611d60611caa565b92169190910492915050565b63ffffffff818116838216019080821115611cf457611cf4611c77565b600060208284031215611d9b57600080fd5b815161165181611be8565b600065ffffffffffff808316818103611dc157611dc1611c77565b6001019392505050565b6000825160005b81811015611dec5760208186018101518583015201611dd2565b506000920191825250919050565b600060208284031215611e0c57600080fd5b8151801515811461165157600080fdfea2646970667358221220eefbb6b1a59a50eae2061c79137a3d60af5c1511b850396d6df23951b581c37564736f6c63430008180033a264697066735822122019649ae73b1b0bf6e5e401f96838d807f3712da1499ce7f8c6a3d8341bd5540d64736f6c63430008180033",
  "linkReferences": {},
  "deployedLinkReferences": {}
}