{
  "_format": "hh-sol-artifact-1",
  "contractName": "TradeService",
  "sourceName": "contracts/v2/TradeService.sol",
  "abi": [
    {
      "inputs": [],
      "stateMutability": "nonpayable",
      "type": "constructor"
    },
    {
      "anonymous": false,
      "inputs": [
        {
          "indexed": true,
          "internalType": "address",
          "name": "tokenA",
          "type": "address"
        },
        {
          "indexed": true,
          "internalType": "address",
          "name": "tokenB",
          "type": "address"
        },
        {
          "indexed": false,
          "internalType": "address",
          "name": "tradeAB",
          "type": "address"
        },
        {
          "indexed": false,
          "internalType": "address",
          "name": "tradeBA",
          "type": "address"
        }
      ],
      "name": "PairCreated",
      "type": "event"
    },
    {
      "inputs": [
        {
          "internalType": "address",
          "name": "token0",
          "type": "address"
        },
        {
          "internalType": "address",
          "name": "token1",
          "type": "address"
        }
      ],
      "name": "computeTradeAddr",
      "outputs": [
        {
          "internalType": "address",
          "name": "",
          "type": "address"
        }
      ],
      "stateMutability": "view",
      "type": "function"
    },
    {
      "inputs": [
        {
          "internalType": "address",
          "name": "tokenA",
          "type": "address"
        },
        {
          "internalType": "address",
          "name": "tokenB",
          "type": "address"
        }
      ],
      "name": "createPair",
      "outputs": [
        {
          "internalType": "address",
          "name": "tradeAB",
          "type": "address"
        },
        {
          "internalType": "address",
          "name": "tradeBA",
          "type": "address"
        }
      ],
      "stateMutability": "nonpayable",
      "type": "function"
    },
    {
      "inputs": [],
      "name": "fee",
      "outputs": [
        {
          "internalType": "uint8",
          "name": "",
          "type": "uint8"
        }
      ],
      "stateMutability": "view",
      "type": "function"
    },
    {
      "inputs": [],
      "name": "feeTo",
      "outputs": [
        {
          "internalType": "address",
          "name": "",
          "type": "address"
        }
      ],
      "stateMutability": "view",
      "type": "function"
    },
    {
      "inputs": [
        {
          "internalType": "address",
          "name": "tradeAddr",
          "type": "address"
        },
        {
          "internalType": "uint48",
          "name": "fromOrderId",
          "type": "uint48"
        },
        {
          "internalType": "uint8",
          "name": "num",
          "type": "uint8"
        }
      ],
      "name": "getOrderList",
      "outputs": [
        {
          "components": [
            {
              "internalType": "uint48",
              "name": "orderId",
              "type": "uint48"
            },
            {
              "internalType": "uint112",
              "name": "amountIn",
              "type": "uint112"
            },
            {
              "internalType": "uint112",
              "name": "amountOut",
              "type": "uint112"
            },
            {
              "internalType": "uint32",
              "name": "progress",
              "type": "uint32"
            }
          ],
          "internalType": "struct TradeService.ListOrder[]",
          "name": "",
          "type": "tuple[]"
        }
      ],
      "stateMutability": "view",
      "type": "function"
    },
    {
      "inputs": [
        {
          "internalType": "address",
          "name": "token0",
          "type": "address"
        },
        {
          "internalType": "address",
          "name": "token1",
          "type": "address"
        }
      ],
      "name": "getTrade",
      "outputs": [
        {
          "internalType": "address",
          "name": "",
          "type": "address"
        }
      ],
      "stateMutability": "view",
      "type": "function"
    },
    {
      "inputs": [
        {
          "internalType": "address",
          "name": "user",
          "type": "address"
        },
        {
          "internalType": "uint48",
          "name": "lastIndex",
          "type": "uint48"
        },
        {
          "internalType": "uint48",
          "name": "num",
          "type": "uint48"
        }
      ],
      "name": "getUserOrders",
      "outputs": [
        {
          "components": [
            {
              "internalType": "address",
              "name": "trade",
              "type": "address"
            },
            {
              "internalType": "address",
              "name": "token0",
              "type": "address"
            },
            {
              "internalType": "address",
              "name": "token1",
              "type": "address"
            },
            {
              "internalType": "uint48",
              "name": "orderId",
              "type": "uint48"
            },
            {
              "internalType": "uint32",
              "name": "createTime",
              "type": "uint32"
            },
            {
              "internalType": "address",
              "name": "owner",
              "type": "address"
            },
            {
              "internalType": "uint112",
              "name": "amountIn",
              "type": "uint112"
            },
            {
              "internalType": "uint112",
              "name": "amountOut",
              "type": "uint112"
            },
            {
              "internalType": "uint32",
              "name": "progress",
              "type": "uint32"
            },
            {
              "internalType": "bool",
              "name": "isRemoved",
              "type": "bool"
            }
          ],
          "internalType": "struct TradeService.UserOrder[]",
          "name": "",
          "type": "tuple[]"
        }
      ],
      "stateMutability": "view",
      "type": "function"
    },
    {
      "inputs": [
        {
          "internalType": "address",
          "name": "tradeAddr",
          "type": "address"
        },
        {
          "internalType": "uint112",
          "name": "token1In",
          "type": "uint112"
        },
        {
          "internalType": "uint112",
          "name": "token0Out",
          "type": "uint112"
        },
        {
          "internalType": "uint48",
          "name": "beforeOrderId",
          "type": "uint48"
        }
      ],
      "name": "makeOrder",
      "outputs": [
        {
          "internalType": "uint48",
          "name": "newOrderId",
          "type": "uint48"
        }
      ],
      "stateMutability": "nonpayable",
      "type": "function"
    },
    {
      "inputs": [
        {
          "internalType": "address",
          "name": "tokenA",
          "type": "address"
        },
        {
          "internalType": "address",
          "name": "tokenB",
          "type": "address"
        }
      ],
      "name": "refreshApprove",
      "outputs": [],
      "stateMutability": "nonpayable",
      "type": "function"
    },
    {
      "inputs": [
        {
          "internalType": "address",
          "name": "tradeAddr",
          "type": "address"
        },
        {
          "internalType": "uint112",
          "name": "token0In",
          "type": "uint112"
        },
        {
          "internalType": "uint112",
          "name": "token1Want",
          "type": "uint112"
        }
      ],
      "name": "takeOrder",
      "outputs": [
        {
          "internalType": "uint112",
          "name": "token0Pay",
          "type": "uint112"
        },
        {
          "internalType": "uint112",
          "name": "token1Gain",
          "type": "uint112"
        },
        {
          "internalType": "uint112",
          "name": "token0Fee",
          "type": "uint112"
        }
      ],
      "stateMutability": "nonpayable",
      "type": "function"
    },
    {
      "inputs": [
        {
          "internalType": "address",
          "name": "tradeAddr",
          "type": "address"
        },
        {
          "internalType": "uint112",
          "name": "token0In",
          "type": "uint112"
        },
        {
          "internalType": "uint112",
          "name": "token1Want",
          "type": "uint112"
        }
      ],
      "name": "takeOrder2",
      "outputs": [
        {
          "internalType": "uint112",
          "name": "token0Pay",
          "type": "uint112"
        },
        {
          "internalType": "uint112",
          "name": "token1Gain",
          "type": "uint112"
        },
        {
          "internalType": "uint112",
          "name": "token0Fee",
          "type": "uint112"
        }
      ],
      "stateMutability": "nonpayable",
      "type": "function"
    }
  ],
  "bytecode": "0x60a060405234801561001057600080fd5b50336080526080516149156100446000396000818160c201528181610eb701528181610f8301526113d801526149156000f3fe60806040523480156200001157600080fd5b5060043610620000b75760003560e01c8063c3fe2c34116200007a578063c3fe2c3414620001c4578063c9c6539614620001db578063ddca3f431462000213578063f06675a8146200022f578063f26162741462000255578063f519e79f146200026c57600080fd5b8063017e7e5814620000bc57806321a0e63214620001015780632f38842714620001305780635b567f221462000149578063b2ee08da146200018b575b600080fd5b620000e47f000000000000000000000000000000000000000000000000000000000000000081565b6040516001600160a01b0390911681526020015b60405180910390f35b62000118620001123660046200216f565b62000292565b60405165ffffffffffff9091168152602001620000f8565b6200014762000141366004620021d4565b62000443565b005b620001606200015a36600462002212565b6200053e565b604080516001600160701b0394851681529284166020840152921691810191909152606001620000f8565b620000e46200019c366004620021d4565b6001600160a01b03918216600090815260208181526040808320938516835292905220541690565b62000160620001d536600462002212565b620007ec565b620001f2620001ec366004620021d4565b62000bfd565b604080516001600160a01b03938416815292909116602083015201620000f8565b6200021c606481565b60405160ff9091168152602001620000f8565b620002466200024036600462002274565b6200107c565b604051620000f89190620022bb565b620000e462000266366004620021d4565b6200136a565b620002836200027d3660046200233b565b6200149b565b604051620000f8919062002382565b6000808590506000816001600160a01b031663d21220a76040518163ffffffff1660e01b8152600401602060405180830381865afa158015620002d9573d6000803e3d6000fd5b505050506040513d601f19601f82011682018060405250810190620002ff91906200246a565b9050620003216001600160a01b03821633306001600160701b038a1662001753565b600062000331888888886200188d565b60405163d9d8f54160e01b81526001600160701b03808a1660048301528816602482015265ffffffffffff821660448201529091506001600160a01b0384169063d9d8f541906064016020604051808303816000875af11580156200039a573d6000803e3d6000fd5b505050506040513d601f19601f82011682018060405250810190620003c0919062002497565b604051636a89ab7960e11b815265ffffffffffff821660048201523360248201529094506001600160a01b0384169063d51356f290604401600060405180830381600087803b1580156200041357600080fd5b505af115801562000428573d6000803e3d6000fd5b5050505062000438888562001ad6565b505050949350505050565b6001600160a01b0380831660009081526020818152604080832085851684529091529020541680620004925760405162461bcd60e51b81526004016200048990620024b7565b60405180910390fd5b620004aa6001600160a01b0384168260001962001bcf565b620004c26001600160a01b0383168260001962001bcf565b6001600160a01b0380831660009081526020818152604080832087851684529091529020541680620005085760405162461bcd60e51b81526004016200048990620024b7565b620005206001600160a01b0385168260001962001bcf565b620005386001600160a01b0384168260001962001bcf565b50505050565b6000806000808690506000816001600160a01b0316630dfe16816040518163ffffffff1660e01b8152600401602060405180830381865afa15801562000588573d6000803e3d6000fd5b505050506040513d601f19601f82011682018060405250810190620005ae91906200246a565b90506000826001600160a01b031663d21220a76040518163ffffffff1660e01b8152600401602060405180830381865afa158015620005f1573d6000803e3d6000fd5b505050506040513d601f19601f820116820180604052508101906200061791906200246a565b90506000612710846001600160a01b031663ddca3f436040518163ffffffff1660e01b8152600401602060405180830381865afa1580156200065d573d6000803e3d6000fd5b505050506040513d601f19601f8201168201806040525081019062000683919062002507565b620006929060ff168b6200253d565b6200069e91906200256b565b90506000620006ae8a83620025a0565b9050620006d06001600160a01b03851633306001600160701b03851662001753565b604051631a4bce9160e21b81526001600160701b03808c1660048301528a1660248201526001600160a01b0386169063692f3a44906044016060604051808303816000875af115801562000728573d6000803e3d6000fd5b505050506040513d601f19601f820116820180604052508101906200074e9190620025d7565b91995097509550620007746001600160a01b038416336001600160701b038a1662001cf4565b876001600160701b03168a6001600160701b03161115620007de5760006200079d898c62002620565b90506000620007ad888562002620565b9050620007db33620007c08385620025a0565b6001600160a01b03891691906001600160701b031662001cf4565b50505b505050505093509350939050565b6000806000808690506000816001600160a01b0316630dfe16816040518163ffffffff1660e01b8152600401602060405180830381865afa15801562000836573d6000803e3d6000fd5b505050506040513d601f19601f820116820180604052508101906200085c91906200246a565b90506000826001600160a01b031663d21220a76040518163ffffffff1660e01b8152600401602060405180830381865afa1580156200089f573d6000803e3d6000fd5b505050506040513d601f19601f82011682018060405250810190620008c591906200246a565b90506000612710846001600160a01b031663ddca3f436040518163ffffffff1660e01b8152600401602060405180830381865afa1580156200090b573d6000803e3d6000fd5b505050506040513d601f19601f8201168201806040525081019062000931919062002507565b620009409060ff168b6200253d565b6200094c91906200256b565b905060006200095c8a83620025a0565b90506200097e6001600160a01b03851633306001600160701b03851662001753565b604051631a4bce9160e21b81526001600160701b03808c1660048301528a1660248201526001600160a01b0386169063692f3a44906044016060604051808303816000875af1158015620009d6573d6000803e3d6000fd5b505050506040513d601f19601f82011682018060405250810190620009fc9190620025d7565b9199509750955062000a226001600160a01b038416336001600160701b038a1662001cf4565b856001600160701b0316826001600160701b0316111562000a695762000a693362000a4e888562002620565b6001600160a01b03871691906001600160701b031662001cf4565b876001600160701b03168a6001600160701b03161115620007de57600062000a92898c62002620565b905060008b62000aa38c846200253d565b62000aaf91906200256b565b6001600160a01b038087166000908152602081815260408083208b851684529091528120549091169e508e985090915062000aed888484846200188d565b60405163d9d8f54160e01b81526001600160701b0380861660048301528416602482015265ffffffffffff821660448201529091506000906001600160a01b038a169063d9d8f541906064016020604051808303816000875af115801562000b59573d6000803e3d6000fd5b505050506040513d601f19601f8201168201806040525081019062000b7f919062002497565b604051636a89ab7960e11b815265ffffffffffff821660048201523360248201529091506001600160a01b038a169063d51356f290604401600060405180830381600087803b15801562000bd257600080fd5b505af115801562000be7573d6000803e3d6000fd5b5050505050505050505050505093509350939050565b600080826001600160a01b0316846001600160a01b03160362000c895760405162461bcd60e51b815260206004820152603f60248201527f5472616465536572766963653a20637265617465506169723a3a20746f6b656e60448201527f4120616e6420746f6b656e422063616e6e6f74206265207468652073616d6500606482015260840162000489565b6001600160a01b03841662000cf75760405162461bcd60e51b815260206004820152602d60248201527f5472616465536572766963653a20637265617465506169723a3a20746f6b656e60448201526c0412063616e6e6f74206265203609c1b606482015260840162000489565b6001600160a01b03831662000d655760405162461bcd60e51b815260206004820152602d60248201527f5472616465536572766963653a20637265617465506169723a3a20746f6b656e60448201526c0422063616e6e6f74206265203609c1b606482015260840162000489565b6001600160a01b038481166000908152602081815260408083208785168452909152902054161562000df35760405162461bcd60e51b815260206004820152603060248201527f5472616465536572766963653a20637265617465506169723a3a20747261646560448201526f105088185b1c9958591e48195e1a5cdd60821b606482015260840162000489565b6001600160a01b038381166000908152602081815260408083208885168452909152902054161562000e815760405162461bcd60e51b815260206004820152603060248201527f5472616465536572766963653a20637265617465506169723a3a20747261646560448201526f109048185b1c9958591e48195e1a5cdd60821b606482015260840162000489565b6000848460405160200162000e9892919062002643565b60405160208183030381529060405280519060200120905080858560647f000000000000000000000000000000000000000000000000000000000000000060405162000ee490620020cc565b62000ef3949392919062002665565b8190604051809103906000f590508015801562000f14573d6000803e3d6000fd5b506001600160a01b03868116600090815260208181526040808320898516845282529182902080546001600160a01b031916938516939093179092555191945062000f6491869188910162002643565b60405160208183030381529060405280519060200120905080848660647f000000000000000000000000000000000000000000000000000000000000000060405162000fb090620020cc565b62000fbf949392919062002665565b8190604051809103906000f590508015801562000fe0573d6000803e3d6000fd5b506001600160a01b038581166000908152602081815260408083208a85168452909152902080546001600160a01b031916918316919091179055915062001028858562000443565b604080516001600160a01b038581168252848116602083015280871692908816917f528a7392e6fd550c4de9e894c55879cd7a03e87f1ac9ddafe8677a2ac1d8cf9f910160405180910390a3509250929050565b606060008260ff1667ffffffffffffffff8111156200109f576200109f62002693565b604051908082528060200260200182016040528015620010f357816020015b604080516080810182526000808252602080830182905292820181905260608201528252600019909201910181620010be5790505b5090508465ffffffffffff85166000036200117057806001600160a01b03166399a3bd236040518163ffffffff1660e01b8152600401602060405180830381865afa15801562001147573d6000803e3d6000fd5b505050506040513d601f19601f820116820180604052508101906200116d919062002497565b94505b604051633e710cd560e11b815265ffffffffffff861660048201526000906001600160a01b03831690637ce219aa9060240160c060405180830381865afa158015620011c0573d6000803e3d6000fd5b505050506040513d601f19601f82011682018060405250810190620011e69190620026be565b905060405180608001604052808765ffffffffffff16815260200182606001516001600160701b0316815260200182608001516001600160701b031681526020018260a0015163ffffffff16815250836000815181106200124b576200124b62002779565b602090810291909101015260015b8560ff168160ff1610156200135c576020820151604051633e710cd560e11b815265ffffffffffff821660048201526001600160a01b03851690637ce219aa9060240160c060405180830381865afa158015620012ba573d6000803e3d6000fd5b505050506040513d601f19601f82011682018060405250810190620012e09190620026be565b925060405180608001604052808265ffffffffffff16815260200184606001516001600160701b0316815260200184608001516001600160701b031681526020018460a0015163ffffffff16815250858360ff168151811062001347576200134762002779565b60209081029190910101525060010162001259565b5091925050505b9392505050565b60008083836040516020016200138292919062002643565b604051602081830303815290604052805190602001209050600060ff60f81b308360405180602001620013b590620020cc565b601f1982820381018352601f90910116604081905262001401908a908a906064907f00000000000000000000000000000000000000000000000000000000000000009060200162002665565b60408051601f1981840301815290829052620014219291602001620027b5565b604051602081830303815290604052805190602001206040516020016200147a94939291906001600160f81b031994909416845260609290921b6001600160601b03191660018401526015830152603582015260550190565b60408051808303601f19018152919052805160209091012095945050505050565b606060008265ffffffffffff1667ffffffffffffffff811115620014c357620014c362002693565b6040519080825280602002602001820160405280156200150057816020015b620014ec620020da565b815260200190600190039081620014e25790505b5090508365ffffffffffff1660000362001538576001600160a01b03851660009081526002602052604090205465ffffffffffff1693505b8365ffffffffffff166000036200155157905062001363565b835b65ffffffffffff8416620015688287620027e8565b65ffffffffffff1610801562001586575060008165ffffffffffff16115b156200174a57620015cf604051806040016040528060058152602001643637b7b81d60d91b8152508265ffffffffffff168765ffffffffffff168765ffffffffffff1662001e12565b600060016000620015e1898562001e5f565b65ffffffffffff191681526020808201929092526040908101600020815160608101835290546001600160a01b038116825265ffffffffffff600160a01b82048116838601908152600160d01b90920463ffffffff16838501528351808501909452601484527337b93232b921b932b0ba329737b93232b924b21d60611b948401949094525190935062001676921662001eaa565b80516020820151604051633e710cd560e11b815265ffffffffffff90911660048201526000916001600160a01b031690637ce219aa9060240160c060405180830381865afa158015620016cd573d6000803e3d6000fd5b505050506040513d601f19601f82011682018060405250810190620016f39190620026be565b905062001701828262001ef7565b846200170e858a620027e8565b65ffffffffffff168151811062001729576200172962002779565b602002602001018190525050508062001742906200280a565b905062001553565b50949350505050565b604080516001600160a01b0385811660248301528481166044830152606480830185905283518084039091018152608490920183526020820180516001600160e01b03166323b872dd60e01b1790529151600092839290881691620017b991906200282f565b6000604051808303816000865af19150503d8060008114620017f8576040519150601f19603f3d011682016040523d82523d6000602084013e620017fd565b606091505b50915091508180156200182b5750805115806200182b5750808060200190518101906200182b91906200284d565b620018855760405162461bcd60e51b8152602060048201526024808201527f5472616e7366657248656c7065723a205452414e534645525f46524f4d5f46416044820152631253115160e21b606482015260840162000489565b505050505050565b6000808590506000816001600160a01b03166399a3bd236040518163ffffffff1660e01b8152600401602060405180830381865afa158015620018d4573d6000803e3d6000fd5b505050506040513d601f19601f82011682018060405250810190620018fa919062002497565b90508065ffffffffffff16600003620019195760009250505062001ace565b8365ffffffffffff166000036200192e578093505b604051632784e81560e01b815265ffffffffffff851660048201526000908190819081906001600160a01b03871690632784e8159060240160c060405180830381865afa15801562001984573d6000803e3d6000fd5b505050506040513d601f19601f82011682018060405250810190620019aa919062002871565b50945094505093509350816001600160701b0316600014158015620019d7575065ffffffffffff84811614155b15620019e1578794505b620019ed89836200253d565b6001600160701b031662001a028b836200253d565b6001600160701b0316111562001a215783965050505050505062001ace565b8265ffffffffffff1660000362001a415784965050505050505062001ace565b604051632784e81560e01b815265ffffffffffff8416600482015292945084926001600160a01b03871690632784e8159060240160c060405180830381865afa15801562001a93573d6000803e3d6000fd5b505050506040513d601f19601f8201168201806040525081019062001ab9919062002871565b50939750919550909350909150620019e19050565b949350505050565b3360009081526002602052604090205465ffffffffffff168062001afa8162002900565b9150506040518060600160405280846001600160a01b031681526020018365ffffffffffff1681526020014263ffffffff168152506001600062001b3f338562001e5f565b65ffffffffffff199081168252602080830193909352604091820160009081208551815487870151978601516001600160a01b039092166001600160d01b031990911617600160a01b65ffffffffffff988916021763ffffffff60d01b1916600160d01b63ffffffff90921691909102179055338152600290935291208054909116929091169190911790555050565b604080516001600160a01b038481166024830152604480830185905283518084039091018152606490920183526020820180516001600160e01b031663095ea7b360e01b179052915160009283929087169162001c2d91906200282f565b6000604051808303816000865af19150503d806000811462001c6c576040519150601f19603f3d011682016040523d82523d6000602084013e62001c71565b606091505b509150915081801562001c9f57508051158062001c9f57508080602001905181019062001c9f91906200284d565b62001ced5760405162461bcd60e51b815260206004820152601e60248201527f5472616e7366657248656c7065723a20415050524f56455f4641494c45440000604482015260640162000489565b5050505050565b604080516001600160a01b038481166024830152604480830185905283518084039091018152606490920183526020820180516001600160e01b031663a9059cbb60e01b179052915160009283929087169162001d5291906200282f565b6000604051808303816000865af19150503d806000811462001d91576040519150601f19603f3d011682016040523d82523d6000602084013e62001d96565b606091505b509150915081801562001dc457508051158062001dc457508080602001905181019062001dc491906200284d565b62001ced5760405162461bcd60e51b815260206004820152601f60248201527f5472616e7366657248656c7065723a205452414e534645525f4641494c454400604482015260640162000489565b620005388484848460405160240162001e2f949392919062002956565b60408051601f198184030181529190526020810180516001600160e01b031663a7a8785360e01b1790526200209d565b6040516001600160601b0319606084901b1660208201526001600160d01b031960d083901b166034820152600090603a01604051602081830303815290604052620013639062002987565b62001ef3828260405160240162001ec3929190620029be565b60408051601f198184030181529190526020810180516001600160e01b0316632d839cb360e21b1790526200209d565b5050565b62001f01620020da565b60405180610140016040528084600001516001600160a01b0316815260200184600001516001600160a01b0316630dfe16816040518163ffffffff1660e01b8152600401602060405180830381865afa15801562001f63573d6000803e3d6000fd5b505050506040513d601f19601f8201168201806040525081019062001f8991906200246a565b6001600160a01b0316815260200184600001516001600160a01b031663d21220a76040518163ffffffff1660e01b8152600401602060405180830381865afa15801562001fda573d6000803e3d6000fd5b505050506040513d601f19601f820116820180604052508101906200200091906200246a565b6001600160a01b03168152602001846020015165ffffffffffff168152602001846040015163ffffffff16815260200183604001516001600160a01b0316815260200183606001516001600160701b0316815260200183608001516001600160701b031681526020018360a0015163ffffffff16815260200165ffffffffffff8016846000015165ffffffffffff16141515815250905092915050565b620020a881620020ab565b50565b60006a636f6e736f6c652e6c6f679050600080835160208501845afa505050565b611efd80620029e383390190565b6040805161014081018252600080825260208201819052918101829052606081018290526080810182905260a0810182905260c0810182905260e08101829052610100810182905261012081019190915290565b6001600160a01b0381168114620020a857600080fd5b6001600160701b0381168114620020a857600080fd5b65ffffffffffff81168114620020a857600080fd5b600080600080608085870312156200218657600080fd5b843562002193816200212e565b93506020850135620021a58162002144565b92506040850135620021b78162002144565b91506060850135620021c9816200215a565b939692955090935050565b60008060408385031215620021e857600080fd5b8235620021f5816200212e565b9150602083013562002207816200212e565b809150509250929050565b6000806000606084860312156200222857600080fd5b833562002235816200212e565b92506020840135620022478162002144565b91506040840135620022598162002144565b809150509250925092565b60ff81168114620020a857600080fd5b6000806000606084860312156200228a57600080fd5b833562002297816200212e565b92506020840135620022a9816200215a565b91506040840135620022598162002264565b602080825282518282018190526000919060409081850190868401855b828110156200232e578151805165ffffffffffff168552868101516001600160701b039081168887015286820151168686015260609081015163ffffffff169085015260809093019290850190600101620022d8565b5091979650505050505050565b6000806000606084860312156200235157600080fd5b83356200235e816200212e565b9250602084013562002370816200215a565b9150604084013562002259816200215a565b602080825282518282018190526000919060409081850190868401855b828110156200232e57815180516001600160a01b039081168652878201518116888701528682015181168787015260608083015165ffffffffffff169087015260808083015163ffffffff9081169188019190915260a0808401519092169187019190915260c0808301516001600160701b039081169188019190915260e0808401519091169087015261010080830151909116908601526101209081015115159085015261014090930192908501906001016200239f565b805162002465816200212e565b919050565b6000602082840312156200247d57600080fd5b815162001363816200212e565b805162002465816200215a565b600060208284031215620024aa57600080fd5b815162001363816200215a565b60208082526030908201527f5472616465536572766963653a2072656672657368417070726f76653a3a207460408201526f1c9859195050881b9bdd08195e1a5cdd60821b606082015260800190565b6000602082840312156200251a57600080fd5b8151620013638162002264565b634e487b7160e01b600052601160045260246000fd5b6001600160701b0381811683821602808216919082811462002563576200256362002527565b505092915050565b60006001600160701b03808416806200259457634e487b7160e01b600052601260045260246000fd5b92169190910492915050565b6001600160701b03818116838216019080821115620025c357620025c362002527565b5092915050565b8051620024658162002144565b600080600060608486031215620025ed57600080fd5b8351620025fa8162002144565b60208501519093506200260d8162002144565b6040850151909250620022598162002144565b6001600160701b03828116828216039080821115620025c357620025c362002527565b6001600160601b0319606093841b811682529190921b16601482015260280190565b6001600160a01b039485168152928416602084015260ff919091166040830152909116606082015260800190565b634e487b7160e01b600052604160045260246000fd5b805163ffffffff811681146200246557600080fd5b600060c08284031215620026d157600080fd5b60405160c0810181811067ffffffffffffffff821117156200270357634e487b7160e01b600052604160045260246000fd5b60405262002711836200248a565b815262002721602084016200248a565b6020820152620027346040840162002458565b60408201526200274760608401620025ca565b60608201526200275a60808401620025ca565b60808201526200276d60a08401620026a9565b60a08201529392505050565b634e487b7160e01b600052603260045260246000fd5b60005b83811015620027ac57818101518382015260200162002792565b50506000910152565b60008351620027c98184602088016200278f565b835190830190620027df8183602088016200278f565b01949350505050565b65ffffffffffff828116828216039080821115620025c357620025c362002527565b600065ffffffffffff82168062002825576200282562002527565b6000190192915050565b60008251620028438184602087016200278f565b9190910192915050565b6000602082840312156200286057600080fd5b815180151581146200136357600080fd5b60008060008060008060c087890312156200288b57600080fd5b865162002898816200215a565b6020880151909650620028ab816200215a565b6040880151909550620028be816200212e565b6060880151909450620028d18162002144565b6080880151909350620028e48162002144565b9150620028f460a08801620026a9565b90509295509295509295565b600065ffffffffffff8083168181036200291e576200291e62002527565b6001019392505050565b60008151808452620029428160208601602086016200278f565b601f01601f19169290920160200192915050565b6080815260006200296b608083018762002928565b6020830195909552506040810192909252606090910152919050565b8051602082015165ffffffffffff19808216929190601a831015620029b657808184601a0360031b1b83161693505b505050919050565b604081526000620029d3604083018562002928565b9050826020830152939250505056fe6101006040526000805465ffffffffffff191690553480156200002157600080fd5b5060405162001efd38038062001efd833981016040819052620000449162000085565b6001600160a01b0393841660805291831660a05260ff1660c0521660e052620000e9565b80516001600160a01b03811681146200008057600080fd5b919050565b600080600080608085870312156200009c57600080fd5b620000a78562000068565b9350620000b76020860162000068565b9250604085015160ff81168114620000ce57600080fd5b9150620000de6060860162000068565b905092959194509250565b60805160a05160c05160e051611d8e6200016f6000396000818160be0152818161086d015261090d015260008181610425015261089c0152600081816103ab015281816109a301528181610c9901526117a801526000818161012b015281816104da01528181610687015281816107ac015281816108ea01526109570152611d8e6000f3fe608060405234801561001057600080fd5b50600436106100b45760003560e01c806399a3bd231161007157806399a3bd2314610394578063d21220a7146103a6578063d51356f2146103cd578063d9d8f541146103e2578063dbc4ba87146103f5578063ddca3f431461042057600080fd5b8063017e7e58146100b957806306661abd146100fd5780630dfe1681146101265780632784e8151461014d578063692f3a44146102165780637ce219aa14610253575b600080fd5b6100e07f000000000000000000000000000000000000000000000000000000000000000081565b6040516001600160a01b0390911681526020015b60405180910390f35b60005461010f9065ffffffffffff1681565b60405165ffffffffffff90911681526020016100f4565b6100e07f000000000000000000000000000000000000000000000000000000000000000081565b6101c061015b366004611ae5565b6001602081905260009182526040909120805491015465ffffffffffff80831692600160301b810490911691600160601b9091046001600160a01b0316906001600160701b0380821691600160701b810490911690600160e01b900463ffffffff1686565b6040805165ffffffffffff97881681529690951660208701526001600160a01b03909316938501939093526001600160701b039081166060850152909116608083015263ffffffff1660a082015260c0016100f4565b610229610224366004611b17565b610459565b604080516001600160701b03948516815292841660208401529216918101919091526060016100f4565b61031f610261366004611ae5565b6040805160c081018252600080825260208201819052918101829052606081018290526080810182905260a08101919091525065ffffffffffff908116600090815260016020818152604092839020835160c08101855281548087168252600160301b810490961692810192909252600160601b9094046001600160a01b03169281019290925291909101546001600160701b038082166060840152600160701b8204166080830152600160e01b900463ffffffff1660a082015290565b6040516100f49190600060c08201905065ffffffffffff8084511683528060208501511660208401525060018060a01b03604084015116604083015260608301516001600160701b038082166060850152806080860151166080850152505063ffffffff60a08401511660a083015292915050565b60025461010f9065ffffffffffff1681565b6100e07f000000000000000000000000000000000000000000000000000000000000000081565b6103e06103db366004611b4a565b6109db565b005b61010f6103f0366004611b8d565b610ba2565b610408610403366004611ae5565b6115ba565b6040516001600160701b0390911681526020016100f4565b6104477f000000000000000000000000000000000000000000000000000000000000000081565b60405160ff90911681526020016100f4565b6002546000908190819065ffffffffffff1681036104cd5760405162461bcd60e51b815260206004820152602660248201527f4d6f6e6f54726164653a2074616b654f726465723a3a206f726465727320697360448201526520656d70747960d01b60648201526084015b60405180910390fd5b61050b6001600160a01b037f00000000000000000000000000000000000000000000000000000000000000001633306001600160701b0389166117e8565b845b60025465ffffffffffff16156107fd5760025465ffffffffffff1660009081526001602081905260409091209081015461055b906001600160701b03600160701b9091048116908816611be6565b6001820154610577906001600160701b03908116908a16611be6565b101561058357506107fd565b600181015460009063ffffffff906105ae906001600160701b03811690600160e01b90048316611be6565b6105b89190611c19565b60018301549091506000906001600160701b03808216916105e591600160701b9091048116908516611be6565b6105ef9190611c19565b600184015461060e9190600160701b90046001600160701b0316611c2d565b9050806001600160701b0316846001600160701b0316106106fd576106338185611c2d565b600184015490945061064f9083906001600160701b0316611c2d565b6106599087611c54565b955061066483611918565b6001830180546001600160e01b03166001600160e01b031917905582546106c9907f00000000000000000000000000000000000000000000000000000000000000006001600160a01b0390811691600160601b9004166001600160701b0384166119af565b825465ffffffffffff1990811665ffffffffffff90811780865560028054909316600160301b9091049091161790556107f5565b60018301546000906001600160701b03600160701b820481169161072691908116908816611be6565b6107309190611c19565b905061073c8188611c54565b96506107488184611c54565b60018501549093506001600160701b031661076763ffffffff85611c74565b6107719190611c9f565b61077c906001611cc5565b6001850180546001600160e01b0316600160e01b63ffffffff9384160217905584546107e8916001600160a01b037f0000000000000000000000000000000000000000000000000000000000000000811692600160601b900416906001600160701b038916906119af16565b60009450505050506107fd565b50505061050d565b6108078187611c2d565b93506000846001600160701b0316116108625760405162461bcd60e51b815260206004820152601e60248201527f4d6f6e6f54726164653a2074616b654f726465723a3a206e6f206465616c000060448201526064016104c4565b336001600160a01b037f0000000000000000000000000000000000000000000000000000000000000000161461093b576127106108c260ff7f00000000000000000000000000000000000000000000000000000000000000001686611c74565b6108cc9190611c9f565b91506001600160701b0382161561093b5761093b6001600160a01b037f000000000000000000000000000000000000000000000000000000000000000016337f00000000000000000000000000000000000000000000000000000000000000006001600160701b0386166117e8565b6001600160701b03811615610987576109876001600160a01b037f000000000000000000000000000000000000000000000000000000000000000016336001600160701b0384166119af565b6001600160701b038316156109d3576109d36001600160a01b037f000000000000000000000000000000000000000000000000000000000000000016336001600160701b0386166119af565b509250925092565b65ffffffffffff821660009081526001602052604090208054600160601b90046001600160a01b03163314610a785760405162461bcd60e51b815260206004820152603c60248201527f4d6f6e6f54726164653a206368616e67654f726465724f776e65723a3a20796f60448201527f7520617265206e6f74206f776e6572206f6620746865206f726465720000000060648201526084016104c4565b805465ffffffffffff1665fffffffffffe1901610aff576040805162461bcd60e51b81526020600482015260248101919091527f4d6f6e6f54726164653a206368616e67654f726465724f776e65723a3a20746860448201527f65206f7264657220697320616c72656164792072656d6f76656428646f6e652960648201526084016104c4565b6001600160a01b038216610b7b5760405162461bcd60e51b815260206004820152603a60248201527f4d6f6e6f54726164653a206368616e67654f726465724f776e65723a3a206e6560448201527f774f776e65722063616e2774206265206164647265737328302900000000000060648201526084016104c4565b80546001600160a01b03909216600160601b026001600160601b0390921691909117905550565b600080846001600160701b031611610c175760405162461bcd60e51b815260206004820152603260248201527f4d6f6e6f54726164653a206d616b654f726465723a3a20746f6b656e31496e206044820152710616d6f756e742063616e6e6f7420626520360741b60648201526084016104c4565b6000836001600160701b031611610c8c5760405162461bcd60e51b815260206004820152603360248201527f4d6f6e6f54726164653a206d616b654f726465723a3a20746f6b656e304f7574604482015272020616d6f756e742063616e6e6f74206265203606c1b60648201526084016104c4565b610cca6001600160a01b037f00000000000000000000000000000000000000000000000000000000000000001633306001600160701b0388166117e8565b600080548190610ce19065ffffffffffff16611ce2565b82546101009290920a65ffffffffffff81810219909316918316021790915560025416600003610e0f57506040805160c08101825260008082526020808301828152338486019081526001600160701b03808a16606087019081528982166080880190815260a08801878152875465ffffffffffff908116895260019788905299882098518954965195516001600160a01b0316600160601b026001600160601b03968c16600160301b026001600160601b0319909816918c16919091179690961794909416949094178755519590930180549251915163ffffffff16600160e01b026001600160e01b03928516600160701b026001600160e01b03199094169690941695909517919091171617909155546002805465ffffffffffff1916919092169081179091556115b3565b8165ffffffffffff16600003610ff75760025465ffffffffffff16600090815260016020819052604090912090810154610e55906001600160701b038087169116611be6565b6001820154610e77906001600160701b0380891691600160701b900416611be6565b11610ede5760405162461bcd60e51b815260206004820152603160248201527f4d6f6e6f54726164653a206d616b654f726465723a3a20796f75722070726963604482015270329036bab9ba101f103a37b827b93232b960791b60648201526084016104c4565b60008054825465ffffffffffff1990811665ffffffffffff928316179093556040805160c0810182528381526002805484166020808401918252338486019081526001600160701b03808e16606087019081528d82166080880190815260a088018b81528b548b168c52600195869052988b2097518854965194516001600160a01b0316600160601b026001600160601b03958c16600160301b026001600160601b0319909816918c1691909117969096179390931694909417865592519490910180549151955163ffffffff16600160e01b026001600160e01b03968416600160701b026001600160e01b031990931695909316949094171793909316929092179055915482549093169216918217905590506115b3565b65ffffffffffff8216600090815260016020819052604082209081015490916001600160701b0390911690036110875760405162461bcd60e51b815260206004820152602f60248201527f4d6f6e6f54726164653a206d616b654f726465723a3a206265666f72654f726460448201526e195c881a5cc81b9bdd08195e1a5cdd608a1b60648201526084016104c4565b805465ffffffffffff1665fffffffffffe19016111025760405162461bcd60e51b815260206004820152603360248201527f4d6f6e6f54726164653a206d616b654f726465723a3a206265666f72654f726460448201527265722069732072656d6f76656428646f6e652960681b60648201526084016104c4565b600181015461111d906001600160701b038087169116611be6565b600182015461113f906001600160701b0380891691600160701b900416611be6565b11156111ab5760405162461bcd60e51b815260206004820152603560248201527f4d6f6e6f54726164653a206d616b654f726465723a3a20796f75722070726963604482015274329036bab9ba101e1e903132b337b932a7b93232b960591b60648201526084016104c4565b8054600160301b900465ffffffffffff166000036112d357600080548254600160301b65ffffffffffff928316810265ffffffffffff60301b19909216919091179093556040805160c08101825286831681526020808201858152338385019081526001600160701b03808d16606086019081528c82166080870190815260a087018a81528a548a168b52600196879052978a2096518754955194516001600160a01b0316600160601b026001600160601b03958b16909c026001600160601b0319909616908a16179490941792909216989098178455519290910180549151935163ffffffff16600160e01b026001600160e01b03948816600160701b026001600160e01b03199093169390971692909217179190911693909317909255541690506115b3565b8054600160301b900465ffffffffffff16600090815260016020819052604082209081015490916001600160701b03909116900361136a5760405162461bcd60e51b815260206004820152602e60248201527f4d6f6e6f54726164653a206d616b654f726465723a3a2061667465724f72646560448201526d1c881a5cc81b9bdd08195e1a5cdd60921b60648201526084016104c4565b805465ffffffffffff1665fffffffffffe19016113de5760405162461bcd60e51b815260206004820152602c60248201527f4d6f6e6f54726164653a206d616b654f726465723a3a2061667465724f72646560448201526b1c881a5cc81c995b5bdd995960a21b60648201526084016104c4565b60018101546113f9906001600160701b038088169116611be6565b600182015461141b906001600160701b03808a1691600160701b900416611be6565b116114845760405162461bcd60e51b815260206004820152603360248201527f4d6f6e6f54726164653a206d616b654f726465723a3a20796f75722070726963604482015272329036bab9ba101f1030b33a32b927b93232b960691b60648201526084016104c4565b6040805160c08101825265ffffffffffff80871682528454600160301b9081900482166020808501918252338587019081526001600160701b03808e16606088019081528d821660808901908152600060a08a0181815281548a1682526001968790529a812099518a54975195516001600160a01b0316600160601b026001600160601b03968b168a026001600160601b0319909916918b16919091179790971794909416959095178855519690920180549351975163ffffffff16600160e01b026001600160e01b03988416600160701b026001600160e01b031990951697909316969096179290921795909516949094179092558254855490821690920265ffffffffffff60301b1992909216919091179093558054825465ffffffffffff191690841617909155541690505b9392505050565b65ffffffffffff811660009081526001602052604081208054600160601b90046001600160a01b031633146116575760405162461bcd60e51b815260206004820152603760248201527f4d6f6e6f54726164653a2063616e63656c4f726465723a3a20796f752061726560448201527f206e6f74206f776e6572206f6620746865206f7264657200000000000000000060648201526084016104c4565b805465ffffffffffff1665fffffffffffe19016116dc5760405162461bcd60e51b815260206004820152603b60248201527f4d6f6e6f54726164653a2063616e63656c4f726465723a3a20746865206f726460448201527f657220697320616c72656164792072656d6f76656428646f6e6529000000000060648201526084016104c4565b6116e581611918565b60025465ffffffffffff80851691160361172157805460028054600160301b90920465ffffffffffff1665ffffffffffff199092169190911790555b805465ffffffffffff191665ffffffffffff178155600181015460009063ffffffff90611761906001600160701b03811690600160e01b90048316611be6565b61176b9190611c19565b60018301549091506117879082906001600160701b0316611c2d565b92506001600160701b038316156117e15781546117e1906001600160a01b037f0000000000000000000000000000000000000000000000000000000000000000811691600160601b9004166001600160701b0386166119af565b5050919050565b604080516001600160a01b0385811660248301528481166044830152606480830185905283518084039091018152608490920183526020820180516001600160e01b03166323b872dd60e01b179052915160009283929088169161184c9190611d07565b6000604051808303816000865af19150503d8060008114611889576040519150601f19603f3d011682016040523d82523d6000602084013e61188e565b606091505b50915091508180156118b85750805115806118b85750808060200190518101906118b89190611d36565b6119105760405162461bcd60e51b8152602060048201526024808201527f5472616e7366657248656c7065723a205452414e534645525f46524f4d5f46416044820152631253115160e21b60648201526084016104c4565b505050505050565b805465ffffffffffff161561196257805465ffffffffffff8082166000908152600160205260409020805465ffffffffffff60301b1916600160301b938490049092169092021790555b8054600160301b900465ffffffffffff16156119ac578054600160301b810465ffffffffffff9081166000908152600160205260409020805465ffffffffffff1916919092161790555b50565b604080516001600160a01b038481166024830152604480830185905283518084039091018152606490920183526020820180516001600160e01b031663a9059cbb60e01b1790529151600092839290871691611a0b9190611d07565b6000604051808303816000865af19150503d8060008114611a48576040519150601f19603f3d011682016040523d82523d6000602084013e611a4d565b606091505b5091509150818015611a77575080511580611a77575080806020019051810190611a779190611d36565b611ac35760405162461bcd60e51b815260206004820152601f60248201527f5472616e7366657248656c7065723a205452414e534645525f4641494c45440060448201526064016104c4565b5050505050565b803565ffffffffffff81168114611ae057600080fd5b919050565b600060208284031215611af757600080fd5b6115b382611aca565b80356001600160701b0381168114611ae057600080fd5b60008060408385031215611b2a57600080fd5b611b3383611b00565b9150611b4160208401611b00565b90509250929050565b60008060408385031215611b5d57600080fd5b611b6683611aca565b915060208301356001600160a01b0381168114611b8257600080fd5b809150509250929050565b600080600060608486031215611ba257600080fd5b611bab84611b00565b9250611bb960208501611b00565b9150611bc760408501611aca565b90509250925092565b634e487b7160e01b600052601160045260246000fd5b8082028115828204841417611bfd57611bfd611bd0565b92915050565b634e487b7160e01b600052601260045260246000fd5b600082611c2857611c28611c03565b500490565b6001600160701b03828116828216039080821115611c4d57611c4d611bd0565b5092915050565b6001600160701b03818116838216019080821115611c4d57611c4d611bd0565b6001600160701b03818116838216028082169190828114611c9757611c97611bd0565b505092915050565b60006001600160701b0380841680611cb957611cb9611c03565b92169190910492915050565b63ffffffff818116838216019080821115611c4d57611c4d611bd0565b600065ffffffffffff808316818103611cfd57611cfd611bd0565b6001019392505050565b6000825160005b81811015611d285760208186018101518583015201611d0e565b506000920191825250919050565b600060208284031215611d4857600080fd5b815180151581146115b357600080fdfea26469706673582212201921be78c6ef6d91ca35fb0388580d554f98bfc5ac43adc50bb43e4bc0b8b33864736f6c63430008180033a26469706673582212208763c8a3f8b76ca0e82667f3fbf9a6d9eb3eed610b0a5e221383d55b8c5cfdb764736f6c63430008180033",
  "linkReferences": {},
  "deployedLinkReferences": {}
}