{
  "_format": "hh-sol-artifact-1",
  "contractName": "TradeService",
  "sourceName": "contracts/v2/TradeService.sol",
  "abi": [
    {
      "inputs": [],
      "stateMutability": "nonpayable",
      "type": "constructor"
    },
    {
      "anonymous": false,
      "inputs": [
        {
          "indexed": true,
          "internalType": "address",
          "name": "previousOwner",
          "type": "address"
        },
        {
          "indexed": true,
          "internalType": "address",
          "name": "newOwner",
          "type": "address"
        }
      ],
      "name": "OwnershipTransferStarted",
      "type": "event"
    },
    {
      "anonymous": false,
      "inputs": [
        {
          "indexed": true,
          "internalType": "address",
          "name": "previousOwner",
          "type": "address"
        },
        {
          "indexed": true,
          "internalType": "address",
          "name": "newOwner",
          "type": "address"
        }
      ],
      "name": "OwnershipTransferred",
      "type": "event"
    },
    {
      "anonymous": false,
      "inputs": [
        {
          "indexed": true,
          "internalType": "address",
          "name": "tokenA",
          "type": "address"
        },
        {
          "indexed": true,
          "internalType": "address",
          "name": "tokenB",
          "type": "address"
        },
        {
          "indexed": false,
          "internalType": "address",
          "name": "tradeAB",
          "type": "address"
        },
        {
          "indexed": false,
          "internalType": "address",
          "name": "tradeBA",
          "type": "address"
        }
      ],
      "name": "PairCreated",
      "type": "event"
    },
    {
      "inputs": [],
      "name": "acceptOwnership",
      "outputs": [],
      "stateMutability": "nonpayable",
      "type": "function"
    },
    {
      "inputs": [
        {
          "internalType": "address",
          "name": "_feeTo",
          "type": "address"
        }
      ],
      "name": "changeFeeTo",
      "outputs": [],
      "stateMutability": "nonpayable",
      "type": "function"
    },
    {
      "inputs": [
        {
          "internalType": "address",
          "name": "token0",
          "type": "address"
        },
        {
          "internalType": "address",
          "name": "token1",
          "type": "address"
        }
      ],
      "name": "computeTradeAddr",
      "outputs": [
        {
          "internalType": "address",
          "name": "",
          "type": "address"
        }
      ],
      "stateMutability": "view",
      "type": "function"
    },
    {
      "inputs": [
        {
          "internalType": "address",
          "name": "tokenA",
          "type": "address"
        },
        {
          "internalType": "address",
          "name": "tokenB",
          "type": "address"
        }
      ],
      "name": "createPair",
      "outputs": [
        {
          "internalType": "address",
          "name": "tradeAB",
          "type": "address"
        },
        {
          "internalType": "address",
          "name": "tradeBA",
          "type": "address"
        }
      ],
      "stateMutability": "nonpayable",
      "type": "function"
    },
    {
      "inputs": [],
      "name": "fee",
      "outputs": [
        {
          "internalType": "uint8",
          "name": "",
          "type": "uint8"
        }
      ],
      "stateMutability": "view",
      "type": "function"
    },
    {
      "inputs": [],
      "name": "feeTo",
      "outputs": [
        {
          "internalType": "address",
          "name": "",
          "type": "address"
        }
      ],
      "stateMutability": "view",
      "type": "function"
    },
    {
      "inputs": [
        {
          "internalType": "address",
          "name": "tradeAddr",
          "type": "address"
        },
        {
          "internalType": "uint112",
          "name": "token1In",
          "type": "uint112"
        },
        {
          "internalType": "uint112",
          "name": "token0Out",
          "type": "uint112"
        },
        {
          "internalType": "uint48",
          "name": "findFromId",
          "type": "uint48"
        }
      ],
      "name": "findBeforeOrderId",
      "outputs": [
        {
          "internalType": "uint48",
          "name": "",
          "type": "uint48"
        }
      ],
      "stateMutability": "view",
      "type": "function"
    },
    {
      "inputs": [
        {
          "internalType": "address",
          "name": "tradeAddr",
          "type": "address"
        },
        {
          "internalType": "uint48",
          "name": "fromOrderId",
          "type": "uint48"
        },
        {
          "internalType": "uint8",
          "name": "num",
          "type": "uint8"
        }
      ],
      "name": "getOrderList",
      "outputs": [
        {
          "components": [
            {
              "internalType": "uint48",
              "name": "orderId",
              "type": "uint48"
            },
            {
              "internalType": "uint112",
              "name": "token1In",
              "type": "uint112"
            },
            {
              "internalType": "uint112",
              "name": "token0Out",
              "type": "uint112"
            },
            {
              "internalType": "uint32",
              "name": "progress",
              "type": "uint32"
            }
          ],
          "internalType": "struct TradeService.ListOrder[]",
          "name": "",
          "type": "tuple[]"
        }
      ],
      "stateMutability": "view",
      "type": "function"
    },
    {
      "inputs": [
        {
          "internalType": "address",
          "name": "token0",
          "type": "address"
        },
        {
          "internalType": "address",
          "name": "token1",
          "type": "address"
        }
      ],
      "name": "getTrade",
      "outputs": [
        {
          "internalType": "address",
          "name": "",
          "type": "address"
        }
      ],
      "stateMutability": "view",
      "type": "function"
    },
    {
      "inputs": [
        {
          "internalType": "address",
          "name": "user",
          "type": "address"
        },
        {
          "internalType": "uint48",
          "name": "lastIndex",
          "type": "uint48"
        },
        {
          "internalType": "uint48",
          "name": "num",
          "type": "uint48"
        }
      ],
      "name": "getUserOrders",
      "outputs": [
        {
          "components": [
            {
              "internalType": "uint48",
              "name": "index",
              "type": "uint48"
            },
            {
              "internalType": "address",
              "name": "trade",
              "type": "address"
            },
            {
              "internalType": "string",
              "name": "token0Symbol",
              "type": "string"
            },
            {
              "internalType": "string",
              "name": "token1Symbol",
              "type": "string"
            },
            {
              "internalType": "uint48",
              "name": "orderId",
              "type": "uint48"
            },
            {
              "internalType": "uint32",
              "name": "createTime",
              "type": "uint32"
            },
            {
              "internalType": "uint112",
              "name": "tokenIn",
              "type": "uint112"
            },
            {
              "internalType": "uint112",
              "name": "tokenOut",
              "type": "uint112"
            },
            {
              "internalType": "uint32",
              "name": "progress",
              "type": "uint32"
            },
            {
              "internalType": "bool",
              "name": "isRemoved",
              "type": "bool"
            }
          ],
          "internalType": "struct TradeService.UserOrder[]",
          "name": "",
          "type": "tuple[]"
        }
      ],
      "stateMutability": "view",
      "type": "function"
    },
    {
      "inputs": [
        {
          "internalType": "address",
          "name": "tradeAddr",
          "type": "address"
        },
        {
          "internalType": "uint112",
          "name": "token1In",
          "type": "uint112"
        },
        {
          "internalType": "uint112",
          "name": "token0Out",
          "type": "uint112"
        },
        {
          "internalType": "uint48",
          "name": "beforeOrderId",
          "type": "uint48"
        }
      ],
      "name": "makeOrder",
      "outputs": [
        {
          "internalType": "uint48",
          "name": "newOrderId",
          "type": "uint48"
        }
      ],
      "stateMutability": "nonpayable",
      "type": "function"
    },
    {
      "inputs": [],
      "name": "owner",
      "outputs": [
        {
          "internalType": "address",
          "name": "",
          "type": "address"
        }
      ],
      "stateMutability": "view",
      "type": "function"
    },
    {
      "inputs": [],
      "name": "pendingOwner",
      "outputs": [
        {
          "internalType": "address",
          "name": "",
          "type": "address"
        }
      ],
      "stateMutability": "view",
      "type": "function"
    },
    {
      "inputs": [
        {
          "internalType": "address",
          "name": "tradeAddr",
          "type": "address"
        },
        {
          "internalType": "uint112",
          "name": "token0In",
          "type": "uint112"
        },
        {
          "internalType": "uint112",
          "name": "token1ForPrice",
          "type": "uint112"
        }
      ],
      "name": "placeOrder",
      "outputs": [
        {
          "internalType": "uint112",
          "name": "token0Paid",
          "type": "uint112"
        },
        {
          "internalType": "uint112",
          "name": "token1Gain",
          "type": "uint112"
        },
        {
          "internalType": "uint112",
          "name": "token0Fee",
          "type": "uint112"
        }
      ],
      "stateMutability": "nonpayable",
      "type": "function"
    },
    {
      "inputs": [
        {
          "internalType": "address",
          "name": "tokenA",
          "type": "address"
        },
        {
          "internalType": "address",
          "name": "tokenB",
          "type": "address"
        }
      ],
      "name": "refreshApprove",
      "outputs": [],
      "stateMutability": "nonpayable",
      "type": "function"
    },
    {
      "inputs": [],
      "name": "renounceOwnership",
      "outputs": [],
      "stateMutability": "nonpayable",
      "type": "function"
    },
    {
      "inputs": [
        {
          "internalType": "address",
          "name": "tradeAddr",
          "type": "address"
        },
        {
          "internalType": "uint112",
          "name": "token0In",
          "type": "uint112"
        },
        {
          "internalType": "uint112",
          "name": "token1ForPrice",
          "type": "uint112"
        }
      ],
      "name": "takeOrder",
      "outputs": [
        {
          "internalType": "uint112",
          "name": "token0Paid",
          "type": "uint112"
        },
        {
          "internalType": "uint112",
          "name": "token1Gain",
          "type": "uint112"
        },
        {
          "internalType": "uint112",
          "name": "token0Fee",
          "type": "uint112"
        }
      ],
      "stateMutability": "nonpayable",
      "type": "function"
    },
    {
      "inputs": [
        {
          "internalType": "address",
          "name": "newOwner",
          "type": "address"
        }
      ],
      "name": "transferOwnership",
      "outputs": [],
      "stateMutability": "nonpayable",
      "type": "function"
    },
    {
      "inputs": [
        {
          "internalType": "address",
          "name": "",
          "type": "address"
        }
      ],
      "name": "userOrdersLength",
      "outputs": [
        {
          "internalType": "uint48",
          "name": "",
          "type": "uint48"
        }
      ],
      "stateMutability": "view",
      "type": "function"
    }
  ],
  "bytecode": "0x60806040523480156200001157600080fd5b506200001d3362000035565b600280546001600160a01b03191633179055620000a3565b600180546001600160a01b0319169055620000508162000053565b50565b600080546001600160a01b038381166001600160a01b0319831681178455604051919092169283917f8be0079c531659141344cd1fd0a4f28419497f9722a3daafe3b4186f6b6457e09190a35050565b61506080620000b36000396000f3fe60806040523480156200001157600080fd5b5060043610620001395760003560e01c8063b2ee08da11620000bb578063f06675a8116200007a578063f06675a81462000319578063f2616274146200033f578063f2fde38b1462000356578063f519e79f146200036d578063f8b4f89d146200039357600080fd5b8063b2ee08da1462000261578063c3fe2c34146200029c578063c9c6539614620002b3578063ddca3f4314620002eb578063e30c3978146200030757600080fd5b80635ad57ce211620001085780635ad57ce214620001ce578063715018a6146200021057806377309f4e146200021a57806379ba509714620002455780638da5cb5b146200024f57600080fd5b8063017e7e58146200013e57806321a0e632146200016f57806323b1cde4146200019e5780632f38842714620001b7575b600080fd5b60025462000152906001600160a01b031681565b6040516001600160a01b0390911681526020015b60405180910390f35b620001866200018036600462002763565b620003aa565b60405165ffffffffffff909116815260200162000166565b620001b5620001af366004620027c8565b6200055e565b005b620001b5620001c8366004620027e8565b6200058a565b620001e5620001df36600462002826565b62000689565b604080516001600160701b039485168152928416602084015292169181019190915260600162000166565b620001b562000acf565b620001866200022b366004620027c8565b60056020526000908152604090205465ffffffffffff1681565b620001b562000ae7565b6000546001600160a01b031662000152565b6200015262000272366004620027e8565b6001600160a01b039182166000908152600360209081526040808320938516835292905220541690565b620001e5620002ad36600462002826565b62000b65565b620002ca620002c4366004620027e8565b62000e13565b604080516001600160a01b0393841681529290911660208301520162000166565b620002f4606481565b60405160ff909116815260200162000166565b6001546001600160a01b031662000152565b620003306200032a36600462002888565b62001256565b604051620001669190620028cf565b6200015262000350366004620027e8565b62001544565b620001b562000367366004620027c8565b62001653565b620003846200037e3660046200294f565b620016c7565b604051620001669190620029ea565b62000186620003a436600462002763565b62001e8f565b6000808590506000816001600160a01b031663d21220a76040518163ffffffff1660e01b8152600401602060405180830381865afa158015620003f1573d6000803e3d6000fd5b505050506040513d601f19601f8201168201806040525081019062000417919062002b11565b9050620004396001600160a01b03821633306001600160701b038a16620020d8565b6000620004498888888862001e8f565b60405163d9d8f54160e01b81526001600160701b03808a1660048301528816602482015265ffffffffffff821660448201529091506001600160a01b0384169063d9d8f541906064016020604051808303816000875af1158015620004b2573d6000803e3d6000fd5b505050506040513d601f19601f82011682018060405250810190620004d8919062002b31565b604051636a89ab7960e11b815265ffffffffffff821660048201523360248201529094506001600160a01b0384169063d51356f290604401600060405180830381600087803b1580156200052b57600080fd5b505af115801562000540573d6000803e3d6000fd5b5050505062000553888560008062002212565b505050949350505050565b6200056862002369565b600280546001600160a01b0319166001600160a01b0392909216919091179055565b6001600160a01b03808316600090815260036020908152604080832085851684529091529020541680620005db5760405162461bcd60e51b8152600401620005d29062002b51565b60405180910390fd5b620005f36001600160a01b03841682600019620023c5565b6200060b6001600160a01b03831682600019620023c5565b6001600160a01b03808316600090815260036020908152604080832087851684529091529020541680620006535760405162461bcd60e51b8152600401620005d29062002b51565b6200066b6001600160a01b03851682600019620023c5565b620006836001600160a01b03841682600019620023c5565b50505050565b6000806000808690506000816001600160a01b0316630dfe16816040518163ffffffff1660e01b8152600401602060405180830381865afa158015620006d3573d6000803e3d6000fd5b505050506040513d601f19601f82011682018060405250810190620006f9919062002b11565b90506000826001600160a01b031663d21220a76040518163ffffffff1660e01b8152600401602060405180830381865afa1580156200073c573d6000803e3d6000fd5b505050506040513d601f19601f8201168201806040525081019062000762919062002b11565b90506000612710846001600160a01b031663ddca3f436040518163ffffffff1660e01b8152600401602060405180830381865afa158015620007a8573d6000803e3d6000fd5b505050506040513d601f19601f82011682018060405250810190620007ce919062002ba1565b620007dd9060ff168b62002bd7565b620007e9919062002c05565b90506000620007f98a8362002c3a565b90506200081b6001600160a01b03851633306001600160701b038516620020d8565b604051631a4bce9160e21b81526001600160701b03808c1660048301528a1660248201526001600160a01b0386169063692f3a44906044016060604051808303816000875af115801562000873573d6000803e3d6000fd5b505050506040513d601f19601f8201168201806040525081019062000899919062002c64565b919950975095506001600160701b03871615620008cf57620008cf6001600160a01b038416336001600160701b038a16620024ea565b856001600160701b0316826001600160701b0316111562000916576200091633620008fb888562002cad565b6001600160a01b03871691906001600160701b0316620024ea565b876001600160701b03168a6001600160701b0316111562000ab25760006200093f898c62002cad565b905060008b620009508c8462002bd7565b6200095c919062002c05565b6001600160a01b0380871660009081526003602090815260408083208b851684529091528120549091169e508e98509091506200099c8884848462001e8f565b60405163d9d8f54160e01b81526001600160701b0380861660048301528416602482015265ffffffffffff821660448201529091506000906001600160a01b038a169063d9d8f541906064016020604051808303816000875af115801562000a08573d6000803e3d6000fd5b505050506040513d601f19601f8201168201806040525081019062000a2e919062002b31565b604051636a89ab7960e11b815265ffffffffffff821660048201523360248201529091506001600160a01b038a169063d51356f290604401600060405180830381600087803b15801562000a8157600080fd5b505af115801562000a96573d6000803e3d6000fd5b5050505062000aa88f828e8e62002212565b5050505062000ac1565b62000ac18b60008a8a62002212565b505050505093509350939050565b62000ad962002369565b62000ae5600062002608565b565b60015433906001600160a01b0316811462000b575760405162461bcd60e51b815260206004820152602960248201527f4f776e61626c6532537465703a2063616c6c6572206973206e6f7420746865206044820152683732bb9037bbb732b960b91b6064820152608401620005d2565b62000b628162002608565b50565b6000806000808690506000816001600160a01b0316630dfe16816040518163ffffffff1660e01b8152600401602060405180830381865afa15801562000baf573d6000803e3d6000fd5b505050506040513d601f19601f8201168201806040525081019062000bd5919062002b11565b90506000826001600160a01b031663d21220a76040518163ffffffff1660e01b8152600401602060405180830381865afa15801562000c18573d6000803e3d6000fd5b505050506040513d601f19601f8201168201806040525081019062000c3e919062002b11565b90506000612710846001600160a01b031663ddca3f436040518163ffffffff1660e01b8152600401602060405180830381865afa15801562000c84573d6000803e3d6000fd5b505050506040513d601f19601f8201168201806040525081019062000caa919062002ba1565b62000cb99060ff168b62002bd7565b62000cc5919062002c05565b9050600062000cd58a8362002c3a565b905062000cf76001600160a01b03851633306001600160701b038516620020d8565b604051631a4bce9160e21b81526001600160701b03808c1660048301528a1660248201526001600160a01b0386169063692f3a44906044016060604051808303816000875af115801562000d4f573d6000803e3d6000fd5b505050506040513d601f19601f8201168201806040525081019062000d75919062002c64565b9199509750955062000d9b6001600160a01b038416336001600160701b038a16620024ea565b876001600160701b03168a6001600160701b0316111562000ab257600062000dc4898c62002cad565b9050600062000dd4888562002cad565b905062000e023362000de7838562002c3a565b6001600160a01b03891691906001600160701b0316620024ea565b505062000ac18b60008a8a62002212565b600080826001600160a01b0316846001600160a01b03160362000e9f5760405162461bcd60e51b815260206004820152603f60248201527f5472616465536572766963653a20637265617465506169723a3a20746f6b656e60448201527f4120616e6420746f6b656e422063616e6e6f74206265207468652073616d65006064820152608401620005d2565b6001600160a01b03841662000f0d5760405162461bcd60e51b815260206004820152602d60248201527f5472616465536572766963653a20637265617465506169723a3a20746f6b656e60448201526c0412063616e6e6f74206265203609c1b6064820152608401620005d2565b6001600160a01b03831662000f7b5760405162461bcd60e51b815260206004820152602d60248201527f5472616465536572766963653a20637265617465506169723a3a20746f6b656e60448201526c0422063616e6e6f74206265203609c1b6064820152608401620005d2565b6001600160a01b038481166000908152600360209081526040808320878516845290915290205416156200100b5760405162461bcd60e51b815260206004820152603060248201527f5472616465536572766963653a20637265617465506169723a3a20747261646560448201526f105088185b1c9958591e48195e1a5cdd60821b6064820152608401620005d2565b6001600160a01b038381166000908152600360209081526040808320888516845290915290205416156200109b5760405162461bcd60e51b815260206004820152603060248201527f5472616465536572766963653a20637265617465506169723a3a20747261646560448201526f109048185b1c9958591e48195e1a5cdd60821b6064820152608401620005d2565b60008484604051602001620010b292919062002cd0565b6040516020818303038152906040528051906020012090508085856064604051620010dd90620026be565b620010eb9392919062002cf2565b8190604051809103906000f59050801580156200110c573d6000803e3d6000fd5b506001600160a01b038681166000908152600360209081526040808320898516845282529182902080546001600160a01b03191693851693909317909255519194506200115e91869188910162002cd0565b60405160208183030381529060405280519060200120905080848660646040516200118990620026be565b620011979392919062002cf2565b8190604051809103906000f5905080158015620011b8573d6000803e3d6000fd5b506001600160a01b0385811660009081526003602090815260408083208a85168452909152902080546001600160a01b03191691831691909117905591506200120285856200058a565b604080516001600160a01b038581168252848116602083015280871692908816917f528a7392e6fd550c4de9e894c55879cd7a03e87f1ac9ddafe8677a2ac1d8cf9f910160405180910390a3509250929050565b606060008260ff1667ffffffffffffffff81111562001279576200127962002d18565b604051908082528060200260200182016040528015620012cd57816020015b604080516080810182526000808252602080830182905292820181905260608201528252600019909201910181620012985790505b5090508465ffffffffffff85166000036200134a57806001600160a01b03166399a3bd236040518163ffffffff1660e01b8152600401602060405180830381865afa15801562001321573d6000803e3d6000fd5b505050506040513d601f19601f8201168201806040525081019062001347919062002b31565b94505b604051633e710cd560e11b815265ffffffffffff861660048201526000906001600160a01b03831690637ce219aa9060240160c060405180830381865afa1580156200139a573d6000803e3d6000fd5b505050506040513d601f19601f82011682018060405250810190620013c0919062002d48565b905060405180608001604052808765ffffffffffff16815260200182606001516001600160701b0316815260200182608001516001600160701b031681526020018260a0015163ffffffff168152508360008151811062001425576200142562002e01565b602090810291909101015260015b8560ff168160ff16101562001536576020820151604051633e710cd560e11b815265ffffffffffff821660048201526001600160a01b03851690637ce219aa9060240160c060405180830381865afa15801562001494573d6000803e3d6000fd5b505050506040513d601f19601f82011682018060405250810190620014ba919062002d48565b925060405180608001604052808265ffffffffffff16815260200184606001516001600160701b0316815260200184608001516001600160701b031681526020018460a0015163ffffffff16815250858360ff168151811062001521576200152162002e01565b60209081029190910101525060010162001433565b5091925050505b9392505050565b60008083836040516020016200155c92919062002cd0565b604051602081830303815290604052805190602001209050600060ff60f81b3083604051806020016200158f90620026be565b601f1982820381018352601f909101166040819052620015b9908a908a9060649060200162002cf2565b60408051601f1981840301815290829052620015d9929160200162002e17565b604051602081830303815290604052805190602001206040516020016200163294939291906001600160f81b031994909416845260609290921b6001600160601b03191660018401526015830152603582015260550190565b60408051808303601f19018152919052805160209091012095945050505050565b6200165d62002369565b600180546001600160a01b0383166001600160a01b031990911681179091556200168f6000546001600160a01b031690565b6001600160a01b03167f38d16b8cac22d99fc7c124b9cd0de2d3fa1faef420bfe791d8c362d765e2270060405160405180910390a350565b606060008265ffffffffffff1667ffffffffffffffff811115620016ef57620016ef62002d18565b6040519080825280602002602001820160405280156200172c57816020015b62001718620026cc565b8152602001906001900390816200170e5790505b5090508365ffffffffffff1660000362001764576001600160a01b03851660009081526005602052604090205465ffffffffffff1693505b8365ffffffffffff166000036200177d5790506200153d565b835b65ffffffffffff841662001794828762002e4a565b65ffffffffffff16108015620017b2575060008165ffffffffffff16115b1562001e8657600060046000620017ca898562002623565b65ffffffffffff191681526020808201929092526040908101600020815160a08101835281546001600160a01b038116825265ffffffffffff600160a01b82041694820194909452600160d01b90930463ffffffff1691830191909152600101546001600160701b038082166060840152600160701b909104166080820152905062001855620026cc565b816020015165ffffffffffff1660000362001aa3576040518061014001604052808465ffffffffffff16815260200183600001516001600160a01b0316815260200183600001516001600160a01b0316630dfe16816040518163ffffffff1660e01b8152600401602060405180830381865afa158015620018da573d6000803e3d6000fd5b505050506040513d601f19601f8201168201806040525081019062001900919062002b11565b6001600160a01b03166395d89b416040518163ffffffff1660e01b8152600401600060405180830381865afa1580156200193e573d6000803e3d6000fd5b505050506040513d6000823e601f3d908101601f1916820160405262001968919081019062002e6c565b815260200183600001516001600160a01b031663d21220a76040518163ffffffff1660e01b8152600401602060405180830381865afa158015620019b0573d6000803e3d6000fd5b505050506040513d601f19601f82011682018060405250810190620019d6919062002b11565b6001600160a01b03166395d89b416040518163ffffffff1660e01b8152600401600060405180830381865afa15801562001a14573d6000803e3d6000fd5b505050506040513d6000823e601f3d908101601f1916820160405262001a3e919081019062002e6c565b8152602001600065ffffffffffff168152602001836040015163ffffffff16815260200183606001516001600160701b0316815260200183608001516001600160701b0316815260200163ffffffff8016815260200160011515815250905062001e3c565b81516020830151604051633e710cd560e11b815265ffffffffffff90911660048201526000916001600160a01b031690637ce219aa9060240160c060405180830381865afa15801562001afa573d6000803e3d6000fd5b505050506040513d601f19601f8201168201806040525081019062001b20919062002d48565b9050600063ffffffff80168260a0015163ffffffff16101562001bb0578360600151826060015162001b53919062002c3a565b60608086015160a08501519185015163ffffffff92839162001b789183169062002bd7565b62001b84919062002c05565b62001b90919062002c3a565b62001b9c919062002bd7565b62001ba8919062002c05565b905062001bb7565b5063ffffffff5b6040518061014001604052808665ffffffffffff16815260200185600001516001600160a01b0316815260200185600001516001600160a01b0316630dfe16816040518163ffffffff1660e01b8152600401602060405180830381865afa15801562001c27573d6000803e3d6000fd5b505050506040513d601f19601f8201168201806040525081019062001c4d919062002b11565b6001600160a01b03166395d89b416040518163ffffffff1660e01b8152600401600060405180830381865afa15801562001c8b573d6000803e3d6000fd5b505050506040513d6000823e601f3d908101601f1916820160405262001cb5919081019062002e6c565b815260200185600001516001600160a01b031663d21220a76040518163ffffffff1660e01b8152600401602060405180830381865afa15801562001cfd573d6000803e3d6000fd5b505050506040513d601f19601f8201168201806040525081019062001d23919062002b11565b6001600160a01b03166395d89b416040518163ffffffff1660e01b8152600401600060405180830381865afa15801562001d61573d6000803e3d6000fd5b505050506040513d6000823e601f3d908101601f1916820160405262001d8b919081019062002e6c565b8152602001856020015165ffffffffffff168152602001856040015163ffffffff1681526020018560600151846060015162001dc8919062002c3a565b6001600160701b0316815260200183606001518660600151856060015162001df1919062002c3a565b856080015162001e02919062002bd7565b62001e0e919062002c05565b6001600160701b0316815263ffffffff9092166020830152915165ffffffffffff9081161460409091015290505b808462001e4a858a62002e4a565b65ffffffffffff168151811062001e655762001e6562002e01565b602002602001018190525050508062001e7e9062002f25565b90506200177f565b50949350505050565b6000808590506000816001600160a01b03166399a3bd236040518163ffffffff1660e01b8152600401602060405180830381865afa15801562001ed6573d6000803e3d6000fd5b505050506040513d601f19601f8201168201806040525081019062001efc919062002b31565b90508065ffffffffffff1660000362001f1b57600092505050620020d0565b8365ffffffffffff1660000362001f30578093505b604051632784e81560e01b815265ffffffffffff851660048201526000908190819081906001600160a01b03871690632784e8159060240160c060405180830381865afa15801562001f86573d6000803e3d6000fd5b505050506040513d601f19601f8201168201806040525081019062001fac919062002f4a565b50945094505093509350816001600160701b031660001415801562001fd9575065ffffffffffff84811614155b1562001fe3578794505b62001fef898362002bd7565b6001600160701b0316620020048b8362002bd7565b6001600160701b031611156200202357839650505050505050620020d0565b8265ffffffffffff166000036200204357849650505050505050620020d0565b604051632784e81560e01b815265ffffffffffff8416600482015292945084926001600160a01b03871690632784e8159060240160c060405180830381865afa15801562002095573d6000803e3d6000fd5b505050506040513d601f19601f82011682018060405250810190620020bb919062002f4a565b5093975091955090935090915062001fe39050565b949350505050565b604080516001600160a01b0385811660248301528481166044830152606480830185905283518084039091018152608490920183526020820180516001600160e01b03166323b872dd60e01b17905291516000928392908816916200213e919062002fd9565b6000604051808303816000865af19150503d80600081146200217d576040519150601f19603f3d011682016040523d82523d6000602084013e62002182565b606091505b5091509150818015620021b0575080511580620021b0575080806020019051810190620021b0919062002ff7565b6200220a5760405162461bcd60e51b8152602060048201526024808201527f5472616e7366657248656c7065723a205452414e534645525f46524f4d5f46416044820152631253115160e21b6064820152608401620005d2565b505050505050565b3360009081526005602052604090205465ffffffffffff168062002236816200301b565b9150506040518060a00160405280866001600160a01b031681526020018565ffffffffffff1681526020014263ffffffff168152602001846001600160701b03168152602001836001600160701b03168152506004600062002299338562002623565b65ffffffffffff1990811682526020808301939093526040918201600090812085518154878701518887015163ffffffff16600160d01b0263ffffffff60d01b1965ffffffffffff928316600160a01b026001600160d01b03199094166001600160a01b039095169490941792909217929092161782556060870151600190920180546080909801516001600160701b03908116600160701b026001600160e01b031990991693169290921796909617905533815260059093529120805493909216921691909117905550505050565b6000546001600160a01b0316331462000ae55760405162461bcd60e51b815260206004820181905260248201527f4f776e61626c653a2063616c6c6572206973206e6f7420746865206f776e65726044820152606401620005d2565b604080516001600160a01b038481166024830152604480830185905283518084039091018152606490920183526020820180516001600160e01b031663095ea7b360e01b179052915160009283929087169162002423919062002fd9565b6000604051808303816000865af19150503d806000811462002462576040519150601f19603f3d011682016040523d82523d6000602084013e62002467565b606091505b5091509150818015620024955750805115806200249557508080602001905181019062002495919062002ff7565b620024e35760405162461bcd60e51b815260206004820152601e60248201527f5472616e7366657248656c7065723a20415050524f56455f4641494c454400006044820152606401620005d2565b5050505050565b604080516001600160a01b038481166024830152604480830185905283518084039091018152606490920183526020820180516001600160e01b031663a9059cbb60e01b179052915160009283929087169162002548919062002fd9565b6000604051808303816000865af19150503d806000811462002587576040519150601f19603f3d011682016040523d82523d6000602084013e6200258c565b606091505b5091509150818015620025ba575080511580620025ba575080806020019051810190620025ba919062002ff7565b620024e35760405162461bcd60e51b815260206004820152601f60248201527f5472616e7366657248656c7065723a205452414e534645525f4641494c4544006044820152606401620005d2565b600180546001600160a01b031916905562000b62816200266e565b6040516001600160601b0319606084901b1660208201526001600160d01b031960d083901b166034820152600090603a016040516020818303038152906040526200153d9062003043565b600080546001600160a01b038381166001600160a01b0319831681178455604051919092169283917f8be0079c531659141344cd1fd0a4f28419497f9722a3daafe3b4186f6b6457e09190a35050565b611fb0806200307b83390190565b60408051610140810182526000808252602082018190526060928201839052828201929092526080810182905260a0810182905260c0810182905260e08101829052610100810182905261012081019190915290565b6001600160a01b038116811462000b6257600080fd5b6001600160701b038116811462000b6257600080fd5b65ffffffffffff8116811462000b6257600080fd5b600080600080608085870312156200277a57600080fd5b8435620027878162002722565b93506020850135620027998162002738565b92506040850135620027ab8162002738565b91506060850135620027bd816200274e565b939692955090935050565b600060208284031215620027db57600080fd5b81356200153d8162002722565b60008060408385031215620027fc57600080fd5b8235620028098162002722565b915060208301356200281b8162002722565b809150509250929050565b6000806000606084860312156200283c57600080fd5b8335620028498162002722565b925060208401356200285b8162002738565b915060408401356200286d8162002738565b809150509250925092565b60ff8116811462000b6257600080fd5b6000806000606084860312156200289e57600080fd5b8335620028ab8162002722565b92506020840135620028bd816200274e565b915060408401356200286d8162002878565b602080825282518282018190526000919060409081850190868401855b8281101562002942578151805165ffffffffffff168552868101516001600160701b039081168887015286820151168686015260609081015163ffffffff169085015260809093019290850190600101620028ec565b5091979650505050505050565b6000806000606084860312156200296557600080fd5b8335620029728162002722565b9250602084013562002984816200274e565b915060408401356200286d816200274e565b60005b83811015620029b357818101518382015260200162002999565b50506000910152565b60008151808452620029d681602086016020860162002996565b601f01601f19169290920160200192915050565b600060208083018184528085518083526040925060408601915060408160051b87010184880160005b8381101562002b0357888303603f190185528151805165ffffffffffff168452610140818901516001600160a01b038116868b01525087820151818987015262002a6082870182620029bc565b9150506060808301518683038288015262002a7c8382620029bc565b9250505060808083015162002a9a8288018265ffffffffffff169052565b505060a08281015163ffffffff9081169187019190915260c0808401516001600160701b039081169188019190915260e0808501519091169087015261010080840151909116908601526101209182015115159190940152938601939086019060010162002a13565b509098975050505050505050565b60006020828403121562002b2457600080fd5b81516200153d8162002722565b60006020828403121562002b4457600080fd5b81516200153d816200274e565b60208082526030908201527f5472616465536572766963653a2072656672657368417070726f76653a3a207460408201526f1c9859195050881b9bdd08195e1a5cdd60821b606082015260800190565b60006020828403121562002bb457600080fd5b81516200153d8162002878565b634e487b7160e01b600052601160045260246000fd5b6001600160701b0381811683821602808216919082811462002bfd5762002bfd62002bc1565b505092915050565b60006001600160701b038084168062002c2e57634e487b7160e01b600052601260045260246000fd5b92169190910492915050565b6001600160701b0381811683821601908082111562002c5d5762002c5d62002bc1565b5092915050565b60008060006060848603121562002c7a57600080fd5b835162002c878162002738565b602085015190935062002c9a8162002738565b60408501519092506200286d8162002738565b6001600160701b0382811682821603908082111562002c5d5762002c5d62002bc1565b6001600160601b0319606093841b811682529190921b16601482015260280190565b6001600160a01b03938416815291909216602082015260ff909116604082015260600190565b634e487b7160e01b600052604160045260246000fd5b805163ffffffff8116811462002d4357600080fd5b919050565b600060c0828403121562002d5b57600080fd5b60405160c0810181811067ffffffffffffffff8211171562002d815762002d8162002d18565b604052825162002d91816200274e565b8152602083015162002da3816200274e565b6020820152604083015162002db88162002722565b6040820152606083015162002dcd8162002738565b6060820152608083015162002de28162002738565b608082015262002df560a0840162002d2e565b60a08201529392505050565b634e487b7160e01b600052603260045260246000fd5b6000835162002e2b81846020880162002996565b83519083019062002e4181836020880162002996565b01949350505050565b65ffffffffffff82811682821603908082111562002c5d5762002c5d62002bc1565b60006020828403121562002e7f57600080fd5b815167ffffffffffffffff8082111562002e9857600080fd5b818401915084601f83011262002ead57600080fd5b81518181111562002ec25762002ec262002d18565b604051601f8201601f19908116603f0116810190838211818310171562002eed5762002eed62002d18565b8160405282815287602084870101111562002f0757600080fd5b62002f1a83602083016020880162002996565b979650505050505050565b600065ffffffffffff82168062002f405762002f4062002bc1565b6000190192915050565b60008060008060008060c0878903121562002f6457600080fd5b865162002f71816200274e565b602088015190965062002f84816200274e565b604088015190955062002f978162002722565b606088015190945062002faa8162002738565b608088015190935062002fbd8162002738565b915062002fcd60a0880162002d2e565b90509295509295509295565b6000825162002fed81846020870162002996565b9190910192915050565b6000602082840312156200300a57600080fd5b815180151581146200153d57600080fd5b600065ffffffffffff80831681810362003039576200303962002bc1565b6001019392505050565b8051602082015165ffffffffffff19808216929190601a8310156200307257808184601a0360031b1b83161693505b50505091905056fe6101006040526000805465ffffffffffff191690553480156200002157600080fd5b5060405162001fb038038062001fb0833981016040819052620000449162000084565b6001600160a01b03928316608052911660a05260ff1660c0523360e052620000d7565b80516001600160a01b03811681146200007f57600080fd5b919050565b6000806000606084860312156200009a57600080fd5b620000a58462000067565b9250620000b56020850162000067565b9150604084015160ff81168114620000cc57600080fd5b809150509250925092565b60805160a05160c05160e051611e4c6200016460003960008181610384015281816107a8015281816107d801526107fe015260008181610425015261089c0152600081816103ab0152818161098301528181610cc4015261184501526000818160ec0152818161048c0152818161062501528181610746015281816108ea01526109370152611e4c6000f3fe608060405234801561001057600080fd5b50600436106100b45760003560e01c8063c45a015511610071578063c45a01551461037f578063d21220a7146103a6578063d51356f2146103cd578063d9d8f541146103e2578063dbc4ba87146103f5578063ddca3f431461042057600080fd5b806306661abd146100b95780630dfe1681146100e75780632784e81514610126578063692f3a44146101ef5780637ce219aa1461022c57806399a3bd231461036d575b600080fd5b6000546100cb9065ffffffffffff1681565b60405165ffffffffffff90911681526020015b60405180910390f35b61010e7f000000000000000000000000000000000000000000000000000000000000000081565b6040516001600160a01b0390911681526020016100de565b610199610134366004611bb6565b6001602081905260009182526040909120805491015465ffffffffffff80831692600160301b810490911691600160601b9091046001600160a01b0316906001600160701b0380821691600160701b810490911690600160e01b900463ffffffff1686565b6040805165ffffffffffff97881681529690951660208701526001600160a01b03909316938501939093526001600160701b039081166060850152909116608083015263ffffffff1660a082015260c0016100de565b6102026101fd366004611be8565b610459565b604080516001600160701b03948516815292841660208401529216918101919091526060016100de565b6102f861023a366004611bb6565b6040805160c081018252600080825260208201819052918101829052606081018290526080810182905260a08101919091525065ffffffffffff908116600090815260016020818152604092839020835160c08101855281548087168252600160301b810490961692810192909252600160601b9094046001600160a01b03169281019290925291909101546001600160701b038082166060840152600160701b8204166080830152600160e01b900463ffffffff1660a082015290565b6040516100de9190600060c08201905065ffffffffffff8084511683528060208501511660208401525060018060a01b03604084015116604083015260608301516001600160701b038082166060850152806080860151166080850152505063ffffffff60a08401511660a083015292915050565b6002546100cb9065ffffffffffff1681565b61010e7f000000000000000000000000000000000000000000000000000000000000000081565b61010e7f000000000000000000000000000000000000000000000000000000000000000081565b6103e06103db366004611c30565b610a01565b005b6100cb6103f0366004611c67565b610bcd565b610408610403366004611bb6565b611657565b6040516001600160701b0390911681526020016100de565b6104477f000000000000000000000000000000000000000000000000000000000000000081565b60405160ff90911681526020016100de565b6002546000908190819065ffffffffffff16810361047f575060009150819050806109fa565b6104bd6001600160a01b037f00000000000000000000000000000000000000000000000000000000000000001633306001600160701b0389166118b9565b845b60025465ffffffffffff16156107975760025465ffffffffffff1660009081526001602081905260409091209081015461050990600160701b90046001600160701b031687611cc0565b60018201546001600160701b0391821691610525911689611cc0565b6001600160701b0316101561053a5750610797565b600181015460009063ffffffff90610565906001600160701b03811690600160e01b90048316611cc0565b61056f9190611ceb565b60018301549091506000906001600160701b0380821691600160701b9004166105988483611d1f565b6105a29190611cc0565b6105ac9190611ceb565b9050806001600160701b0316846001600160701b03161061069b576105d18185611d1f565b60018401549094506105ed9083906001600160701b0316611d1f565b6105f79087611d46565b9550610602836119e9565b6001830180546001600160e01b03166001600160e01b03191790558254610667907f00000000000000000000000000000000000000000000000000000000000000006001600160a01b0390811691600160601b9004166001600160701b038416611a80565b825465ffffffffffff1990811665ffffffffffff90811780865560028054909316600160301b90910490911617905561078f565b60018301546000906001600160701b03600160701b82048116916106c0911687611cc0565b6106ca9190611ceb565b90506106d68188611d46565b96506106e28184611d46565b60018501549093506001600160701b031661070163ffffffff85611cc0565b61070b9190611ceb565b610716906001611d66565b6001850180546001600160e01b0316600160e01b63ffffffff938416021790558454610782916001600160a01b037f0000000000000000000000000000000000000000000000000000000000000000811692600160601b900416906001600160701b03891690611a8016565b6000945050505050610797565b5050506104bf565b6107a18187611d1f565b93506000807f00000000000000000000000000000000000000000000000000000000000000006001600160a01b03163b116107fc577f0000000000000000000000000000000000000000000000000000000000000000610880565b7f00000000000000000000000000000000000000000000000000000000000000006001600160a01b031663017e7e586040518163ffffffff1660e01b81526004016020604051808303816000875af115801561085c573d6000803e3d6000fd5b505050506040513d601f19601f820116820180604052508101906108809190611d83565b9050336001600160a01b0382161461091b576127106108c260ff7f00000000000000000000000000000000000000000000000000000000000000001687611cc0565b6108cc9190611ceb565b92506001600160701b0383161561091b5761091b6001600160a01b037f00000000000000000000000000000000000000000000000000000000000000001633836001600160701b0387166118b9565b6001600160701b03821615610967576109676001600160a01b037f000000000000000000000000000000000000000000000000000000000000000016336001600160701b038516611a80565b6001600160701b038416156109f7576109b36001600160a01b037f000000000000000000000000000000000000000000000000000000000000000016336001600160701b038716611a80565b604080516001600160701b038088168252861660208201527fb7450b19733c0654e83e08ccdc9716e46e17ca73c620c0379de9b8b580836e3e910160405180910390a15b50505b9250925092565b65ffffffffffff821660009081526001602052604090208054600160601b90046001600160a01b03163314610aa35760405162461bcd60e51b815260206004820152603c60248201527f4d6f6e6f54726164653a206368616e67654f726465724f776e65723a3a20796f60448201527f7520617265206e6f74206f776e6572206f6620746865206f726465720000000060648201526084015b60405180910390fd5b805465ffffffffffff1665fffffffffffe1901610b2a576040805162461bcd60e51b81526020600482015260248101919091527f4d6f6e6f54726164653a206368616e67654f726465724f776e65723a3a20746860448201527f65206f7264657220697320616c72656164792072656d6f76656428646f6e65296064820152608401610a9a565b6001600160a01b038216610ba65760405162461bcd60e51b815260206004820152603a60248201527f4d6f6e6f54726164653a206368616e67654f726465724f776e65723a3a206e6560448201527f774f776e65722063616e277420626520616464726573732830290000000000006064820152608401610a9a565b80546001600160a01b03909216600160601b026001600160601b0390921691909117905550565b600080846001600160701b031611610c425760405162461bcd60e51b815260206004820152603260248201527f4d6f6e6f54726164653a206d616b654f726465723a3a20746f6b656e31496e206044820152710616d6f756e742063616e6e6f7420626520360741b6064820152608401610a9a565b6000836001600160701b031611610cb75760405162461bcd60e51b815260206004820152603360248201527f4d6f6e6f54726164653a206d616b654f726465723a3a20746f6b656e304f7574604482015272020616d6f756e742063616e6e6f74206265203606c1b6064820152608401610a9a565b610cf56001600160a01b037f00000000000000000000000000000000000000000000000000000000000000001633306001600160701b0388166118b9565b600080548190610d0c9065ffffffffffff16611da0565b82546101009290920a65ffffffffffff81810219909316918316021790915560025416600003610e3a57506040805160c08101825260008082526020808301828152338486019081526001600160701b03808a16606087019081528982166080880190815260a08801878152875465ffffffffffff908116895260019788905299882098518954965195516001600160a01b0316600160601b026001600160601b03968c16600160301b026001600160601b0319909816918c16919091179690961794909416949094178755519590930180549251915163ffffffff16600160e01b026001600160e01b03928516600160701b026001600160e01b03199094169690941695909517919091171617909155546002805465ffffffffffff191691909216908117909155611650565b8165ffffffffffff1660000361102c5760025465ffffffffffff16600090815260016020819052604090912090810154610e7e9085906001600160701b0316611cc0565b60018201546001600160701b0391821691610ea3918891600160701b90910416611cc0565b6001600160701b031611610f135760405162461bcd60e51b815260206004820152603160248201527f4d6f6e6f54726164653a206d616b654f726465723a3a20796f75722070726963604482015270329036bab9ba101f103a37b827b93232b960791b6064820152608401610a9a565b60008054825465ffffffffffff1990811665ffffffffffff928316179093556040805160c0810182528381526002805484166020808401918252338486019081526001600160701b03808e16606087019081528d82166080880190815260a088018b81528b548b168c52600195869052988b2097518854965194516001600160a01b0316600160601b026001600160601b03958c16600160301b026001600160601b0319909816918c1691909117969096179390931694909417865592519490910180549151955163ffffffff16600160e01b026001600160e01b03968416600160701b026001600160e01b03199093169590931694909417179390931692909217905591548254909316921691821790559050611650565b65ffffffffffff8216600090815260016020819052604082209081015490916001600160701b0390911690036110bc5760405162461bcd60e51b815260206004820152602f60248201527f4d6f6e6f54726164653a206d616b654f726465723a3a206265666f72654f726460448201526e195c881a5cc81b9bdd08195e1a5cdd608a1b6064820152608401610a9a565b805465ffffffffffff1665fffffffffffe19016111375760405162461bcd60e51b815260206004820152603360248201527f4d6f6e6f54726164653a206d616b654f726465723a3a206265666f72654f726460448201527265722069732072656d6f76656428646f6e652960681b6064820152608401610a9a565b60018101546111509085906001600160701b0316611cc0565b60018201546001600160701b0391821691611175918891600160701b90910416611cc0565b6001600160701b031611156111ea5760405162461bcd60e51b815260206004820152603560248201527f4d6f6e6f54726164653a206d616b654f726465723a3a20796f75722070726963604482015274329036bab9ba101e1e903132b337b932a7b93232b960591b6064820152608401610a9a565b8054600160301b900465ffffffffffff1660000361131257600080548254600160301b65ffffffffffff928316810265ffffffffffff60301b19909216919091179093556040805160c08101825286831681526020808201858152338385019081526001600160701b03808d16606086019081528c82166080870190815260a087018a81528a548a168b52600196879052978a2096518754955194516001600160a01b0316600160601b026001600160601b03958b16909c026001600160601b0319909616908a16179490941792909216989098178455519290910180549151935163ffffffff16600160e01b026001600160e01b03948816600160701b026001600160e01b0319909316939097169290921717919091169390931790925554169050611650565b8054600160301b900465ffffffffffff16600090815260016020819052604082209081015490916001600160701b0390911690036113a95760405162461bcd60e51b815260206004820152602e60248201527f4d6f6e6f54726164653a206d616b654f726465723a3a2061667465724f72646560448201526d1c881a5cc81b9bdd08195e1a5cdd60921b6064820152608401610a9a565b805465ffffffffffff1665fffffffffffe190161141d5760405162461bcd60e51b815260206004820152602c60248201527f4d6f6e6f54726164653a206d616b654f726465723a3a2061667465724f72646560448201526b1c881a5cc81c995b5bdd995960a21b6064820152608401610a9a565b60018101546114369086906001600160701b0316611cc0565b60018201546001600160701b039182169161145b918991600160701b90910416611cc0565b6001600160701b0316116114cd5760405162461bcd60e51b815260206004820152603360248201527f4d6f6e6f54726164653a206d616b654f726465723a3a20796f75722070726963604482015272329036bab9ba101f1030b33a32b927b93232b960691b6064820152608401610a9a565b6040805160c08101825265ffffffffffff80871682528454600160301b9081900482166020808501918252338587019081526001600160701b03808e16606088019081528d821660808901908152600060a08a0181815281548a1682526001968790528b82209a518b54985196516001600160a01b0316600160601b026001600160601b03978c168b026001600160601b0319909a16918c1691909117989098179590951696909617895590519790930180549351925163ffffffff16600160e01b026001600160e01b03938316600160701b026001600160e01b031990951698909216979097179290921716179093558254865490831690910265ffffffffffff60301b19919091161785558154845465ffffffffffff1916908216178455905491519116907f2336f98edea03fae5932cf9f26ce4784b74d1b3dec618bb0b78f68ba0c53fbb39061163890899089906001600160701b0392831681529116602082015260400190565b60405180910390a2505060005465ffffffffffff1690505b9392505050565b65ffffffffffff811660009081526001602052604081208054600160601b90046001600160a01b031633146116f45760405162461bcd60e51b815260206004820152603760248201527f4d6f6e6f54726164653a2063616e63656c4f726465723a3a20796f752061726560448201527f206e6f74206f776e6572206f6620746865206f726465720000000000000000006064820152608401610a9a565b805465ffffffffffff1665fffffffffffe19016117795760405162461bcd60e51b815260206004820152603b60248201527f4d6f6e6f54726164653a2063616e63656c4f726465723a3a20746865206f726460448201527f657220697320616c72656164792072656d6f76656428646f6e652900000000006064820152608401610a9a565b611782816119e9565b60025465ffffffffffff8085169116036117be57805460028054600160301b90920465ffffffffffff1665ffffffffffff199092169190911790555b805465ffffffffffff191665ffffffffffff178155600181015460009063ffffffff906117fe906001600160701b03811690600160e01b90048316611cc0565b6118089190611ceb565b60018301549091506118249082906001600160701b0316611d1f565b92506001600160701b038316156118b257815461187e906001600160a01b037f0000000000000000000000000000000000000000000000000000000000000000811691600160601b9004166001600160701b038616611a80565b60405165ffffffffffff8516907fc56e02aba5fc42d044055fc90697eeddfd7802afd1cc3ffaabb94e7890d4d58b90600090a25b5050919050565b604080516001600160a01b0385811660248301528481166044830152606480830185905283518084039091018152608490920183526020820180516001600160e01b03166323b872dd60e01b179052915160009283929088169161191d9190611dc5565b6000604051808303816000865af19150503d806000811461195a576040519150601f19603f3d011682016040523d82523d6000602084013e61195f565b606091505b50915091508180156119895750805115806119895750808060200190518101906119899190611df4565b6119e15760405162461bcd60e51b8152602060048201526024808201527f5472616e7366657248656c7065723a205452414e534645525f46524f4d5f46416044820152631253115160e21b6064820152608401610a9a565b505050505050565b805465ffffffffffff1615611a3357805465ffffffffffff8082166000908152600160205260409020805465ffffffffffff60301b1916600160301b938490049092169092021790555b8054600160301b900465ffffffffffff1615611a7d578054600160301b810465ffffffffffff9081166000908152600160205260409020805465ffffffffffff1916919092161790555b50565b604080516001600160a01b038481166024830152604480830185905283518084039091018152606490920183526020820180516001600160e01b031663a9059cbb60e01b1790529151600092839290871691611adc9190611dc5565b6000604051808303816000865af19150503d8060008114611b19576040519150601f19603f3d011682016040523d82523d6000602084013e611b1e565b606091505b5091509150818015611b48575080511580611b48575080806020019051810190611b489190611df4565b611b945760405162461bcd60e51b815260206004820152601f60248201527f5472616e7366657248656c7065723a205452414e534645525f4641494c4544006044820152606401610a9a565b5050505050565b803565ffffffffffff81168114611bb157600080fd5b919050565b600060208284031215611bc857600080fd5b61165082611b9b565b80356001600160701b0381168114611bb157600080fd5b60008060408385031215611bfb57600080fd5b611c0483611bd1565b9150611c1260208401611bd1565b90509250929050565b6001600160a01b0381168114611a7d57600080fd5b60008060408385031215611c4357600080fd5b611c4c83611b9b565b91506020830135611c5c81611c1b565b809150509250929050565b600080600060608486031215611c7c57600080fd5b611c8584611bd1565b9250611c9360208501611bd1565b9150611ca160408501611b9b565b90509250925092565b634e487b7160e01b600052601160045260246000fd5b6001600160701b03818116838216028082169190828114611ce357611ce3611caa565b505092915050565b60006001600160701b0380841680611d1357634e487b7160e01b600052601260045260246000fd5b92169190910492915050565b6001600160701b03828116828216039080821115611d3f57611d3f611caa565b5092915050565b6001600160701b03818116838216019080821115611d3f57611d3f611caa565b63ffffffff818116838216019080821115611d3f57611d3f611caa565b600060208284031215611d9557600080fd5b815161165081611c1b565b600065ffffffffffff808316818103611dbb57611dbb611caa565b6001019392505050565b6000825160005b81811015611de65760208186018101518583015201611dcc565b506000920191825250919050565b600060208284031215611e0657600080fd5b8151801515811461165057600080fdfea2646970667358221220cfce71ad8cda625cf13f1ca7de89534f40aeec6a4ca0f1aae8219a6aa782dc3564736f6c63430008180033a26469706673582212204c07a3df7f8e015ec434e8d21a86e788c185fd2bd937e1a56129158a0134c8e064736f6c63430008180033",
  "linkReferences": {},
  "deployedLinkReferences": {}
}