{
  "_format": "hh-sol-artifact-1",
  "contractName": "Time",
  "sourceName": "contracts/help/Time.sol",
  "abi": [
    {
      "inputs": [],
      "stateMutability": "nonpayable",
      "type": "constructor"
    },
    {
      "inputs": [],
      "name": "currBlockNum",
      "outputs": [
        {
          "internalType": "uint256",
          "name": "",
          "type": "uint256"
        }
      ],
      "stateMutability": "view",
      "type": "function"
    },
    {
      "inputs": [],
      "name": "nextBlock",
      "outputs": [],
      "stateMutability": "nonpayable",
      "type": "function"
    }
  ],
  "bytecode": "0x6080604052348015600f57600080fd5b50608a8061001e6000396000f3fe6080604052348015600f57600080fd5b506004361060325760003560e01c8063347866c914603757806383788fce14604a575b600080fd5b4360405190815260200160405180910390f35b605243600055565b00fea26469706673582212203f20f489b00f2ed9c570b5b4bba31a2e383c4fa433ea71acfdf2b769dc76916e64736f6c63430008180033",
  "linkReferences": {},
  "deployedLinkReferences": {}
}