{
  "_format": "hh-sol-artifact-1",
  "contractName": "MockZKID",
  "sourceName": "contracts/mock/MockZKID.sol",
  "abi": [
    {
      "inputs": [],
      "stateMutability": "nonpayable",
      "type": "constructor"
    },
    {
      "inputs": [
        {
          "internalType": "address",
          "name": "sender",
          "type": "address"
        },
        {
          "internalType": "uint256",
          "name": "tokenId",
          "type": "uint256"
        },
        {
          "internalType": "address",
          "name": "owner",
          "type": "address"
        }
      ],
      "name": "ERC721IncorrectOwner",
      "type": "error"
    },
    {
      "inputs": [
        {
          "internalType": "address",
          "name": "operator",
          "type": "address"
        },
        {
          "internalType": "uint256",
          "name": "tokenId",
          "type": "uint256"
        }
      ],
      "name": "ERC721InsufficientApproval",
      "type": "error"
    },
    {
      "inputs": [
        {
          "internalType": "address",
          "name": "approver",
          "type": "address"
        }
      ],
      "name": "ERC721InvalidApprover",
      "type": "error"
    },
    {
      "inputs": [
        {
          "internalType": "address",
          "name": "operator",
          "type": "address"
        }
      ],
      "name": "ERC721InvalidOperator",
      "type": "error"
    },
    {
      "inputs": [
        {
          "internalType": "address",
          "name": "owner",
          "type": "address"
        }
      ],
      "name": "ERC721InvalidOwner",
      "type": "error"
    },
    {
      "inputs": [
        {
          "internalType": "address",
          "name": "receiver",
          "type": "address"
        }
      ],
      "name": "ERC721InvalidReceiver",
      "type": "error"
    },
    {
      "inputs": [
        {
          "internalType": "address",
          "name": "sender",
          "type": "address"
        }
      ],
      "name": "ERC721InvalidSender",
      "type": "error"
    },
    {
      "inputs": [
        {
          "internalType": "uint256",
          "name": "tokenId",
          "type": "uint256"
        }
      ],
      "name": "ERC721NonexistentToken",
      "type": "error"
    },
    {
      "anonymous": false,
      "inputs": [
        {
          "indexed": true,
          "internalType": "address",
          "name": "owner",
          "type": "address"
        },
        {
          "indexed": true,
          "internalType": "address",
          "name": "approved",
          "type": "address"
        },
        {
          "indexed": true,
          "internalType": "uint256",
          "name": "tokenId",
          "type": "uint256"
        }
      ],
      "name": "Approval",
      "type": "event"
    },
    {
      "anonymous": false,
      "inputs": [
        {
          "indexed": true,
          "internalType": "address",
          "name": "owner",
          "type": "address"
        },
        {
          "indexed": true,
          "internalType": "address",
          "name": "operator",
          "type": "address"
        },
        {
          "indexed": false,
          "internalType": "bool",
          "name": "approved",
          "type": "bool"
        }
      ],
      "name": "ApprovalForAll",
      "type": "event"
    },
    {
      "anonymous": false,
      "inputs": [
        {
          "indexed": true,
          "internalType": "address",
          "name": "from",
          "type": "address"
        },
        {
          "indexed": true,
          "internalType": "address",
          "name": "to",
          "type": "address"
        },
        {
          "indexed": true,
          "internalType": "uint256",
          "name": "tokenId",
          "type": "uint256"
        }
      ],
      "name": "Transfer",
      "type": "event"
    },
    {
      "inputs": [
        {
          "internalType": "uint256",
          "name": "",
          "type": "uint256"
        }
      ],
      "name": "addressOf",
      "outputs": [
        {
          "internalType": "address",
          "name": "",
          "type": "address"
        }
      ],
      "stateMutability": "view",
      "type": "function"
    },
    {
      "inputs": [
        {
          "internalType": "address",
          "name": "to",
          "type": "address"
        },
        {
          "internalType": "uint256",
          "name": "tokenId",
          "type": "uint256"
        }
      ],
      "name": "approve",
      "outputs": [],
      "stateMutability": "nonpayable",
      "type": "function"
    },
    {
      "inputs": [
        {
          "internalType": "address",
          "name": "owner",
          "type": "address"
        }
      ],
      "name": "balanceOf",
      "outputs": [
        {
          "internalType": "uint256",
          "name": "",
          "type": "uint256"
        }
      ],
      "stateMutability": "view",
      "type": "function"
    },
    {
      "inputs": [
        {
          "internalType": "uint256",
          "name": "tokenId",
          "type": "uint256"
        }
      ],
      "name": "getApproved",
      "outputs": [
        {
          "internalType": "address",
          "name": "",
          "type": "address"
        }
      ],
      "stateMutability": "view",
      "type": "function"
    },
    {
      "inputs": [
        {
          "internalType": "address",
          "name": "owner",
          "type": "address"
        },
        {
          "internalType": "address",
          "name": "operator",
          "type": "address"
        }
      ],
      "name": "isApprovedForAll",
      "outputs": [
        {
          "internalType": "bool",
          "name": "",
          "type": "bool"
        }
      ],
      "stateMutability": "view",
      "type": "function"
    },
    {
      "inputs": [
        {
          "internalType": "address",
          "name": "to",
          "type": "address"
        }
      ],
      "name": "mint",
      "outputs": [],
      "stateMutability": "nonpayable",
      "type": "function"
    },
    {
      "inputs": [],
      "name": "name",
      "outputs": [
        {
          "internalType": "string",
          "name": "",
          "type": "string"
        }
      ],
      "stateMutability": "view",
      "type": "function"
    },
    {
      "inputs": [],
      "name": "onSaleID",
      "outputs": [
        {
          "internalType": "uint256",
          "name": "",
          "type": "uint256"
        }
      ],
      "stateMutability": "view",
      "type": "function"
    },
    {
      "inputs": [
        {
          "internalType": "uint256",
          "name": "tokenId",
          "type": "uint256"
        }
      ],
      "name": "ownerOf",
      "outputs": [
        {
          "internalType": "address",
          "name": "",
          "type": "address"
        }
      ],
      "stateMutability": "view",
      "type": "function"
    },
    {
      "inputs": [
        {
          "internalType": "address",
          "name": "from",
          "type": "address"
        },
        {
          "internalType": "address",
          "name": "to",
          "type": "address"
        },
        {
          "internalType": "uint256",
          "name": "tokenId",
          "type": "uint256"
        }
      ],
      "name": "safeTransferFrom",
      "outputs": [],
      "stateMutability": "nonpayable",
      "type": "function"
    },
    {
      "inputs": [
        {
          "internalType": "address",
          "name": "from",
          "type": "address"
        },
        {
          "internalType": "address",
          "name": "to",
          "type": "address"
        },
        {
          "internalType": "uint256",
          "name": "tokenId",
          "type": "uint256"
        },
        {
          "internalType": "bytes",
          "name": "data",
          "type": "bytes"
        }
      ],
      "name": "safeTransferFrom",
      "outputs": [],
      "stateMutability": "nonpayable",
      "type": "function"
    },
    {
      "inputs": [
        {
          "internalType": "address",
          "name": "operator",
          "type": "address"
        },
        {
          "internalType": "bool",
          "name": "approved",
          "type": "bool"
        }
      ],
      "name": "setApprovalForAll",
      "outputs": [],
      "stateMutability": "nonpayable",
      "type": "function"
    },
    {
      "inputs": [
        {
          "internalType": "bytes4",
          "name": "interfaceId",
          "type": "bytes4"
        }
      ],
      "name": "supportsInterface",
      "outputs": [
        {
          "internalType": "bool",
          "name": "",
          "type": "bool"
        }
      ],
      "stateMutability": "view",
      "type": "function"
    },
    {
      "inputs": [],
      "name": "symbol",
      "outputs": [
        {
          "internalType": "string",
          "name": "",
          "type": "string"
        }
      ],
      "stateMutability": "view",
      "type": "function"
    },
    {
      "inputs": [
        {
          "internalType": "uint256",
          "name": "tokenId",
          "type": "uint256"
        }
      ],
      "name": "tokenURI",
      "outputs": [
        {
          "internalType": "string",
          "name": "",
          "type": "string"
        }
      ],
      "stateMutability": "view",
      "type": "function"
    },
    {
      "inputs": [
        {
          "internalType": "address",
          "name": "from",
          "type": "address"
        },
        {
          "internalType": "address",
          "name": "to",
          "type": "address"
        },
        {
          "internalType": "uint256",
          "name": "tokenId",
          "type": "uint256"
        }
      ],
      "name": "transferFrom",
      "outputs": [],
      "stateMutability": "nonpayable",
      "type": "function"
    }
  ],
  "bytecode": "0x6080604052620187696006553480156200001857600080fd5b50604051806040016040528060098152602001681692d4d0519148125160ba1b815250604051806040016040528060048152602001631692d25160e21b815250816000908162000069919062000128565b50600162000078828262000128565b505050620001f4565b634e487b7160e01b600052604160045260246000fd5b600181811c90821680620000ac57607f821691505b602082108103620000cd57634e487b7160e01b600052602260045260246000fd5b50919050565b601f82111562000123576000816000526020600020601f850160051c81016020861015620000fe5750805b601f850160051c820191505b818110156200011f578281556001016200010a565b5050505b505050565b81516001600160401b0381111562000144576200014462000081565b6200015c8162000155845462000097565b84620000d3565b602080601f8311600181146200019457600084156200017b5750858301515b600019600386901b1c1916600185901b1785556200011f565b600085815260208120601f198616915b82811015620001c557888601518255948401946001909101908401620001a4565b5085821015620001e45787850151600019600388901b60f8161c191681555b5050505050600190811b01905550565b61102b80620002046000396000f3fe608060405234801561001057600080fd5b50600436106101005760003560e01c80636a62784211610097578063a22cb46511610066578063a22cb46514610229578063b88d4fde1461023c578063c87b56dd1461024f578063e985e9c51461026257600080fd5b80636a627842146101e457806370a08231146101f757806393e4d6c71461021857806395d89b411461022157600080fd5b806311a800bc116100d357806311a800bc1461018257806323b872dd146101ab57806342842e0e146101be5780636352211e146101d157600080fd5b806301ffc9a71461010557806306fdde031461012d578063081812fc14610142578063095ea7b31461016d575b600080fd5b610118610113366004610c74565b610275565b60405190151581526020015b60405180910390f35b6101356102c7565b6040516101249190610ce1565b610155610150366004610cf4565b610359565b6040516001600160a01b039091168152602001610124565b61018061017b366004610d29565b610382565b005b610155610190366004610cf4565b6007602052600090815260409020546001600160a01b031681565b6101806101b9366004610d53565b610391565b6101806101cc366004610d53565b610421565b6101556101df366004610cf4565b610441565b6101806101f2366004610d8f565b61044c565b61020a610205366004610d8f565b610498565b604051908152602001610124565b61020a60065481565b6101356104e0565b610180610237366004610daa565b6104ef565b61018061024a366004610dfc565b6104fa565b61013561025d366004610cf4565b610511565b610118610270366004610ed8565b610586565b60006001600160e01b031982166380ac58cd60e01b14806102a657506001600160e01b03198216635b5e139f60e01b145b806102c157506301ffc9a760e01b6001600160e01b03198316145b92915050565b6060600080546102d690610f0b565b80601f016020809104026020016040519081016040528092919081815260200182805461030290610f0b565b801561034f5780601f106103245761010080835404028352916020019161034f565b820191906000526020600020905b81548152906001019060200180831161033257829003601f168201915b5050505050905090565b6000610364826105b4565b506000828152600460205260409020546001600160a01b03166102c1565b61038d8282336105ed565b5050565b6001600160a01b0382166103c057604051633250574960e11b8152600060048201526024015b60405180910390fd5b60006103cd8383336105fa565b9050836001600160a01b0316816001600160a01b03161461041b576040516364283d7b60e01b81526001600160a01b03808616600483015260248201849052821660448201526064016103b7565b50505050565b61043c838383604051806020016040528060008152506104fa565b505050565b60006102c1826105b4565b610458816006546106f3565b60068054600090815260076020526040812080546001600160a01b0319166001600160a01b0385161790558154919061049083610f45565b919050555050565b60006001600160a01b0382166104c4576040516322718ad960e21b8152600060048201526024016103b7565b506001600160a01b031660009081526003602052604090205490565b6060600180546102d690610f0b565b61038d338383610758565b610505848484610391565b61041b848484846107f7565b606061051c826105b4565b50600061053460408051602081019091526000815290565b90506000815111610554576040518060200160405280600081525061057f565b8061055e84610920565b60405160200161056f929190610f6c565b6040516020818303038152906040525b9392505050565b6001600160a01b03918216600090815260056020908152604080832093909416825291909152205460ff1690565b6000818152600260205260408120546001600160a01b0316806102c157604051637e27328960e01b8152600481018490526024016103b7565b61043c83838360016109b3565b6000828152600260205260408120546001600160a01b039081169083161561062757610627818486610ab9565b6001600160a01b03811615610665576106446000856000806109b3565b6001600160a01b038116600090815260036020526040902080546000190190555b6001600160a01b03851615610694576001600160a01b0385166000908152600360205260409020805460010190555b60008481526002602052604080822080546001600160a01b0319166001600160a01b0389811691821790925591518793918516917fddf252ad1be2c89b69c2b068fc378daa952ba7f163c4a11628f55a4df523b3ef91a4949350505050565b6001600160a01b03821661071d57604051633250574960e11b8152600060048201526024016103b7565b600061072b838360006105fa565b90506001600160a01b0381161561043c576040516339e3563760e11b8152600060048201526024016103b7565b6001600160a01b03821661078a57604051630b61174360e31b81526001600160a01b03831660048201526024016103b7565b6001600160a01b03838116600081815260056020908152604080832094871680845294825291829020805460ff191686151590811790915591519182527f17307eab39ab6107e8899845ad3d59bd9653f200f220920489ca2b5937696c31910160405180910390a3505050565b6001600160a01b0383163b1561041b57604051630a85bd0160e11b81526001600160a01b0384169063150b7a0290610839903390889087908790600401610f9b565b6020604051808303816000875af1925050508015610874575060408051601f3d908101601f1916820190925261087191810190610fd8565b60015b6108dd573d8080156108a2576040519150601f19603f3d011682016040523d82523d6000602084013e6108a7565b606091505b5080516000036108d557604051633250574960e11b81526001600160a01b03851660048201526024016103b7565b805181602001fd5b6001600160e01b03198116630a85bd0160e11b1461091957604051633250574960e11b81526001600160a01b03851660048201526024016103b7565b5050505050565b6060600061092d83610b1d565b600101905060008167ffffffffffffffff81111561094d5761094d610de6565b6040519080825280601f01601f191660200182016040528015610977576020820181803683370190505b5090508181016020015b600019016f181899199a1a9b1b9c1cb0b131b232b360811b600a86061a8153600a850494508461098157509392505050565b80806109c757506001600160a01b03821615155b15610a895760006109d7846105b4565b90506001600160a01b03831615801590610a035750826001600160a01b0316816001600160a01b031614155b8015610a165750610a148184610586565b155b15610a3f5760405163a9fbf51f60e01b81526001600160a01b03841660048201526024016103b7565b8115610a875783856001600160a01b0316826001600160a01b03167f8c5be1e5ebec7d5bd14f71427d1e84f3dd0314c0f7b2291e5b200ac8c7c3b92560405160405180910390a45b505b5050600090815260046020526040902080546001600160a01b0319166001600160a01b0392909216919091179055565b610ac4838383610bf5565b61043c576001600160a01b038316610af257604051637e27328960e01b8152600481018290526024016103b7565b60405163177e802f60e01b81526001600160a01b0383166004820152602481018290526044016103b7565b60008072184f03e93ff9f4daa797ed6e38ed64bf6a1f0160401b8310610b5c5772184f03e93ff9f4daa797ed6e38ed64bf6a1f0160401b830492506040015b6d04ee2d6d415b85acef81000000008310610b88576d04ee2d6d415b85acef8100000000830492506020015b662386f26fc100008310610ba657662386f26fc10000830492506010015b6305f5e1008310610bbe576305f5e100830492506008015b6127108310610bd257612710830492506004015b60648310610be4576064830492506002015b600a83106102c15760010192915050565b60006001600160a01b03831615801590610c535750826001600160a01b0316846001600160a01b03161480610c2f5750610c2f8484610586565b80610c5357506000828152600460205260409020546001600160a01b038481169116145b949350505050565b6001600160e01b031981168114610c7157600080fd5b50565b600060208284031215610c8657600080fd5b813561057f81610c5b565b60005b83811015610cac578181015183820152602001610c94565b50506000910152565b60008151808452610ccd816020860160208601610c91565b601f01601f19169290920160200192915050565b60208152600061057f6020830184610cb5565b600060208284031215610d0657600080fd5b5035919050565b80356001600160a01b0381168114610d2457600080fd5b919050565b60008060408385031215610d3c57600080fd5b610d4583610d0d565b946020939093013593505050565b600080600060608486031215610d6857600080fd5b610d7184610d0d565b9250610d7f60208501610d0d565b9150604084013590509250925092565b600060208284031215610da157600080fd5b61057f82610d0d565b60008060408385031215610dbd57600080fd5b610dc683610d0d565b915060208301358015158114610ddb57600080fd5b809150509250929050565b634e487b7160e01b600052604160045260246000fd5b60008060008060808587031215610e1257600080fd5b610e1b85610d0d565b9350610e2960208601610d0d565b925060408501359150606085013567ffffffffffffffff80821115610e4d57600080fd5b818701915087601f830112610e6157600080fd5b813581811115610e7357610e73610de6565b604051601f8201601f19908116603f01168101908382118183101715610e9b57610e9b610de6565b816040528281528a6020848701011115610eb457600080fd5b82602086016020830137600060208483010152809550505050505092959194509250565b60008060408385031215610eeb57600080fd5b610ef483610d0d565b9150610f0260208401610d0d565b90509250929050565b600181811c90821680610f1f57607f821691505b602082108103610f3f57634e487b7160e01b600052602260045260246000fd5b50919050565b600060018201610f6557634e487b7160e01b600052601160045260246000fd5b5060010190565b60008351610f7e818460208801610c91565b835190830190610f92818360208801610c91565b01949350505050565b6001600160a01b0385811682528416602082015260408101839052608060608201819052600090610fce90830184610cb5565b9695505050505050565b600060208284031215610fea57600080fd5b815161057f81610c5b56fea26469706673582212205c7969edd9bc6536e938dc3f3f1d164aefa527770c3c0d737105081ce44cf96c64736f6c63430008180033",
  "linkReferences": {},
  "deployedLinkReferences": {}
}