{
  "_format": "hh-sol-artifact-1",
  "contractName": "MarsPair",
  "sourceName": "contracts/MarsPair.sol",
  "abi": [
    {
      "inputs": [
        {
          "internalType": "address",
          "name": "token0Addr",
          "type": "address"
        },
        {
          "internalType": "address",
          "name": "token1Addr",
          "type": "address"
        },
        {
          "internalType": "uint8",
          "name": "_fee",
          "type": "uint8"
        }
      ],
      "stateMutability": "nonpayable",
      "type": "constructor"
    },
    {
      "inputs": [
        {
          "internalType": "uint48",
          "name": "",
          "type": "uint48"
        }
      ],
      "name": "buyOrders",
      "outputs": [
        {
          "internalType": "uint48",
          "name": "beforeOrderId",
          "type": "uint48"
        },
        {
          "internalType": "uint48",
          "name": "afterOrderId",
          "type": "uint48"
        },
        {
          "internalType": "address",
          "name": "owner",
          "type": "address"
        },
        {
          "internalType": "uint256",
          "name": "amountIn",
          "type": "uint256"
        },
        {
          "internalType": "uint256",
          "name": "amountOut",
          "type": "uint256"
        },
        {
          "internalType": "uint256",
          "name": "amountInUsed",
          "type": "uint256"
        }
      ],
      "stateMutability": "view",
      "type": "function"
    },
    {
      "inputs": [
        {
          "internalType": "uint48",
          "name": "orderId",
          "type": "uint48"
        }
      ],
      "name": "cancelBuyOrder",
      "outputs": [
        {
          "internalType": "uint256",
          "name": "token1Left",
          "type": "uint256"
        }
      ],
      "stateMutability": "nonpayable",
      "type": "function"
    },
    {
      "inputs": [
        {
          "internalType": "uint48",
          "name": "orderId",
          "type": "uint48"
        }
      ],
      "name": "cancelSellOrder",
      "outputs": [
        {
          "internalType": "uint256",
          "name": "token0Left",
          "type": "uint256"
        }
      ],
      "stateMutability": "nonpayable",
      "type": "function"
    },
    {
      "inputs": [
        {
          "internalType": "uint48",
          "name": "orderId",
          "type": "uint48"
        },
        {
          "internalType": "address",
          "name": "newOwner",
          "type": "address"
        }
      ],
      "name": "changeBuyOrderOwner",
      "outputs": [],
      "stateMutability": "nonpayable",
      "type": "function"
    },
    {
      "inputs": [
        {
          "internalType": "uint48",
          "name": "orderId",
          "type": "uint48"
        },
        {
          "internalType": "address",
          "name": "newOwner",
          "type": "address"
        }
      ],
      "name": "changeSellOrderOwner",
      "outputs": [],
      "stateMutability": "nonpayable",
      "type": "function"
    },
    {
      "inputs": [],
      "name": "count",
      "outputs": [
        {
          "internalType": "uint48",
          "name": "",
          "type": "uint48"
        }
      ],
      "stateMutability": "view",
      "type": "function"
    },
    {
      "inputs": [],
      "name": "fee",
      "outputs": [
        {
          "internalType": "uint8",
          "name": "",
          "type": "uint8"
        }
      ],
      "stateMutability": "view",
      "type": "function"
    },
    {
      "inputs": [],
      "name": "feeTo",
      "outputs": [
        {
          "internalType": "address",
          "name": "",
          "type": "address"
        }
      ],
      "stateMutability": "view",
      "type": "function"
    },
    {
      "inputs": [
        {
          "internalType": "uint48",
          "name": "orderId",
          "type": "uint48"
        }
      ],
      "name": "getBuyOrder",
      "outputs": [
        {
          "components": [
            {
              "internalType": "uint48",
              "name": "beforeOrderId",
              "type": "uint48"
            },
            {
              "internalType": "uint48",
              "name": "afterOrderId",
              "type": "uint48"
            },
            {
              "internalType": "address",
              "name": "owner",
              "type": "address"
            },
            {
              "internalType": "uint256",
              "name": "amountIn",
              "type": "uint256"
            },
            {
              "internalType": "uint256",
              "name": "amountOut",
              "type": "uint256"
            },
            {
              "internalType": "uint256",
              "name": "amountInUsed",
              "type": "uint256"
            }
          ],
          "internalType": "struct MarsPair.Order",
          "name": "",
          "type": "tuple"
        }
      ],
      "stateMutability": "view",
      "type": "function"
    },
    {
      "inputs": [
        {
          "internalType": "uint48",
          "name": "orderId",
          "type": "uint48"
        }
      ],
      "name": "getSellOrder",
      "outputs": [
        {
          "components": [
            {
              "internalType": "uint48",
              "name": "beforeOrderId",
              "type": "uint48"
            },
            {
              "internalType": "uint48",
              "name": "afterOrderId",
              "type": "uint48"
            },
            {
              "internalType": "address",
              "name": "owner",
              "type": "address"
            },
            {
              "internalType": "uint256",
              "name": "amountIn",
              "type": "uint256"
            },
            {
              "internalType": "uint256",
              "name": "amountOut",
              "type": "uint256"
            },
            {
              "internalType": "uint256",
              "name": "amountInUsed",
              "type": "uint256"
            }
          ],
          "internalType": "struct MarsPair.Order",
          "name": "",
          "type": "tuple"
        }
      ],
      "stateMutability": "view",
      "type": "function"
    },
    {
      "inputs": [
        {
          "internalType": "uint256",
          "name": "token1In",
          "type": "uint256"
        },
        {
          "internalType": "uint256",
          "name": "token0Out",
          "type": "uint256"
        },
        {
          "internalType": "uint48",
          "name": "beforeOrderId",
          "type": "uint48"
        }
      ],
      "name": "makeBuyOrder",
      "outputs": [
        {
          "internalType": "uint48",
          "name": "",
          "type": "uint48"
        }
      ],
      "stateMutability": "nonpayable",
      "type": "function"
    },
    {
      "inputs": [
        {
          "internalType": "uint256",
          "name": "token0In",
          "type": "uint256"
        },
        {
          "internalType": "uint256",
          "name": "token1Out",
          "type": "uint256"
        },
        {
          "internalType": "uint48",
          "name": "beforeOrderId",
          "type": "uint48"
        }
      ],
      "name": "makeSellOrder",
      "outputs": [
        {
          "internalType": "uint48",
          "name": "",
          "type": "uint48"
        }
      ],
      "stateMutability": "nonpayable",
      "type": "function"
    },
    {
      "inputs": [
        {
          "internalType": "uint48",
          "name": "",
          "type": "uint48"
        }
      ],
      "name": "sellOrders",
      "outputs": [
        {
          "internalType": "uint48",
          "name": "beforeOrderId",
          "type": "uint48"
        },
        {
          "internalType": "uint48",
          "name": "afterOrderId",
          "type": "uint48"
        },
        {
          "internalType": "address",
          "name": "owner",
          "type": "address"
        },
        {
          "internalType": "uint256",
          "name": "amountIn",
          "type": "uint256"
        },
        {
          "internalType": "uint256",
          "name": "amountOut",
          "type": "uint256"
        },
        {
          "internalType": "uint256",
          "name": "amountInUsed",
          "type": "uint256"
        }
      ],
      "stateMutability": "view",
      "type": "function"
    },
    {
      "inputs": [
        {
          "internalType": "uint256",
          "name": "token0In",
          "type": "uint256"
        },
        {
          "internalType": "uint256",
          "name": "token1Want",
          "type": "uint256"
        }
      ],
      "name": "takeBuyOrder",
      "outputs": [
        {
          "internalType": "uint256",
          "name": "token0Pay",
          "type": "uint256"
        },
        {
          "internalType": "uint256",
          "name": "token1Gain",
          "type": "uint256"
        },
        {
          "internalType": "uint256",
          "name": "token0Fee",
          "type": "uint256"
        }
      ],
      "stateMutability": "nonpayable",
      "type": "function"
    },
    {
      "inputs": [
        {
          "internalType": "uint256",
          "name": "token1In",
          "type": "uint256"
        },
        {
          "internalType": "uint256",
          "name": "token0Want",
          "type": "uint256"
        }
      ],
      "name": "takeSellOrder",
      "outputs": [
        {
          "internalType": "uint256",
          "name": "token1Pay",
          "type": "uint256"
        },
        {
          "internalType": "uint256",
          "name": "token0Gain",
          "type": "uint256"
        },
        {
          "internalType": "uint256",
          "name": "token1Fee",
          "type": "uint256"
        }
      ],
      "stateMutability": "nonpayable",
      "type": "function"
    },
    {
      "inputs": [],
      "name": "token0",
      "outputs": [
        {
          "internalType": "contract IERC20",
          "name": "",
          "type": "address"
        }
      ],
      "stateMutability": "view",
      "type": "function"
    },
    {
      "inputs": [],
      "name": "token1",
      "outputs": [
        {
          "internalType": "contract IERC20",
          "name": "",
          "type": "address"
        }
      ],
      "stateMutability": "view",
      "type": "function"
    },
    {
      "inputs": [],
      "name": "topBuyOrderId",
      "outputs": [
        {
          "internalType": "uint48",
          "name": "",
          "type": "uint48"
        }
      ],
      "stateMutability": "view",
      "type": "function"
    },
    {
      "inputs": [],
      "name": "topSellOrderId",
      "outputs": [
        {
          "internalType": "uint48",
          "name": "",
          "type": "uint48"
        }
      ],
      "stateMutability": "view",
      "type": "function"
    }
  ],
  "bytecode": "0x6101006040526000805465ffffffffffff191690553480156200002157600080fd5b5060405162002a6538038062002a65833981016040819052620000449162000084565b6001600160a01b03928316608052911660a05260ff1660c0523360e052620000d7565b80516001600160a01b03811681146200007f57600080fd5b919050565b6000806000606084860312156200009a57600080fd5b620000a58462000067565b9250620000b56020850162000067565b9150604084015160ff81168114620000cc57600080fd5b809150509250925092565b60805160a05160c05160e0516128c86200019d6000396000818161012b01528181610b690152611b9801526000818161043b01528181610aeb0152611b1a0152600081816103030152818161068501528181610c8e015281816117ad0152818161191601528181611a3101528181611b6901528181611c240152611dac0152600081816101980152818161077e015281816108e701528181610a0201528181610b3a01528181610bf501528181610e1901528181610f910152611cbd01526128c86000f3fe608060405234801561001057600080fd5b50600436106101215760003560e01c8063b5b2d29b116100ad578063d44ca7af11610071578063d44ca7af14610325578063d7d99b0b146103c6578063dda37b2414610423578063ddca3f4314610436578063e5c274bc1461046f57600080fd5b8063b5b2d29b146102b3578063bfe1363e146102c6578063c0253d58146102d9578063c4ccb40a146102ec578063d21220a7146102fe57600080fd5b806367d301f9116100f457806367d301f9146101cf5780637c33e99a146101f05780638a44b05614610202578063a1cca87e14610230578063ae445bac1461024357600080fd5b8063017e7e581461012657806306661abd1461016a5780630dfe16811461019357806358c0c530146101ba575b600080fd5b61014d7f000000000000000000000000000000000000000000000000000000000000000081565b6040516001600160a01b0390911681526020015b60405180910390f35b60005461017c9065ffffffffffff1681565b60405165ffffffffffff9091168152602001610161565b61014d7f000000000000000000000000000000000000000000000000000000000000000081565b6101cd6101c8366004612665565b610482565b005b6101e26101dd3660046126a8565b61057e565b604051908152602001610161565b60045461017c9065ffffffffffff1681565b6102156102103660046126c3565b610712565b60408051938452602084019290925290820152606001610161565b6101e261023e3660046126a8565b610d12565b6102566102513660046126a8565b610e5b565b6040516101619190815165ffffffffffff9081168252602080840151909116908201526040808301516001600160a01b031690820152606080830151908201526080808301519082015260a0918201519181019190915260c00190565b61017c6102c13660046126e5565b610ed9565b6101cd6102d4366004612665565b6116ca565b6102156102e73660046126c3565b611740565b60025461017c9065ffffffffffff1681565b61014d7f000000000000000000000000000000000000000000000000000000000000000081565b6103816103333660046126a8565b6001602081905260009182526040909120805491810154600282015460039092015465ffffffffffff80851694600160301b810490911693600160601b9091046001600160a01b0316929186565b6040805165ffffffffffff97881681529690951660208701526001600160a01b03909316938501939093526060840152608083019190915260a082015260c001610161565b6103816103d43660046126a8565b6003602081905260009182526040909120805460018201546002830154929093015465ffffffffffff80831694600160301b840490911693600160601b9093046001600160a01b031692909186565b61017c6104313660046126e5565b611cf4565b61045d7f000000000000000000000000000000000000000000000000000000000000000081565b60405160ff9091168152602001610161565b61025661047d3660046126a8565b6124e6565b65ffffffffffff821660009081526001602052604090208054600160601b90046001600160a01b031633146104d25760405162461bcd60e51b81526004016104c99061271a565b60405180910390fd5b805465ffffffffffff1665fffffffffffe19016105015760405162461bcd60e51b81526004016104c990612751565b6001600160a01b0382166105575760405162461bcd60e51b815260206004820152601c60248201527f6e65774f776e65722063616e277420626520616464726573732830290000000060448201526064016104c9565b80546001600160a01b03909216600160601b026001600160601b0390921691909117905550565b65ffffffffffff811660009081526001602052604081208054600160601b90046001600160a01b031633146105c55760405162461bcd60e51b81526004016104c99061271a565b805465ffffffffffff1665fffffffffffe19016105f45760405162461bcd60e51b81526004016104c990612751565b6105ff816001612563565b60025465ffffffffffff80851691160361063b57805460028054600160301b90920465ffffffffffff1665ffffffffffff199092169190911790555b805465ffffffffffff191665ffffffffffff1781556003810154600182015461066491906127a9565b9150811561070c57805460405163a9059cbb60e01b81526001600160a01b037f000000000000000000000000000000000000000000000000000000000000000081169263a9059cbb926106c792600160601b9092049091169086906004016127c2565b6020604051808303816000875af11580156106e6573d6000803e3d6000fd5b505050506040513d601f19601f8201168201806040525081019061070a91906127db565b505b50919050565b6002546000908190819065ffffffffffff1681036107675760405162461bcd60e51b81526020600482015260126024820152716275794f726465727320697320656d70747960701b60448201526064016104c9565b6040516323b872dd60e01b81526001600160a01b037f000000000000000000000000000000000000000000000000000000000000000016906323b872dd906107b790339030908a906004016127fd565b6020604051808303816000875af11580156107d6573d6000803e3d6000fd5b505050506040513d601f19601f820116820180604052508101906107fa91906127db565b50845b60025465ffffffffffff1615610a9b576002805465ffffffffffff166000908152600160205260409020908101546108359087612821565b60018201546108449089612821565b10156108505750610a9b565b600081600101548260020154836003015461086b9190612821565b6108759190612838565b826002015461088491906127a9565b90508083106109a15761089781846127a9565b9250816003015482600101546108ad91906127a9565b6108b7908661285a565b94506108c4826001612563565b60018201546003830155815460405163a9059cbb60e01b81526001600160a01b037f000000000000000000000000000000000000000000000000000000000000000081169263a9059cbb9261092992600160601b9092049091169085906004016127c2565b6020604051808303816000875af1158015610948573d6000803e3d6000fd5b505050506040513d601f19601f8201168201806040525081019061096c91906127db565b50815465ffffffffffff1990811665ffffffffffff90811780855560028054909316600160301b909104909116179055610a94565b600082600201548360010154856109b89190612821565b6109c29190612838565b90506109ce818761285a565b9550808360030160008282546109e4919061285a565b9091555050825460405163a9059cbb60e01b81526001600160a01b037f000000000000000000000000000000000000000000000000000000000000000081169263a9059cbb92610a4492600160601b9092049091169088906004016127c2565b6020604051808303816000875af1158015610a63573d6000803e3d6000fd5b505050506040513d601f19601f82011682018060405250810190610a8791906127db565b5060009350505050610a9b565b50506107fd565b610aa581876127a9565b935060008411610ae15760405162461bcd60e51b81526020600482015260076024820152661b9bc81919585b60ca1b60448201526064016104c9565b612710610b1160ff7f00000000000000000000000000000000000000000000000000000000000000001686612821565b610b1b9190612838565b91508115610bd8576040516323b872dd60e01b81526001600160a01b037f000000000000000000000000000000000000000000000000000000000000000016906323b872dd90610b939033907f00000000000000000000000000000000000000000000000000000000000000009087906004016127fd565b6020604051808303816000875af1158015610bb2573d6000803e3d6000fd5b505050506040513d601f19601f82011682018060405250810190610bd691906127db565b505b8015610c715760405163a9059cbb60e01b81526001600160a01b037f0000000000000000000000000000000000000000000000000000000000000000169063a9059cbb90610c2c90339085906004016127c2565b6020604051808303816000875af1158015610c4b573d6000803e3d6000fd5b505050506040513d601f19601f82011682018060405250810190610c6f91906127db565b505b8215610d0a5760405163a9059cbb60e01b81526001600160a01b037f0000000000000000000000000000000000000000000000000000000000000000169063a9059cbb90610cc590339087906004016127c2565b6020604051808303816000875af1158015610ce4573d6000803e3d6000fd5b505050506040513d601f19601f82011682018060405250810190610d0891906127db565b505b509250925092565b65ffffffffffff811660009081526003602052604081208054600160601b90046001600160a01b03163314610d595760405162461bcd60e51b81526004016104c99061271a565b805465ffffffffffff1665fffffffffffe1901610d885760405162461bcd60e51b81526004016104c990612751565b610d93816003612563565b60045465ffffffffffff808516911603610dcf57805460048054600160301b90920465ffffffffffff1665ffffffffffff199092169190911790555b805465ffffffffffff191665ffffffffffff17815560038101546001820154610df891906127a9565b9150811561070c57805460405163a9059cbb60e01b81526001600160a01b037f000000000000000000000000000000000000000000000000000000000000000081169263a9059cbb926106c792600160601b9092049091169086906004016127c2565b610e636125fb565b5065ffffffffffff908116600090815260036020818152604092839020835160c08101855281548087168252600160301b810490961692810192909252600160601b9094046001600160a01b0316928101929092526001830154606083015260028301546080830152919091015460a082015290565b6000808411610f2a5760405162461bcd60e51b815260206004820152601b60248201527f746f6b656e30496e20616d6f756e742063616e6e6f742062652030000000000060448201526064016104c9565b60008311610f7a5760405162461bcd60e51b815260206004820152601c60248201527f746f6b656e314f757420616d6f756e742063616e6e6f7420626520300000000060448201526064016104c9565b6040516323b872dd60e01b81526001600160a01b037f000000000000000000000000000000000000000000000000000000000000000016906323b872dd90610fca903390309089906004016127fd565b6020604051808303816000875af1158015610fe9573d6000803e3d6000fd5b505050506040513d601f19601f8201168201806040525081019061100d91906127db565b506000805481906110259065ffffffffffff1661286d565b82546101009290920a65ffffffffffff8181021990931691831602179091556004541660000361111457506040805160c0810182526000808252602080830182815233848601908152606085018981526080860189815260a08701868152865465ffffffffffff908116885260039687905298872097518854955194516001600160a01b0316600160601b026001600160601b03958b16600160301b026001600160601b0319909716918b169190911795909517939093169390931786555160018601559051600285015551920191909155546004805465ffffffffffff1916919092169081179091556116c3565b8165ffffffffffff166000036112825760045465ffffffffffff166000908152600360205260409020600181015461114d908590612821565b85826002015461115d9190612821565b116111aa5760405162461bcd60e51b815260206004820152601a60248201527f796f7572207072696365206d757374203c20746f704f7264657200000000000060448201526064016104c9565b60008054825465ffffffffffff1990811665ffffffffffff928316179093556040805160c081018252838152600480548416602080840191825233848601908152606085018d8152608086018d815260a087018a81528a548a168b52600394859052978a2096518754955193516001600160a01b0316600160601b026001600160601b03948b16600160301b026001600160601b0319909716918b16919091179590951792909216939093178555915160018501559051600284015592519190920155915482549093169216918217905590506116c3565b65ffffffffffff8216600090815260036020526040812060018101549091036112e85760405162461bcd60e51b81526020600482015260186024820152771899599bdc9953dc99195c881a5cc81b9bdd08195e1a5cdd60421b60448201526064016104c9565b805465ffffffffffff1665fffffffffffe19016113475760405162461bcd60e51b815260206004820152601c60248201527f6265666f72654f726465722069732072656d6f76656428646f6e65290000000060448201526064016104c9565b8381600101546113579190612821565b8582600201546113679190612821565b11156113b55760405162461bcd60e51b815260206004820152601e60248201527f796f7572207072696365206d757374203e3d206265666f72654f72646572000060448201526064016104c9565b8054600160301b900465ffffffffffff1660000361149d57600080548254600160301b65ffffffffffff928316810265ffffffffffff60301b19909216919091179093556040805160c0810182528683168152602080820185815233838501908152606084018c8152608085018c815260a08601898152895489168a5260039586905296892095518654945193516001600160a01b0316600160601b026001600160601b03948a16909b026001600160601b031990951690891617939093179190911697909717835595516001830155945160028201559051930192909255541690506116c3565b8054600160301b900465ffffffffffff166000908152600360205260408120600181015490910361150a5760405162461bcd60e51b815260206004820152601760248201527618599d195c93dc99195c881a5cc81b9bdd08195e1a5cdd604a1b60448201526064016104c9565b805465ffffffffffff1665fffffffffffe19016115695760405162461bcd60e51b815260206004820152601b60248201527f61667465724f726465722069732072656d6f76656428646f6e6529000000000060448201526064016104c9565b8481600101546115799190612821565b8682600201546115899190612821565b116115d65760405162461bcd60e51b815260206004820152601c60248201527f796f7572207072696365206d757374203c2061667465724f726465720000000060448201526064016104c9565b6040805160c08101825265ffffffffffff80871682528454600160301b908190048216602080850191825233858701908152606086018d8152608087018d8152600060a0890181815281548916825260039586905299812098518954965194516001600160a01b0316600160601b026001600160601b03958a1689026001600160601b0319909816918a1691909117969096179390931694909417875551600187015591516002860155945193909401929092558254855490821690920265ffffffffffff60301b1992909216919091179093558054825465ffffffffffff191690841617909155541690505b9392505050565b65ffffffffffff821660009081526003602052604090208054600160601b90046001600160a01b031633146117115760405162461bcd60e51b81526004016104c99061271a565b805465ffffffffffff1665fffffffffffe19016105575760405162461bcd60e51b81526004016104c990612751565b6004546000908190819065ffffffffffff1681036117965760405162461bcd60e51b815260206004820152601360248201527273656c6c4f726465727320697320656d70747960681b60448201526064016104c9565b6040516323b872dd60e01b81526001600160a01b037f000000000000000000000000000000000000000000000000000000000000000016906323b872dd906117e690339030908a906004016127fd565b6020604051808303816000875af1158015611805573d6000803e3d6000fd5b505050506040513d601f19601f8201168201806040525081019061182991906127db565b50845b60045465ffffffffffff1615611aca5760045465ffffffffffff16600090815260036020526040902060028101546118649087612821565b60018201546118739089612821565b101561187f5750611aca565b600081600101548260020154836003015461189a9190612821565b6118a49190612838565b82600201546118b391906127a9565b90508083106119d0576118c681846127a9565b9250816003015482600101546118dc91906127a9565b6118e6908661285a565b94506118f3826003612563565b60018201546003830155815460405163a9059cbb60e01b81526001600160a01b037f000000000000000000000000000000000000000000000000000000000000000081169263a9059cbb9261195892600160601b9092049091169085906004016127c2565b6020604051808303816000875af1158015611977573d6000803e3d6000fd5b505050506040513d601f19601f8201168201806040525081019061199b91906127db565b50815465ffffffffffff1990811665ffffffffffff90811780855560048054909316600160301b909104909116179055611ac3565b600082600201548360010154856119e79190612821565b6119f19190612838565b90506119fd818761285a565b955080836003016000828254611a13919061285a565b9091555050825460405163a9059cbb60e01b81526001600160a01b037f000000000000000000000000000000000000000000000000000000000000000081169263a9059cbb92611a7392600160601b9092049091169088906004016127c2565b6020604051808303816000875af1158015611a92573d6000803e3d6000fd5b505050506040513d601f19601f82011682018060405250810190611ab691906127db565b5060009350505050611aca565b505061182c565b611ad481876127a9565b935060008411611b105760405162461bcd60e51b81526020600482015260076024820152661b9bc81919585b60ca1b60448201526064016104c9565b612710611b4060ff7f00000000000000000000000000000000000000000000000000000000000000001686612821565b611b4a9190612838565b91508115611c07576040516323b872dd60e01b81526001600160a01b037f000000000000000000000000000000000000000000000000000000000000000016906323b872dd90611bc29033907f00000000000000000000000000000000000000000000000000000000000000009087906004016127fd565b6020604051808303816000875af1158015611be1573d6000803e3d6000fd5b505050506040513d601f19601f82011682018060405250810190611c0591906127db565b505b8015611ca05760405163a9059cbb60e01b81526001600160a01b037f0000000000000000000000000000000000000000000000000000000000000000169063a9059cbb90611c5b90339085906004016127c2565b6020604051808303816000875af1158015611c7a573d6000803e3d6000fd5b505050506040513d601f19601f82011682018060405250810190611c9e91906127db565b505b8215610d0a5760405163a9059cbb60e01b81526001600160a01b037f0000000000000000000000000000000000000000000000000000000000000000169063a9059cbb90610cc590339087906004016127c2565b6000808411611d455760405162461bcd60e51b815260206004820152601b60248201527f746f6b656e31496e20616d6f756e742063616e6e6f742062652030000000000060448201526064016104c9565b60008311611d955760405162461bcd60e51b815260206004820152601c60248201527f746f6b656e304f757420616d6f756e742063616e6e6f7420626520300000000060448201526064016104c9565b6040516323b872dd60e01b81526001600160a01b037f000000000000000000000000000000000000000000000000000000000000000016906323b872dd90611de5903390309089906004016127fd565b6020604051808303816000875af1158015611e04573d6000803e3d6000fd5b505050506040513d601f19601f82011682018060405250810190611e2891906127db565b50600080548190611e409065ffffffffffff1661286d565b82546101009290920a65ffffffffffff81810219909316918316021790915560025416600003611f3357506040805160c0810182526000808252602080830182815233848601908152606085018981526080860189815260a08701868152865465ffffffffffff908116885260019687905298872097518854955194516001600160a01b0316600160601b026001600160601b03958b16600160301b026001600160601b0319909716918b16919091179590951793909316939093178655519285019290925551600280850191909155905160039093019290925554815465ffffffffffff1916921691821790556116c3565b8165ffffffffffff166000036120a15760025465ffffffffffff16600090815260016020819052604090912090810154611f6e908590612821565b858260020154611f7e9190612821565b11611fcb5760405162461bcd60e51b815260206004820152601a60248201527f796f7572207072696365206d757374203e20746f704f7264657200000000000060448201526064016104c9565b60008054825465ffffffffffff1990811665ffffffffffff928316179093556040805160c081018252838152600280548416602080840191825233848601908152606085018d8152608086018d815260a087018a81528a548a168b52600194859052978a2096518754955193516001600160a01b0316600160601b026001600160601b03948b16600160301b026001600160601b0319909716918b1691909117959095179290921693909317855591519084015551828201559151600390910155915482549093169216918217905590506116c3565b65ffffffffffff821660009081526001602081905260408220908101549091036121085760405162461bcd60e51b81526020600482015260186024820152771899599bdc9953dc99195c881a5cc81b9bdd08195e1a5cdd60421b60448201526064016104c9565b805465ffffffffffff1665fffffffffffe19016121675760405162461bcd60e51b815260206004820152601c60248201527f6265666f72654f726465722069732072656d6f76656428646f6e65290000000060448201526064016104c9565b8381600101546121779190612821565b8582600201546121879190612821565b11156121d55760405162461bcd60e51b815260206004820152601e60248201527f796f7572207072696365206d757374203c3d206265666f72654f72646572000060448201526064016104c9565b8054600160301b900465ffffffffffff166000036122be57600080548254600160301b65ffffffffffff928316810265ffffffffffff60301b19909216919091179093556040805160c0810182528683168152602080820185815233838501908152606084018c8152608085018c815260a08601898152895489168a5260019586905296892095518654945193516001600160a01b0316600160601b026001600160601b03948a16909b026001600160601b03199095169089161793909317919091169790971783559551908201559351600285015551600390930192909255541690506116c3565b8054600160301b900465ffffffffffff16600090815260016020819052604082209081015490910361232c5760405162461bcd60e51b815260206004820152601760248201527618599d195c93dc99195c881a5cc81b9bdd08195e1a5cdd604a1b60448201526064016104c9565b805465ffffffffffff1665fffffffffffe190161238b5760405162461bcd60e51b815260206004820152601b60248201527f61667465724f726465722069732072656d6f76656428646f6e6529000000000060448201526064016104c9565b84816001015461239b9190612821565b8682600201546123ab9190612821565b116123f85760405162461bcd60e51b815260206004820152601c60248201527f796f7572207072696365206d757374203e2061667465724f726465720000000060448201526064016104c9565b6040805160c08101825265ffffffffffff95861681528354600160301b908190048716602080840191825233848601908152606085019b8c52608085019a8b52600060a0860181815281548c16825260019384905296812095518654945192516001600160a01b0316600160601b026001600160601b03938d1687026001600160601b0319909616918d169190911794909417919091169290921784559951998301999099559651600282015590516003909101558554825490851690950265ffffffffffff60301b19909516949094179055508254825465ffffffffffff19169082161790915590541690565b6124ee6125fb565b5065ffffffffffff908116600090815260016020818152604092839020835160c08101855281548087168252600160301b810490961692810192909252600160601b9094046001600160a01b03169281019290925282015460608201526002820154608082015260039091015460a082015290565b815465ffffffffffff16156125ad57815465ffffffffffff8082166000908152602084905260409020805465ffffffffffff60301b1916600160301b938490049092169092021790555b8154600160301b900465ffffffffffff16156125f7578154600160301b810465ffffffffffff9081166000908152602084905260409020805465ffffffffffff1916919092161790555b5050565b6040518060c00160405280600065ffffffffffff168152602001600065ffffffffffff16815260200160006001600160a01b031681526020016000815260200160008152602001600081525090565b803565ffffffffffff8116811461266057600080fd5b919050565b6000806040838503121561267857600080fd5b6126818361264a565b915060208301356001600160a01b038116811461269d57600080fd5b809150509250929050565b6000602082840312156126ba57600080fd5b6116c38261264a565b600080604083850312156126d657600080fd5b50508035926020909101359150565b6000806000606084860312156126fa57600080fd5b83359250602084013591506127116040850161264a565b90509250925092565b6020808252601e908201527f796f7520617265206e6f74206f776e6572206f6620746865206f726465720000604082015260600190565b60208082526022908201527f746865206f7264657220697320616c72656164792072656d6f76656428646f6e604082015261652960f01b606082015260800190565b634e487b7160e01b600052601160045260246000fd5b818103818111156127bc576127bc612793565b92915050565b6001600160a01b03929092168252602082015260400190565b6000602082840312156127ed57600080fd5b815180151581146116c357600080fd5b6001600160a01b039384168152919092166020820152604081019190915260600190565b80820281158282048414176127bc576127bc612793565b60008261285557634e487b7160e01b600052601260045260246000fd5b500490565b808201808211156127bc576127bc612793565b600065ffffffffffff80831681810361288857612888612793565b600101939250505056fea26469706673582212207fee1306a2556da2843c87b58985bb8cec5111762501dfdeb866fa1d5618764664736f6c63430008180033",
  "linkReferences": {},
  "deployedLinkReferences": {}
}