{
  "_format": "hh-sol-artifact-1",
  "contractName": "MarsPair",
  "sourceName": "contracts/MarsPair.sol",
  "abi": [
    {
      "inputs": [
        {
          "internalType": "address",
          "name": "token0Addr",
          "type": "address"
        },
        {
          "internalType": "address",
          "name": "token1Addr",
          "type": "address"
        },
        {
          "internalType": "uint8",
          "name": "_fee",
          "type": "uint8"
        }
      ],
      "stateMutability": "nonpayable",
      "type": "constructor"
    },
    {
      "inputs": [
        {
          "internalType": "uint48",
          "name": "",
          "type": "uint48"
        }
      ],
      "name": "buyOrders",
      "outputs": [
        {
          "internalType": "uint48",
          "name": "beforeOrderId",
          "type": "uint48"
        },
        {
          "internalType": "uint48",
          "name": "afterOrderId",
          "type": "uint48"
        },
        {
          "internalType": "address",
          "name": "owner",
          "type": "address"
        },
        {
          "internalType": "uint256",
          "name": "amountIn",
          "type": "uint256"
        },
        {
          "internalType": "uint256",
          "name": "amountOut",
          "type": "uint256"
        },
        {
          "internalType": "uint256",
          "name": "amountInUsed",
          "type": "uint256"
        }
      ],
      "stateMutability": "view",
      "type": "function"
    },
    {
      "inputs": [
        {
          "internalType": "uint48",
          "name": "orderId",
          "type": "uint48"
        }
      ],
      "name": "cancelBuyOrder",
      "outputs": [
        {
          "internalType": "uint256",
          "name": "token1Left",
          "type": "uint256"
        }
      ],
      "stateMutability": "nonpayable",
      "type": "function"
    },
    {
      "inputs": [
        {
          "internalType": "uint48",
          "name": "orderId",
          "type": "uint48"
        }
      ],
      "name": "cancelSellOrder",
      "outputs": [
        {
          "internalType": "uint256",
          "name": "token0Left",
          "type": "uint256"
        }
      ],
      "stateMutability": "nonpayable",
      "type": "function"
    },
    {
      "inputs": [
        {
          "internalType": "uint48",
          "name": "orderId",
          "type": "uint48"
        },
        {
          "internalType": "address",
          "name": "newOwner",
          "type": "address"
        }
      ],
      "name": "changeBuyOrderOwner",
      "outputs": [],
      "stateMutability": "nonpayable",
      "type": "function"
    },
    {
      "inputs": [
        {
          "internalType": "uint48",
          "name": "orderId",
          "type": "uint48"
        },
        {
          "internalType": "address",
          "name": "newOwner",
          "type": "address"
        }
      ],
      "name": "changeSellOrderOwner",
      "outputs": [],
      "stateMutability": "nonpayable",
      "type": "function"
    },
    {
      "inputs": [],
      "name": "fee",
      "outputs": [
        {
          "internalType": "uint8",
          "name": "",
          "type": "uint8"
        }
      ],
      "stateMutability": "view",
      "type": "function"
    },
    {
      "inputs": [],
      "name": "feeTo",
      "outputs": [
        {
          "internalType": "address",
          "name": "",
          "type": "address"
        }
      ],
      "stateMutability": "view",
      "type": "function"
    },
    {
      "inputs": [
        {
          "internalType": "uint48",
          "name": "orderId",
          "type": "uint48"
        }
      ],
      "name": "getBuyOrder",
      "outputs": [
        {
          "components": [
            {
              "internalType": "uint48",
              "name": "beforeOrderId",
              "type": "uint48"
            },
            {
              "internalType": "uint48",
              "name": "afterOrderId",
              "type": "uint48"
            },
            {
              "internalType": "address",
              "name": "owner",
              "type": "address"
            },
            {
              "internalType": "uint256",
              "name": "amountIn",
              "type": "uint256"
            },
            {
              "internalType": "uint256",
              "name": "amountOut",
              "type": "uint256"
            },
            {
              "internalType": "uint256",
              "name": "amountInUsed",
              "type": "uint256"
            }
          ],
          "internalType": "struct MarsPair.Order",
          "name": "",
          "type": "tuple"
        }
      ],
      "stateMutability": "view",
      "type": "function"
    },
    {
      "inputs": [
        {
          "internalType": "uint48",
          "name": "orderId",
          "type": "uint48"
        }
      ],
      "name": "getSellOrder",
      "outputs": [
        {
          "components": [
            {
              "internalType": "uint48",
              "name": "beforeOrderId",
              "type": "uint48"
            },
            {
              "internalType": "uint48",
              "name": "afterOrderId",
              "type": "uint48"
            },
            {
              "internalType": "address",
              "name": "owner",
              "type": "address"
            },
            {
              "internalType": "uint256",
              "name": "amountIn",
              "type": "uint256"
            },
            {
              "internalType": "uint256",
              "name": "amountOut",
              "type": "uint256"
            },
            {
              "internalType": "uint256",
              "name": "amountInUsed",
              "type": "uint256"
            }
          ],
          "internalType": "struct MarsPair.Order",
          "name": "",
          "type": "tuple"
        }
      ],
      "stateMutability": "view",
      "type": "function"
    },
    {
      "inputs": [],
      "name": "lastOrderId",
      "outputs": [
        {
          "internalType": "uint48",
          "name": "",
          "type": "uint48"
        }
      ],
      "stateMutability": "view",
      "type": "function"
    },
    {
      "inputs": [
        {
          "internalType": "uint256",
          "name": "token1In",
          "type": "uint256"
        },
        {
          "internalType": "uint256",
          "name": "token0Out",
          "type": "uint256"
        },
        {
          "internalType": "uint48",
          "name": "beforeOrderId",
          "type": "uint48"
        }
      ],
      "name": "makeBuyOrder",
      "outputs": [
        {
          "internalType": "uint48",
          "name": "newOrderId",
          "type": "uint48"
        }
      ],
      "stateMutability": "nonpayable",
      "type": "function"
    },
    {
      "inputs": [
        {
          "internalType": "uint256",
          "name": "token0In",
          "type": "uint256"
        },
        {
          "internalType": "uint256",
          "name": "token1Out",
          "type": "uint256"
        },
        {
          "internalType": "uint48",
          "name": "beforeOrderId",
          "type": "uint48"
        }
      ],
      "name": "makeSellOrder",
      "outputs": [
        {
          "internalType": "uint48",
          "name": "newOrderId",
          "type": "uint48"
        }
      ],
      "stateMutability": "nonpayable",
      "type": "function"
    },
    {
      "inputs": [
        {
          "internalType": "uint48",
          "name": "",
          "type": "uint48"
        }
      ],
      "name": "sellOrders",
      "outputs": [
        {
          "internalType": "uint48",
          "name": "beforeOrderId",
          "type": "uint48"
        },
        {
          "internalType": "uint48",
          "name": "afterOrderId",
          "type": "uint48"
        },
        {
          "internalType": "address",
          "name": "owner",
          "type": "address"
        },
        {
          "internalType": "uint256",
          "name": "amountIn",
          "type": "uint256"
        },
        {
          "internalType": "uint256",
          "name": "amountOut",
          "type": "uint256"
        },
        {
          "internalType": "uint256",
          "name": "amountInUsed",
          "type": "uint256"
        }
      ],
      "stateMutability": "view",
      "type": "function"
    },
    {
      "inputs": [
        {
          "internalType": "uint256",
          "name": "token0In",
          "type": "uint256"
        },
        {
          "internalType": "uint256",
          "name": "token1Want",
          "type": "uint256"
        }
      ],
      "name": "takeBuyOrder",
      "outputs": [
        {
          "internalType": "uint256",
          "name": "token0Pay",
          "type": "uint256"
        },
        {
          "internalType": "uint256",
          "name": "token1Gain",
          "type": "uint256"
        },
        {
          "internalType": "uint256",
          "name": "token0Fee",
          "type": "uint256"
        }
      ],
      "stateMutability": "nonpayable",
      "type": "function"
    },
    {
      "inputs": [
        {
          "internalType": "uint256",
          "name": "token1In",
          "type": "uint256"
        },
        {
          "internalType": "uint256",
          "name": "token0Want",
          "type": "uint256"
        }
      ],
      "name": "takeSellOrder",
      "outputs": [
        {
          "internalType": "uint256",
          "name": "token1Pay",
          "type": "uint256"
        },
        {
          "internalType": "uint256",
          "name": "token0Gain",
          "type": "uint256"
        },
        {
          "internalType": "uint256",
          "name": "token1Fee",
          "type": "uint256"
        }
      ],
      "stateMutability": "nonpayable",
      "type": "function"
    },
    {
      "inputs": [],
      "name": "token0",
      "outputs": [
        {
          "internalType": "contract IERC20",
          "name": "",
          "type": "address"
        }
      ],
      "stateMutability": "view",
      "type": "function"
    },
    {
      "inputs": [],
      "name": "token1",
      "outputs": [
        {
          "internalType": "contract IERC20",
          "name": "",
          "type": "address"
        }
      ],
      "stateMutability": "view",
      "type": "function"
    },
    {
      "inputs": [],
      "name": "topBuyOrderId",
      "outputs": [
        {
          "internalType": "uint48",
          "name": "",
          "type": "uint48"
        }
      ],
      "stateMutability": "view",
      "type": "function"
    },
    {
      "inputs": [],
      "name": "topSellOrderId",
      "outputs": [
        {
          "internalType": "uint48",
          "name": "",
          "type": "uint48"
        }
      ],
      "stateMutability": "view",
      "type": "function"
    }
  ],
  "bytecode": "0x6101006040526000805465ffffffffffff191690553480156200002157600080fd5b50604051620029e8380380620029e8833981016040819052620000449162000084565b6001600160a01b03928316608052911660a05260ff1660c0523360e052620000d7565b80516001600160a01b03811681146200007f57600080fd5b919050565b6000806000606084860312156200009a57600080fd5b620000a58462000067565b9250620000b56020850162000067565b9150604084015160ff81168114620000cc57600080fd5b809150509250925092565b60805160a05160c05160e05161284b6200019d6000396000818161012b01528181610b130152611b1001526000818161043b01528181610a950152611a920152600081816103030152818161062f01528181610c38015281816117250152818161188e015281816119a901528181611ae101528181611b9c0152611d2401526000818161016f0152818161072801528181610891015281816109ac01528181610ae401528181610b9f01528181610dc301528181610f3b0152611c35015261284b6000f3fe608060405234801561001057600080fd5b50600436106101215760003560e01c8063b5b2d29b116100ad578063d44ca7af11610071578063d44ca7af14610325578063d7d99b0b146103c6578063dda37b2414610423578063ddca3f4314610436578063e5c274bc1461046f57600080fd5b8063b5b2d29b146102b3578063bfe1363e146102c6578063c0253d58146102d9578063c4ccb40a146102ec578063d21220a7146102fe57600080fd5b806367d301f9116100f457806367d301f9146101cf5780637c33e99a146101f05780638a44b05614610202578063a1cca87e14610230578063ae445bac1461024357600080fd5b8063017e7e58146101265780630dfe16811461016a5780635662ecc71461019157806358c0c530146101ba575b600080fd5b61014d7f000000000000000000000000000000000000000000000000000000000000000081565b6040516001600160a01b0390911681526020015b60405180910390f35b61014d7f000000000000000000000000000000000000000000000000000000000000000081565b6000546101a39065ffffffffffff1681565b60405165ffffffffffff9091168152602001610161565b6101cd6101c83660046125e8565b610482565b005b6101e26101dd36600461262b565b610528565b604051908152602001610161565b6004546101a39065ffffffffffff1681565b610215610210366004612646565b6106bc565b60408051938452602084019290925290820152606001610161565b6101e261023e36600461262b565b610cbc565b61025661025136600461262b565b610e05565b6040516101619190815165ffffffffffff9081168252602080840151909116908201526040808301516001600160a01b031690820152606080830151908201526080808301519082015260a0918201519181019190915260c00190565b6101a36102c1366004612668565b610e83565b6101cd6102d43660046125e8565b611671565b6102156102e7366004612646565b6116b8565b6002546101a39065ffffffffffff1681565b61014d7f000000000000000000000000000000000000000000000000000000000000000081565b61038161033336600461262b565b6001602081905260009182526040909120805491810154600282015460039092015465ffffffffffff80851694600160301b810490911693600160601b9091046001600160a01b0316929186565b6040805165ffffffffffff97881681529690951660208701526001600160a01b03909316938501939093526060840152608083019190915260a082015260c001610161565b6103816103d436600461262b565b6003602081905260009182526040909120805460018201546002830154929093015465ffffffffffff80831694600160301b840490911693600160601b9093046001600160a01b031692909186565b6101a3610431366004612668565b611c6c565b61045d7f000000000000000000000000000000000000000000000000000000000000000081565b60405160ff9091168152602001610161565b61025661047d36600461262b565b612469565b65ffffffffffff821660009081526001602052604090208054600160601b90046001600160a01b031633146104d25760405162461bcd60e51b81526004016104c99061269d565b60405180910390fd5b805465ffffffffffff1665fffffffffffe19016105015760405162461bcd60e51b81526004016104c9906126d4565b80546001600160a01b03909216600160601b026001600160601b0390921691909117905550565b65ffffffffffff811660009081526001602052604081208054600160601b90046001600160a01b0316331461056f5760405162461bcd60e51b81526004016104c99061269d565b805465ffffffffffff1665fffffffffffe190161059e5760405162461bcd60e51b81526004016104c9906126d4565b6105a98160016124e6565b60025465ffffffffffff8085169116036105e557805460028054600160301b90920465ffffffffffff1665ffffffffffff199092169190911790555b805465ffffffffffff191665ffffffffffff1781556003810154600182015461060e919061272c565b915081156106b657805460405163a9059cbb60e01b81526001600160a01b037f000000000000000000000000000000000000000000000000000000000000000081169263a9059cbb9261067192600160601b909204909116908690600401612745565b6020604051808303816000875af1158015610690573d6000803e3d6000fd5b505050506040513d601f19601f820116820180604052508101906106b4919061275e565b505b50919050565b6002546000908190819065ffffffffffff1681036107115760405162461bcd60e51b81526020600482015260126024820152716275794f726465727320697320656d70747960701b60448201526064016104c9565b6040516323b872dd60e01b81526001600160a01b037f000000000000000000000000000000000000000000000000000000000000000016906323b872dd9061076190339030908a90600401612780565b6020604051808303816000875af1158015610780573d6000803e3d6000fd5b505050506040513d601f19601f820116820180604052508101906107a4919061275e565b50845b60025465ffffffffffff1615610a45576002805465ffffffffffff166000908152600160205260409020908101546107df90876127a4565b60018201546107ee90896127a4565b10156107fa5750610a45565b600081600101548260020154836003015461081591906127a4565b61081f91906127bb565b826002015461082e919061272c565b905080831061094b57610841818461272c565b925081600301548260010154610857919061272c565b61086190866127dd565b945061086e8260016124e6565b60018201546003830155815460405163a9059cbb60e01b81526001600160a01b037f000000000000000000000000000000000000000000000000000000000000000081169263a9059cbb926108d392600160601b909204909116908590600401612745565b6020604051808303816000875af11580156108f2573d6000803e3d6000fd5b505050506040513d601f19601f82011682018060405250810190610916919061275e565b50815465ffffffffffff1990811665ffffffffffff90811780855560028054909316600160301b909104909116179055610a3e565b6000826002015483600101548561096291906127a4565b61096c91906127bb565b905061097881876127dd565b95508083600301600082825461098e91906127dd565b9091555050825460405163a9059cbb60e01b81526001600160a01b037f000000000000000000000000000000000000000000000000000000000000000081169263a9059cbb926109ee92600160601b909204909116908890600401612745565b6020604051808303816000875af1158015610a0d573d6000803e3d6000fd5b505050506040513d601f19601f82011682018060405250810190610a31919061275e565b5060009350505050610a45565b50506107a7565b610a4f818761272c565b935060008411610a8b5760405162461bcd60e51b81526020600482015260076024820152661b9bc81919585b60ca1b60448201526064016104c9565b612710610abb60ff7f000000000000000000000000000000000000000000000000000000000000000016866127a4565b610ac591906127bb565b91508115610b82576040516323b872dd60e01b81526001600160a01b037f000000000000000000000000000000000000000000000000000000000000000016906323b872dd90610b3d9033907f0000000000000000000000000000000000000000000000000000000000000000908790600401612780565b6020604051808303816000875af1158015610b5c573d6000803e3d6000fd5b505050506040513d601f19601f82011682018060405250810190610b80919061275e565b505b8015610c1b5760405163a9059cbb60e01b81526001600160a01b037f0000000000000000000000000000000000000000000000000000000000000000169063a9059cbb90610bd69033908590600401612745565b6020604051808303816000875af1158015610bf5573d6000803e3d6000fd5b505050506040513d601f19601f82011682018060405250810190610c19919061275e565b505b8215610cb45760405163a9059cbb60e01b81526001600160a01b037f0000000000000000000000000000000000000000000000000000000000000000169063a9059cbb90610c6f9033908790600401612745565b6020604051808303816000875af1158015610c8e573d6000803e3d6000fd5b505050506040513d601f19601f82011682018060405250810190610cb2919061275e565b505b509250925092565b65ffffffffffff811660009081526003602052604081208054600160601b90046001600160a01b03163314610d035760405162461bcd60e51b81526004016104c99061269d565b805465ffffffffffff1665fffffffffffe1901610d325760405162461bcd60e51b81526004016104c9906126d4565b610d3d8160036124e6565b60045465ffffffffffff808516911603610d7957805460048054600160301b90920465ffffffffffff1665ffffffffffff199092169190911790555b805465ffffffffffff191665ffffffffffff17815560038101546001820154610da2919061272c565b915081156106b657805460405163a9059cbb60e01b81526001600160a01b037f000000000000000000000000000000000000000000000000000000000000000081169263a9059cbb9261067192600160601b909204909116908690600401612745565b610e0d61257e565b5065ffffffffffff908116600090815260036020818152604092839020835160c08101855281548087168252600160301b810490961692810192909252600160601b9094046001600160a01b0316928101929092526001830154606083015260028301546080830152919091015460a082015290565b6000808411610ed45760405162461bcd60e51b815260206004820152601b60248201527f746f6b656e30496e20616d6f756e742063616e6e6f742062652030000000000060448201526064016104c9565b60008311610f245760405162461bcd60e51b815260206004820152601c60248201527f746f6b656e314f757420616d6f756e742063616e6e6f7420626520300000000060448201526064016104c9565b6040516323b872dd60e01b81526001600160a01b037f000000000000000000000000000000000000000000000000000000000000000016906323b872dd90610f7490339030908990600401612780565b6020604051808303816000875af1158015610f93573d6000803e3d6000fd5b505050506040513d601f19601f82011682018060405250810190610fb7919061275e565b50600080548190610fcf9065ffffffffffff166127f0565b91906101000a81548165ffffffffffff021916908365ffffffffffff16021790559050600460009054906101000a900465ffffffffffff1665ffffffffffff166000036110d1576040805160c0810182526000808252602080830182815233848601908152606085018a8152608086018a815260a0870186815265ffffffffffff8a81168089526003978890529990972097518854955194516001600160a01b0316600160601b026001600160601b03958916600160301b026001600160601b031990971691909816179490941792909216949094178555925160018501559151600284015590519101556004805465ffffffffffff1916909117905561166a565b8165ffffffffffff166000036112315760045465ffffffffffff166000908152600360205260409020600181015461110a9085906127a4565b85826002015461111a91906127a4565b116111675760405162461bcd60e51b815260206004820152601a60248201527f796f7572207072696365206d757374203c20746f704f7264657200000000000060448201526064016104c9565b805465ffffffffffff80841665ffffffffffff1992831681179093556040805160c0810182526000808252600480548516602080850191825233858701908152606086018e8152608087018e815260a088018781528c88526003948590529890962096518754945192516001600160a01b0316600160601b026001600160601b03938b16600160301b026001600160601b031990961691909a161793909317169690961784555160018401559051600283015591519201919091558054909116909117905561166a565b65ffffffffffff821660009081526003602052604090208054600160601b90046001600160a01b03166112a15760405162461bcd60e51b81526020600482015260186024820152771899599bdc9953dc99195c881a5cc81b9bdd08195e1a5cdd60421b60448201526064016104c9565b805465ffffffffffff1665fffffffffffe19016113005760405162461bcd60e51b815260206004820152601c60248201527f6265666f72654f726465722069732072656d6f76656428646f6e65290000000060448201526064016104c9565b83816001015461131091906127a4565b85826002015461132091906127a4565b111561136e5760405162461bcd60e51b815260206004820152601e60248201527f796f7572207072696365206d757374203e3d206265666f72654f72646572000060448201526064016104c9565b8054600160301b900465ffffffffffff1660000361144a57805465ffffffffffff808416600160301b81810265ffffffffffff60301b19909416939093179093556040805160c08101825286831681526000602080830182815233848601908152606085018d8152608086018d815260a087018681529a86526003948590529690942094518554925191516001600160a01b0316600160601b026001600160601b039289169099026001600160601b0319909316971696909617179490941694909417815592516001840155516002830155915191015561166a565b805465ffffffffffff600160301b9091041660009081526003602052604090208054600160601b90046001600160a01b03166114c25760405162461bcd60e51b815260206004820152601760248201527618599d195c93dc99195c881a5cc81b9bdd08195e1a5cdd604a1b60448201526064016104c9565b805465ffffffffffff1665fffffffffffe19016115215760405162461bcd60e51b815260206004820152601b60248201527f61667465724f726465722069732072656d6f76656428646f6e6529000000000060448201526064016104c9565b84816001015461153191906127a4565b86826002015461154191906127a4565b1161158e5760405162461bcd60e51b815260206004820152601c60248201527f796f7572207072696365206d757374203c2061667465724f726465720000000060448201526064016104c9565b6040805160c08101825265ffffffffffff80871682528454600160301b908190048216602080850191825233858701908152606086018d8152608087018d8152600060a089018181528d89168083526003968790529a90912098518954965194516001600160a01b0316600160601b026001600160601b03958a1689026001600160601b0319909816919099161795909517929092169590951786559351600186015592516002850155519290910191909155835490820265ffffffffffff60301b199190911617909255805465ffffffffffff191690911790555b9392505050565b65ffffffffffff821660009081526003602052604090208054600160601b90046001600160a01b031633146104d25760405162461bcd60e51b81526004016104c99061269d565b6004546000908190819065ffffffffffff16810361170e5760405162461bcd60e51b815260206004820152601360248201527273656c6c4f726465727320697320656d70747960681b60448201526064016104c9565b6040516323b872dd60e01b81526001600160a01b037f000000000000000000000000000000000000000000000000000000000000000016906323b872dd9061175e90339030908a90600401612780565b6020604051808303816000875af115801561177d573d6000803e3d6000fd5b505050506040513d601f19601f820116820180604052508101906117a1919061275e565b50845b60045465ffffffffffff1615611a425760045465ffffffffffff16600090815260036020526040902060028101546117dc90876127a4565b60018201546117eb90896127a4565b10156117f75750611a42565b600081600101548260020154836003015461181291906127a4565b61181c91906127bb565b826002015461182b919061272c565b90508083106119485761183e818461272c565b925081600301548260010154611854919061272c565b61185e90866127dd565b945061186b8260036124e6565b60018201546003830155815460405163a9059cbb60e01b81526001600160a01b037f000000000000000000000000000000000000000000000000000000000000000081169263a9059cbb926118d092600160601b909204909116908590600401612745565b6020604051808303816000875af11580156118ef573d6000803e3d6000fd5b505050506040513d601f19601f82011682018060405250810190611913919061275e565b50815465ffffffffffff1990811665ffffffffffff90811780855560048054909316600160301b909104909116179055611a3b565b6000826002015483600101548561195f91906127a4565b61196991906127bb565b905061197581876127dd565b95508083600301600082825461198b91906127dd565b9091555050825460405163a9059cbb60e01b81526001600160a01b037f000000000000000000000000000000000000000000000000000000000000000081169263a9059cbb926119eb92600160601b909204909116908890600401612745565b6020604051808303816000875af1158015611a0a573d6000803e3d6000fd5b505050506040513d601f19601f82011682018060405250810190611a2e919061275e565b5060009350505050611a42565b50506117a4565b611a4c818761272c565b935060008411611a885760405162461bcd60e51b81526020600482015260076024820152661b9bc81919585b60ca1b60448201526064016104c9565b612710611ab860ff7f000000000000000000000000000000000000000000000000000000000000000016866127a4565b611ac291906127bb565b91508115611b7f576040516323b872dd60e01b81526001600160a01b037f000000000000000000000000000000000000000000000000000000000000000016906323b872dd90611b3a9033907f0000000000000000000000000000000000000000000000000000000000000000908790600401612780565b6020604051808303816000875af1158015611b59573d6000803e3d6000fd5b505050506040513d601f19601f82011682018060405250810190611b7d919061275e565b505b8015611c185760405163a9059cbb60e01b81526001600160a01b037f0000000000000000000000000000000000000000000000000000000000000000169063a9059cbb90611bd39033908590600401612745565b6020604051808303816000875af1158015611bf2573d6000803e3d6000fd5b505050506040513d601f19601f82011682018060405250810190611c16919061275e565b505b8215610cb45760405163a9059cbb60e01b81526001600160a01b037f0000000000000000000000000000000000000000000000000000000000000000169063a9059cbb90610c6f9033908790600401612745565b6000808411611cbd5760405162461bcd60e51b815260206004820152601b60248201527f746f6b656e31496e20616d6f756e742063616e6e6f742062652030000000000060448201526064016104c9565b60008311611d0d5760405162461bcd60e51b815260206004820152601c60248201527f746f6b656e304f757420616d6f756e742063616e6e6f7420626520300000000060448201526064016104c9565b6040516323b872dd60e01b81526001600160a01b037f000000000000000000000000000000000000000000000000000000000000000016906323b872dd90611d5d90339030908990600401612780565b6020604051808303816000875af1158015611d7c573d6000803e3d6000fd5b505050506040513d601f19601f82011682018060405250810190611da0919061275e565b50600080548190611db89065ffffffffffff166127f0565b91906101000a81548165ffffffffffff021916908365ffffffffffff16021790559050600260009054906101000a900465ffffffffffff1665ffffffffffff16600003611ec4576040805160c0810182526000808252602080830182815233848601908152606085018a8152608086018a815260a0870186815265ffffffffffff8a81168089526001978890529990972097518854955194516001600160a01b0316600160601b026001600160601b03958916600160301b026001600160601b03199097169190981617949094179290921694909417855592519184019190915590516002808401919091559051600390920191909155805465ffffffffffff1916909117905561166a565b8165ffffffffffff166000036120265760025465ffffffffffff16600090815260016020819052604090912090810154611eff9085906127a4565b858260020154611f0f91906127a4565b11611f5c5760405162461bcd60e51b815260206004820152601a60248201527f796f7572207072696365206d757374203e20746f704f7264657200000000000060448201526064016104c9565b805465ffffffffffff80841665ffffffffffff1992831681179093556040805160c0810182526000808252600280548516602080850191825233858701908152606086018e8152608087018e815260a088018781528c88526001948590529890962096518754945192516001600160a01b0316600160601b026001600160601b03938b16600160301b026001600160601b031990961691909a161793909317169690961784555194830194909455518184015590516003909101558054909116909117905561166a565b65ffffffffffff821660009081526001602052604090208054600160601b90046001600160a01b03166120965760405162461bcd60e51b81526020600482015260186024820152771899599bdc9953dc99195c881a5cc81b9bdd08195e1a5cdd60421b60448201526064016104c9565b805465ffffffffffff1665fffffffffffe19016120f55760405162461bcd60e51b815260206004820152601c60248201527f6265666f72654f726465722069732072656d6f76656428646f6e65290000000060448201526064016104c9565b83816001015461210591906127a4565b85826002015461211591906127a4565b11156121635760405162461bcd60e51b815260206004820152601e60248201527f796f7572207072696365206d757374203c3d206265666f72654f72646572000060448201526064016104c9565b8054600160301b900465ffffffffffff1660000361224457805465ffffffffffff808416600160301b81810265ffffffffffff60301b19909416939093179093556040805160c08101825286831681526000602080830182815233848601908152606085018d8152608086018d815260a087018681529a86526001948590529690942094518554925191516001600160a01b0316600160601b026001600160601b039289169099026001600160601b03199093169716969096171794909416949094178155925191830191909155516002820155905160039091015561166a565b805465ffffffffffff600160301b9091041660009081526001602052604090208054600160601b90046001600160a01b03166122bc5760405162461bcd60e51b815260206004820152601760248201527618599d195c93dc99195c881a5cc81b9bdd08195e1a5cdd604a1b60448201526064016104c9565b805465ffffffffffff1665fffffffffffe190161231b5760405162461bcd60e51b815260206004820152601b60248201527f61667465724f726465722069732072656d6f76656428646f6e6529000000000060448201526064016104c9565b84816001015461232b91906127a4565b86826002015461233b91906127a4565b116123885760405162461bcd60e51b815260206004820152601c60248201527f796f7572207072696365206d757374203e2061667465724f726465720000000060448201526064016104c9565b6040805160c08101825265ffffffffffff95861681528354600160301b908190048716602080840191825233848601908152606085019b8c52608085019a8b52600060a086018181528a8c168083526001948590529790912095518654945192516001600160a01b0316600160601b026001600160601b03938d1687026001600160601b031990961691909c16179390931716989098178355985196820196909655955160028701559551600390950194909455805492850265ffffffffffff60301b1990931692909217909155815465ffffffffffff1916909217905590565b61247161257e565b5065ffffffffffff908116600090815260016020818152604092839020835160c08101855281548087168252600160301b810490961692810192909252600160601b9094046001600160a01b03169281019290925282015460608201526002820154608082015260039091015460a082015290565b815465ffffffffffff161561253057815465ffffffffffff8082166000908152602084905260409020805465ffffffffffff60301b1916600160301b938490049092169092021790555b8154600160301b900465ffffffffffff161561257a578154600160301b810465ffffffffffff9081166000908152602084905260409020805465ffffffffffff1916919092161790555b5050565b6040518060c00160405280600065ffffffffffff168152602001600065ffffffffffff16815260200160006001600160a01b031681526020016000815260200160008152602001600081525090565b803565ffffffffffff811681146125e357600080fd5b919050565b600080604083850312156125fb57600080fd5b612604836125cd565b915060208301356001600160a01b038116811461262057600080fd5b809150509250929050565b60006020828403121561263d57600080fd5b61166a826125cd565b6000806040838503121561265957600080fd5b50508035926020909101359150565b60008060006060848603121561267d57600080fd5b8335925060208401359150612694604085016125cd565b90509250925092565b6020808252601e908201527f796f7520617265206e6f74206f776e6572206f6620746865206f726465720000604082015260600190565b60208082526022908201527f746865206f7264657220697320616c72656164792072656d6f76656428646f6e604082015261652960f01b606082015260800190565b634e487b7160e01b600052601160045260246000fd5b8181038181111561273f5761273f612716565b92915050565b6001600160a01b03929092168252602082015260400190565b60006020828403121561277057600080fd5b8151801515811461166a57600080fd5b6001600160a01b039384168152919092166020820152604081019190915260600190565b808202811582820484141761273f5761273f612716565b6000826127d857634e487b7160e01b600052601260045260246000fd5b500490565b8082018082111561273f5761273f612716565b600065ffffffffffff80831681810361280b5761280b612716565b600101939250505056fea26469706673582212203f7f15fb65ed28bd777fd54083704f9e68ae634b0271b21711fe17a5a3020c9964736f6c63430008180033",
  "linkReferences": {},
  "deployedLinkReferences": {}
}