{
  "_format": "hh-sol-artifact-1",
  "contractName": "MarsPair",
  "sourceName": "contracts/MarsPair.sol",
  "abi": [
    {
      "inputs": [
        {
          "internalType": "address",
          "name": "token0Addr",
          "type": "address"
        },
        {
          "internalType": "address",
          "name": "token1Addr",
          "type": "address"
        },
        {
          "internalType": "uint8",
          "name": "_fee",
          "type": "uint8"
        },
        {
          "internalType": "address",
          "name": "_feeTo",
          "type": "address"
        }
      ],
      "stateMutability": "nonpayable",
      "type": "constructor"
    },
    {
      "inputs": [
        {
          "internalType": "uint48",
          "name": "",
          "type": "uint48"
        }
      ],
      "name": "buyOrders",
      "outputs": [
        {
          "internalType": "uint48",
          "name": "beforeOrderId",
          "type": "uint48"
        },
        {
          "internalType": "uint48",
          "name": "afterOrderId",
          "type": "uint48"
        },
        {
          "internalType": "address",
          "name": "owner",
          "type": "address"
        },
        {
          "internalType": "uint112",
          "name": "amountIn",
          "type": "uint112"
        },
        {
          "internalType": "uint112",
          "name": "amountOut",
          "type": "uint112"
        },
        {
          "internalType": "uint32",
          "name": "progress",
          "type": "uint32"
        }
      ],
      "stateMutability": "view",
      "type": "function"
    },
    {
      "inputs": [
        {
          "internalType": "uint48",
          "name": "orderId",
          "type": "uint48"
        }
      ],
      "name": "cancelBuyOrder",
      "outputs": [
        {
          "internalType": "uint112",
          "name": "token1Left",
          "type": "uint112"
        }
      ],
      "stateMutability": "nonpayable",
      "type": "function"
    },
    {
      "inputs": [
        {
          "internalType": "uint48",
          "name": "orderId",
          "type": "uint48"
        }
      ],
      "name": "cancelSellOrder",
      "outputs": [
        {
          "internalType": "uint112",
          "name": "token0Left",
          "type": "uint112"
        }
      ],
      "stateMutability": "nonpayable",
      "type": "function"
    },
    {
      "inputs": [
        {
          "internalType": "uint48",
          "name": "orderId",
          "type": "uint48"
        },
        {
          "internalType": "address",
          "name": "newOwner",
          "type": "address"
        }
      ],
      "name": "changeBuyOrderOwner",
      "outputs": [],
      "stateMutability": "nonpayable",
      "type": "function"
    },
    {
      "inputs": [
        {
          "internalType": "uint48",
          "name": "orderId",
          "type": "uint48"
        },
        {
          "internalType": "address",
          "name": "newOwner",
          "type": "address"
        }
      ],
      "name": "changeSellOrderOwner",
      "outputs": [],
      "stateMutability": "nonpayable",
      "type": "function"
    },
    {
      "inputs": [],
      "name": "count",
      "outputs": [
        {
          "internalType": "uint48",
          "name": "",
          "type": "uint48"
        }
      ],
      "stateMutability": "view",
      "type": "function"
    },
    {
      "inputs": [],
      "name": "fee",
      "outputs": [
        {
          "internalType": "uint8",
          "name": "",
          "type": "uint8"
        }
      ],
      "stateMutability": "view",
      "type": "function"
    },
    {
      "inputs": [],
      "name": "feeTo",
      "outputs": [
        {
          "internalType": "address",
          "name": "",
          "type": "address"
        }
      ],
      "stateMutability": "view",
      "type": "function"
    },
    {
      "inputs": [
        {
          "internalType": "uint48",
          "name": "orderId",
          "type": "uint48"
        }
      ],
      "name": "getBuyOrder",
      "outputs": [
        {
          "components": [
            {
              "internalType": "uint48",
              "name": "beforeOrderId",
              "type": "uint48"
            },
            {
              "internalType": "uint48",
              "name": "afterOrderId",
              "type": "uint48"
            },
            {
              "internalType": "address",
              "name": "owner",
              "type": "address"
            },
            {
              "internalType": "uint112",
              "name": "amountIn",
              "type": "uint112"
            },
            {
              "internalType": "uint112",
              "name": "amountOut",
              "type": "uint112"
            },
            {
              "internalType": "uint32",
              "name": "progress",
              "type": "uint32"
            }
          ],
          "internalType": "struct MarsPair.Order",
          "name": "",
          "type": "tuple"
        }
      ],
      "stateMutability": "view",
      "type": "function"
    },
    {
      "inputs": [
        {
          "internalType": "uint48",
          "name": "orderId",
          "type": "uint48"
        }
      ],
      "name": "getSellOrder",
      "outputs": [
        {
          "components": [
            {
              "internalType": "uint48",
              "name": "beforeOrderId",
              "type": "uint48"
            },
            {
              "internalType": "uint48",
              "name": "afterOrderId",
              "type": "uint48"
            },
            {
              "internalType": "address",
              "name": "owner",
              "type": "address"
            },
            {
              "internalType": "uint112",
              "name": "amountIn",
              "type": "uint112"
            },
            {
              "internalType": "uint112",
              "name": "amountOut",
              "type": "uint112"
            },
            {
              "internalType": "uint32",
              "name": "progress",
              "type": "uint32"
            }
          ],
          "internalType": "struct MarsPair.Order",
          "name": "",
          "type": "tuple"
        }
      ],
      "stateMutability": "view",
      "type": "function"
    },
    {
      "inputs": [
        {
          "internalType": "uint48",
          "name": "orderId",
          "type": "uint48"
        }
      ],
      "name": "isBuy",
      "outputs": [
        {
          "internalType": "bool",
          "name": "",
          "type": "bool"
        }
      ],
      "stateMutability": "view",
      "type": "function"
    },
    {
      "inputs": [
        {
          "internalType": "uint112",
          "name": "token1In",
          "type": "uint112"
        },
        {
          "internalType": "uint112",
          "name": "token0Out",
          "type": "uint112"
        },
        {
          "internalType": "uint48",
          "name": "beforeOrderId",
          "type": "uint48"
        }
      ],
      "name": "makeBuyOrder",
      "outputs": [
        {
          "internalType": "uint48",
          "name": "",
          "type": "uint48"
        }
      ],
      "stateMutability": "nonpayable",
      "type": "function"
    },
    {
      "inputs": [
        {
          "internalType": "uint112",
          "name": "token0In",
          "type": "uint112"
        },
        {
          "internalType": "uint112",
          "name": "token1Out",
          "type": "uint112"
        },
        {
          "internalType": "uint48",
          "name": "beforeOrderId",
          "type": "uint48"
        }
      ],
      "name": "makeSellOrder",
      "outputs": [
        {
          "internalType": "uint48",
          "name": "",
          "type": "uint48"
        }
      ],
      "stateMutability": "nonpayable",
      "type": "function"
    },
    {
      "inputs": [
        {
          "internalType": "uint48",
          "name": "",
          "type": "uint48"
        }
      ],
      "name": "sellOrders",
      "outputs": [
        {
          "internalType": "uint48",
          "name": "beforeOrderId",
          "type": "uint48"
        },
        {
          "internalType": "uint48",
          "name": "afterOrderId",
          "type": "uint48"
        },
        {
          "internalType": "address",
          "name": "owner",
          "type": "address"
        },
        {
          "internalType": "uint112",
          "name": "amountIn",
          "type": "uint112"
        },
        {
          "internalType": "uint112",
          "name": "amountOut",
          "type": "uint112"
        },
        {
          "internalType": "uint32",
          "name": "progress",
          "type": "uint32"
        }
      ],
      "stateMutability": "view",
      "type": "function"
    },
    {
      "inputs": [
        {
          "internalType": "uint112",
          "name": "token0In",
          "type": "uint112"
        },
        {
          "internalType": "uint112",
          "name": "token1Want",
          "type": "uint112"
        }
      ],
      "name": "takeBuyOrder",
      "outputs": [
        {
          "internalType": "uint112",
          "name": "token0Pay",
          "type": "uint112"
        },
        {
          "internalType": "uint112",
          "name": "token1Gain",
          "type": "uint112"
        },
        {
          "internalType": "uint112",
          "name": "token0Fee",
          "type": "uint112"
        }
      ],
      "stateMutability": "nonpayable",
      "type": "function"
    },
    {
      "inputs": [
        {
          "internalType": "uint112",
          "name": "token1In",
          "type": "uint112"
        },
        {
          "internalType": "uint112",
          "name": "token0Want",
          "type": "uint112"
        }
      ],
      "name": "takeSellOrder",
      "outputs": [
        {
          "internalType": "uint112",
          "name": "token1Pay",
          "type": "uint112"
        },
        {
          "internalType": "uint112",
          "name": "token0Gain",
          "type": "uint112"
        },
        {
          "internalType": "uint112",
          "name": "token1Fee",
          "type": "uint112"
        }
      ],
      "stateMutability": "nonpayable",
      "type": "function"
    },
    {
      "inputs": [],
      "name": "token0",
      "outputs": [
        {
          "internalType": "contract IERC20",
          "name": "",
          "type": "address"
        }
      ],
      "stateMutability": "view",
      "type": "function"
    },
    {
      "inputs": [],
      "name": "token1",
      "outputs": [
        {
          "internalType": "contract IERC20",
          "name": "",
          "type": "address"
        }
      ],
      "stateMutability": "view",
      "type": "function"
    },
    {
      "inputs": [],
      "name": "topBuyOrderId",
      "outputs": [
        {
          "internalType": "uint48",
          "name": "",
          "type": "uint48"
        }
      ],
      "stateMutability": "view",
      "type": "function"
    },
    {
      "inputs": [],
      "name": "topSellOrderId",
      "outputs": [
        {
          "internalType": "uint48",
          "name": "",
          "type": "uint48"
        }
      ],
      "stateMutability": "view",
      "type": "function"
    }
  ],
  "bytecode": "0x6101006040526000805465ffffffffffff191690553480156200002157600080fd5b506040516200337338038062003373833981016040819052620000449162000085565b6001600160a01b0393841660805291831660a05260ff1660c0521660e052620000e9565b80516001600160a01b03811681146200008057600080fd5b919050565b600080600080608085870312156200009c57600080fd5b620000a78562000068565b9350620000b76020860162000068565b9250604085015160ff81168114620000ce57600080fd5b9150620000de6060860162000068565b905092959194509250565b60805160a05160c05160e0516131b6620001bd6000396000818161013601528181611518015281816115ce01528181611d940152611e4a01526000818161057f015281816115470152611dc301526000818161041c0152818161076101528181611098015281816112b90152818161143b0152818161159f0152818161167901528181611f9f01526121420152600081816101b6015281816117230152818161190201528181611b3501528181611cb701528181611e1b01528181611ef5015281816123c6015261253501526131b66000f3fe608060405234801561001057600080fd5b506004361061012c5760003560e01c8063a1cca87e116100ad578063d44ca7af11610071578063d44ca7af1461043e578063d7d99b0b14610507578063ddca3f431461057a578063e5c274bc146105b3578063f02d8fae1461067f57600080fd5b8063a1cca87e1461029d578063ae445bac146102b0578063bfe1363e146103f2578063c4ccb40a14610405578063d21220a71461041757600080fd5b806358c0c530116100f457806358c0c53014610215578063596afb4d1461022a57806367d301f91461023d5780637c33e99a14610268578063943525de1461027a57600080fd5b8063017e7e581461013157806306661abd146101755780630a1926201461019e5780630dfe1681146101b15780634bb43f28146101d8575b600080fd5b6101587f000000000000000000000000000000000000000000000000000000000000000081565b6040516001600160a01b0390911681526020015b60405180910390f35b6000546101879065ffffffffffff1681565b60405165ffffffffffff909116815260200161016c565b6101876101ac366004612eb6565b610692565b6101587f000000000000000000000000000000000000000000000000000000000000000081565b6101eb6101e6366004612ef9565b611018565b604080516001600160701b039485168152928416602084015292169181019190915260600161016c565b610228610223366004612f2c565b6117a3565b005b6101eb610238366004612ef9565b611896565b61025061024b366004612f6f565b611fd6565b6040516001600160701b03909116815260200161016c565b6004546101879065ffffffffffff1681565b61028d610288366004612f6f565b6121b9565b604051901515815260200161016c565b6102506102ab366004612f6f565b61225a565b61037d6102be366004612f6f565b6040805160c081018252600080825260208201819052918101829052606081018290526080810182905260a08101919091525065ffffffffffff908116600090815260036020908152604091829020825160c08101845281548086168252600160301b810490951692810192909252600160601b9093046001600160a01b0316918101919091526001909101546001600160701b038082166060840152600160701b8204166080830152600160e01b900463ffffffff1660a082015290565b60405161016c9190600060c08201905065ffffffffffff8084511683528060208501511660208401525060018060a01b03604084015116604083015260608301516001600160701b038082166060850152806080860151166080850152505063ffffffff60a08401511660a083015292915050565b610228610400366004612f2c565b6123f5565b6002546101879065ffffffffffff1681565b6101587f000000000000000000000000000000000000000000000000000000000000000081565b6104b161044c366004612f6f565b6001602081905260009182526040909120805491015465ffffffffffff80831692600160301b810490911691600160601b9091046001600160a01b0316906001600160701b0380821691600160701b810490911690600160e01b900463ffffffff1686565b6040805165ffffffffffff97881681529690951660208701526001600160a01b03909316938501939093526001600160701b039081166060850152909116608083015263ffffffff1660a082015260c00161016c565b6104b1610515366004612f6f565b6003602052600090815260409020805460019091015465ffffffffffff80831692600160301b810490911691600160601b9091046001600160a01b0316906001600160701b0380821691600160701b810490911690600160e01b900463ffffffff1686565b6105a17f000000000000000000000000000000000000000000000000000000000000000081565b60405160ff909116815260200161016c565b61037d6105c1366004612f6f565b6040805160c081018252600080825260208201819052918101829052606081018290526080810182905260a08101919091525065ffffffffffff908116600090815260016020818152604092839020835160c08101855281548087168252600160301b810490961692810192909252600160601b9094046001600160a01b03169281019290925291909101546001600160701b038082166060840152600160701b8204166080830152600160e01b900463ffffffff1660a082015290565b61018761068d366004612eb6565b61246b565b600080846001600160701b0316116106f15760405162461bcd60e51b815260206004820152601b60248201527f746f6b656e31496e20616d6f756e742063616e6e6f742062652030000000000060448201526064015b60405180910390fd5b6000836001600160701b03161161074a5760405162461bcd60e51b815260206004820152601c60248201527f746f6b656e304f757420616d6f756e742063616e6e6f7420626520300000000060448201526064016106e8565b6040516323b872dd60e01b81526001600160a01b037f000000000000000000000000000000000000000000000000000000000000000016906323b872dd906107a390339030906001600160701b038a1690600401612f8a565b6020604051808303816000875af11580156107c2573d6000803e3d6000fd5b505050506040513d601f19601f820116820180604052508101906107e69190612fae565b506000805481906107fe9065ffffffffffff16612fe6565b82546101009290920a65ffffffffffff8181021990931691831602179091556002541660000361092c57506040805160c08101825260008082526020808301828152338486019081526001600160701b03808a16606087019081528982166080880190815260a08801878152875465ffffffffffff908116895260019788905299882098518954965195516001600160a01b0316600160601b026001600160601b03968c16600160301b026001600160601b0319909816918c16919091179690961794909416949094178755519590930180549251915163ffffffff16600160e01b026001600160e01b03928516600160701b026001600160e01b03199094169690941695909517919091171617909155546002805465ffffffffffff191691909216908117909155611011565b8165ffffffffffff16600003610afa5760025465ffffffffffff16600090815260016020819052604090912090810154610972906001600160701b03808716911661300b565b6001820154610994906001600160701b0380891691600160701b90041661300b565b116109e15760405162461bcd60e51b815260206004820152601a60248201527f796f7572207072696365206d757374203e20746f704f7264657200000000000060448201526064016106e8565b60008054825465ffffffffffff1990811665ffffffffffff928316179093556040805160c0810182528381526002805484166020808401918252338486019081526001600160701b03808e16606087019081528d82166080880190815260a088018b81528b548b168c52600195869052988b2097518854965194516001600160a01b0316600160601b026001600160601b03958c16600160301b026001600160601b0319909816918c1691909117969096179390931694909417865592519490910180549151955163ffffffff16600160e01b026001600160e01b03968416600160701b026001600160e01b03199093169590931694909417179390931692909217905591548254909316921691821790559050611011565b65ffffffffffff8216600090815260016020819052604082209081015490916001600160701b039091169003610b6d5760405162461bcd60e51b81526020600482015260186024820152771899599bdc9953dc99195c881a5cc81b9bdd08195e1a5cdd60421b60448201526064016106e8565b805465ffffffffffff1665fffffffffffe1901610bcc5760405162461bcd60e51b815260206004820152601c60248201527f6265666f72654f726465722069732072656d6f76656428646f6e65290000000060448201526064016106e8565b6001810154610be7906001600160701b03808716911661300b565b6001820154610c09906001600160701b0380891691600160701b90041661300b565b1115610c575760405162461bcd60e51b815260206004820152601e60248201527f796f7572207072696365206d757374203c3d206265666f72654f72646572000060448201526064016106e8565b8054600160301b900465ffffffffffff16600003610d7f57600080548254600160301b65ffffffffffff928316810265ffffffffffff60301b19909216919091179093556040805160c08101825286831681526020808201858152338385019081526001600160701b03808d16606086019081528c82166080870190815260a087018a81528a548a168b52600196879052978a2096518754955194516001600160a01b0316600160601b026001600160601b03958b16909c026001600160601b0319909616908a16179490941792909216989098178455519290910180549151935163ffffffff16600160e01b026001600160e01b03948816600160701b026001600160e01b0319909316939097169290921717919091169390931790925554169050611011565b8054600160301b900465ffffffffffff16600090815260016020819052604082209081015490916001600160701b039091169003610df95760405162461bcd60e51b815260206004820152601760248201527618599d195c93dc99195c881a5cc81b9bdd08195e1a5cdd604a1b60448201526064016106e8565b805465ffffffffffff1665fffffffffffe1901610e585760405162461bcd60e51b815260206004820152601b60248201527f61667465724f726465722069732072656d6f76656428646f6e6529000000000060448201526064016106e8565b6001810154610e73906001600160701b03808816911661300b565b6001820154610e95906001600160701b03808a1691600160701b90041661300b565b11610ee25760405162461bcd60e51b815260206004820152601c60248201527f796f7572207072696365206d757374203e2061667465724f726465720000000060448201526064016106e8565b6040805160c08101825265ffffffffffff80871682528454600160301b9081900482166020808501918252338587019081526001600160701b03808e16606088019081528d821660808901908152600060a08a0181815281548a1682526001968790529a812099518a54975195516001600160a01b0316600160601b026001600160601b03968b168a026001600160601b0319909916918b16919091179790971794909416959095178855519690920180549351975163ffffffff16600160e01b026001600160e01b03988416600160701b026001600160e01b031990951697909316969096179290921795909516949094179092558254855490821690920265ffffffffffff60301b1992909216919091179093558054825465ffffffffffff191690841617909155541690505b9392505050565b6004546000908190819065ffffffffffff16810361106e5760405162461bcd60e51b815260206004820152601360248201527273656c6c4f726465727320697320656d70747960681b60448201526064016106e8565b6040516323b872dd60e01b81523360048201523060248201526001600160701b03861660448201527f00000000000000000000000000000000000000000000000000000000000000006001600160a01b0316906323b872dd906064016020604051808303816000875af11580156110e9573d6000803e3d6000fd5b505050506040513d601f19601f8201168201806040525081019061110d9190612fae565b50845b60045465ffffffffffff16156114be5760045465ffffffffffff166000908152600360205260409020600181015461115c906001600160701b03600160701b909104811690881661300b565b6001820154611178906001600160701b03908116908a1661300b565b101561118457506114be565b600181015460009063ffffffff906111af906001600160701b03811690600160e01b9004831661300b565b6111b9919061303e565b60018301549091506000906001600160701b03808216916111e691600160701b909104811690851661300b565b6111f0919061303e565b600184015461120f9190600160701b90046001600160701b0316613052565b9050806001600160701b0316846001600160701b03161061135d576112348185613052565b60018401549094506112509083906001600160701b0316613052565b61125a9087613079565b9550611267836003612dec565b6001830180546001600160e01b03166001600160e01b0319179055825460405163a9059cbb60e01b81526001600160a01b03600160601b909204821660048201526001600160701b03831660248201527f00000000000000000000000000000000000000000000000000000000000000009091169063a9059cbb906044016020604051808303816000875af1158015611304573d6000803e3d6000fd5b505050506040513d601f19601f820116820180604052508101906113289190612fae565b50825465ffffffffffff1990811665ffffffffffff90811780865560048054909316600160301b9091049091161790556114b6565b60018301546000906001600160701b03600160701b82048116916113869190811690881661300b565b611390919061303e565b905061139c8188613079565b96506113a88184613079565b60018501549093506001600160701b03166113c763ffffffff85613099565b6113d191906130c4565b6113dc9060016130ea565b6001850180546001600160e01b0316600160e01b63ffffffff9390931692909202919091179055835460405163a9059cbb60e01b8152600160601b9091046001600160a01b0390811660048301526001600160701b03871660248301527f0000000000000000000000000000000000000000000000000000000000000000169063a9059cbb906044016020604051808303816000875af1158015611484573d6000803e3d6000fd5b505050506040513d601f19601f820116820180604052508101906114a89190612fae565b5060009450505050506114be565b505050611110565b6114c88187613052565b93506000846001600160701b03161161150d5760405162461bcd60e51b81526020600482015260076024820152661b9bc81919585b60ca1b60448201526064016106e8565b336001600160a01b037f000000000000000000000000000000000000000000000000000000000000000016146116465761271061156d60ff7f00000000000000000000000000000000000000000000000000000000000000001686613099565b61157791906130c4565b91506001600160701b03821615611646576040516323b872dd60e01b81526001600160a01b037f000000000000000000000000000000000000000000000000000000000000000016906323b872dd906116019033907f0000000000000000000000000000000000000000000000000000000000000000906001600160701b03881690600401612f8a565b6020604051808303816000875af1158015611620573d6000803e3d6000fd5b505050506040513d601f19601f820116820180604052508101906116449190612fae565b505b6001600160701b038116156116f05760405163a9059cbb60e01b81523360048201526001600160701b03821660248201527f00000000000000000000000000000000000000000000000000000000000000006001600160a01b03169063a9059cbb906044016020604051808303816000875af11580156116ca573d6000803e3d6000fd5b505050506040513d601f19601f820116820180604052508101906116ee9190612fae565b505b6001600160701b0383161561179b5760405163a9059cbb60e01b81523360048201526001600160701b03841660248201527f00000000000000000000000000000000000000000000000000000000000000006001600160a01b03169063a9059cbb906044015b6020604051808303816000875af1158015611775573d6000803e3d6000fd5b505050506040513d601f19601f820116820180604052508101906117999190612fae565b505b509250925092565b65ffffffffffff821660009081526001602052604090208054600160601b90046001600160a01b031633146117ea5760405162461bcd60e51b81526004016106e890613107565b805465ffffffffffff1665fffffffffffe19016118195760405162461bcd60e51b81526004016106e89061313e565b6001600160a01b03821661186f5760405162461bcd60e51b815260206004820152601c60248201527f6e65774f776e65722063616e277420626520616464726573732830290000000060448201526064016106e8565b80546001600160a01b03909216600160601b026001600160601b0390921691909117905550565b6002546000908190819065ffffffffffff1681036118eb5760405162461bcd60e51b81526020600482015260126024820152716275794f726465727320697320656d70747960701b60448201526064016106e8565b6040516323b872dd60e01b81526001600160a01b037f000000000000000000000000000000000000000000000000000000000000000016906323b872dd9061194490339030906001600160701b038b1690600401612f8a565b6020604051808303816000875af1158015611963573d6000803e3d6000fd5b505050506040513d601f19601f820116820180604052508101906119879190612fae565b50845b60025465ffffffffffff1615611d3a5760025465ffffffffffff166000908152600160208190526040909120908101546119d8906001600160701b03600160701b909104811690881661300b565b60018201546119f4906001600160701b03908116908a1661300b565b1015611a005750611d3a565b600181015460009063ffffffff90611a2b906001600160701b03811690600160e01b9004831661300b565b611a35919061303e565b60018301549091506000906001600160701b0380821691611a6291600160701b909104811690851661300b565b611a6c919061303e565b6001840154611a8b9190600160701b90046001600160701b0316613052565b9050806001600160701b0316846001600160701b031610611bd957611ab08185613052565b6001840154909450611acc9083906001600160701b0316613052565b611ad69087613079565b9550611ae3836001612dec565b6001830180546001600160e01b03166001600160e01b0319179055825460405163a9059cbb60e01b81526001600160a01b03600160601b909204821660048201526001600160701b03831660248201527f00000000000000000000000000000000000000000000000000000000000000009091169063a9059cbb906044016020604051808303816000875af1158015611b80573d6000803e3d6000fd5b505050506040513d601f19601f82011682018060405250810190611ba49190612fae565b50825465ffffffffffff1990811665ffffffffffff90811780865560028054909316600160301b909104909116179055611d32565b60018301546000906001600160701b03600160701b8204811691611c029190811690881661300b565b611c0c919061303e565b9050611c188188613079565b9650611c248184613079565b60018501549093506001600160701b0316611c4363ffffffff85613099565b611c4d91906130c4565b611c589060016130ea565b6001850180546001600160e01b0316600160e01b63ffffffff9390931692909202919091179055835460405163a9059cbb60e01b8152600160601b9091046001600160a01b0390811660048301526001600160701b03871660248301527f0000000000000000000000000000000000000000000000000000000000000000169063a9059cbb906044016020604051808303816000875af1158015611d00573d6000803e3d6000fd5b505050506040513d601f19601f82011682018060405250810190611d249190612fae565b506000945050505050611d3a565b50505061198a565b611d448187613052565b93506000846001600160701b031611611d895760405162461bcd60e51b81526020600482015260076024820152661b9bc81919585b60ca1b60448201526064016106e8565b336001600160a01b037f00000000000000000000000000000000000000000000000000000000000000001614611ec257612710611de960ff7f00000000000000000000000000000000000000000000000000000000000000001686613099565b611df391906130c4565b91506001600160701b03821615611ec2576040516323b872dd60e01b81526001600160a01b037f000000000000000000000000000000000000000000000000000000000000000016906323b872dd90611e7d9033907f0000000000000000000000000000000000000000000000000000000000000000906001600160701b03881690600401612f8a565b6020604051808303816000875af1158015611e9c573d6000803e3d6000fd5b505050506040513d601f19601f82011682018060405250810190611ec09190612fae565b505b6001600160701b03811615611f6c5760405163a9059cbb60e01b81523360048201526001600160701b03821660248201527f00000000000000000000000000000000000000000000000000000000000000006001600160a01b03169063a9059cbb906044016020604051808303816000875af1158015611f46573d6000803e3d6000fd5b505050506040513d601f19601f82011682018060405250810190611f6a9190612fae565b505b6001600160701b0383161561179b5760405163a9059cbb60e01b81523360048201526001600160701b03841660248201527f00000000000000000000000000000000000000000000000000000000000000006001600160a01b03169063a9059cbb90604401611756565b65ffffffffffff811660009081526001602052604081208054600160601b90046001600160a01b0316331461201d5760405162461bcd60e51b81526004016106e890613107565b805465ffffffffffff1665fffffffffffe190161204c5760405162461bcd60e51b81526004016106e89061313e565b612057816001612dec565b60025465ffffffffffff80851691160361209357805460028054600160301b90920465ffffffffffff1665ffffffffffff199092169190911790555b805465ffffffffffff191665ffffffffffff178155600181015460009063ffffffff906120d3906001600160701b03811690600160e01b9004831661300b565b6120dd919061303e565b60018301549091506120f99082906001600160701b0316613052565b92506001600160701b038316156121b257815460405163a9059cbb60e01b8152600160601b9091046001600160a01b0390811660048301526001600160701b03851660248301527f0000000000000000000000000000000000000000000000000000000000000000169063a9059cbb906044015b6020604051808303816000875af115801561218c573d6000803e3d6000fd5b505050506040513d601f19601f820116820180604052508101906121b09190612fae565b505b5050919050565b65ffffffffffff81166000908152600160208190526040822001546001600160701b0316156121ea57506001919050565b65ffffffffffff82166000908152600360205260409020600101546001600160701b03161561221b57506000919050565b60405162461bcd60e51b815260206004820152601460248201527334b9a13abc9d1037b93232b924b21032b93937b960611b60448201526064016106e8565b65ffffffffffff811660009081526003602052604081208054600160601b90046001600160a01b031633146122a15760405162461bcd60e51b81526004016106e890613107565b805465ffffffffffff1665fffffffffffe19016122d05760405162461bcd60e51b81526004016106e89061313e565b6122db816003612dec565b60045465ffffffffffff80851691160361231757805460048054600160301b90920465ffffffffffff1665ffffffffffff199092169190911790555b805465ffffffffffff191665ffffffffffff178155600181015460009063ffffffff90612357906001600160701b03811690600160e01b9004831661300b565b612361919061303e565b600183015490915061237d9082906001600160701b0316613052565b92506001600160701b038316156121b257815460405163a9059cbb60e01b8152600160601b9091046001600160a01b0390811660048301526001600160701b03851660248301527f0000000000000000000000000000000000000000000000000000000000000000169063a9059cbb9060440161216d565b65ffffffffffff821660009081526003602052604090208054600160601b90046001600160a01b0316331461243c5760405162461bcd60e51b81526004016106e890613107565b805465ffffffffffff1665fffffffffffe190161186f5760405162461bcd60e51b81526004016106e89061313e565b600080846001600160701b0316116124c55760405162461bcd60e51b815260206004820152601b60248201527f746f6b656e30496e20616d6f756e742063616e6e6f742062652030000000000060448201526064016106e8565b6000836001600160701b03161161251e5760405162461bcd60e51b815260206004820152601c60248201527f746f6b656e314f757420616d6f756e742063616e6e6f7420626520300000000060448201526064016106e8565b6040516323b872dd60e01b81526001600160a01b037f000000000000000000000000000000000000000000000000000000000000000016906323b872dd9061257790339030906001600160701b038a1690600401612f8a565b6020604051808303816000875af1158015612596573d6000803e3d6000fd5b505050506040513d601f19601f820116820180604052508101906125ba9190612fae565b506000805481906125d29065ffffffffffff16612fe6565b82546101009290920a65ffffffffffff8181021990931691831602179091556004541660000361270557506040805160c08101825260008082526020808301828152338486019081526001600160701b03808a16606087019081528982166080880190815260a08801878152875465ffffffffffff9081168952600390975298872097518854955194516001600160a01b0316600160601b026001600160601b03958816600160301b026001600160601b0319909716918816919091179590951793909316939093178655915160019590950180549151965163ffffffff16600160e01b026001600160e01b03978416600160701b026001600160e01b03199093169690931695909517179490941693909317909155546004805465ffffffffffff191691909216908117909155611011565b8165ffffffffffff166000036128d45760045465ffffffffffff1660009081526003602052604090206001810154612749906001600160701b03808716911661300b565b600182015461276b906001600160701b0380891691600160701b90041661300b565b116127b85760405162461bcd60e51b815260206004820152601a60248201527f796f7572207072696365206d757374203c20746f704f7264657200000000000060448201526064016106e8565b60008054825465ffffffffffff1990811665ffffffffffff928316179093556040805160c0810182528381526004805484166020808401918252338486019081526001600160701b03808e16606087019081528d82166080880190815260a088018b81528b548b168c526003909552978a2096518754955193516001600160a01b0316600160601b026001600160601b03948b16600160301b026001600160601b0319909716918b169190911795909517929092169390931785555160019490940180549551915163ffffffff16600160e01b026001600160e01b03928416600160701b026001600160e01b03199097169590931694909417949094179390931692909217905591548254909316921691821790559050611011565b65ffffffffffff82166000908152600360205260408120600181015490916001600160701b0390911690036129465760405162461bcd60e51b81526020600482015260186024820152771899599bdc9953dc99195c881a5cc81b9bdd08195e1a5cdd60421b60448201526064016106e8565b805465ffffffffffff1665fffffffffffe19016129a55760405162461bcd60e51b815260206004820152601c60248201527f6265666f72654f726465722069732072656d6f76656428646f6e65290000000060448201526064016106e8565b60018101546129c0906001600160701b03808716911661300b565b60018201546129e2906001600160701b0380891691600160701b90041661300b565b1115612a305760405162461bcd60e51b815260206004820152601e60248201527f796f7572207072696365206d757374203e3d206265666f72654f72646572000060448201526064016106e8565b8054600160301b900465ffffffffffff16600003612b5c57600080548254600160301b65ffffffffffff928316810265ffffffffffff60301b19909216919091179093556040805160c08101825286831681526020808201858152338385019081526001600160701b03808d16606086019081528c82166080870190815260a087018a81528a548a168b52600390965296892095518654945193516001600160a01b0316600160601b026001600160601b03948a16909b026001600160601b03199095169089161793909317919091169790971783555160019290920180549351915163ffffffff16600160e01b026001600160e01b03928816600160701b026001600160e01b0319909516939097169290921792909217919091169390931790925554169050611011565b8054600160301b900465ffffffffffff166000908152600360205260408120600181015490916001600160701b039091169003612bd55760405162461bcd60e51b815260206004820152601760248201527618599d195c93dc99195c881a5cc81b9bdd08195e1a5cdd604a1b60448201526064016106e8565b805465ffffffffffff1665fffffffffffe1901612c345760405162461bcd60e51b815260206004820152601b60248201527f61667465724f726465722069732072656d6f76656428646f6e6529000000000060448201526064016106e8565b6001810154612c4f906001600160701b03808816911661300b565b6001820154612c71906001600160701b03808a1691600160701b90041661300b565b11612cbe5760405162461bcd60e51b815260206004820152601c60248201527f796f7572207072696365206d757374203c2061667465724f726465720000000060448201526064016106e8565b6040805160c08101825265ffffffffffff80871682528454600160301b9081900482166020808501918252338587019081526001600160701b03808e16606088019081528d821660808901908152600060a08a0181815281548a1682526003909652998a2098518954965194516001600160a01b0316600160601b026001600160601b03958a1689026001600160601b0319909816918a16919091179690961793909316949094178755925160019690960180549151925163ffffffff16600160e01b026001600160e01b03938516600160701b026001600160e01b031990931697909416969096171716179092558254855490821690920265ffffffffffff60301b1992909216919091179093558054825465ffffffffffff191690841617909155541690509392505050565b815465ffffffffffff1615612e3657815465ffffffffffff8082166000908152602084905260409020805465ffffffffffff60301b1916600160301b938490049092169092021790555b8154600160301b900465ffffffffffff1615612e80578154600160301b810465ffffffffffff9081166000908152602084905260409020805465ffffffffffff1916919092161790555b5050565b80356001600160701b0381168114612e9b57600080fd5b919050565b803565ffffffffffff81168114612e9b57600080fd5b600080600060608486031215612ecb57600080fd5b612ed484612e84565b9250612ee260208501612e84565b9150612ef060408501612ea0565b90509250925092565b60008060408385031215612f0c57600080fd5b612f1583612e84565b9150612f2360208401612e84565b90509250929050565b60008060408385031215612f3f57600080fd5b612f4883612ea0565b915060208301356001600160a01b0381168114612f6457600080fd5b809150509250929050565b600060208284031215612f8157600080fd5b61101182612ea0565b6001600160a01b039384168152919092166020820152604081019190915260600190565b600060208284031215612fc057600080fd5b8151801515811461101157600080fd5b634e487b7160e01b600052601160045260246000fd5b600065ffffffffffff80831681810361300157613001612fd0565b6001019392505050565b808202811582820484141761302257613022612fd0565b92915050565b634e487b7160e01b600052601260045260246000fd5b60008261304d5761304d613028565b500490565b6001600160701b0382811682821603908082111561307257613072612fd0565b5092915050565b6001600160701b0381811683821601908082111561307257613072612fd0565b6001600160701b038181168382160280821691908281146130bc576130bc612fd0565b505092915050565b60006001600160701b03808416806130de576130de613028565b92169190910492915050565b63ffffffff81811683821601908082111561307257613072612fd0565b6020808252601e908201527f796f7520617265206e6f74206f776e6572206f6620746865206f726465720000604082015260600190565b60208082526022908201527f746865206f7264657220697320616c72656164792072656d6f76656428646f6e604082015261652960f01b60608201526080019056fea264697066735822122046150621e9e002259df86452f98d2b9544b61a6168de5cf0c16d1681aac944ee64736f6c63430008180033",
  "linkReferences": {},
  "deployedLinkReferences": {}
}