{
  "_format": "hh-sol-artifact-1",
  "contractName": "Mining",
  "sourceName": "contracts/v2/Mining.sol",
  "abi": [
    {
      "inputs": [],
      "stateMutability": "nonpayable",
      "type": "constructor"
    },
    {
      "inputs": [],
      "name": "feeTo",
      "outputs": [
        {
          "internalType": "address",
          "name": "",
          "type": "address"
        }
      ],
      "stateMutability": "view",
      "type": "function"
    },
    {
      "inputs": [
        {
          "internalType": "bytes26",
          "name": "",
          "type": "bytes26"
        }
      ],
      "name": "isMined",
      "outputs": [
        {
          "internalType": "bool",
          "name": "",
          "type": "bool"
        }
      ],
      "stateMutability": "view",
      "type": "function"
    },
    {
      "inputs": [],
      "name": "mars",
      "outputs": [
        {
          "internalType": "contract Mars",
          "name": "",
          "type": "address"
        }
      ],
      "stateMutability": "view",
      "type": "function"
    },
    {
      "inputs": [
        {
          "internalType": "address",
          "name": "tradeAddr",
          "type": "address"
        },
        {
          "internalType": "uint48",
          "name": "orderId",
          "type": "uint48"
        },
        {
          "internalType": "bytes",
          "name": "routersBytes",
          "type": "bytes"
        }
      ],
      "name": "mine",
      "outputs": [
        {
          "internalType": "uint256",
          "name": "",
          "type": "uint256"
        }
      ],
      "stateMutability": "nonpayable",
      "type": "function"
    },
    {
      "inputs": [],
      "name": "service",
      "outputs": [
        {
          "internalType": "contract TradeService",
          "name": "",
          "type": "address"
        }
      ],
      "stateMutability": "view",
      "type": "function"
    }
  ],
  "bytecode": "0x6080604052604051610010906100a8565b604051809103906000f08015801561002c573d6000803e3d6000fd5b50600080546001600160a01b0319166001600160a01b0392909216919091179055604051610059906100b5565b604051809103906000f080158015610075573d6000803e3d6000fd5b50600180546001600160a01b0319166001600160a01b03929092169190911790553480156100a257600080fd5b506100c2565b610b2380610dfb83390190565b614b648061191e83390190565b610d2a806100d16000396000f3fe608060405234801561001057600080fd5b50600436106100575760003560e01c8063017e7e581461005c578063622b6b791461007b578063aa6637dd1461009c578063b468caab146100af578063d598d4c9146100e2575b600080fd5b305b6040516001600160a01b0390911681526020015b60405180910390f35b61008e610089366004610920565b6100f5565b604051908152602001610072565b60005461005e906001600160a01b031681565b6100d26100bd3660046109b2565b60026020526000908152604090205460ff1681565b6040519015158152602001610072565b60015461005e906001600160a01b031681565b600060026000610105878761089d565b65ffffffffffff1916815260208101919091526040016000205460ff16156101645760405162461bcd60e51b815260206004820152600d60248201526c185b1c9958591e481b5a5b9959609a1b60448201526064015b60405180910390fd5b604051633e710cd560e11b815265ffffffffffff851660048201526000906001600160a01b03871690637ce219aa9060240160c060405180830381865afa1580156101b3573d6000803e3d6000fd5b505050506040513d601f19601f820116820180604052508101906101d79190610a28565b905063ffffffff80168160a0015163ffffffff16146102385760405162461bcd60e51b815260206004820181905260248201527f4d696e696e673a206d696e653a3a206f72646572206973206e6f7420646f6e65604482015260640161015b565b6000612710876001600160a01b031663ddca3f436040518163ffffffff1660e01b8152600401602060405180830381865afa15801561027b573d6000803e3d6000fd5b505050506040513d601f19601f8201168201806040525081019061029f9190610ad5565b60ff1683608001516102b19190610b0e565b6102bb9190610b4f565b90506000876001600160a01b0316630dfe16816040518163ffffffff1660e01b8152600401602060405180830381865afa1580156102fd573d6000803e3d6000fd5b505050506040513d601f19601f820116820180604052508101906103219190610b75565b90506000826001600160701b03161161037c5760405162461bcd60e51b815260206004820152601e60248201527f4d696e696e673a206d696e653a3a206e6f7468696e6720746f206d696e650000604482015260640161015b565b6000600161038b601488610b92565b6103959190610ba6565b905060005b818110156107cb5760006103af826014610bb9565b9050600089828a6103c1826014610bd0565b926103ce93929190610be3565b6103d791610c0d565b60601c905060008a8a6103eb856014610bd0565b906103f7866028610bd0565b9261040493929190610be3565b61040d91610c0d565b60601c90508360000361047b57856001600160a01b0316826001600160a01b03161461047b5760405162461bcd60e51b815260206004820152601b60248201527f4d696e696e673a206d696e653a3a20726f757465722077726f6e670000000000604482015260640161015b565b610486600186610ba6565b84036104e9576000546001600160a01b038281169116146104e95760405162461bcd60e51b815260206004820152601b60248201527f4d696e696e673a206d696e653a3a20726f757465722077726f6e670000000000604482015260640161015b565b600154604051635977046d60e11b81526001600160a01b0384811660048301528381166024830152600092169063b2ee08da90604401602060405180830381865afa15801561053c573d6000803e3d6000fd5b505050506040513d601f19601f820116820180604052508101906105609190610b75565b90506001600160a01b0381166105c95760405162461bcd60e51b815260206004820152602860248201527f4d696e696e673a206d696e653a3a20726f75746572207472616465206973206e6044820152671bdd08195e1a5cdd60c21b606482015260840161015b565b604051636eb1769f60e11b81523060048201526001600160a01b0382811660248301526001600160701b038a16919085169063dd62ed3e90604401602060405180830381865afa158015610621573d6000803e3d6000fd5b505050506040513d601f19601f820116820180604052508101906106459190610c40565b10156106c15760405163095ea7b360e01b81526001600160a01b038281166004830152600019602483015284169063095ea7b3906044016020604051808303816000875af115801561069b573d6000803e3d6000fd5b505050506040513d601f19601f820116820180604052508101906106bf9190610c59565b505b604051631a4bce9160e21b81526001600160701b03891660048201526001602482015260009081906001600160a01b0384169063692f3a44906044016060604051808303816000875af115801561071c573d6000803e3d6000fd5b505050506040513d601f19601f820116820180604052508101906107409190610c7b565b5091509150896001600160701b0316826001600160701b0316146107b85760405162461bcd60e51b815260206004820152602960248201527f4d696e696e673a206d696e653a3a20706172746c7920646f6e65206973206e6f6044820152681d08185b1b1bddd95960ba1b606482015260840161015b565b9850506001909401935061039a92505050565b50600054604085810151905163a9059cbb60e01b81526001600160a01b0391821660048201526001600160701b038616602482015291169063a9059cbb906044016020604051808303816000875af115801561082b573d6000803e3d6000fd5b505050506040513d601f19601f8201168201806040525081019061084f9190610c59565b506001600260006108608c8c61089d565b65ffffffffffff191681526020810191909152604001600020805460ff191691151591909117905550506001600160701b03169695505050505050565b6040516bffffffffffffffffffffffff19606084901b1660208201526001600160d01b031960d083901b166034820152600090603a016040516020818303038152906040526108eb90610cbe565b90505b92915050565b6001600160a01b038116811461090957600080fd5b50565b65ffffffffffff8116811461090957600080fd5b6000806000806060858703121561093657600080fd5b8435610941816108f4565b935060208501356109518161090c565b9250604085013567ffffffffffffffff8082111561096e57600080fd5b818701915087601f83011261098257600080fd5b81358181111561099157600080fd5b8860208285010111156109a357600080fd5b95989497505060200194505050565b6000602082840312156109c457600080fd5b813565ffffffffffff19811681146109db57600080fd5b9392505050565b80516109ed8161090c565b919050565b80516109ed816108f4565b80516001600160701b03811681146109ed57600080fd5b805163ffffffff811681146109ed57600080fd5b600060c08284031215610a3a57600080fd5b60405160c0810181811067ffffffffffffffff82111715610a6b57634e487b7160e01b600052604160045260246000fd5b604052610a77836109e2565b8152610a85602084016109e2565b6020820152610a96604084016109f2565b6040820152610aa7606084016109fd565b6060820152610ab8608084016109fd565b6080820152610ac960a08401610a14565b60a08201529392505050565b600060208284031215610ae757600080fd5b815160ff811681146109db57600080fd5b634e487b7160e01b600052601160045260246000fd5b6001600160701b03818116838216028082169190828114610b3157610b31610af8565b505092915050565b634e487b7160e01b600052601260045260246000fd5b60006001600160701b0380841680610b6957610b69610b39565b92169190910492915050565b600060208284031215610b8757600080fd5b81516109db816108f4565b600082610ba157610ba1610b39565b500490565b818103818111156108ee576108ee610af8565b80820281158282048414176108ee576108ee610af8565b808201808211156108ee576108ee610af8565b60008085851115610bf357600080fd5b83861115610c0057600080fd5b5050820193919092039150565b6bffffffffffffffffffffffff198135818116916014851015610b315760149490940360031b84901b1690921692915050565b600060208284031215610c5257600080fd5b5051919050565b600060208284031215610c6b57600080fd5b815180151581146109db57600080fd5b600080600060608486031215610c9057600080fd5b610c99846109fd565b9250610ca7602085016109fd565b9150610cb5604085016109fd565b90509250925092565b8051602082015165ffffffffffff19808216929190601a831015610cec57808184601a0360031b1b83161693505b50505091905056fea26469706673582212205d64d77ecf9263a02b96b26c960a868ac62b2a215043a444bc0c94832473acc964736f6c63430008180033608060405234801561001057600080fd5b506040518060400160405280600981526020016826b0b939aa37b5b2b760b91b815250604051806040016040528060048152602001634d41525360e01b815250816003908161005f9190610115565b50600461006c8282610115565b5050506101d4565b634e487b7160e01b600052604160045260246000fd5b600181811c9082168061009e57607f821691505b6020821081036100be57634e487b7160e01b600052602260045260246000fd5b50919050565b601f821115610110576000816000526020600020601f850160051c810160208610156100ed5750805b601f850160051c820191505b8181101561010c578281556001016100f9565b5050505b505050565b81516001600160401b0381111561012e5761012e610074565b6101428161013c845461008a565b846100c4565b602080601f831160018114610177576000841561015f5750858301515b600019600386901b1c1916600185901b17855561010c565b600085815260208120601f198616915b828110156101a657888601518255948401946001909101908401610187565b50858210156101c45787850151600019600388901b60f8161c191681555b5050505050600190811b01905550565b610940806101e36000396000f3fe608060405234801561001057600080fd5b50600436106100b45760003560e01c806340c10f191161007157806340c10f191461014157806370a082311461015657806395d89b411461017f578063a457c2d714610187578063a9059cbb1461019a578063dd62ed3e146101ad57600080fd5b806306fdde03146100b9578063095ea7b3146100d757806318160ddd146100fa57806323b872dd1461010c578063313ce5671461011f578063395093511461012e575b600080fd5b6100c16101c0565b6040516100ce9190610789565b60405180910390f35b6100ea6100e53660046107f4565b610252565b60405190151581526020016100ce565b6002545b6040519081526020016100ce565b6100ea61011a36600461081e565b61026c565b604051601281526020016100ce565b6100ea61013c3660046107f4565b610290565b61015461014f3660046107f4565b6102b2565b005b6100fe61016436600461085a565b6001600160a01b031660009081526020819052604090205490565b6100c16102c0565b6100ea6101953660046107f4565b6102cf565b6100ea6101a83660046107f4565b61034f565b6100fe6101bb36600461087c565b61035d565b6060600380546101cf906108af565b80601f01602080910402602001604051908101604052809291908181526020018280546101fb906108af565b80156102485780601f1061021d57610100808354040283529160200191610248565b820191906000526020600020905b81548152906001019060200180831161022b57829003601f168201915b5050505050905090565b600033610260818585610388565b60019150505b92915050565b60003361027a8582856104ac565b610285858585610526565b506001949350505050565b6000336102608185856102a3838361035d565b6102ad91906108e9565b610388565b6102bc82826106ca565b5050565b6060600480546101cf906108af565b600033816102dd828661035d565b9050838110156103425760405162461bcd60e51b815260206004820152602560248201527f45524332303a2064656372656173656420616c6c6f77616e63652062656c6f77604482015264207a65726f60d81b60648201526084015b60405180910390fd5b6102858286868403610388565b600033610260818585610526565b6001600160a01b03918216600090815260016020908152604080832093909416825291909152205490565b6001600160a01b0383166103ea5760405162461bcd60e51b8152602060048201526024808201527f45524332303a20617070726f76652066726f6d20746865207a65726f206164646044820152637265737360e01b6064820152608401610339565b6001600160a01b03821661044b5760405162461bcd60e51b815260206004820152602260248201527f45524332303a20617070726f766520746f20746865207a65726f206164647265604482015261737360f01b6064820152608401610339565b6001600160a01b0383811660008181526001602090815260408083209487168084529482529182902085905590518481527f8c5be1e5ebec7d5bd14f71427d1e84f3dd0314c0f7b2291e5b200ac8c7c3b925910160405180910390a3505050565b60006104b8848461035d565b9050600019811461052057818110156105135760405162461bcd60e51b815260206004820152601d60248201527f45524332303a20696e73756666696369656e7420616c6c6f77616e63650000006044820152606401610339565b6105208484848403610388565b50505050565b6001600160a01b03831661058a5760405162461bcd60e51b815260206004820152602560248201527f45524332303a207472616e736665722066726f6d20746865207a65726f206164604482015264647265737360d81b6064820152608401610339565b6001600160a01b0382166105ec5760405162461bcd60e51b815260206004820152602360248201527f45524332303a207472616e7366657220746f20746865207a65726f206164647260448201526265737360e81b6064820152608401610339565b6001600160a01b038316600090815260208190526040902054818110156106645760405162461bcd60e51b815260206004820152602660248201527f45524332303a207472616e7366657220616d6f756e7420657863656564732062604482015265616c616e636560d01b6064820152608401610339565b6001600160a01b03848116600081815260208181526040808320878703905593871680835291849020805487019055925185815290927fddf252ad1be2c89b69c2b068fc378daa952ba7f163c4a11628f55a4df523b3ef910160405180910390a3610520565b6001600160a01b0382166107205760405162461bcd60e51b815260206004820152601f60248201527f45524332303a206d696e7420746f20746865207a65726f2061646472657373006044820152606401610339565b806002600082825461073291906108e9565b90915550506001600160a01b038216600081815260208181526040808320805486019055518481527fddf252ad1be2c89b69c2b068fc378daa952ba7f163c4a11628f55a4df523b3ef910160405180910390a35050565b60006020808352835180602085015260005b818110156107b75785810183015185820160400152820161079b565b506000604082860101526040601f19601f8301168501019250505092915050565b80356001600160a01b03811681146107ef57600080fd5b919050565b6000806040838503121561080757600080fd5b610810836107d8565b946020939093013593505050565b60008060006060848603121561083357600080fd5b61083c846107d8565b925061084a602085016107d8565b9150604084013590509250925092565b60006020828403121561086c57600080fd5b610875826107d8565b9392505050565b6000806040838503121561088f57600080fd5b610898836107d8565b91506108a6602084016107d8565b90509250929050565b600181811c908216806108c357607f821691505b6020821081036108e357634e487b7160e01b600052602260045260246000fd5b50919050565b8082018082111561026657634e487b7160e01b600052601160045260246000fdfea264697066735822122041ba2a963e92369583bb30c98539e7f2278af24fb7c7d24ad5da3b966e3aa54b64736f6c6343000818003360806040523480156200001157600080fd5b506200001d3362000035565b600280546001600160a01b03191633179055620000a3565b600180546001600160a01b0319169055620000508162000053565b50565b600080546001600160a01b038381166001600160a01b0319831681178455604051919092169283917f8be0079c531659141344cd1fd0a4f28419497f9722a3daafe3b4186f6b6457e09190a35050565b614ab180620000b36000396000f3fe60806040523480156200001157600080fd5b5060043610620001395760003560e01c8063b2ee08da11620000bb578063f06675a8116200007a578063f06675a81462000319578063f2616274146200033f578063f2fde38b1462000356578063f519e79f146200036d578063f8b4f89d146200039357600080fd5b8063b2ee08da1462000261578063c3fe2c34146200029c578063c9c6539614620002b3578063ddca3f4314620002eb578063e30c3978146200030757600080fd5b80635ad57ce211620001085780635ad57ce214620001ce578063715018a6146200021057806377309f4e146200021a57806379ba509714620002455780638da5cb5b146200024f57600080fd5b8063017e7e58146200013e57806321a0e632146200016f57806323b1cde4146200019e5780632f38842714620001b7575b600080fd5b60025462000152906001600160a01b031681565b6040516001600160a01b0390911681526020015b60405180910390f35b620001866200018036600462002316565b620003aa565b60405165ffffffffffff909116815260200162000166565b620001b5620001af3660046200237b565b6200055b565b005b620001b5620001c83660046200239b565b62000587565b620001e5620001df366004620023d9565b62000686565b604080516001600160701b039485168152928416602084015292169181019190915260600162000166565b620001b562000aaa565b620001866200022b3660046200237b565b60056020526000908152604090205465ffffffffffff1681565b620001b562000ac2565b6000546001600160a01b031662000152565b62000152620002723660046200239b565b6001600160a01b039182166000908152600360209081526040808320938516835292905220541690565b620001e5620002ad366004620023d9565b62000b40565b620002ca620002c43660046200239b565b62000ded565b604080516001600160a01b0393841681529290911660208301520162000166565b620002f4606481565b60405160ff909116815260200162000166565b6001546001600160a01b031662000152565b620003306200032a3660046200243b565b6200125e565b60405162000166919062002482565b62000152620003503660046200239b565b6200154c565b620001b5620003673660046200237b565b62001668565b620003846200037e36600462002502565b620016dc565b60405162000166919062002549565b62000186620003a436600462002316565b62001900565b6000808590506000816001600160a01b031663d21220a76040518163ffffffff1660e01b8152600401602060405180830381865afa158015620003f1573d6000803e3d6000fd5b505050506040513d601f19601f8201168201806040525081019062000417919062002631565b9050620004396001600160a01b03821633306001600160701b038a1662001b49565b6000620004498888888862001900565b60405163d9d8f54160e01b81526001600160701b03808a1660048301528816602482015265ffffffffffff821660448201529091506001600160a01b0384169063d9d8f541906064016020604051808303816000875af1158015620004b2573d6000803e3d6000fd5b505050506040513d601f19601f82011682018060405250810190620004d891906200265e565b604051636a89ab7960e11b815265ffffffffffff821660048201523360248201529094506001600160a01b0384169063d51356f290604401600060405180830381600087803b1580156200052b57600080fd5b505af115801562000540573d6000803e3d6000fd5b5050505062000550888562001c83565b505050949350505050565b6200056562001d7c565b600280546001600160a01b0319166001600160a01b0392909216919091179055565b6001600160a01b03808316600090815260036020908152604080832085851684529091529020541680620005d85760405162461bcd60e51b8152600401620005cf906200267e565b60405180910390fd5b620005f06001600160a01b0384168260001962001dd8565b620006086001600160a01b0383168260001962001dd8565b6001600160a01b03808316600090815260036020908152604080832087851684529091529020541680620006505760405162461bcd60e51b8152600401620005cf906200267e565b620006686001600160a01b0385168260001962001dd8565b620006806001600160a01b0384168260001962001dd8565b50505050565b6000806000808690506000816001600160a01b0316630dfe16816040518163ffffffff1660e01b8152600401602060405180830381865afa158015620006d0573d6000803e3d6000fd5b505050506040513d601f19601f82011682018060405250810190620006f6919062002631565b90506000826001600160a01b031663d21220a76040518163ffffffff1660e01b8152600401602060405180830381865afa15801562000739573d6000803e3d6000fd5b505050506040513d601f19601f820116820180604052508101906200075f919062002631565b90506000612710846001600160a01b031663ddca3f436040518163ffffffff1660e01b8152600401602060405180830381865afa158015620007a5573d6000803e3d6000fd5b505050506040513d601f19601f82011682018060405250810190620007cb9190620026ce565b620007da9060ff168b62002704565b620007e6919062002732565b90506000620007f68a8362002767565b9050620008186001600160a01b03851633306001600160701b03851662001b49565b604051631a4bce9160e21b81526001600160701b03808c1660048301528a1660248201526001600160a01b0386169063692f3a44906044016060604051808303816000875af115801562000870573d6000803e3d6000fd5b505050506040513d601f19601f820116820180604052508101906200089691906200279e565b919950975095506001600160701b03871615620008cc57620008cc6001600160a01b038416336001600160701b038a1662001efd565b856001600160701b0316826001600160701b0316111562000913576200091333620008f88885620027e7565b6001600160a01b03871691906001600160701b031662001efd565b876001600160701b03168a6001600160701b0316111562000a9c5760006200093c898c620027e7565b905060008b6200094d8c8462002704565b62000959919062002732565b6001600160a01b0380871660009081526003602090815260408083208b851684529091528120549091169e508e9850909150620009998884848462001900565b60405163d9d8f54160e01b81526001600160701b0380861660048301528416602482015265ffffffffffff821660448201529091506000906001600160a01b038a169063d9d8f541906064016020604051808303816000875af115801562000a05573d6000803e3d6000fd5b505050506040513d601f19601f8201168201806040525081019062000a2b91906200265e565b604051636a89ab7960e11b815265ffffffffffff821660048201523360248201529091506001600160a01b038a169063d51356f290604401600060405180830381600087803b15801562000a7e57600080fd5b505af115801562000a93573d6000803e3d6000fd5b50505050505050505b505050505093509350939050565b62000ab462001d7c565b62000ac060006200201b565b565b60015433906001600160a01b0316811462000b325760405162461bcd60e51b815260206004820152602960248201527f4f776e61626c6532537465703a2063616c6c6572206973206e6f7420746865206044820152683732bb9037bbb732b960b91b6064820152608401620005cf565b62000b3d816200201b565b50565b6000806000808690506000816001600160a01b0316630dfe16816040518163ffffffff1660e01b8152600401602060405180830381865afa15801562000b8a573d6000803e3d6000fd5b505050506040513d601f19601f8201168201806040525081019062000bb0919062002631565b90506000826001600160a01b031663d21220a76040518163ffffffff1660e01b8152600401602060405180830381865afa15801562000bf3573d6000803e3d6000fd5b505050506040513d601f19601f8201168201806040525081019062000c19919062002631565b90506000612710846001600160a01b031663ddca3f436040518163ffffffff1660e01b8152600401602060405180830381865afa15801562000c5f573d6000803e3d6000fd5b505050506040513d601f19601f8201168201806040525081019062000c859190620026ce565b62000c949060ff168b62002704565b62000ca0919062002732565b9050600062000cb08a8362002767565b905062000cd26001600160a01b03851633306001600160701b03851662001b49565b604051631a4bce9160e21b81526001600160701b03808c1660048301528a1660248201526001600160a01b0386169063692f3a44906044016060604051808303816000875af115801562000d2a573d6000803e3d6000fd5b505050506040513d601f19601f8201168201806040525081019062000d5091906200279e565b9199509750955062000d766001600160a01b038416336001600160701b038a1662001efd565b876001600160701b03168a6001600160701b0316111562000a9c57600062000d9f898c620027e7565b9050600062000daf8885620027e7565b905062000ddd3362000dc2838562002767565b6001600160a01b03891691906001600160701b031662001efd565b5050505050505093509350939050565b600080826001600160a01b0316846001600160a01b03160362000e795760405162461bcd60e51b815260206004820152603f60248201527f5472616465536572766963653a20637265617465506169723a3a20746f6b656e60448201527f4120616e6420746f6b656e422063616e6e6f74206265207468652073616d65006064820152608401620005cf565b6001600160a01b03841662000ee75760405162461bcd60e51b815260206004820152602d60248201527f5472616465536572766963653a20637265617465506169723a3a20746f6b656e60448201526c0412063616e6e6f74206265203609c1b6064820152608401620005cf565b6001600160a01b03831662000f555760405162461bcd60e51b815260206004820152602d60248201527f5472616465536572766963653a20637265617465506169723a3a20746f6b656e60448201526c0422063616e6e6f74206265203609c1b6064820152608401620005cf565b6001600160a01b0384811660009081526003602090815260408083208785168452909152902054161562000fe55760405162461bcd60e51b815260206004820152603060248201527f5472616465536572766963653a20637265617465506169723a3a20747261646560448201526f105088185b1c9958591e48195e1a5cdd60821b6064820152608401620005cf565b6001600160a01b03838116600090815260036020908152604080832088851684529091529020541615620010755760405162461bcd60e51b815260206004820152603060248201527f5472616465536572766963653a20637265617465506169723a3a20747261646560448201526f109048185b1c9958591e48195e1a5cdd60821b6064820152608401620005cf565b600084846040516020016200108c9291906200280a565b6040516020818303038152906040528051906020012090508085856064600260009054906101000a90046001600160a01b0316604051620010cd9062002273565b620010dc94939291906200282c565b8190604051809103906000f5905080158015620010fd573d6000803e3d6000fd5b506001600160a01b038681166000908152600360209081526040808320898516845282529182902080546001600160a01b03191693851693909317909255519194506200114f9186918891016200280a565b6040516020818303038152906040528051906020012090508084866064600260009054906101000a90046001600160a01b0316604051620011909062002273565b6200119f94939291906200282c565b8190604051809103906000f5905080158015620011c0573d6000803e3d6000fd5b506001600160a01b0385811660009081526003602090815260408083208a85168452909152902080546001600160a01b03191691831691909117905591506200120a858562000587565b604080516001600160a01b038581168252848116602083015280871692908816917f528a7392e6fd550c4de9e894c55879cd7a03e87f1ac9ddafe8677a2ac1d8cf9f910160405180910390a3509250929050565b606060008260ff1667ffffffffffffffff8111156200128157620012816200285a565b604051908082528060200260200182016040528015620012d557816020015b604080516080810182526000808252602080830182905292820181905260608201528252600019909201910181620012a05790505b5090508465ffffffffffff85166000036200135257806001600160a01b03166399a3bd236040518163ffffffff1660e01b8152600401602060405180830381865afa15801562001329573d6000803e3d6000fd5b505050506040513d601f19601f820116820180604052508101906200134f91906200265e565b94505b604051633e710cd560e11b815265ffffffffffff861660048201526000906001600160a01b03831690637ce219aa9060240160c060405180830381865afa158015620013a2573d6000803e3d6000fd5b505050506040513d601f19601f82011682018060405250810190620013c8919062002885565b905060405180608001604052808765ffffffffffff16815260200182606001516001600160701b0316815260200182608001516001600160701b031681526020018260a0015163ffffffff16815250836000815181106200142d576200142d62002940565b602090810291909101015260015b8560ff168160ff1610156200153e576020820151604051633e710cd560e11b815265ffffffffffff821660048201526001600160a01b03851690637ce219aa9060240160c060405180830381865afa1580156200149c573d6000803e3d6000fd5b505050506040513d601f19601f82011682018060405250810190620014c2919062002885565b925060405180608001604052808265ffffffffffff16815260200184606001516001600160701b0316815260200184608001516001600160701b031681526020018460a0015163ffffffff16815250858360ff168151811062001529576200152962002940565b6020908102919091010152506001016200143b565b5091925050505b9392505050565b6000808383604051602001620015649291906200280a565b604051602081830303815290604052805190602001209050600060ff60f81b308360405180602001620015979062002273565b601f1982820381018352601f909101166040819052600254620015ce918b918b916064916001600160a01b0316906020016200282c565b60408051601f1981840301815290829052620015ee929160200162002988565b604051602081830303815290604052805190602001206040516020016200164794939291906001600160f81b031994909416845260609290921b6001600160601b03191660018401526015830152603582015260550190565b60408051808303601f19018152919052805160209091012095945050505050565b6200167262001d7c565b600180546001600160a01b0383166001600160a01b03199091168117909155620016a46000546001600160a01b031690565b6001600160a01b03167f38d16b8cac22d99fc7c124b9cd0de2d3fa1faef420bfe791d8c362d765e2270060405160405180910390a350565b606060008265ffffffffffff1667ffffffffffffffff8111156200170457620017046200285a565b6040519080825280602002602001820160405280156200174157816020015b6200172d62002281565b815260200190600190039081620017235790505b5090508365ffffffffffff1660000362001779576001600160a01b03851660009081526005602052604090205465ffffffffffff1693505b8365ffffffffffff166000036200179257905062001545565b835b65ffffffffffff8416620017a98287620029a1565b65ffffffffffff16108015620017c7575060008165ffffffffffff16115b15620018f757600060046000620017df898562002036565b65ffffffffffff1916815260208082019290925260409081016000908120825160608101845290546001600160a01b03811680835265ffffffffffff600160a01b830416958301869052600160d01b90910463ffffffff16828501529251633e710cd560e11b81526004810194909452935091637ce219aa9060240160c060405180830381865afa15801562001879573d6000803e3d6000fd5b505050506040513d601f19601f820116820180604052508101906200189f919062002885565b9050620018ae83838362002081565b84620018bb858a620029a1565b65ffffffffffff1681518110620018d657620018d662002940565b6020026020010181905250505080620018ef90620029c3565b905062001794565b50949350505050565b6000808590506000816001600160a01b03166399a3bd236040518163ffffffff1660e01b8152600401602060405180830381865afa15801562001947573d6000803e3d6000fd5b505050506040513d601f19601f820116820180604052508101906200196d91906200265e565b90508065ffffffffffff166000036200198c5760009250505062001b41565b8365ffffffffffff16600003620019a1578093505b604051632784e81560e01b815265ffffffffffff851660048201526000908190819081906001600160a01b03871690632784e8159060240160c060405180830381865afa158015620019f7573d6000803e3d6000fd5b505050506040513d601f19601f8201168201806040525081019062001a1d9190620029e8565b50945094505093509350816001600160701b031660001415801562001a4a575065ffffffffffff84811614155b1562001a54578794505b62001a60898362002704565b6001600160701b031662001a758b8362002704565b6001600160701b0316111562001a945783965050505050505062001b41565b8265ffffffffffff1660000362001ab45784965050505050505062001b41565b604051632784e81560e01b815265ffffffffffff8416600482015292945084926001600160a01b03871690632784e8159060240160c060405180830381865afa15801562001b06573d6000803e3d6000fd5b505050506040513d601f19601f8201168201806040525081019062001b2c9190620029e8565b5093975091955090935090915062001a549050565b949350505050565b604080516001600160a01b0385811660248301528481166044830152606480830185905283518084039091018152608490920183526020820180516001600160e01b03166323b872dd60e01b179052915160009283929088169162001baf919062002a77565b6000604051808303816000865af19150503d806000811462001bee576040519150601f19603f3d011682016040523d82523d6000602084013e62001bf3565b606091505b509150915081801562001c2157508051158062001c2157508080602001905181019062001c21919062002a85565b62001c7b5760405162461bcd60e51b8152602060048201526024808201527f5472616e7366657248656c7065723a205452414e534645525f46524f4d5f46416044820152631253115160e21b6064820152608401620005cf565b505050505050565b3360009081526005602052604090205465ffffffffffff168062001ca78162002aa9565b9150506040518060600160405280846001600160a01b031681526020018365ffffffffffff1681526020014263ffffffff168152506004600062001cec338562002036565b65ffffffffffff199081168252602080830193909352604091820160009081208551815487870151978601516001600160a01b039092166001600160d01b031990911617600160a01b65ffffffffffff988916021763ffffffff60d01b1916600160d01b63ffffffff90921691909102179055338152600590935291208054909116929091169190911790555050565b6000546001600160a01b0316331462000ac05760405162461bcd60e51b815260206004820181905260248201527f4f776e61626c653a2063616c6c6572206973206e6f7420746865206f776e65726044820152606401620005cf565b604080516001600160a01b038481166024830152604480830185905283518084039091018152606490920183526020820180516001600160e01b031663095ea7b360e01b179052915160009283929087169162001e36919062002a77565b6000604051808303816000865af19150503d806000811462001e75576040519150601f19603f3d011682016040523d82523d6000602084013e62001e7a565b606091505b509150915081801562001ea857508051158062001ea857508080602001905181019062001ea8919062002a85565b62001ef65760405162461bcd60e51b815260206004820152601e60248201527f5472616e7366657248656c7065723a20415050524f56455f4641494c454400006044820152606401620005cf565b5050505050565b604080516001600160a01b038481166024830152604480830185905283518084039091018152606490920183526020820180516001600160e01b031663a9059cbb60e01b179052915160009283929087169162001f5b919062002a77565b6000604051808303816000865af19150503d806000811462001f9a576040519150601f19603f3d011682016040523d82523d6000602084013e62001f9f565b606091505b509150915081801562001fcd57508051158062001fcd57508080602001905181019062001fcd919062002a85565b62001ef65760405162461bcd60e51b815260206004820152601f60248201527f5472616e7366657248656c7065723a205452414e534645525f4641494c4544006044820152606401620005cf565b600180546001600160a01b031916905562000b3d8162002223565b6040516001600160601b0319606084901b1660208201526001600160d01b031960d083901b166034820152600090603a01604051602081830303815290604052620015459062002ad1565b6200208b62002281565b6040518061014001604052808565ffffffffffff16815260200184600001516001600160a01b0316815260200184600001516001600160a01b0316630dfe16816040518163ffffffff1660e01b8152600401602060405180830381865afa158015620020fb573d6000803e3d6000fd5b505050506040513d601f19601f8201168201806040525081019062002121919062002631565b6001600160a01b0316815260200184600001516001600160a01b031663d21220a76040518163ffffffff1660e01b8152600401602060405180830381865afa15801562002172573d6000803e3d6000fd5b505050506040513d601f19601f8201168201806040525081019062002198919062002631565b6001600160a01b03168152602001846020015165ffffffffffff168152602001846040015163ffffffff16815260200183606001516001600160701b0316815260200183608001516001600160701b031681526020018360a0015163ffffffff16815260200165ffffffffffff8016846000015165ffffffffffff1614151581525090509392505050565b600080546001600160a01b038381166001600160a01b0319831681178455604051919092169283917f8be0079c531659141344cd1fd0a4f28419497f9722a3daafe3b4186f6b6457e09190a35050565b611f738062002b0983390190565b6040805161014081018252600080825260208201819052918101829052606081018290526080810182905260a0810182905260c0810182905260e08101829052610100810182905261012081019190915290565b6001600160a01b038116811462000b3d57600080fd5b6001600160701b038116811462000b3d57600080fd5b65ffffffffffff8116811462000b3d57600080fd5b600080600080608085870312156200232d57600080fd5b84356200233a81620022d5565b935060208501356200234c81620022eb565b925060408501356200235e81620022eb565b91506060850135620023708162002301565b939692955090935050565b6000602082840312156200238e57600080fd5b81356200154581620022d5565b60008060408385031215620023af57600080fd5b8235620023bc81620022d5565b91506020830135620023ce81620022d5565b809150509250929050565b600080600060608486031215620023ef57600080fd5b8335620023fc81620022d5565b925060208401356200240e81620022eb565b915060408401356200242081620022eb565b809150509250925092565b60ff8116811462000b3d57600080fd5b6000806000606084860312156200245157600080fd5b83356200245e81620022d5565b92506020840135620024708162002301565b9150604084013562002420816200242b565b602080825282518282018190526000919060409081850190868401855b82811015620024f5578151805165ffffffffffff168552868101516001600160701b039081168887015286820151168686015260609081015163ffffffff1690850152608090930192908501906001016200249f565b5091979650505050505050565b6000806000606084860312156200251857600080fd5b83356200252581620022d5565b92506020840135620025378162002301565b91506040840135620024208162002301565b602080825282518282018190526000919060409081850190868401855b82811015620024f5578151805165ffffffffffff9081168652878201516001600160a01b039081168988015287830151811688880152606080840151909116908701526080808301519091169086015260a08082015163ffffffff9081169187019190915260c0808301516001600160701b039081169188019190915260e08084015190911690870152610100808301519091169086015261012090810151151590850152610140909301929085019060010162002566565b80516200262c81620022d5565b919050565b6000602082840312156200264457600080fd5b81516200154581620022d5565b80516200262c8162002301565b6000602082840312156200267157600080fd5b8151620015458162002301565b60208082526030908201527f5472616465536572766963653a2072656672657368417070726f76653a3a207460408201526f1c9859195050881b9bdd08195e1a5cdd60821b606082015260800190565b600060208284031215620026e157600080fd5b815162001545816200242b565b634e487b7160e01b600052601160045260246000fd5b6001600160701b038181168382160280821691908281146200272a576200272a620026ee565b505092915050565b60006001600160701b03808416806200275b57634e487b7160e01b600052601260045260246000fd5b92169190910492915050565b6001600160701b038181168382160190808211156200278a576200278a620026ee565b5092915050565b80516200262c81620022eb565b600080600060608486031215620027b457600080fd5b8351620027c181620022eb565b6020850151909350620027d481620022eb565b60408501519092506200242081620022eb565b6001600160701b038281168282160390808211156200278a576200278a620026ee565b6001600160601b0319606093841b811682529190921b16601482015260280190565b6001600160a01b039485168152928416602084015260ff919091166040830152909116606082015260800190565b634e487b7160e01b600052604160045260246000fd5b805163ffffffff811681146200262c57600080fd5b600060c082840312156200289857600080fd5b60405160c0810181811067ffffffffffffffff82111715620028ca57634e487b7160e01b600052604160045260246000fd5b604052620028d88362002651565b8152620028e86020840162002651565b6020820152620028fb604084016200261f565b60408201526200290e6060840162002791565b6060820152620029216080840162002791565b60808201526200293460a0840162002870565b60a08201529392505050565b634e487b7160e01b600052603260045260246000fd5b6000815160005b818110156200297957602081850181015186830152016200295d565b50600093019283525090919050565b600062001b416200299a838662002956565b8462002956565b65ffffffffffff8281168282160390808211156200278a576200278a620026ee565b600065ffffffffffff821680620029de57620029de620026ee565b6000190192915050565b60008060008060008060c0878903121562002a0257600080fd5b865162002a0f8162002301565b602088015190965062002a228162002301565b604088015190955062002a3581620022d5565b606088015190945062002a4881620022eb565b608088015190935062002a5b81620022eb565b915062002a6b60a0880162002870565b90509295509295509295565b600062001545828462002956565b60006020828403121562002a9857600080fd5b815180151581146200154557600080fd5b600065ffffffffffff80831681810362002ac75762002ac7620026ee565b6001019392505050565b8051602082015165ffffffffffff19808216929190601a83101562002b0057808184601a0360031b1b83161693505b50505091905056fe6101006040526000805465ffffffffffff191690553480156200002157600080fd5b5060405162001f7338038062001f73833981016040819052620000449162000085565b6001600160a01b0393841660805291831660a05260ff1660c0521660e052620000e9565b80516001600160a01b03811681146200008057600080fd5b919050565b600080600080608085870312156200009c57600080fd5b620000a78562000068565b9350620000b76020860162000068565b9250604085015160ff81168114620000ce57600080fd5b9150620000de6060860162000068565b905092959194509250565b60805160a05160c05160e051611dfd620001766000396000818160be015281816107c0015281816107f0015261081601526000818161042501526108b40152600081816103ab0152818161099b01528181610ce201526117f101526000818161012b0152818161048c015281816106390152818161075e01528181610902015261094f0152611dfd6000f3fe608060405234801561001057600080fd5b50600436106100b45760003560e01c806399a3bd231161007157806399a3bd2314610394578063d21220a7146103a6578063d51356f2146103cd578063d9d8f541146103e2578063dbc4ba87146103f5578063ddca3f431461042057600080fd5b8063017e7e58146100b957806306661abd146100fd5780630dfe1681146101265780632784e8151461014d578063692f3a44146102165780637ce219aa14610253575b600080fd5b6100e07f000000000000000000000000000000000000000000000000000000000000000081565b6040516001600160a01b0390911681526020015b60405180910390f35b60005461010f9065ffffffffffff1681565b60405165ffffffffffff90911681526020016100f4565b6100e07f000000000000000000000000000000000000000000000000000000000000000081565b6101c061015b366004611b2e565b6001602081905260009182526040909120805491015465ffffffffffff80831692600160301b810490911691600160601b9091046001600160a01b0316906001600160701b0380821691600160701b810490911690600160e01b900463ffffffff1686565b6040805165ffffffffffff97881681529690951660208701526001600160a01b03909316938501939093526001600160701b039081166060850152909116608083015263ffffffff1660a082015260c0016100f4565b610229610224366004611b60565b610459565b604080516001600160701b03948516815292841660208401529216918101919091526060016100f4565b61031f610261366004611b2e565b6040805160c081018252600080825260208201819052918101829052606081018290526080810182905260a08101919091525065ffffffffffff908116600090815260016020818152604092839020835160c08101855281548087168252600160301b810490961692810192909252600160601b9094046001600160a01b03169281019290925291909101546001600160701b038082166060840152600160701b8204166080830152600160e01b900463ffffffff1660a082015290565b6040516100f49190600060c08201905065ffffffffffff8084511683528060208501511660208401525060018060a01b03604084015116604083015260608301516001600160701b038082166060850152806080860151166080850152505063ffffffff60a08401511660a083015292915050565b60025461010f9065ffffffffffff1681565b6100e07f000000000000000000000000000000000000000000000000000000000000000081565b6103e06103db366004611ba8565b610a1f565b005b61010f6103f0366004611bdf565b610beb565b610408610403366004611b2e565b611603565b6040516001600160701b0390911681526020016100f4565b6104477f000000000000000000000000000000000000000000000000000000000000000081565b60405160ff90911681526020016100f4565b6002546000908190819065ffffffffffff16810361047f57506000915081905080610a18565b6104bd6001600160a01b037f00000000000000000000000000000000000000000000000000000000000000001633306001600160701b038916611831565b845b60025465ffffffffffff16156107af5760025465ffffffffffff1660009081526001602081905260409091209081015461050d906001600160701b03600160701b9091048116908816611c38565b6001820154610529906001600160701b03908116908a16611c38565b101561053557506107af565b600181015460009063ffffffff90610560906001600160701b03811690600160e01b90048316611c38565b61056a9190611c6b565b60018301549091506000906001600160701b038082169161059791600160701b9091048116908516611c38565b6105a19190611c6b565b60018401546105c09190600160701b90046001600160701b0316611c7f565b9050806001600160701b0316846001600160701b0316106106af576105e58185611c7f565b60018401549094506106019083906001600160701b0316611c7f565b61060b9087611ca6565b955061061683611961565b6001830180546001600160e01b03166001600160e01b0319179055825461067b907f00000000000000000000000000000000000000000000000000000000000000006001600160a01b0390811691600160601b9004166001600160701b0384166119f8565b825465ffffffffffff1990811665ffffffffffff90811780865560028054909316600160301b9091049091161790556107a7565b60018301546000906001600160701b03600160701b82048116916106d891908116908816611c38565b6106e29190611c6b565b90506106ee8188611ca6565b96506106fa8184611ca6565b60018501549093506001600160701b031661071963ffffffff85611cc6565b6107239190611cf1565b61072e906001611d17565b6001850180546001600160e01b0316600160e01b63ffffffff93841602179055845461079a916001600160a01b037f0000000000000000000000000000000000000000000000000000000000000000811692600160601b900416906001600160701b038916906119f816565b60009450505050506107af565b5050506104bf565b6107b98187611c7f565b93506000807f00000000000000000000000000000000000000000000000000000000000000006001600160a01b03163b11610814577f0000000000000000000000000000000000000000000000000000000000000000610898565b7f00000000000000000000000000000000000000000000000000000000000000006001600160a01b031663017e7e586040518163ffffffff1660e01b81526004016020604051808303816000875af1158015610874573d6000803e3d6000fd5b505050506040513d601f19601f820116820180604052508101906108989190611d34565b9050336001600160a01b03821614610933576127106108da60ff7f00000000000000000000000000000000000000000000000000000000000000001687611cc6565b6108e49190611cf1565b92506001600160701b03831615610933576109336001600160a01b037f00000000000000000000000000000000000000000000000000000000000000001633836001600160701b038716611831565b6001600160701b0382161561097f5761097f6001600160a01b037f000000000000000000000000000000000000000000000000000000000000000016336001600160701b0385166119f8565b6001600160701b03841615610a15576109cb6001600160a01b037f000000000000000000000000000000000000000000000000000000000000000016336001600160701b0387166119f8565b604080513381526001600160701b03878116602083015286168183015290517fb94fb524ffbbe43521e10e0b077e95d54ea70b037aa5e6272ef4ebf499ee10d29181900360600190a15b50505b9250925092565b65ffffffffffff821660009081526001602052604090208054600160601b90046001600160a01b03163314610ac15760405162461bcd60e51b815260206004820152603c60248201527f4d6f6e6f54726164653a206368616e67654f726465724f776e65723a3a20796f60448201527f7520617265206e6f74206f776e6572206f6620746865206f726465720000000060648201526084015b60405180910390fd5b805465ffffffffffff1665fffffffffffe1901610b48576040805162461bcd60e51b81526020600482015260248101919091527f4d6f6e6f54726164653a206368616e67654f726465724f776e65723a3a20746860448201527f65206f7264657220697320616c72656164792072656d6f76656428646f6e65296064820152608401610ab8565b6001600160a01b038216610bc45760405162461bcd60e51b815260206004820152603a60248201527f4d6f6e6f54726164653a206368616e67654f726465724f776e65723a3a206e6560448201527f774f776e65722063616e277420626520616464726573732830290000000000006064820152608401610ab8565b80546001600160a01b03909216600160601b026001600160601b0390921691909117905550565b600080846001600160701b031611610c605760405162461bcd60e51b815260206004820152603260248201527f4d6f6e6f54726164653a206d616b654f726465723a3a20746f6b656e31496e206044820152710616d6f756e742063616e6e6f7420626520360741b6064820152608401610ab8565b6000836001600160701b031611610cd55760405162461bcd60e51b815260206004820152603360248201527f4d6f6e6f54726164653a206d616b654f726465723a3a20746f6b656e304f7574604482015272020616d6f756e742063616e6e6f74206265203606c1b6064820152608401610ab8565b610d136001600160a01b037f00000000000000000000000000000000000000000000000000000000000000001633306001600160701b038816611831565b600080548190610d2a9065ffffffffffff16611d51565b82546101009290920a65ffffffffffff81810219909316918316021790915560025416600003610e5857506040805160c08101825260008082526020808301828152338486019081526001600160701b03808a16606087019081528982166080880190815260a08801878152875465ffffffffffff908116895260019788905299882098518954965195516001600160a01b0316600160601b026001600160601b03968c16600160301b026001600160601b0319909816918c16919091179690961794909416949094178755519590930180549251915163ffffffff16600160e01b026001600160e01b03928516600160701b026001600160e01b03199094169690941695909517919091171617909155546002805465ffffffffffff1916919092169081179091556115fc565b8165ffffffffffff166000036110405760025465ffffffffffff16600090815260016020819052604090912090810154610e9e906001600160701b038087169116611c38565b6001820154610ec0906001600160701b0380891691600160701b900416611c38565b11610f275760405162461bcd60e51b815260206004820152603160248201527f4d6f6e6f54726164653a206d616b654f726465723a3a20796f75722070726963604482015270329036bab9ba101f103a37b827b93232b960791b6064820152608401610ab8565b60008054825465ffffffffffff1990811665ffffffffffff928316179093556040805160c0810182528381526002805484166020808401918252338486019081526001600160701b03808e16606087019081528d82166080880190815260a088018b81528b548b168c52600195869052988b2097518854965194516001600160a01b0316600160601b026001600160601b03958c16600160301b026001600160601b0319909816918c1691909117969096179390931694909417865592519490910180549151955163ffffffff16600160e01b026001600160e01b03968416600160701b026001600160e01b031990931695909316949094171793909316929092179055915482549093169216918217905590506115fc565b65ffffffffffff8216600090815260016020819052604082209081015490916001600160701b0390911690036110d05760405162461bcd60e51b815260206004820152602f60248201527f4d6f6e6f54726164653a206d616b654f726465723a3a206265666f72654f726460448201526e195c881a5cc81b9bdd08195e1a5cdd608a1b6064820152608401610ab8565b805465ffffffffffff1665fffffffffffe190161114b5760405162461bcd60e51b815260206004820152603360248201527f4d6f6e6f54726164653a206d616b654f726465723a3a206265666f72654f726460448201527265722069732072656d6f76656428646f6e652960681b6064820152608401610ab8565b6001810154611166906001600160701b038087169116611c38565b6001820154611188906001600160701b0380891691600160701b900416611c38565b11156111f45760405162461bcd60e51b815260206004820152603560248201527f4d6f6e6f54726164653a206d616b654f726465723a3a20796f75722070726963604482015274329036bab9ba101e1e903132b337b932a7b93232b960591b6064820152608401610ab8565b8054600160301b900465ffffffffffff1660000361131c57600080548254600160301b65ffffffffffff928316810265ffffffffffff60301b19909216919091179093556040805160c08101825286831681526020808201858152338385019081526001600160701b03808d16606086019081528c82166080870190815260a087018a81528a548a168b52600196879052978a2096518754955194516001600160a01b0316600160601b026001600160601b03958b16909c026001600160601b0319909616908a16179490941792909216989098178455519290910180549151935163ffffffff16600160e01b026001600160e01b03948816600160701b026001600160e01b03199093169390971692909217179190911693909317909255541690506115fc565b8054600160301b900465ffffffffffff16600090815260016020819052604082209081015490916001600160701b0390911690036113b35760405162461bcd60e51b815260206004820152602e60248201527f4d6f6e6f54726164653a206d616b654f726465723a3a2061667465724f72646560448201526d1c881a5cc81b9bdd08195e1a5cdd60921b6064820152608401610ab8565b805465ffffffffffff1665fffffffffffe19016114275760405162461bcd60e51b815260206004820152602c60248201527f4d6f6e6f54726164653a206d616b654f726465723a3a2061667465724f72646560448201526b1c881a5cc81c995b5bdd995960a21b6064820152608401610ab8565b6001810154611442906001600160701b038088169116611c38565b6001820154611464906001600160701b03808a1691600160701b900416611c38565b116114cd5760405162461bcd60e51b815260206004820152603360248201527f4d6f6e6f54726164653a206d616b654f726465723a3a20796f75722070726963604482015272329036bab9ba101f1030b33a32b927b93232b960691b6064820152608401610ab8565b6040805160c08101825265ffffffffffff80871682528454600160301b9081900482166020808501918252338587019081526001600160701b03808e16606088019081528d821660808901908152600060a08a0181815281548a1682526001968790529a812099518a54975195516001600160a01b0316600160601b026001600160601b03968b168a026001600160601b0319909916918b16919091179790971794909416959095178855519690920180549351975163ffffffff16600160e01b026001600160e01b03988416600160701b026001600160e01b031990951697909316969096179290921795909516949094179092558254855490821690920265ffffffffffff60301b1992909216919091179093558054825465ffffffffffff191690841617909155541690505b9392505050565b65ffffffffffff811660009081526001602052604081208054600160601b90046001600160a01b031633146116a05760405162461bcd60e51b815260206004820152603760248201527f4d6f6e6f54726164653a2063616e63656c4f726465723a3a20796f752061726560448201527f206e6f74206f776e6572206f6620746865206f726465720000000000000000006064820152608401610ab8565b805465ffffffffffff1665fffffffffffe19016117255760405162461bcd60e51b815260206004820152603b60248201527f4d6f6e6f54726164653a2063616e63656c4f726465723a3a20746865206f726460448201527f657220697320616c72656164792072656d6f76656428646f6e652900000000006064820152608401610ab8565b61172e81611961565b60025465ffffffffffff80851691160361176a57805460028054600160301b90920465ffffffffffff1665ffffffffffff199092169190911790555b805465ffffffffffff191665ffffffffffff178155600181015460009063ffffffff906117aa906001600160701b03811690600160e01b90048316611c38565b6117b49190611c6b565b60018301549091506117d09082906001600160701b0316611c7f565b92506001600160701b0383161561182a57815461182a906001600160a01b037f0000000000000000000000000000000000000000000000000000000000000000811691600160601b9004166001600160701b0386166119f8565b5050919050565b604080516001600160a01b0385811660248301528481166044830152606480830185905283518084039091018152608490920183526020820180516001600160e01b03166323b872dd60e01b17905291516000928392908816916118959190611d76565b6000604051808303816000865af19150503d80600081146118d2576040519150601f19603f3d011682016040523d82523d6000602084013e6118d7565b606091505b50915091508180156119015750805115806119015750808060200190518101906119019190611da5565b6119595760405162461bcd60e51b8152602060048201526024808201527f5472616e7366657248656c7065723a205452414e534645525f46524f4d5f46416044820152631253115160e21b6064820152608401610ab8565b505050505050565b805465ffffffffffff16156119ab57805465ffffffffffff8082166000908152600160205260409020805465ffffffffffff60301b1916600160301b938490049092169092021790555b8054600160301b900465ffffffffffff16156119f5578054600160301b810465ffffffffffff9081166000908152600160205260409020805465ffffffffffff1916919092161790555b50565b604080516001600160a01b038481166024830152604480830185905283518084039091018152606490920183526020820180516001600160e01b031663a9059cbb60e01b1790529151600092839290871691611a549190611d76565b6000604051808303816000865af19150503d8060008114611a91576040519150601f19603f3d011682016040523d82523d6000602084013e611a96565b606091505b5091509150818015611ac0575080511580611ac0575080806020019051810190611ac09190611da5565b611b0c5760405162461bcd60e51b815260206004820152601f60248201527f5472616e7366657248656c7065723a205452414e534645525f4641494c4544006044820152606401610ab8565b5050505050565b803565ffffffffffff81168114611b2957600080fd5b919050565b600060208284031215611b4057600080fd5b6115fc82611b13565b80356001600160701b0381168114611b2957600080fd5b60008060408385031215611b7357600080fd5b611b7c83611b49565b9150611b8a60208401611b49565b90509250929050565b6001600160a01b03811681146119f557600080fd5b60008060408385031215611bbb57600080fd5b611bc483611b13565b91506020830135611bd481611b93565b809150509250929050565b600080600060608486031215611bf457600080fd5b611bfd84611b49565b9250611c0b60208501611b49565b9150611c1960408501611b13565b90509250925092565b634e487b7160e01b600052601160045260246000fd5b8082028115828204841417611c4f57611c4f611c22565b92915050565b634e487b7160e01b600052601260045260246000fd5b600082611c7a57611c7a611c55565b500490565b6001600160701b03828116828216039080821115611c9f57611c9f611c22565b5092915050565b6001600160701b03818116838216019080821115611c9f57611c9f611c22565b6001600160701b03818116838216028082169190828114611ce957611ce9611c22565b505092915050565b60006001600160701b0380841680611d0b57611d0b611c55565b92169190910492915050565b63ffffffff818116838216019080821115611c9f57611c9f611c22565b600060208284031215611d4657600080fd5b81516115fc81611b93565b600065ffffffffffff808316818103611d6c57611d6c611c22565b6001019392505050565b6000825160005b81811015611d975760208186018101518583015201611d7d565b506000920191825250919050565b600060208284031215611db757600080fd5b815180151581146115fc57600080fdfea264697066735822122047a047231f9e70874b06cedac72f9a8ff98ceb2e352ea83d3673b10849cc3ff464736f6c63430008180033a2646970667358221220656d52e0c421a6a27c2efdae6832f8936b0a1d4b07e8e8e07c36e84dbdd410d164736f6c63430008180033",
  "linkReferences": {},
  "deployedLinkReferences": {}
}