{
  "_format": "hh-sol-artifact-1",
  "contractName": "Mining",
  "sourceName": "contracts/v2/Mining.sol",
  "abi": [
    {
      "inputs": [
        {
          "internalType": "address",
          "name": "_mars",
          "type": "address"
        },
        {
          "internalType": "address",
          "name": "_service",
          "type": "address"
        }
      ],
      "stateMutability": "nonpayable",
      "type": "constructor"
    },
    {
      "inputs": [
        {
          "internalType": "bytes26",
          "name": "",
          "type": "bytes26"
        }
      ],
      "name": "isMined",
      "outputs": [
        {
          "internalType": "bool",
          "name": "",
          "type": "bool"
        }
      ],
      "stateMutability": "view",
      "type": "function"
    },
    {
      "inputs": [],
      "name": "mars",
      "outputs": [
        {
          "internalType": "contract Mars",
          "name": "",
          "type": "address"
        }
      ],
      "stateMutability": "view",
      "type": "function"
    },
    {
      "inputs": [
        {
          "internalType": "address",
          "name": "tradeAddr",
          "type": "address"
        },
        {
          "internalType": "uint48",
          "name": "orderId",
          "type": "uint48"
        },
        {
          "internalType": "bytes",
          "name": "routersBytes",
          "type": "bytes"
        }
      ],
      "name": "mine",
      "outputs": [
        {
          "internalType": "uint256",
          "name": "",
          "type": "uint256"
        }
      ],
      "stateMutability": "nonpayable",
      "type": "function"
    },
    {
      "inputs": [],
      "name": "service",
      "outputs": [
        {
          "internalType": "contract TradeService",
          "name": "",
          "type": "address"
        }
      ],
      "stateMutability": "view",
      "type": "function"
    }
  ],
  "bytecode": "0x608060405234801561001057600080fd5b50604051610ddb380380610ddb83398101604081905261002f9161007c565b600080546001600160a01b039384166001600160a01b031991821617909155600180549290931691161790556100af565b80516001600160a01b038116811461007757600080fd5b919050565b6000806040838503121561008f57600080fd5b61009883610060565b91506100a660208401610060565b90509250929050565b610d1d806100be6000396000f3fe608060405234801561001057600080fd5b506004361061004c5760003560e01c8063622b6b7914610051578063aa6637dd14610077578063b468caab146100a2578063d598d4c9146100d5575b600080fd5b61006461005f366004610913565b6100e8565b6040519081526020015b60405180910390f35b60005461008a906001600160a01b031681565b6040516001600160a01b03909116815260200161006e565b6100c56100b03660046109a5565b60026020526000908152604090205460ff1681565b604051901515815260200161006e565b60015461008a906001600160a01b031681565b6000600260006100f88787610890565b65ffffffffffff1916815260208101919091526040016000205460ff16156101575760405162461bcd60e51b815260206004820152600d60248201526c185b1c9958591e481b5a5b9959609a1b60448201526064015b60405180910390fd5b604051633e710cd560e11b815265ffffffffffff851660048201526000906001600160a01b03871690637ce219aa9060240160c060405180830381865afa1580156101a6573d6000803e3d6000fd5b505050506040513d601f19601f820116820180604052508101906101ca9190610a1b565b905063ffffffff80168160a0015163ffffffff161461022b5760405162461bcd60e51b815260206004820181905260248201527f4d696e696e673a206d696e653a3a206f72646572206973206e6f7420646f6e65604482015260640161014e565b6000612710876001600160a01b031663ddca3f436040518163ffffffff1660e01b8152600401602060405180830381865afa15801561026e573d6000803e3d6000fd5b505050506040513d601f19601f820116820180604052508101906102929190610ac8565b60ff1683608001516102a49190610b01565b6102ae9190610b42565b90506000876001600160a01b0316630dfe16816040518163ffffffff1660e01b8152600401602060405180830381865afa1580156102f0573d6000803e3d6000fd5b505050506040513d601f19601f820116820180604052508101906103149190610b68565b90506000826001600160701b03161161036f5760405162461bcd60e51b815260206004820152601e60248201527f4d696e696e673a206d696e653a3a206e6f7468696e6720746f206d696e650000604482015260640161014e565b6000600161037e601488610b85565b6103889190610b99565b905060005b818110156107be5760006103a2826014610bac565b9050600089828a6103b4826014610bc3565b926103c193929190610bd6565b6103ca91610c00565b60601c905060008a8a6103de856014610bc3565b906103ea866028610bc3565b926103f793929190610bd6565b61040091610c00565b60601c90508360000361046e57856001600160a01b0316826001600160a01b03161461046e5760405162461bcd60e51b815260206004820152601b60248201527f4d696e696e673a206d696e653a3a20726f757465722077726f6e670000000000604482015260640161014e565b610479600186610b99565b84036104dc576000546001600160a01b038281169116146104dc5760405162461bcd60e51b815260206004820152601b60248201527f4d696e696e673a206d696e653a3a20726f757465722077726f6e670000000000604482015260640161014e565b600154604051635977046d60e11b81526001600160a01b0384811660048301528381166024830152600092169063b2ee08da90604401602060405180830381865afa15801561052f573d6000803e3d6000fd5b505050506040513d601f19601f820116820180604052508101906105539190610b68565b90506001600160a01b0381166105bc5760405162461bcd60e51b815260206004820152602860248201527f4d696e696e673a206d696e653a3a20726f75746572207472616465206973206e6044820152671bdd08195e1a5cdd60c21b606482015260840161014e565b604051636eb1769f60e11b81523060048201526001600160a01b0382811660248301526001600160701b038a16919085169063dd62ed3e90604401602060405180830381865afa158015610614573d6000803e3d6000fd5b505050506040513d601f19601f820116820180604052508101906106389190610c33565b10156106b45760405163095ea7b360e01b81526001600160a01b038281166004830152600019602483015284169063095ea7b3906044016020604051808303816000875af115801561068e573d6000803e3d6000fd5b505050506040513d601f19601f820116820180604052508101906106b29190610c4c565b505b604051631a4bce9160e21b81526001600160701b03891660048201526001602482015260009081906001600160a01b0384169063692f3a44906044016060604051808303816000875af115801561070f573d6000803e3d6000fd5b505050506040513d601f19601f820116820180604052508101906107339190610c6e565b5091509150896001600160701b0316826001600160701b0316146107ab5760405162461bcd60e51b815260206004820152602960248201527f4d696e696e673a206d696e653a3a20706172746c7920646f6e65206973206e6f6044820152681d08185b1b1bddd95960ba1b606482015260840161014e565b9850506001909401935061038d92505050565b50600054604085810151905163a9059cbb60e01b81526001600160a01b0391821660048201526001600160701b038616602482015291169063a9059cbb906044016020604051808303816000875af115801561081e573d6000803e3d6000fd5b505050506040513d601f19601f820116820180604052508101906108429190610c4c565b506001600260006108538c8c610890565b65ffffffffffff191681526020810191909152604001600020805460ff191691151591909117905550506001600160701b03169695505050505050565b6040516bffffffffffffffffffffffff19606084901b1660208201526001600160d01b031960d083901b166034820152600090603a016040516020818303038152906040526108de90610cb1565b90505b92915050565b6001600160a01b03811681146108fc57600080fd5b50565b65ffffffffffff811681146108fc57600080fd5b6000806000806060858703121561092957600080fd5b8435610934816108e7565b93506020850135610944816108ff565b9250604085013567ffffffffffffffff8082111561096157600080fd5b818701915087601f83011261097557600080fd5b81358181111561098457600080fd5b88602082850101111561099657600080fd5b95989497505060200194505050565b6000602082840312156109b757600080fd5b813565ffffffffffff19811681146109ce57600080fd5b9392505050565b80516109e0816108ff565b919050565b80516109e0816108e7565b80516001600160701b03811681146109e057600080fd5b805163ffffffff811681146109e057600080fd5b600060c08284031215610a2d57600080fd5b60405160c0810181811067ffffffffffffffff82111715610a5e57634e487b7160e01b600052604160045260246000fd5b604052610a6a836109d5565b8152610a78602084016109d5565b6020820152610a89604084016109e5565b6040820152610a9a606084016109f0565b6060820152610aab608084016109f0565b6080820152610abc60a08401610a07565b60a08201529392505050565b600060208284031215610ada57600080fd5b815160ff811681146109ce57600080fd5b634e487b7160e01b600052601160045260246000fd5b6001600160701b03818116838216028082169190828114610b2457610b24610aeb565b505092915050565b634e487b7160e01b600052601260045260246000fd5b60006001600160701b0380841680610b5c57610b5c610b2c565b92169190910492915050565b600060208284031215610b7a57600080fd5b81516109ce816108e7565b600082610b9457610b94610b2c565b500490565b818103818111156108e1576108e1610aeb565b80820281158282048414176108e1576108e1610aeb565b808201808211156108e1576108e1610aeb565b60008085851115610be657600080fd5b83861115610bf357600080fd5b5050820193919092039150565b6bffffffffffffffffffffffff198135818116916014851015610b245760149490940360031b84901b1690921692915050565b600060208284031215610c4557600080fd5b5051919050565b600060208284031215610c5e57600080fd5b815180151581146109ce57600080fd5b600080600060608486031215610c8357600080fd5b610c8c846109f0565b9250610c9a602085016109f0565b9150610ca8604085016109f0565b90509250925092565b8051602082015165ffffffffffff19808216929190601a831015610cdf57808184601a0360031b1b83161693505b50505091905056fea2646970667358221220a1c6872f36d3a71e3aac67dc58451abeecd7e8f7513f3158060119f5a980d65d64736f6c63430008180033",
  "linkReferences": {},
  "deployedLinkReferences": {}
}