{
  "_format": "hh-sol-artifact-1",
  "contractName": "MockERC721",
  "sourceName": "contracts/mock/MockERC721.sol",
  "abi": [
    {
      "inputs": [
        {
          "internalType": "string",
          "name": "name_",
          "type": "string"
        },
        {
          "internalType": "string",
          "name": "symbol_",
          "type": "string"
        }
      ],
      "stateMutability": "nonpayable",
      "type": "constructor"
    },
    {
      "inputs": [
        {
          "internalType": "address",
          "name": "sender",
          "type": "address"
        },
        {
          "internalType": "uint256",
          "name": "tokenId",
          "type": "uint256"
        },
        {
          "internalType": "address",
          "name": "owner",
          "type": "address"
        }
      ],
      "name": "ERC721IncorrectOwner",
      "type": "error"
    },
    {
      "inputs": [
        {
          "internalType": "address",
          "name": "operator",
          "type": "address"
        },
        {
          "internalType": "uint256",
          "name": "tokenId",
          "type": "uint256"
        }
      ],
      "name": "ERC721InsufficientApproval",
      "type": "error"
    },
    {
      "inputs": [
        {
          "internalType": "address",
          "name": "approver",
          "type": "address"
        }
      ],
      "name": "ERC721InvalidApprover",
      "type": "error"
    },
    {
      "inputs": [
        {
          "internalType": "address",
          "name": "operator",
          "type": "address"
        }
      ],
      "name": "ERC721InvalidOperator",
      "type": "error"
    },
    {
      "inputs": [
        {
          "internalType": "address",
          "name": "owner",
          "type": "address"
        }
      ],
      "name": "ERC721InvalidOwner",
      "type": "error"
    },
    {
      "inputs": [
        {
          "internalType": "address",
          "name": "receiver",
          "type": "address"
        }
      ],
      "name": "ERC721InvalidReceiver",
      "type": "error"
    },
    {
      "inputs": [
        {
          "internalType": "address",
          "name": "sender",
          "type": "address"
        }
      ],
      "name": "ERC721InvalidSender",
      "type": "error"
    },
    {
      "inputs": [
        {
          "internalType": "uint256",
          "name": "tokenId",
          "type": "uint256"
        }
      ],
      "name": "ERC721NonexistentToken",
      "type": "error"
    },
    {
      "anonymous": false,
      "inputs": [
        {
          "indexed": true,
          "internalType": "address",
          "name": "owner",
          "type": "address"
        },
        {
          "indexed": true,
          "internalType": "address",
          "name": "approved",
          "type": "address"
        },
        {
          "indexed": true,
          "internalType": "uint256",
          "name": "tokenId",
          "type": "uint256"
        }
      ],
      "name": "Approval",
      "type": "event"
    },
    {
      "anonymous": false,
      "inputs": [
        {
          "indexed": true,
          "internalType": "address",
          "name": "owner",
          "type": "address"
        },
        {
          "indexed": true,
          "internalType": "address",
          "name": "operator",
          "type": "address"
        },
        {
          "indexed": false,
          "internalType": "bool",
          "name": "approved",
          "type": "bool"
        }
      ],
      "name": "ApprovalForAll",
      "type": "event"
    },
    {
      "anonymous": false,
      "inputs": [
        {
          "indexed": true,
          "internalType": "address",
          "name": "from",
          "type": "address"
        },
        {
          "indexed": true,
          "internalType": "address",
          "name": "to",
          "type": "address"
        },
        {
          "indexed": true,
          "internalType": "uint256",
          "name": "tokenId",
          "type": "uint256"
        }
      ],
      "name": "Transfer",
      "type": "event"
    },
    {
      "inputs": [
        {
          "internalType": "address",
          "name": "to",
          "type": "address"
        },
        {
          "internalType": "uint256",
          "name": "tokenId",
          "type": "uint256"
        }
      ],
      "name": "approve",
      "outputs": [],
      "stateMutability": "nonpayable",
      "type": "function"
    },
    {
      "inputs": [
        {
          "internalType": "address",
          "name": "owner",
          "type": "address"
        }
      ],
      "name": "balanceOf",
      "outputs": [
        {
          "internalType": "uint256",
          "name": "",
          "type": "uint256"
        }
      ],
      "stateMutability": "view",
      "type": "function"
    },
    {
      "inputs": [
        {
          "internalType": "uint256",
          "name": "tokenId",
          "type": "uint256"
        }
      ],
      "name": "getApproved",
      "outputs": [
        {
          "internalType": "address",
          "name": "",
          "type": "address"
        }
      ],
      "stateMutability": "view",
      "type": "function"
    },
    {
      "inputs": [
        {
          "internalType": "address",
          "name": "owner",
          "type": "address"
        },
        {
          "internalType": "address",
          "name": "operator",
          "type": "address"
        }
      ],
      "name": "isApprovedForAll",
      "outputs": [
        {
          "internalType": "bool",
          "name": "",
          "type": "bool"
        }
      ],
      "stateMutability": "view",
      "type": "function"
    },
    {
      "inputs": [
        {
          "internalType": "address",
          "name": "to",
          "type": "address"
        },
        {
          "internalType": "uint256",
          "name": "tokenId",
          "type": "uint256"
        }
      ],
      "name": "mint",
      "outputs": [],
      "stateMutability": "nonpayable",
      "type": "function"
    },
    {
      "inputs": [
        {
          "internalType": "address",
          "name": "to",
          "type": "address"
        },
        {
          "internalType": "uint256",
          "name": "tokenId",
          "type": "uint256"
        },
        {
          "internalType": "string",
          "name": "_tokenURI",
          "type": "string"
        }
      ],
      "name": "mintURI",
      "outputs": [],
      "stateMutability": "nonpayable",
      "type": "function"
    },
    {
      "inputs": [],
      "name": "name",
      "outputs": [
        {
          "internalType": "string",
          "name": "",
          "type": "string"
        }
      ],
      "stateMutability": "view",
      "type": "function"
    },
    {
      "inputs": [
        {
          "internalType": "uint256",
          "name": "tokenId",
          "type": "uint256"
        }
      ],
      "name": "ownerOf",
      "outputs": [
        {
          "internalType": "address",
          "name": "",
          "type": "address"
        }
      ],
      "stateMutability": "view",
      "type": "function"
    },
    {
      "inputs": [
        {
          "internalType": "address",
          "name": "from",
          "type": "address"
        },
        {
          "internalType": "address",
          "name": "to",
          "type": "address"
        },
        {
          "internalType": "uint256",
          "name": "tokenId",
          "type": "uint256"
        }
      ],
      "name": "safeTransferFrom",
      "outputs": [],
      "stateMutability": "nonpayable",
      "type": "function"
    },
    {
      "inputs": [
        {
          "internalType": "address",
          "name": "from",
          "type": "address"
        },
        {
          "internalType": "address",
          "name": "to",
          "type": "address"
        },
        {
          "internalType": "uint256",
          "name": "tokenId",
          "type": "uint256"
        },
        {
          "internalType": "bytes",
          "name": "data",
          "type": "bytes"
        }
      ],
      "name": "safeTransferFrom",
      "outputs": [],
      "stateMutability": "nonpayable",
      "type": "function"
    },
    {
      "inputs": [
        {
          "internalType": "address",
          "name": "operator",
          "type": "address"
        },
        {
          "internalType": "bool",
          "name": "approved",
          "type": "bool"
        }
      ],
      "name": "setApprovalForAll",
      "outputs": [],
      "stateMutability": "nonpayable",
      "type": "function"
    },
    {
      "inputs": [
        {
          "internalType": "bytes4",
          "name": "interfaceId",
          "type": "bytes4"
        }
      ],
      "name": "supportsInterface",
      "outputs": [
        {
          "internalType": "bool",
          "name": "",
          "type": "bool"
        }
      ],
      "stateMutability": "view",
      "type": "function"
    },
    {
      "inputs": [],
      "name": "symbol",
      "outputs": [
        {
          "internalType": "string",
          "name": "",
          "type": "string"
        }
      ],
      "stateMutability": "view",
      "type": "function"
    },
    {
      "inputs": [
        {
          "internalType": "uint256",
          "name": "tokenId",
          "type": "uint256"
        }
      ],
      "name": "tokenURI",
      "outputs": [
        {
          "internalType": "string",
          "name": "",
          "type": "string"
        }
      ],
      "stateMutability": "view",
      "type": "function"
    },
    {
      "inputs": [
        {
          "internalType": "uint256",
          "name": "",
          "type": "uint256"
        }
      ],
      "name": "tokenURIs",
      "outputs": [
        {
          "internalType": "string",
          "name": "",
          "type": "string"
        }
      ],
      "stateMutability": "view",
      "type": "function"
    },
    {
      "inputs": [
        {
          "internalType": "address",
          "name": "from",
          "type": "address"
        },
        {
          "internalType": "address",
          "name": "to",
          "type": "address"
        },
        {
          "internalType": "uint256",
          "name": "tokenId",
          "type": "uint256"
        }
      ],
      "name": "transferFrom",
      "outputs": [],
      "stateMutability": "nonpayable",
      "type": "function"
    }
  ],
  "bytecode": "0x60806040523480156200001157600080fd5b506040516200139038038062001390833981016040819052620000349162000126565b8181600062000044838262000221565b50600162000053828262000221565b5050505050620002ed565b634e487b7160e01b600052604160045260246000fd5b600082601f8301126200008657600080fd5b81516001600160401b0380821115620000a357620000a36200005e565b604051601f8301601f19908116603f01168101908282118183101715620000ce57620000ce6200005e565b8160405283815260209250866020858801011115620000ec57600080fd5b600091505b83821015620001105785820183015181830184015290820190620000f1565b6000602085830101528094505050505092915050565b600080604083850312156200013a57600080fd5b82516001600160401b03808211156200015257600080fd5b620001608683870162000074565b935060208501519150808211156200017757600080fd5b50620001868582860162000074565b9150509250929050565b600181811c90821680620001a557607f821691505b602082108103620001c657634e487b7160e01b600052602260045260246000fd5b50919050565b601f8211156200021c576000816000526020600020601f850160051c81016020861015620001f75750805b601f850160051c820191505b81811015620002185782815560010162000203565b5050505b505050565b81516001600160401b038111156200023d576200023d6200005e565b62000255816200024e845462000190565b84620001cc565b602080601f8311600181146200028d5760008415620002745750858301515b600019600386901b1c1916600185901b17855562000218565b600085815260208120601f198616915b82811015620002be578886015182559484019460019091019084016200029d565b5085821015620002dd5787850151600019600388901b60f8161c191681555b5050505050600190811b01905550565b61109380620002fd6000396000f3fe608060405234801561001057600080fd5b50600436106101005760003560e01c80636c8b703f11610097578063a22cb46511610066578063a22cb4651461021d578063b88d4fde14610230578063c87b56dd14610243578063e985e9c51461025657600080fd5b80636c8b703f146101ce57806370a08231146101e15780637d59e4fd1461020257806395d89b411461021557600080fd5b806323b872dd116100d357806323b872dd1461018257806340c10f191461019557806342842e0e146101a85780636352211e146101bb57600080fd5b806301ffc9a71461010557806306fdde031461012d578063081812fc14610142578063095ea7b31461016d575b600080fd5b610118610113366004610ba4565b610269565b60405190151581526020015b60405180910390f35b6101356102bb565b6040516101249190610c0e565b610155610150366004610c21565b61034d565b6040516001600160a01b039091168152602001610124565b61018061017b366004610c56565b610376565b005b610180610190366004610c80565b610385565b6101806101a3366004610c56565b610415565b6101806101b6366004610c80565b61041f565b6101556101c9366004610c21565b61043f565b6101356101dc366004610c21565b61044a565b6101f46101ef366004610cbc565b6104e4565b604051908152602001610124565b610180610210366004610d63565b61052c565b61013561054e565b61018061022b366004610dce565b61055d565b61018061023e366004610e0a565b610568565b610135610251366004610c21565b61057f565b610118610264366004610e86565b610621565b60006001600160e01b031982166380ac58cd60e01b148061029a57506001600160e01b03198216635b5e139f60e01b145b806102b557506301ffc9a760e01b6001600160e01b03198316145b92915050565b6060600080546102ca90610eb9565b80601f01602080910402602001604051908101604052809291908181526020018280546102f690610eb9565b80156103435780601f1061031857610100808354040283529160200191610343565b820191906000526020600020905b81548152906001019060200180831161032657829003601f168201915b5050505050905090565b60006103588261064f565b506000828152600460205260409020546001600160a01b03166102b5565b610381828233610688565b5050565b6001600160a01b0382166103b457604051633250574960e11b8152600060048201526024015b60405180910390fd5b60006103c1838333610695565b9050836001600160a01b0316816001600160a01b03161461040f576040516364283d7b60e01b81526001600160a01b03808616600483015260248201849052821660448201526064016103ab565b50505050565b610381828261078e565b61043a83838360405180602001604052806000815250610568565b505050565b60006102b58261064f565b6006602052600090815260409020805461046390610eb9565b80601f016020809104026020016040519081016040528092919081815260200182805461048f90610eb9565b80156104dc5780601f106104b1576101008083540402835291602001916104dc565b820191906000526020600020905b8154815290600101906020018083116104bf57829003601f168201915b505050505081565b60006001600160a01b038216610510576040516322718ad960e21b8152600060048201526024016103ab565b506001600160a01b031660009081526003602052604090205490565b610536838361078e565b600082815260066020526040902061040f8282610f43565b6060600180546102ca90610eb9565b6103813383836107f3565b610573848484610385565b61040f84848484610892565b600081815260066020526040902080546060919061059c90610eb9565b80601f01602080910402602001604051908101604052809291908181526020018280546105c890610eb9565b80156106155780601f106105ea57610100808354040283529160200191610615565b820191906000526020600020905b8154815290600101906020018083116105f857829003601f168201915b50505050509050919050565b6001600160a01b03918216600090815260056020908152604080832093909416825291909152205460ff1690565b6000818152600260205260408120546001600160a01b0316806102b557604051637e27328960e01b8152600481018490526024016103ab565b61043a83838360016109bb565b6000828152600260205260408120546001600160a01b03908116908316156106c2576106c2818486610ac1565b6001600160a01b03811615610700576106df6000856000806109bb565b6001600160a01b038116600090815260036020526040902080546000190190555b6001600160a01b0385161561072f576001600160a01b0385166000908152600360205260409020805460010190555b60008481526002602052604080822080546001600160a01b0319166001600160a01b0389811691821790925591518793918516917fddf252ad1be2c89b69c2b068fc378daa952ba7f163c4a11628f55a4df523b3ef91a4949350505050565b6001600160a01b0382166107b857604051633250574960e11b8152600060048201526024016103ab565b60006107c683836000610695565b90506001600160a01b0381161561043a576040516339e3563760e11b8152600060048201526024016103ab565b6001600160a01b03821661082557604051630b61174360e31b81526001600160a01b03831660048201526024016103ab565b6001600160a01b03838116600081815260056020908152604080832094871680845294825291829020805460ff191686151590811790915591519182527f17307eab39ab6107e8899845ad3d59bd9653f200f220920489ca2b5937696c31910160405180910390a3505050565b6001600160a01b0383163b1561040f57604051630a85bd0160e11b81526001600160a01b0384169063150b7a02906108d4903390889087908790600401611003565b6020604051808303816000875af192505050801561090f575060408051601f3d908101601f1916820190925261090c91810190611040565b60015b610978573d80801561093d576040519150601f19603f3d011682016040523d82523d6000602084013e610942565b606091505b50805160000361097057604051633250574960e11b81526001600160a01b03851660048201526024016103ab565b805181602001fd5b6001600160e01b03198116630a85bd0160e11b146109b457604051633250574960e11b81526001600160a01b03851660048201526024016103ab565b5050505050565b80806109cf57506001600160a01b03821615155b15610a915760006109df8461064f565b90506001600160a01b03831615801590610a0b5750826001600160a01b0316816001600160a01b031614155b8015610a1e5750610a1c8184610621565b155b15610a475760405163a9fbf51f60e01b81526001600160a01b03841660048201526024016103ab565b8115610a8f5783856001600160a01b0316826001600160a01b03167f8c5be1e5ebec7d5bd14f71427d1e84f3dd0314c0f7b2291e5b200ac8c7c3b92560405160405180910390a45b505b5050600090815260046020526040902080546001600160a01b0319166001600160a01b0392909216919091179055565b610acc838383610b25565b61043a576001600160a01b038316610afa57604051637e27328960e01b8152600481018290526024016103ab565b60405163177e802f60e01b81526001600160a01b0383166004820152602481018290526044016103ab565b60006001600160a01b03831615801590610b835750826001600160a01b0316846001600160a01b03161480610b5f5750610b5f8484610621565b80610b8357506000828152600460205260409020546001600160a01b038481169116145b949350505050565b6001600160e01b031981168114610ba157600080fd5b50565b600060208284031215610bb657600080fd5b8135610bc181610b8b565b9392505050565b6000815180845260005b81811015610bee57602081850181015186830182015201610bd2565b506000602082860101526020601f19601f83011685010191505092915050565b602081526000610bc16020830184610bc8565b600060208284031215610c3357600080fd5b5035919050565b80356001600160a01b0381168114610c5157600080fd5b919050565b60008060408385031215610c6957600080fd5b610c7283610c3a565b946020939093013593505050565b600080600060608486031215610c9557600080fd5b610c9e84610c3a565b9250610cac60208501610c3a565b9150604084013590509250925092565b600060208284031215610cce57600080fd5b610bc182610c3a565b634e487b7160e01b600052604160045260246000fd5b600067ffffffffffffffff80841115610d0857610d08610cd7565b604051601f8501601f19908116603f01168101908282118183101715610d3057610d30610cd7565b81604052809350858152868686011115610d4957600080fd5b858560208301376000602087830101525050509392505050565b600080600060608486031215610d7857600080fd5b610d8184610c3a565b925060208401359150604084013567ffffffffffffffff811115610da457600080fd5b8401601f81018613610db557600080fd5b610dc486823560208401610ced565b9150509250925092565b60008060408385031215610de157600080fd5b610dea83610c3a565b915060208301358015158114610dff57600080fd5b809150509250929050565b60008060008060808587031215610e2057600080fd5b610e2985610c3a565b9350610e3760208601610c3a565b925060408501359150606085013567ffffffffffffffff811115610e5a57600080fd5b8501601f81018713610e6b57600080fd5b610e7a87823560208401610ced565b91505092959194509250565b60008060408385031215610e9957600080fd5b610ea283610c3a565b9150610eb060208401610c3a565b90509250929050565b600181811c90821680610ecd57607f821691505b602082108103610eed57634e487b7160e01b600052602260045260246000fd5b50919050565b601f82111561043a576000816000526020600020601f850160051c81016020861015610f1c5750805b601f850160051c820191505b81811015610f3b57828155600101610f28565b505050505050565b815167ffffffffffffffff811115610f5d57610f5d610cd7565b610f7181610f6b8454610eb9565b84610ef3565b602080601f831160018114610fa65760008415610f8e5750858301515b600019600386901b1c1916600185901b178555610f3b565b600085815260208120601f198616915b82811015610fd557888601518255948401946001909101908401610fb6565b5085821015610ff35787850151600019600388901b60f8161c191681555b5050505050600190811b01905550565b6001600160a01b038581168252841660208201526040810183905260806060820181905260009061103690830184610bc8565b9695505050505050565b60006020828403121561105257600080fd5b8151610bc181610b8b56fea26469706673582212201aac68331fbbdf8aac96350def0b6f21cb89f5ad03d9211e47a1ce8b9f0398db64736f6c63430008180033",
  "linkReferences": {},
  "deployedLinkReferences": {}
}