{
  "_format": "hh-sol-artifact-1",
  "contractName": "MockERC721",
  "sourceName": "contracts/mock/MockERC721.sol",
  "abi": [
    {
      "inputs": [
        {
          "internalType": "string",
          "name": "name_",
          "type": "string"
        },
        {
          "internalType": "string",
          "name": "symbol_",
          "type": "string"
        }
      ],
      "stateMutability": "nonpayable",
      "type": "constructor"
    },
    {
      "anonymous": false,
      "inputs": [
        {
          "indexed": true,
          "internalType": "address",
          "name": "owner",
          "type": "address"
        },
        {
          "indexed": true,
          "internalType": "address",
          "name": "approved",
          "type": "address"
        },
        {
          "indexed": true,
          "internalType": "uint256",
          "name": "tokenId",
          "type": "uint256"
        }
      ],
      "name": "Approval",
      "type": "event"
    },
    {
      "anonymous": false,
      "inputs": [
        {
          "indexed": true,
          "internalType": "address",
          "name": "owner",
          "type": "address"
        },
        {
          "indexed": true,
          "internalType": "address",
          "name": "operator",
          "type": "address"
        },
        {
          "indexed": false,
          "internalType": "bool",
          "name": "approved",
          "type": "bool"
        }
      ],
      "name": "ApprovalForAll",
      "type": "event"
    },
    {
      "anonymous": false,
      "inputs": [
        {
          "indexed": true,
          "internalType": "address",
          "name": "from",
          "type": "address"
        },
        {
          "indexed": true,
          "internalType": "address",
          "name": "to",
          "type": "address"
        },
        {
          "indexed": true,
          "internalType": "uint256",
          "name": "tokenId",
          "type": "uint256"
        }
      ],
      "name": "Transfer",
      "type": "event"
    },
    {
      "inputs": [
        {
          "internalType": "address",
          "name": "to",
          "type": "address"
        },
        {
          "internalType": "uint256",
          "name": "tokenId",
          "type": "uint256"
        }
      ],
      "name": "approve",
      "outputs": [],
      "stateMutability": "nonpayable",
      "type": "function"
    },
    {
      "inputs": [
        {
          "internalType": "address",
          "name": "owner",
          "type": "address"
        }
      ],
      "name": "balanceOf",
      "outputs": [
        {
          "internalType": "uint256",
          "name": "",
          "type": "uint256"
        }
      ],
      "stateMutability": "view",
      "type": "function"
    },
    {
      "inputs": [
        {
          "internalType": "uint256",
          "name": "tokenId",
          "type": "uint256"
        }
      ],
      "name": "getApproved",
      "outputs": [
        {
          "internalType": "address",
          "name": "",
          "type": "address"
        }
      ],
      "stateMutability": "view",
      "type": "function"
    },
    {
      "inputs": [
        {
          "internalType": "address",
          "name": "owner",
          "type": "address"
        },
        {
          "internalType": "address",
          "name": "operator",
          "type": "address"
        }
      ],
      "name": "isApprovedForAll",
      "outputs": [
        {
          "internalType": "bool",
          "name": "",
          "type": "bool"
        }
      ],
      "stateMutability": "view",
      "type": "function"
    },
    {
      "inputs": [
        {
          "internalType": "address",
          "name": "to",
          "type": "address"
        },
        {
          "internalType": "uint256",
          "name": "tokenId",
          "type": "uint256"
        }
      ],
      "name": "mint",
      "outputs": [],
      "stateMutability": "nonpayable",
      "type": "function"
    },
    {
      "inputs": [
        {
          "internalType": "address",
          "name": "to",
          "type": "address"
        },
        {
          "internalType": "uint256",
          "name": "tokenId",
          "type": "uint256"
        },
        {
          "internalType": "string",
          "name": "_tokenURI",
          "type": "string"
        }
      ],
      "name": "mintURI",
      "outputs": [],
      "stateMutability": "nonpayable",
      "type": "function"
    },
    {
      "inputs": [],
      "name": "name",
      "outputs": [
        {
          "internalType": "string",
          "name": "",
          "type": "string"
        }
      ],
      "stateMutability": "view",
      "type": "function"
    },
    {
      "inputs": [
        {
          "internalType": "uint256",
          "name": "tokenId",
          "type": "uint256"
        }
      ],
      "name": "ownerOf",
      "outputs": [
        {
          "internalType": "address",
          "name": "",
          "type": "address"
        }
      ],
      "stateMutability": "view",
      "type": "function"
    },
    {
      "inputs": [
        {
          "internalType": "address",
          "name": "from",
          "type": "address"
        },
        {
          "internalType": "address",
          "name": "to",
          "type": "address"
        },
        {
          "internalType": "uint256",
          "name": "tokenId",
          "type": "uint256"
        }
      ],
      "name": "safeTransferFrom",
      "outputs": [],
      "stateMutability": "nonpayable",
      "type": "function"
    },
    {
      "inputs": [
        {
          "internalType": "address",
          "name": "from",
          "type": "address"
        },
        {
          "internalType": "address",
          "name": "to",
          "type": "address"
        },
        {
          "internalType": "uint256",
          "name": "tokenId",
          "type": "uint256"
        },
        {
          "internalType": "bytes",
          "name": "data",
          "type": "bytes"
        }
      ],
      "name": "safeTransferFrom",
      "outputs": [],
      "stateMutability": "nonpayable",
      "type": "function"
    },
    {
      "inputs": [
        {
          "internalType": "address",
          "name": "operator",
          "type": "address"
        },
        {
          "internalType": "bool",
          "name": "approved",
          "type": "bool"
        }
      ],
      "name": "setApprovalForAll",
      "outputs": [],
      "stateMutability": "nonpayable",
      "type": "function"
    },
    {
      "inputs": [
        {
          "internalType": "bytes4",
          "name": "interfaceId",
          "type": "bytes4"
        }
      ],
      "name": "supportsInterface",
      "outputs": [
        {
          "internalType": "bool",
          "name": "",
          "type": "bool"
        }
      ],
      "stateMutability": "view",
      "type": "function"
    },
    {
      "inputs": [],
      "name": "symbol",
      "outputs": [
        {
          "internalType": "string",
          "name": "",
          "type": "string"
        }
      ],
      "stateMutability": "view",
      "type": "function"
    },
    {
      "inputs": [
        {
          "internalType": "uint256",
          "name": "tokenId",
          "type": "uint256"
        }
      ],
      "name": "tokenURI",
      "outputs": [
        {
          "internalType": "string",
          "name": "",
          "type": "string"
        }
      ],
      "stateMutability": "view",
      "type": "function"
    },
    {
      "inputs": [
        {
          "internalType": "uint256",
          "name": "",
          "type": "uint256"
        }
      ],
      "name": "tokenURIs",
      "outputs": [
        {
          "internalType": "string",
          "name": "",
          "type": "string"
        }
      ],
      "stateMutability": "view",
      "type": "function"
    },
    {
      "inputs": [
        {
          "internalType": "address",
          "name": "from",
          "type": "address"
        },
        {
          "internalType": "address",
          "name": "to",
          "type": "address"
        },
        {
          "internalType": "uint256",
          "name": "tokenId",
          "type": "uint256"
        }
      ],
      "name": "transferFrom",
      "outputs": [],
      "stateMutability": "nonpayable",
      "type": "function"
    }
  ],
  "bytecode": "0x60806040523480156200001157600080fd5b50604051620016cd380380620016cd833981016040819052620000349162000126565b8181600062000044838262000221565b50600162000053828262000221565b5050505050620002ed565b634e487b7160e01b600052604160045260246000fd5b600082601f8301126200008657600080fd5b81516001600160401b0380821115620000a357620000a36200005e565b604051601f8301601f19908116603f01168101908282118183101715620000ce57620000ce6200005e565b8160405283815260209250866020858801011115620000ec57600080fd5b600091505b83821015620001105785820183015181830184015290820190620000f1565b6000602085830101528094505050505092915050565b600080604083850312156200013a57600080fd5b82516001600160401b03808211156200015257600080fd5b620001608683870162000074565b935060208501519150808211156200017757600080fd5b50620001868582860162000074565b9150509250929050565b600181811c90821680620001a557607f821691505b602082108103620001c657634e487b7160e01b600052602260045260246000fd5b50919050565b601f8211156200021c576000816000526020600020601f850160051c81016020861015620001f75750805b601f850160051c820191505b81811015620002185782815560010162000203565b5050505b505050565b81516001600160401b038111156200023d576200023d6200005e565b62000255816200024e845462000190565b84620001cc565b602080601f8311600181146200028d5760008415620002745750858301515b600019600386901b1c1916600185901b17855562000218565b600085815260208120601f198616915b82811015620002be578886015182559484019460019091019084016200029d565b5085821015620002dd5787850151600019600388901b60f8161c191681555b5050505050600190811b01905550565b6113d080620002fd6000396000f3fe608060405234801561001057600080fd5b50600436106101005760003560e01c80636c8b703f11610097578063a22cb46511610066578063a22cb4651461021d578063b88d4fde14610230578063c87b56dd14610243578063e985e9c51461025657600080fd5b80636c8b703f146101ce57806370a08231146101e15780637d59e4fd1461020257806395d89b411461021557600080fd5b806323b872dd116100d357806323b872dd1461018257806340c10f191461019557806342842e0e146101a85780636352211e146101bb57600080fd5b806301ffc9a71461010557806306fdde031461012d578063081812fc14610142578063095ea7b31461016d575b600080fd5b610118610113366004610dfd565b610292565b60405190151581526020015b60405180910390f35b6101356102e4565b6040516101249190610e67565b610155610150366004610e7a565b610376565b6040516001600160a01b039091168152602001610124565b61018061017b366004610eaf565b61039d565b005b610180610190366004610ed9565b6104b7565b6101806101a3366004610eaf565b6104e8565b6101806101b6366004610ed9565b6104f6565b6101556101c9366004610e7a565b610511565b6101356101dc366004610e7a565b610571565b6101f46101ef366004610f15565b61060b565b604051908152602001610124565b610180610210366004610fbc565b610691565b6101356106b9565b61018061022b366004611027565b6106c8565b61018061023e366004611063565b6106d3565b610135610251366004610e7a565b610705565b6101186102643660046110df565b6001600160a01b03918216600090815260056020908152604080832093909416825291909152205460ff1690565b60006001600160e01b031982166380ac58cd60e01b14806102c357506001600160e01b03198216635b5e139f60e01b145b806102de57506301ffc9a760e01b6001600160e01b03198316145b92915050565b6060600080546102f390611112565b80601f016020809104026020016040519081016040528092919081815260200182805461031f90611112565b801561036c5780601f106103415761010080835404028352916020019161036c565b820191906000526020600020905b81548152906001019060200180831161034f57829003601f168201915b5050505050905090565b6000610381826107a7565b506000908152600460205260409020546001600160a01b031690565b60006103a882610511565b9050806001600160a01b0316836001600160a01b03160361041a5760405162461bcd60e51b815260206004820152602160248201527f4552433732313a20617070726f76616c20746f2063757272656e74206f776e656044820152603960f91b60648201526084015b60405180910390fd5b336001600160a01b038216148061043657506104368133610264565b6104a85760405162461bcd60e51b815260206004820152603d60248201527f4552433732313a20617070726f76652063616c6c6572206973206e6f7420746f60448201527f6b656e206f776e6572206f7220617070726f76656420666f7220616c6c0000006064820152608401610411565b6104b28383610809565b505050565b6104c13382610877565b6104dd5760405162461bcd60e51b81526004016104119061114c565b6104b28383836108f6565b6104f28282610a5a565b5050565b6104b2838383604051806020016040528060008152506106d3565b6000818152600260205260408120546001600160a01b0316806102de5760405162461bcd60e51b8152602060048201526018602482015277115490cdcc8c4e881a5b9d985b1a59081d1bdad95b88125160421b6044820152606401610411565b6006602052600090815260409020805461058a90611112565b80601f01602080910402602001604051908101604052809291908181526020018280546105b690611112565b80156106035780601f106105d857610100808354040283529160200191610603565b820191906000526020600020905b8154815290600101906020018083116105e657829003601f168201915b505050505081565b60006001600160a01b0382166106755760405162461bcd60e51b815260206004820152602960248201527f4552433732313a2061646472657373207a65726f206973206e6f7420612076616044820152683634b21037bbb732b960b91b6064820152608401610411565b506001600160a01b031660009081526003602052604090205490565b61069b8383610a5a565b60008281526006602052604090206106b382826111e9565b50505050565b6060600180546102f390611112565b6104f2338383610be5565b6106dd3383610877565b6106f95760405162461bcd60e51b81526004016104119061114c565b6106b384848484610cb3565b600081815260066020526040902080546060919061072290611112565b80601f016020809104026020016040519081016040528092919081815260200182805461074e90611112565b801561079b5780601f106107705761010080835404028352916020019161079b565b820191906000526020600020905b81548152906001019060200180831161077e57829003601f168201915b50505050509050919050565b6000818152600260205260409020546001600160a01b03166108065760405162461bcd60e51b8152602060048201526018602482015277115490cdcc8c4e881a5b9d985b1a59081d1bdad95b88125160421b6044820152606401610411565b50565b600081815260046020526040902080546001600160a01b0319166001600160a01b038416908117909155819061083e82610511565b6001600160a01b03167f8c5be1e5ebec7d5bd14f71427d1e84f3dd0314c0f7b2291e5b200ac8c7c3b92560405160405180910390a45050565b60008061088383610511565b9050806001600160a01b0316846001600160a01b031614806108ca57506001600160a01b0380821660009081526005602090815260408083209388168352929052205460ff165b806108ee5750836001600160a01b03166108e384610376565b6001600160a01b0316145b949350505050565b826001600160a01b031661090982610511565b6001600160a01b03161461092f5760405162461bcd60e51b8152600401610411906112a9565b6001600160a01b0382166109915760405162461bcd60e51b8152602060048201526024808201527f4552433732313a207472616e7366657220746f20746865207a65726f206164646044820152637265737360e01b6064820152608401610411565b826001600160a01b03166109a482610511565b6001600160a01b0316146109ca5760405162461bcd60e51b8152600401610411906112a9565b600081815260046020908152604080832080546001600160a01b03199081169091556001600160a01b0387811680865260038552838620805460001901905590871680865283862080546001019055868652600290945282852080549092168417909155905184937fddf252ad1be2c89b69c2b068fc378daa952ba7f163c4a11628f55a4df523b3ef91a4505050565b6001600160a01b038216610ab05760405162461bcd60e51b815260206004820181905260248201527f4552433732313a206d696e7420746f20746865207a65726f20616464726573736044820152606401610411565b6000818152600260205260409020546001600160a01b031615610b155760405162461bcd60e51b815260206004820152601c60248201527f4552433732313a20746f6b656e20616c7265616479206d696e746564000000006044820152606401610411565b6000818152600260205260409020546001600160a01b031615610b7a5760405162461bcd60e51b815260206004820152601c60248201527f4552433732313a20746f6b656e20616c7265616479206d696e746564000000006044820152606401610411565b6001600160a01b038216600081815260036020908152604080832080546001019055848352600290915280822080546001600160a01b0319168417905551839291907fddf252ad1be2c89b69c2b068fc378daa952ba7f163c4a11628f55a4df523b3ef908290a45050565b816001600160a01b0316836001600160a01b031603610c465760405162461bcd60e51b815260206004820152601960248201527f4552433732313a20617070726f766520746f2063616c6c6572000000000000006044820152606401610411565b6001600160a01b03838116600081815260056020908152604080832094871680845294825291829020805460ff191686151590811790915591519182527f17307eab39ab6107e8899845ad3d59bd9653f200f220920489ca2b5937696c31910160405180910390a3505050565b610cbe8484846108f6565b610cca84848484610ce6565b6106b35760405162461bcd60e51b8152600401610411906112ee565b60006001600160a01b0384163b15610ddc57604051630a85bd0160e11b81526001600160a01b0385169063150b7a0290610d2a903390899088908890600401611340565b6020604051808303816000875af1925050508015610d65575060408051601f3d908101601f19168201909252610d629181019061137d565b60015b610dc2573d808015610d93576040519150601f19603f3d011682016040523d82523d6000602084013e610d98565b606091505b508051600003610dba5760405162461bcd60e51b8152600401610411906112ee565b805181602001fd5b6001600160e01b031916630a85bd0160e11b1490506108ee565b506001949350505050565b6001600160e01b03198116811461080657600080fd5b600060208284031215610e0f57600080fd5b8135610e1a81610de7565b9392505050565b6000815180845260005b81811015610e4757602081850181015186830182015201610e2b565b506000602082860101526020601f19601f83011685010191505092915050565b602081526000610e1a6020830184610e21565b600060208284031215610e8c57600080fd5b5035919050565b80356001600160a01b0381168114610eaa57600080fd5b919050565b60008060408385031215610ec257600080fd5b610ecb83610e93565b946020939093013593505050565b600080600060608486031215610eee57600080fd5b610ef784610e93565b9250610f0560208501610e93565b9150604084013590509250925092565b600060208284031215610f2757600080fd5b610e1a82610e93565b634e487b7160e01b600052604160045260246000fd5b600067ffffffffffffffff80841115610f6157610f61610f30565b604051601f8501601f19908116603f01168101908282118183101715610f8957610f89610f30565b81604052809350858152868686011115610fa257600080fd5b858560208301376000602087830101525050509392505050565b600080600060608486031215610fd157600080fd5b610fda84610e93565b925060208401359150604084013567ffffffffffffffff811115610ffd57600080fd5b8401601f8101861361100e57600080fd5b61101d86823560208401610f46565b9150509250925092565b6000806040838503121561103a57600080fd5b61104383610e93565b91506020830135801515811461105857600080fd5b809150509250929050565b6000806000806080858703121561107957600080fd5b61108285610e93565b935061109060208601610e93565b925060408501359150606085013567ffffffffffffffff8111156110b357600080fd5b8501601f810187136110c457600080fd5b6110d387823560208401610f46565b91505092959194509250565b600080604083850312156110f257600080fd5b6110fb83610e93565b915061110960208401610e93565b90509250929050565b600181811c9082168061112657607f821691505b60208210810361114657634e487b7160e01b600052602260045260246000fd5b50919050565b6020808252602d908201527f4552433732313a2063616c6c6572206973206e6f7420746f6b656e206f776e6560408201526c1c881bdc88185c1c1c9bdd9959609a1b606082015260800190565b601f8211156104b2576000816000526020600020601f850160051c810160208610156111c25750805b601f850160051c820191505b818110156111e1578281556001016111ce565b505050505050565b815167ffffffffffffffff81111561120357611203610f30565b611217816112118454611112565b84611199565b602080601f83116001811461124c57600084156112345750858301515b600019600386901b1c1916600185901b1785556111e1565b600085815260208120601f198616915b8281101561127b5788860151825594840194600190910190840161125c565b50858210156112995787850151600019600388901b60f8161c191681555b5050505050600190811b01905550565b60208082526025908201527f4552433732313a207472616e736665722066726f6d20696e636f72726563742060408201526437bbb732b960d91b606082015260800190565b60208082526032908201527f4552433732313a207472616e7366657220746f206e6f6e20455243373231526560408201527131b2b4bb32b91034b6b83632b6b2b73a32b960711b606082015260800190565b6001600160a01b038581168252841660208201526040810183905260806060820181905260009061137390830184610e21565b9695505050505050565b60006020828403121561138f57600080fd5b8151610e1a81610de756fea2646970667358221220ae38da92f66680ae312e53fda8f577d60ac181101f46234233763fdef7dadc0d64736f6c63430008180033",
  "linkReferences": {},
  "deployedLinkReferences": {}
}