{
  "_format": "hh-sol-artifact-1",
  "contractName": "QuoterV3",
  "sourceName": "contracts/help/QuoterV3.sol",
  "abi": [
    {
      "inputs": [
        {
          "internalType": "address",
          "name": "_factory",
          "type": "address"
        },
        {
          "internalType": "address",
          "name": "_WETH9",
          "type": "address"
        }
      ],
      "stateMutability": "nonpayable",
      "type": "constructor"
    },
    {
      "inputs": [],
      "name": "WETH9",
      "outputs": [
        {
          "internalType": "address",
          "name": "",
          "type": "address"
        }
      ],
      "stateMutability": "view",
      "type": "function"
    },
    {
      "inputs": [
        {
          "internalType": "bytes[]",
          "name": "callDatas",
          "type": "bytes[]"
        },
        {
          "internalType": "uint256",
          "name": "eachGaslimit",
          "type": "uint256"
        }
      ],
      "name": "aggregate",
      "outputs": [
        {
          "internalType": "uint256[]",
          "name": "returnDatas",
          "type": "uint256[]"
        }
      ],
      "stateMutability": "nonpayable",
      "type": "function"
    },
    {
      "inputs": [],
      "name": "factory",
      "outputs": [
        {
          "internalType": "address",
          "name": "",
          "type": "address"
        }
      ],
      "stateMutability": "view",
      "type": "function"
    },
    {
      "inputs": [
        {
          "internalType": "bytes",
          "name": "path",
          "type": "bytes"
        },
        {
          "internalType": "uint256",
          "name": "amountIn",
          "type": "uint256"
        }
      ],
      "name": "quoteExactInput",
      "outputs": [
        {
          "internalType": "uint256",
          "name": "amountOut",
          "type": "uint256"
        }
      ],
      "stateMutability": "nonpayable",
      "type": "function"
    },
    {
      "inputs": [
        {
          "internalType": "address",
          "name": "tokenIn",
          "type": "address"
        },
        {
          "internalType": "address",
          "name": "tokenOut",
          "type": "address"
        },
        {
          "internalType": "uint24",
          "name": "fee",
          "type": "uint24"
        },
        {
          "internalType": "uint256",
          "name": "amountIn",
          "type": "uint256"
        },
        {
          "internalType": "uint160",
          "name": "sqrtPriceLimitX96",
          "type": "uint160"
        }
      ],
      "name": "quoteExactInputSingle",
      "outputs": [
        {
          "internalType": "uint256",
          "name": "amountOut",
          "type": "uint256"
        }
      ],
      "stateMutability": "nonpayable",
      "type": "function"
    },
    {
      "inputs": [
        {
          "internalType": "bytes",
          "name": "path",
          "type": "bytes"
        },
        {
          "internalType": "uint256",
          "name": "amountOut",
          "type": "uint256"
        }
      ],
      "name": "quoteExactOutput",
      "outputs": [
        {
          "internalType": "uint256",
          "name": "amountIn",
          "type": "uint256"
        }
      ],
      "stateMutability": "nonpayable",
      "type": "function"
    },
    {
      "inputs": [
        {
          "internalType": "address",
          "name": "tokenIn",
          "type": "address"
        },
        {
          "internalType": "address",
          "name": "tokenOut",
          "type": "address"
        },
        {
          "internalType": "uint24",
          "name": "fee",
          "type": "uint24"
        },
        {
          "internalType": "uint256",
          "name": "amountOut",
          "type": "uint256"
        },
        {
          "internalType": "uint160",
          "name": "sqrtPriceLimitX96",
          "type": "uint160"
        }
      ],
      "name": "quoteExactOutputSingle",
      "outputs": [
        {
          "internalType": "uint256",
          "name": "amountIn",
          "type": "uint256"
        }
      ],
      "stateMutability": "nonpayable",
      "type": "function"
    },
    {
      "inputs": [
        {
          "internalType": "int256",
          "name": "amount0Delta",
          "type": "int256"
        },
        {
          "internalType": "int256",
          "name": "amount1Delta",
          "type": "int256"
        },
        {
          "internalType": "bytes",
          "name": "path",
          "type": "bytes"
        }
      ],
      "name": "uniswapV3SwapCallback",
      "outputs": [],
      "stateMutability": "view",
      "type": "function"
    }
  ],
  "bytecode": "0x60c060405234801561001057600080fd5b50604051620016cf380380620016cf8339810160408190526100319161006b565b6001600160601b0319606092831b8116608052911b1660a05261009d565b80516001600160a01b038116811461006657600080fd5b919050565b6000806040838503121561007d578182fd5b6100868361004f565b91506100946020840161004f565b90509250929050565b60805160601c60a05160601c6115f9620000d6600039806104675250806101dc528061066c5280610712528061098a52506115f96000f3fe608060405234801561001057600080fd5b50600436106100885760003560e01c8063c45a01551161005b578063c45a0155146100fe578063cdca175314610106578063f7729d4314610119578063fa461e331461012c57610088565b80632f80bb1d1461008d57806330d07f21146100b65780634aa4a4fc146100c9578063a11d7b1d146100de575b600080fd5b6100a061009b366004611250565b610141565b6040516100ad9190611533565b60405180910390f35b6100a06100c4366004611143565b6101b8565b6100d1610465565b6040516100ad9190611430565b6100f16100ec3660046111b1565b610489565b6040516100ad91906114b2565b6100d161066a565b6100a0610114366004611250565b61068e565b6100a0610127366004611143565b6106ee565b61013f61013a3660046112b6565b610959565b005b60005b600061014f84610a30565b9050600080600061015f87610a3c565b9250925092506101738284838960006101b8565b9550856101875760009450505050506101b2565b831561019d5761019687610a6d565b96506101a9565b859450505050506101b2565b50505050610144565b92915050565b604051630b4c774160e11b81526000906001600160a01b03808716888216109183917f00000000000000000000000000000000000000000000000000000000000000001690631698ee8290610215908b908b908b90600401611444565b60206040518083038186803b15801561022d57600080fd5b505afa158015610241573d6000803e3d6000fd5b505050506040513d601f19601f820116820180604052508101906102659190611120565b90506001600160a01b03811615806102f45750806001600160a01b0316631a6865026040518163ffffffff1660e01b815260040160206040518083038186803b1580156102b157600080fd5b505afa1580156102c5573d6000803e3d6000fd5b505050506040513d601f19601f820116820180604052508101906102e9919061136e565b6001600160801b0316155b156103045760009250505061045c565b6001600160a01b0384166103185760008590555b806001600160a01b031663128acb08308461033289610a84565b6000036001600160a01b0389161561034a5788610370565b866103695773fffd8963efd1fc6a506488495d951d5263988d25610370565b6401000276a45b8c8c8f604051602001610385939291906113d9565b6040516020818303038152906040526040518663ffffffff1660e01b81526004016103b495949392919061146c565b6040805180830381600087803b1580156103cd57600080fd5b505af19250505080156103fd575060408051601f3d908101601f191682019092526103fa91810190611293565b60015b610457573d80801561042b576040519150601f19603f3d011682016040523d82523d6000602084013e610430565b606091505b506001600160a01b03851661044457600080555b61044d81610a9a565b935050505061045c565b505050505b95945050505050565b7f000000000000000000000000000000000000000000000000000000000000000081565b6060825167ffffffffffffffff811180156104a357600080fd5b506040519080825280602002602001820160405280156104cd578160200160208202803683370190505b50905060005b83518110156106635760005a9050600080306001600160a01b0316868886815181106104fb57fe5b60200260200101516040516105109190611414565b60006040518083038160008787f1925050503d806000811461054e576040519150601f19603f3d011682016040523d82523d6000602084013e610553565b606091505b509150915081156105e6576105bd604051806040016040528060138152602001725b6167677265676174655d207375636365737360681b81525061059683610b17565b60408051808201909152600881526719d85cc81d5cd95960c21b60208201525a8703610b33565b6105c681610b17565b60001c8585815181106105d557fe5b602002602001018181525050610658565b61063d6040518060400160405280601081526020016f16d859d9dc9959d85d19574819985a5b60821b81525060006040518060400160405280600881526020016719d85cc81d5cd95960c21b8152505a8703610b33565b600085858151811061064b57fe5b6020026020010181815250505b5050506001016104d3565b5092915050565b7f000000000000000000000000000000000000000000000000000000000000000081565b60005b600061069c84610a30565b905060008060006106ac87610a3c565b9250925092506106c08383838960006106ee565b9550856106d45760009450505050506101b2565b831561019d576106e387610a6d565b965050505050610691565b604051630b4c774160e11b81526000906001600160a01b03808716888216109183917f00000000000000000000000000000000000000000000000000000000000000001690631698ee829061074b908b908b908b90600401611444565b60206040518083038186803b15801561076357600080fd5b505afa158015610777573d6000803e3d6000fd5b505050506040513d601f19601f8201168201806040525081019061079b9190611120565b90506001600160a01b038116158061082a5750806001600160a01b0316631a6865026040518163ffffffff1660e01b815260040160206040518083038186803b1580156107e757600080fd5b505afa1580156107fb573d6000803e3d6000fd5b505050506040513d601f19601f8201168201806040525081019061081f919061136e565b6001600160801b0316155b1561083a5760009250505061045c565b806001600160a01b031663128acb08308461085489610a84565b6001600160a01b03891615610869578861088f565b866108885773fffd8963efd1fc6a506488495d951d5263988d2561088f565b6401000276a45b8d8c8e6040516020016108a4939291906113d9565b6040516020818303038152906040526040518663ffffffff1660e01b81526004016108d395949392919061146c565b6040805180830381600087803b1580156108ec57600080fd5b505af192505050801561091c575060408051601f3d908101601f1916820190925261091991810190611293565b60015b610457573d80801561094a576040519150601f19603f3d011682016040523d82523d6000602084013e61094f565b606091505b5061044d81610a9a565b60008313806109685750600082135b61097157600080fd5b600080600061097f84610a3c565b9250925092506109b17f0000000000000000000000000000000000000000000000000000000000000000848484610c56565b5060008060008089136109dd57856001600160a01b0316856001600160a01b031610888a6000036109f8565b846001600160a01b0316866001600160a01b03161089896000035b9250925092508215610a0f57604051818152602081fd5b60005415610a25576000548114610a2557600080fd5b604051828152602081fd5b8051604211155b919050565b60008080610a4a8482610c6c565b9250610a57846014610d1c565b9050610a64846017610c6c565b91509193909250565b80516060906101b290839060179060161901610dc3565b6000600160ff1b8210610a9657600080fd5b5090565b60008151602014610b0357604482511015610ad05760405162461bcd60e51b8152600401610ac790611509565b60405180910390fd5b60048201915081806020019051810190610aea9190611304565b60405162461bcd60e51b8152600401610ac791906114f6565b818060200190518101906101b29190611395565b6000815160001415610b2b57506000610a37565b506020015190565b610c5084848484604051602401808060200185815260200180602001848152602001838103835287818151815260200191508051906020019080838360005b83811015610b8a578181015183820152602001610b72565b50505050905090810190601f168015610bb75780820380516001836020036101000a031916815260200191505b50838103825285518152855160209182019187019080838360005b83811015610bea578181015183820152602001610bd2565b50505050905090810190601f168015610c175780820380516001836020036101000a031916815260200191505b5060408051601f198184030181529190526020810180516001600160e01b031663c67ea9d160e01b1790529650610f1495505050505050565b50505050565b600061045c85610c67868686610f2e565b610f84565b600081826014011015610cbb576040805162461bcd60e51b8152602060048201526012602482015271746f416464726573735f6f766572666c6f7760701b604482015290519081900360640190fd5b8160140183511015610d0c576040805162461bcd60e51b8152602060048201526015602482015274746f416464726573735f6f75744f66426f756e647360581b604482015290519081900360640190fd5b500160200151600160601b900490565b600081826003011015610d6a576040805162461bcd60e51b8152602060048201526011602482015270746f55696e7432345f6f766572666c6f7760781b604482015290519081900360640190fd5b8160030183511015610dba576040805162461bcd60e51b8152602060048201526014602482015273746f55696e7432345f6f75744f66426f756e647360601b604482015290519081900360640190fd5b50016003015190565b60608182601f011015610e0e576040805162461bcd60e51b815260206004820152600e60248201526d736c6963655f6f766572666c6f7760901b604482015290519081900360640190fd5b828284011015610e56576040805162461bcd60e51b815260206004820152600e60248201526d736c6963655f6f766572666c6f7760901b604482015290519081900360640190fd5b81830184511015610ea2576040805162461bcd60e51b8152602060048201526011602482015270736c6963655f6f75744f66426f756e647360781b604482015290519081900360640190fd5b606082158015610ec15760405191506000825260208201604052610f0b565b6040519150601f8416801560200281840101858101878315602002848b0101015b81831015610efa578051835260209283019201610ee2565b5050858452601f01601f1916604052505b50949350505050565b610f2b81610f23610fa7610fc8565b63ffffffff16565b50565b610f366110af565b826001600160a01b0316846001600160a01b03161115610f54579192915b50604080516060810182526001600160a01b03948516815292909316602083015262ffffff169181019190915290565b6000610f908383610fcb565b9050336001600160a01b038216146101b257600080fd5b60006a636f6e736f6c652e6c6f679050600080835160208501845afa505050565b90565b600081602001516001600160a01b031682600001516001600160a01b031610610ff357600080fd5b50805160208083015160409384015184516001600160a01b0394851681850152939091168385015262ffffff166060808401919091528351808403820181526080840185528051908301206001600160f81b031960a085015294901b6bffffffffffffffffffffffff191660a183015260b58201939093527fe34f199b19b2b4f47f68442619d555527d244f78a3297ea89325f843f87b8b5460d5808301919091528251808303909101815260f5909101909152805191012090565b604080516060810182526000808252602082018190529181019190915290565b600082601f8301126110df578081fd5b81356110f26110ed82611560565b61153c565b818152846020838601011115611106578283fd5b816020850160208301379081016020019190915292915050565b600060208284031215611131578081fd5b815161113c816115ae565b9392505050565b600080600080600060a0868803121561115a578081fd5b8535611165816115ae565b94506020860135611175816115ae565b9350604086013562ffffff8116811461118c578182fd5b92506060860135915060808601356111a3816115ae565b809150509295509295909350565b600080604083850312156111c3578182fd5b823567ffffffffffffffff808211156111da578384fd5b818501915085601f8301126111ed578384fd5b81356020828211156111fb57fe5b611208818284020161153c565b8281528181019350848201875b8481101561123e5761122c8b8584358a01016110cf565b86529483019490830190600101611215565b50909997909101359750505050505050565b60008060408385031215611262578182fd5b823567ffffffffffffffff811115611278578283fd5b611284858286016110cf565b95602094909401359450505050565b600080604083850312156112a5578182fd5b505080516020909101519092909150565b6000806000606084860312156112ca578283fd5b8335925060208401359150604084013567ffffffffffffffff8111156112ee578182fd5b6112fa868287016110cf565b9150509250925092565b600060208284031215611315578081fd5b815167ffffffffffffffff81111561132b578182fd5b8201601f8101841361133b578182fd5b80516113496110ed82611560565b81815285602083850101111561135d578384fd5b61045c826020830160208601611582565b60006020828403121561137f578081fd5b81516001600160801b038116811461113c578182fd5b6000602082840312156113a6578081fd5b5051919050565b600081518084526113c5816020860160208601611582565b601f01601f19169290920160200192915050565b606093841b6bffffffffffffffffffffffff19908116825260e89390931b6001600160e81b0319166014820152921b166017820152602b0190565b60008251611426818460208701611582565b9190910192915050565b6001600160a01b0391909116815260200190565b6001600160a01b03938416815291909216602082015262ffffff909116604082015260600190565b6001600160a01b0386811682528515156020830152604082018590528316606082015260a0608082018190526000906114a7908301846113ad565b979650505050505050565b6020808252825182820181905260009190848201906040850190845b818110156114ea578351835292840192918401916001016114ce565b50909695505050505050565b60006020825261113c60208301846113ad565b60208082526010908201526f2ab732bc3832b1ba32b21032b93937b960811b604082015260600190565b90815260200190565b60405181810167ffffffffffffffff8111828210171561155857fe5b604052919050565b600067ffffffffffffffff82111561157457fe5b50601f01601f191660200190565b60005b8381101561159d578181015183820152602001611585565b83811115610c505750506000910152565b6001600160a01b0381168114610f2b57600080fdfea2646970667358221220f2c0b11c6e65d0a6dc28df63896dea9159e74561a2b642141050777d31f03fd564736f6c63430007060033",
  "linkReferences": {},
  "deployedLinkReferences": {}
}