{
  "_format": "hh-sol-artifact-1",
  "contractName": "MarsService",
  "sourceName": "contracts/MarsService.sol",
  "abi": [
    {
      "inputs": [],
      "stateMutability": "nonpayable",
      "type": "constructor"
    },
    {
      "inputs": [
        {
          "internalType": "address",
          "name": "pairAddr",
          "type": "address"
        },
        {
          "internalType": "uint48",
          "name": "fromOrderId",
          "type": "uint48"
        },
        {
          "internalType": "uint8",
          "name": "num",
          "type": "uint8"
        }
      ],
      "name": "getBuyList",
      "outputs": [
        {
          "components": [
            {
              "internalType": "uint48",
              "name": "beforeOrderId",
              "type": "uint48"
            },
            {
              "internalType": "uint48",
              "name": "afterOrderId",
              "type": "uint48"
            },
            {
              "internalType": "address",
              "name": "owner",
              "type": "address"
            },
            {
              "internalType": "uint256",
              "name": "amountIn",
              "type": "uint256"
            },
            {
              "internalType": "uint256",
              "name": "amountOut",
              "type": "uint256"
            },
            {
              "internalType": "uint256",
              "name": "amountInUsed",
              "type": "uint256"
            }
          ],
          "internalType": "struct MarsPair.Order[]",
          "name": "",
          "type": "tuple[]"
        }
      ],
      "stateMutability": "view",
      "type": "function"
    },
    {
      "inputs": [
        {
          "internalType": "address",
          "name": "pairAddr",
          "type": "address"
        },
        {
          "internalType": "uint48",
          "name": "fromOrderId",
          "type": "uint48"
        },
        {
          "internalType": "uint8",
          "name": "num",
          "type": "uint8"
        }
      ],
      "name": "getSellList",
      "outputs": [
        {
          "components": [
            {
              "internalType": "uint48",
              "name": "beforeOrderId",
              "type": "uint48"
            },
            {
              "internalType": "uint48",
              "name": "afterOrderId",
              "type": "uint48"
            },
            {
              "internalType": "address",
              "name": "owner",
              "type": "address"
            },
            {
              "internalType": "uint256",
              "name": "amountIn",
              "type": "uint256"
            },
            {
              "internalType": "uint256",
              "name": "amountOut",
              "type": "uint256"
            },
            {
              "internalType": "uint256",
              "name": "amountInUsed",
              "type": "uint256"
            }
          ],
          "internalType": "struct MarsPair.Order[]",
          "name": "",
          "type": "tuple[]"
        }
      ],
      "stateMutability": "view",
      "type": "function"
    },
    {
      "inputs": [
        {
          "internalType": "address",
          "name": "user",
          "type": "address"
        },
        {
          "internalType": "uint48",
          "name": "startIndex",
          "type": "uint48"
        },
        {
          "internalType": "uint48",
          "name": "num",
          "type": "uint48"
        }
      ],
      "name": "getUserOrders",
      "outputs": [
        {
          "components": [
            {
              "internalType": "address",
              "name": "pair",
              "type": "address"
            },
            {
              "internalType": "uint48",
              "name": "orderId",
              "type": "uint48"
            },
            {
              "internalType": "uint32",
              "name": "createTime",
              "type": "uint32"
            },
            {
              "internalType": "bool",
              "name": "isBuy",
              "type": "bool"
            },
            {
              "internalType": "address",
              "name": "owner",
              "type": "address"
            },
            {
              "internalType": "uint256",
              "name": "amountIn",
              "type": "uint256"
            },
            {
              "internalType": "uint256",
              "name": "amountOut",
              "type": "uint256"
            },
            {
              "internalType": "uint256",
              "name": "amountInUsed",
              "type": "uint256"
            },
            {
              "internalType": "bool",
              "name": "isRemoved",
              "type": "bool"
            }
          ],
          "internalType": "struct MarsService.Order[]",
          "name": "",
          "type": "tuple[]"
        }
      ],
      "stateMutability": "view",
      "type": "function"
    },
    {
      "inputs": [
        {
          "internalType": "address",
          "name": "pairAddr",
          "type": "address"
        },
        {
          "internalType": "uint256",
          "name": "token1In",
          "type": "uint256"
        },
        {
          "internalType": "uint256",
          "name": "token0Out",
          "type": "uint256"
        },
        {
          "internalType": "uint48",
          "name": "beforeOrderId",
          "type": "uint48"
        }
      ],
      "name": "makeBuyOrder",
      "outputs": [
        {
          "internalType": "uint48",
          "name": "newOrderId",
          "type": "uint48"
        }
      ],
      "stateMutability": "nonpayable",
      "type": "function"
    },
    {
      "inputs": [
        {
          "internalType": "address",
          "name": "pairAddr",
          "type": "address"
        },
        {
          "internalType": "uint256",
          "name": "token0In",
          "type": "uint256"
        },
        {
          "internalType": "uint256",
          "name": "token1Out",
          "type": "uint256"
        },
        {
          "internalType": "uint48",
          "name": "beforeOrderId",
          "type": "uint48"
        }
      ],
      "name": "makeSellOrder",
      "outputs": [
        {
          "internalType": "uint48",
          "name": "newOrderId",
          "type": "uint48"
        }
      ],
      "stateMutability": "nonpayable",
      "type": "function"
    },
    {
      "inputs": [
        {
          "internalType": "address",
          "name": "pairAddr",
          "type": "address"
        },
        {
          "internalType": "uint256",
          "name": "token0In",
          "type": "uint256"
        },
        {
          "internalType": "uint256",
          "name": "token1Want",
          "type": "uint256"
        }
      ],
      "name": "takeBuyOrder",
      "outputs": [
        {
          "internalType": "uint256",
          "name": "token0Pay",
          "type": "uint256"
        },
        {
          "internalType": "uint256",
          "name": "token1Gain",
          "type": "uint256"
        },
        {
          "internalType": "uint256",
          "name": "token0Fee",
          "type": "uint256"
        }
      ],
      "stateMutability": "nonpayable",
      "type": "function"
    },
    {
      "inputs": [
        {
          "internalType": "address",
          "name": "pairAddr",
          "type": "address"
        },
        {
          "internalType": "uint256",
          "name": "token0In",
          "type": "uint256"
        },
        {
          "internalType": "uint256",
          "name": "token1Want",
          "type": "uint256"
        }
      ],
      "name": "takeBuyOrder2",
      "outputs": [
        {
          "internalType": "uint256",
          "name": "token0Pay",
          "type": "uint256"
        },
        {
          "internalType": "uint256",
          "name": "token1Gain",
          "type": "uint256"
        },
        {
          "internalType": "uint256",
          "name": "token0Fee",
          "type": "uint256"
        }
      ],
      "stateMutability": "nonpayable",
      "type": "function"
    },
    {
      "inputs": [
        {
          "internalType": "address",
          "name": "pairAddr",
          "type": "address"
        },
        {
          "internalType": "uint256",
          "name": "token1In",
          "type": "uint256"
        },
        {
          "internalType": "uint256",
          "name": "token0Want",
          "type": "uint256"
        }
      ],
      "name": "takeSellOrder",
      "outputs": [
        {
          "internalType": "uint256",
          "name": "token1Pay",
          "type": "uint256"
        },
        {
          "internalType": "uint256",
          "name": "token0Gain",
          "type": "uint256"
        },
        {
          "internalType": "uint256",
          "name": "token1Fee",
          "type": "uint256"
        }
      ],
      "stateMutability": "nonpayable",
      "type": "function"
    },
    {
      "inputs": [
        {
          "internalType": "address",
          "name": "pairAddr",
          "type": "address"
        },
        {
          "internalType": "uint256",
          "name": "token1In",
          "type": "uint256"
        },
        {
          "internalType": "uint256",
          "name": "token0Want",
          "type": "uint256"
        }
      ],
      "name": "takeSellOrder2",
      "outputs": [
        {
          "internalType": "uint256",
          "name": "token1Pay",
          "type": "uint256"
        },
        {
          "internalType": "uint256",
          "name": "token0Gain",
          "type": "uint256"
        },
        {
          "internalType": "uint256",
          "name": "token1Fee",
          "type": "uint256"
        }
      ],
      "stateMutability": "nonpayable",
      "type": "function"
    }
  ],
  "bytecode": "0x608060405234801561001057600080fd5b50612d47806100206000396000f3fe608060405234801561001057600080fd5b50600436106100935760003560e01c8063c5791f5211610066578063c5791f5214610128578063d4092fa61461013b578063e6a30acf1461014e578063f519e79f14610161578063fcc6a6021461018157600080fd5b80632c5fe7241461009857806378cfd70e146100c75780637931388e146100e7578063934fd495146100fa575b600080fd5b6100ab6100a6366004612740565b610194565b60405165ffffffffffff90911681526020015b60405180910390f35b6100da6100d5366004612799565b61046e565b6040516100be91906127e4565b6100ab6100f5366004612740565b610694565b61010d610108366004612870565b610963565b604080519384526020840192909252908201526060016100be565b61010d610136366004612870565b610ed1565b6100da610149366004612799565b611330565b61010d61015c366004612870565b611548565b61017461016f3660046128a5565b611864565b6040516100be91906128e5565b61010d61018f366004612870565b611a18565b6000808590506000816001600160a01b031663d21220a76040518163ffffffff1660e01b8152600401602060405180830381865afa1580156101da573d6000803e3d6000fd5b505050506040513d601f19601f820116820180604052508101906101fe9190612990565b6040516323b872dd60e01b81529091506001600160a01b038216906323b872dd9061023190339030908b906004016129ad565b6020604051808303816000875af1158015610250573d6000803e3d6000fd5b505050506040513d601f19601f8201168201806040525081019061027491906129d1565b50604051636eb1769f60e11b81523060048201526001600160a01b03888116602483015287919083169063dd62ed3e90604401602060405180830381865afa1580156102c4573d6000803e3d6000fd5b505050506040513d601f19601f820116820180604052508101906102e891906129f3565b10156103635760405163095ea7b360e01b81526001600160a01b0382169063095ea7b39061031e908a9060001990600401612a0c565b6020604051808303816000875af115801561033d573d6000803e3d6000fd5b505050506040513d601f19601f8201168201806040525081019061036191906129d1565b505b600061037188888888611f42565b604051633768dec960e21b8152600481018990526024810188905265ffffffffffff821660448201529091506001600160a01b0384169063dda37b24906064016020604051808303816000875af11580156103d0573d6000803e3d6000fd5b505050506040513d601f19601f820116820180604052508101906103f49190612a35565b60405163058c0c5360e41b81529094506001600160a01b038416906358c0c530906104259087903390600401612a52565b600060405180830381600087803b15801561043f57600080fd5b505af1158015610453573d6000803e3d6000fd5b5050505061046388856001612159565b505050949350505050565b606060008260ff1667ffffffffffffffff81111561048e5761048e612a73565b6040519080825280602002602001820160405280156104c757816020015b6104b4612679565b8152602001906001900390816104ac5790505b5090508465ffffffffffff851660000361054057806001600160a01b0316637c33e99a6040518163ffffffff1660e01b8152600401602060405180830381865afa158015610519573d6000803e3d6000fd5b505050506040513d601f19601f8201168201806040525081019061053d9190612a35565b94505b604051632b9116eb60e21b815265ffffffffffff861660048201526000906001600160a01b0383169063ae445bac9060240160c060405180830381865afa15801561058f573d6000803e3d6000fd5b505050506040513d601f19601f820116820180604052508101906105b39190612a94565b905080836000815181106105c9576105c9612b2f565b602090810291909101015260015b8560ff168160ff161015610686576020820151604051632b9116eb60e21b815265ffffffffffff821660048201526001600160a01b0385169063ae445bac9060240160c060405180830381865afa158015610636573d6000803e3d6000fd5b505050506040513d601f19601f8201168201806040525081019061065a9190612a94565b925082858360ff168151811061067257610672612b2f565b6020908102919091010152506001016105d7565b5091925050505b9392505050565b6000808590506000816001600160a01b0316630dfe16816040518163ffffffff1660e01b8152600401602060405180830381865afa1580156106da573d6000803e3d6000fd5b505050506040513d601f19601f820116820180604052508101906106fe9190612990565b6040516323b872dd60e01b81529091506001600160a01b038216906323b872dd9061073190339030908b906004016129ad565b6020604051808303816000875af1158015610750573d6000803e3d6000fd5b505050506040513d601f19601f8201168201806040525081019061077491906129d1565b50604051636eb1769f60e11b81523060048201526001600160a01b03888116602483015287919083169063dd62ed3e90604401602060405180830381865afa1580156107c4573d6000803e3d6000fd5b505050506040513d601f19601f820116820180604052508101906107e891906129f3565b10156108635760405163095ea7b360e01b81526001600160a01b0382169063095ea7b39061081e908a9060001990600401612a0c565b6020604051808303816000875af115801561083d573d6000803e3d6000fd5b505050506040513d601f19601f8201168201806040525081019061086191906129d1565b505b600061087188888888612277565b60405163b5b2d29b60e01b8152600481018990526024810188905265ffffffffffff821660448201529091506001600160a01b0384169063b5b2d29b906064016020604051808303816000875af11580156108d0573d6000803e3d6000fd5b505050506040513d601f19601f820116820180604052508101906108f49190612a35565b604051635ff09b1f60e11b81529094506001600160a01b0384169063bfe1363e906109259087903390600401612a52565b600060405180830381600087803b15801561093f57600080fd5b505af1158015610953573d6000803e3d6000fd5b5050505061046388856000612159565b6000806000808690506000816001600160a01b0316630dfe16816040518163ffffffff1660e01b8152600401602060405180830381865afa1580156109ac573d6000803e3d6000fd5b505050506040513d601f19601f820116820180604052508101906109d09190612990565b90506000612710836001600160a01b031663ddca3f436040518163ffffffff1660e01b8152600401602060405180830381865afa158015610a15573d6000803e3d6000fd5b505050506040513d601f19601f82011682018060405250810190610a399190612b45565b610a469060ff168a612b78565b610a509190612b8f565b90506000610a5e8983612bb1565b6040516323b872dd60e01b81529091506001600160a01b038416906323b872dd90610a91903390309086906004016129ad565b6020604051808303816000875af1158015610ab0573d6000803e3d6000fd5b505050506040513d601f19601f82011682018060405250810190610ad491906129d1565b50604051636eb1769f60e11b81523060048201526001600160a01b038b8116602483015282919085169063dd62ed3e90604401602060405180830381865afa158015610b24573d6000803e3d6000fd5b505050506040513d601f19601f82011682018060405250810190610b4891906129f3565b1015610bc35760405163095ea7b360e01b81526001600160a01b0384169063095ea7b390610b7e908d9060001990600401612a0c565b6020604051808303816000875af1158015610b9d573d6000803e3d6000fd5b505050506040513d601f19601f82011682018060405250810190610bc191906129d1565b505b604051634522582b60e11b8152600481018a9052602481018990526001600160a01b03851690638a44b056906044016060604051808303816000875af1158015610c11573d6000803e3d6000fd5b505050506040513d601f19601f82011682018060405250810190610c359190612bc4565b809750819850829950505050836001600160a01b031663d21220a76040518163ffffffff1660e01b8152600401602060405180830381865afa158015610c7f573d6000803e3d6000fd5b505050506040513d601f19601f82011682018060405250810190610ca39190612990565b6001600160a01b031663a9059cbb33886040518363ffffffff1660e01b8152600401610cd0929190612a0c565b6020604051808303816000875af1158015610cef573d6000803e3d6000fd5b505050506040513d601f19601f82011682018060405250810190610d1391906129d1565b5084821115610d98576001600160a01b03831663a9059cbb33610d368886612bf2565b6040518363ffffffff1660e01b8152600401610d53929190612a0c565b6020604051808303816000875af1158015610d72573d6000803e3d6000fd5b505050506040513d601f19601f82011682018060405250810190610d9691906129d1565b505b86891115610ec4576000610dac888b612bf2565b905060008a610dbb8b84612b78565b610dc59190612b8f565b90506000610dd68d84846000612277565b60405163b5b2d29b60e01b8152600481018590526024810184905265ffffffffffff821660448201529091506000906001600160a01b0389169063b5b2d29b906064016020604051808303816000875af1158015610e38573d6000803e3d6000fd5b505050506040513d601f19601f82011682018060405250810190610e5c9190612a35565b604051635ff09b1f60e11b81529091506001600160a01b0389169063bfe1363e90610e8d9084903390600401612a52565b600060405180830381600087803b158015610ea757600080fd5b505af1158015610ebb573d6000803e3d6000fd5b50505050505050505b5050505093509350939050565b6000806000808690506000816001600160a01b0316630dfe16816040518163ffffffff1660e01b8152600401602060405180830381865afa158015610f1a573d6000803e3d6000fd5b505050506040513d601f19601f82011682018060405250810190610f3e9190612990565b90506000612710836001600160a01b031663ddca3f436040518163ffffffff1660e01b8152600401602060405180830381865afa158015610f83573d6000803e3d6000fd5b505050506040513d601f19601f82011682018060405250810190610fa79190612b45565b610fb49060ff168a612b78565b610fbe9190612b8f565b90506000610fcc8983612bb1565b6040516323b872dd60e01b81529091506001600160a01b038416906323b872dd90610fff903390309086906004016129ad565b6020604051808303816000875af115801561101e573d6000803e3d6000fd5b505050506040513d601f19601f8201168201806040525081019061104291906129d1565b50604051636eb1769f60e11b81523060048201526001600160a01b038b8116602483015282919085169063dd62ed3e90604401602060405180830381865afa158015611092573d6000803e3d6000fd5b505050506040513d601f19601f820116820180604052508101906110b691906129f3565b10156111315760405163095ea7b360e01b81526001600160a01b0384169063095ea7b3906110ec908d9060001990600401612a0c565b6020604051808303816000875af115801561110b573d6000803e3d6000fd5b505050506040513d601f19601f8201168201806040525081019061112f91906129d1565b505b604051634522582b60e11b8152600481018a9052602481018990526001600160a01b03851690638a44b056906044016060604051808303816000875af115801561117f573d6000803e3d6000fd5b505050506040513d601f19601f820116820180604052508101906111a39190612bc4565b809750819850829950505050836001600160a01b031663d21220a76040518163ffffffff1660e01b8152600401602060405180830381865afa1580156111ed573d6000803e3d6000fd5b505050506040513d601f19601f820116820180604052508101906112119190612990565b6001600160a01b031663a9059cbb33886040518363ffffffff1660e01b815260040161123e929190612a0c565b6020604051808303816000875af115801561125d573d6000803e3d6000fd5b505050506040513d601f19601f8201168201806040525081019061128191906129d1565b5086891115610ec4576000611296888b612bf2565b905060006112a48785612bf2565b90506001600160a01b03851663a9059cbb336112c08486612bb1565b6040518363ffffffff1660e01b81526004016112dd929190612a0c565b6020604051808303816000875af11580156112fc573d6000803e3d6000fd5b505050506040513d601f19601f8201168201806040525081019061132091906129d1565b5050505050505093509350939050565b606060008260ff1667ffffffffffffffff81111561135057611350612a73565b60405190808252806020026020018201604052801561138957816020015b611376612679565b81526020019060019003908161136e5790505b5090508465ffffffffffff851660000361140257806001600160a01b031663c4ccb40a6040518163ffffffff1660e01b8152600401602060405180830381865afa1580156113db573d6000803e3d6000fd5b505050506040513d601f19601f820116820180604052508101906113ff9190612a35565b94505b6040516339709d2f60e21b815265ffffffffffff861660048201526000906001600160a01b0383169063e5c274bc9060240160c060405180830381865afa158015611451573d6000803e3d6000fd5b505050506040513d601f19601f820116820180604052508101906114759190612a94565b9050808360008151811061148b5761148b612b2f565b602090810291909101015260015b8560ff168160ff1610156106865760208201516040516339709d2f60e21b815265ffffffffffff821660048201526001600160a01b0385169063e5c274bc9060240160c060405180830381865afa1580156114f8573d6000803e3d6000fd5b505050506040513d601f19601f8201168201806040525081019061151c9190612a94565b925082858360ff168151811061153457611534612b2f565b602090810291909101015250600101611499565b6000806000808690506000816001600160a01b031663d21220a76040518163ffffffff1660e01b8152600401602060405180830381865afa158015611591573d6000803e3d6000fd5b505050506040513d601f19601f820116820180604052508101906115b59190612990565b90506000612710836001600160a01b031663ddca3f436040518163ffffffff1660e01b8152600401602060405180830381865afa1580156115fa573d6000803e3d6000fd5b505050506040513d601f19601f8201168201806040525081019061161e9190612b45565b61162b9060ff168a612b78565b6116359190612b8f565b905060006116438983612bb1565b6040516323b872dd60e01b81529091506001600160a01b038416906323b872dd90611676903390309086906004016129ad565b6020604051808303816000875af1158015611695573d6000803e3d6000fd5b505050506040513d601f19601f820116820180604052508101906116b991906129d1565b50604051636eb1769f60e11b81523060048201526001600160a01b038b8116602483015282919085169063dd62ed3e90604401602060405180830381865afa158015611709573d6000803e3d6000fd5b505050506040513d601f19601f8201168201806040525081019061172d91906129f3565b10156117a85760405163095ea7b360e01b81526001600160a01b0384169063095ea7b390611763908d9060001990600401612a0c565b6020604051808303816000875af1158015611782573d6000803e3d6000fd5b505050506040513d601f19601f820116820180604052508101906117a691906129d1565b505b604051631804a7ab60e31b8152600481018a9052602481018990526001600160a01b0385169063c0253d58906044016060604051808303816000875af11580156117f6573d6000803e3d6000fd5b505050506040513d601f19601f8201168201806040525081019061181a9190612bc4565b809750819850829950505050836001600160a01b0316630dfe16816040518163ffffffff1660e01b8152600401602060405180830381865afa1580156111ed573d6000803e3d6000fd5b606060008265ffffffffffff1667ffffffffffffffff81111561188957611889612a73565b6040519080825280602002602001820160405280156118c257816020015b6118af6126c8565b8152602001906001900390816118a75790505b5090508365ffffffffffff166000036118f9576001600160a01b03851660009081526001602052604090205465ffffffffffff1693505b8365ffffffffffff1660000361191057905061068d565b835b65ffffffffffff84166119258287612c05565b65ffffffffffff161015611a0f5760008060006119428985612486565b65ffffffffffff1916815260208082019290925260409081016000908120825160808101845290546001600160a01b03811680835265ffffffffffff600160a01b830416958301869052600160d01b820463ffffffff1694830194909452600160f01b900460ff1615156060820181905290945090926119c292916124dd565b90506119ce82826125cf565b846119d9858a612c05565b65ffffffffffff16815181106119f1576119f1612b2f565b6020026020010181905250505080611a0890612c2b565b9050611912565b50949350505050565b6000806000808690506000816001600160a01b031663d21220a76040518163ffffffff1660e01b8152600401602060405180830381865afa158015611a61573d6000803e3d6000fd5b505050506040513d601f19601f82011682018060405250810190611a859190612990565b90506000612710836001600160a01b031663ddca3f436040518163ffffffff1660e01b8152600401602060405180830381865afa158015611aca573d6000803e3d6000fd5b505050506040513d601f19601f82011682018060405250810190611aee9190612b45565b611afb9060ff168a612b78565b611b059190612b8f565b90506000611b138983612bb1565b6040516323b872dd60e01b81529091506001600160a01b038416906323b872dd90611b46903390309086906004016129ad565b6020604051808303816000875af1158015611b65573d6000803e3d6000fd5b505050506040513d601f19601f82011682018060405250810190611b8991906129d1565b50604051636eb1769f60e11b81523060048201526001600160a01b038b8116602483015282919085169063dd62ed3e90604401602060405180830381865afa158015611bd9573d6000803e3d6000fd5b505050506040513d601f19601f82011682018060405250810190611bfd91906129f3565b1015611c785760405163095ea7b360e01b81526001600160a01b0384169063095ea7b390611c33908d9060001990600401612a0c565b6020604051808303816000875af1158015611c52573d6000803e3d6000fd5b505050506040513d601f19601f82011682018060405250810190611c7691906129d1565b505b604051631804a7ab60e31b8152600481018a9052602481018990526001600160a01b0385169063c0253d58906044016060604051808303816000875af1158015611cc6573d6000803e3d6000fd5b505050506040513d601f19601f82011682018060405250810190611cea9190612bc4565b809750819850829950505050836001600160a01b0316630dfe16816040518163ffffffff1660e01b8152600401602060405180830381865afa158015611d34573d6000803e3d6000fd5b505050506040513d601f19601f82011682018060405250810190611d589190612990565b6001600160a01b031663a9059cbb33886040518363ffffffff1660e01b8152600401611d85929190612a0c565b6020604051808303816000875af1158015611da4573d6000803e3d6000fd5b505050506040513d601f19601f82011682018060405250810190611dc891906129d1565b5084821115611e4d576001600160a01b03831663a9059cbb33611deb8886612bf2565b6040518363ffffffff1660e01b8152600401611e08929190612a0c565b6020604051808303816000875af1158015611e27573d6000803e3d6000fd5b505050506040513d601f19601f82011682018060405250810190611e4b91906129d1565b505b86891115610ec4576000611e61888b612bf2565b905060008a611e708b84612b78565b611e7a9190612b8f565b90506000611e8b8d84846000611f42565b604051633768dec960e21b8152600481018590526024810184905265ffffffffffff821660448201529091506000906001600160a01b0389169063dda37b24906064016020604051808303816000875af1158015611eed573d6000803e3d6000fd5b505050506040513d601f19601f82011682018060405250810190611f119190612a35565b60405163058c0c5360e41b81529091506001600160a01b038916906358c0c53090610e8d9084903390600401612a52565b6000808590506000816001600160a01b031663c4ccb40a6040518163ffffffff1660e01b8152600401602060405180830381865afa158015611f88573d6000803e3d6000fd5b505050506040513d601f19601f82011682018060405250810190611fac9190612a35565b90508065ffffffffffff16600003611fc957600092505050612151565b8365ffffffffffff16600003611fdd578093505b60405163d44ca7af60e01b815265ffffffffffff851660048201526000908190819081906001600160a01b0387169063d44ca7af9060240160c060405180830381865afa158015612032573d6000803e3d6000fd5b505050506040513d601f19601f820116820180604052508101906120569190612c4d565b5094509450509350935081600014158015612079575065ffffffffffff84811614155b15612082578794505b61208c8983612b78565b6120968b83612b78565b11156120aa57839650505050505050612151565b8265ffffffffffff166000036120c857849650505050505050612151565b60405163d44ca7af60e01b815265ffffffffffff8416600482015292945084926001600160a01b0387169063d44ca7af9060240160c060405180830381865afa158015612119573d6000803e3d6000fd5b505050506040513d601f19601f8201168201806040525081019061213d9190612c4d565b509397509195509093509091506120829050565b949350505050565b3360009081526001602052604090205465ffffffffffff168061217b81612cb6565b9150506040518060800160405280856001600160a01b031681526020018465ffffffffffff1681526020014263ffffffff1681526020018315158152506000806121c53385612486565b65ffffffffffff199081168252602080830193909352604091820160009081208551815487870151888701516060909901516001600160a01b039093166001600160d01b031990921691909117600160a01b65ffffffffffff928316021764ffffffffff60d01b1916600160d01b63ffffffff9099169890980260ff60f01b191697909717600160f01b9115159190910217905533815260019093529120805490911692909116919091179055505050565b6000808590506000816001600160a01b0316637c33e99a6040518163ffffffff1660e01b8152600401602060405180830381865afa1580156122bd573d6000803e3d6000fd5b505050506040513d601f19601f820116820180604052508101906122e19190612a35565b90508065ffffffffffff166000036122fe57600092505050612151565b8365ffffffffffff16600003612312578093505b60405163d7d99b0b60e01b815265ffffffffffff851660048201526000908190819081906001600160a01b0387169063d7d99b0b9060240160c060405180830381865afa158015612367573d6000803e3d6000fd5b505050506040513d601f19601f8201168201806040525081019061238b9190612c4d565b50945094505093509350816000141580156123ae575065ffffffffffff84811614155b156123b7578794505b6123c18983612b78565b6123cb8b83612b78565b11156123df57839650505050505050612151565b8265ffffffffffff166000036123fd57849650505050505050612151565b60405163d7d99b0b60e01b815265ffffffffffff8416600482015292945084926001600160a01b0387169063d7d99b0b9060240160c060405180830381865afa15801561244e573d6000803e3d6000fd5b505050506040513d601f19601f820116820180604052508101906124729190612c4d565b509397509195509093509091506123b79050565b6040516bffffffffffffffffffffffff19606084901b1660208201526001600160d01b031960d083901b166034820152600090603a016040516020818303038152906040526124d490612cdb565b90505b92915050565b6124e5612679565b8161255f57604051632b9116eb60e21b815265ffffffffffff841660048201526001600160a01b0385169063ae445bac9060240160c060405180830381865afa158015612536573d6000803e3d6000fd5b505050506040513d601f19601f8201168201806040525081019061255a9190612a94565b612151565b6040516339709d2f60e21b815265ffffffffffff841660048201526001600160a01b0385169063e5c274bc9060240160c060405180830381865afa1580156125ab573d6000803e3d6000fd5b505050506040513d601f19601f820116820180604052508101906121519190612a94565b6125d76126c8565b60405180610120016040528084600001516001600160a01b03168152602001846020015165ffffffffffff168152602001846040015163ffffffff16815260200184606001511515815260200183604001516001600160a01b0316815260200183606001518152602001836080015181526020018360a00151815260200165ffffffffffff8016846000015165ffffffffffff16141515815250905092915050565b6040518060c00160405280600065ffffffffffff168152602001600065ffffffffffff16815260200160006001600160a01b031681526020016000815260200160008152602001600081525090565b6040805161012081018252600080825260208201819052918101829052606081018290526080810182905260a0810182905260c0810182905260e0810182905261010081019190915290565b6001600160a01b038116811461272957600080fd5b50565b65ffffffffffff8116811461272957600080fd5b6000806000806080858703121561275657600080fd5b843561276181612714565b93506020850135925060408501359150606085013561277f8161272c565b939692955090935050565b60ff8116811461272957600080fd5b6000806000606084860312156127ae57600080fd5b83356127b981612714565b925060208401356127c98161272c565b915060408401356127d98161278a565b809150509250925092565b602080825282518282018190526000919060409081850190868401855b82811015612863578151805165ffffffffffff9081168652878201511687860152858101516001600160a01b031686860152606080820151908601526080808201519086015260a0908101519085015260c09093019290850190600101612801565b5091979650505050505050565b60008060006060848603121561288557600080fd5b833561289081612714565b95602085013595506040909401359392505050565b6000806000606084860312156128ba57600080fd5b83356128c581612714565b925060208401356128d58161272c565b915060408401356127d98161272c565b602080825282518282018190526000919060409081850190868401855b8281101561286357815180516001600160a01b0390811686528782015165ffffffffffff16888701528682015163ffffffff16878701526060808301511515908701526080808301519091169086015260a0808201519086015260c0808201519086015260e08082015190860152610100908101511515908501526101209093019290850190600101612902565b6000602082840312156129a257600080fd5b815161068d81612714565b6001600160a01b039384168152919092166020820152604081019190915260600190565b6000602082840312156129e357600080fd5b8151801515811461068d57600080fd5b600060208284031215612a0557600080fd5b5051919050565b6001600160a01b03929092168252602082015260400190565b8051612a308161272c565b919050565b600060208284031215612a4757600080fd5b815161068d8161272c565b65ffffffffffff9290921682526001600160a01b0316602082015260400190565b634e487b7160e01b600052604160045260246000fd5b8051612a3081612714565b600060c08284031215612aa657600080fd5b60405160c0810181811067ffffffffffffffff82111715612ad757634e487b7160e01b600052604160045260246000fd5b604052612ae383612a25565b8152612af160208401612a25565b6020820152612b0260408401612a89565b6040820152606083015160608201526080830151608082015260a083015160a08201528091505092915050565b634e487b7160e01b600052603260045260246000fd5b600060208284031215612b5757600080fd5b815161068d8161278a565b634e487b7160e01b600052601160045260246000fd5b80820281158282048414176124d7576124d7612b62565b600082612bac57634e487b7160e01b600052601260045260246000fd5b500490565b808201808211156124d7576124d7612b62565b600080600060608486031215612bd957600080fd5b8351925060208401519150604084015190509250925092565b818103818111156124d7576124d7612b62565b65ffffffffffff828116828216039080821115612c2457612c24612b62565b5092915050565b600065ffffffffffff821680612c4357612c43612b62565b6000190192915050565b60008060008060008060c08789031215612c6657600080fd5b8651612c718161272c565b6020880151909650612c828161272c565b6040880151909550612c9381612714565b80945050606087015192506080870151915060a087015190509295509295509295565b600065ffffffffffff808316818103612cd157612cd1612b62565b6001019392505050565b8051602082015165ffffffffffff19808216929190601a831015612d0957808184601a0360031b1b83161693505b50505091905056fea264697066735822122053ba3042965b3511f54eb2790f5dbed7cba469fd3600abee40563512b3db334e64736f6c63430008180033",
  "linkReferences": {},
  "deployedLinkReferences": {}
}